:100000000C94D70F0C94C21A0C94EE1A0C941A1B71
:100010000C94461B0C94721B0C949E1B0C94CA1BD4
:100020000C94F61B0C94F80F0C94F80F0C94F80F2A
:100030000C94F80F0C94F80F0C94F80F0C94F80F24
:100040000C94F80F0C94F80F0C94F80F0C94F80F14
:100050000C94F80F0C94F80F0C94221C0C94F80FCD
:100060000C94F80F0C94F80F0C94F80F0C94F80FF4
:100070000C94F80F0C94F80F0C94F80F0C94F80FE4
:100080000C94F80F0C94F80F0C94F80F0C94F80FD4
:100090000C94F80F0C94F80F0C94F80F0C94F80FC4
:1000A0000C94F80F0C94F80F0C94F80F0C94F80FB4
:1000B0000C94F80F0C94F80F0C94F80F0C94F80FA4
:1000C0000C94F80F0C94F80F0C94F80F3C2F613E31
:1000D000004578742D494F002F3F70743D256426EC
:1000E00063663D313E00207C203C6120687265667D
:1000F0003D2F003C2F613E002F53434C002F5344B3
:100100004100493243004453002F4431002F443012
:100110000057323600414443004E4300202D20005A
:10012000290025640028003E50002564002F3F7000
:10013000743D003C62723E3C6120687265663D2FF2
:10014000003C62723E2D2D2D003C62723E2D2D2012
:100150005850352F36202D2D002F3F63663D343EFD
:100160005850323C2F613E3C62723E2D2D20585437
:1001700032202D2D002F3F63663D333E5850313CD9
:100180002F613E3C62723E3C6120687265663D2F85
:10019000002F3F63663D313E436F6E6669673C2FBB
:1001A000613E3C62723E2D2D204D4F4453202D2D3B
:1001B0003C62723E3C6120687265663D2F00293CBE
:1001C00062723E3C6120687265663D2F00342E31BC
:1001D000326239004D656761442D32353631206217
:1001E00079203C6120687265663D687474703A2FAE
:1001F0002F61622D6C6F672E72753E61622D6C6F80
:10020000672E72753C2F613E202866773A200032B7
:10021000202D2D0031202D2D003E4261636B3C2F9F
:10022000613E3C62723E2D2D20506F7274732058D7
:100230005000446F6E65003E002076616C75653D30
:10024000003C696E707574206E616D653D6B6579FB
:10025000004E2F4100383E4C617374206B65793A33
:1002600020003E002076616C75653D003E204163B4
:10027000743A203C696E707574206E616D653D63E3
:10028000726E61002076616C75653D00543A203CC9
:10029000696E707574206E616D653D63726E740079
:1002A0003E003E205344413A203C696E70757420F4
:1002B0006E616D653D637364612076616C75653D4B
:1002C000003C62723E5365742074696D653A203C4F
:1002D000696E707574206E616D653D7374696D65CE
:1002E0003E3C62723E53434C3A203C696E707574DA
:1002F000206E616D653D6373636C2076616C75651E
:100300003D00373E4375722074696D653A200022C6
:100310003E3C62723E737276206C6F6F703A203C86
:10032000696E70757420747970653D636865636B80
:10033000626F78206E616D653D736C2076616C75BF
:10034000653D31004D656761642D49443A203C6943
:100350006E707574206E616D653D6D646964206DAD
:1003600061786C656E6774683D352073697A653DA8
:10037000352076616C75653D2200323E003C62722C
:100380003E557074696D653A200057646F673A2076
:100390003C696E707574206E616D653D707220737E
:1003A000697A653D332076616C75653D00536372F3
:1003B0006970743A203C696E707574206E616D6569
:1003C0003D736374206D61786C656E6774683D3150
:1003D000352076616C75653D22003C62723E00649A
:1003E0006973636F6E6E656374656400636F6E6ED0
:1003F0006563746564003E4D5154543C2F73656CC5
:100400006563743E20003E485454503C6F707469DC
:100410006F6E2076616C75653D31005352562054E5
:100420007970653A203C73656C656374206E616D0C
:10043000653D737276743E3C6F7074696F6E2076A2
:10044000616C75653D300025642E25642E25642E73
:1004500025643A25753E3C62723E003E3C62723E27
:100460005352563A203C696E707574206E616D650A
:100470003D7369702076616C75653D0047573A2081
:100480003C696E707574206E616D653D677720768E
:10049000616C75653D25642E25642E25642E2564CA
:1004A000005077643A203C696E707574206E616DFF
:1004B000653D707764206D61786C656E6774683D2A
:1004C000332076616C75653D220049503A203C69C5
:1004D0006E707574206E616D653D65697020766122
:1004E0006C75653D25642E25642E25642E256400DB
:1004F000313E0063662076616C75653D002F3E00DD
:100500002F3F63663D383E6942204B6579733C2F2F
:10051000613E002F3F63663D373E43726F6E3C2F56
:10052000613E002F3F63663D323E4D656761642D3D
:1005300049443C2F613E002F3F63663D313E436F8F
:100540006E6669673C2F613E003E4261636B3C2FE3
:10055000613E002F3F63663D31003E4261636B3C6C
:100560002F613E3C62723E4D656761442069732095
:1005700072657374617274656400340033002F3FD8
:1005800063663D002A003B003E003C62723E4469C7
:100590007370203C696E707574206E616D653D648A
:1005A0006973702073697A653D322076616C756578
:1005B0003D0026636D643D7363616E3E49324320A6
:1005C0005363616E3C2F613E002F3F70743D003ECF
:1005D0004D435032333030383C2F73656C65637453
:1005E0003E003E535344313330363C6F7074696F74
:1005F0006E2076616C75653D3230003E54534C324E
:100600003539313C6F7074696F6E2076616C756539
:100610003D34003E4248313735303C6F7074696F6D
:100620006E2076616C75653D33003E424D50313829
:10063000303C6F7074696F6E2076616C75653D3209
:10064000003E4854553231443C6F7074696F6E20DF
:1006500076616C75653D35003E414E593C6F707456
:10066000696F6E2076616C75653D31003C62723E4B
:10067000446576203C73656C656374206E616D65BE
:100680003D643E3C6F7074696F6E2076616C756579
:100690003D30003E003C62723E53434C203C696E4C
:1006A000707574206E616D653D6D6973632073694B
:1006B0007A653D332076616C75653D003E53434C51
:1006C0003C2F73656C6563743E003E5344413C6F40
:1006D0007074696F6E2076616C75653D32003E4EB8
:1006E000433C6F7074696F6E2076616C75653D3147
:1006F000003C62723E4D6F6465203C73656C6563BF
:1007000074206E616D653D6D3E3C6F7074696F6EF7
:100710002076616C75653D30003E003C62723E445F
:1007200031203C696E707574206E616D653D6D6938
:1007300073632073697A653D332076616C75653D1E
:10074000003E44313C2F73656C6563743E003E444B
:10075000303C6F7074696F6E2076616C75653D32E8
:10076000003E4E433C6F7074696F6E2076616C750D
:10077000653D31003C62723E4D6F6465203C73659F
:100780006C656374206E616D653D6D3E3C6F707489
:10079000696F6E2076616C75653D300026636D640F
:1007A0003D6C6973743E446576696365204C69737A
:1007B000743C2F613E002F3F70743D003E5732362F
:1007C0003C2F73656C6563743E003E69423C6F70FC
:1007D00074696F6E2076616C75653D36003E3157E9
:1007E0004255533C6F7074696F6E2076616C75650D
:1007F0003D34003E31573C6F7074696F6E207661F6
:100800006C75653D35003E44485432323C6F70741F
:10081000696F6E2076616C75653D33003E444854C7
:1008200031313C6F7074696F6E2076616C75653D17
:1008300032003C62723E53656E203C73656C6563AA
:1008400074206E616D653D643E3C6F7074696F6EBF
:100850002076616C75653D310020636865636B656A
:10086000643E203C696E707574206E616D653D6DEF
:10087000322073697A653D332076616C75653D0081
:100880003E486967683C2F73656C6563743E3C62E3
:10089000723E536D6F6F7468203C696E7075742082
:1008A000747970653D636865636B626F78206E6113
:1008B0006D653D6D6973632076616C75653D3100D2
:1008C0003E4C6F773C6F7074696F6E2076616C750B
:1008D000653D32003E4E6F726D3C6F7074696F6E95
:1008E0002076616C75653D31003C62723E467265F2
:1008F00071203C73656C656374206E616D653D6647
:10090000723E3C6F7074696F6E2076616C75653DE8
:1009100030003E4453323431333C2F73656C656391
:10092000743E003C6F7074696F6E2076616C756503
:100930003D32003E50574D003C6F7074696F6E2021
:1009400076616C75653D31003E5357003C62723EE6
:100950004D6F6465203C73656C656374206E616DDA
:10096000653D6D3E3C6F7074696F6E2076616C758D
:10097000653D30003E313C2F73656C6563743E000D
:100980003E303C6F7074696F6E2076616C75653DAA
:1009900031003C73656C656374206E616D653D6408
:1009A0003E3C6F7074696F6E2076616C75653D308A
:1009B000003C696E707574206E616D653D642073D6
:1009C000697A653D33206D61786C656E6774683D4A
:1009D000332076616C75653D003C62723E4465660D
:1009E00061756C743A20003C62723E526177203C23
:1009F000696E70757420747970653D636865636BAA
:100A0000626F78206E616D653D642076616C7565FE
:100A10003D31003E433C2F73656C6563743E203C62
:100A2000696E70757420747970653D636865636B79
:100A3000626F78206E616D653D6D697363207661CC
:100A40006C75653D31003E523C6F7074696F6E206D
:100A500076616C75653D33003E5026523C6F707474
:100A6000696F6E2076616C75653D32003E503C6F5B
:100A70007074696F6E2076616C75653D31003C6203
:100A8000723E4D6F6465203C73656C656374206EC7
:100A9000616D653D6D3E3C6F7074696F6E2076616F
:100AA0006C75653D3000223E203C696E7075742087
:100AB000747970653D636865636B626F78206E6101
:100AC0006D653D6E61662076616C75653D31002F08
:100AD000003A25750025642E25642E25642E256494
:100AE000003E3C62723E4E6574203C696E707574C7
:100AF0002073697A653D3330206E616D653D6574A4
:100B0000682076616C75653D2200223E203C696E4E
:100B100070757420747970653D636865636B626F8E
:100B200078206E616D653D61662076616C75653D0E
:100B300031003C62723E416374203C696E70757492
:100B4000206E616D653D65636D642076616C7565D1
:100B50003D22003E3C62723E487374203C696E70D8
:100B60007574206E616D653D6873742076616C7577
:100B7000653D003E3C3E3C2F73656C6563743E3CB6
:100B800062723E56616C203C696E707574206E61B5
:100B90006D653D6D6973632073697A653D342076B8
:100BA000616C75653D003E3C3C6F7074696F6E20F2
:100BB00076616C75653D33003E3E3C6F7074696FC5
:100BC0006E2076616C75653D32003E4E6F726D3CF5
:100BD0006F7074696F6E2076616C75653D31004D84
:100BE0006F6465203C73656C656374206E616D6530
:100BF0003D6D3E3C6F7074696F6E2076616C7565FB
:100C00003D30003C2F73656C6563743E003E41448B
:100C100043003C6F7074696F6E2076616C75653D42
:100C200032003E493243003E4453656E3C6F70745F
:100C3000696F6E2076616C75653D34003E4F75744A
:100C40003C6F7074696F6E2076616C75653D330022
:100C50003E496E3C6F7074696F6E2076616C75658D
:100C60003D31003E4E433C6F7074696F6E2076617B
:100C70006C75653D300054797065203C73656C651A
:100C80006374206E616D653D7074793E3C6F707465
:100C9000696F6E2076616C75653D32353500706E1A
:100CA0002076616C75653D002F3E003C62723E3CD3
:100CB0006120687265663D2F25732F3F70743D2556
:100CC00064266578743D25643E5025643C2F613E62
:100CD000003C62723E2D2D20506F72747320457857
:100CE0007420284D4350323330303829202D2D00C8
:100CF0002F002F0068756D3A002F0074656D703AF3
:100D0000003C2F613E2000303E003C2F613E200021
:100D1000313E003C6120687265663D2F25732F3F90
:100D200070743D2564266578743D256426636D6482
:100D30003D25646525643A003A303E4F46463C2FD7
:100D4000613E3C62723E004200410026636D643D9C
:100D5000002F3F70743D003A313E4F4E3C2F613EB4
:100D6000203C6120687265663D2F004200410026EC
:100D7000636D643D002F3F70743D00423A20004196
:100D80003A20002F004E412F4E41002F003E203CC4
:100D9000696E70757420747970653D7375626D69E4
:100DA000742076616C75653D6368616E67653E3C75
:100DB0002F666F726D3E003E50574D2028302D3209
:100DC0003535293A203C696E707574206E616D6509
:100DD0003D70776D2073697A653D332076616C755F
:100DE000653D0070742076616C75653D002F3E0096
:100DF0003C62723E3C666F726D207374796C653D27
:100E0000646973706C61793A696E6C696E652061B2
:100E10006374696F6E3D2F003C62723E6C75783A68
:100E2000003C62723E6C75783A0074656D703A00F1
:100E30002F68756D3A0074656D703A002F003E4260
:100E400061636B3C2F613E3C62723E500034003364
:100E500000312670743D002F3F63663D003B003A31
:100E6000006275737900446F6E650026616C6C3D9D
:100E7000006D6469643D003F00485454502F312E8A
:100E8000302034303120556E617574686F72697A24
:100E900065640D0A0D0A556E617574686F72697A22
:100EA00065640054727920687474703A2F2F6970E9
:100EB0002F707764002F002F002F002F002F002F9E
:100EC000005025643A200049503A202564202E2005
:100ED0002564202E202564202E20256400485454AB
:100EE000502F312E3020323030204F4B0D0A436FBF
:100EF0006E74656E742D547970653A2074657874DB
:100F00002F68746D6C0D0A507261676D613A206EC6
:100F10006F2D63616368650D0A0D0A002892A5AC08
:100F2000AFA5E0290082EBAAAB0082AAAB2020206B
:100F3000004F4646004F4E00494E004F5554002288
:100F40003E3C62723E003E3C62723E003C62723E3B
:100F500000207C203C6120687265663D2F003C616A
:100F600020687265663D2F003E0020636865636BF4
:100F70006564003C696E70757420747970653D68B5
:100F8000696464656E206E616D653D003C62723E11
:100F90003C696E70757420747970653D7375626D0F
:100FA00069742076616C75653D536176653E3C2FB2
:100FB000666F726D3E003C666F726D20616374698E
:100FC0006F6E3D2F002073656C6563746564001659
:100FD0000000000000000000000000000000000011
:100FE0000000000000000000000000000000000001
:100FF00016580000000016B0000708010000001697
:101000002401167C0116D401162C0216840216DC6B
:1010100002163403168C0316E403163C040F9404E2
:1010200000000000000000000000000000000000C0
:1010300000000000000000000000000000000000B0
:1010400000000000000000000000000000000000A0
:101050000000000000000000000000000000000090
:101060000000000000000000000000000000000080
:1010700000000000000000000000000000003E0032
:1010800000003E0000003E0000003E0000003E0068
:1010900000003E0000003E0000003E0000FEFF1F7A
:1010A00000FEFF1F00FEFF1F00FEFF1F00003E00AE
:1010B00000003E0000003E0000003E0000003E0038
:1010C00000003E0000003E0000003E000000000066
:1010D0000000000000000000000000000000000010
:1010E0000000000000000000000000000000000000
:1010F00000003E0000003E0000003E0000003E00F8
:1011000000003E0000003E0000003E0000003E00E7
:1011100000003E0000003E0000003E0000003E00D7
:1011200000003E0000003E00000000FE000000FE47
:10113000000000FE000000FE000000FE000000FEB7
:10114000000000FE00F0FF0000FEFF0700FFFF0FA1
:10115000C0FFFF3FC0FFFF3FE0FFFF7FE0FFFF7FDB
:10116000F00F00FFF00300FCF00100F8F00100F8C0
:10117000F00100F8F00100F8F00300FCF00F00FFB0
:10118000E0FFFF7FE0FFFF7FC0FFFF3FC0FFFF3FAB
:1011900000FFFF0F00FEFF0700F0FF00000000004F
:1011A0000000000000000000001E00F8001E00F813
:1011B000001E00F8001E00F8001F00F8001F00F8D5
:1011C000C0FFFFFFE0FFFFFFE0FFFFFFE0FFFFFFCB
:1011D000E0FFFFFFE0FFFFFFE0FFFFFF000000F880
:1011E000000000F8000000F8000000F8000000F81F
:1011F000000000F800000000000000F8C00F00F838
:10120000E00700FCE00700FEE00300FFF00380FFC2
:10121000F001C0FFF001C0FFF001E0FFF001F0FFBE
:10122000F001FCFBF003FEF9F087FFF8F0FF7FF818
:10123000E0FF7FF8E0FF3FF8C0FF1FF8C0FF07F8AE
:1012400080FF03F800FE00F8000000F80000000036
:10125000000000000000003FC00F007EE007007E9D
:10126000E003007CE00300FCF00100F8F0810FF8DF
:10127000F0810FF8F0810FF8F0810FF8F0810FF88E
:10128000F0C30FFCF0FF1FFEF0FFFF7FE0FFFF7FCA
:10129000E0FFFD7FC0FFFC3F807FFC1F001FF80FB9
:1012A0000000E0030000F0030000F8030000FE036C
:1012B0000000FF030080FF0300E0EF0300F0E703FE
:1012C00000F8E10300FEE003007FE003C01FE0033D
:1012D000E00FE003E0FFFFFFE0FFFFFFE0FFFFFFA5
:1012E000E0FFFFFFE0FFFFFFE0FFFFFFE0FFFFFF8A
:1012F0000000E0030000E0030000E0030000000045
:101300000000003FE0FF0F7EE0FF0F7EE0FF0F7C5C
:10131000E0FF07FCE0FF07F8E0FF07F8E0FF07F851
:10132000E0C307F8E0C307F8E0C307F8E0C30FFC29
:10133000E0C30FFCE0C31FFEE0C3FF7FE083FF7F3D
:10134000E083FF3FE003FF3FE003FF1FE003FE0FEA
:101350000000F80300C0FF0000F8FF0700FCFF0FCB
:1013600000FFFF1F80FFFF3F80FFFF7FC0FFFF7F69
:10137000E09F03FFE0C703FCE0C703F8F0E303F8D6
:10138000F0E103F8F0E103F8F0E107FCF0E10FFE13
:10139000F0E1FF7FF0E1FF7FF0C1FF3FF0C3FF3FCF
:1013A000F083FF1F0000FF070000FC0100000000A9
:1013B000E0030000E0030080E00300E0E00300F051
:1013C000E00300FCE00300FFE003C0FFE003F0FFE8
:1013D000E003F8FFE003FE7FE083FF1FE0E3FF0F81
:1013E000E0F3FF03E0FFFF00E0FF3F00E0FF0F003E
:1013F000E0FF0300E0FF0100E07F0000E01F0000CD
:10140000E00700000000C007003EF01F80FFF83F2B
:10141000C0FFF93FC0FFFD7FE0FFFF7FE0FFFFFF60
:10142000F0FF1FFEF0E307FCF0C10FF8F0C10FF86A
:10143000F0C10FF8F0811FF8F0831FFCF0FF3FFCB4
:10144000E0FFFF7FE0FFFF7FE0FFFE7FC0FFFC3F8C
:10145000807FFC1F001FF80F0000E00700FC010068
:1014600000FF070080FF0FFCC0FF1FFCC0FF1FF83C
:10147000E0FF3FF8E0FF3FF8F0873FF8F0033FF868
:10148000F0013EF8F0013EFCF0013EFCF0011E7E52
:10149000F0031E7FF00FCE7FE0FFFF3FE0FFFF1F56
:1014A000C0FFFF1FC0FFFF0F00FFFF0300FEFF0094
:1014B00000F01F00003E000080FF0000C0FF0100A0
:1014C000E0FF0300E0E30300F0C10700F080070045
:1014D000F0800700F0800700F0C10700E0E30300A0
:1014E000E0FF0300C0FF010080FF0000003E00009D
:1014F0000100000302000808000618000B24000881
:101500003A00014A00044C00045400055C000766E0
:101510000002740005780001820006840006900035
:10152000059C0006A60006B20007BE0006CC000619
:10153000D80006E40006F00006FC00010801020ADB
:1015400001070E01071C01072A010538010B4201A2
:10155000075801066601077201078001068E010621
:101560009A0107A60107B40103C20105C80106D20A
:101570000106DE0109EA0107FC01080A02061A0257
:1015800008260207360207440207520207600207D4
:101590006E020B7C0207920207A00207AE0203BC98
:1015A0000206C20203CE0209D40208E60202F602D3
:1015B00006FA02060603061203061E03062A0305A0
:1015C0003603064003064C03015803045A03056220
:1015D00003016C03096E03068003068C030698035F
:1015E00006A40304B00305B80304C20306CA030635
:1015F000D60309E20305F40306FE03050A040514F5
:1016000004011E04052004082A04063A04074604BF
:10161000065404066004066C04097804068A040B68
:10162000960406AC0407B80407C60406D40409E00F
:101630000409F2040704050812050722050630050F
:10164000073C05074A050758050966050778050898
:1016500086050796050BA4050CBA0509D2050AE410
:101660000506F8050704060B1206072806063606C7
:10167000064206064E06055A060764060672060965
:101680007E06059006069A0606A60606B20607BE60
:101690000607CC0606DA0606E60606F20606FE068B
:1016A000060A07051607062007092C07053E070747
:1016B00048070656070962070A740707880707964E
:1016C0000705A40706AE0709BA0706CC0706D80720
:1016D0001BF000780000007802000E4003C002708A
:1016E0000E4003C00270004010C011207FF812208D
:1016F00012200C2000E001101110091006E001007A
:101700000EC01120111011000E000EE0111011106A
:1017100011100AE00C001200110000780F803060F8
:10172000401080088008401030600F80005000207A
:1017300000F8002000500100010001000FE001004E
:10174000010001004000380001000100010001001B
:1017500001001800600018000600018000600018F9
:101760000FE010101010101010100FE010201020BB
:101770001FF0100010001860141012101210111039
:1017800010E0082010101110111011100EE00300CD
:101790000280024002201FF002000200080011F047
:1017A0001110111011100E100FC010A010901090F9
:1017B00010900F00001000101C10031000D000301B
:1017C0000EE011101110111011100EE001E01210B6
:1017D000121012100A1007E018C0400038C00200B2
:1017E0000500050008800880104010400480048037
:1017F000048004800480048004801040104008802D
:101800000880050005000200002000101B10009059
:1018100000600F80104020204F905050505050508A
:101820005FD0102010400F801800070004C0043063
:1018300004C0070018001FF011101110111011E062
:101840000E0007C0082010101010101010100820F3
:101850001FF01010101010101010082007C01FF0FB
:10186000111011101110111011101FF001100110A2
:1018700001100110001007C00820101010101210E5
:1018800012101E201FF001000100010001000100E4
:101890001FF010101FF0101010001000101010108A
:1018A0000FF01FF0010002800440082010101FF00C
:1018B000100010001000100010001FF0003000C0D9
:1018C00003000C00030000C000301FF01FF00030C8
:1018D00000C00100060018001FF007C0082010100B
:1018E000101010101010082007C01FF00210021076
:1018F0000210021001E007C0082010101010101094
:101900003010482047C01FF00210021002100510CE
:1019100008E0100008E01110111011101110111042
:101920000E200010001000101FF00010001000101A
:1019300007F00800100010001000080007F0007009
:1019400001800600180006000180007000F007000A
:101950001800060001C0003001C006001800070092
:1019600000F018300440028001000280044018306A
:101970000010006001801E0001800060001018103F
:101980001410121011101090105010307FF84008F1
:101990004008001800600180060018006000400840
:1019A00040087FF801000080004000200010002067
:1019B0000040008001004000400040004000400026
:1019C000400040004000000800100C00124012408F
:1019D000124012401F801FF810801040104010402D
:1019E0000F800F80104010401040104008800F8082
:1019F00010401040104008401FF80F801240124065
:101A0000124012400B8000401FF0004800480008C0
:101A10000F8090409040904088407FC01FF8008029
:101A20000040004000401F801FC8800080008040B0
:101A30007FC81FF802000500088010401FF81FC073
:101A40000080004000401F800080004000401F8058
:101A50001FC000800040004000401F800F801040E9
:101A60001040104010400F80FFC010801040104008
:101A700010400F800F801040104010400840FFC001
:101A80001FC00080004000401180124012401240F0
:101A90000C4000400FF0104010400FC0100010002C
:101AA000100008001FC000C0070018001800070041
:101AB00000C000C007001800070000C007001800A1
:101AC000070000C018C005000200050018C000C0D3
:101AD000870078001800070000C01840144012402A
:101AE000114010C0010001003EF0400840087FF89E
:101AF000400840083EF00100010003000080008023
:101B0000010001000200020001801FF011141110F9
:101B10001110111411101800070004C0043004C083
:101B2000070018001FF011101110111011100E00F5
:101B30001FF011101110111011E00E001FF0001015
:101B4000001000100010001070001800170010F0B6
:101B50001010101010101FF070001FF01110111055
:101B60001110111011101010081004E003000100F2
:101B70001FF00100030004E00810101008201010EE
:101B80001110111011100EE01FF0080006000100E6
:101B900000C000201FF01FF008020604010400C46A
:101BA00000221FF01FF00100030004E008101010D5
:101BB000100010000FF000100010001000100010B6
:101BC0001FF01FF0003000C003000C00030000C035
:101BD00000301FF01FF001000100010001000100B2
:101BE0001FF007C00820101010101010101008204F
:101BF00007C01FF0001000100010001000101FF0B0
:101C00001FF0021002100210021001E007C00820AD
:101C100010101010101010100820001000100010EC
:101C20001FF0001000100010103010C013000C0046
:101C3000030000C0003003800440082008201FF08B
:101C4000082008200440038018300440028001006E
:101C50000280044018301FF0100010001000100027
:101C600010001FF0700001F00200020002000200EC
:101C700002001FF01FF010001000100010001FF0F5
:101C800010001000100010001FF01FF010001000D6
:101C9000100010001FF010001000100010001FF0C6
:101CA00070000010001000101FF011001100110052
:101CB00011000E001FF011001100110011001100A1
:101CC0000E00000000001FF01FF0110011001100B5
:101CD00011000E0008201110111011101110092010
:101CE00007C01FF00100010007C0082010101010ED
:101CF00010101010082007C0100009E00610021094
:101D0000021002101FF00C0012401240124012404C
:101D10001F800FE010501048104810480F881FC057
:101D200012401240124012400D801FC0004000407F
:101D30000040004070001C0013C0104010401FC045
:101D400070000F8012401240124012400B80104071
:101D50000840058002001FC00200058008401040B6
:101D600008801240124012400D801FC00400020083
:101D7000010000801FC01FC004080210011000886D
:101D80001FC01FC002000200058008401040100064
:101D900010000FC00040004000401FC01FC0008066
:101DA00001000600010000801FC01FC002000200E9
:101DB000020002001FC00F80104010401040104071
:101DC0000F801FC000400040004000401FC0FFC007
:101DD00010801040104010400F800F8010401040C5
:101DE000104010400880004000401FC000400040EC
:101DF00000C0870078001800070000C00F80104066
:101E000010401040FFF81040104010400F8018C0E4
:101E100005000200050018C01FC0100010001000CF
:101E200010001FC0700003C0040004000400040080
:101E30001FC01FC01000100010001FC010001000B5
:101E400010001FC01FC01000100010001FC01000A5
:101E5000100010001FC07000004000401FC01100A3
:101E6000110011000E001FC01100110011000E0022
:101E700000001FC01FC01100110011000E000880DB
:101E800010401240124012400F801FC0020002009A
:101E90000F8010401040104010400F8011800A4009
:101EA0000640024002401FC00F80125012401240F4
:101EB00012500B802F636D64004D514973647000A4
:101EC0000D0A436F6E74656E742D547970653A20F7
:101ED0006170706C69636174696F6E2F782D7777AC
:101EE000772D666F726D2D75726C656E636F6465AC
:101EF000640D0A0D0A00436F6E74656E742D4C6597
:101F00006E6774683A20000D0A557365722D41673B
:101F1000656E743A207467722F312E310D0A416359
:101F2000636570743A202A2F2A0D0A436F6E6E651E
:101F30006374696F6E3A20636C6F73650D0A000DF0
:101F40000A0020485454502F312E310D0A486F7327
:101F5000743A2000504F535420000D0A5573657297
:101F60002D4167656E743A206D656761640D0A41A5
:101F700063636570743A20746578742F68746D6C4F
:101F80000D0A0D0A0020485454502F312E310D0AED
:101F9000486F73743A200047455420000001080040
:101FA00006040001450000820000400020001124CA
:101FB0001FBECFEFD1E2DEBFCDBF00E00CBF15E00A
:101FC000A0E0B2E0EEE8FAE001E00BBF02C007904B
:101FD0000D92AC3EB107D9F72EE0ACEEB5E001C0F2
:101FE0001D92A235B207E1F70E944C260C9445855C
:101FF0000C9400008FEF8093180208950F931F93A5
:10200000CF93DF93EB014AE250E0BC0184E89DE00E
:102010000E94968167EB72E084E89DE00E943A811D
:102020001092B60D2091B60D2430C8F40097B9F087
:102030008E01020F111D4AE050E060E070E00E9446
:10204000F37FF80160838091B60D8F5F8093B60DAA
:1020500067EB72E080E090E00E943A81E3CF822F4C
:10206000DF91CF911F910F910895613049F4DA010A
:10207000E8E6F2E08D91819382E0EE36F807D1F741
:102080000895623049F4DA01E4EAFCE08D9181932D
:102090008CE0EA3AF807D1F70895E0911F0DF0912E
:1020A000200D908121E030E0082E01C0220F0A941B
:1020B000EAF7922B90830895E091190DF0911A0D93
:1020C000208181E090E00090110202C0880F991FEA
:1020D0000A94E2F7282B20830895F894E091190DD3
:1020E000F0911A0D908121E030E001C0220F8A9515
:1020F000EAF7322F309593239083E0911F0DF091F2
:10210000200D8081822B80838BED95E00197F1F784
:1021100000C00000E0911F0DF091200D808183230D
:102120008083EAEDF0E03197F1F700C0E0910C0E0A
:10213000F0910D0E8081E1E0F5E03197F1F77894B0
:1021400082230895F894E091190DF0911A0D4081C1
:1021500021E030E0062E01C0220F0A94EAF7922F08
:10216000909549234083E0911F0DF091200D30811F
:10217000322B308329E22A95F1F700C0882339F009
:10218000E0911F0DF091200D80818923808385EEE1
:102190008A95F1F70000E0911F0DF091200D8081EC
:1021A0008923808378940895F894E091190DF09133
:1021B0001A0D908121E030E0082E01C0220F0A9410
:1021C000EAF7322F309593239083E0911F0DF09121
:1021D000200D9081922B908394E09A95F1F7000066
:1021E000E0911F0DF091200D9081932390839AE34D
:1021F0009A95F1F70000E0910C0EF0910D0E208100
:102200009BEB9A95F1F700C0789430E002C03595C9
:1022100027958A95E2F7822F817008951F93CF93B7
:10222000DF93D82F162FC9E0C15031F0612F8D2FC9
:10223000817088DFD695F8CFDF91CF911F910895F7
:102240001F93CF93DF93182FD9E0C0E0D15049F00E
:10225000812FAADF20E8829FC0011124C695C82BD8
:10226000F5CF8C2FDF91CF911F910895EF92FF92C0
:102270000F931F93CF93DF93182FF62EEA01E22ED0
:102280002CDF81115FC0612FF11003C08CECC6DF21
:1022900009C085E5C3DF00E0612F8991BFDF0F5FD3
:1022A0000830D1F7612F8EEBB9DF812FC9DFC82F3E
:1022B000812FC6DFD82FF1100EC0812F0EDF612FC6
:1022C0008CECACDF612F84E4A9DFEE2DF0E0E85D5B
:1022D000F14F8BE98083E0911F0DF091200D9081EB
:1022E00021E030E0012E01C0220F0A94EAF7922B80
:1022F0009083E091190DF0911A0D9081922B9083AB
:10230000EC2FE295EF702D2F277080E1289F900130
:102310001124E22BCF7041E752E0C49FC001C59F5A
:10232000900D1124D7FF03C0EF578051974264E608
:1023300070E00E94157ECB0124E6E202800D911D23
:10234000112402C088EC92E3CDB7DEB7E6E00C942E
:10235000B37E98E02CE8362F3827869530FD82270B
:1023600066959150C1F708951F93CF93DF93C82FBF
:10237000B4DE6C2F8CEC52DF6C2F85EF4FDF14E056
:102380008C2F5EDFD82FDF7082958F70482F50E042
:102390002D2F30E0209530952F70332742175307AB
:1023A00011F410E003C0115059F71FEF8C2F95DE88
:1023B0001F3F09F4DFEF8D2FDF91CF911F9108951B
:1023C000FF920F931F93CF93DF93C82FD62FDC6F0D
:1023D00014E00D2F00958C2F80DE6C2F8CEC1EDF0F
:1023E0006C2F8AE51BDF6C2F8D2F18DF6C2F802F51
:1023F00015DF8C2F25DFF82E8C2F22DF8AEAF816C6
:1024000011F0115041F78C2F68DECDB7DEB7E5E053
:102410000C94B47E4DED5EE060E070E087EA98E0F9
:102420000C942C64DC012C912F3229F5FC0131969F
:1024300080E0BF019191903231F09F3221F0BF01D5
:102440008F5F8630B1F790E0681B790BEDE9FCE017
:10245000DF010D900020E9F7AD01415051094D59C0
:102460005C404817590739F4CF010E948881892BB5
:1024700011F481E008958FEF08958234A1F467305C
:1024800019F48CE890E01FC0663019F48AE890E0F7
:102490001AC0653019F488E890E015C06430B9F4CA
:1024A00083EB90E010C0853491F4633019F488E92F
:1024B00090E009C0643019F48AE990E004C0653006
:1024C00031F48CE990E09093AF0D8093AE0D0895B8
:1024D000863419F481E390E01DC0853419F48EE24E
:1024E00090E018C0823419F485E290E013C087347C
:1024F00019F484E390E00EC0843419F48BE290E088
:1025000009C0813419F482E290E004C0833431F4CC
:1025100088E290E09093100E80930F0E0895863419
:1025200079F481E390E090931A0D8093190D80E384
:1025300090E09093200D80931F0D8FE290E065C096
:10254000853479F48EE290E090931A0D8093190D02
:102550008DE290E09093200D80931F0D8CE290E02F
:1025600054C0823479F485E290E090931A0D809300
:10257000190D84E290E09093200D80931F0D83E26B
:1025800090E043C0873479F484E390E090931A0D8F
:102590008093190D83E390E09093200D80931F0D9D
:1025A00082E390E032C0843479F48BE290E090933F
:1025B0001A0D8093190D8AE290E09093200D80937C
:1025C0001F0D89E290E021C0813479F482E290E02D
:1025D00090931A0D8093190D81E290E09093200D55
:1025E00080931F0D80E290E010C0833491F488E264
:1025F00090E090931A0D8093190D87E290E09093EC
:10260000200D80931F0D86E290E090930D0E809335
:102610000C0E0895A1E0B0E0E0E1F3E10C949A7EA5
:10262000182F862F49837BDF4981113319F4842FBA
:1026300034DD0EC0E0911F0DF091200D808121E06E
:1026400030E001C0220F4A95EAF720952823208325
:102650002196E3E00C94B67ECF93C82F833038F5F3
:102660008091130235DFC13089F4E0910F0EF091B3
:10267000100E208181E090E00090070602C0880FD4
:10268000991F0A94E2F7282B208328C0C23079F4DE
:10269000E0910F0EF091100E208181E090E000900B
:1026A000070602C0880F991F0A94E2F714C0C330CE
:1026B00011F402DD13C0C43089F4E091190DF091DA
:1026C0001A0D208181E090E00090110202C0880F75
:1026D000991F0A94E2F7809582238083CF91089511
:1026E000CF93C82F809112021ADFC13079F4C091C4
:1026F00007068091130213DF8C2FCFDCC0911102EB
:10270000809112020CDF8C2FC8DC08C084E0C2303C
:1027100021F4A2DF82E0A0DF04C09EDF81E09CDF25
:10272000CBDCCF910895EF92FF920F931F93CF933D
:10273000DF93E82E80911202F2DEC7E0D0E0F12CA8
:1027400001E010E022E32A95F1F7E091190DF091F4
:102750001A0D8091110297010C2E02C03595279514
:102760000A94E2F720FF0AC02081A80102C0440FAA
:10277000551F8A95E2F7242B20830BC02081A801E6
:1027800002C0440F551F8A95E2F7CA018095822343
:10279000808381E061DF82E05FDF84E05DDF21979D
:1027A00088F6409111026091120280E333DF81E0EC
:1027B00053DFE0910C0EF0910D0E808190E00090BF
:1027C000110202C0959587950A94E2F781709927C6
:1027D00021E08227C82FC17082E03EDF84E03CDF29
:1027E000D0911102809112029ADE8D2F56DC8C2F2F
:1027F000CDB7DEB7E6E00C94B37EEF92FF920F9375
:102800001F93CF93DF93E82E409111026091120243
:1028100080E300DF8091120282DE82E01DDFC7E0EC
:10282000D0E0F12C01E010E081E016DFE0910C0E29
:10283000F0910D0E208130E00090110202C035951C
:1028400027950A94E2F720FD09C098010C2E01C0DB
:10285000220F0A94EAF72095F22207C098010C2E65
:1028600001C0220F0A94EAF7F22A82E0F5DE2197EE
:10287000D8F6C09111028091120251DE8C2F0DDC2E
:1028800081E0EADE81E0E81202C016DC02C084E0EA
:10289000E3DE82E0E1DE409111026091120280E30A
:1028A000B9DE8F2DCDB7DEB7E6E00C94B37EA0E2A3
:1028B000B0E0EDE5F4E10C948B7E8C01698F4A8FDA
:1028C0002E8B86E496E4A0E08E879F87A88B8B876B
:1028D0009C87AD871092B60D73E0672E50E0712C87
:1028E000EE24E394F12C862F90E01C01220C331C83
:1028F000D101AC57B84F1D019C012E5E394F388F66
:102900002F8BBC8FAB8F9E012F5F3F4F3A8B298B54
:102910009C012859374F3E8F2D8F2091B60D822F65
:1029200090E0F80101900020E9F73197E01BF10BEE
:102930008E179F0708F0F2C3F801E80FF91F4081D6
:102940004A3039F486E48E878F871F8250E0712CDD
:10295000D7C34A3321F4533009F0C4C334C04B33D6
:1029600009F4C2C3403709F4C1C3413609F4C0C3F6
:10297000453609F4BFC3413409F4BEC3423409F4F7
:10298000BDC34C3709F4CAC34B3209F4BFC34E3739
:1029900009F4BCC34D3209F4BBC3511107C08E8585
:1029A000863411F04F87ACC34E87AAC3573039F431
:1029B0008B85863411F04C87A3C34B87A1C351305C
:1029C00041F0543031F08BEF850F823008F06EC249
:1029D0000BC0398D343641F0AD8DBE8D8C91811197
:1029E00003C0F101118210828F85863409F41F869D
:1029F000CE010E964F8F58A30E940481482E552475
:102A000047FC50946201CC0CDD1CF601E65EFD4FE4
:102A100080819181DC012D91CD012B8B0E9404815D
:102A20004C014F8D58A14E3751F4F601ED56F94F38
:102A300080819181029711F456E001C055E0682D24
:102A40008B8958A31ADD8B896ADD8091B60D9801B8
:102A5000280F311D3D8B2C8BD9014C91F201EC5C80
:102A6000F84F5F0158A14E3529F48081811109C0CA
:102A700081E0F7C1463741F48081811102C082E0D4
:102A8000F0C1D5011C92EEC1483711F41082EAC1A1
:102A90001082F201E45EF74F9081913009F0F0C0AE
:102AA000F201E859F74F9081913009F00EC18F5F24
:102AB00090E0F80101900020E9F73197E01BF10B5D
:102AC0008E179F0740F4F801E80FF91F80818A53A1
:102AD000823008F0C9C0872D90E0E7E0F0E0EC0F0D
:102AE000FD1FE80FF91F4083FE01E80FF91F108654
:102AF0002B89223419F0253409F0B0C0CE01079695
:102B000058A30E940481F601EC57F84F918380830B
:102B100058A1543051F4A091AE0DB091AF0D8D91EC
:102B20009C91892B11F011821082C60185509F4F14
:102B300058A30E946784F601E053F84F9183808385
:102B400058A1553008F479C0D1018D919C9100971E
:102B500071F5EF89F88D8081811157C0E091AE0D3C
:102B6000F091AF0D80819181892B29F0AC89BD89CD
:102B70008C918E3711F0553041F011821082F601A0
:102B8000ED56F94FF182E08269C0D201AE5EB94FD5
:102B90008C91811102C08FEF8C938C9190E0918386
:102BA000808382E090E0F601ED56F94F55C0019721
:102BB00009F03FC0E091AE0DF091AF0D553049F4F2
:102BC000808191818F3F910578F480819181019678
:102BD00009C0563049F480819181892B29F0808188
:102BE000918101979183808381E0AF89B88D8C9327
:102BF00083E090E0AB8DBC8D8D939C93808191811F
:102C0000F201EE5EF94F808329C0813091F4F60124
:102C1000ED56F94F80819181029728F482E090E08F
:102C20009183808302C0F182E082EF89F88D108267
:102C300015C0AF89B88D1C9211C0009751F4E09176
:102C4000AE0DF091AF0DD601AC57B84F8D919C9160
:102C500003C0F601ED5CF24F9183808386E48E879A
:102C60008F871F82712C03C14A3209F4FFC0E7E04D
:102C7000F0E0EC0FFD1FE70DF11D40837394F7C0EA
:102C8000923019F5B3E06B1601F1882D58A36CDB77
:102C900086958B7F9091B60DF801E90FF11D90811B
:102CA00058A1B701062C01C0660F0A94EAF79133C8
:102CB00019F46095682305C0923311F4682701C0A8
:102CC000682B882D58A37CDB7EC0F201E859F74FB2
:102CD0008081843009F079C0F201EE5BF74F80818A
:102CE000843109F072C0CE010B9658A30E94048172
:102CF0002C012B892093120280921102F601E053DD
:102D0000F84F0190F081E02DEE0FFF1FE65EFD4FC2
:102D100080819181DC014D91CD01409313020E948D
:102D200004818093070681E0DBDC82E0D9DC80E46B
:102D3000FADC89E0F8DC83E0D3DC82E0D1DC81E4FA
:102D4000F2DC81E05ADD982E83E0CADC8091B60D7A
:102D5000F801E80FF11D80819201332758A18133DA
:102D600049F4F70102C0EE0FFF1F2A95E2F7892C04
:102D70008E2A14C0823349F4C70102C0880F991FFC
:102D80002A95E2F7892C882609C0D70102C0AA0F2C
:102D9000BB1F2A95E2F78A2E8094892082E058A3EF
:102DA0009FDC80E4C0DC80E0BEDC80E0BCDC83E053
:102DB00097DC82E095DC80E4B6DC89E0B4DC882D29
:102DC000B2DC83E08DDC58A14DC0413359F0433370
:102DD00021F42E892130B9F405C0443389F43E89A9
:102DE000311115C0E091190DF0911A0D8081D701B4
:102DF00002C0AA0FBB1F8A94E2F74D018A2B29C09B
:102E0000403341F017C02E89222321F023C03E8990
:102E1000313001F5E091190DF0911A0D8081D70143
:102E200002C0AA0FBB1F8A94E2F74D01809488224A
:102E3000808210C0423371F4E091190DF0911A0DA7
:102E40008081970102C0220F331F8A94E2F7490163
:102E500082278083F201E454F24F8081843610F49B
:102E60008C59808386E48E878F8701C054E0D5011A
:102E70008C9118160CF044C12091B60DF801E20FA8
:102E8000F11D818190ED980FF601EC57F84F9A30C3
:102E900050F4992787FD9095C097918380832F5F89
:102EA0002093B60D2DC1118210822AC1523009F033
:102EB0004CC0872D90E0E1E0F0E0EC0FFD1FE80F43
:102EC000F91F4083FE01E80FF91F1282739481E01D
:102ED000820F90E0F80101900020E9F73197E01BA4
:102EE000F10B8E179F0740F4F801E80FF91F80815E
:102EF0008A53823008F004C142E0D42ED20E3A8DBB
:102F0000D30E46E14D1508F4FBC0598D052F10E096
:102F1000CE0101960E940481F801EE0FFF1FE35CD1
:102F2000F94F34E1DC013A9FC0013B9F900D112421
:102F300091838083F801EE5EF94FD08285E0E989C4
:102F4000FA8911928A95E9F7E9C0533009F0D8C09F
:102F50002F5F2093B60D8AE1882E82E0982E28E616
:102F600038E03D8B2C8B9CEBA92E9DE0B92E2CE1FB
:102F7000422E28E0522ED4018D919D914D01FC01ED
:102F80002191CF012B8B58A30E9404816C018B8966
:102F9000C6DAAC89BD898D91BD8BAC8B58A18130CF
:102FA00009F093C0F20180818230F9F48091B60D6E
:102FB000F801E80FF11D8081813309F4ABC0803343
:102FC00009F4AAC0823309F080C08C2DCDD9682FB6
:102FD00066956B7FF3E06F2758A1643008F075C0E9
:102FE0008C2D58A3EDD958A170C0813081F56C2D7E
:102FF0008B8958A342DA8091B60DF801E80FF11DD4
:10300000808158A1803329F4E091AE0DF091AF0D8D
:1030100016C0813349F4E091AE0DF091AF0D2FEF62
:1030200030E03183208351C0823309F04EC0E091FB
:10303000AE0DF091AF0D80819181892B19F0118235
:10304000108243C08FEF90E0918380833EC08091D7
:10305000B60DF801E80FF11D8081813371F4E09124
:10306000190DF0911A0D8081D70102C0AA0FBB1F64
:10307000CA94E2F76D018A2B21C0803381F4E0917C
:10308000190DF0911A0D8081970102C0220F331F94
:10309000CA94E2F76901C094C822C08210C082338A
:1030A00071F4E091190DF0911A0D8081D70102C0E1
:1030B000AA0FBB1FCA94E2F76D018A278083F5012E
:1030C0008081843610F48C598083FFEFAF1ABF0AD9
:1030D0002FEF421A520A36E6831632E0930609F0C1
:1030E0004ACF0EC051E00CC050E00AC052E008C008
:1030F00053E006C057E004C0612C02C0662463940C
:103100008091B60D8F5F8093B60D07CC55E05BCCF8
:1031100056E059CC60E064CF63E062CFA096E2E174
:103120000C94A77EAEE1B0E0E8E9F8E10C94957E5E
:10313000DC01F22E022F10E0F801EE0FFF1FED561A
:10314000F94F11821082FE0131969E01215E3F4FA0
:10315000CF011192E217F307E1F7F801E859F74FB1
:10316000E08023E0E21206C0F801EE5BF74F208119
:10317000243019F035E23F1510F42FEF01C021E0A3
:1031800020931802F801EE58F34F208121FF05C06B
:10319000A83CB10509F086C088C0A83CB105E9F596
:1031A0006955774FFB01D12CC12CDF01A61BB70B52
:1031B0009A014D3D510510F02CED30E0A217B307F8
:1031C000E8F421912D3011F02A3041F4A2E0DA1612
:1031D00041F020812A3049F7D394E7CFB2E0DB12E7
:1031E0000BC0DC01AC0DB11D2C93C3942CE12C154C
:1031F00028F0A2E0DA2ED9CFD12CD7CFFC01EC0DEC
:10320000F11D10822981222341F02A81243629F0E0
:1032100023E040E064E64BDB48C0F801E45EF74F92
:103220008081811107C0F801E65AF84F80818F3FF5
:1032300061F410C0823039F4F801E65AF84F808109
:103240008E3F19F407C0813029F0E11003C08A8154
:10325000843659F581E0F801EC5CF84F80838AE20E
:10326000E4E8FDE0DF011D928A95E9F727E1209F60
:10327000B001219F700D11246B597B4F47E150E045
:10328000CF010E944F848091840D8F5F823050F077
:10329000F801E65AF84F20812E5F40E06F2D84E858
:1032A0009DE005DB82E0809318026E96E8E00C94C6
:1032B000B17EA1E0B0E0EFE5F9E10C94917E482FFA
:1032C000082F10E0B801645E774F7B01DB018C9121
:1032D0004801880C991C813099F54E3118F089E22B
:1032E00090E002C08CE290E090930D0E80930C0E63
:1032F000F401E65EFD4F8081918101960E94048178
:1033000080930A06F401E053F84FC080D180F601A3
:10331000EE0FFF1FE65EFD4F8081918101960E94B6
:103320000481B82EBEE1CB16D1041CF089E290E0F6
:1033300002C08CE290E09093B90D8093B80D39C033
:10334000F401E65EFD4F80819181019649830E94E0
:103350000481B82E49814E3138F089E290E0909393
:10336000B90D8093B80D06C02CE230E03093B90D52
:103370002093B80DF401E053F84F0190F081E02D57
:10338000EE0FFF1FE65EFD4FC080D180C6010196A3
:103390000E94048180930A06F6018081843419F426
:1033A00029E230E002C02CE230E030930D0E209391
:1033B0000C0E1092230D1092240D1092250D1092D8
:1033C000260D1092270D1092280D21E030E002C04A
:1033D000220F331FBA94E2F7B12CC12C78E0D72E1C
:1033E00040E050E0B0E081E090E0F4E0FA95F1F7E1
:1033F00000004F5F5F4F483765E0560779F4BA31F8
:1034000008F089C0BB0CBB0CBB0C8091230D8295CE
:1034100086958770B82AB092230D7DC0E0910C0E7E
:10342000F0910D0E6081A0910A0670E00A2E02C094
:10343000759567950A94E2F760FD1EC0AA24A394CF
:10344000AB0EB150B83108F4DA94AC0102C0440FAD
:10345000551FAA95E2F7DA0164EC79E0408150E06B
:103460004A235B23452B09F04BC06150710961155C
:103470007105A1F781E082C0E091B80DF091B90D1E
:10348000608170E062237323672BE9F5AA24A3947B
:10349000AB0EB1504C2D50E0B83180F46FEF6D0D94
:1034A000DC0102C0AA0FBB1F6A95E2F7BD01DA0179
:1034B000AD5DB24F7C91762B7C93DA94DA01AA5DF4
:1034C000B24F4FEF4D0DBC0102C0660F771F4A95FA
:1034D000E2F7AB015C91542B5C9371E0A71202C040
:1034E000BB24B39464EC79E0408150E04223532341
:1034F000452B31F46150710961157105A9F7BACFF7
:10350000BA2D40E050E0D11003C0C39468E0D62E3D
:10351000BA3208F46ACF8BEE8B0F853068F4809155
:10352000260D8093230D8091270D8093240D80918B
:10353000280D8093250D0AC0B43030F48091230DFE
:1035400086958093230D04C0B53010F083E001C050
:1035500081E08093260DD7018C91813021F4F80110
:10356000E65AF84F09C0F401E053F84F0190F0819A
:10357000E02DE65AF84F81E0808380E02196ECE070
:103580000C94AD7E1F920F920FB60F9211240BB6C2
:103590000F922F933F934F935F936F937F938F93EC
:1035A0009F93AF93BF93EF93FF93F8948EE181DEE7
:1035B0008111E8987894FF91EF91BF91AF919F911D
:1035C0008F917F916F915F914F913F912F910F90CC
:1035D0000BBE0F900FBE0F901F9018951F920F9269
:1035E0000FB60F9211240BB60F922F933F934F9368
:1035F0005F936F937F938F939F93AF93BF93EF935B
:10360000FF93F8948FE155DE8111E9987894FF914A
:10361000EF91BF91AF919F918F917F916F915F914A
:103620004F913F912F910F900BBE0F900FBE0F90B7
:103630001F9018951F920F920FB60F9211240BB680
:103640000F922F933F934F935F936F937F938F933B
:103650009F93AF93BF93EF93FF93F89480E229DE9B
:103660008111EA987894FF91EF91BF91AF919F916A
:103670008F917F916F915F914F913F912F910F901B
:103680000BBE0F900FBE0F901F9018951F920F92B8
:103690000FB60F9211240BB60F922F933F934F93B7
:1036A0005F936F937F938F939F93AF93BF93EF93AA
:1036B000FF93F89481E2FDDD8111EB987894FF91FE
:1036C000EF91BF91AF919F918F917F916F915F919A
:1036D0004F913F912F910F900BBE0F900FBE0F9007
:1036E0001F9018951F920F920FB60F9211240BB6D0
:1036F0000F922F933F934F935F936F937F938F938B
:103700009F93AF93BF93EF93FF93F8948BE1D1DD39
:103710008111EC987894FF91EF91BF91AF919F91B7
:103720008F917F916F915F914F913F912F910F906A
:103730000BBE0F900FBE0F901F9018951F920F9207
:103740000FB60F9211240BB60F922F933F934F9306
:103750005F936F937F938F939F93AF93BF93EF93F9
:10376000FF93F89489E1A5DD8111ED987894FF919C
:10377000EF91BF91AF919F918F917F916F915F91E9
:103780004F913F912F910F900BBE0F900FBE0F9056
:103790001F9018951F920F920FB60F9211240BB61F
:1037A0000F922F933F934F935F936F937F938F93DA
:1037B0009F93AF93BF93EF93FF93F89487E179DDE5
:1037C0008111EE987894FF91EF91BF91AF919F9105
:1037D0008F917F916F915F914F913F912F910F90BA
:1037E0000BBE0F900FBE0F901F9018951F920F9257
:1037F0000FB60F9211240BB60F922F933F934F9356
:103800005F936F937F938F939F93AF93BF93EF9348
:10381000FF93F89486E14DDD8111EF987894FF9144
:10382000EF91BF91AF919F918F917F916F915F9138
:103830004F913F912F910F900BBE0F900FBE0F90A5
:103840001F9018951F920F920FB60F9211240BB66E
:103850000F922F923F924F925F926F927F928F9230
:103860009F92AF92BF92CF92DF92EF92FF920F930F
:103870001F932F933F934F935F936F937F938F93F8
:103880009F93AF93BF93EF93FF93CF93DF9300D0BA
:103890001F92CDB7DEB7809106068F5F8093060634
:1038A000883C09F04BC010920606809105068F5F98
:1038B0008093050690910406923111F09A3251F4EA
:1038C0008E3141F4809110028230C1F181E0809309
:1038D000100234C08C3391F51092050631E0390F97
:1038E000309304068091EE059091EF05A091F005CC
:1038F000B091F1050196A11DB11D8093EE05909345
:10390000EF05A093F005B093F10521E02093F205B7
:103910003C33A1F410920406809103068F5F8093DC
:103920000306883159F410920306809102068F5FD6
:1039300080930206883011F4209302068091DF06FE
:10394000813099F48091140290911502A091160291
:10395000B09117020196A11DB11D8093140290939E
:103960001502A0931602B0931702809180079091E0
:103970008107A0918207B091830783309105A1054B
:10398000B10558F00197A109B10980938007909380
:103990008107A0938207B09383078091990C90913F
:1039A0009A0C8230910528F0019790939A0C80939D
:1039B000990C80919C0C8F3F69F08091100690913A
:1039C0001106813127E2920728F0019790931106A2
:1039D0008093100688E698E09A83898328E2622E15
:1039E0002EE0722E30EDA32E37E0B32E43E3C42E2B
:1039F0004DE0D42E04E817E05DE3E52E56E0F52E09
:103A000063E9862E66E0962E7AE1472E72E0572E05
:103A10001C821B82A981BA812D91BA83A98321308E
:103A200009F051C0EB81FC81E45EF74F8081813069
:103A300009F089C0F50180819181181619060CF0F2
:103A400082C0D6018D919C91009709F47CC0EB81D6
:103A5000FC81EC5CF84F2081211175C0813091050B
:103A600079F5F20120803180C10101960E94048124
:103A7000682FD1018C910E943D12E091AE0DF09122
:103A8000AF0D80819181682FD8014D915C919C018F
:103A900033272417350714F461E004C04217530795
:103AA0001CF46FEF680F03C0D5011D921C92862F86
:103AB00090E091838083F50180819181D60141C09E
:103AC0000197F60131C0D4018D919C911197009717
:103AD00089F001978D939C93892B61F4EB81FC8194
:103AE000EE58F34F808181FD05C081E090E0F70141
:103AF00091838083D7018D919C911197833091059B
:103B000018F001978D939C93233089F4EB81FC810D
:103B1000EE5BF74F80818430B1F4F80180819181B0
:103B20001816190684F40197918380830CC0211123
:103B30000AC0D8018D919C911197823091051CF09B
:103B400001978D939C93F3018081882311F081501C
:103B500080838B819C8101969C838B839FEF691A64
:103B6000790AA2E0AA0EB11CB2E0CB0ED11C0E5F06
:103B70001F4FE2E0EE0EF11CF2E08F0E911C22E0EE
:103B8000420E511C8B819C81869709F043CF809116
:103B90001002823009F0FDC08FB180953091E20DA6
:103BA000832790910D029823909590930D02209178
:103BB0000C022823292720930C0289238223282FF3
:103BC00023239091B70D922B9093B70D3827309304
:103BD000E20D83232091B30D282B2093B30D8CB1DC
:103BE00080953091B00D832790910B02982390958A
:103BF00090930B0220910A022823292720930A027E
:103C000089238223282F23239091B20D922B909306
:103C1000B20D38273093B00D832320910A0E282B44
:103C200020930A0E83B180953091BA0D832790912D
:103C30000902982390959093090220910802282365
:103C400029272093080289238223282F2323909158
:103C5000120E922B9093120E38273093BA0D8323B5
:103C60002091130E282B2093130E80B18095309154
:103C7000250E832790910702982390959093070231
:103C800020910602282329272093060289238223D4
:103C9000282F23239091290D922B9093290D3827BB
:103CA0003093250E83232091BB0D282B2093BB0D31
:103CB00086B1809530910E0E83279091050298234E
:103CC00090959093050220910402282329272093A0
:103CD000040289238223282F23239091110E922BF3
:103CE0009093110E382730930E0E832320912A0DC6
:103CF000282B20932A0D89B180953091220D83279E
:103D000090910302982390959093030220910202D0
:103D1000282329272093020289238223282F232363
:103D20009091B50D922B9093B50D38273093220DBD
:103D300083232091140E282B2093140E82B3809598
:103D40003091E90D832790910102982390959093EB
:103D500001022091000228232927209300028923B1
:103D60008223282F23239091B10D922B9093B10D94
:103D700038273093E90D83232091210D282B2093A0
:103D8000210D809109068C30A1F4A09810920906AB
:103D900015C0E9E8F6E0808191818330910518F043
:103DA000019791838083329696E0E339F90799F77A
:103DB000F3CE882319F08F5F8093090681E080930A
:103DC0000B060F900F900F900F90DF91CF91FF9106
:103DD000EF91BF91AF919F918F917F916F915F9183
:103DE0004F913F912F911F910F91FF90EF90DF9096
:103DF000CF90BF90AF909F908F907F906F905F908B
:103E00004F903F902F900F900BBE0F900FBE0F90D2
:103E10001F901895F8949091B30D8923982790934B
:103E2000B30D78940895F8949091B70D892398274D
:103E30009093B70D78940895F89490910A0E892381
:103E4000982790930A0E78940895F8949091B20D63
:103E5000892398279093B20D78940895F8949091BF
:103E6000130E892398279093130E78940895F8944D
:103E70009091120E892398279093120E78940895AA
:103E8000F8949091BB0D892398279093BB0D78945B
:103E90000895F8949091290D892398279093290DDE
:103EA00078940895F89490912A0D892398279093F7
:103EB0002A0D78940895F8949091110E89239827EB
:103EC0009093110E78940895F8949091140E89238C
:103ED00098279093140E78940895F8949091B50DC6
:103EE000892398279093B50D78940895F89490912C
:103EF000210D892398279093210D78940895F894A3
:103F00009091B10D892398279093B10D78940895DD
:103F1000009731F023E52A95F1F700000197F8CFDB
:103F200008956AE00E94F57D20E1829F900D1124A2
:103F3000892F0895982F92959F708F702AE0929FF5
:103F4000800D11240895A6E0B0E0E9EAFFE10C94A9
:103F50009B7E83E4809313021092070644E050E0B6
:103F600062E070E0CE0101960E944F84898191E069
:103F7000980F923030F0809313028A81805380939F
:103F8000070683E48093120281E08093110244E0EB
:103F900050E060E070E0CE0101960E944F8489817C
:103FA00091E0980F923030F0809312028A81805312
:103FB0008093110280911002823009F443C081E0A5
:103FC0000E94701382E00E94701380ED0E94931390
:103FD00080E00E94931383E00E94701382E00E94AD
:103FE000701381ED0E94931380E00E94FD13A2DF05
:103FF0008093050680E00E94FD139CDF80930406F9
:1040000080E00E94FD1396DF8093030681E00E940A
:10401000FD138093020683E00E94701380910206D4
:104020008150873068F082E080931002109205067C
:10403000109204061092030681E08093020602C0EB
:10404000109210022696E2E00C94B77ECF93DF9395
:1040500083E00E94701381E00E94701382E00E944E
:10406000701388E70E94931380E00E9493138EEAF6
:104070000E94931385ED0E94931380E80E9493138E
:1040800081E80E9493138EEE0E9493138DE80E94A4
:10409000931384E10E94931381EA0E94931388ECA6
:1040A0000E94931386EA0E94931380E20E94931366
:1040B00080E00E94931381E20E94931380E00E94AB
:1040C00093138FE70E94931380E00E94931382E280
:1040D0000E94931380E00E94931387E00E94931341
:1040E00083E00E94701382E00E94701388E70E94B0
:1040F000931380E40E949313C0E0D4E080E00E9418
:10410000931321972097D1F783E00E94701382E0E8
:104110000E94701388E70E94931380E00E9493131B
:104120008FEA0E94931383E00E947013DF91CF9176
:104130000895A0E0B0E0EFE9F0E20C94917ED82F72
:10414000C62F7A01D22E80910D078A3008F03FC029
:1041500081E00E94701382E00E94701388E70E9441
:10416000931380E00E94931380E20E94931381E0F6
:104170000E94931381E20E94931321E0D21202C0A5
:1041800080E001C08D2F0E9493138FE70E9493134C
:1041900082E20E94931381E0D81201C0C2E08C2F0A
:1041A0000E94931321E0D21202C083E001C081E09B
:1041B0008C0F0E94931383E00E94701382E00E9490
:1041C000701388E70E94931380E40E949313E09198
:1041D000830DF0E0EE0FFF1FED5CF24F80819181C7
:1041E00020910D070A9751F4213041F48AE0809321
:1041F0000D0710920C0710920B07D7C0213031F435
:1042000084EF91E090930C0780930B0700E010E09F
:10421000C12C8C2D90E0F70101900020E9F7319737
:10422000EE19FF098E179F0708F08EC0F701E80FFF
:10423000F91F8081803279F4D11010C080E00E9493
:10424000931380E00E94931380E00E94931380E018
:104250000E94931357C0803208F454C0982F9D0DCC
:104260008FED890F803B10F08FEA890F90E021E0FD
:10427000D21609F47BC0FC01EE0FFF1FE80FF91FF7
:10428000E051FB4EC491FC01EE0FFF1FE80FF91F38
:10429000EF50FB4EA590B490D0E0CC0FDD1F8824EA
:1042A0008394912CE92DF0E0EC17FD0758F5E80D0B
:1042B000F11D87FCFA95EA0DFB1DE053F94E849140
:1042C0000E94931381949394EDCF20910B0730912A
:1042D0000C07C9010A96C817D90708F05EC0C217B3
:1042E000D30708F45AC0EA0DFB1DE05EFF4E84912F
:1042F0000E9493132196EC2FE01BF0E0E815F905DE
:1043000020F38E0180910B0790910C079C01265F92
:104310003F4F0217130718F40817190720F480916C
:104320000D078A3078F480E00E94931380E00E94A9
:10433000931381E0D81206C080E00E94931380E0BE
:104340000E949313C39465CF80910D078A3039F48E
:1043500081E080930D0710920C0710920B078FEFEE
:104360008093190283E00E9470131FC0FC01EE0FBE
:10437000FF1FE80FF91FE153F04F8490FC01EE0F8F
:10438000FF1FE80FF91FE053F04FA590B49024E011
:10439000829E40011124E801AECFC817D90709F069
:1043A000A9CFD0930C07C0930B07CDB7DEB7ECE0D5
:1043B0000C94AD7ECF93DF93C82F81E00E947013E1
:1043C00082E00E94701380E80E94931383E00E94B1
:1043D000701382E00E94701380E80E949313C13032
:1043E00011F483EE01C085EE0E94931383E00E94D6
:1043F00070138AEF90E08CDD82E00E947013C13070
:1044000019F484EA96E002C08CE291E081DD81E853
:104410000E94931388EC90E07BDD80E00E94FD1306
:10442000D82F81E00E94FD132D2F30E0322F22275C
:10443000282B442737FD4095542F2C7F44275527A0
:10444000A0E1B7E20E947B7E9C01552737FD509585
:10445000452FC13049F4A4EAB4E40E947B7E605D3C
:104460007F4D8A4C924008C0A4EDB0E30E947B7E51
:1044700060587D488B45910920E137E240E050E0EB
:104480000E944A7ECA01B90124E630E040E050E0D3
:104490000E944A7E9F938F937F936F935F934F9376
:1044A0003F932F938DEC92E09F938F9384E89DE050
:1044B0009F938F930E94338283E00E9470138DB785
:1044C0009EB70C960FB6F8949EBF0FBE8DBFDF91BE
:1044D000CF910895CF93DF9381E00E94701382E023
:1044E0000E94701386E40E94931380E10E9493134C
:1044F00083E00E94701382E00E94701387E40E94A0
:10450000931380E00E94FD13C82F81E00E94FD13E9
:10451000D82F83E00E947013AD2FB0E0BC2B2AE0AF
:1045200030E00E94757E2CE030E040E050E00E94D8
:104530004A7E5F934F933F932F9389EB92E09F9333
:104540008F9384E89DE09F938F930E9433828DB771
:104550009EB708960FB6F8949EBF0FBE8DBFDF9131
:10456000CF910895ACE0B0E0E8EBF2E20C94917EDC
:10457000182F9BE0ECEAF2E0DE01119601900D921B
:104580009A95E1F781E00E94701382E00E94701317
:104590009E012F5F3F4F790137E1139FC001112426
:1045A00000E010E0FC01EB59FB4F5F019C012A5930
:1045B0003B4F49018EEE0E949313F70181917F01D9
:1045C0000E94931383E00E94701382E00E94701394
:1045D0008FEE0E94931380E00E94FD13682F650107
:1045E000C00ED11EC6016C870E945F846C85861741
:1045F00019F0C6010E94758481E00E94FD13682FA6
:104600006401C00ED11EC6016C870E945F846C8558
:10461000861719F0C6010E9475840E5F1F4F063180
:10462000110541F683E00E9470132C96ECE00C9487
:10463000AD7EAEE1B0E0EFE1F3E20C948B7E082FAB
:10464000262E81E00E94701382E00E9470138EEE8D
:104650000E94931384EF0E9493138EE20E9493139F
:1046600083E00E94701382E00E94701388E09DE353
:104670000197F1F700C000008EEE0E94931386EFC1
:104680000E94931383E00E94701382E00E947013D3
:104690008FEE0E94931380E00E94FD13182F81E09B
:1046A0000E94FD13C82E83E00E94701397E1099FBA
:1046B000B00111246B597B4F46E150E0CE010196C9
:1046C0000E944F84298530E0322F22278A85282BAB
:1046D000D12CE12CF12CD12A8B8590E0982F8827C2
:1046E0004C85842BC81AD90AE108F108A8EEB3E07A
:1046F0000E94667EBFE09595879577956795BA95F8
:10470000D1F7A70196010E94E67D28EE33E040E054
:1047100050E00E944A7E69017A016B8970E0762F31
:1047200066278C89682B882777FD8095982F0BE06A
:10473000660F771F881F991F0A95D1F70D8910E022
:10474000102F00272E89022B9801442737FD409512
:10475000542F2C0D3D1D4E1D5F1D0E944A7E4901A8
:104760005A018C0C9D1CAE1CBF1CA5019401285F36
:104770003F4F4F4F5F4FAAE0B0E00E947B7E20E1A9
:1047800030E040E050E00E944A7E2F8B388F498F06
:104790005A8F81E00E94701382E00E9470138EEEA7
:1047A0000E94931384EF0E94931384E70E94931353
:1047B00083E00E94701383ED90E30197F1F700C04E
:1047C000000082E00E9470138EEE0E94931386EF29
:1047D0000E94931383E00E94701382E00E94701382
:1047E0008FEE0E94931380E00E94FD13182F80E04B
:1047F0000E94FD13082F81E00E94FD13382E83E0F4
:104800000E94701390EA891A9FE0990AA108B108E2
:10481000A5019401C501B4010E94E67D20E030E1CC
:1048200040E050E00E944A7E2B8F3C8F4D8F5E8F80
:10483000898190E0982F88272A81822B2C01662479
:1048400057FC6094762C42E0440C551C661C771C87
:104850004A95D1F7AF85B0E0BA2FAA278889A82B4F
:104860002B8D3C8D4D8D5E8D0E947B7E20E038E04F
:1048700040E050E00E944A7E69017A01AB81B0E0DD
:10488000BA2FAA278C81A82BA50194010E94857EAE
:1048900020E038E040E050E00E944A7EC20ED31E85
:1048A000E41EF51E4C0C5D1C6E1C7F1C440C551C3C
:1048B000661C771C22E0420E511C611C711CC12E2B
:1048C000D12CE12CF12C7601DD24CC2410E020E069
:1048D00030E0322F212F102F0027C00ED11EE21EF4
:1048E000F31EC30CD11CE11CF11CA7E0F694E79465
:1048F000D794C794AA95D1F7C301B20124E030E060
:1049000040E050E00E944A7EC21AD30AE40AF50A47
:10491000A8EAB1E6A70196010E947B7E6B017C01AB
:10492000CC0CDD1CEE1CFF1C0F8110E0102F0027AB
:104930008885082BAD81B0E0BA2FAA278E81A82BDD
:10494000A50194010E94857E20E030E240E050E025
:104950000E944A7E49015A01AD85B0E0BA2FAA27CC
:104960008E85A82B2B8D3C8D4D8D5E8D0E94857E76
:10497000412C512C32016394A30192010E944A7E82
:10498000820E931EA41EB51E82E0880E911CA11CEF
:10499000B11CC501B40124E030E040E050E00E94C9
:1049A0004A7E30584F4F5F4FD8010E947B7E20E0F7
:1049B00030E840E050E00E944A7EC701B6010E9404
:1049C000287E49015A01CA01B90120E031E040E0E6
:1049D00050E00E944A7ECA01B9010E94E67D9B0117
:1049E000AC01AEEDBBE00E947B7EA30192010E9470
:1049F0004A7E69017A01A3E4B3EEA50194010E9405
:104A0000877EA30192010E944A7EC20ED31EE41E3D
:104A1000F51E9FECC90E9EE0D91EE11CF11CC701DA
:104A2000B60120E130E040E050E00E944A7E280DCF
:104A3000391D4A1D5B1DA0E1B7E20E947B7E24E187
:104A400034E340E050E00E944A7ECA01B90122E00E
:104A500022122CC0E4E6CE2ED12CE12CF12CA701A1
:104A600096010E944A7E9F938F937F936F935F93EB
:104A70004F933F932F936F89788D898D9A8DA701DE
:104A800096010E944A7E9F938F937F936F935F93CB
:104A90004F933F932F938DEB92E09F938F9384E8F6
:104AA0009DE09F938F930E9433821FC021E02212CA
:104AB00004C06F89788D898D9A8D24E630E040E0BE
:104AC00050E00E944A7E9F938F937F936F935F93F2
:104AD0004F933F932F938DEC92E09F938F9384E8B5
:104AE0009DE09F938F930E9433820FB6F894DEBFB0
:104AF0000FBECDBF6E96E2E10C94A77E4F925F92FF
:104B00006F927F928F929F92AF92BF92CF92DF92DD
:104B1000EF92FF9281E00E94701382E00E94701376
:104B200082E50E94931380EA0E94931383E00E941F
:104B3000931383E00E94701382E00E94701382E559
:104B40000E94931381EA0E94931380E10E949313C1
:104B500083E00E94701382E00E94701382E50E943D
:104B6000931384EB0E94931383E00E94701382E0FE
:104B70000E94701383E50E94931380E00E94FD134E
:104B8000882E80E00E94FD13912C982AAA2497FC7D
:104B9000A094BA2C80E00E94FD13C82E81E00E94F0
:104BA000FD13D12CD82AEE24D7FCE094FE2C83E010
:104BB0000E947013A501940160EA76E881E090E01C
:104BC0000E94E67D2B013C01A701960160EA70E896
:104BD00082E090E00E94E67D461A570A680A790A48
:104BE000C301B2012FEE37E140E050E00E94287E81
:104BF00029013A01A8E7B6EEA50194010E947B7E47
:104C00004B015C01A701960160EF7FE481E090E039
:104C10000E94E67D861A970AA80AB90AC501B4015E
:104C20002FEE37E140E050E00E94287E2415350544
:104C30004605570510F4A3019201CA01B90124E603
:104C400030E040E050E00E94287E9F938F937F9356
:104C50006F935F934F933F932F938DEC92E09F93CD
:104C60008F9384E89DE09F938F930E9433828DB74A
:104C70009EB70C960FB6F8949EBF0FBE8DBFFF90E7
:104C8000EF90DF90CF90BF90AF909F908F907F90EC
:104C90006F905F904F900895AAE4B0E0E2E5F6E2ED
:104CA0000C948B7E989AA09888E10FB6F894809324
:104CB0006000109260000FBE80E880936100109247
:104CC000610080E08A95F1F744E050E06AEF7FE010
:104CD0008BE19DE00E944F8480911B0D8F3FB1F0CE
:104CE000809372028093780280911C0D80937302EE
:104CF0008093790280911D0D8093740280937A02D3
:104D000080911E0D8093750280937B0286E792E06E
:104D10000E94927382E00E94667380E08A95F1F7A8
:104D200066E774E084E10E94B07246E250E063E915
:104D300071E088E698E00E944F8446E250E06DE61C
:104D400071E082E498E00E944F8446E250E067E41C
:104D500071E08CE198E00E944F844CE450E06BEFEE
:104D600070E080ED97E00E944F8446E250E069EBEE
:104D700071E082E79CE00E944F8446E250E066E8E2
:104D800070E08CEB9DE00E944F844FE050E064E0C7
:104D900070E083EF95E00E944F8483EF97E00E94DC
:104DA0005F8480939C0C82EF97E00E945F848093E5
:104DB0009B0C8AEF97E00E945F848093980C8F3F52
:104DC00011F41092980C89EF90E00E946784909300
:104DD000270E8093260E019631F480E590E09093A3
:104DE000270E8093260E46E050E064EF77E08DE9D1
:104DF0009CE00E944F8480919D0C8F3F31F467EDC1
:104E000072E08DE99CE00E94818180917A00866049
:104E100080937A0080917C00806480937C008091F4
:104E20007A00806880937A0010928000109281004E
:104E30001092B0001092B100109290001092910068
:104E40001092690010926A001DBA1092B60DCC241F
:104E5000C394D12CFAE04F2E512CA1EC8A2EAEE057
:104E60009A2EB4E8AB2EBDE0BB2E8091B60D8632F3
:104E700008F086C3E82EF12C8701000F111FF801FE
:104E8000E65EFD4F0190F081E02D719070920B0E67
:104E9000CF010E94048180930A06F801ED56F94F74
:104EA00011821082F801E35CF94F11821082F8013F
:104EB000EC57F84F11821082F701EE58F34F8081C2
:104EC0008F3F09F41082872D0E948F122091B60D1A
:104ED000422F50E0FA01E859F74F8081813009F004
:104EE00018C1E0911F0DF091200D2081C6010090A6
:104EF0000A0602C0880F991F0A94E2F7282B208324
:104F0000E091B60DF0E0EE5BF74F908180910A06DC
:104F1000E091190DF0911A0D2081913049F4A6010C
:104F200002C0440F551F8A95E2F7242B20830AC044
:104F3000D60102C0AA0FBB1F8A95E2F7CD0180956A
:104F4000822380838091B60D90E0FC01E45EF74FF0
:104F50002081213009F0F5C287549E4F0E945F8462
:104F600090910B0E923409F06BC090910A06955007
:104F7000933068F490918100813011F4936005C002
:104F8000823011F4916001C0926090938100909101
:104F90000A06973071F410928D0010928C00909157
:104FA0008000986090938000909180009160909331
:104FB000800090910A06963071F410928B00109246
:104FC0008A00909180009062909380009091800080
:104FD00091609093800090910A06953071F4109240
:104FE00089001092880090918000906890938000D2
:104FF0009091800091609093800090910A06943087
:1050000009F06DC01092B3009091B0009068909339
:10501000B0009091B00091609093B000813021F485
:105020008091B100846005C0823031F48091B1007C
:1050300081608093B10053C08091B1008260F9CF4C
:10504000953409F04CC090910A069350933088F43F
:10505000813021F480919100836009C0823021F475
:1050600080919100816003C0809191008260809363
:10507000910080910A06853071F410929D00109283
:105080009C008091900088608093900080919000B7
:1050900081608093900080910A06843071F41092B0
:1050A0009B0010929A008091900080628093900003
:1050B0008091900081608093900080910A068330F7
:1050C00071F410929900109298008091900080687D
:1050D00080939000809190008160809390008091F7
:1050E0000B0E823419F0853409F02BC260910A0648
:1050F0000E943D12A091AE0DB091AF0DE091B60DA2
:10510000F0E0EE5BF74F808190E011969C938E93D8
:1051100018C2843009F021C1FA01E45EF74F8081A2
:10512000813009F0E0C1FA01EE0FFF1FE053F84FA4
:105130006081718180910A06161617060CF088C1ED
:105140006F3F710509F484C1FA01EE5BF74F90815E
:10515000943009F07DC190910B0E909312028093D0
:105160001102FB01EE0FFF1FE65EFD4F8081918172
:10517000FC012191CF01209313020E9404818093AE
:1051800007060E9426206091B60D862F90E0880FBA
:10519000991FDC01AD5CB24F11961C921E92ECEB94
:1051A000FDE020E030E070E07D0114E6160F408164
:1051B0004F3FA9F0461313C07F5FA9014859574FCD
:1051C000DA014C91433059F4A9014E5B574FDA0193
:1051D0004C91433021F4D7014D925C9210832F5FA4
:1051E0003F4F31962632310511F721E020930D070C
:1051F000713049F4FC01ED5CF24F208131812A309D
:10520000310509F49EC1FC01ED5CF24F1182108260
:105210006093830D6E31B9F57430A8F580917502F5
:105220001F928F93809174021F928F9380917302CB
:105230001F928F93809172021F928F9387EC9EE052
:105240009F938F931F928AE28F93BF92AF920E9497
:10525000F78120E044E85DE060E080E00E94992072
:10526000E091B60DF0E0EE0FFF1FED5CF24F82E033
:1052700090E0918380830FB6F894DEBF0FBECDBF60
:1052800022E0322E01C0312C18E6612E18E0712E7A
:105290000CEBE02E0DE0F02E00E010E08AE2282E6C
:1052A000D7014C918091B60D481741F050E090E045
:1052B0008C599F4F4817590709F042C0B7E0B31502
:1052C00020F0F30180818F3F21F4EFEFD701EC93C1
:1052D00037C01F930F939F928F921F922F92BF926E
:1052E000AF920E94F78120E044E85DE0632D80E00A
:1052F0000E9499200FB6F894DEBF0FBECDBFD30138
:105300008C91833099F4F801EE5BF74F8081833004
:1053100069F46CE17FE084E89DE00E94338120E045
:1053200044E85DE0632D86E40E9499203394339431
:10533000F3018081833021F0D7018C918C598C93BB
:105340000F5F1F4FBFEFEB1AFB0AEFEF6E1A7E0ADB
:105350000632110509F0A4CFF4C0833009F0A5C0CE
:10536000FA01EE5BF74F8081863009F0A1C0FA01A7
:10537000E45EF74F808181508E3F08F0B4C02E313B
:1053800011F4E89A03C02F3109F4E99A8091B60D1F
:10539000803211F4EA9A13C0813211F4EB9A0FC0F3
:1053A0008B3111F4EC9A0BC0893111F4ED9A07C0DE
:1053B000873111F4EE9A03C0863109F4EF9A2091F7
:1053C000B60D82EE820F843048F08AEE820F823072
:1053D00028F0822F8D7F893109F0B3C030E0A90118
:1053E000440F551FFA01ED5CF24FD182C082F901E2
:1053F000E45EF74F8081823009F0A3C00EE718E029
:10540000ECEFF7E086E190E0D8016D918D0163301B
:10541000C9F4BC016E5B774FDB016C91663091F48F
:10542000BC01645E774FDB016C91613059F460819F
:1054300071816217730731F4FA01E053F84F9183D9
:1054400080837FC00196329682329105E9F679C059
:10545000161617060CF047C06F3F710509F443C0DC
:10546000FA01EE5BF74F90819530E9F590910B0EC4
:105470009093120280931102FB01EE0FFF1FE65E74
:10548000FD4F0190F081E02D819180931302CF01B7
:1054900029962FAF29970E940481809307062996A9
:1054A0002FAD2997822F5ED84CC08F3FE1F449C0C1
:1054B000833011F08530B9F44AEE5DE060E0809110
:1054C0000A060E9436118091B60D90E0880F991F50
:1054D000FC01EC57F84FDC01A053B84F8D919C9123
:1054E0009183808310C0E0911F0DF091200D2081E9
:1054F000C60100900A0602C0880F991F0A94E2F7BD
:105500008095822380838091B60D90E0FC01E8595C
:10551000F74F2081223041F4FC01E45EF74F808197
:1055200081508E3F58F00DC0233059F4FC01EE5BE2
:10553000F74F8081833011F0853019F481E080933A
:10554000DF06F090B60D0F2D10E0F801E859F74F87
:1055500080818250823080F4000F111FC801845571
:105560009F4F0E946784F801ED5CF24F9183808326
:10557000019611F411821082F394F092B60D75CC5D
:1055800082E084BD85B5846085BD84E080936E0033
:1055900083EF87BD789486E792E00E942F636EE6E2
:1055A00072E082E792E00E943A6344E050E06AE0F1
:1055B00078E082EF9DE00E944F848091F20D8F3F52
:1055C00041F444E050E06EE078E082EF9DE00E941C
:1055D0004F844FE050E06BEF77E085E19EE00E9462
:1055E0004F8445E050E06FEC77E083EE9DE00E9451
:1055F0004F848091E30D811103C08FEF8093E30D01
:105600008091F20D81508E3FD0F5A09A81E0809379
:10561000090645E350E161E082EF9DE00E949E6A49
:1056200088E293E290931106809310060E94966A96
:105630008823B9F08091100690911106892B89F08A
:1056400067EA78E08AEC93E00E94C379BC0187EABC
:1056500098E00E94126E80911006909111060197B9
:10566000E1CF80E09DE7909311068093100644E01F
:1056700050E06EE078E082EF9DE00E944F8488EF7A
:1056800090E00E945F84813069F480EE9EE2A0E0A9
:10569000B0E08093800790938107A0938207B09336
:1056A000830708C01092800710928107109282072A
:1056B0001092830780E590E00E9442678091F20D8E
:1056C0008F3F09F455C00E948878882309F450C0A0
:1056D0008091980C813041F582E390E090939A0C90
:1056E0008093990C2091E30D2F5F80916602909139
:1056F0006702223028F063EE7DE00E94628138C0AC
:10570000209175021F922F939F938F932BED32E080
:105710003F932F939F938F930E9433820FB6F894F9
:10572000DEBF0FBECDBF24C0A09A81E080930906E2
:1057300065E17EE081EE96E00E94818160EE72E09C
:1057400081EE96E00E946281C090260ED090270ED6
:1057500068E6E62E62E0F62E02EF1DE02AEF3FE05B
:1057600046EF5DE061EE76E08FEB9EE00E942E6DED
:1057700028E288E190E00FB6F894A8958093600045
:105780000FBE2093600025961FAE1EAE25971E010A
:10579000F2E22F0E311CA89567EA78E08AEC93E0DC
:1057A0000E94C3795C018091150D813031F486E748
:1057B00092E00E9492731092150D1092710CB50137
:1057C00087EA98E00E94126E23969FAF8EAF2397D0
:1057D00080911002813011F40E94A31F1091980C47
:1057E000113009F058C08091990C90919A0C019752
:1057F00009F051C08091F20D8F3F09F44CC00E9416
:105800008878882309F447C0A09A1093090666EEA9
:1058100072E081EE96E00E9481818091E30D8F5FBE
:10582000823038F063EE7DE081EE96E00E94628186
:1058300015C0809175021F928F9381EE96E09F9321
:105840008F932BED32E03F932F939F938F930E9482
:1058500033820FB6F894DEBF0FBECDBF81E08093D8
:10586000FC0CC090260ED090270E58E6E52E52E094
:10587000F52E02EF1DE02AEF3FE046EF5DE061EE1E
:1058800076E08DEB9EE00E94A26D86E990E0909319
:105890009A0C8093990C9090980C12E0911235C05C
:1058A0008091FD0C8150843080F18091990C909111
:1058B0009A0C019751F5A09A81E080930906C09057
:1058C000260ED090270E48E6E42E42E0F42E02EF9A
:1058D0001DE02AEF3FE046EF5DE060EA73E0809173
:1058E0006602909167020E94A26D9092FD0C84E086
:1058F0008093FC0C88EF91E190939A0C8093990C23
:105900008091980C8F5F8093980C8091980C8A30CE
:1059100069F48091FB0C90E020E040E060E0895564
:10592000974F0E94571483E08093980C8091990CB4
:1059300090919A0C0197C9F58091FD0C81508430AB
:10594000A0F18091980C833080F1833039F5A09AD2
:1059500081E080930906C090260ED090270E38E68D
:10596000E32E32E0F32E02EF1DE02AEF3FE046EF98
:105970005DE060EA73E08BEB9EE00E94A26D82E046
:105980008093FC0C8093FD0C88EF91E190939A0C2E
:105990008093990C84E08093980C07C0843029F49C
:1059A00081E08093980C1092FD0C2091180227FD45
:1059B0000EC18091FD0C8150843008F408C18091A3
:1059C000B40D90E0FC01EE58F34F308130FF07C07A
:1059D000223029F02091F20D2F3F09F0F5C011E19E
:1059E000189FB001199F700D112461527E4F44E041
:1059F00050E0CE01C5960E944F848DA98F3F09F4D7
:105A0000E3C08AE2E1EEF6E0DF011D928A95E9F754
:105A10000091B40D109F8001112401521E4F780196
:105A2000B4E0EB0EF11CC7010E945F848A3379F465
:105A3000C80105960E9467846C01B801695F7F4FB9
:105A40004AE050E081EE96E00E944F840AC04DE0AB
:105A500050E0B70181EE96E00E944F8420E5C22E0F
:105A6000D12C41E450E162E0CE01C5960E949E6ACD
:105A700088E893E190931106809310060E94966A3D
:105A8000811111C0E1EEF6E001900020E9F73197B5
:105A9000E15EF640DF01A152B94F9C918091B40DB7
:105AA0009A3379F518C08091100690911106892BD0
:105AB00049F367EA78E08AEC93E00E94C3795C01DD
:105AC000BC0187EA98E00E94126E809110069091C6
:105AD00011060197CFCFA82FB0E0A65AB84F9C91DE
