:100000000C94E20F0C94011B0C942D1B0C94591BA7
:100010000C94851B0C94B11B0C94DD1B0C94091CD7
:100020000C94351C0C9403100C9403100C940310C6
:100030000C9403100C9403100C9403100C940310F4
:100040000C9403100C9403100C9403100C940310E4
:100050000C9403100C9403100C94611C0C9403106A
:100060000C9403100C9403100C9403100C940310C4
:100070000C9403100C9403100C9403100C940310B4
:100080000C9403100C9403100C9403100C940310A4
:100090000C9403100C9403100C9403100C94031094
:1000A0000C9403100C9403100C9403100C94031084
:1000B0000C9403100C9403100C9403100C94031074
:1000C0000C9403100C9403100C9403103C2F613E0D
:1000D000004578742D494F002F3F70743D256426EC
:1000E00063663D313E00207C203C6120687265667D
:1000F0003D2F003C2F613E002F53434C002F5344B3
:100100004100493243004453002F4431002F443012
:100110000057323600414443004E4300202D20005A
:10012000290025640028003E50002564002F3F7000
:10013000743D003C62723E3C6120687265663D2FF2
:10014000003C62723E2D2D2D003C62723E2D2D2012
:100150005850352F36202D2D002F3F63663D343EFD
:100160005850323C2F613E3C62723E2D2D20585437
:1001700032202D2D002F3F63663D333E5850313CD9
:100180002F613E3C62723E3C6120687265663D2F85
:10019000002F3F63663D313E436F6E6669673C2FBB
:1001A000613E3C62723E2D2D204D4F4453202D2D3B
:1001B0003C62723E3C6120687265663D2F00293CBE
:1001C00062723E3C6120687265663D2F00342E31BC
:1001D000336235004D656761442D3235363120621A
:1001E00079203C6120687265663D687474703A2FAE
:1001F0002F61622D6C6F672E72753E61622D6C6F80
:10020000672E72753C2F613E202866773A200032B7
:10021000202D2D0031202D2D003E4261636B3C2F9F
:10022000613E3C62723E2D2D20506F7274732058D7
:100230005000446F6E65003E002076616C75653D30
:10024000003C696E707574206E616D653D6B6579FB
:10025000004E2F4100383E4C617374206B65793A33
:1002600020003E002076616C75653D003E204163B4
:10027000743A203C696E707574206E616D653D63E3
:10028000726E61002076616C75653D00543A203CC9
:10029000696E707574206E616D653D63726E740079
:1002A0003E003E205344413A203C696E70757420F4
:1002B0006E616D653D637364612076616C75653D4B
:1002C000003C62723E5365742074696D653A203C4F
:1002D000696E707574206E616D653D7374696D65CE
:1002E0003E3C62723E53434C3A203C696E707574DA
:1002F000206E616D653D6373636C2076616C75651E
:100300003D00373E4375722074696D653A200022C6
:100310003E3C62723E737276206C6F6F703A203C86
:10032000696E70757420747970653D636865636B80
:10033000626F78206E616D653D736C2076616C75BF
:10034000653D31004D656761642D49443A203C6943
:100350006E707574206E616D653D6D646964206DAD
:1003600061786C656E6774683D352073697A653DA8
:10037000352076616C75653D2200323E003C62722C
:100380003E557074696D653A200057646F673A2076
:100390003C696E707574206E616D653D707220737E
:1003A000697A653D332076616C75653D00536372F3
:1003B0006970743A203C696E707574206E616D6569
:1003C0003D736374206D61786C656E6774683D3150
:1003D000352076616C75653D22003C62723E00649A
:1003E0006973636F6E6E656374656400636F6E6ED0
:1003F0006563746564003E4D5154543C2F73656CC5
:100400006563743E20003E485454503C6F707469DC
:100410006F6E2076616C75653D31005352562054E5
:100420007970653A203C73656C656374206E616D0C
:10043000653D737276743E3C6F7074696F6E2076A2
:10044000616C75653D300025642E25642E25642E73
:1004500025643A25753E3C62723E003E3C62723E27
:100460005352563A203C696E707574206E616D650A
:100470003D7369702076616C75653D0047573A2081
:100480003C696E707574206E616D653D677720768E
:10049000616C75653D25642E25642E25642E2564CA
:1004A000005077643A203C696E707574206E616DFF
:1004B000653D707764206D61786C656E6774683D2A
:1004C000332076616C75653D220049503A203C69C5
:1004D0006E707574206E616D653D65697020766122
:1004E0006C75653D25642E25642E25642E256400DB
:1004F000313E0063662076616C75653D002F3E00DD
:100500002F3F63663D383E6942204B6579733C2F2F
:10051000613E002F3F63663D373E43726F6E3C2F56
:10052000613E002F3F63663D323E4D656761642D3D
:1005300049443C2F613E002F3F63663D313E436F8F
:100540006E6669673C2F613E003E4261636B3C2FE3
:10055000613E002F3F63663D31003E4261636B3C6C
:100560002F613E3C62723E4D656761442069732095
:1005700072657374617274656400340033002F3FD8
:1005800063663D002A003B003E003C62723E4469C7
:100590007370203C696E707574206E616D653D648A
:1005A0006973702073697A653D322076616C756578
:1005B0003D0026636D643D7363616E3E49324320A6
:1005C0005363616E3C2F613E002F3F70743D003ECF
:1005D0004D435032333030383C2F73656C65637453
:1005E0003E003E535344313330363C6F7074696F74
:1005F0006E2076616C75653D3230003E54534C324E
:100600003539313C6F7074696F6E2076616C756539
:100610003D34003E4248313735303C6F7074696F6D
:100620006E2076616C75653D33003E424D78323800
:10063000303C6F7074696F6E2076616C75653D3209
:10064000003E424D503138303C6F7074696F6E20FF
:1006500076616C75653D36003E4854553231443CF8
:100660006F7074696F6E2076616C75653D35003E04
:10067000414E593C6F7074696F6E2076616C756580
:100680003D31003C62723E446576203C73656C658A
:100690006374206E616D653D643E3C6F7074696F7C
:1006A0006E2076616C75653D30003E003C62723EA6
:1006B00053434C203C696E707574206E616D653DCE
:1006C0006D6973632073697A653D332076616C755B
:1006D000653D003E53434C3C2F73656C6563743E2F
:1006E000003E5344413C6F7074696F6E2076616CBC
:1006F00075653D32003E4E433C6F7074696F6E20ED
:1007000076616C75653D31003C62723E4D6F64658B
:10071000203C73656C656374206E616D653D6D3E54
:100720003C6F7074696F6E2076616C75653D30004A
:100730003E003C62723E4431203C696E707574200C
:100740006E616D653D6D6973632073697A653D33D4
:100750002076616C75653D003E44313C2F73656CBD
:100760006563743E003E44303C6F7074696F6E2068
:1007700076616C75653D32003E4E433C6F70746926
:100780006F6E2076616C75653D31003C62723E4D46
:100790006F6465203C73656C656374206E616D6584
:1007A0003D6D3E3C6F7074696F6E2076616C75654F
:1007B0003D300026636D643D6C6973743E4465761C
:1007C000696365204C6973743C2F613E002F3F7054
:1007D000743D003E5732363C2F73656C6563743E42
:1007E000003E69423C6F7074696F6E2076616C7573
:1007F000653D36003E31574255533C6F7074696F0A
:100800006E2076616C75653D34003E31573C6F70EB
:1008100074696F6E2076616C75653D35003E4448A5
:100820005432323C6F7074696F6E2076616C7565FE
:100830003D33003E44485431313C6F7074696F6EF3
:100840002076616C75653D32003C62723E53656E88
:10085000203C73656C656374206E616D653D643E1C
:100860003C6F7074696F6E2076616C75653D310008
:1008700020636865636B65643E203C696E707574C7
:10088000206E616D653D6D322073697A653D332060
:1008900076616C75653D003E486967683C2F7365FD
:1008A0006C6563743E3C62723E536D6F6F7468207A
:1008B0003C696E70757420747970653D636865631A
:1008C0006B626F78206E616D653D6D697363207634
:1008D000616C75653D31003E4C6F773C6F7074699B
:1008E0006F6E2076616C75653D32003E4E6F726DA5
:1008F0003C6F7074696F6E2076616C75653D310078
:100900003C62723E46726571203C73656C6563742F
:10091000206E616D653D66723E3C6F7074696F6EEE
:100920002076616C75653D30003E4453323431337E
:100930003C2F73656C6563743E003C6F7074696F27
:100940006E2076616C75653D32003E50574D003C1F
:100950006F7074696F6E2076616C75653D31003E15
:100960005357003C62723E4D6F6465203C73656C6A
:10097000656374206E616D653D6D3E3C6F7074699A
:100980006F6E2076616C75653D30003E313C2F7393
:10099000656C6563743E003E303C6F7074696F6EC9
:1009A0002076616C75653D31003C73656C656374E0
:1009B000206E616D653D643E3C6F7074696F6E20A2
:1009C00076616C75653D30003C696E707574206EA3
:1009D000616D653D642073697A653D33206D617892
:1009E0006C656E6774683D332076616C75653D009B
:1009F0003C62723E44656661756C743A20003C62EC
:100A0000723E526177203C696E7075742074797003
:100A1000653D636865636B626F78206E616D653DEF
:100A2000642076616C75653D31003E433C2F7365F3
:100A30006C6563743E203C696E70757420747970C7
:100A4000653D636865636B626F78206E616D653DBF
:100A50006D6973632076616C75653D31003E523C73
:100A60006F7074696F6E2076616C75653D33003E02
:100A70005026523C6F7074696F6E2076616C75659C
:100A80003D32003E503C6F7074696F6E2076616C31
:100A900075653D31003C62723E4D6F6465203C736C
:100AA000656C656374206E616D653D6D3E3C6F7075
:100AB00074696F6E2076616C75653D3000223E2052
:100AC0003C696E70757420747970653D6368656308
:100AD0006B626F78206E616D653D6E616620766138
:100AE0006C75653D31002F003A25750025642E2573
:100AF000642E25642E2564003E3C62723E4E657471
:100B0000203C696E7075742073697A653D333020BE
:100B10006E616D653D6574682076616C75653D221A
:100B200000223E203C696E70757420747970653DBA
:100B3000636865636B626F78206E616D653D6166A9
:100B40002076616C75653D31003C62723E41637494
:100B5000203C696E707574206E616D653D65636DD6
:100B6000642076616C75653D22003E3C62723E48B1
:100B70007374203C696E707574206E616D653D689C
:100B800073742076616C75653D003E3C3E3C2F736E
:100B9000656C6563743E3C62723E56616C203C69D4
:100BA0006E707574206E616D653D6D697363207341
:100BB000697A653D342076616C75653D003E3C3C4C
:100BC0006F7074696F6E2076616C75653D33003EA1
:100BD0003E3C6F7074696F6E2076616C75653D3256
:100BE000003E4E6F726D3C6F7074696F6E2076615F
:100BF0006C75653D31004D6F6465203C73656C65B7
:100C00006374206E616D653D6D3E3C6F7074696FFD
:100C10006E2076616C75653D30003C2F73656C65A8
:100C200063743E003E414443003C6F7074696F6ED4
:100C30002076616C75653D32003E493243003E448A
:100C400053656E3C6F7074696F6E2076616C75656C
:100C50003D34003E4F75743C6F7074696F6E207642
:100C6000616C75653D33003E496E3C6F7074696F11
:100C70006E2076616C75653D31003E4E433C6F7071
:100C800074696F6E2076616C75653D3000547970C3
:100C900065203C73656C656374206E616D653D70A5
:100CA00074793E3C6F7074696F6E2076616C756507
:100CB0003D32353500706E2076616C75653D002FD4
:100CC0003E003C62723E3C6120687265663D2F25A5
:100CD000732F3F70743D2564266578743D25643E0E
:100CE0005025643C2F613E003C62723E2D2D205009
:100CF0006F7274732045787420284D43503233301E
:100D0000303829202D2D002F002F0068756D3A00F6
:100D10002F0074656D703A003C2F613E2000303E1C
:100D2000003C2F613E2000313E003C61206872652E
:100D3000663D2F25732F3F70743D256426657874BA
:100D40003D256426636D643D25646525643A003A5B
:100D5000303E4F46463C2F613E3C62723E004200B0
:100D6000410026636D643D002F3F70743D003A31B1
:100D70003E4F4E3C2F613E203C6120687265663DCF
:100D80002F004200410026636D643D002F3F7074C8
:100D90003D00423A2000413A20002F004E412F4EA4
:100DA00041002F003E203C696E707574207479708C
:100DB000653D7375626D69742076616C75653D6320
:100DC00068616E67653E3C2F666F726D3E003E50F7
:100DD000574D2028302D323535293A203C696E7028
:100DE0007574206E616D653D70776D2073697A65ED
:100DF0003D332076616C75653D0070742076616CC2
:100E000075653D002F3E003C62723E3C666F726D20
:100E1000207374796C653D646973706C61793A69AB
:100E20006E6C696E6520616374696F6E3D2F003C66
:100E300062723E6C75783A003C62723E6C75783A2C
:100E40000074656D703A002F68756D3A0074656DB9
:100E5000703A002F003E4261636B3C2F613E3C6262
:100E6000723E500034003300312670743D002F3F35
:100E700063663D003B003A006275737900446F6E13
:100E8000650026616C6C3D006D6469643D003F0047
:100E9000485454502F312E302034303120556E615B
:100EA0007574686F72697A65640D0A0D0A556E6112
:100EB0007574686F72697A65640054727920687419
:100EC00074703A2F2F69702F707764002F002F00F5
:100ED0002F002F002F002F005025643A200049508A
:100EE0003A202564202E202564202E202564202EE3
:100EF00020256400485454502F312E302032303099
:100F0000204F4B0D0A436F6E74656E742D547970CB
:100F1000653A20746578742F68746D6C0D0A507290
:100F200061676D613A206E6F2D63616368650D0ABC
:100F30000D0A002892A5ACAFA5E0290082EBAAAB70
:100F40000082AAAB202020004F4646004F4E0049A9
:100F50004E004F555400223E3C62723E003E3C62C1
:100F6000723E003C62723E00207C203C6120687230
:100F700065663D2F003C6120687265663D2F003E2E
:100F80000020636865636B6564003C696E7075740E
:100F900020747970653D68696464656E206E616D6A
:100FA000653D003C62723E3C696E707574207479D8
:100FB00070653D7375626D69742076616C75653D11
:100FC000536176653E3C2F666F726D3E003C666FE6
:100FD000726D20616374696F6E3D2F002073656CC4
:100FE00065637465640016000000000000000000E6
:100FF00000000000000000000000000000000000F1
:101000000000000000000016580000000016B000AC
:10101000070801000000162401167C0116D40116F1
:101020002C0216840216DC02163403168C0316E416
:1010300003163C040F9404000000000000000000B0
:1010400000000000000000000000000000000000A0
:101050000000000000000000000000000000000090
:101060000000000000000000000000000000000080
:101070000000000000000000000000000000000070
:101080000000000000000000000000000000000060
:1010900000000000003E0000003E0000003E000096
:1010A000003E0000003E0000003E0000003E000048
:1010B000003E0000FEFF1F00FEFF1F00FEFF1F009E
:1010C000FEFF1F00003E0000003E0000003E00004A
:1010D000003E0000003E0000003E0000003E000018
:1010E000003E0000000000000000000000000000C2
:1010F00000000000000000000000000000000000F0
:101100000000000000000000003E0000003E000063
:10111000003E0000003E0000003E0000003E0000D7
:10112000003E0000003E0000003E0000003E0000C7
:10113000003E0000003E0000003E0000003E0000B7
:101140000000FE000000FE000000FE000000FE00A7
:101150000000FE000000FE000000FE00F0FF0000A6
:10116000FEFF0700FFFF0FC0FFFF3FC0FFFF3FE094
:10117000FFFF7FE0FFFF7FF00F00FFF00300FCF0B8
:101180000100F8F00100F8F00100F8F00100F8F0BB
:101190000300FCF00F00FFE0FFFF7FE0FFFF7FC0D8
:1011A000FFFF3FC0FFFF3F00FFFF0F00FEFF0700F4
:1011B000F0FF000000000000000000000000000040
:1011C0001E00F8001E00F8001E00F8001E00F800C7
:1011D0001F00F8001F00F8C0FFFFFFE0FFFFFFE067
:1011E000FFFFFFE0FFFFFFE0FFFFFFE0FFFFFFE08B
:1011F000FFFFFF000000F8000000F8000000F8000A
:101200000000F8000000F8000000F80000000000F6
:101210000000F8C00F00F8E00700FCE00700FEE067
:101220000300FFF00380FFF001C0FFF001C0FFF0FA
:1012300001E0FFF001F0FFF001FCFBF003FEF9F02C
:1012400087FFF8F0FF7FF8E0FF7FF8E0FF3FF8C08E
:10125000FF1FF8C0FF07F880FF03F800FE00F8004A
:101260000000F800000000000000000000003FC087
:101270000F007EE007007EE003007CE00300FCF04E
:101280000100F8F0810FF8F0810FF8F0810FF8F00D
:10129000810FF8F0810FF8F0C30FFCF0FF1FFEF094
:1012A000FFFF7FE0FFFF7FE0FFFD7FC0FFFC3F808F
:1012B0007FFC1F001FF80F0000E0030000F0030098
:1012C00000F8030000FE030000FF030080FF03009E
:1012D000E0EF0300F0E70300F8E10300FEE00300A5
:1012E0007FE003C01FE003E00FE003E0FFFFFFE04B
:1012F000FFFFFFE0FFFFFFE0FFFFFFE0FFFFFFE07A
:10130000FFFFFFE0FFFFFF0000E0030000E003003D
:1013100000E003000000000000003FE0FF0F7EE05F
:10132000FF0F7EE0FF0F7CE0FF07FCE0FF07F8E027
:10133000FF07F8E0FF07F8E0C307F8E0C307F8E0AD
:10134000C307F8E0C30FFCE0C30FFCE0C31FFEE0DF
:10135000C3FF7FE083FF7FE083FF3FE003FF3FE0C9
:1013600003FF1FE003FE0F0000F80300C0FF0000B2
:10137000F8FF0700FCFF0F00FFFF1F80FFFF3F800B
:10138000FFFF7FC0FFFF7FE09F03FFE0C703FCE09C
:10139000C703F8F0E303F8F0E103F8F0E103F8F035
:1013A000E107FCF0E10FFEF0E1FF7FF0E1FF7FF0ED
:1013B000C1FF3FF0C3FF3FF083FF1F0000FF0700A6
:1013C00000FC0100000000E0030000E0030080E0FA
:1013D0000300E0E00300F0E00300FCE00300FFE0B6
:1013E00003C0FFE003F0FFE003F8FFE003FE7FE04F
:1013F00083FF1FE0E3FF0FE0F3FF03E0FFFF00E0E8
:10140000FF3F00E0FF0F00E0FF0300E0FF0100E00E
:101410007F0000E01F0000E00700000000C00700A0
:101420003EF01F80FFF83FC0FFF93FC0FFFD7FE0A7
:10143000FFFF7FE0FFFFFFF0FF1FFEF0E307FCF080
:10144000C10FF8F0C10FF8F0C10FF8F0811FF8F0EC
:10145000831FFCF0FF3FFCE0FFFF7FE0FFFF7FE02A
:10146000FFFE7FC0FFFC3F807FFC1F001FF80F00C6
:1014700000E00700FC010000FF070080FF0FFCC038
:10148000FF1FFCC0FF1FF8E0FF3FF8E0FF3FF8F050
:10149000873FF8F0033FF8F0013EF8F0013EFCF022
:1014A000013EFCF0011E7EF0031E7FF00FCE7FE0B8
:1014B000FFFF3FE0FFFF1FC0FFFF1FC0FFFF0F0048
:1014C000FFFF0300FEFF0000F01F00003E00008051
:1014D000FF0000C0FF0100E0FF0300E0E30300F0B5
:1014E000C10700F0800700F0800700F0800700F0DF
:1014F000C10700E0E30300E0FF0300C0FF0100803C
:10150000FF0000003E000001000003020008080088
:101510000618000B2400083A00014A00044C00049D
:101520005400055C00076600027400057800018223
:1015300000068400069000059C0006A60006B20086
:1015400007BE0006CC0006D80006E40006F0000640
:10155000FC00010801020A01070E01071C01072A0D
:10156000010538010B4201075801066601077201A7
:10157000078001068E01069A0107A60107B4010340
:10158000C20105C80106D20106DE0109EA0107FC15
:1015900001080A02061A0208260207360207440258
:1015A000075202076002076E020B7C0207920207D5
:1015B000A00207AE0203BC0206C20203CE0209D497
:1015C0000208E60202F60206FA0206060306120303
:1015D000061E03062A03053603064003064C0301D4
:1015E0005803045A03056203016C03096E03068065
:1015F00003068C0306980306A40304B00305B8038E
:1016000004C20306CA0306D60309E20305F403066F
:10161000FE03050A04051404011E04052004082A1B
:1016200004063A04074604065404066004066C04E3
:10163000097804068A040B960406AC0407B804076C
:10164000C60406D40409E00409F2040704050812DC
:1016500005072205063005073C05074A050758051A
:101660000966050778050886050796050BA4050C8D
:10167000BA0509D2050AE40506F8050704060B12A7
:1016800006072806063606064206064E06055A06D0
:10169000076406067206097E06059006069A060687
:1016A000A60606B20607BE0607CC0606DA0606E65A
:1016B0000606F20606FE06060A07051607062007B6
:1016C000092C07053E070748070656070962070A5F
:1016D000740707880707960705A40706AE0709BA27
:1016E0000706CC0706D8071BF00078000000780238
:1016F000000E4003C002700E4003C0027000401094
:10170000C011207FF8122012200C2000E0011011DF
:1017100010091006E001000EC01120111011000E7A
:10172000000EE01110111011100AE00C001200114F
:101730000000780F80306040108008800840103032
:10174000600F800050002000F800200050010001D0
:101750000001000FE001000100010040003800011D
:1017600000010001000100010018006000180006DF
:10177000000180006000180FE01010101010101011
:10178000100FE0102010201FF0100010001860143F
:101790001012101210111010E0082010101110116A
:1017A0001011100EE003000280024002201FF00220
:1017B000000200080011F01110111011100E100F8E
:1017C000C010A01090109010900F00001000101C7E
:1017D00010031000D000300EE01110111011101184
:1017E000100EE001E01210121012100A1007E0189B
:1017F000C0400038C00200050005000880088010C5
:10180000401040048004800480048004800480042C
:10181000801040104008800880050005000200008C
:101820002000101B10009000600F80104020204FFF
:10183000905050505050505FD0102010400F8018E2
:1018400000070004C0043004C0070018001FF01196
:10185000101110111011E00E0007C0082010101018
:10186000101010101008201FF01010101010101081
:1018700010082007C01FF0111011101110111011C5
:10188000101FF00110011001100110001007C00816
:101890002010101010121012101E201FF001000155
:1018A000000100010001001FF010101FF0101010C7
:1018B000001000101010100FF01FF0010002800443
:1018C00040082010101FF010001000100010001031
:1018D000001FF0003000C003000C00030000C00037
:1018E000301FF01FF0003000C00100060018001F7C
:1018F000F007C0082010101010101010100820075A
:10190000C01FF0021002100210021001E007C00810
:10191000201010101010103010482047C01FF00287
:101920001002100210051008E0100008E01110115C
:10193000101110111011100E200010001000101FB7
:10194000F000100010001007F00800100010001048
:1019500000080007F0007001800600180006000172
:1019600080007000F007001800060001C000300180
:10197000C006001800070000F01830044002800183
:10198000000280044018300010006001801E000139
:101990008000600010181014101210111010901018
:1019A0005010307FF84008400800180060018006A1
:1019B0000018006000400840087FF8010000800027
:1019C0004000200010002000400080010040004046
:1019D000004000400040004000400040000008007F
:1019E000100C0012401240124012401F801FF810CD
:1019F000801040104010400F800F801040104010A9
:101A000040104008800F8010401040104008401FD8
:101A1000F80F8012401240124012400B8000401F0D
:101A2000F00048004800080F8090409040904088A7
:101A3000407FC01FF800800040004000401F801F12
:101A4000C88000800080407FC81FF80200050008A1
:101A50008010401FF81FC00080004000401F800021
:101A600080004000401F801FC000800040004000F8
:101A7000401F800F8010401040104010400F80FF2A
:101A8000C010801040104010400F800F8010401098
:101A90004010400840FFC01FC000800040004011BF
:101AA000801240124012400C4000400FF0104010D5
:101AB000400FC010001000100008001FC000C00739
:101AC0000018001800070000C000C0070018000739
:101AD0000000C007001800070000C018C005000281
:101AE00000050018C000C08700780018000700003B
:101AF000C0184014401240114010C0010001003EC7
:101B0000F0400840087FF8400840083EF00100011E
:101B100000030000800080010001000200020001BB
:101B2000801FF0111411101110111411101800075A
:101B30000004C0043004C0070018001FF011101189
:101B400010111011100E001FF011101110111011B2
:101B5000E00E001FF00010001000100010001070C8
:101B6000001800170010F01010101010101FF07067
:101B7000001FF01110111011101110111010100889
:101B80001004E0030001001FF00100030004E0085E
:101B9000101010082010101110111011100EE01F5D
:101BA000F008000600010000C000201FF01FF00830
:101BB000020604010400C400221FF01FF00100030C
:101BC0000004E008101010100010000FF0001000CA
:101BD000100010001000101FF01FF0003000C003B4
:101BE000000C00030000C000301FF01FF0010001D6
:101BF000000100010001001FF007C00820101010B4
:101C00001010101010082007C01FF0001000100066
:101C100010001000101FF01FF0021002100210023E
:101C20001001E007C008201010101010101010084C
:101C3000200010001000101FF00010001000101005
:101C40003010C013000C00030000C00030038004FB
:101C500040082008201FF0082008200440038018B6
:101C6000300440028001000280044018301FF01050
:101C70000010001000100010001FF0700001F002B2
:101C80000002000200020002001FF01FF01000100E
:101C900000100010001FF010001000100010001FB6
:101CA000F01FF010001000100010001FF0100010C6
:101CB00000100010001FF070000010001000101F36
:101CC000F011001100110011000E001FF0110011A1
:101CD000001100110011000E00000000001FF01F95
:101CE000F011001100110011000E00082011101158
:101CF0001011101110092007C01FF001000100078A
:101D0000C008201010101010101010082007C0106C
:101D10000009E006100210021002101FF00C001261
:101D2000401240124012401F800FE0105010481027
:101D30004810480F881FC012401240124012400D38
:101D4000801FC0004000400040004070001C001395
:101D5000C0104010401FC070000F8012401240128F
:101D60004012400B8010400840058002001FC00256
:101D70000005800840104008801240124012400DBB
:101D8000801FC004000200010000801FC01FC004AB
:101D9000080210011000881FC01FC00200020005C9
:101DA0008008401040100010000FC00040004000AC
:101DB000401FC01FC0008001000600010000801FFE
:101DC000C01FC002000200020002001FC00F8010EE
:101DD000401040104010400F801FC00040004000E5
:101DE0004000401FC0FFC010801040104010400F46
:101DF000800F8010401040104010400880004000CC
:101E0000401FC00040004000C08700780018000755
:101E10000000C00F80104010401040FFF81040102C
:101E20004010400F8018C005000200050018C01FB8
:101E3000C010001000100010001FC0700003C0048C
:101E4000000400040004001FC01FC0100010001098
:101E5000001FC01000100010001FC01FC010001095
:101E60000010001FC01000100010001FC070000004
:101E70004000401FC01100110011000E001FC011D2
:101E800000110011000E0000001FC01FC011001142
:101E90000011000E00088010401240124012400F46
:101EA000801FC0020002000F801040104010401040
:101EB000400F8011800A400640024002401FC00FC0
:101EC0008012501240124012500B802F636D64003C
:101ED0004D5149736470000D0A436F6E74656E74E2
:101EE0002D547970653A206170706C696361746912
:101EF0006F6E2F782D7777772D666F726D2D7572D7
:101F00006C656E636F6465640D0A0D0A00436F6E45
:101F100074656E742D4C656E6774683A20000D0A06
:101F2000557365722D4167656E743A207467722F20
:101F3000312E310D0A4163636570743A202A2F2ACD
:101F40000D0A436F6E6E656374696F6E3A20636C41
:101F50006F73650D0A000D0A0020485454502F314C
:101F60002E310D0A486F73743A2000504F5354209D
:101F7000000D0A557365722D4167656E743A206DC8
:101F8000656761640D0A4163636570743A20746526
:101F900078742F68746D6C0D0A0D0A002048545433
:101FA000502F312E310D0A486F73743A2000474587
:101FB00054200000010800060400014500008200D2
:101FC0000040002011241FBECFEFD1E2DEBFCDBF05
:101FD00000E00CBF16E0A0E0B2E0E4E9F6E101E0C9
:101FE0000BBF02C007900D92A430B107D9F72EE0C5
:101FF000A4E0B6E001C01D92AE36B207E1F70E9440
:102000008E2B0C94488B0C9400008FEF8093180259
:1020100008950F931F93CF93DF93EB014AE250E0B3
:10202000BC018CE99DE00E94998767EB72E08CE926
:102030009DE00E943D871092CE0D2091CE0D243060
:10204000C8F40097B9F08E01020F111D4AE050E06C
:1020500060E070E00E94F685F80160838091CE0D0B
:102060008F5F8093CE0D67EB72E080E090E00E947E
:102070003D87E3CF822FDF91CF911F910F9108957C
:10208000613049F4DA01E8E6F2E08D91819382E073
:10209000EE36F807D1F70895623049F4DA01ECEB37
:1020A000FCE08D9181938CE0E23CF807D1F7089534
:1020B000E091370DF091380D908121E030E0082E4D
:1020C00001C0220F0A94EAF7922B90830895E091C1
:1020D000310DF091320D208181E090E000901102ED
:1020E00002C0880F991F0A94E2F7282B20830895D5
:1020F000F894E091310DF091320D908121E030E0C3
:1021000001C0220F8A95EAF7322F309593239083EE
:10211000E091370DF091380D8081822B80838BED1B
:1021200095E00197F1F700C00000E091370DF091C4
:10213000380D808183238083EAEDF0E03197F1F759
:1021400000C0E091280EF091290E8081E1E0F5E0D9
:102150003197F1F7789482230895F894E091310D46
:10216000F091320D408121E030E0062E01C0220FB7
:102170000A94EAF7922F909549234083E091370D16
:10218000F091380D3081322B308329E22A95F1F716
:1021900000C0882339F0E091370DF091380D80812F
:1021A0008923808385EE8A95F1F70000E091370D51
:1021B000F091380D80818923808378940895F89474
:1021C000E091310DF091320D908121E030E0082E48
:1021D00001C0220F0A94EAF7322F3095932390839F
:1021E000E091370DF091380D9081922B908394E01F
:1021F0009A95F1F70000E091370DF091380D90813C
:10220000932390839AE39A95F1F70000E091280ECA
:10221000F091290E20819BEB9A95F1F700C07894FC
:1022200030E002C0359527958A95E2F7822F8170BC
:1022300008951F93CF93DF93D82F162FC9E0C15075
:1022400031F0612F8D2F817088DFD695F8CFDF9127
:10225000CF911F9108951F93CF93DF93182FD9E04B
:10226000C0E0D15049F0812FAADF20E8829FC00151
:102270001124C695C82BF5CF8C2FDF91CF911F91DC
:102280000895EF92FF920F931F93CF93DF93182F30
:10229000F62EEA01E22E2CDF81115FC0612FF110D2
:1022A00003C08CECC6DF09C085E5C3DF00E0612F09
:1022B0008991BFDF0F5F0830D1F7612F8EEBB9DF57
:1022C000812FC9DFC82F812FC6DFD82FF1100EC094
:1022D000812F0EDF612F8CECACDF612F84E4A9DF4E
:1022E000EE2DF0E0EC5BF14F8BE98083E091370D50
:1022F000F091380D908121E030E0012E01C0220FD5
:102300000A94EAF7922B9083E091310DF091320D0F
:102310009081922B9083EC2FE295EF702D2F2770F8
:1023200080E1289F90011124E22BCF7041E752E019
:10233000C49FC001C59F900D1124D7FF03C0EF5764
:102340008051974264E670E00E941884CB0124E635
:10235000E202800D911D112402C088EC92E3CDB7FA
:10236000DEB7E6E00C94B68498E02CE8362F3827E8
:10237000869530FD822766959150C1F708951F9389
:10238000CF93DF93C82FB4DE6C2F8CEC52DF6C2F11
:1023900085EF4FDF14E08C2F5EDFD82FDF70829542
:1023A0008F70482F50E02D2F30E0209530952F7002
:1023B00033274217530711F410E003C0115059F7A7
:1023C0001FEF8C2F95DE1F3F09F4DFEF8D2FDF917C
:1023D000CF911F910895FF920F931F93CF93DF9397
:1023E000C82FD62FDC6F14E00D2F00958C2F80DEC8
:1023F0006C2F8CEC1EDF6C2F8AE51BDF6C2F8D2F72
:1024000018DF6C2F802F15DF8C2F25DFF82E8C2FF7
:1024100022DF8AEAF81611F0115041F78C2F68DE9E
:10242000CDB7DEB7E5E00C94B78444EF5EE060E042
:1024300070E08FEB98E00C942F6ADC012C912F3226
:1024400029F5FC01319680E0BF019191903231F085
:102450009F3221F0BF018F5F8630B1F790E0681B9B
:10246000790BE5EBFCE0DF010D900020E9F7AD0111
:1024700041505109455B5C404817590739F4CF0179
:102480000E948B87892B11F481E008958FEF0895C6
:102490008234A1F4673019F48CE890E01FC06630F4
:1024A00019F48AE890E01AC0653019F488E890E0E1
:1024B00015C06430B9F483EB90E010C0853491F41A
:1024C000633019F488E990E009C0643019F48AE9AE
:1024D00090E004C0653031F48CE990E09093C70D32
:1024E0008093C60D0895863419F481E390E01DC0F1
:1024F000853419F48EE290E018C0823419F485E234
:1025000090E013C0873419F484E390E00EC0843463
:1025100019F48BE290E009C0813419F482E290E072
:1025200004C0833431F488E290E090932C0E8093C1
:102530002B0E0895863479F481E390E09093320D68
:102540008093310D80E390E09093380D8093370DA8
:102550008FE290E065C0853479F48EE290E090934C
:10256000320D8093310D8DE290E09093380D809381
:10257000370D8CE290E054C0823479F485E290E02B
:102580009093320D8093310D84E290E09093380D5A
:102590008093370D83E290E043C0873479F484E37D
:1025A00090E09093320D8093310D83E390E090930F
:1025B000380D8093370D82E390E032C0843479F493
:1025C0008BE290E09093320D8093310D8AE290E09F
:1025D0009093380D8093370D89E290E021C08134CB
:1025E00079F482E290E09093320D8093310D81E294
:1025F00090E09093380D8093370D80E290E010C00A
:10260000833491F488E290E09093320D8093310D01
:1026100087E290E09093380D8093370D86E290E04A
:102620009093290E8093280E0895A1E0B0E0EBE18D
:10263000F3E10C949D84182F862F49837BDF498119
:10264000113319F4842F34DD0EC0E091370DF09171
:10265000380D808121E030E001C0220F4A95EAF771
:102660002095282320832196E3E00C94B984CF930E
:10267000C82F833038F58091130235DFC13089F4DB
:10268000E0912B0EF0912C0E208181E090E00090E3
:102690001F0602C0880F991F0A94E2F7282B208397
:1026A00028C0C23079F4E0912B0EF0912C0E2081DD
:1026B00081E090E000901F0602C0880F991F0A94E5
:1026C000E2F714C0C33011F402DD13C0C43089F442
:1026D000E091310DF091320D208181E090E0009089
:1026E000110202C0880F991F0A94E2F78095822395
:1026F0008083CF910895CF93C82F809112021ADF63
:10270000C13079F4C0911F068091130213DF8C2F22
:10271000CFDCC0911102809112020CDF8C2FC8DC3B
:1027200008C084E0C23021F4A2DF82E0A0DF04C050
:102730009EDF81E09CDFCBDCCF910895EF92FF928A
:102740000F931F93CF93DF93E82E80911202F2DE56
:10275000C7E0D0E0F12C01E010E022E32A95F1F788
:10276000E091310DF091320D8091110297010C2E04
:1027700002C0359527950A94E2F720FF0AC0208110
:10278000A80102C0440F551F8A95E2F7242B20832D
:102790000BC02081A80102C0440F551F8A95E2F7A3
:1027A000CA0180958223808381E061DF82E05FDF60
:1027B00084E05DDF219788F640911102609112025A
:1027C00080E333DF81E053DFE091280EF091290EA2
:1027D000808190E00090110202C0959587950A943F
:1027E000E2F78170992721E08227C82FC17082E02B
:1027F0003EDF84E03CDFD0911102809112029ADE2C
:102800008D2F56DC8C2FCDB7DEB7E6E00C94B68466
:10281000EF92FF920F931F93CF93DF93E82E409197
:1028200011026091120280E300DF8091120282DEC9
:1028300082E01DDFC7E0D0E0F12C01E010E081E094
:1028400016DFE091280EF091290E208130E00090F3
:10285000110202C0359527950A94E2F720FD09C0C0
:1028600098010C2E01C0220F0A94EAF72095F2225B
:1028700007C098010C2E01C0220F0A94EAF7F22A31
:1028800082E0F5DE2197D8F6C09111028091120204
:1028900051DE8C2F0DDC81E0EADE81E0E81202C01F
:1028A00016DC02C084E0E3DE82E0E1DE409111024A
:1028B0006091120280E3B9DE8F2DCDB7DEB7E6E07E
:1028C0000C94B684A2E2B0E0E8E6F4E10C948E84C5
:1028D0008C016A8F4D8F2F8B86E496E4A0E08E8763
:1028E0009F87A88B8B879C87AD871092CE0D23E0A6
:1028F0002E8B1B8A612CEE24E394F12C862F90E022
:102900001C01220C331CA1014456584F1A019C0192
:10291000265D394F398F288F5F8F4E8FAE014F5F05
:102920005F4F5A8B498B9C012058374F39A328A3FE
:10293000D090CE0D8D2D90E0F80101900020E9F7A8
:102940003197E01BF10B8E179F0708F020C4F801A8
:10295000E80FF91F40814A3039F486E48E878F876B
:102960001F821B8A612C00C44A3329F43B8933300F
:1029700009F0E8C337C04B3309F4E7C3403709F423
:10298000E6C3413609F4E6C3453609F4E6C34134EB
:1029900009F4E6C3423409F4E5C34C3709F4F7C33C
:1029A0004B3209F4E7C34E3709F4E7C34D3209F45B
:1029B000E7C35B89511107C08E85863411F04F87BC
:1029C000D3C34E87D1C32B89273039F48B85863406
:1029D00011F04C87C9C34B87C7C33B89313041F0E5
:1029E000343031F08B898550823008F097C20BC0AB
:1029F0005A8D543641F0A8A1B9A18C91811103C020
:102A0000F101118210828F85863409F41F86CE0170
:102A10000E964AA30E940787482E552447FC5094DF
:102A20006201CC0CDD1CF601E65EFD4F80819181D8
:102A3000DC017D90CD010E9407874C014AA14E37F1
:102A400061F4F601E555F94F80819181029719F4FF
:102A500026E02B8B02C035E03B8B682D872D18DDDF
:102A6000872D68DD8091CE0DA801480F511D5D8B2B
:102A70004C8BDA014C91F201E45BF84F5F014E356B
:102A800029F48081811109C081E022C2463741F4D6
:102A90008081811102C082E01BC2D5011C9219C243
:102AA000483711F4108215C21082F201EC5CF74F26
:102AB0009081913009F0F1C0F201E058F74F908118
:102AC000913009F00DC18F5F90E0F8010190002076
:102AD000E9F73197E01BF10B8E179F0740F4F801DF
:102AE000E80FF91F80818A53823008F0CAC0862D12
:102AF00090E0E7E0F0E0EC0FFD1FE80FF91F4083E6
:102B0000FE01E80FF91F1086B2E47B1619F0E5E428
:102B10007E12B1C0CE0107960E940787F601E456E7
:102B2000F84F918380832B89243051F4A091C60DF6
:102B3000B091C70D8D919C91892B11F0118210825B
:102B4000C60185509F4F0E946A8AF601E851F84FEE
:102B5000918380833B89353008F47CC0D1018D910D
:102B60009C91009779F5E88DF98D808181115AC08B
:102B7000E091C60DF091C70D80819181892B29F0DC
:102B8000AC89BD898C918E3719F02B89253041F0A5
:102B900011821082F601E555F94FF182E0826BC097
:102BA000D201A65DB94F8C91811102C08FEF8C9339
:102BB0008C9190E09183808382E090E0F601E5556E
:102BC000F94F57C0019709F041C0E091C60DF0914F
:102BD000C70D3B89353049F4808191818F3F910544
:102BE00080F48081918101960AC04B89463049F476
:102BF00080819181892B29F0808191810197918336
:102C0000808381E0A88DB98D8C9383E090E0AE8DB8
:102C1000BF8D8D939C9380819181F201E65DF94F88
:102C2000808329C0813091F4F601E555F94F808108
:102C30009181029728F482E090E09183808302C022
:102C4000F182E082E88DF98D108215C0A88DB98DD2
:102C50001C9211C0009751F4E091C60DF091C70D80
:102C6000D601A456B84F8D919C9103C0F601E55B47
:102C7000F24F9183808386E48E878F871F82612C39
:102C80002EC14A3209F429C1E7E0F0E0EC0FFD1F44
:102C9000E60DF11D4083639422C1923009F52E891F
:102CA0002330F1F0882D6BDB86958B7F9091CE0DD4
:102CB000F801E90FF11D9081B7010E8802C0660F7F
:102CC000771F0A94E2F7913319F46095682305C0E1
:102CD000923311F4682701C0682B882D7CDBF9C082
:102CE000F201E058F74F8081843009F0A5C0F2016D
:102CF000E65AF74F8081843109F06CC0CE010B9603
:102D00000E9407872C017092120280921102F60134
:102D1000E851F84F0190F081E02DEE0FFF1FE65EC5
:102D2000FD4F80819181DC014D91CD0140931302D3
:102D30000E94078780931F0681E0DDDC82E0DBDCF8
:102D400080E4FCDC89E0FADC83E0D5DC82E0D3DCE3
:102D500081E4F4DC81E05CDD982E83E0CCDC8091C2
:102D6000CE0DF801E80FF11D8081920133278133E8
:102D700049F4F70102C0EE0FFF1F2A95E2F7892CF4
:102D80008E2A14C0823349F4A70102C0440F551F94
:102D90002A95E2F7892C842609C0C70102C0880F52
:102DA000991F2A95E2F7882E8094892082E0A3DC7F
:102DB00080E4C4DC80E0C2DC80E0C0DC83E09BDC3B
:102DC00082E099DC80E4BADC89E0B8DC882DB6DCEE
:102DD00083E030C0843081F570921202809211023B
:102DE000F601E851F84F0190F081E02DEE0FFF1F42
:102DF000E65EFD4F80819181DC012D91CD01209314
:102E000013020E94078780931F0681E074DC82E032
:102E100072DC88E793DC80E091DC8091CE0DF801D4
:102E2000E80FF11D8081813311F48FEA01C08EEA31
:102E300085DC82E060DC4DC0413359F0433321F43E
:102E40002F892130B9F405C0443389F43F89311109
:102E500015C0E091310DF091320D8081A70102C0C3
:102E6000440F551F8A94E2F74A01842B29C040334E
:102E700041F017C05F89552321F023C02F892130ED
:102E800001F5E091310DF091320D8081A70102C072
:102E9000440F551F8A94E2F74A0180948822808269
:102EA00010C0423371F4E091310DF091320D808108
:102EB000D70102C0AA0FBB1F8A94E2F74D018A27EF
:102EC0008083F201E852F24F8081843610F48C59ED
:102ED000808386E48E878F8702C024E02B8BD50108
:102EE0008C9118160CF040C12091CE0DF801E20F24
:102EF000F11D818190ED980FF601E456F84F9A305C
:102F000050F4992787FD9095C097918380832F5F18
:102F10002093CE0D29C11182108226C12B89223027
:102F200009F04BC0862D90E0E1E0F0E0EC0FFD1FD2
:102F3000E80FF91F4083FE01E80FF91F1282639426
:102F400081E08D0D90E0F80101900020E9F73197C4
:102F5000E01BF10B8E179F0740F4F801E80FF91FF3
:102F600080818A53823008F0FFC0D394D3943D8D82
:102F7000D30E46E14D1508F4F7C05A8D052F10E029
:102F8000CE0101960E940787F801EE0FFF1FEB5A52
:102F9000F94F24E1DC012A9FC0012B9F900D1124E1
:102FA00091838083F801E65DF94FD08285E0E9895D
:102FB000FA8911928A95E9F7EAC02B89233009F042
:102FC000D3C0D394D092CE0D8AE1482E82E0582E01
:102FD00040E858E05C8F4B8F98EDC92E9DE0D92ECC
:102FE00024E3822E28E0922E33E0732ED2018D91BD
:102FF0009D912D01FC012191CF012C8B0E9407870F
:103000005C018C8997DAAB8DBC8D8D91BC8FAB8FB9
:10301000813009F08AC0F40180818230D9F4809136
:10302000CE0DF801E80FF11D8081813309F4ABC0AA
:10303000803309F4AAC0823309F077C08A2D9FD962
:10304000682F66956B7F6725643008F06EC08A2D07
:10305000C2D96BC0813071F56A2D8C8919DA8091E3
:10306000CE0DF801E80FF11D8081803329F4E09145
:10307000C60DF091C70D16C0813349F4E091C60D1D
:10308000F091C70D2FEF30E0318320834EC08233A3
:1030900009F04BC0E091C60DF091C70D8081918180
:1030A000892B19F01182108240C04FEF50E05183FC
:1030B00040833BC08091CE0DF801E80FF11D808167
:1030C000813369F4E091310DF091320D80819701E7
:1030D0000A2C01C0220F0A94EAF7822B1FC080330A
:1030E00079F4E091310DF091320D808197010A2C35
:1030F00001C0220F0A94EAF72095282320830FC0ED
:10310000823369F4E091310DF091320D80819701A5
:103110000A2C01C0220F0A94EAF782278083D60185
:103120008C91843610F48C598C93BFEFCB1ADB0A48
:10313000EFEF8E1A9E0AF6E64F16F2E05F0609F0F0
:1031400055CF12C021E02B8B0FC01B8A0DC032E07F
:103150003B8B0AC043E04B8B07C057E05B8B04C03E
:103160001E8A02C021E02E8B8091CE0D8F5F80934E
:10317000CE0DDECB35E03B8B35CC55E05B8B32CCD6
:1031800026E02B8B2FCC60E062CF63E060CFA2966D
:10319000E2E10C94AA84AFE1B0E0E1EDF8E10C9437
:1031A0009884DC01322F022F10E0F801EE0FFF1F90
:1031B000E555F94F11821082FE0131967E018FE1B3
:1031C000E80EF11CCF011192EE15FF05E1F7F801B1
:1031D000E058F74F2081233031F4F801E65AF74FD9
:1031E000E081E43011F0363210F0EFEF01C0E1E0A1
:1031F000E0931802F801E657F34FE081E1FF05C0C4
:10320000A83CB10509F08DC08FC0A83CB10509F0FC
:103210003FC06154774FFB01D12CC12C7F01E61ACE
:10322000F70ADA014D3D510510F0ACEDB0E0EA16B9
:10323000FB06F8F4F190ADE0FA1619F0BAE0FB12D3
:1032400008C0A2E0DA1641F0A081AA3039F7D39481
:10325000E5CFB2E0DB120BC0DC01AC0DB11DFC927E
:10326000C394ACE1AC1528F0A2E0DA2ED7CFD12C74
:10327000D5CFFC01EC0DF11D10824981442341F0B2
:103280004A81443629F023E040E064E61BDB4CC071
:10329000F801EC5CF74F8081811107C0F801EE580E
:1032A000F84F80818F3F61F410C0823039F4F8010B
:1032B000EE58F84F80818E3F19F407C0813029F015
:1032C000211103C08A81843679F5363268F581E0B0
:1032D000F801E45BF84F80838AE2ECE9FDE0DF016E
:1032E0001D928A95E9F727E1209FB001219F700D7B
:1032F00011246B597B4F47E150E0CF013F8F0E9473
:10330000528A80919C0D8F5F3F8D823050F0F80182
:10331000EE58F84F20812E5F40E0632F8CE99DE04E
:10332000D1DA82E0809318026F96E8E00C94B484BE
:10333000A1E0B0E0EEE9F9E10C949484482F082F65
:1033400010E0B8016C5C774F7B01DB018C91480188
:10335000880C991C813099F54E3118F089E290E083
:1033600002C08CE290E09093290E8093280EF40125
:10337000E65EFD4F8081918101960E9407878093D0
:103380002206F401E851F84FC080D180F601EE0F1B
:10339000FF1FE65EFD4F8081918101960E940787A5
:1033A000B82EBEE1CB16D1041CF089E290E002C039
:1033B0008CE290E09093D50D8093D40D39C0F40148
:1033C000E65EFD4F80819181019649830E940787C7
:1033D000B82E49814E3138F089E290E09093D50DB6
:1033E0008093D40D06C02CE230E03093D50D2093AD
:1033F000D40DF401E851F84F0190F081E02DEE0F6B
:10340000FF1FE65EFD4FC080D180C60101960E947D
:10341000078780932206F6018081843419F429E21B
:1034200030E002C02CE230E03093290E2093280EC9
:1034300010923B0D10923C0D10923D0D10923E0DDE
:1034400010923F0D1092400D21E030E002C0220F9B
:10345000331FBA94E2F7B12CC12C78E0D72E40E0AC
:1034600050E0B0E081E090E0F4E0FA95F1F7000080
:103470004F5F5F4F483765E0560779F4BA3108F07F
:1034800089C0BB0CBB0CBB0C80913B0D8295869513
:103490008770B82AB0923B0D7DC0E091280EF09164
:1034A000290E6081A091220670E00A2E02C0759557
:1034B00067950A94E2F760FD1EC0AA24A394AB0EA0
:1034C000B150B83108F4DA94AC0102C0440F551F72
:1034D000AA95E2F7DA0164EC79E0408150E04A23F2
:1034E0005B23452B09F04BC06150710961157105D3
:1034F000A1F781E082C0E091D40DF091D50D6081FB
:1035000070E062237323672BE9F5AA24A394AB0E22
:10351000B1504C2D50E0B83180F46FEF6D0DDC01EF
:1035200002C0AA0FBB1F6A95E2F7BD01DA01A55CD4
:10353000B24F7C91762B7C93DA94DA01A25CB24F85
:103540004FEF4D0DBC0102C0660F771F4A95E2F7A1
:10355000AB015C91542B5C9371E0A71202C0BB24B9
:10356000B39464EC79E0408150E042235323452B2F
:1035700031F46150710961157105A9F7BACFBA2DFF
:1035800040E050E0D11003C0C39468E0D62EBA32B8
:1035900008F46ACF8BEE8B0F853068F480913E0D76
:1035A00080933B0D80913F0D80933C0D8091400DA9
:1035B00080933D0D0AC0B43030F480913B0D869568
:1035C00080933B0D04C0B53010F083E001C081E072
:1035D00080933E0DD7018C91813021F4F801EE5893
:1035E000F84F09C0F401E851F84F0190F081E02D47
:1035F000EE58F84F81E0808380E02196ECE00C9457
:10360000B0841F920F920FB60F9211240BB60F9237
:103610002F933F934F935F936F937F938F939F93DA
:10362000AF93BF93EF93FF93F8948EE181DE811106
:10363000E8987894FF91EF91BF91AF919F918F910E
:103640007F916F915F914F913F912F910F900BBEA2
:103650000F900FBE0F901F9018951F920F920FB6EC
:103660000F9211240BB60F922F933F934F935F93BA
:103670006F937F938F939F93AF93BF93EF93FF933A
:10368000F8948FE155DE8111E9987894FF91EF91DC
:10369000BF91AF919F918F917F916F915F914F916A
:1036A0003F912F910F900BBE0F900FBE0F901F9068
:1036B00018951F920F920FB60F9211240BB60F920E
:1036C0002F933F934F935F936F937F938F939F932A
:1036D000AF93BF93EF93FF93F89480E229DE8111BB
:1036E000EA987894FF91EF91BF91AF919F918F915C
:1036F0007F916F915F914F913F912F910F900BBEF2
:103700000F900FBE0F901F9018951F920F920FB63B
:103710000F9211240BB60F922F933F934F935F9309
:103720006F937F938F939F93AF93BF93EF93FF9389
:10373000F89481E2FDDD8111EB987894FF91EF918F
:10374000BF91AF919F918F917F916F915F914F91B9
:103750003F912F910F900BBE0F900FBE0F901F90B7
:1037600018951F920F920FB60F9211240BB60F925D
:103770002F933F934F935F936F937F938F939F9379
:10378000AF93BF93EF93FF93F8948BE1D1DD811159
:10379000EC987894FF91EF91BF91AF919F918F91A9
:1037A0007F916F915F914F913F912F910F900BBE41
:1037B0000F900FBE0F901F9018951F920F920FB68B
:1037C0000F9211240BB60F922F933F934F935F9359
:1037D0006F937F938F939F93AF93BF93EF93FF93D9
:1037E000F89489E1A5DD8111ED987894FF91EF912E
:1037F000BF91AF919F918F917F916F915F914F9109
:103800003F912F910F900BBE0F900FBE0F901F9006
:1038100018951F920F920FB60F9211240BB60F92AC
:103820002F933F934F935F936F937F938F939F93C8
:10383000AF93BF93EF93FF93F89487E179DD811104
:10384000EE987894FF91EF91BF91AF919F918F91F6
:103850007F916F915F914F913F912F910F900BBE90
:103860000F900FBE0F901F9018951F920F920FB6DA
:103870000F9211240BB60F922F933F934F935F93A8
:103880006F937F938F939F93AF93BF93EF93FF9328
:10389000F89486E14DDD8111EF987894FF91EF91D6
:1038A000BF91AF919F918F917F916F915F914F9158
:1038B0003F912F910F900BBE0F900FBE0F901F9056
:1038C00018951F920F920FB60F9211240BB60F92FC
:1038D0002F923F924F925F926F927F928F929F9220
:1038E000AF92BF92CF92DF92EF92FF920F931F930E
:1038F0002F933F934F935F936F937F938F939F93F8
:10390000AF93BF93EF93FF93CF93DF9300D01F92BA
:10391000CDB7DEB780911E068F5F80931E06883C70
:1039200009F04BC010921E0680911D068F5F809398
:103930001D0690911C06923111F09A3251F48E318D
:1039400041F4809110028230C1F181E08093100235
:1039500034C08C3391F510921D0631E0390F30934D
:103960001C068091060690910706A0910806B0916A
:1039700009060196A11DB11D8093060690930706C6
:10398000A0930806B093090621E020930A063C3371
:10399000A1F410921C0680911B068F5F80931B067A
:1039A000883159F410921B0680911A068F5F80931C
:1039B0001A06883011F420931A068091F706813098
:1039C00099F48091140290911502A0911602B09181
:1039D00017020196A11DB11D809314029093150248
:1039E000A0931602B09317028091980790919907BF
:1039F000A0919A07B0919B0783309105A105B1056D
:103A000058F00197A109B1098093980790939907FD
:103A1000A0939A07B0939B078091B10C9091B20C40
:103A20008230910528F001979093B20C8093B10CED
:103A30008091B40C8F3F69F08091280690912906FF
:103A4000813127E2920728F001979093290680930D
:103A5000280680E898E09A83898324E4622E2EE089
:103A6000722E38EEA32E37E0B32E4BE4C42E4DE079
:103A7000D42E0CE917E055E5E52E56E0F52E6BEA5D
:103A8000862E66E0962E7AE1472E72E0572E1C8233
:103A90001B82A981BA812D91BA83A983213009F0B3
:103AA00051C0EB81FC81EC5CF74F8081813009F0E3
:103AB00089C0F50180819181181619060CF082C029
:103AC000D6018D919C91009709F47CC0EB81FC811B
:103AD000E45BF84F2081211175C08130910579F5A3
:103AE000F20120803180C10101960E940787682F72
:103AF000D1018C910E944812E091C60DF091C70D42
:103B000080819181682FD8014D915C919C01332770
:103B10002417350714F461E004C0421753071CF45E
:103B20006FEF680F03C0D5011D921C92862F90E0A5
:103B300091838083F50180819181D60141C00197F5
:103B4000F60131C0D4018D919C911197009789F0B5
:103B500001978D939C93892B61F4EB81FC81E6574F
:103B6000F34F808181FD05C081E090E0F7019183F2
:103B70008083D7018D919C9111978330910518F026
:103B800001978D939C93233089F4EB81FC81E65A55
:103B9000F74F80818430B1F4F8018081918118164B
:103BA000190684F40197918380830CC021110AC007
:103BB000D8018D919C911197823091051CF001974D
:103BC0008D939C93F3018081882311F08150808331
:103BD0008B819C8101969C838B839FEF691A790A64
:103BE000A2E0AA0EB11CB2E0CB0ED11C0E5F1F4F9B
:103BF000E2E0EE0EF11CF2E08F0E911C22E0420E8C
:103C0000511C8B819C81869709F043CF80911002D3
:103C1000823009F0FDC08FB180953091FE0D832771
:103C200090910D029823909590930D0220910C0293
:103C30002823292720930C0289238223282F23233A
:103C40009091CF0D922B9093CF0D38273093FE0D8E
:103C500083232091CB0D282B2093CB0D8CB1809505
:103C60003091C80D832790910B02982390959093E3
:103C70000B0220910A022823292720930A02892374
:103C80008223282F23239091CA0D922B9093CA0D43
:103C900038273093C80D83232091260E282B20939C
:103CA000260E83B180953091D60D8327909109021D
:103CB00098239095909309022091080228232927A0
:103CC0002093080289238223282F232390912E0EEC
:103CD000922B90932E0E38273093D60D832320916C
:103CE0002F0E282B20932F0E80B180953091410EFE
:103CF0008327909107029823909590930702209133
:103D00000602282329272093060289238223282FAD
:103D100023239091410D922B9093410D382730939E
:103D2000410E83232091D70D282B2093D70D86B1E8
:103D3000809530912A0E83279091050298239095C3
:103D4000909305022091040228232927209304023E
:103D500089238223282F232390912D0E922B909339
:103D60002D0E382730932A0E83232091420D282BC5
:103D70002093420D89B1809530913A0D832790911F
:103D80000302982390959093030220910202282326
:103D900029272093020289238223282F232390910D
:103DA000CD0D922B9093CD0D382730933A0D832370
:103DB0002091300E282B2093300E82B380953091C5
:103DC000050E83279091010298239095909301020C
:103DD000209100022823292720930002892382238F
:103DE000282F23239091C90D922B9093C90D38272A
:103DF0003093050E83232091390D282B2093390D04
:103E0000809121068C30A1F4A0981092210615C053
:103E1000E1EAF6E0808191818330910518F0019705
:103E200091838083329696E0EB3AF90799F7F3CEC7
:103E3000882319F08F5F8093210681E08093230609
:103E40000F900F900F900F90DF91CF91FF91EF9116
:103E5000BF91AF919F918F917F916F915F914F91A2
:103E60003F912F911F910F91FF90EF90DF90CF9096
:103E7000BF90AF909F908F907F906F905F904F908A
:103E80003F902F900F900BBE0F900FBE0F901F9082
:103E90001895F8949091CB0D892398279093CB0D8A
:103EA00078940895F8949091CF0D89239827909352
:103EB000CF0D78940895F8949091260E8923982731
:103EC0009093260E78940895F8949091CA0D8923C2
:103ED00098279093CA0D78940895F89490912F0E96
:103EE0008923982790932F0E78940895F8949091B1
:103EF0002E0E8923982790932E0E78940895F89487
:103F00009091D70D892398279093D70D7894089591
:103F1000F8949091410D892398279093410D7894BE
:103F20000895F8949091420D892398279093420D1B
:103F300078940895F89490912D0E89239827909362
:103F40002D0E78940895F8949091300E8923982737
:103F50009093300E78940895F8949091CD0D892324
:103F600098279093CD0D78940895F8949091390DF9
:103F7000892398279093390D78940895F894909117
:103F8000C90D892398279093C90D789408950097B7
:103F900031F023E52A95F1F700000197F8CF089555
:103FA0006AE00E94F88320E1829F900D1124892FFE
:103FB0000895982F92959F708F702AE0929F800DA0
:103FC00011240895A6E0B0E0E8EEFFE10C949E8491
:103FD00083E48093130210921F0644E050E062E0F5
:103FE00070E0CE0101960E94528A898191E0980F7B
:103FF000923030F0809313028A81805380931F06A1
:1040000083E48093120281E08093110244E050E047
:1040100060E070E0CE0101960E94528A898191E0B1
:10402000980F923030F0809312028A8180538093EF
:10403000110280911002823009F443C081E00E9495
:104040007B1382E00E947B1380ED0E949E1380E030
:104050000E949E1383E00E947B1382E00E947B13E8
:1040600081ED0E949E1380E00E940814A2DF8093DD
:104070001D0680E00E9408149CDF80931C0680E0EF
:104080000E94081496DF80931B0681E00E940814AA
:1040900080931A0683E00E947B1380911A06815058
:1040A000873068F082E08093100210921D06109213
:1040B0001C0610921B0681E080931A0602C0109223
:1040C00010022696E2E00C94BA84CF93DF9383E04B
:1040D0000E947B1381E00E947B1382E00E947B138D
:1040E00088E70E949E1380E00E949E138EEA0E9441
:1040F0009E1385ED0E949E1380E80E949E1381E826
:104100000E949E138EEE0E949E138DE80E949E13C5
:1041100084E10E949E1381EA0E949E1388EC0E9413
:104120009E1386EA0E949E1380E20E949E1380E006
:104130000E949E1381E20E949E1380E00E949E13C3
:104140008FE70E949E1380E00E949E1382E20E94ED
:104150009E1380E00E949E1387E00E949E1383E0DE
:104160000E947B1382E00E947B1388E70E949E13CB
:1041700080E40E949E13C0E0D4E080E00E949E1381
:1041800021972097D1F783E00E947B1382E00E9461
:104190007B1388E70E949E1380E00E949E138FEAA3
:1041A0000E949E1383E00E947B13DF91CF910895BC
:1041B000A0E0B0E0EEEDF0E20C949484D82FC62F8E
:1041C0007A01D22E809125078A3008F03FC081E025
:1041D0000E947B1382E00E947B1388E70E949E135B
:1041E00080E00E949E1380E20E949E1381E00E9464
:1041F0009E1381E20E949E1321E0D21202C080E051
:1042000001C08D2F0E949E138FE70E949E1382E2B1
:104210000E949E1381E0D81201C0C2E08C2F0E9440
:104220009E1321E0D21202C083E001C081E08C0F16
:104230000E949E1383E00E947B1382E00E947B1306
:1042400088E70E949E1380E40E949E13E0919B0DDC
:10425000F0E0EE0FFF1FE55BF24F8081918120912E
:1042600025070A9751F4213041F48AE0809325070D
:104270001092240710922307D7C0213031F484EF25
:1042800091E0909324078093230700E010E0C12C75
:104290008C2D90E0F70101900020E9F73197EE199D
:1042A000FF098E179F0708F08EC0F701E80FF91F6E
:1042B0008081803279F4D11010C080E00E949E137A
:1042C00080E00E949E1380E00E949E1380E00E9486
:1042D0009E1357C0803208F454C0982F9D0D8FED67
:1042E000890F803B10F08FEA890F90E021E0D21611
:1042F00009F47BC0FC01EE0FFF1FE80FF91FE95F17
:10430000FA4EC491FC01EE0FFF1FE80FF91FE85FA2
:10431000FA4EA590B490D0E0CC0FDD1F8824839492
:10432000912CE92DF0E0EC17FD0758F5E80DF11D93
:1043300087FCFA95EA0DFB1DE951F94E84910E9424
:104340009E1381949394EDCF2091230730912407FD
:10435000C9010A96C817D90708F05EC0C217D3076B
:1043600008F45AC0EA0DFB1DE95CFF4E84910E94DF
:104370009E132196EC2FE01BF0E0E815F90520F3E1
:104380008E0180912307909124079C01265F3F4F67
:104390000217130718F40817190720F4809125074E
:1043A0008A3078F480E00E949E1380E00E949E1381
:1043B00081E0D81206C080E00E949E1380E00E9437
:1043C0009E13C39465CF809125078A3039F481E02C
:1043D0008093250710922407109223078FEF809374
:1043E000190283E00E947B131FC0FC01EE0FFF1F28
:1043F000E80FF91FEA51F04F8490FC01EE0FFF1F08
:10440000E80FF91FE951F04FA590B49024E0829E87
:1044100040011124E801AECFC817D90709F0A9CF90
:10442000D0932407C0932307CDB7DEB7ECE00C94FC
:10443000B084CF93DF93C82F81E00E947B1382E08A
:104440000E947B1380E80E949E1383E00E947B13EE
:1044500082E00E947B1380E80E949E13C13011F419
:1044600083EE01C085EE0E949E1383E00E947B13C1
:104470008AEF90E08CDD82E00E947B13C13019F45A
:1044800084EA96E002C08CE291E081DD81E80E943E
:104490009E1388EC90E07BDD80E00E940814D82F0A
:1044A00081E00E9408142D2F30E0322F2227282B84
:1044B000442737FD4095542F2C7F44275527A0E1F2
:1044C000B7E20E947E849C01552737FD5095452F09
:1044D000C13049F4A4EAB4E40E947E84605D7F4D5B
:1044E0008A4C924008C0A4EDB0E30E947E846058DC
:1044F0007D488B45910920E137E240E050E00E9481
:104500004D84CA01B90124E630E040E050E00E9449
:104510004D849F938F937F936F935F934F933F93BC
:104520002F938EED92E09F938F938CE99DE09F9364
:104530008F930E94368883E00E947B138DB79EB7CD
:104540000C960FB6F8949EBF0FBE8DBFDF91CF9132
:104550000895CF93DF9381E00E947B1382E00E9455
:104560007B1386E40E949E1380E10E949E1383E0E9
:104570000E947B1382E00E947B1387E40E949E13BB
:1045800080E00E940814C82F81E00E940814D82FF0
:1045900083E00E947B13AD2FB0E0BC2B2AE030E01B
:1045A0000E9478842CE030E040E050E00E944D848E
:1045B0005F934F933F932F9389EB92E09F938F9359
:1045C0008CE99DE09F938F930E9436888DB79EB7AC
:1045D00008960FB6F8949EBF0FBE8DBFDF91CF91A6
:1045E0000895ACE0B0E0E7EFF2E20C949484182F69
:1045F0009BE0ECEAF2E0DE01119601900D929A95B3
:10460000E1F781E00E947B1382E00E947B139E0110
:104610002F5F3F4F790137E1139FC001112400E064
:1046200010E0FC01EB59FB4F5F019C012A593B4F05
:1046300049018EEE0E949E13F70181917F010E9435
:104640009E1383E00E947B1382E00E947B138FEE17
:104650000E949E1380E00E940814682F6501C00E1E
:10466000D11EC6016C870E94628A6C85861719F07C
:10467000C6010E94788A81E00E940814682F6401B4
:10468000C00ED11EC6016C870E94628A6C85861797
:1046900019F0C6010E94788A0E5F1F4F063111057E
:1046A00041F683E00E947B132C96ECE00C94B084DE
:1046B000A1E0B0E0EEE5F3E20C949084782E81E086
:1046C0000E947B1382E00E947B138CEE0E949E135B
:1046D00082EF0E949E1382E00E949E1383E00E945C
:1046E0007B1381E00E947B1382E00E947B138CEE9F
:1046F0000E949E1384EF0E949E1387E20E949E13E5
:1047000083E00E947B1381E00E947B1382E00E9481
:104710007B138CEE0E949E1388E80E949E1383E018
:104720000E947B1382E00E947B138DEE0E949E13F9
:1047300027E1729EC0011124412C512C612C41E1D2
:10474000749E90011124890100521E4FFC01EA5908
:10475000FB4F5F01A90141525E4F7A01FC01EB5909
:10476000FB4F4F0180E00E940814682FFBE06F169A
:1047700061F06501C40CD51CC60169830E94628A80
:104780006981861761F0C60108C0C80169830E946B
:10479000628A6981861719F0C8010E94788A80E0D0
:1047A0000E940814682F2BE0621661F06401C40CAB
:1047B000D51CC60169830E94628A6981861761F0EF
:1047C000C60108C0C70169830E94628A6981861791
:1047D00019F0C7010E94788A639432E0430E511C9D
:1047E0004CE06412BFCF80E00E94081481E00E9478
:1047F0000814182F83E00E947B1381E00E947B1332
:1048000082E00E947B138CEE0E949E1380ED0E943A
:104810009E1383E00E947B1382E00E947B138DEE47
:104820000E949E1381E00E940814082F83E00E94DA
:104830007B13272D30E081E1003609F04FC0829FC5
:104840007001839FF00C1124C7018F519E4F7C0192
:104850000E94628A811721F0612FC7010E94788A25
:1048600081E00E947B1382E00E947B138CEE0E9409
:104870009E1381EE0E949E1383E00E947B1382E0D0
:104880000E947B138DEE0E949E1391E1799E800120
:104890001124C12CD12C0E511E4FE6E0CE1202C0C5
:1048A00081E001C080E00E940814682F7801EC0CC0
:1048B000FD1CC70169830E94628A6981861719F00D
:1048C000C7010E94788AFFEFCF1ADF0A27E0C216DD
:1048D000D10419F783E00E947B1310C0829F8001EE
:1048E000839F100D11240F511E4FC8010E94628A30
:1048F0008F3F21F06FEFC8010E94788A2196E0E196
:104900000C94AC84AEE1B0E0E8E8F4E20C948E8460
:10491000082F262E81E00E947B1382E00E947B13E9
:104920008EEE0E949E1384EF0E949E138EE20E94E0
:104930009E1383E00E947B1382E00E947B1388E039
:104940009DE30197F1F700C000008EEE0E949E13D8
:1049500086EF0E949E1383E00E947B1382E00E94F8
:104960007B138FEE0E949E1380E00E940814182F84
:1049700081E00E940814C82E83E00E947B1397E117
:10498000099FB00111246B597B4F46E150E0CE01E5
:1049900001960E94528A298530E0322F22278A858B
:1049A000282BD12CE12CF12CD12A8B8590E0982F4B
:1049B00088274C85842BC81AD90AE108F108A8EE8B
:1049C000B3E00E946984BFE09595879577956795D8
:1049D000BA95D1F7A70196010E94E98328EE33E04A
:1049E00040E050E00E944D8469017A016B8970E0DB
:1049F000762F66278C89682B882777FD8095982FDE
:104A00000BE0660F771F881F991F0A95D1F70D8954
:104A100010E0102F00272E89022B9801442737FD24
:104A20004095542F2C0D3D1D4E1D5F1D0E944D8441
:104A300049015A018C0C9D1CAE1CBF1CA5019401A0
:104A4000285F3F4F4F4F5F4FAAE0B0E00E947E8447
:104A500020E130E040E050E00E944D842F8B388F01
:104A6000498F5A8F81E00E947B1382E00E947B1362
:104A70008EEE0E949E1384EF0E949E1384E70E9494
:104A80009E1383E00E947B1383ED90E30197F1F77F
:104A900000C0000082E00E947B138EEE0E949E13F5
:104AA00086EF0E949E1383E00E947B1382E00E94A7
:104AB0007B138FEE0E949E1380E00E940814182F33
:104AC00080E00E940814082F81E00E940814382E0C
:104AD00083E00E947B1390EA891A9FE0990AA1085B
:104AE000B108A5019401C501B4010E94E98320E049
:104AF00030E140E050E00E944D842B8F3C8F4D8F81
:104B00005E8F898190E0982F88272A81822B2C0143
:104B1000662457FC6094762C42E0440C551C661CBD
:104B2000771C4A95D1F7AF85B0E0BA2FAA278889BC
:104B3000A82B2B8D3C8D4D8D5E8D0E947E8420E0B8
:104B400038E040E050E00E944D8469017A01AB8179
:104B5000B0E0BA2FAA278C81A82BA50194010E944E
:104B6000888420E038E040E050E00E944D84C20E8E
:104B7000D31EE41EF51E4C0C5D1C6E1C7F1C440CE9
:104B8000551C661C771C22E0420E511C611C711CD6
:104B9000C12ED12CE12CF12C7601DD24CC2410E0A7
:104BA00020E030E0322F212F102F0027C00ED11E21
:104BB000E21EF31EC30CD11CE11CF11CA7E0F6940D
:104BC000E794D794C794AA95D1F7C301B20124E022
:104BD00030E040E050E00E944D84C21AD30AE40A5B
:104BE000F50AA8EAB1E6A70196010E947E846B014E
:104BF0007C01CC0CDD1CEE1CFF1C0F8110E0102F83
:104C000000278885082BAD81B0E0BA2FAA278E81B6
:104C1000A82BA50194010E94888420E030E240E0A6
:104C200050E00E944D8449015A01AD85B0E0BA2F91
:104C3000AA278E85A82B2B8D3C8D4D8D5E8D0E94D5
:104C40008884412C512C32016394A30192010E946B
:104C50004D84820E931EA41EB51E82E0880E911C08
:104C6000A11CB11CC501B40124E030E040E050E0DB
:104C70000E944D8430584F4F5F4FD8010E947E8470
:104C800020E030E840E050E00E944D84C701B601CA
:104C90000E942B8449015A01CA01B90120E031E088
:104CA00040E050E00E944D84CA01B9010E94E983AE
:104CB0009B01AC01AEEDBBE00E947E84A30192019A
:104CC0000E944D8469017A01A3E4B3EEA501940129
:104CD0000E948A84A30192010E944D84C20ED31EB9
:104CE000E41EF51E9FECC90E9EE0D91EE11CF11CCE
:104CF000C701B60120E130E040E050E00E944D8461
:104D0000280D391D4A1D5B1DA0E1B7E20E947E847B
:104D100024E134E340E050E00E944D84CA01B9012F
:104D200022E022122CC0E4E6CE2ED12CE12CF12C74
:104D3000A70196010E944D849F938F937F936F9359
:104D40005F934F933F932F936F89788D898D9A8DC1
:104D5000A70196010E944D849F938F937F936F9339
:104D60005F934F933F932F938DEB92E09F938F939D
:104D70008CE99DE09F938F930E9436881FC021E0AD
:104D8000221204C06F89788D898D9A8D24E630E0D7
:104D900040E050E00E944D849F938F937F936F93E8
:104DA0005F934F933F932F938EED92E09F938F935A
:104DB0008CE99DE09F938F930E9436880FB6F894FC
:104DC000DEBF0FBECDBF6E96E2E10C94AA84A1E3D4
:104DD000B0E0EDEEF6E20C948E84162FE82EF12C66
:104DE00027E1829FB00111246B597B4F46E150E0CF
:104DF000CE0101960E94528A81E18E9DB0018F9D65
:104E0000700D112461527E4F4AE050E0CE0147966A
:104E10000E94528A81E00E947B1382E00E947B13F1
:104E20008CEE0E949E1382E00E947B1387EF0E940B
:104E30009E1383E00E947B1382E00E947B1388E034
:104E40009DE30197F1F700C000008DEE0E949E13D4
:104E500080E00E94081489A780E00E940814082FAF
:104E600080E00E9408148DA780E00E940814882E1C
:104E7000912CA12CB12C80E00E940814C82ED12CBA
:104E8000E12CF12C898D8F3F11F481E001C080E08D
:104E90000E94081490E0A0E0B0E0F4E0CC0CDD1C2F
:104EA000EE1CFF1CFA95D1F72CE0880C991CAA1C6B
:104EB000BB1C2A95D1F7C828D928EA28FB2834E05A
:104EC000B695A795979587953A95D1F7C82AD92A87
:104ED000EA2AFB2A898D8F3FA9F080E00E940814FE
:104EE000B82E81E00E9408144B2D50E060E070E085
:104EF0008824942EA52EB62E882A8DA29EA2AFA21B
:104F0000B8A604C01DA21EA21FA218A683E00E947C
:104F10007B139A818981292E312C2101582AC701BE
:104F2000B601A4E09695879577956795AA95D1F7F0
:104F3000612C712C64197509860997099B01AC01D4
:104F40000E94E9839B01AC01BCE0559547953795DC
:104F50002795BA95D1F7AD81B0E0BA2FAA278E81F7
:104F6000A82B0E9488844B015C01A701960193E065
:104F700056954795379527959A95D1F7440C551C2A
:104F8000661C771C2419350946095709AB81B0E026
:104F9000BA2FAA278C81A82B0E9488849B01AC0180
:104FA000EBE05695479537952795EA95D1F7FEE0C2
:104FB000B594A79497948794FA95D1F7280D391D45
:104FC0004A1D5B1D29A33AA34BA35CA329013A0107
:104FD00075946794579447943AEF531A610871088F
:104FE000E989FA89C301B201B2E095958795779571
:104FF0006795BA95D1F79B01AC010E94E9836B01DB
:105000007C018F848EA698889FA6AD84A8AABE84B2
:10501000B9AAAB85B0E0BA2FAA278C85A82BA70127
:1050200096019DE055954795379527959A95D1F727
:105030000E9488844B015C0123E0B594A794979467
:1050400087942A95D1F7A985B0E0BA2FAA278A8537
:10505000A82BA30192010E94888495958795779546
:105060006795860E971EA81EB91E52E1B594A794A7
:10507000979487945A95D1F720E8920EA11CB11C01
:10508000AF81B0E0BA2FAA278885A82BA50194018B
:105090000E947E844B015C017FE0B694A7949794B4
:1050A00087947A95D1F781149104A104B10409F48D
:1050B00063C2A7019601ABE05595479537952795B3
:1050C000AA95D1F7AF2FB0E0BE2B0E9488846B0168
:1050D0007C013FA5A32FB0E04EA5B42BA301920104
:1050E0000E948884660F771F881F991FC60ED71EDF
:1050F000E81EF91E82E0F594E794D794C7948A9548
:10510000D1F759A9852F90E0A8A99A2BAA2797FD36
:10511000A095BA2FDC0199278827C80ED91EEA1E50
:10512000FB1E3CE0F594E794D794C7943A95D1F7E9
:10513000802F90E0A0E0B0E044E0880F991FAA1F04
:10514000BB1F4A95D1F729A5422F50E060E070E0DF
:10515000ECE0440F551F661F771FEA95D1F7842BAB
:10516000952BA62BB72B3DA5432F50E060E070E0B8
:10517000F4E07695679557954795FA95D1F7842B86
:10518000952BA62BB72BC80ED91EEA1EFB1EABEC27
:10519000B3EFA70196010E948A84805B9C4397FD30
:1051A0000BC0660F771F881F991FA50194010E94ED
:1051B0002B8449015A010AC0A50194010E942B8445
:1051C00049015A01880C991CAA1CBB1CC501B401D9
:1051D000F3E09695879577956795FA95D1F72F899E
:1051E000F101F22B9B01AC010E94E9839B01AC0110
:1051F000ADE05695479537952795AA95D1F7DF01EC
:105200000E9488846B017C01BCE0F594E794D794FC
:10521000C794BA95D1F7A501940182E056954795B8
:10522000379527958A95D1F7AD89B0E0BA2FAA278F
:105230008E89A82B0E9488842DE095958795779577
:1052400067952A95D1F7C60ED71EE81EF91E8B89E1
:1052500090E0982F88272C89822BAA2797FDA0956C
:10526000BA2FC80ED91EEA1EFB1E44E0F594E7943F
:10527000D794C7944A95D1F7C80CD91CEA1CFB1CDB
:10528000A0E1B7E2A70196010E947E8424E134E305
:1052900040E050E00E942B8429A73AA74BA75CA7C7
:1052A000E98DEF3F09F4CAC02E8D322F3F708D8DEE
:1052B00040E1849FC0011124832BAA2797FDA0956C
:1052C000BA2FF4E1880F991FAA1FBB1FFA95D1F7D7
:1052D000C12C30E4D32EE12CF12CC81AD90AEA0AE9
:1052E000FB0A22952F70AF8D50E1A59FD0011124AC
:1052F000A22B49A05AA06BA07CA08CE2581A81E096
:10530000680A7108A30192010E948884C61AD70A0C
:10531000E80AF90A8DA19EA1AFA1B8A56EE0880F99
:10532000991FAA1FBB1F6A95D1F7C80ED91EEA1E86
:10533000FB1E7FE0F694E794D794C7947A95D1F753
:10534000A8A1B0E00E947E844B015C01FAE0B59414
:10535000A79497948794FA95D1F7AC8DB0E00E940A
:105360007E84ABE09595879577956795AA95D1F75B
:1053700070588F4F9F4FA50194010E94E9839B01B4
:10538000AC01BAE05595479537952795BA95D1F771
:10539000405E5F4FAB8DB0E0BA2FAA278A8DA82B55
:1053A0000E948884705E8F4F9F4F2EE09595879561
:1053B000779567952A95D1F7A70196010E94E98311
:1053C0006B017C013FE095958795779567953A95B8
:1053D000D1F79B01AC010E94E9839B01AC0167E01E
:1053E00055954795379527956A95D1F7AE2FB0E03B
:1053F0000E947E84E4E09595879577956795EA9578
:10540000D1F7C61AD70AE80AF90AF7FE03C0C12C79
:10541000D12C760191E0C916D104E10499E1F90695
:105420002CF0C12CD12CE12C79E1F72E6CE0F59415
:10543000E794D794C7946A95D1F703C0C12CD12CB7
:105440007601A5E0B0E029A13AA14BA15CA10E94A0
:105450007E8460587F4F8F4F9F4F872E982EA92EA6
:10546000BB24A7FCBA94133009F051C044E6442E83
:10547000512C612C712C69A57AA58BA59CA5A30143
:1054800092010E942B849F938F937F936F935F93DE
:105490004F933F932F93C501B401A30192010E9442
:1054A0004D849F938F937F936F935F934F933F931D
:1054B0002F938DEB92E09F938F930CE91DE01F9348
:1054C0000F930E9436880FB6F894DEBF0FBECDBF93
:1054D000898D8F3F09F450C0C701B60128EE33E033
:1054E00040E050E00E944D849F938F937F936F9391
:1054F0005F934F933F932F931F930F9387ED92E00A
:105500009F938F931F930F930E94368830C0113062
:1055100039F4C501B40124E630E040E050E008C0B1
:10552000123049F4C701B60128EE33E040E050E004
:105530000E944D840AC069A57AA58BA59CA524E686
:1055400030E040E050E00E942B849F938F937F9344
:105550006F935F934F933F932F938EED92E09F93C2
:105560008F938CE99DE09F938F930E9436880FB6AE
:10557000F894DEBF0FBECDBFE196E2E10C94AA84A1
:105580004F925F926F927F928F929F92AF92BF9253
:10559000CF92DF92EF92FF9281E00E947B1382E034
:1055A0000E947B1382E50E949E1380EA0E949E1354
:1055B00083E00E949E1383E00E947B1382E00E949E
:1055C0007B1382E50E949E1381EA0E949E1380E174
:1055D0000E949E1383E00E947B1382E00E947B1353
:1055E00082E50E949E1384EB0E949E1383E00E943A
:1055F0007B1382E00E947B1383E50E949E1380E070
:105600000E940814882E80E00E940814912C982A89
:10561000AA2497FCA094BA2C80E00E940814C82EFB
:1056200081E00E940814D12CD82AEE24D7FCE09403
:10563000FE2C83E00E947B13A501940160EA76E8CA
:1056400081E090E00E94E9832B013C01A7019601D3
:1056500060EA70E882E090E00E94E983461A570A07
:10566000680A790AC301B2012FEE37E140E050E049
:105670000E942B8429013A01A8E7B6EEA501940106
:105680000E947E844B015C01A701960160EF7FE4DC
:1056900081E090E00E94E983861A970AA80AB90A75
:1056A000C501B4012FEE37E140E050E00E942B84A9
:1056B000241535054605570510F4A3019201CA01CA
:1056C000B90124E630E040E050E00E942B849F9333
:1056D0008F937F936F935F934F933F932F938EEDB1
:1056E00092E09F938F938CE99DE09F938F930E940C
:1056F00036888DB79EB70C960FB6F8949EBF0FBE36
:105700008DBFFF90EF90DF90CF90BF90AF909F90B4
:105710008F907F906F905F904F900895AAE4B0E0D3
:10572000E4E9FBE20C948E84989AA09888E10FB685
:10573000F89480936000109260000FBE80E8809320
:1057400061001092610080E08A95F1F744E050E03A
:105750006AEF7FE083E39DE00E94528A8091330DDF
:105760008F3FB1F080937202809378028091340D64
:1057700080937302809379028091350D8093740237
:1057800080937A028091360D8093750280937B021C
:1057900086E792E00E94957982E00E94697980E034
:1057A0008A95F1F766E774E084E10E94B37846E2F7
:1057B00050E063E971E080E898E00E94528A46E296
:1057C00050E06DE671E08AE598E00E94528A46E278
:1057D00050E067E471E084E398E00E94528A4CE470
:1057E00050E06BEF70E088EE97E00E94528A46E24C
:1057F00050E069EB71E08AE89CE00E94528A46E240
:1058000050E066E870E088ED9DE00E94528A4FE02B
:1058100050E064E070E08BE096E00E94528A83EFF3
:1058200097E00E94628A8093B40C82EF97E00E9416
:10583000628A8093B30C8AEF97E00E94628A809319
:10584000B00C8F3F11F41092B00C89EF90E00E94E1
:105850006A8A9093430E8093420E019631F480E55C
:1058600090E09093430E8093420E46E050E064EF48
:1058700077E085EB9CE00E94528A8091B50C8F3FC7
:1058800031F468EE72E085EB9CE00E9484878091A1
:105890007A00866080937A0080917C008064809397
:1058A0007C0080917A00806880937A00109280005A
:1058B000109281001092B0001092B10010929000EE
:1058C000109291001092690010926A001DBA109215
:1058D000CE0DCC24C394D12CFAE04F2E512CA8ED40
:1058E0008A2EAEE09A2EBCE9AB2EBDE0BB2E809195
:1058F000CE0D863208F08FC3E82EF12C8701000F01
:10590000111FF801E65EFD4F0190F081E02D7190CE
:105910007092270ECF010E94078780932206F8011C
:10592000E555F94F11821082F801EB5AF94F1182B7
:105930001082F801E456F84F11821082F701E65701
:10594000F34F80818F3F09F41082872D0E949A12B5
:105950002091CE0D422F50E0FA01E058F74F8081A0
:10596000813009F018C1E091370DF091380D208198
:10597000C6010090220602C0880F991F0A94E2F720
:10598000282B2083E091CE0DF0E0E65AF74F90816E
:1059900080912206E091310DF091320D20819130FD
:1059A00049F4A60102C0440F551F8A95E2F7242B43
:1059B00020830AC0D60102C0AA0FBB1F8A95E2F756
:1059C000CD018095822380838091CE0D90E0FC01F3
:1059D000EC5CF74F2081213009F0FEC287549E4FC6
:1059E0000E94628A9091270E923409F06BC09091C8
:1059F00022069550933068F490918100813011F423
:105A0000936005C0823011F4916001C09260909360
:105A1000810090912206973071F410928D001092BF
:105A20008C0090918000986090938000909180000D
:105A300091609093800090912206963071F41092BC
:105A40008B0010928A009091800090629093800069
:105A50009091800091609093800090912206953003
:105A600071F41092890010928800909180009068E3
:105A7000909380009091800091609093800090912D
:105A80002206943009F06DC01092B3009091B000DE
:105A900090689093B0009091B00091609093B000A6
:105AA000813021F48091B100846005C0823031F4EE
:105AB0008091B10081608093B10053C08091B100AA
:105AC0008260F9CF953409F04CC090912206935032
:105AD000933088F4813021F480919100836009C073
