:100000000C9409100C94AA1B0C94D61B0C94021C83
:100010000C942E1C0C945A1C0C94861C0C94B21C30
:100020000C94DE1C0C942A100C942A100C942A10A8
:100030000C942A100C942A100C942A100C942A1058
:100040000C942A100C942A100C942A100C942A1048
:100050000C942A100C942A100C940A1D0C942A104B
:100060000C942A100C942A100C942A100C942A1028
:100070000C942A100C942A100C942A100C942A1018
:100080000C942A100C942A100C942A100C942A1008
:100090000C942A100C942A100C942A100C942A10F8
:1000A0000C942A100C942A100C942A100C942A10E8
:1000B0000C942A100C942A100C942A100C942A10D8
:1000C0000C942A100C942A100C942A103C2F613E98
:1000D000004578742D494F002F3F70743D256426EC
:1000E00063663D313E00207C203C6120687265667D
:1000F0003D2F003C2F613E002F53434C002F5344B3
:100100004100493243004453002F4431002F443012
:100110000057323600414443004E4300202D20005A
:10012000290025640028003E50002564002F3F7000
:10013000743D003C62723E3C6120687265663D2FF2
:10014000003C62723E2D2D2D003C62723E2D2D2012
:100150005850352F36202D2D002F3F63663D343EFD
:100160005850323C2F613E3C62723E2D2D20585437
:1001700032202D2D002F3F63663D333E5850313CD9
:100180002F613E3C62723E3C6120687265663D2F85
:10019000002F3F63663D313E436F6E6669673C2FBB
:1001A000613E3C62723E2D2D204D4F4453202D2D3B
:1001B0003C62723E3C6120687265663D2F00293CBE
:1001C00062723E3C6120687265663D2F00342E31BC
:1001D000356236004D656761442D32353631206217
:1001E00079203C6120687265663D687474703A2FAE
:1001F0002F61622D6C6F672E72753E61622D6C6F80
:10020000672E72753C2F613E202866773A200032B7
:10021000202D2D0031202D2D003E4261636B3C2F9F
:10022000613E3C62723E2D2D20506F7274732058D7
:100230005000446F6E65003E002076616C75653D30
:10024000003C696E707574206E616D653D6B6579FB
:10025000004E2F4100383E4C617374206B65793A33
:1002600020003E002076616C75653D003E204163B4
:10027000743A203C696E707574206E616D653D63E3
:10028000726E61002076616C75653D00543A203CC9
:10029000696E707574206E616D653D63726E740079
:1002A0003E003E205344413A203C696E70757420F4
:1002B0006E616D653D637364612076616C75653D4B
:1002C000003C62723E5365742074696D653A203C4F
:1002D000696E707574206E616D653D7374696D65CE
:1002E0003E3C62723E53434C3A203C696E707574DA
:1002F000206E616D653D6373636C2076616C75651E
:100300003D00373E4375722074696D653A200022C6
:100310003E3C62723E737276206C6F6F703A203C86
:10032000696E70757420747970653D636865636B80
:10033000626F78206E616D653D736C2076616C75BF
:10034000653D31004D656761642D49443A203C6943
:100350006E707574206E616D653D6D646964206DAD
:1003600061786C656E6774683D352073697A653DA8
:10037000352076616C75653D2200323E003C62722C
:100380003E557074696D653A200057646F673A2076
:100390003C696E707574206E616D653D707220737E
:1003A000697A653D332076616C75653D00536372F3
:1003B0006970743A203C696E707574206E616D6569
:1003C0003D736374206D61786C656E6774683D3150
:1003D000352076616C75653D22003C62723E00649A
:1003E0006973636F6E6E656374656400636F6E6ED0
:1003F0006563746564003E4D5154543C2F73656CC5
:100400006563743E20003E485454503C6F707469DC
:100410006F6E2076616C75653D31005352562054E5
:100420007970653A203C73656C656374206E616D0C
:10043000653D737276743E3C6F7074696F6E2076A2
:10044000616C75653D300025642E25642E25642E73
:1004500025643A25753E3C62723E003E3C62723E27
:100460005352563A203C696E707574206E616D650A
:100470003D7369702076616C75653D0047573A2081
:100480003C696E707574206E616D653D677720768E
:10049000616C75653D25642E25642E25642E2564CA
:1004A000005077643A203C696E707574206E616DFF
:1004B000653D707764206D61786C656E6774683D2A
:1004C000332076616C75653D220049503A203C69C5
:1004D0006E707574206E616D653D65697020766122
:1004E0006C75653D25642E25642E25642E256400DB
:1004F000313E0063662076616C75653D002F3E00DD
:100500002F3F63663D383E6942204B6579733C2F2F
:10051000613E002F3F63663D373E43726F6E3C2F56
:10052000613E002F3F63663D323E4D656761642D3D
:1005300049443C2F613E002F3F63663D313E436F8F
:100540006E6669673C2F613E003E4261636B3C2FE3
:10055000613E002F3F63663D31003E4261636B3C6C
:100560002F613E3C62723E4D656761442069732095
:1005700072657374617274656400340033002F3FD8
:1005800063663D002A003B003E003C62723E4469C7
:100590007370203C696E707574206E616D653D648A
:1005A0006973702073697A653D322076616C756578
:1005B0003D0026636D643D7363616E3E49324320A6
:1005C0005363616E3C2F613E002F3F70743D003ECF
:1005D000003C62723E427269676874203C696E70CA
:1005E0007574206E616D653D6873742073697A65FA
:1005F0003D332076616C75653D003E4D435032338E
:100600003030383C2F73656C6563743E003E535345
:1006100044313330363C6F7074696F6E2076616C94
:1006200075653D3230003E54534C323539313C6FA4
:100630007074696F6E2076616C75653D34003E4262
:1006400048313735303C6F7074696F6E2076616C5D
:1006500075653D33003E4D415834343030393C6F80
:100660007074696F6E2076616C75653D32003E4234
:100670004D783238303C6F7074696F6E2076616CE3
:1006800075653D37003E424D503138303C6F7074D7
:10069000696F6E2076616C75653D36003E48545535
:1006A0003231443C6F7074696F6E2076616C756591
:1006B0003D35003E414E593C6F7074696F6E207637
:1006C000616C75653D31003C62723E446576203C4C
:1006D00073656C656374206E616D653D643E3C6F4F
:1006E0007074696F6E2076616C75653D30003E00F8
:1006F0003C62723E53434C203C696E707574206EB0
:10070000616D653D6D6973632073697A653D332062
:1007100076616C75653D003E53434C3C2F73656CB0
:100720006563743E003E5344413C6F7074696F6E64
:100730002076616C75653D32003E4E433C6F7074AF
:10074000696F6E2076616C75653D31003C62723E6A
:100750004D6F6465203C73656C656374206E616DDC
:10076000653D6D3E3C6F7074696F6E2076616C758F
:10077000653D30003E003C62723E4431203C696E73
:10078000707574206E616D653D6D6973632073696A
:100790007A653D332076616C75653D003E44313CA1
:1007A0002F73656C6563743E003E44303C6F70741B
:1007B000696F6E2076616C75653D32003E4E433C3C
:1007C0006F7074696F6E2076616C75653D31003CA9
:1007D00062723E4D6F6465203C73656C6563742086
:1007E0006E616D653D6D3E3C6F7074696F6E207615
:1007F000616C75653D300026636D643D6C69737492
:100800003E446576696365204C6973743C2F613E94
:10081000002F3F70743D003E5732363C2F73656C9D
:100820006563743E003E69423C6F7074696F6E2070
:1008300076616C75653D36003E31574255533C6FCD
:100840007074696F6E2076616C75653D34003E3161
:10085000573C6F7074696F6E2076616C75653D35BD
:10086000003E44485432323C6F7074696F6E20769B
:10087000616C75653D33003E44485431313C6F70C6
:1008800074696F6E2076616C75653D32003C6272F2
:100890003E53656E203C73656C656374206E616DBC
:1008A000653D643E3C6F7074696F6E2076616C7557
:1008B000653D310020636865636B65643E203C697B
:1008C0006E707574206E616D653D6D322073697A4E
:1008D000653D332076616C75653D003E486967680B
:1008E0003C2F73656C6563743E3C62723E536D6F62
:1008F0006F7468203C696E70757420747970653D02
:10090000636865636B626F78206E616D653D6D69CC
:1009100073632076616C75653D31003E4C6F773CAA
:100920006F7074696F6E2076616C75653D32003E44
:100930004E6F726D3C6F7074696F6E2076616C756E
:10094000653D31003C62723E46726571203C7365C4
:100950006C656374206E616D653D66723E3C6F70C0
:1009600074696F6E2076616C75653D30003E44534E
:10097000323431333C2F73656C6563743E003C6FD9
:100980007074696F6E2076616C75653D32003E5003
:10099000574D003C6F7074696F6E2076616C7565A1
:1009A0003D31003E5357003C62723E4D6F646520FE
:1009B0003C73656C656374206E616D653D6D3E3C96
:1009C0006F7074696F6E2076616C75653D30003EA6
:1009D000313C2F73656C6563743E003E303C6F7034
:1009E00074696F6E2076616C75653D31003C73658E
:1009F0006C656374206E616D653D643E3C6F707420
:100A0000696F6E2076616C75653D30003C696E7073
:100A10007574206E616D653D642073697A653D3340
:100A2000206D61786C656E6774683D332076616C0B
:100A300075653D003C62723E44656661756C743A52
:100A400020003C62723E526177203C696E70757482
:100A500020747970653D636865636B626F78206EA2
:100A6000616D653D642076616C75653D3100203CAB
:100A7000696E70757420747970653D636865636B29
:100A8000626F78206E616D653D6D6973632076617C
:100A90006C75653D31003E433C2F73656C65637436
:100AA0003E003E523C6F7074696F6E2076616C75CB
:100AB000653D33003E5026523C6F7074696F6E2066
:100AC00076616C75653D32003E503C6F7074696FA5
:100AD0006E2076616C75653D31003C62723E4D6FF3
:100AE0006465203C73656C656374206E616D653D63
:100AF0006D3E3C6F7074696F6E2076616C75653DFC
:100B00003000223E203C696E7075742074797065E7
:100B10003D636865636B626F78206E616D653D6EE5
:100B200061662076616C75653D31002F003A257550
:100B30000025642E25642E25642E2564003E3C622B
:100B4000723E4E6574203C696E7075742073697ACC
:100B5000653D3330206E616D653D6574682076615A
:100B60006C75653D2200223E203C696E70757420D4
:100B7000747970653D636865636B626F78206E6140
:100B80006D653D61662076616C75653D31003C6246
:100B9000723E416374203C696E707574206E616DA5
:100BA000653D65636D642076616C75653D22003E30
:100BB0003C62723E487374203C696E707574206E9E
:100BC000616D653D6873742076616C75653D003EAE
:100BD0003C3E3C2F73656C6563743E3C62723E56CE
:100BE000616C203C696E707574206E616D653D6D41
:100BF0006973632073697A653D342076616C75652D
:100C00003D003E3C3C6F7074696F6E2076616C7580
:100C1000653D33003E3E3C6F7074696F6E207661B7
:100C20006C75653D32003E4E6F726D3C6F7074693D
:100C30006F6E2076616C75653D31004D6F64652087
:100C40003C73656C656374206E616D653D6D3E3C03
:100C50006F7074696F6E2076616C75653D30003C15
:100C60002F73656C6563743E003E414443003C6FE6
:100C70007074696F6E2076616C75653D32003E4917
:100C80003243003E4453656E3C6F7074696F6E2052
:100C900076616C75653D34003E4F75743C6F7074C1
:100CA000696F6E2076616C75653D33003E496E3C20
:100CB0006F7074696F6E2076616C75653D31003EB2
:100CC0004E433C6F7074696F6E2076616C75653D44
:100CD000300054797065203C73656C656374206ED8
:100CE000616D653D7074793E3C6F7074696F6E2004
:100CF00076616C75653D32353500706E2076616CBD
:100D000075653D002F3E003C62723E3C612068727A
:100D100065663D2F25732F3F70743D2564266578E9
:100D2000743D25643E5025643C2F613E003C627258
:100D30003E2D2D20506F7274732045787420284DFD
:100D40004350323330303829202D2D002F002F0012
:100D500068756D3A002F0074656D703A003C2F6124
:100D60003E2000303E003C2F613E2000313E003CE2
:100D70006120687265663D2F25732F3F70743D2595
:100D800064266578743D256426636D643D2564653D
:100D900025643A003A303E4F46463C2F613E3C6265
:100DA000723E004200410026636D643D002F3F709B
:100DB000743D003A313E4F4E3C2F613E203C612055
:100DC000687265663D2F004200410026636D643DF8
:100DD000002F3F70743D00423A2000413A20002F1E
:100DE000004E412F4E41002F003E203C696E707531
:100DF0007420747970653D7375626D6974207661D5
:100E00006C75653D6368616E67653E3C2F666F7209
:100E10006D3E003E50574D2028302D323535293A51
:100E2000203C696E707574206E616D653D70776DE4
:100E30002073697A653D332076616C75653D00707D
:100E4000742076616C75653D002F3E003C62723EF9
:100E50003C666F726D207374796C653D6469737064
:100E60006C61793A696E6C696E6520616374696F53
:100E70006E3D2F003C62723E6C75783A003C6272A7
:100E80003E6C75783A003C62723E6C75783A00743C
:100E9000656D703A002F68756D3A0074656D703A33
:100EA000002F003E4261636B3C2F613E3C62723E0C
:100EB000500034003300312670743D002F3F6366CC
:100EC0003D003B003A006275737900446F6E650027
:100ED00026616C6C3D006D6469643D003F004854C0
:100EE00054502F312E302034303120556E617574BE
:100EF000686F72697A65640D0A0D0A556E617574C2
:100F0000686F72697A6564005472792068747470CD
:100F10003A2F2F69702F707764002F002F002F0059
:100F20002F002F002F005025643A200049503A200E
:100F30002564202E202564202E202564202E2025A7
:100F40006400485454502F312E3020323030204F1E
:100F50004B0D0A436F6E74656E742D547970653A4B
:100F600020746578742F68746D6C0D0A5072616717
:100F70006D613A206E6F2D63616368650D0A0D0A1D
:100F8000002892A5ACAFA5E0290082EBAAAB0082B5
:100F9000AAAB202020004F4646004F4E00494E008D
:100FA0004F555400223E3C62723E003E3C62723E0F
:100FB000003C62723E00207C203C612068726566C5
:100FC0003D2F003C6120687265663D2F003E002089
:100FD000636865636B6564003C696E70757420744A
:100FE0007970653D68696464656E206E616D653D0C
:100FF000003C62723E3C696E707574207479706555
:101000003D7375626D69742076616C75653D5361E1
:1010100076653E3C2F666F726D3E003C666F726D6A
:1010200020616374696F6E3D2F002073656C65638A
:10103000746564001600000000000000000000005D
:1010400000000000000000000000000000000000A0
:10105000000000000016580000000016B00007084D
:1010600001000000162401167C0116D401162C0282
:1010700016840216DC02163403168C0316E40316DB
:101080003C040F9404000000000000000000000079
:101090000000000000000000000000000000000050
:1010A0000000000000000000000000000000000040
:1010B0000000000000000000000000000000000030
:1010C0000000000000000000000000000000000020
:1010D0000000000000000000000000000000000010
:1010E0000000003E0000003E0000003E0000003E08
:1010F0000000003E0000003E0000003E0000003EF8
:101100000000FEFF1F00FEFF1F00FEFF1F00FEFF8E
:101110001F00003E0000003E0000003E0000003EB8
:101120000000003E0000003E0000003E0000003EC7
:1011300000000000000000000000000000000000AF
:10114000000000000000000000000000000000009F
:10115000000000000000003E0000003E0000003ED5
:101160000000003E0000003E0000003E0000003E87
:101170000000003E0000003E0000003E0000003E77
:101180000000003E0000003E0000003E00000000A5
:10119000FE000000FE000000FE000000FE00000057
:1011A000FE000000FE000000FE00F0FF0000FEFF59
:1011B0000700FFFF0FC0FFFF3FC0FFFF3FE0FFFF43
:1011C0007FE0FFFF7FF00F00FFF00300FCF0010065
:1011D000F8F00100F8F00100F8F00100F8F0030069
:1011E000FCF00F00FFE0FFFF7FE0FFFF7FC0FFFF8D
:1011F0003FC0FFFF3F00FFFF0F00FEFF0700F0FFB3
:1012000000000000000000000000000000001E00C0
:10121000F8001E00F8001E00F8001E00F8001F0075
:10122000F8001F00F8C0FFFFFFE0FFFFFFE0FFFF37
:10123000FFE0FFFFFFE0FFFFFFE0FFFFFFE0FFFF3A
:10124000FF000000F8000000F8000000F8000000B7
:10125000F8000000F8000000F800000000000000A6
:10126000F8C00F00F8E00700FCE00700FEE0030014
:10127000FFF00380FFF001C0FFF001C0FFF001E0CC
:10128000FFF001F0FFF001FCFBF003FEF9F087FF37
:10129000F8F0FF7FF8E0FF7FF8E0FF3FF8C0FF1FA6
:1012A000F8C0FF07F880FF03F800FE00F800000018
:1012B000F800000000000000000000003FC00F0028
:1012C0007EE007007EE003007CE00300FCF001000C
:1012D000F8F0810FF8F0810FF8F0810FF8F0810F2E
:1012E000F8F0810FF8F0C30FFCF0FF1FFEF0FFFFD6
:1012F0007FE0FFFF7FE0FFFD7FC0FFFC3F807FFCC2
:101300001F001FF80F0000E0030000F0030000F8CA
:10131000030000FE030000FF030080FF0300E0EF76
:101320000300F0E70300F8E10300FEE003007FE0C4
:1013300003C01FE003E00FE003E0FFFFFFE0FFFF5B
:10134000FFE0FFFFFFE0FFFFFFE0FFFFFFE0FFFF29
:10135000FFE0FFFFFF0000E0030000E0030000E00B
:1013600003000000000000003FE0FF0F7EE0FF0FE1
:101370007EE0FF0F7CE0FF07FCE0FF07F8E0FF07DF
:10138000F8E0FF07F8E0C307F8E0C307F8E0C30799
:10139000F8E0C30FFCE0C30FFCE0C31FFEE0C3FF97
:1013A0007FE083FF7FE083FF3FE003FF3FE003FF39
:1013B0001FE003FE0F0000F80300C0FF0000F8FF6D
:1013C0000700FCFF0F00FFFF1F80FFFF3F80FFFFB4
:1013D0007FC0FFFF7FE09F03FFE0C703FCE0C70380
:1013E000F8F0E303F8F0E103F8F0E103F8F0E107C7
:1013F000FCF0E10FFEF0E1FF7FF0E1FF7FF0C1FFC5
:101400003FF0C3FF3FF083FF1F0000FF070000FC19
:101410000100000000E0030000E0030080E00300A2
:10142000E0E00300F0E00300FCE00300FFE003C0A5
:10143000FFE003F0FFE003F8FFE003FE7FE083FF3F
:101440001FE0E3FF0FE0F3FF03E0FFFF00E0FF3FDB
:1014500000E0FF0F00E0FF0300E0FF0100E07F007D
:1014600000E01F0000E00700000000C007003EF0A1
:101470001F80FFF83FC0FFF93FC0FFFD7FE0FFFF87
:101480007FE0FFFFFFF0FF1FFEF0E307FCF0C10F5E
:10149000F8F0C10FF8F0C10FF8F0811FF8F0831FCA
:1014A000FCF0FF3FFCE0FFFF7FE0FFFF7FE0FFFE7F
:1014B0007FC0FFFC3F807FFC1F001FF80F0000E093
:1014C0000700FC010000FF070080FF0FFCC0FF1FAA
:1014D000FCC0FF1FF8E0FF3FF8E0FF3FF8F0873F58
:1014E000F8F0033FF8F0013EF8F0013EFCF0013E59
:1014F000FCF0011E7EF0031E7FF00FCE7FE0FFFFA9
:101500003FE0FFFF1FC0FFFF1FC0FFFF0F00FFFFF7
:101510000300FEFF0000F01F00003E000080FF00FF
:1015200000C0FF0100E0FF0300E0E30300F0C1079B
:1015300000F0800700F0800700F0800700F0C1078E
:1015400000E0E30300E0FF0300C0FF010080FF00B4
:1015500000003E0000010000030200080800061819
:10156000000B2400083A00014A00044C0004540017
:10157000055C000766000274000578000182000621
:101580008400069000059C0006A60006B20007BE77
:101590000006CC0006D80006E40006F00006FC00B9
:1015A000010801020A01070E01071C01072A0105B3
:1015B00038010B42010758010666010772010780D6
:1015C00001068E01069A0107A60107B40103C201B4
:1015D00005C80106D20106DE0109EA0107FC01087F
:1015E0000A02061A020826020736020744020752B8
:1015F00002076002076E020B7C0207920207A0023C
:1016000007AE0203BC0206C20203CE0209D40208DE
:10161000E60202F60206FA02060603061203061E98
:1016200003062A03053603064003064C030158034C
:10163000045A03056203016C03096E030680030666
:101640008C0306980306A40304B00305B80304C280
:101650000306CA0306D60309E20305F40306FE03E4
:10166000050A04051404011E04052004082A0406C2
:101670003A04074604065404066004066C0409781C
:1016800004068A040B960406AC0407B80407C604D3
:1016900006D40409E00409F204070405081205074A
:1016A0002205063005073C05074A05075805096667
:1016B000050778050886050796050BA4050CBA05ED
:1016C00009D2050AE40506F8050704060B12060709
:1016D0002806063606064206064E06055A06076422
:1016E00006067206097E06059006069A0606A606F6
:1016F00006B20607BE0607CC0606DA0606E60606AA
:10170000F20606FE06060A07051607062007092C3C
:1017100007053E070748070656070962070A7407C8
:1017200007880707960705A40706AE0709BA070644
:10173000CC0706D8071BF000780000007802000EE6
:101740004003C002700E4003C00270004010C01180
:10175000207FF8122012200C2000E0011011100947
:101760001006E001000EC01120111011000E000E35
:10177000E01110111011100AE00C0012001100000D
:10178000780F803060401080088008401030600F73
:10179000800050002000F8002000500100010001EE
:1017A000000FE001000100010040003800010001CD
:1017B000000100010001001800600018000600018F
:1017C00080006000180FE010101010101010100FA3
:1017D000E0102010201FF0100010001860141012EC
:1017E000101210111010E00820101011101110111B
:1017F000100EE003000280024002201FF0020002EF
:1018000000080011F01110111011100E100FC0106F
:10181000A01090109010900F00001000101C1003EA
:101820001000D000300EE011101110111011100E28
:10183000E001E01210121012100A1007E018C04068
:101840000038C00200050005000880088010401024
:10185000400480048004800480048004800480109C
:1018600040104008800880050005000200002000AC
:10187000101B10009000600F80104020204F9050EF
:1018800050505050505FD0102010400F801800076B
:101890000004C0043004C0070018001FF01110112C
:1018A00010111011E00E0007C008201010101010C9
:1018B00010101008201FF010101010101010100839
:1018C0002007C01FF0111011101110111011101F5E
:1018D000F00110011001100110001007C0082010C5
:1018E000101010121012101E201FF0010001000134
:1018F00000010001001FF010101FF0101010001068
:1019000000101010100FF01FF001000280044008BA
:101910002010101FF0100010001000100010001F09
:10192000F0003000C003000C00030000C000301FB6
:10193000F01FF0003000C00100060018001FF00783
:10194000C008201010101010101010082007C01F21
:10195000F0021002100210021001E007C00820106F
:1019600010101010103010482047C01FF002100255
:10197000100210051008E0100008E01110111011FD
:1019800010111011100E200010001000101FF00098
:10199000100010001007F0080010001000100008E0
:1019A0000007F000700180060018000600018000AA
:1019B0007000F007001800060001C0003001C006EA
:1019C000001800070000F0183004400280010002F7
:1019D00080044018300010006001801E000180006B
:1019E00060001018101410121011101090105010E8
:1019F000307FF84008400800180060018006001899
:101A0000006000400840087FF801000080004000AE
:101A100020001000200040008001004000400040F5
:101A20000040004000400040004000000800100C52
:101A30000012401240124012401F801FF810801008
:101A400040104010400F800F801040104010401098
:101A50004008800F8010401040104008401FF80FD1
:101A60008012401240124012400B8000401FF000D4
:101A700048004800080F8090409040904088407F88
:101A8000C01FF800800040004000401F801FC88039
:101A900000800080407FC81FF80200050008801009
:101AA000401FF81FC00080004000401F80008000E1
:101AB0004000401F801FC000800040004000401FC9
:101AC000800F8010401040104010400F80FFC01069
:101AD000801040104010400F800F801040104010C8
:101AE000400840FFC01FC00080004000401180122D
:101AF00040124012400C4000400FF0104010400FC8
:101B0000C010001000100008001FC000C00700181F
:101B1000001800070000C000C00700180007000000
:101B2000C007001800070000C018C005000200052B
:101B30000018C000C0870078001800070000C01817
:101B40004014401240114010C0010001003EF0401E
:101B50000840087FF8400840083EF00100010003FB
:101B60000000800080010001000200020001801FCF
:101B7000F0111411101110111411101800070004A5
:101B8000C0043004C0070018001FF011101110111C
:101B90001011100E001FF011101110111011E00E95
:101BA000001FF0001000100010001000107000184E
:101BB00000170010F01010101010101FF070001F10
:101BC000F011101110111011101110101008100444
:101BD000E0030001001FF00100030004E008101002
:101BE00010082010101110111011100EE01FF00835
:101BF000000600010000C000201FF01FF0080206D0
:101C000004010400C400221FF01FF00100030004BF
:101C1000E008101010100010000FF000100010006D
:101C200010001000101FF01FF0003000C003000C67
:101C300000030000C000301FF01FF0010001000190
:101C400000010001001FF007C00820101010101044
:101C5000101010082007C01FF00010001000100026
:101C60001000101FF01FF0021002100210021001ED
:101C7000E007C008201010101010101010082000ED
:101C800010001000101FF000100010001010301095
:101C9000C013000C00030000C000300380044008A3
:101CA0002008201FF008200820044003801830047A
:101CB00040028001000280044018301FF010001024
:101CC000001000100010001FF0700001F002000270
:101CD000000200020002001FF01FF01000100010B0
:101CE0000010001FF010001000100010001FF01F67
:101CF000F010001000100010001FF0100010001075
:101D00000010001FF070000010001000101FF011F4
:101D1000001100110011000E001FF0110011001140
:101D200000110011000E00000000001FF01FF01154
:101D3000001100110011000E0008201110111011E7
:101D4000101110092007C01FF00100010007C00892
:101D5000201010101010101010082007C0100009DB
:101D6000E006100210021002101FF00C00124012C8
:101D700040124012401F800FE010501048104810D1
:101D8000480F881FC012401240124012400D801FA1
:101D9000C0004000400040004070001C0013C01014
:101DA0004010401FC070000F8012401240124012BD
:101DB000400B8010400840058002001FC002000553
:101DC000800840104008801240124012400D801FD1
:101DD000C004000200010000801FC01FC0040802F0
:101DE00010011000881FC01FC002000200058008FB
:101DF000401040100010000FC00040004000401F85
:101E0000C01FC0008001000600010000801FC01F2D
:101E1000C002000200020002001FC00F801040102C
:101E200040104010400F801FC000400040004000A4
:101E3000401FC0FFC010801040104010400F800FA6
:101E40008010401040104010400880004000401FAB
:101E5000C00040004000C087007800180007000064
:101E6000C00F80104010401040FFF810401040108C
:101E7000400F8018C005000200050018C01FC010E8
:101E8000001000100010001FC0700003C004000408
:101E900000040004001FC01FC01000100010001F2D
:101EA000C01000100010001FC01FC0100010001054
:101EB000001FC01000100010001FC0700000400084
:101EC000401FC01100110011000E001FC0110011B1
:101ED0000011000E0000001FC01FC01100110011F2
:101EE000000E00088010401240124012400F801F68
:101EF000C0020002000F8010401040104010400F40
:101F00008011800A400640024002401FC00F80122C
:101F1000501240124012500B802F636D64004D51DF
:101F200049736470000D0A436F6E74656E742D54AE
:101F30007970653A206170706C69636174696F6E65
:101F40002F782D7777772D666F726D2D75726C6592
:101F50006E636F6465640D0A0D0A00436F6E7465ED
:101F60006E742D4C656E6774683A20000D0A5573C7
:101F700065722D4167656E743A207467722F312E39
:101F8000310D0A4163636570743A202A2F2A0D0AC5
:101F9000436F6E6E656374696F6E3A20636C6F7326
:101FA000650D0A000D0A0020485454502F312E317F
:101FB0000D0A486F73743A2000504F535420000D9F
:101FC0000A557365722D4167656E743A206D6567B9
:101FD00061640D0A4163636570743A2074657874B6
:101FE0002F68746D6C0D0A0D0A0020485454502F50
:101FF000312E310D0A486F73743A20004745542042
:1020000000000108000604000145000082000040B5
:10201000002011241FBECFEFD1E2DEBFCDBF00E014
:102020000CBF16E0A0E0B2E0EAE5FEE101E00BBF84
:1020300002C007900D92A032B107D9F72EE0A0E2BE
:10204000B6E001C01D92AF39B207E1F70E94F42C4F
:102050000C942B8F0C9400008FEF8093180208953E
:102060000F931F93CF93DF93EB014AE250E0BC0143
:102070008BEC9DE00E947C8B6AEB72E08BEC9DE028
:102080000E94208B1092FD0D2091FD0D2430C8F48C
:102090000097B9F08E01020F111D4AE050E060E098
:1020A00070E00E94D989F80160838091FD0D8F5FF7
:1020B0008093FD0D6AEB72E080E090E00E94208B3F
:1020C000E3CF822FDF91CF911F910F91089561305F
:1020D00049F4DA01EAE6F2E08D91819382E0E0379B
:1020E000F807D1F70895623049F4DA01E9EEFCE02F
:1020F0008D9181938CE0EF3EF807D1F70895E09140
:10210000640DF091650D908121E030E0082E01C052
:10211000220F0A94EAF7922B90830895E0915E0DC6
:10212000F0915F0D208181E090E00090110202C0EB
:10213000880F991F0A94E2F7282B20830895F894BA
:10214000E0915E0DF0915F0D908121E030E001C0E3
:10215000220F8A95EAF7322F309593239083E091EE
:10216000640DF091650D8081822B80838BED95E06D
:102170000197F1F700C00000E091640DF091650D4A
:10218000808183238083EAEDF0E03197F1F700C08E
:10219000E091580EF091590E8081E1E0F5E0319721
:1021A000F1F7789482230895F894E0915E0DF09110
:1021B0005F0D408121E030E0062E01C0220F0A941D
:1021C000EAF7922F909549234083E091640DF091B6
:1021D000650D3081322B308329E22A95F1F700C05A
:1021E000882339F0E091640DF091650D8081892399
:1021F000808385EE8A95F1F70000E091640DF091FF
:10220000650D80818923808378940895F894E09106
:102210005E0DF0915F0D908121E030E0082E01C04D
:10222000220F0A94EAF7322F309593239083E0919E
:10223000640DF091650D9081922B908394E09A95B6
:10224000F1F70000E091640DF091650D908193230A
:1022500090839AE39A95F1F70000E091580EF0917F
:10226000590E20819BEB9A95F1F700C0789430E0ED
:1022700002C0359527958A95E2F7822F81700895DF
:102280001F93CF93DF93D82F162FC9E0C15031F0A1
:10229000612F8D2F817088DFD695F8CFDF91CF9198
:1022A0001F9108951F93CF93DF93182FD9E0C0E0BB
:1022B000D15049F0812FAADF20E8829FC00111246C
:1022C000C695C82BF5CF8C2FDF91CF911F91089524
:1022D000EF92FF920F931F93CF93DF93182FF62E59
:1022E000EA01E22E2CDF81115FC0612FF11003C0E3
:1022F0008CECC6DF09C085E5C3DF00E0612F899162
:10230000BFDF0F5F0830D1F7612F8EEBB9DF812F70
:10231000C9DFC82F812FC6DFD82FF1100EC0812F43
:102320000EDF612F8CECACDF612F84E4A9DFEE2D92
:10233000F0E0EC58F14F8BE98083E091640DF0916F
:10234000650D908121E030E0012E01C0220F0A943A
:10235000EAF7922B9083E0915E0DF0915F0D9081F2
:10236000922B9083EC2FE295EF702D2F277080E158
:10237000289F90011124E22BCF7041E752E0C49FC7
:10238000C001C59F900D1124D7FF03C0EF578051A6
:10239000974264E670E00E94FB87CB0124E6E202EC
:1023A000800D911D112402C088EC92E3CDB7DEB7F9
:1023B000E6E00C94998898E02CE8362F382786952B
:1023C00030FD822766959150C1F708951F93CF93F2
:1023D000DF93C82FB4DE6C2F8CEC52DF6C2F85EFAF
:1023E0004FDF14E08C2F5EDFD82FDF7082958F7067
:1023F000482F50E02D2F30E0209530952F70332757
:102400004217530711F410E003C0115059F71FEFA2
:102410008C2F95DE1F3F09F4DFEF8D2FDF91CF91D9
:102420001F910895FF920F931F93CF93DF93C82FAF
:10243000D62FDC6F14E00D2F00958C2F80DE6C2FD3
:102440008CEC1EDF6C2F8AE51BDF6C2F8D2F18DFC5
:102450006C2F802F15DF8C2F25DFF82E8C2F22DF9D
:102460008AEAF81611F0115041F78C2F68DECDB7CB
:10247000DEB7E5E00C949A8842E45FE060E070E04B
:102480008BEE98E00C94126EDC012C912F3229F522
:10249000FC01319680E0BF019191903231F09F3282
:1024A00021F0BF018F5F8630B1F790E0681B790B98
:1024B000E2EEFCE0DF010D900020E9F7AD014150B4
:1024C0005109425E5C404817590739F4CF010E9418
:1024D0006E8B892B11F481E008958FEF089582347B
:1024E000A1F4673019F48CE890E01FC0663019F44D
:1024F0008AE890E01AC0653019F488E890E015C0C9
:102500006430B9F483EB90E010C0853491F463300B
:1025100019F488E990E009C0643019F48AE990E080
:1025200004C0653031F48CE990E09093F60D80930F
:10253000F50D0895863419F481E390E01DC08534CB
:1025400019F48EE290E018C0823419F485E290E02C
:1025500013C0873419F484E390E00EC0843419F476
:102560008BE290E009C0813419F482E290E004C06B
:10257000833431F488E290E090935C0E80935B0E9C
:102580000895863479F481E390E090935F0D809311
:102590005E0D80E390E09093650D8093640D8FE273
:1025A00090E065C0853479F48EE290E090935F0D01
:1025B00080935E0D8DE290E09093650D8093640DA5
:1025C0008CE290E054C0823479F485E290E09093FC
:1025D0005F0D80935E0D84E290E09093650D809393
:1025E000640D83E290E043C0873479F484E390E0A3
:1025F00090935F0D80935E0D83E390E09093650D63
:102600008093640D82E390E032C0843479F48BE2ED
:1026100090E090935F0D80935E0D8AE290E090933E
:10262000650D8093640D89E290E021C0813479F4D6
:1026300082E290E090935F0D80935E0D81E290E0E6
:102640009093650D8093640D80E290E010C0833418
:1026500091F488E290E090935F0D80935E0D87E2A5
:1026600090E09093650D8093640D86E290E09093E6
:10267000590E8093580E0895A1E0B0E0E2E4F3E132
:102680000C948088182F862F49837BDF4981113372
:1026900019F4842F34DD0EC0E091640DF091650DC6
:1026A000808121E030E001C0220F4A95EAF72095B1
:1026B000282320832196E3E00C949C88CF93C82F95
:1026C000833038F58091130235DFC13089F4E09111
:1026D0005B0EF0915C0E208181E090E000903B0663
:1026E00002C0880F991F0A94E2F7282B208328C084
:1026F000C23079F4E0915B0EF0915C0E208181E0B4
:1027000090E000903B0602C0880F991F0A94E2F700
:1027100014C0C33011F402DD13C0C43089F4E09159
:102720005E0DF0915F0D208181E090E0009011023C
:1027300002C0880F991F0A94E2F780958223808354
:10274000CF910895CF93C82F809112021ADFC13024
:1027500079F4C0913B068091130213DF8C2FCFDCFC
:10276000C0911102809112020CDF8C2FC8DC15C0C1
:10277000C23061F0C43079F4C0911102809112022C
:1027800000DF8C2FBCDCCADC81E098DF84E096DFC0
:1027900082E094DF05C084E091DF81E08FDFBEDC62
:1027A000CF910895EF92FF920F931F93CF93DF93F2
:1027B000E82E80911202E5DEC7E0D0E0F12C01E0C6
:1027C00010E022E32A95F1F7E0915E0DF0915F0DA4
:1027D0008091110297010C2E02C0359527950A941D
:1027E000E2F720FF0AC02081A80102C0440F551F54
:1027F0008A95E2F7242B20830BC02081A80102C018
:10280000440F551F8A95E2F7CA0180958223808381
:1028100081E054DF82E052DF84E050DF219788F6C8
:10282000409111026091120280E326DF81E046DFD1
:10283000E091580EF091590E808190E000901102C5
:1028400002C0959587950A94E2F78170992721E057
:102850008227C82FC17082E031DF84E02FDFD09162
:102860001102809112028DDE8D2F49DC8C2FCDB7A5
:10287000DEB7E6E00C949988EF92FF920F931F93D6
:10288000CF93DF93E82E409111026091120280E312
:10289000F3DE8091120275DE82E010DFC7E0D0E047
:1028A000F12C01E010E081E009DFE091580EF09199
:1028B000590E208130E00090110202C03595279515
:1028C0000A94E2F720FD09C098010C2E01C0220FE6
:1028D0000A94EAF72095F22207C098010C2E01C055
:1028E000220F0A94EAF7F22A82E0E8DE2197D8F66E
:1028F000C09111028091120244DE8C2F00DC81E035
:10290000DDDE81E0E81202C009DC02C084E0D6DE30
:1029100082E0D4DE409111026091120280E3ACDECD
:102920008F2DCDB7DEB7E6E00C949988A3E2B0E036
:10293000ECE9F4E10C9471888C016B8F4E8F722E50
:1029400086E496E4A0E08E879F87A88B8B879C8780
:10295000AD871092FD0DE3E06E2E1B8A812C44247E
:102960004394512C862F90E0AC01440F551F4F53D8
:10297000584F5F8B4E8B9C012A5B394F398F288FC4
:1029800058A34F8FAE014F5F5F4F5A8B498B9C010D
:102990002555374F3AA329A3F090FD0D8F2D90E0D8
:1029A000F80101900020E9F73197E01BF10B8E1739
:1029B0009F0708F08EC4F801E80FF91F40814A30E4
:1029C00039F486E48E878F871F821B8A812C6EC420
:1029D0004A3329F43B89333009F056C437C04B33AE
:1029E00009F455C4403709F454C4413609F454C4B9
:1029F000453609F454C4413409F454C4423409F44A
:102A000053C44C3709F465C44B3209F455C44E37EE
:102A100009F455C44D3209F455C45B89511107C0FE
:102A20008E85863411F04F8741C44E873FC42B8971
:102A3000273039F48B85863411F04C8737C44B87A7
:102A400035C43B89313041F0343031F08B898550C9
:102A5000823008F006C30CC05B8D543649F0A9A142
:102A6000BAA18C91811104C0EE89FF891182108274
:102A70008F85863409F41F86CE010E964BA30E94E3
:102A8000EA8A8A8F282E332427FC30947101EE0CB9
:102A9000FF1CF701E65EFD4F80819181DC019D9076
:102AA000CD010E94EA8A5C014BA14E3761F4F70127
:102AB000E653F94F80819181029719F426E02B8B20
:102AC00002C035E03B8B6A2D892D09DD892D59DD4A
:102AD0008091FD0DA801480F511D5D8B4C8BDA01D3
:102AE0004C91F101E159F84F6F014E3529F4808185
:102AF000811109C081E08FC2463741F48081811184
:102B000002C082E088C2D6011C9286C2483771F4A6
:102B1000108286E48E878F87F701EE58F94F118275
:102B20001082F101EA5BF94F10827CC21082F10140
:102B3000E35AF74F9081913009F0F2C0F101E55569
:102B4000F74F9081913009F02FC18F5F90E0F8012D
:102B500001900020E9F73197E01BF10B8E179F07DA
:102B600040F4F801E80FF91F80818A53823008F0A1
:102B7000CBC0882D90E0E7E0F0E0EC0FFD1FE80F00
:102B8000F91F4083FE01E80FF91F1086B2E49B167F
:102B900019F0E5E49E12B2C0CE0107960E94EA8ABF
:102BA000F701EF53F84F918380832B89243051F440
:102BB000A091F50DB091F60D8D919C91892B11F09E
:102BC00011821082C70182509F4F0E944D8EF701E3
:102BD000E15FF74F918380833B89353008F47DC0F6
:102BE000AE89BF898D919C91009779F5E88DF98D1B
:102BF000808181115AC0E091F50DF091F60D808130
:102C00009181892B29F0AC89BD898C918E3719F07F
:102C10002B89253041F011821082F701E653F94FDC
:102C2000518240826BC0D101AA5BB94F8C91811156
:102C300002C08FEF8C938C9190E09183808382E02F
:102C400090E0F701E653F94F57C0019709F041C0F2
:102C5000E091F50DF091F60D3B89353049F4808116
:102C600091818F3F910580F48081918101960AC006
:102C70004B89463049F480819181892B29F08081EC
:102C8000918101979183808381E0A88DB98D8C9388
:102C900083E090E0AF8DB8A18D939C93808191816A
:102CA000F101EA5BF94F808329C0813091F4F7018B
:102CB000E653F94F80819181029728F482E090E0F9
:102CC0009183808302C051824082E88DF98D108209
:102CD00015C0A88DB98D1C9211C0009751F4E091D8
:102CE000F50DF091F60DD701AF53B84F8D919C9132
:102CF00003C0F701E858F24F9183808386E48E8702
:102D00008F871F82812C8EC14A3209F489C1E7E086
:102D1000F0E0EC0FFD1FE80DF11D4083839482C1AC
:102D2000923009F041C0B3E06B1609F43DC08A2D22
:102D30004DDB682F66956B7F8091FD0DF801E80FE4
:102D4000F11D8081813351F0833321F4E1E07E1263
:102D50001BC004C0843359F4711019C09201062CB1
:102D600001C0220F0A94EAF7209562231AC0823329
:102D700041F49201062C01C0220F0A94EAF762275F
:102D800010C0803339F00DC0772021F00AC0F1E087
:102D90007F1207C09201062C01C0220F0A94EAF7A5
:102DA000622B8A2D3FDB38C1F101E555F74F808159
:102DB000843009F0E6C0F101EC57F74F808184318F
:102DC00009F06DC0CE010B960E94EA8A1C01909218
:102DD0001202A0921102F701E15FF74F0190F0811A
:102DE000E02DEE0FFF1FE65EFD4F80819181DC013B
:102DF0004D91CD01409313020E94EA8A80933B06D5
:102E000081E0A0DC82E09EDC80E4CCDC89E0CADCEE
:102E100083E098DC82E096DC81E4C4DC81E02CDD98
:102E2000B82E83E08FDC8091FD0DF801E80FF11DD5
:102E3000808191013327813349F4F20102C0EE0F02
:102E4000FF1F2A95E2F7AB2CAE2A14C0823349F457
:102E5000A20102C0440F551F2A95E2F7AB2CA4260D
:102E600009C0C20102C0880F991F2A95E2F7A82E57
:102E7000A094AB2082E066DC80E494DC80E092DC0D
:102E800080E090DC83E05EDC82E05CDC80E48ADC75
:102E900089E088DC8A2D86DC83E054DCBDC0843088
:102EA00009F06FC02A8D263259F483E4809313020F
:102EB00010923B068093120281E08093110219C0A8
:102EC00090921202A0921102F701E15FF74F019078
:102ED000F081E02DEE0FFF1FE65EFD4F80819181B6
:102EE000DC012D91CD01209313020E94EA8A809388
:102EF0003B0681E027DC82E025DC2091FD0DFE0110
:102F0000379680E090E0A801420F511D9A01482FAA
:102F1000D901A80FB91F5C915B3341F0552331F003
:102F2000519301968330910591F743E0E7E0F0E09B
:102F3000EC0FFD1FE40FF11D1082CE0107960E94D9
:102F4000EA8A5C01982F88E79BA32CDC80E02ADCCE
:102F50009BA1913011F48FEA09C0911102C08EEA51
:102F600005C09F3F21F081E81DDC8A2D1BDC82E03B
:102F7000E9DB81E0809347071092450710924407F0
:102F80004BC0413351F0433321F451E0751216C068
:102F900004C0443381F4711014C0E0915E0DF091CF
:102FA0005F0D8081D20102C0AA0FBB1FAA94E2F775
:102FB0005D018A2B28C04033B9F406C0772021F088
:102FC00023C0B1E07B1220C0E0915E0DF0915F0D57
:102FD0008081920102C0220F331FAA94E2F75901A7
:102FE000A094A822A08210C0423371F4E0915E0D3B
:102FF000F0915F0D8081A20102C0440F551FAA9479
:10300000E2F75A0184278083F101E95FF14F808163
:10301000843610F48C59808386E48E878F8702C0B3
:1030200054E05B8BD6018C9118160CF03FC12091B7
:10303000FD0DF801E20FF11D818190ED980FF70170
:10304000EF53F84F9A3050F4992787FD9095C09729
:10305000918380832F5F2093FD0D28C11182108200
:1030600025C12B89223009F04BC0882D90E0E1E08A
:10307000F0E0EC0FFD1FE80FF91F4083FE01E80FA1
:10308000F91F1282839481E08F0D90E0F801019086
:103090000020E9F73197E01BF10B8E179F0740F4F2
:1030A000F801E80FF91F80818A53823008F0FEC0D2
:1030B000F394F3943E8DF30E46E14F1508F4F6C0F9
:1030C0005B8D052F10E0CE0101960E94EA8AF8017F
:1030D000EE0FFF1FEE58F94F24E1DC012A9FC001DB
:1030E0002B9F900D112491838083F801EA5BF94FA7
:1030F000F08285E0E989FA8911928A95E9F7E9C0B9
:103100002B89233009F0D2C0F394F092FD0D4AE1EF
:1031100052E05D8B4C8B2BEA38E03D8F2C8F87E0A3
:10312000E82E8EE0F82E9DE5C92E98E0D92E2224B7
:103130002A94312C33E0932EAC89BD898D919D91D9
:10314000BD8BAC8BFC012191CF012A8F0E94EA8AB2
:103150005C018A8D16DAAC8DBD8D8D91BD8FAC8FE3
:10316000813009F084C0F60180818230D9F48091E9
:10317000FD0DF801E80FF11D8081813309F4A5C030
:10318000803309F4A4C0823309F071C08A2D1ED99E
:10319000682F66956B7F6925643008F068C08A2DBA
:1031A00041D965C0813041F56A2D8A8D98D98091C9
:1031B000FD0DF801E80FF11D8081803329F4E091C5
:1031C000F50DF091F60D12C0813329F4E091F50D63
:1031D000F091F60D0EC0823309F049C0E091F50D73
:1031E000F091F60D80819181892B19F01182108266
:1031F0003EC0318220823BC08091FD0DF801E80F76
:10320000F11D8081813369F4E0915E0DF0915F0DD5
:10321000808192010A2C01C0220F0A94EAF7822BC6
:103220001FC0803379F4E0915E0DF0915F0D8081D5
:1032300092010A2C01C0220F0A94EAF72095282354
:1032400020830FC0823369F4E0915E0DF0915F0D31
:10325000808192010A2C01C0220F0A94EAF782278A
:103260008083D7018C91843610F48C598C93BFEFF6
:10327000EB1AFB0AEFEFCE1ADE0A2C893D8926569F
:10328000324009F059CF12C051E05B8B0FC01B8A4E
:103290000DC022E02B8B0AC033E03B8B07C047E018
:1032A0004B8B04C0612C02C0662463948091FD0D99
:1032B0008F5F8093FD0D70CB55E05B8BC7CB25E016
:1032C0002B8BC4CB36E03B8BC1CB60E068CF63E097
:1032D00066CFA396E2E10C948D88AFE1B0E0E3E71E
:1032E000F9E10C947A88DC01322F273240F4E22F86
:1032F000F0E0EE0FFF1FE653F94F11821082FE013E
:1033000031968E01015E1F4FCF011192E017F10738
:10331000E1F7032F10E0F801E555F74FB08023E007
:10332000B21206C0F801EC57F74FE081E43011F01B
:10333000373210F0EFEF01C0E1E0E0931802F8013E
:10334000EA54F34FE081E1FF05C0A83CB10509F064
:1033500091C093C0A83CB10509F043C06551774FB7
:10336000FB01D12CC12C7F01E61AF70ADA014D3D91
:10337000510510F0ACEDB0E0EA16FB0618F521910E
:103380002D3011F02A3041F4A2E0DA1641F0A0818C
:10339000AA3049F7D394E7CFB2E0DB1211C02F3E39
:1033A00049F0A22FAB7FAB3B29F0DC01AC0DB11D86
:1033B0002C93C3942CE12C1528F0B2E0DB2ED3CF54
:1033C000D12CD1CFFC01EC0DF11D10824981442399
:1033D00041F04A81443629F023E040E064E6A6DA71
:1033E0004CC0F801E35AF74F8081811107C0F80102
:1033F000EA56F84F80818F3F61F410C0823039F473
:10340000F801EA56F84F80818E3F19F407C08130E9
:1034100029F0B11003C08A81843679F5373268F516
:1034200081E0F801E159F84F80838AE2EBECFDE09E
:10343000DF011D928A95E9F727E1209FB001219FC6
:10344000700D112461587B4F47E150E0CF013F8F51
:103450000E94358E8091CB0D8F5F3F8D823050F072
:10346000F801EA56F84F20812E5F40E0632F8BEC85
:103470009DE05CDA82E0809318026F96E9E00C949C
:103480009688A1E0B0E0E7E4FAE10C947788482F51
:10349000082F10E0B801635A774F7B01DB018C9154
:1034A0004801880C991C813099F54E3118F089E259
:1034B00090E002C08CE290E09093590E8093580EF9
:1034C000F401E65EFD4F8081918101960E94EA8AB7
:1034D00080933E06F401E15FF74FC080D180F60192
:1034E000EE0FFF1FE65EFD4F8081918101960E94E5
:1034F000EA8AB82EBEE1CB16D1041CF089E290E036
:1035000002C08CE290E09093040E8093030E39C0C9
:10351000F401E65EFD4F80819181019649830E940E
:10352000EA8AB82E49814E3138F089E290E09093D2
:10353000040E8093030E06C02CE230E03093040E9C
:103540002093030EF401E15FF74F0190F081E02D2D
:10355000EE0FFF1FE65EFD4FC080D180C6010196D1
:103560000E94EA8A80933E06F6018081843419F431
:1035700029E230E002C02CE230E03093590E209373
:10358000580E1092680D1092690D10926A0D1092EB
:103590006B0D10926C0D10926D0D21E030E002C0A9
:1035A000220F331FBA94E2F7B12CC12C78E0D72E4A
:1035B00040E050E0B0E081E090E0F4E0FA95F1F70F
:1035C00000004F5F5F4F483765E0560779F4BA3126
:1035D00008F089C0BB0CBB0CBB0C8091680D8295B8
:1035E00086958770B82AB092680D7DC0E091580E1C
:1035F000F091590E6081A0913E0670E00A2E02C043
:10360000759567950A94E2F760FD1EC0AA24A394FD
:10361000AB0EB150B83108F4DA94AC0102C0440FDB
:10362000551FAA95E2F7DA0164EC79E0408150E099
:103630004A235B23452B09F04BC06150710961158A
:103640007105A1F781E082C0E091030EF091040EB4
:10365000608170E062237323672BE9F5AA24A394A9
:10366000AB0EB1504C2D50E0B83180F46FEF6D0DC2
:10367000DC0102C0AA0FBB1F6A95E2F7BD01DA01A7
:10368000A859B24F7C91762B7C93DA94DA01A55934
:10369000B24F4FEF4D0DBC0102C0660F771F4A9528
:1036A000E2F7AB015C91542B5C9371E0A71202C06E
:1036B000BB24B39464EC79E0408150E0422353236F
:1036C000452B31F46150710961157105A9F7BACF25
:1036D000BA2D40E050E0D11003C0C39468E0D62E6C
:1036E000BA3208F46ACF8BEE8B0F853068F4809184
:1036F0006B0D8093680D80916C0D8093690D8091A6
:103700006D0D80936A0D0AC0B43030F48091680D5D
:1037100086958093680D04C0B53010F083E001C039
:1037200081E080936B0DD7018C91813021F4F801F9
:10373000EA56F84F09C0F401E15FF74F0190F081BC
:10374000E02DEA56F84F81E0808380E02196ECE09E
:103750000C9493881F920F920FB60F9211240BB600
:103760000F922F933F934F935F936F937F938F931A
:103770009F93AF93BF93EF93FF93F8948EE181DE15
:103780008111E8987894FF91EF91BF91AF919F914B
:103790008F917F916F915F914F913F912F910F90FA
:1037A0000BBE0F900FBE0F901F9018951F920F9297
:1037B0000FB60F9211240BB60F922F933F934F9396
:1037C0005F936F937F938F939F93AF93BF93EF9389
:1037D000FF93F8948FE155DE8111E9987894FF9179
:1037E000EF91BF91AF919F918F917F916F915F9179
:1037F0004F913F912F910F900BBE0F900FBE0F90E6
:103800001F9018951F920F920FB60F9211240BB6AE
:103810000F922F933F934F935F936F937F938F9369
:103820009F93AF93BF93EF93FF93F89480E229DEC9
:103830008111EA987894FF91EF91BF91AF919F9198
:103840008F917F916F915F914F913F912F910F9049
:103850000BBE0F900FBE0F901F9018951F920F92E6
:103860000FB60F9211240BB60F922F933F934F93E5
:103870005F936F937F938F939F93AF93BF93EF93D8
:10388000FF93F89481E2FDDD8111EB987894FF912C
:10389000EF91BF91AF919F918F917F916F915F91C8
:1038A0004F913F912F910F900BBE0F900FBE0F9035
:1038B0001F9018951F920F920FB60F9211240BB6FE
:1038C0000F922F933F934F935F936F937F938F93B9
:1038D0009F93AF93BF93EF93FF93F8948BE1D1DD68
:1038E0008111EC987894FF91EF91BF91AF919F91E6
:1038F0008F917F916F915F914F913F912F910F9099
:103900000BBE0F900FBE0F901F9018951F920F9235
:103910000FB60F9211240BB60F922F933F934F9334
:103920005F936F937F938F939F93AF93BF93EF9327
:10393000FF93F89489E1A5DD8111ED987894FF91CA
:10394000EF91BF91AF919F918F917F916F915F9117
:103950004F913F912F910F900BBE0F900FBE0F9084
:103960001F9018951F920F920FB60F9211240BB64D
:103970000F922F933F934F935F936F937F938F9308
:103980009F93AF93BF93EF93FF93F89487E179DD13
:103990008111EE987894FF91EF91BF91AF919F9133
:1039A0008F917F916F915F914F913F912F910F90E8
:1039B0000BBE0F900FBE0F901F9018951F920F9285
:1039C0000FB60F9211240BB60F922F933F934F9384
:1039D0005F936F937F938F939F93AF93BF93EF9377
:1039E000FF93F89486E14DDD8111EF987894FF9173
:1039F000EF91BF91AF919F918F917F916F915F9167
:103A00004F913F912F910F900BBE0F900FBE0F90D3
:103A10001F9018951F920F920FB60F9211240BB69C
:103A20000F922F923F924F925F926F927F928F925E
:103A30009F92AF92BF92CF92DF92EF92FF920F933D
:103A40001F932F933F934F935F936F937F938F9326
:103A50009F93AF93BF93EF93FF93CF93DF93CDB734
:103A6000DEB72797DEBFCDBF80913A068F5F809388
:103A70003A06883C09F04BC010923A06809139060C
:103A80008F5F8093390690913806923111F09A3207
:103A900051F48E3141F4809110028230C1F181E005
:103AA0008093100234C08C3391F51092390631E0C6
:103AB000390F309338068091220690912306A09109
:103AC0002406B09125060196A11DB11D8093220602
:103AD00090932306A0932406B093250621E020931B
:103AE00026063C33A1F410923806809137068F5F8A
:103AF00080933706883159F4109237068091360644
:103B00008F5F80933606883011F4209336068091BB
:103B10001807813099F48091140290911502A091B8
:103B20001602B09117020196A11DB11D80931402D7
:103B300090931502A0931602B09317028091BD07CF
:103B40009091BE07A091BF07B091C0078330910547
:103B5000A105B10558F00197A109B1098093BD07EE
:103B60009093BE07A093BF07B093C0078091DE0C6F
:103B70009091DF0C8230910528F001979093DF0C33
:103B80008093DE0C8091E10C8F3F69F080914406B8
:103B900090914506813127E2920728F00197909392
:103BA0004506809344068BEA98E09A83898324E74C
:103BB000422E2EE0522E3FE0832E38E0932E48E72F
:103BC000A42E4DE0B42EA1ECB7E0BF83AE8352E744
:103BD000C52E56E0D52E6AECE62E66E0F62E76EB84
:103BE000272E7CE0372EEAE16E2EE2E07E2E00E00A
:103BF00010E07FEFE981FA812191FA83E983213096
:103C000009F056C0F801E35AF74F8081813009F07E
:103C10009AC0D4018D919C91181619060CF093C08E
:103C2000F50180819181009709F48DC0F801E15977
:103C3000F84F2081211187C081309105B1F5D30162
:103C40002D913C91C90101962B833C837D830E9479
:103C5000EA8A682F2B813C81F90180810E946F12D2
:103C6000E091F50DF091F60D80819181682FAE8184
:103C7000BF814D915C919C0133277D8124173507CD
:103C800014F461E004C0421753071CF46FEF680F8F
:103C900003C0D4011D921C92862F90E091838083F3
:103CA000F40180819181D5014CC00197F5013BC0A1
:103CB000D7018D919C9111970097D9F001978D9321
:103CC0009C93009751F4F101308131FD06C0E1E091
:103CD000F0E0D601ED93FC930CC0D1013C9131FF93
:103CE00008C0803A910528F470936A02F7011182A6
:103CF0001082D6018D919C9111978330910518F017
:103D000001978D939C93233089F4F801EC57F74F7A
:103D100080818430C1F4EE81FF8180819181181609
:103D200019068CF40197918380830DC021110BC07B
:103D3000AE81BF818D919C911197823091051CF0CD
:103D400001978D939C93F2018081882311F081501B
:103D500080830F5F1F4FFFEF4F1A5F0A22E0820E32
:103D6000911C82E0A80EB11CAE81BF811296BF8368
:103D7000AE83B2E0CB0ED11CE2E0EE0EF11CFFEF01
:103D80002F1A3F0A22E0620E711C0632110509F05B
:103D900031CF80911002823009F0FDC08FB1809543
:103DA00030912E0E832790910D0298239095909339
:103DB0000D0220910C022823292720930C0289232D
:103DC0008223282F23239091FE0D922B9093FE0D9A
:103DD000382730932E0E83232091FA0D282B209321
:103DE000FA0D8CB180953091F70D832790910B02DD
:103DF0009823909590930B0220910A02282329275B
:103E000020930A0289238223282F23239091F90DDE
:103E1000922B9093F90D38273093F70D832320913F
:103E2000560E282B2093560E83B180953091050EA7
:103E300083279091090298239095909309022091ED
:103E40000802282329272093080289238223282F68
:103E5000232390915E0E922B90935E0E3827309321
:103E6000050E832320915F0E282B20935F0E80B1D7
:103E700080953091710E8327909107029823909539
:103E800090930702209106022823292720930602F7
:103E900089238223282F232390916E0D922B9093B8
:103EA0006E0D38273093710E83232091060E282B38
:103EB0002093060E86B1809530915A0E83279091FB
:103EC00005029823909590930502209104022823DF
:103ED00029272093040289238223282F23239091CA
:103EE0005D0E922B90935D0E382730935A0E8323EC
:103EF00020916F0D282B20936F0D89B18095309103
:103F0000670D832790910302982390959093030265
:103F10002091020228232927209302028923822349
:103F2000282F23239091FC0D922B9093FC0D382782
:103F30003093670D83232091600E282B2093600E11
:103F400082B380953091350E83279091010298239A
:103F50009095909301022091000228232927209315
:103F6000000289238223282F23239091F80D922B7E
:103F70009093F80D38273093350E83232091660DEA
:103F8000282B2093660D80913D068C30A1F4A098DB
:103F900010923D0615C0E0ECF6E0808191818330FF
:103FA000910518F0019791838083329686E0EA3C70
:103FB000F80799F7F3CE882319F08F5F80933D06B9
:103FC00081E080933F0627960FB6F894DEBF0FBEC0
:103FD000CDBFDF91CF91FF91EF91BF91AF919F91B5
:103FE0008F917F916F915F914F913F912F911F9191
:103FF0000F91FF90EF90DF90CF90BF90AF909F9088
:104000008F907F906F905F904F903F902F900F9088
:104010000BBE0F900FBE0F901F901895F8949091C3
:10402000FA0D892398279093FA0D78940895F894BF
:104030009091FE0D892398279093FE0D7894089512
:10404000F8949091560E892398279093560E789461
:104050000895F8949091F90D892398279093F90D7C
:1040600078940895F89490915F0E892398279093FF
:104070005F0E78940895F89490915E0E89239827A6
:1040800090935E0E78940895F8949091060E89238B
:1040900098279093060E78940895F89490916E0D59
:1040A0008923982790936E0D78940895F8949091B1
:1040B0006F0D8923982790936F0D78940895F89445
:1040C00090915D0E8923982790935D0E78940895C2
:1040D000F8949091600E892398279093600E7894BD
:1040E0000895F8949091FC0D892398279093FC0DE6
:1040F00078940895F8949091660D89239827909369
:10410000660D78940895F8949091F80D8923982776
:104110009093F80D78940895009731F023E52A954F
:10412000F1F700000197F8CF08956AE00E94DB875D
:1041300020E1829F900D1124892F0895982F929548
:104140009F708F702AE0929F800D11240895A6E041
:10415000B0E0EDEAF0E20C94818883E480931302EE
:1041600010923B0644E050E062E070E0CE01019620
:104170000E94358E898191E0980F923030F08093C3
:1041800013028A81805380933B0683E4809312025A
:1041900081E08093110244E050E060E070E0CE01E5
:1041A00001960E94358E898191E0980F923030F00F
:1041B000809312028A8180538093110280911002B1
:1041C000823009F443C081E00E94A21382E00E9481
:1041D000A21380ED0E94D21380E00E94D21383E0EC
:1041E0000E94A21382E00E94A21381ED0E94D213CA
:1041F00080E00E943C14A2DF8093390680E00E9498
:104200003C149CDF8093380680E00E943C1496DFCB
:104210008093370681E00E943C148093360683E049
:104220000E94A213809136068150873068F082E0A8
:1042300080931002109239061092380610923706B9
:1042400081E08093360602C0109210022696E2E0CA
:104250000C949D88CF93DF93C82F83E00E94A21314
:1042600081E00E94A21382E00E94A21388E70E94CC
:10427000D21380E00E94D2138EEA0E94D21385ED01
:104280000E94D21380E80E94D21381E80E94D213C8
:104290008C2F90E0880F991F83559F4F0E944D8E61
:1042A0008F3F09F48FE70E94D2138DE80E94D2134A
:1042B00084E10E94D21381EA0E94D21388EC0E940A
:1042C000D21386EA0E94D21380E20E94D21380E0C9
:1042D0000E94D21381E20E94D21380E00E94D21386
:1042E0008FE70E94D21380E00E94D21382E20E94E4
:1042F000D21380E00E94D21387E00E94D21383E0A1
:104300000E94A21382E00E94A21388E70E94D213A7
:1043100080E40E94D213C0E0D4E080E00E94D21377
:1043200021972097D1F783E00E94A21382E00E9498
:10433000A21388E70E94D21380E00E94D2138FEA72
:104340000E94D21383E00E94A213DF91CF910895BF
:10435000A0E0B0E0EEEAF1E20C947788D82FC62F07
:104360007A01D22E809147078A3008F03FC081E061
:104370000E94A21382E00E94A21388E70E94D21337
:1043800080E00E94D21380E20E94D21381E00E945A
:10439000D21381E20E94D21321E0D21202C080E047
:1043A00001C08D2F0E94D2138FE70E94D21382E2A8
:1043B0000E94D21381E0D81201C0C2E08C2F0E946B
:1043C000D21321E0D21202C083E001C081E08C0F41
:1043D0000E94D21383E00E94A21382E00E94A213E3
:1043E00088E70E94D21380E40E94D213E091CA0DA4
:1043F000F0E0EE0FFF1FE858F24F8081918120918D
:1044000047070A9751F4213041F48AE08093470727
:104410001092450710924407D7C0213031F484EF41
:1044200091E0909345078093440700E010E0C12C91
:104430008C2D90E0F70101900020E9F73197EE19FB
:10444000FF098E179F0708F08EC0F701E80FF91FCC
:104450008081803279F4D11010C080E00E94D213A4
:1044600080E00E94D21380E00E94D21380E00E947C
:10447000D21357C0803208F454C0982F9D0D8FED91
:10448000890F803B10F08FEA890F90E021E0D2166F
:1044900009F47BC0FC01EE0FFF1FE80FF91FEB5A78
:1044A000FA4EC491FC01EE0FFF1FE80FF91FEA5A04
:1044B000FA4EA590B490D0E0CC0FDD1F88248394F1
:1044C000912CE92DF0E0EC17FD0758F5E80DF11DF2
:1044D00087FCFA95EA0DFB1DEB5CF84E84910E9477
:1044E000D21381949394EDCF2091440730914507E6
:1044F000C9010A96C817D90708F05EC0C217D307CA
:1045000008F45AC0EA0DFB1DEB57FF4E84910E9440
:10451000D2132196EC2FE01BF0E0E815F90520F30B
:104520008E0180914407909145079C01265F3F4F83
:104530000217130718F40817190720F4809147078A
:104540008A3078F480E00E94D21380E00E94D21377
:1045500081E0D81206C080E00E94D21380E00E9461
:10456000D213C39465CF809147078A3039F481E034
:104570008093470710924507109244078FEF80936E
:10458000190283E00E94A2131FC0FC01EE0FFF1F5F
:10459000E80FF91FEC5CFF4E8490FC01EE0FFF1F4B
:1045A000E80FF91FEB5CFF4EA590B49024E0829ECB
:1045B00040011124E801AECFC817D90709F0A9CFEF
:1045C000D0934507C0934407CDB7DEB7ECE00C9419
:1045D0009388CF93DF93C82F81E00E94A21382E0DB
:1045E0000E94A21380E80E94D21383E00E94A213CB
:1045F00082E00E94A21380E80E94D213C13011F41D
:1046000083EE01C085EE0E94D21383E00E94A213C4
:104610008AEF90E081DD82E00E94A213C13019F49C
:1046200084EA96E002C08CE291E076DD81E80E94A7
:10463000D21388EC90E070DD80E00E943C14D82F0B
:1046400081E00E943C142D2F30E0322F2227282BAE
:10465000442737FD4095542F2C7F44275527A0E150
:10466000B7E20E9461889C01552737FD5095452F80
:10467000C13049F4A4EAB4E40E946188605D7F4DD2
:104680008A4C924008C0A4EDB0E30E946188605853
:104690007D488B45910920E137E240E050E00E94DF
:1046A0003088CA01B90124E630E040E050E00E94C1
:1046B00030889F938F937F936F935F934F933F9334
:1046C0002F9381EE92E09F938F938BEC9DE09F93CD
:1046D0008F930E94198C83E00E94A2138DB79EB71E
:1046E0000C960FB6F8949EBF0FBE8DBFDF91CF9191
:1046F0000895CF93DF9381E00E94A21382E00E948D
:10470000A21386E40E94D21380E10E94D21383E0B8
:104710000E94A21382E00E94A21387E40E94D21397
:1047200080E00E943C14C82F81E00E943C14D82FE6
:1047300083E00E94A213AD2FB0E0BC2B2AE030E052
:104740000E945B882CE030E040E050E00E9430881E
:104750005F934F933F932F938CEB92E09F938F93B4
:104760008BEC9DE09F938F930E94198C8DB79EB721
:1047700008960FB6F8949EBF0FBE8DBFDF91CF9104
:104780000895ACE0B0E0E7ECF3E20C947788182FE2
:104790009BE0EFEAF2E0DE01119601900D929A950E
:1047A000E1F781E00E94A21382E00E94A2139E0121
:1047B0002F5F3F4F790137E1139FC001112400E0C3
:1047C00010E0FC01E158FB4F5F019C0120583B4F7A
:1047D00049018EEE0E94D213F70181917F010E9460
:1047E000D21383E00E94A21382E00E94A2138FEEF4
:1047F0000E94D21380E00E943C14682F6501C00E15
:10480000D11EC6016C870E94458E6C85861719F0F3
:10481000C6010E945B8E81E00E943C14682F6401F7
:10482000C00ED11EC6016C870E94458E6C8586170E
:1048300019F0C6010E945B8E0E5F1F4F06311105F5
:1048400041F683E00E94A2132C96ECE00C9493882E
:10485000A1E0B0E0EEE2F4E20C947388782E81E0FF
:104860000E94A21382E00E94A2138CEE0E94D21337
:1048700082EF0E94D21382E00E94D21383E00E9452
:10488000A21381E00E94A21382E00E94A2138CEE88
:104890000E94D21384EF0E94D21387E20E94D213A7
:1048A00083E00E94A21381E00E94A21382E00E9492
:1048B000A2138CEE0E94D21388E80E94D21383E0E8
:1048C0000E94A21382E00E94A2138DEE0E94D213D6
:1048D00027E1729EC0011124412C512C612C41E131
:1048E000749E90011124890107511E4FFC01E0586C
:1048F000FB4F5F01A90148515E4F7A01FC01E1586D
:10490000FB4F4F0180E00E943C14682FFBE06F16C4
:1049100061F06501C40CD51CC60169830E94458EF7
:104920006981861761F0C60108C0C80169830E94C9
:10493000458E6981861719F0C8010E945B8E80E060
:104940000E943C14682F2BE0621661F06401C40CD5
:10495000D51CC60169830E94458E6981861761F066
:10496000C60108C0C70169830E94458E6981861708
:1049700019F0C7010E945B8E639432E0430E511C14
:104980004CE06412BFCF80E00E943C1481E00E94A2
:104990003C14182F83E00E94A21381E00E94A2130E
:1049A00082E00E94A2138CEE0E94D21380ED0E943E
:1049B000D21383E00E94A21382E00E94A2138DEE24
:1049C0000E94D21381E00E943C14082F83E00E94D1
:1049D000A213272D30E081E1003609F04FC0829FFD
:1049E0007001839FF00C1124C70186519E4F7C01FA
:1049F0000E94458E811721F0612FC7010E945B8EB6
:104A000081E00E94A21382E00E94A2138CEE0E9419
:104A1000D21381EE0E94D21383E00E94A21382E09F
:104A20000E94A2138DEE0E94D21391E1799E800123
:104A30001124C12CD12C05511E4FE6E0CE1202C02C
:104A400081E001C080E00E943C14682F7801EC0CEA
:104A5000FD1CC70169830E94458E6981861719F084
:104A6000C7010E945B8EFFEFCF1ADF0A27E0C21654
:104A7000D10419F783E00E94A21310C0829F800125
:104A8000839F100D112406511E4FC8010E94458EB0
:104A90008F3F21F06FEFC8010E945B8E2196E0E10D
:104AA0000C948F88AEE1B0E0E8E5F5E20C947188F3
:104AB000082F262E81E00E94A21382E00E94A213FA
:104AC0008EEE0E94D21384EF0E94D2138EE20E94D7
:104AD000D21383E00E94A21382E00E94A21388E016
:104AE0009DE30197F1F700C000008EEE0E94D21303
:104AF00086EF0E94D21383E00E94A21382E00E94FC
:104B0000A2138FEE0E94D21380E00E943C14182F53
:104B100081E00E943C14C82E83E00E94A21397E11A
:104B2000099FB001112461587B4F46E150E0CE014E
:104B300001960E94358E298530E0322F22278A8502
:104B4000282BD12CE12CF12CD12A8B8590E0982FA9
:104B500088274C85842BC81AD90AE108F108A8EEE9
:104B6000B3E00E944C88BFE095958795779567954F
:104B7000BA95D1F7A70196010E94CC8728EE33E0C1
:104B800040E050E00E94308869017A016B8970E052
:104B9000762F66278C89682B882777FD8095982F3C
:104BA0000BE0660F771F881F991F0A95D1F70D89B3
:104BB00010E0102F00272E89022B9801442737FD83
:104BC0004095542F2C0D3D1D4E1D5F1D0E943088B9
:104BD00049015A018C0C9D1CAE1CBF1CA5019401FF
:104BE000285F3F4F4F4F5F4FAAE0B0E00E946188BF
:104BF00020E130E040E050E00E9430882F8B388F79
:104C0000498F5A8F81E00E94A21382E00E94A21372
:104C10008EEE0E94D21384EF0E94D21384E70E948A
:104C2000D21383E00E94A21383ED90E30197F1F782
:104C300000C0000082E00E94A2138EEE0E94D213F8
:104C400086EF0E94D21383E00E94A21382E00E94AA
:104C5000A2138FEE0E94D21380E00E943C14182F02
:104C600080E00E943C14082F81E00E943C14382E02
:104C700083E00E94A21390EA891A9FE0990AA10892
:104C8000B108A5019401C501B4010E94CC8720E0C0
:104C900030E140E050E00E9430882B8F3C8F4D8FF8
:104CA0005E8F898190E0982F88272A81822B2C01A2
:104CB000662457FC6094762C42E0440C551C661C1C
:104CC000771C4A95D1F7AF85B0E0BA2FAA2788891B
:104CD000A82B2B8D3C8D4D8D5E8D0E94618820E030
:104CE00038E040E050E00E94308869017A01AB81F1
:104CF000B0E0BA2FAA278C81A82BA50194010E94AD
:104D00006B8820E038E040E050E00E943088C20E1E
:104D1000D31EE41EF51E4C0C5D1C6E1C7F1C440C47
:104D2000551C661C771C22E0420E511C611C711C34
:104D3000C12ED12CE12CF12C7601DD24CC2410E005
:104D400020E030E0322F212F102F0027C00ED11E7F
:104D5000E21EF31EC30CD11CE11CF11CA7E0F6946B
:104D6000E794D794C794AA95D1F7C301B20124E080
:104D700030E040E050E00E943088C21AD30AE40AD2
:104D8000F50AA8EAB1E6A70196010E9461886B01C5
:104D90007C01CC0CDD1CEE1CFF1C0F8110E0102FE1
:104DA00000278885082BAD81B0E0BA2FAA278E8115
:104DB000A82BA50194010E946B8820E030E240E01E
:104DC00050E00E94308849015A01AD85B0E0BA2F09
:104DD000AA278E85A82B2B8D3C8D4D8D5E8D0E9434
:104DE0006B88412C512C32016394A30192010E94E3
:104DF0003088820E931EA41EB51E82E0880E911C80
:104E0000A11CB11CC501B40124E030E040E050E039
:104E10000E94308830584F4F5F4FD8010E94618800
:104E200020E030E840E050E00E943088C701B60141
:104E30000E940E8849015A01CA01B90120E031E0FF
:104E400040E050E00E943088CA01B9010E94CC873E
:104E50009B01AC01AEEDBBE00E946188A301920111
:104E60000E94308869017A01A3E4B3EEA5019401A0
:104E70000E946D88A30192010E943088C20ED31E49
:104E8000E41EF51E9FECC90E9EE0D91EE11CF11C2C
:104E9000C701B60120E130E040E050E00E943088D8
:104EA000280D391D4A1D5B1DA0E1B7E20E946188F3
:104EB00024E134E340E050E00E943088CA01B901A7
:104EC00022E022122CC0E4E6CE2ED12CE12CF12CD3
:104ED000A70196010E9430889F938F937F936F93D1
:104EE0005F934F933F932F936F89788D898D9A8D20
:104EF000A70196010E9430889F938F937F936F93B1
:104F00005F934F933F932F9380EC92E09F938F9307
:104F10008BEC9DE09F938F930E94198C1FC021E022
:104F2000221204C06F89788D898D9A8D24E630E035
:104F300040E050E00E9430889F938F937F936F935F
:104F40005F934F933F932F9381EE92E09F938F93C4
:104F50008BEC9DE09F938F930E94198C0FB6F89471
:104F6000DEBF0FBECDBF6E96E2E10C948D88A1E34B
:104F7000B0E0EDEBF7E20C947188162FE82EF12CDF
:104F800027E1829FB001112461587B4F46E150E038
:104F9000CE0101960E94358E81E18E9DB0018F9DDC
:104FA000700D112468517E4F4AE050E0CE014796C3
:104FB0000E94358E81E00E94A21382E00E94A2131B
:104FC0008CEE0E94D21382E00E94A21387EF0E940F
:104FD000D21383E00E94A21382E00E94A21388E011
:104FE0009DE30197F1F700C000008DEE0E94D213FF
:104FF00080E00E943C1489A780E00E943C14082FA6
:1050000080E00E943C148DA780E00E943C14882E12
:10501000912CA12CB12C80E00E943C14C82ED12CE4
:10502000E12CF12C898D8F3F11F481E001C080E0EB
:105030000E943C1490E0A0E0B0E0F4E0CC0CDD1C59
:10504000EE1CFF1CFA95D1F72CE0880C991CAA1CC9
:10505000BB1C2A95D1F7C828D928EA28FB2834E0B8
:10506000B695A795979587953A95D1F7C82AD92AE5
:10507000EA2AFB2A898D8F3FA9F080E00E943C1428
:10508000B82E81E00E943C144B2D50E060E070E0AF
:105090008824942EA52EB62E882A8DA29EA2AFA279
:1050A000B8A604C01DA21EA21FA218A683E00E94DB
:1050B000A2139A818981292E312C2101582AC701F6
:1050C000B601A4E09695879577956795AA95D1F74F
:1050D000612C712C64197509860997099B01AC0133
:1050E0000E94CC879B01AC01BCE055954795379554
:1050F0002795BA95D1F7AD81B0E0BA2FAA278E8156
:10510000A82B0E946B884B015C01A701960193E0DC
:1051100056954795379527959A95D1F7440C551C88
:10512000661C771C2419350946095709AB81B0E084
:10513000BA2FAA278C81A82B0E946B889B01AC01F7
:10514000EBE05695479537952795EA95D1F7FEE020
:10515000B594A79497948794FA95D1F7280D391DA3
:105160004A1D5B1D29A33AA34BA35CA329013A0165
:1051700075946794579447943AEF531A61087108ED
:10518000E989FA89C301B201B2E0959587957795CF
:105190006795BA95D1F79B01AC010E94CC876B0152
:1051A0007C018F848EA698889FA6AD84A8AABE8411
:1051B000B9AAAB85B0E0BA2FAA278C85A82BA70186
:1051C00096019DE055954795379527959A95D1F786
:1051D0000E946B884B015C0123E0B594A7949794DF
:1051E00087942A95D1F7A985B0E0BA2FAA278A8596
:1051F000A82BA30192010E946B88959587957795BE
:105200006795860E971EA81EB91E52E1B594A79405
:10521000979487945A95D1F720E8920EA11CB11C5F
:10522000AF81B0E0BA2FAA278885A82BA5019401E9
:105230000E9461884B015C017FE0B694A79497942B
:1052400087947A95D1F781149104A104B10409F4EB
:1052500063C2A7019601ABE0559547953795279511
:10526000AA95D1F7AF2FB0E0BE2B0E946B886B01DF
:105270007C013FA5A32FB0E04EA5B42BA301920162
:105280000E946B88660F771F881F991FC60ED71E56
:10529000E81EF91E82E0F594E794D794C7948A95A6
:1052A000D1F759A9852F90E0A8A99A2BAA2797FD95
:1052B000A095BA2FDC0199278827C80ED91EEA1EAF
:1052C000FB1E3CE0F594E794D794C7943A95D1F748
:1052D000802F90E0A0E0B0E044E0880F991FAA1F63
:1052E000BB1F4A95D1F729A5422F50E060E070E03E
:1052F000ECE0440F551F661F771FEA95D1F7842B0A
:10530000952BA62BB72B3DA5432F50E060E070E016
:10531000F4E07695679557954795FA95D1F7842BE4
:10532000952BA62BB72BC80ED91EEA1EFB1EABEC85
:10533000B3EFA70196010E946D88805B9C4397FDA7
:105340000BC0660F771F881F991FA50194010E944B
:105350000E8849015A010AC0A50194010E940E88D5
:1053600049015A01880C991CAA1CBB1CC501B40137
:10537000F3E09695879577956795FA95D1F72F89FC
:10538000F101F22B9B01AC010E94CC879B01AC0187
:10539000ADE05695479537952795AA95D1F7DF014A
:1053A0000E946B886B017C01BCE0F594E794D79474
:1053B000C794BA95D1F7A501940182E05695479517
:1053C000379527958A95D1F7AD89B0E0BA2FAA27EE
:1053D0008E89A82B0E946B882DE0959587957795EF
:1053E00067952A95D1F7C60ED71EE81EF91E8B8940
:1053F00090E0982F88272C89822BAA2797FDA095CB
:10540000BA2FC80ED91EEA1EFB1E44E0F594E7949D
:10541000D794C7944A95D1F7C80CD91CEA1CFB1C39
:10542000A0E1B7E2A70196010E94618824E134E37C
:1054300040E050E00E940E8829A73AA74BA75CA73E
:10544000E98DEF3F09F4CAC02E8D322F3F708D8D4C
:1054500040E1849FC0011124832BAA2797FDA095CA
:10546000BA2FF4E1880F991FAA1FBB1FFA95D1F735
:10547000C12C30E4D32EE12CF12CC81AD90AEA0A47
:10548000FB0A22952F70AF8D50E1A59FD00111240A
:10549000A22B49A05AA06BA07CA08CE2581A81E0F4
:1054A000680A7108A30192010E946B88C61AD70A84
:1054B000E80AF90A8DA19EA1AFA1B8A56EE0880FF8
:1054C000991FAA1FBB1F6A95D1F7C80ED91EEA1EE5
:1054D000FB1E7FE0F694E794D794C7947A95D1F7B2
:1054E000A8A1B0E00E9461884B015C01FAE0B5948C
:1054F000A79497948794FA95D1F7AC8DB0E00E9469
:105500006188ABE09595879577956795AA95D1F7D2
:1055100070588F4F9F4FA50194010E94CC879B012B
:10552000AC01BAE05595479537952795BA95D1F7CF
:10553000405E5F4FAB8DB0E0BA2FAA278A8DA82BB3
:105540000E946B88705E8F4F9F4F2EE095958795D8
:10555000779567952A95D1F7A70196010E94CC8788
:105560006B017C013FE095958795779567953A9516
:10557000D1F79B01AC010E94CC879B01AC0167E095
:1055800055954795379527956A95D1F7AE2FB0E099
:105590000E946188E4E09595879577956795EA95EF
:1055A000D1F7C61AD70AE80AF90AF7FE03C0C12CD8
:1055B000D12C760191E0C916D104E10499E1F906F4
:1055C0002CF0C12CD12CE12C79E1F72E6CE0F59474
:1055D000E794D794C7946A95D1F703C0C12CD12C16
:1055E0007601A5E0B0E029A13AA14BA15CA10E94FF
:1055F000618860587F4F8F4F9F4F872E982EA92E1E
:10560000BB24A7FCBA94133009F051C044E6442EE1
:10561000512C612C712C69A57AA58BA59CA5A301A1
:1056200092010E940E889F938F937F936F935F9355
:105630004F933F932F93C501B401A30192010E94A0
:1056400030889F938F937F936F935F934F933F9394
:105650002F9380EC92E09F938F930BEC1DE01F93B0
:105660000F930E94198C0FB6F894DEBF0FBECDBF0A
:10567000898D8F3F09F450C0C701B60128EE33E091
:1056800040E050E00E9430889F938F937F936F9308
:105690005F934F933F932F931F930F938AED92E065
:1056A0009F938F931F930F930E94198C30C01130DA
:1056B00039F4C501B40124E630E040E050E008C010
:1056C000123049F4C701B60128EE33E040E050E063
:1056D0000E9430880AC069A57AA58BA59CA524E6FE
:1056E00030E040E050E00E940E889F938F937F93BC
:1056F0006F935F934F933F932F9381EE92E09F932D
:105700008F938BEC9DE09F938F930E94198C0FB623
:10571000F894DEBF0FBECDBFE196E2E10C948D8818
:10572000A4E0B0E0E6E9FBE20C94738881E00E941B
:10573000A21382E00E94A21382E50E94D21380EAA3
:105740000E94D21383E00E94D21383E00E94A2132E
:1057500082E00E94A21382E50E94D21381EA0E9495
:10576000D21380E00E94D21383E00E94A21382E051
:105770000E94A21382E50E94D21384EB0E94D213EE
:1057800083E00E94A21382E00E94A21383E50E949C
:10579000D21380E00E943C14082F80E00E943C1449
:1057A00010E0182B80E00E943C14482E81E00E94FB
:1057B0003C14F82E83E00E94A213512C5F28612C28
:1057C000712CD80120EA36E841E050E00E9461885F
:1057D0006B017C01A301920160EA70E882E090E035
:1057E0000E94CC87C61AD70AE80AF90A45EF842E28
:1057F000912CA12CB12CC701B601A50194010E94E6
:105800000E8829833A834B835C839801A8E7B6EE20
:105810000E944C886B017C01A301920160EF7FE440
:1058200081E090E00E94CC87C61AD70AE80AF90AFC
:10583000C701B601A50194010E940E8889819A8151
:10584000AB81BC81281739074A075B0710F49C011C
:10585000AD01CA01B90124E630E040E050E00E9409
:105860000E889F938F937F936F935F934F933F9394
:105870002F9381EE92E09F938F938BEC9DE09F930B
:105880008F930E94198C0FB6F894DEBF0FBECDBF68
:105890002496E0E10C948F88CF92DF92EF92FF92F2
:1058A000CF93DF9300D01F92CDB7DEB781E00E9487
:1058B000A21382E00E94A21384E90E94D21383E023
:1058C0000E94D21384E00E94A21385E90E94D213A1
:1058D00081E00E943C14F82E84E00E94A21384E927
:1058E0000E94D21384E00E94D21384E00E94A2138B
:1058F00085E90E94D21381E00E943C14E82E83E0E7
:105900000E94A2138E2D90E09F299C0122273F70B8
:10591000442737FD4095542F64E0569547953795B9
:1059200027956A95D1F76C016FE0C622DD24EE243D
:10593000D7FCE094FE2C2C0D3D1D4E1D5F1DAA27AB
:1059400097FDA095BA2F8827907FAA27BB277CE0D8
:10595000B695A795979587957A95D1F704C0220FAC
:10596000331F441F551F8A95D2F7ADE2B0E00E9465
:1059700061882AE030E040E050E00E940E8883E039
:1059800029833A834B835C830E94A21329813A8145
:105990004B815C81CA01B90124E630E040E050E06F
:1059A0000E940E889F938F937F936F935F934F9383
:1059B0003F932F9381EE92E09F938F938BEC9DE02A
:1059C0009F938F930E94198C0FB6F894DEBF0FBE81
:1059D000CDBF0F900F900F900F90DF91CF91FF9060
:1059E000EF90DF90CF900895A8E7B0E0EAEFFCE2F7
:1059F0000C947188989AA09888E10FB6F8948093D7
:105A00006000109260000FBE80E8809361001092E9
:105A1000610080E08A95F1F744E050E06AEF7FE0B2
:105A200080E69DE00E94358E8091600D8F3FB1F041
:105A30008093740280937A028091610D8093750245
:105A400080937B028091620D8093760280937C022A
:105A50008091630D8093770280937D0288E792E0C6
:105A60000E94787D82E00E944C7D80E08A95F1F76B
:105A700066E774E084E10E94967C47E250E06AE9C0
:105A800071E08BEA98E00E94358E47E250E063E7D0
:105A900071E084E898E00E94358E47E250E06CE4C3
:105AA00071E08DE598E00E94358E4EE450E06EEF97
:105AB00070E08FE098E00E94358E47E250E061ECA4
:105AC00071E086EB9CE00E94358E47E250E066E88C
:105AD00070E087E09EE00E94358E4FE050E064E089
