:100000000C9459100C94271C0C94531C0C947F1CBA
:100010000C94AB1C0C94D71C0C94031D0C942F1D3A
:100020000C945B1D0C947A100C947A100C947A103A
:100030000C947A100C947A100C947A100C947A1018
:100040000C947A100C947A100C947A100C947A1008
:100050000C947A100C947A100C94871D0C947A10DE
:100060000C947A100C947A100C947A100C947A10E8
:100070000C947A100C947A100C947A100C947A10D8
:100080000C947A100C947A100C947A100C947A10C8
:100090000C947A100C947A100C947A100C947A10B8
:1000A0000C947A100C947A100C947A100C947A10A8
:1000B0000C947A100C947A100C947A100C947A1098
:1000C0000C947A100C947A100C947A103C2F613EA8
:1000D000004578742D494F002F3F70743D256426EC
:1000E00063663D313E00207C203C6120687265667D
:1000F0003D2F003C2F613E002F53434C002F5344B3
:100100004100493243004453002F4431002F443012
:100110000057323600414443004E4300202D20005A
:10012000290025640028003E50002564002F3F7000
:10013000743D003C62723E3C6120687265663D2FF2
:10014000003C62723E2D2D2D003C62723E2D2D2012
:100150005850352F36202D2D002F3F63663D343EFD
:100160005850323C2F613E3C62723E2D2D20585437
:1001700032202D2D002F3F63663D333E5850313CD9
:100180002F613E3C62723E3C6120687265663D2F85
:10019000002F3F63663D313E436F6E6669673C2FBB
:1001A000613E3C62723E2D2D204D4F4453202D2D3B
:1001B0003C62723E3C6120687265663D2F00293CBE
:1001C00062723E3C6120687265663D2F00342E31BC
:1001D000376234004D656761442D32353631206217
:1001E00079203C6120687265663D687474703A2FAE
:1001F0002F61622D6C6F672E72753E61622D6C6F80
:10020000672E72753C2F613E202866773A200032B7
:10021000202D2D0031202D2D003E4261636B3C2F9F
:10022000613E3C62723E2D2D20506F7274732058D7
:100230005000446F6E65003E002076616C75653D30
:10024000003C696E707574206E616D653D6B6579FB
:10025000004E2F4100383E4C617374206B65793A33
:1002600020003E002076616C75653D003E204163B4
:10027000743A203C696E707574206E616D653D63E3
:10028000726E61002076616C75653D00543A203CC9
:10029000696E707574206E616D653D63726E740079
:1002A0003E003E205344413A203C696E70757420F4
:1002B0006E616D653D637364612076616C75653D4B
:1002C000003C62723E5365742074696D653A203C4F
:1002D000696E707574206E616D653D7374696D65CE
:1002E0003E3C62723E53434C3A203C696E707574DA
:1002F000206E616D653D6373636C2076616C75651E
:100300003D00373E4375722074696D653A200022C6
:100310003E3C62723E737276206C6F6F703A203C86
:10032000696E70757420747970653D636865636B80
:10033000626F78206E616D653D736C2076616C75BF
:10034000653D31004D656761642D49443A203C6943
:100350006E707574206E616D653D6D646964206DAD
:1003600061786C656E6774683D352073697A653DA8
:10037000352076616C75653D2200323E003C62722C
:100380003E557074696D653A200057646F673A2076
:100390003C696E707574206E616D653D707220737E
:1003A000697A653D332076616C75653D00536372F3
:1003B0006970743A203C696E707574206E616D6569
:1003C0003D736374206D61786C656E6774683D3150
:1003D000352076616C75653D22003C62723E00649A
:1003E0006973636F6E6E656374656400636F6E6ED0
:1003F0006563746564003E4D5154543C2F73656CC5
:100400006563743E20003E485454503C6F707469DC
:100410006F6E2076616C75653D31005352562054E5
:100420007970653A203C73656C656374206E616D0C
:10043000653D737276743E3C6F7074696F6E2076A2
:10044000616C75653D300025642E25642E25642E73
:1004500025643A25753E3C62723E003E3C62723E27
:100460005352563A203C696E707574206E616D650A
:100470003D7369702076616C75653D0047573A2081
:100480003C696E707574206E616D653D677720768E
:10049000616C75653D25642E25642E25642E2564CA
:1004A000005077643A203C696E707574206E616DFF
:1004B000653D707764206D61786C656E6774683D2A
:1004C000332076616C75653D220049503A203C69C5
:1004D0006E707574206E616D653D65697020766122
:1004E0006C75653D25642E25642E25642E256400DB
:1004F000313E0063662076616C75653D002F3E00DD
:100500002F3F63663D383E6942204B6579733C2F2F
:10051000613E002F3F63663D373E43726F6E3C2F56
:10052000613E002F3F63663D323E4D656761642D3D
:1005300049443C2F613E002F3F63663D313E436F8F
:100540006E6669673C2F613E003E4261636B3C2FE3
:10055000613E002F3F63663D31003E4261636B3C6C
:100560002F613E3C62723E4D656761442069732095
:1005700072657374617274656400340033002F3FD8
:1005800063663D002A003B003E003C62723E4469C7
:100590007370203C696E707574206E616D653D648A
:1005A0006973702073697A653D322076616C756578
:1005B0003D0026636D643D7363616E3E49324320A6
:1005C0005363616E3C2F613E002F3F70743D003ECF
:1005D000003C62723E494E54203C696E7075742036
:1005E0006E616D653D696E74612073697A653D3336
:1005F0002076616C75653D003E003C62723E427241
:1006000069676874203C696E707574206E616D65F1
:100610003D6873742073697A653D332076616C752B
:10062000653D003E4D435032333058583C2F736582
:100630006C6563743E003E535344313330363C6F37
:100640007074696F6E2076616C75653D3230003E66
:1006500054534C323539313C6F7074696F6E20766B
:10066000616C75653D34003E4248313735303C6F32
:100670007074696F6E2076616C75653D33003E4D18
:10068000415834343030393C6F7074696F6E207665
:10069000616C75653D32003E424D783238303C6FBA
:1006A0007074696F6E2076616C75653D37003E42EF
:1006B0004D503138303C6F7074696F6E2076616CCC
:1006C00075653D36003E4854553231443C6F707478
:1006D000696F6E2076616C75653D35003E414E59FF
:1006E0003C6F7074696F6E2076616C75653D31008A
:1006F0003C62723E446576203C73656C6563742091
:100700006E616D653D643E3C6F7074696F6E2076FE
:10071000616C75653D30003E003C62723E53434C57
:10072000203C696E707574206E616D653D6D6973F6
:10073000632073697A653D332076616C75653D0091
:100740003E53434C3C2F73656C6563743E003E53CF
:1007500044413C6F7074696F6E2076616C75653DC5
:1007600032003E4E433C6F7074696F6E2076616C50
:1007700075653D31003C62723E4D6F6465203C738F
:10078000656C656374206E616D653D6D3E3C6F7098
:1007900074696F6E2076616C75653D30003E003C7B
:1007A00062723E4431203C696E707574206E616DDA
:1007B000653D6D6973632073697A653D33207661A9
:1007C0006C75653D003E44313C2F73656C65637408
:1007D0003E003E44303C6F7074696F6E2076616CF1
:1007E00075653D32003E4E433C6F7074696F6E20FC
:1007F00076616C75653D31003C62723E4D6F64659B
:10080000203C73656C656374206E616D653D6D3E63
:100810003C6F7074696F6E2076616C75653D300059
:1008200026636D643D6C6973743E446576696365E7
:10083000204C6973743C2F613E002F3F70743D0063
:100840003E5732363C2F73656C6563743E003E69DB
:10085000423C6F7074696F6E2076616C75653D36D1
:10086000003E31574255533C6F7074696F6E20766D
:10087000616C75653D34003E31573C6F7074696F33
:100880006E2076616C75653D35003E4448543232C9
:100890003C6F7074696F6E2076616C75653D3300D6
:1008A0003E44485431313C6F7074696F6E207661FC
:1008B0006C75653D32003C62723E53656E203C7340
:1008C000656C656374206E616D653D643E3C6F7060
:1008D00074696F6E2076616C75653D3100206368C8
:1008E00065636B65643E203C696E707574206E6153
:1008F0006D653D6D322073697A653D332076616C9C
:1009000075653D003E486967683C2F73656C65639B
:10091000743E3C62723E536D6F6F7468203C696E2A
:1009200070757420747970653D636865636B626F80
:1009300078206E616D653D6D6973632076616C75BD
:10094000653D31003E4C6F773C6F7074696F6E206F
:1009500076616C75653D32003E4E6F726D3C6F7016
:1009600074696F6E2076616C75653D31003C627212
:100970003E46726571203C73656C656374206E61E0
:100980006D653D66723E3C6F7074696F6E20766176
:100990006C75653D30003E4453323431333C2F7327
:1009A000656C6563743E003C6F7074696F6E207691
:1009B000616C75653D32003E50574D003C6F707460
:1009C000696F6E2076616C75653D31003E5357004E
:1009D0003C62723E4D6F6465203C73656C65637468
:1009E000206E616D653D6D3E3C6F7074696F6E2069
:1009F00076616C75653D30003E313C2F73656C65EA
:100A000063743E003E303C6F7074696F6E20766197
:100A10006C75653D31003C73656C656374206E6177
:100A20006D653D643E3C6F7074696F6E2076616CDD
:100A300075653D30003C696E707574206E616D6542
:100A40003D642073697A653D33206D61786C656E15
:100A50006774683D332076616C75653D003C627259
:100A60003E44656661756C743A20003C62723E5289
:100A70006177203C696E70757420747970653D6390
:100A80006865636B626F78206E616D653D6420768A
:100A9000616C75653D3100203C696E707574207421
:100AA0007970653D636865636B626F78206E616D18
:100AB000653D6D6973632076616C75653D31003EFF
:100AC000433C2F73656C6563743E003E523C6F700F
:100AD00074696F6E2076616C75653D33003E5026FB
:100AE000523C6F7074696F6E2076616C75653D3233
:100AF000003E503C6F7074696F6E2076616C756556
:100B00003D31003C62723E4D6F6465203C73656C04
:100B1000656374206E616D653D6D3E3C6F707469F8
:100B20006F6E2076616C75653D3000223E203C6919
:100B30006E70757420747970653D636865636B626F
:100B40006F78206E616D653D6E61662076616C75B3
:100B5000653D31002F003A25750025642E25642E51
:100B600025642E2564003E3C62723E4E6574203C36
:100B7000696E7075742073697A653D3332206E61D9
:100B80006D653D6574682076616C75653D22002257
:100B90003E203C696E70757420747970653D6368A1
:100BA00065636B626F78206E616D653D616620766E
:100BB000616C75653D31003C62723E416374203C5E
:100BC000696E707574206E616D653D65636D64203E
:100BD00076616C75653D22003E3C62723E487374DE
:100BE000203C696E707574206E616D653D6873742C
:100BF0002076616C75653D003E3C3E3C2F73656C14
:100C00006563743E3C62723E56616C203C696E7056
:100C10007574206E616D653D6D6973632073697ACB
:100C2000653D342076616C75653D003E3C3C6F70DF
:100C300074696F6E2076616C75653D33003E3E3C95
:100C40006F7074696F6E2076616C75653D32003E21
:100C50004E6F726D3C6F7074696F6E2076616C754B
:100C6000653D31004D6F6465203C73656C65637450
:100C7000206E616D653D6D3E3C6F7074696F6E20D6
:100C800076616C75653D30003C2F73656C656374EF
:100C90003E003E414443003C6F7074696F6E2076A5
:100CA000616C75653D32003E493243003E445365F8
:100CB0006E3C6F7074696F6E2076616C75653D3443
:100CC000003E4F75743C6F7074696F6E2076616C76
:100CD00075653D33003E496E3C6F7074696F6E20E0
:100CE00076616C75653D31003E4E433C6F707469B2
:100CF0006F6E2076616C75653D30005479706520AB
:100D00003C73656C656374206E616D653D707479CC
:100D10003E3C6F7074696F6E2076616C75653D3214
:100D2000353500706E2076616C75653D002F3E0094
:100D30003C62723E3C6120687265663D2F25732FD0
:100D40003F70743D2564266578743D25643E5025CA
:100D500064202D200029202D2D003038003137004F
:100D60003C62723E2D2D20506F7274732045787452
:100D700020284D4350323330002F002F0068756D0E
:100D80003A002F0074656D703A003E4F75743C2F29
:100D900073656C6563743E003E496E3C6F707469A8
:100DA0006F6E2076616C75653D31005479706520F9
:100DB0003C73656C656374206E616D653D65747927
:100DC0003E3C6F7074696F6E2076616C75653D3066
:100DD000006578742076616C75653D25643E007011
:100DE000742076616C75653D25643E002F3E003CA5
:100DF0002F613E2000303E003C2F613E2000313EFE
:100E0000003C6120687265663D2F25732F3F70742A
:100E10003D2564266578743D256426636D643D2513
:100E2000646525643A002F4F4E002F4F4646003A26
:100E3000303E4F46463C2F613E3C62723E004200CF
:100E4000410026636D643D002F3F70743D003A31D0
:100E50003E4F4E3C2F613E203C6120687265663DEE
:100E60002F004200410026636D643D002F3F7074E7
:100E70003D00423A2000413A20002F004E412F4EC3
:100E800041002F003E203C696E70757420747970AB
:100E9000653D7375626D69742076616C75653D633F
:100EA00068616E67653E3C2F666F726D3E003E5016
:100EB000574D2028302D323535293A203C696E7047
:100EC0007574206E616D653D70776D2073697A650C
:100ED0003D332076616C75653D0070742076616CE1
:100EE00075653D002F3E003C62723E3C666F726D40
:100EF000207374796C653D646973706C61793A69CB
:100F00006E6C696E6520616374696F6E3D2F003C85
:100F100062723E003C62723E6C75783A003C6272CE
:100F20003E6C75783A003C62723E6C75783A00749B
:100F3000656D703A002F68756D3A0074656D703A92
:100F4000002F003E4261636B3C2F613E3C62723E6B
:100F5000500034003300312670743D002F3F63662B
:100F60003D003B003A006275737900446F6E650086
:100F700026616C6C3D006D6469643D003F0048541F
:100F800054502F312E302034303120556E6175741D
:100F9000686F72697A65640D0A0D0A556E61757421
:100FA000686F72697A65640054727920687474702D
:100FB0003A2F2F69702F707764002F002F002F00B9
:100FC0002F002F002F005025643A200049503A206E
:100FD0002564202E202564202E202564202E202507
:100FE0006400485454502F312E3020323030204F7E
:100FF0004B0D0A436F6E74656E742D547970653AAB
:1010000020746578742F68746D6C0D0A5072616776
:101010006D613A206E6F2D63616368650D0A0D0A7C
:10102000002892A5ACAFA5E0290082EBAAAB008214
:10103000AAAB202020004F4646004F4E00494E00EC
:101040004F555400223E3C62723E003E3C62723E6E
:10105000003C62723E00207C203C61206872656624
:101060003D2F003C6120687265663D2F003E0020E8
:10107000636865636B6564003C696E7075742074A9
:101080007970653D68696464656E206E616D653D6B
:10109000003C62723E3C696E7075742074797065B4
:1010A0003D7375626D69742076616C75653D536141
:1010B00076653E3C2F666F726D3E003C666F726DCA
:1010C00020616374696F6E3D2F002073656C6563EA
:1010D00074656400160000000000000000000000BD
:1010E0000000000000000000000000000000000000
:1010F000000000000016580000000016B0000708AD
:1011000001000000162401167C0116D401162C02E1
:1011100016840216DC02163403168C0316E403163A
:101120003C040F94040000000000000000000000D8
:1011300000000000000000000000000000000000AF
:10114000000000000000000000000000000000009F
:10115000000000000000000000000000000000008F
:10116000000000000000000000000000000000007F
:10117000000000000000000000000000000000006F
:101180000000003E0000003E0000003E0000003E67
:101190000000003E0000003E0000003E0000003E57
:1011A0000000FEFF1F00FEFF1F00FEFF1F00FEFFEE
:1011B0001F00003E0000003E0000003E0000003E18
:1011C0000000003E0000003E0000003E0000003E27
:1011D000000000000000000000000000000000000F
:1011E00000000000000000000000000000000000FF
:1011F000000000000000003E0000003E0000003E35
:101200000000003E0000003E0000003E0000003EE6
:101210000000003E0000003E0000003E0000003ED6
:101220000000003E0000003E0000003E0000000004
:10123000FE000000FE000000FE000000FE000000B6
:10124000FE000000FE000000FE00F0FF0000FEFFB8
:101250000700FFFF0FC0FFFF3FC0FFFF3FE0FFFFA2
:101260007FE0FFFF7FF00F00FFF00300FCF00100C4
:10127000F8F00100F8F00100F8F00100F8F00300C8
:10128000FCF00F00FFE0FFFF7FE0FFFF7FC0FFFFEC
:101290003FC0FFFF3F00FFFF0F00FEFF0700F0FF12
:1012A00000000000000000000000000000001E0020
:1012B000F8001E00F8001E00F8001E00F8001F00D5
:1012C000F8001F00F8C0FFFFFFE0FFFFFFE0FFFF97
:1012D000FFE0FFFFFFE0FFFFFFE0FFFFFFE0FFFF9A
:1012E000FF000000F8000000F8000000F800000017
:1012F000F8000000F8000000F80000000000000006
:10130000F8C00F00F8E00700FCE00700FEE0030073
:10131000FFF00380FFF001C0FFF001C0FFF001E02B
:10132000FFF001F0FFF001FCFBF003FEF9F087FF96
:10133000F8F0FF7FF8E0FF7FF8E0FF3FF8C0FF1F05
:10134000F8C0FF07F880FF03F800FE00F800000077
:10135000F800000000000000000000003FC00F0087
:101360007EE007007EE003007CE00300FCF001006B
:10137000F8F0810FF8F0810FF8F0810FF8F0810F8D
:10138000F8F0810FF8F0C30FFCF0FF1FFEF0FFFF35
:101390007FE0FFFF7FE0FFFD7FC0FFFC3F807FFC21
:1013A0001F001FF80F0000E0030000F0030000F82A
:1013B000030000FE030000FF030080FF0300E0EFD6
:1013C0000300F0E70300F8E10300FEE003007FE024
:1013D00003C01FE003E00FE003E0FFFFFFE0FFFFBB
:1013E000FFE0FFFFFFE0FFFFFFE0FFFFFFE0FFFF89
:1013F000FFE0FFFFFF0000E0030000E0030000E06B
:1014000003000000000000003FE0FF0F7EE0FF0F40
:101410007EE0FF0F7CE0FF07FCE0FF07F8E0FF073E
:10142000F8E0FF07F8E0C307F8E0C307F8E0C307F8
:10143000F8E0C30FFCE0C30FFCE0C31FFEE0C3FFF6
:101440007FE083FF7FE083FF3FE003FF3FE003FF98
:101450001FE003FE0F0000F80300C0FF0000F8FFCC
:101460000700FCFF0F00FFFF1F80FFFF3F80FFFF13
:101470007FC0FFFF7FE09F03FFE0C703FCE0C703DF
:10148000F8F0E303F8F0E103F8F0E103F8F0E10726
:10149000FCF0E10FFEF0E1FF7FF0E1FF7FF0C1FF24
:1014A0003FF0C3FF3FF083FF1F0000FF070000FC79
:1014B0000100000000E0030000E0030080E0030002
:1014C000E0E00300F0E00300FCE00300FFE003C005
:1014D000FFE003F0FFE003F8FFE003FE7FE083FF9F
:1014E0001FE0E3FF0FE0F3FF03E0FFFF00E0FF3F3B
:1014F00000E0FF0F00E0FF0300E0FF0100E07F00DD
:1015000000E01F0000E00700000000C007003EF000
:101510001F80FFF83FC0FFF93FC0FFFD7FE0FFFFE6
:101520007FE0FFFFFFF0FF1FFEF0E307FCF0C10FBD
:10153000F8F0C10FF8F0C10FF8F0811FF8F0831F29
:10154000FCF0FF3FFCE0FFFF7FE0FFFF7FE0FFFEDE
:101550007FC0FFFC3F807FFC1F001FF80F0000E0F2
:101560000700FC010000FF070080FF0FFCC0FF1F09
:10157000FCC0FF1FF8E0FF3FF8E0FF3FF8F0873FB7
:10158000F8F0033FF8F0013EF8F0013EFCF0013EB8
:10159000FCF0011E7EF0031E7FF00FCE7FE0FFFF08
:1015A0003FE0FFFF1FC0FFFF1FC0FFFF0F00FFFF57
:1015B0000300FEFF0000F01F00003E000080FF005F
:1015C00000C0FF0100E0FF0300E0E30300F0C107FB
:1015D00000F0800700F0800700F0800700F0C107EE
:1015E00000E0E30300E0FF0300C0FF010080FF0014
:1015F00000003E0000010000030200080800061879
:10160000000B2400083A00014A00044C0004540076
:10161000055C000766000274000578000182000680
:101620008400069000059C0006A60006B20007BED6
:101630000006CC0006D80006E40006F00006FC0018
:10164000010801020A01070E01071C01072A010512
:1016500038010B4201075801066601077201078035
:1016600001068E01069A0107A60107B40103C20113
:1016700005C80106D20106DE0109EA0107FC0108DE
:101680000A02061A02082602073602074402075217
:1016900002076002076E020B7C0207920207A0029B
:1016A00007AE0203BC0206C20203CE0209D402083E
:1016B000E60202F60206FA02060603061203061EF8
:1016C00003062A03053603064003064C03015803AC
:1016D000045A03056203016C03096E0306800306C6
:1016E0008C0306980306A40304B00305B80304C2E0
:1016F0000306CA0306D60309E20305F40306FE0344
:10170000050A04051404011E04052004082A040621
:101710003A04074604065404066004066C0409787B
:1017200004068A040B960406AC0407B80407C60432
:1017300006D40409E00409F20407040508120507A9
:101740002205063005073C05074A050758050966C6
:10175000050778050886050796050BA4050CBA054C
:1017600009D2050AE40506F8050704060B12060768
:101770002806063606064206064E06055A06076481
:1017800006067206097E06059006069A0606A60655
:1017900006B20607BE0607CC0606DA0606E6060609
:1017A000F20606FE06060A07051607062007092C9C
:1017B00007053E070748070656070962070A740728
:1017C00007880707960705A40706AE0709BA0706A4
:1017D000CC0706D8071BF000780000007802000E46
:1017E0004003C002700E4003C00270004010C011E0
:1017F000207FF8122012200C2000E00110111009A7
:101800001006E001000EC01120111011000E000E94
:10181000E01110111011100AE00C0012001100006C
:10182000780F803060401080088008401030600FD2
:10183000800050002000F80020005001000100014D
:10184000000FE0010001000100400038000100012C
:1018500000010001000100180060001800060001EE
:1018600080006000180FE010101010101010100F02
:10187000E0102010201FF01000100018601410124B
:10188000101210111010E00820101011101110117A
:10189000100EE003000280024002201FF00200024E
:1018A00000080011F01110111011100E100FC010CF
:1018B000A01090109010900F00001000101C10034A
:1018C0001000D000300EE011101110111011100E88
:1018D000E001E01210121012100A1007E018C040C8
:1018E0000038C00200050005000880088010401084
:1018F00040048004800480048004800480048010FC
:10190000401040088008800500050002000020000B
:10191000101B10009000600F80104020204F90504E
:1019200050505050505FD0102010400F80180007CA
:101930000004C0043004C0070018001FF01110118B
:1019400010111011E00E0007C00820101010101028
:1019500010101008201FF010101010101010100898
:101960002007C01FF0111011101110111011101FBD
:10197000F00110011001100110001007C008201024
:10198000101010121012101E201FF0010001000193
:1019900000010001001FF010101FF01010100010C7
:1019A00000101010100FF01FF0010002800440081A
:1019B0002010101FF0100010001000100010001F69
:1019C000F0003000C003000C00030000C000301F16
:1019D000F01FF0003000C00100060018001FF007E3
:1019E000C008201010101010101010082007C01F81
:1019F000F0021002100210021001E007C0082010CF
:101A000010101010103010482047C01FF0021002B4
:101A1000100210051008E0100008E011101110115C
:101A200010111011100E200010001000101FF000F7
:101A3000100010001007F00800100010001000083F
:101A40000007F00070018006001800060001800009
:101A50007000F007001800060001C0003001C00649
:101A6000001800070000F018300440028001000256
:101A700080044018300010006001801E00018000CA
:101A80006000101810141012101110109010501047
:101A9000307FF840084008001800600180060018F8
:101AA000006000400840087FF8010000800040000E
:101AB0002000100020004000800100400040004055
:101AC0000040004000400040004000000800100CB2
:101AD0000012401240124012401F801FF810801068
:101AE00040104010400F800F8010401040104010F8
:101AF0004008800F8010401040104008401FF80F31
:101B00008012401240124012400B8000401FF00033
:101B100048004800080F8090409040904088407FE7
:101B2000C01FF800800040004000401F801FC88098
:101B300000800080407FC81FF80200050008801068
:101B4000401FF81FC00080004000401F8000800040
:101B50004000401F801FC000800040004000401F28
:101B6000800F8010401040104010400F80FFC010C8
:101B7000801040104010400F800F80104010401027
:101B8000400840FFC01FC00080004000401180128C
:101B900040124012400C4000400FF0104010400F27
:101BA000C010001000100008001FC000C00700187F
:101BB000001800070000C000C00700180007000060
:101BC000C007001800070000C018C005000200058B
:101BD0000018C000C0870078001800070000C01877
:101BE0004014401240114010C0010001003EF0407E
:101BF0000840087FF8400840083EF001000100035B
:101C00000000800080010001000200020001801F2E
:101C1000F011141110111011141110180007000404
:101C2000C0043004C0070018001FF011101110117B
:101C30001011100E001FF011101110111011E00EF4
:101C4000001FF000100010001000100010700018AD
:101C500000170010F01010101010101FF070001F6F
:101C6000F0111011101110111011101010081004A3
:101C7000E0030001001FF00100030004E008101061
:101C800010082010101110111011100EE01FF00894
:101C9000000600010000C000201FF01FF00802062F
:101CA00004010400C400221FF01FF001000300041F
:101CB000E008101010100010000FF00010001000CD
:101CC00010001000101FF01FF0003000C003000CC7
:101CD00000030000C000301FF01FF00100010001F0
:101CE00000010001001FF007C008201010101010A4
:101CF000101010082007C01FF00010001000100086
:101D00001000101FF01FF00210021002100210014C
:101D1000E007C0082010101010101010100820004C
:101D200010001000101FF0001000100010103010F4
:101D3000C013000C00030000C00030038004400802
:101D40002008201FF00820082004400380183004D9
:101D500040028001000280044018301FF010001083
:101D6000001000100010001FF0700001F0020002CF
:101D7000000200020002001FF01FF010001000100F
:101D80000010001FF010001000100010001FF01FC6
:101D9000F010001000100010001FF01000100010D4
:101DA0000010001FF070000010001000101FF01154
:101DB000001100110011000E001FF01100110011A0
:101DC00000110011000E00000000001FF01FF011B4
:101DD000001100110011000E000820111011101147
:101DE000101110092007C01FF00100010007C008F2
:101DF000201010101010101010082007C01000093B
:101E0000E006100210021002101FF00C0012401227
:101E100040124012401F800FE01050104810481030
:101E2000480F881FC012401240124012400D801F00
:101E3000C0004000400040004070001C0013C01073
:101E40004010401FC070000F80124012401240121C
:101E5000400B8010400840058002001FC0020005B2
:101E6000800840104008801240124012400D801F30
:101E7000C004000200010000801FC01FC00408024F
:101E800010011000881FC01FC0020002000580085A
:101E9000401040100010000FC00040004000401FE4
:101EA000C01FC0008001000600010000801FC01F8D
:101EB000C002000200020002001FC00F801040108C
:101EC00040104010400F801FC00040004000400004
:101ED000401FC0FFC010801040104010400F800F06
:101EE0008010401040104010400880004000401F0B
:101EF000C00040004000C0870078001800070000C4
:101F0000C00F80104010401040FFF81040104010EB
:101F1000400F8018C005000200050018C01FC01047
:101F2000001000100010001FC0700003C004000467
:101F300000040004001FC01FC01000100010001F8C
:101F4000C01000100010001FC01FC01000100010B3
:101F5000001FC01000100010001FC07000004000E3
:101F6000401FC01100110011000E001FC011001110
:101F70000011000E0000001FC01FC0110011001151
:101F8000000E00088010401240124012400F801FC7
:101F9000C0020002000F8010401040104010400F9F
:101FA0008011800A400640024002401FC00F80128C
:101FB000501240124012500B802F636D64004D513F
:101FC00049736470000D0A436F6E74656E742D540E
:101FD0007970653A206170706C69636174696F6EC5
:101FE0002F782D7777772D666F726D2D75726C65F2
:101FF0006E636F6465640D0A0D0A00436F6E74654D
:102000006E742D4C656E6774683A20000D0A557326
:1020100065722D4167656E743A207467722F312E98
:10202000310D0A4163636570743A202A2F2A0D0A24
:10203000436F6E6E656374696F6E3A20636C6F7385
:10204000650D0A000D0A0020485454502F312E31DE
:102050000D0A486F73743A2000504F535420000DFE
:102060000A557365722D4167656E743A206D656718
:1020700061640D0A4163636570743A207465787415
:102080002F68746D6C0D0A0D0A0020485454502FAF
:10209000312E310D0A486F73743A200047455420A1
:1020A0000000010800060400014500008200004015
:1020B000002011241FBECFEFD1E2DEBFCDBF00E074
:1020C0000CBF16E0A0E0B2E0E0E1FEE201E00BBFF1
:1020D00002C007900D92AA34B107D9F72FE0AAE405
:1020E000B6E001C01D92AB31B207E1F70E94C62DE8
:1020F0000C9406970C9400008FEF809318020895BB
:102100000F931F93CF93DF93EB0140E350E0BC01AB
:102110008AE19EE00E9457936AEB72E08AE19EE0BA
:102120000E94FB921092520E2091520E2430C8F45D
:102130000097B9F08E01020F111D4AE050E060E0F7
:1021400070E00E94B491F80160838091520E8F5F1D
:102150008093520E6AEB72E080E090E00E94FB9266
:10216000E3CF822FDF91CF911F910F9108956130BE
:1021700049F4DA01EAE6F2E08D91819382E0E037FA
:10218000F807D1F70895623049F4DA01E8E3FDE099
:102190008D9181938DE0EE33F807D1F70895E091AA
:1021A000B30DF091B40D908121E030E0082E01C014
:1021B000220F0A94EAF7922B90830895E091AD0DD7
:1021C000F091AE0D208181E090E00090110202C0FC
:1021D000880F991F0A94E2F7282B20830895F8941A
:1021E000E091AD0DF091AE0D908121E030E001C0A5
:1021F000220F8A95EAF7322F309593239083E0914E
:10220000B30DF091B40D8081822B80838BED95E02E
:102210000197F1F700C00000E091B30DF091B40D0B
:10222000808183238083EAEDF0E03197F1F700C0ED
:10223000E091AD0EF091AE0E8081E1E0F5E03197D6
:10224000F1F7789482230895F894E091AD0DF09120
:10225000AE0D408121E030E0062E01C0220F0A942D
:10226000EAF7922F909549234083E091B30DF091C6
:10227000B40D3081322B308329E22A95F1F700C06A
:10228000882339F0E091B30DF091B40D808189235A
:10229000808385EE8A95F1F70000E091B30DF0910F
:1022A000B40D80818923808378940895F894E09117
:1022B000AD0DF091AE0D908121E030E0082E01C00F
:1022C000220F0A94EAF7322F309593239083E091FE
:1022D000B30DF091B40D9081922B908394E09A9578
:1022E000F1F70000E091B30DF091B40D90819323CC
:1022F00090839AE39A95F1F70000E091AD0EF0918A
:10230000AE0E20819BEB9A95F1F700C0789430E0F7
:1023100002C0359527958A95E2F7822F817008953E
:102320001F93CF93DF93D82F162FC9E0C15031F000
:10233000612F8D2F817088DFD695F8CFDF91CF91F7
:102340001F9108951F93CF93DF93182FD9E0C0E01A
:10235000D15049F0812FAADF20E8829FC0011124CB
:10236000C695C82BF5CF8C2FDF91CF911F91089583
:10237000EF92FF920F931F93CF93DF93182FF62EB8
:10238000EA01E22E2CDF811163C0612FF11003C03E
:102390008CECC6DF09C085E5C3DF00E0612F8991C1
:1023A000BFDF0F5F0830D1F7612F8EEBB9DF812FD0
:1023B000C9DFC82F812FC6DFD82FF11012C0812F9F
:1023C0000EDF612F8CECACDF612F84E4A9DFEE2DF2
:1023D000F0E0EE0FFF1FE753F14F2BE930E03183C0
:1023E0002083E091B30DF091B40D908121E030E0B5
:1023F000012E01C0220F0A94EAF7922B9083E091FC
:10240000AD0DF091AE0D9081922B9083EC2FE29563
:10241000EF702D2F277080E1289F90011124E22B6F
:10242000CF7041E752E0C49FC001C59F900D1124B9
:10243000D7FF03C0EF578051974264E670E00E94D7
:10244000D68FCB0124E6E202800D911D112402C03B
:1024500088EC92E3CDB7DEB7E6E00C94749098E098
:102460002CE8362F3827869530FD822766959150C7
:10247000C1F708951F93CF93DF93C82FB0DE6C2F61
:102480008CEC4EDF6C2F85EF4BDF14E08C2F5ADF86
:10249000D82FDF7082958F70482F50E02D2F30E0BD
:1024A000209530952F7033274217530711F410E011
:1024B00003C0115059F71FEF8C2F91DE1F3F09F415
:1024C000DFEF8D2FDF91CF911F910895FF920F9332
:1024D0001F93CF93DF93C82FD62FDC6F14E00D2FFF
:1024E00000958C2F7CDE6C2F8CEC1ADF6C2F8AE52C
:1024F00017DF6C2F8D2F14DF6C2F802F11DF8C2FA7
:1025000021DFF82E8C2F1EDF8AEAF81611F0115009
:1025100041F78C2F64DECDB7DEB7E5E00C94759003
:1025200042EE5FE060E070E08AE399E00C94ED75C4
:10253000DC012C912F3229F5FC01319680E0BF019E
:102540009191903231F09F3221F0BF018F5F863040
:10255000B1F790E0681B790BE1E3FDE0DF010D903E
:102560000020E9F7AD014150510941535D40481742
:10257000590739F4CF010E944993892B11F481E066
:1025800008958FEF08958234A1F4673019F48CE830
:1025900090E01FC0663019F48AE890E01AC06530F8
:1025A00019F488E890E015C06430B9F483EB90E04A
:1025B00010C0853491F4633019F488E990E009C0C3
:1025C000643019F48AE990E004C0653031F48CE994
:1025D00090E090934B0E80934A0E0895863419F440
:1025E00081E390E01DC0853419F48EE290E018C0BC
:1025F000823419F485E290E013C0873419F484E33F
:1026000090E00EC0843419F48BE290E009C081346C
:1026100019F482E290E004C0833431F488E290E05F
:102620009093B10E8093B00E0895863479F481E3CF
:1026300090E09093AE0D8093AD0D80E390E0909389
:10264000B40D8093B30D8FE290E065C0853479F4CA
:102650008EE290E09093AE0D8093AD0D8DE290E010
:102660009093B40D8093B30D8CE290E054C082340B
:1026700079F485E290E09093AE0D8093AD0D84E205
:1026800090E09093B40D8093B30D83E290E043C04B
:10269000873479F484E390E09093AE0D8093AD0D90
:1026A00083E390E09093B40D8093B30D82E390E0C8
:1026B00032C0843479F48BE290E09093AE0D809335
:1026C000AD0D8AE290E09093B40D8093B30D89E252
:1026D00090E021C0813479F482E290E09093AE0DD5
:1026E0008093AD0D81E290E09093B40D8093B30D93
:1026F00080E290E010C0833491F488E290E09093FF
:10270000AE0D8093AD0D87E290E09093B40D809371
:10271000B30D86E290E09093AE0E8093AD0E0895D7
:10272000A1E0B0E0E6E9F3E10C945B90182F862F6E
:1027300049837BDF4981113319F4842F30DD0EC0CA
:10274000E091B30DF091B40D808121E030E001C043
:10275000220F4A95EAF72095282320832196E3E06B
:102760000C947790CF93C82F833038F58091130263
:1027700035DFC13089F4E091B00EF091B10E2081C7
:1027800081E090E00090650602C0880F991F0A94CE
:10279000E2F7282B208328C0C23079F4E091B00EF4
:1027A000F091B10E208181E090E00090650602C0BA
:1027B000880F991F0A94E2F714C0C33011F4FEDCAD
:1027C00013C0C43089F4E091AD0DF091AE0D2081BD
:1027D00081E090E00090110202C0880F991F0A94D6
:1027E000E2F7809582238083CF910895CF93C82FFD
:1027F000809112021ADFC13079F4C0916506809190
:10280000130213DF8C2FCBDCC091110280911202D6
:102810000CDF8C2FC4DC15C0C23061F0C43079F4F9
:10282000C09111028091120200DF8C2FB8DCC6DC4F
:1028300081E098DF84E096DF82E094DF05C084E0E9
:1028400091DF81E08FDFBADCCF910895EF92FF92A4
:102850000F931F93CF93DF93E82E80911202E5DE52
:10286000C7E0D0E0F12C01E010E022E32A95F1F777
:10287000E091AD0DF091AE0D8091110297010C2EFB
:1028800002C0359527950A94E2F720FF0AC02081FF
:10289000A80102C0440F551F8A95E2F7242B20831C
:1028A0000BC02081A80102C0440F551F8A95E2F792
:1028B000CA0180958223808381E054DF82E052DF69
:1028C00084E050DF219788F6409111026091120256
:1028D00080E326DF81E046DFE091AD0EF091AE0EA1
:1028E000808190E00090110202C0959587950A942E
:1028F000E2F78170992721E08227C82FC17082E01A
:1029000031DF84E02FDFD0911102809112028DDE41
:102910008D2F45DC8C2FCDB7DEB7E6E00C9474909C
:10292000EF92FF920F931F93CF93DF93E82E409186
:1029300011026091120280E3F3DE8091120275DED3
:1029400082E010DFC7E0D0E0F12C01E010E081E090
:1029500009DFE091AD0EF091AE0E208130E00090E5
:10296000110202C0359527950A94E2F720FD09C0AF
:1029700098010C2E01C0220F0A94EAF72095F2224A
:1029800007C098010C2E01C0220F0A94EAF7F22A20
:1029900082E0E8DE2197D8F6C09111028091120200
:1029A00044DE8C2FFCDB81E0DDDE81E0E81202C03A
:1029B00005DC02C084E0D6DE82E0D4DE4091110264
:1029C0006091120280E3ACDE8F2DCDB7DEB7E6E07A
:1029D0000C947490A1E2B0E0E0EFF4E10C944C9020
:1029E0008C016A8F4C8F522E86E496E4A0E08E878D
:1029F0009F87A88B8B879C87AD871092520E23E010
:102A00002D8B712C612C22242394312C862F90E065
:102A1000AC01440F551F405F574F5F8B4E8B9C019D
:102A20002059394F398F288F5E8F4D8FAE014F5F00
:102A30005F4F5A8B498B9C012650374F38A32F8FFD
:102A40002091520E822E912CF80101900020E9F77E
:102A50003197E01BF10B8E169F0608F0A4C4800E80
:102A6000911ED4013C913A3039F486E48E878F87E9
:102A70001F82712C612C87C43A3321F4B3E07B129E
:102A800070C437C03B3309F46FC4303709F46EC4E7
:102A9000313609F46EC4353609F46EC4313409F4A4
:102AA0006EC4323409F46DC43C3709F47CC43B3243
:102AB00009F46FC43E3709F46CC43D3209F46CC4A8
:102AC000711007C08E85863411F03F875CC43E8745
:102AD0005AC4E7E07E1207C08B85863411F03C872C
:102AE00052C43B8750C4F1E07F1649F044E07416AD
:102AF00031F08BEF870D823008F01FC30CC05A8D68
:102B0000543649F0AF8DB8A18C91811104C0EE8983
:102B1000FF89118210828F85863409F41F86CE01C9
:102B20000E960E94C5928B8FC82EDD24C7FCD094D0
:102B30007601EE0CFF1CF701E65EFD4F808191816E
:102B4000DC014D90CD010E94C5925C01F4018081B1
:102B50008E3761F4F701E950F94F80819181029736
:102B600019F466E0762E02C055E0752E6A2D842D8C
:102B70000ADD842D5ADD8091520E4801880E911C89
:102B8000D4012C91A6014354584F5C8B4B8B2E35AE
:102B900031F4DA018C9181110CC081E008C0263734
:102BA00061F4AB89BC898C91811103C082E08C9364
:102BB0009EC2EB89FC8910829AC2283781F4AB89C6
:102BC000BC891C9286E48E878F87F701E356F94F04
:102BD00011821082F601E059F94F10828EC2EB8902
:102BE000FC891082F601E455F74F9081913009F08D
:102BF000F1C0F601E650F74F9081913009F031C1F4
:102C00008F5F90E0F80101900020E9F73197E01B19
:102C1000F10B8E179F0740F4F801E80FF91F808130
:102C20008A53823008F0CAC0862D90E0E7E0F0E0D9
:102C3000EC0FFD1FE80FF91F2083FE01E80FF91FBD
:102C40001086F2E44F1619F025E44212B1C0CE010D
:102C500007960E94C592F701E05FF74F918380834A
:102C600034E073120AC0A0914A0EB0914B0E8D91C0
:102C70009C91892B11F011821082C70182509F4FC5
:102C80000E942896F701E25AF74F9183808344E02F
:102C9000471508F07CC0AE89BF898D919C91009743
:102CA00071F5E88DF98D8081811159C0E0914A0E4E
:102CB000F0914B0E80819181892B21F0D4018C9170
:102CC0008E3719F0B5E07B1641F011821082F701C2
:102CD000E950F94F318220826BC0D601A059B94F1B
:102CE0008C91811102C08FEF8C938C9190E0918335
:102CF000808382E090E0F701E950F94F57C00197D7
:102D000009F041C0E0914A0EF0914B0E25E072129D
:102D100009C0808191818F3F910580F480819181EC
:102D200001960AC036E0731209C080819181892B17
:102D300029F08081918101979183808381E0A88D22
:102D4000B98D8C9383E090E0AD8DBE8D8D939C9377
:102D500080819181F601E059F94F808329C081304B
:102D600091F4F701E950F94F80819181029728F49D
:102D700082E090E09183808302C031822082E88DDE
:102D8000F98D108215C0A88DB98D1C9211C00097C5
:102D900051F4E0914A0EF0914B0ED701A05FB74F6E
:102DA0008D919C9103C0F701E953F24F9183808389
:102DB00086E48E878F871F82612C9FC12A3209F497
:102DC0009AC1E7E0F0E0EC0FFD1FE60DF11D208356
:102DD000639493C1923009F044C03D89333009F4C3
:102DE00040C08A2D47DB682F66956B7F8091520E1D
:102DF000F801E80FF11D8081813351F0833321F414
:102E000041E054121DC004C0843361F451101BC052
:102E1000C1010D8802C0880F991F0A94E2F78095BE
:102E200068231CC0823349F491010D8802C0220F2F
:102E3000331F0A94E2F7622711C0803339F00EC0C5
:102E4000552021F00BC051E0551208C091010D88AA
:102E500002C0220F331F0A94E2F7622B8A2D36DB61
:102E600046C1F601E650F74F8081843009F0F4C086
:102E7000F601ED52F74F8081843109F07BC0CE011D
:102E80000B960E94C5924C0140921202A092110230
:102E9000F701E25AF74F0190F081E02DEE0FFF1F8E
:102EA000E65EFD4F80819181DC012D91CD01209363
:102EB00013020E94C5928093650681E097DC82E050
:102EC00095DC80E4C3DCF601EA56F84F808181305E
:102ED00041F4B7E0B81528F489E1B8DC38E0D32E26
:102EE00003C089E0B3DCD12C83E080DC82E07EDCAF
:102EF00081E4ACDC81E014DDC82E83E077DC8091D6
:102F0000520EF801E80FF11D208199248D2D90E0DB
:102F1000881A990A213349F4F10102C0EE0FFF1F0C
:102F20008A94E2F74F018C2814C0223349F49101AE
:102F300002C0220F331F8A94E2F749018C2409C092
:102F4000A10102C0440F551F8A94E2F74A01809400
:102F50008C2081E04BDC82E049DC80E477DCDD2002
:102F600011F089E101C089E071DC882D6FDC83E01C
:102F70003DDCBDC0843009F06FC05B8D563259F422
:102F800083E480931302109265068093120281E01D
:102F90008093110219C040921202A0921102F7010F
:102FA000E25AF74F0190F081E02DEE0FFF1FE65E31
:102FB000FD4F80819181DC012D91CD012093130281
:102FC0000E94C5928093650681E010DC82E00EDCF1
:102FD0002091520EFE01379680E090E0A801420F4A
:102FE000511D9A01482FD901A80FB91F5C915B337D
:102FF00041F0552331F0519301968330910591F7BB
:1030000043E0E7E0F0E0EC0FFD1FE40FF11D10825C
:10301000CE0107960E94C5926C01982F88E799A36C
:1030200015DC80E013DC99A1913011F48FEA09C01E
:10303000911102C08EEA05C09F3F21F081E806DCB5
:103040008C2D04DC82E0D2DB81E080937407109247
:103050007207109271074BC0213351F0233321F4D2
:1030600051E0551216C004C0243381F4511014C02D
:10307000E091AD0DF091AE0D8081D10102C0AA0F9B
:10308000BB1FAA94E2F75D018A2B28C02033B9F454
:1030900006C0552021F023C0B1E05B1220C0E091B2
:1030A000AD0DF091AE0D8081910102C0220F331F52
:1030B000AA94E2F75901A094A822A08210C022335A
:1030C00071F4E091AD0DF091AE0D8081A10102C0CF
:1030D000440F551FAA94E2F75A0184278083F60112
:1030E000E45AF14F8081843610F48C59808386E451
:1030F0008E878F8702C094E0792EAB89BC898C9132
:1031000018160CF040C12091520EF801E20FF11D8B
:10311000818190ED980FF701E05FF74F9A3050F4FE
:10312000992787FD9095C097918380832F5F209387
:10313000520E29C11182108226C1B2E07B124CC00E
:10314000862D90E0E1E0F0E0EC0FFD1FE80FF91FA5
:103150003083FE01E80FF91F1282639481E0820F31
:1031600090E0F80101900020E9F73197E01BF10BA6
:103170008E179F0740F4F801E80FF91F80818A53EA
:10318000823008F000C182E0F82EF20E3C8DF30E82
:1031900046E14F1508F4F7C05A8D052F10E0CE0117
:1031A00001960E94C592F801EE0FFF1FE356F94FFA
:1031B00034E1DC013A9FC0013B9F900D11249183C3
:1031C0008083F801E059F94FF08285E0E989FA89B6
:1031D00011928A95E9F7E7C0F3E07F12D4C02F5F20
:1031E0002093520EEAE1AE2EE2E0BE2E2AEF38E046
:1031F0003C8B2B8BFCE5CF2EFEE0DF2EACEA8A2E3B
:10320000A8E09A2ED5018D919D915D01FC01419020
:10321000CF010E94C5927C01842D07DAAB89BC895D
:103220008D91BC8BAB8B813009F08EC0F401808115
:103230008230E1F48091520EF801E80FF11D808197
:10324000813309F4ACC0803309F4ABC0823309F098
:103250007BC08E2D0FD9682F66956B7FF3E06F27AB
:10326000643008F071C08E2D31D96EC0813071F597
:103270006E2D842D88D98091520EF801E80FF11D32
:103280008081803329F4E0914A0EF0914B0E16C0F4
:10329000813349F4E0914A0EF0914B0E2FEF30E06C
:1032A0003183208351C0823309F04EC0E0914A0E31
:1032B000F0914B0E80819181892B19F0118210823F
:1032C00043C04FEF50E0518340833EC08091520E87
:1032D000F801E80FF11D8081813371F4E091AD0DAB
:1032E000F091AE0D8081D10102C0AA0FBB1FEA94FC
:1032F000E2F77D018A2B21C0803381F4E091AD0D8E
:10330000F091AE0D8081910102C0220F331FEA942B
:10331000E2F77901E094E822E08210C0823371F490
:10332000E091AD0DF091AE0D8081A10102C0440F7E
:10333000551FEA94E2F77A0184278083D6018C91A5
:10334000843610F48C598C93BFEFCB1ADB0AEFEF65
:103350008E1A9E0AF6E6AF16F2E0BF0609F052CFCB
:1033600012C0772473940FC0712C0DC072E0772EB9
:103370000AC063E0762E07C057E0752E04C01D8A90
:1033800002C021E02D8B8091520E8F5F8093520EF0
:1033900057CB45E0742EADCB96E0792EAACB60E0FA
:1033A00062CF63E060CFA196E2E10C946890AFE158
:1033B000B0E0EDEDF9E10C945690322F273240F455
:1033C000E22FF0E0EE0FFF1FE950F94F118210825B
:1033D000DE0111967D015E96F7011192EA17FB0757
:1033E000E1F7032F10E0F801E650F74F208123307A
:1033F00031F4F801ED52F74FE081E43011F037324B
:1034000010F0EFEF01C0E1E0E0931802F801EB5F8C
:10341000F24FE081E1FF05C0883C910509F0A7C0AB
:10342000A9C0883C910509F059C0665C764FFB0144
:10343000D12CC12CDF01A61BB70BCA014D3D510594
:1034400010F08CED90E0A817B90718F581918D3038
:1034500011F08A3041F4B2E0DB1641F080818A300D
:1034600049F7D394E7CF92E0D91211C08F3E49F0CB
:10347000982F9B7F9B3B29F0D701AC0DB11D8C93FE
:10348000C394ACE1AC1528F0A2E0DA2ED3CFD12C56
:10349000D1CFF701EC0DF11D108289818823F1F065
:1034A0008A818436D9F0F70101900020E9F731973D
:1034B000D701AE17BF0761F08D918037D1F7B70103
:1034C00085E797E00E94429323E040E06CE203C06E
:1034D00023E040E064E6C7017DDA4CC0F801E45522
:1034E000F74F8081811107C0F801EC51F84F8081BE
:1034F0008F3F61F410C0823039F4F801EC51F84F7D
:1035000080818E3F19F407C0813029F0211103C05A
:103510008A81843679F5373268F581E0F801E35421
:10352000F84F808380E3EAE1FEE0DF011D928A9597
:10353000E9F727E1209FB001219F700D11246C5005
:103540007B4F47E150E0CF013F8F0E941096809162
:103550001A0E8F5F3F8D823050F0F801EC51F84F1A
:1035600020812E5F40E0632F8AE19EE033DA82E023
:10357000809318026F96E8E00C947290A1E0B0E09E
:10358000E4ECFAE10C945290482F082F10E0B801B7
:103590006455774F7B01DB018C914801880C991CA5
:1035A000813099F54E3118F089E290E002C08CE24A
:1035B00090E09093AE0E8093AD0EF401E65EFD4F69
:1035C0008081918101960E94C59280936806F401E2
:1035D000E25AF74FC080D180F601EE0FFF1FE65E82
:1035E000FD4F8081918101960E94C592B82EBEE167
:1035F000CB16D1041CF089E290E002C08CE290E08E
:103600009093590E8093580E39C0F401E65EFD4F39
:1036100080819181019649830E94C592B82E49818B
:103620004E3138F089E290E09093590E8093580E15
:1036300006C02CE230E03093590E2093580EF4016E
:10364000E25AF74F0190F081E02DEE0FFF1FE65E8A
:10365000FD4FC080D180C60101960E94C592809323
:103660006806F6018081843419F429E230E002C052
:103670002CE230E03093AE0E2093AD0E1092B70DD9
:103680001092B80D1092B90D1092BA0D1092BB0D98
:103690001092BC0D21E030E002C0220F331FBA941B
:1036A000E2F7B12CC12C78E0D72E40E050E0B0E03A
:1036B00081E090E0F4E0FA95F1F700004F5F5F4F92
:1036C000483765E0560779F4BA3108F089C0BB0C79
:1036D000BB0CBB0C8091B70D829586958770B82A7C
:1036E000B092B70D7DC0E091AD0EF091AE0E60814D
:1036F000A091680670E00A2E02C0759567950A943D
:10370000E2F760FD1EC0AA24A394AB0EB150B831FD
:1037100008F4DA94AC0102C0440F551FAA95E2F7F1
:10372000DA0164EC79E0408150E04A235B23452BC9
:1037300009F04BC06150710961157105A1F781E075
:1037400082C0E091580EF091590E608170E06223C2
:103750007323672BE9F5AA24A394AB0EB1504C2D2B
:1037600050E0B83180F46FEF6D0DDC0102C0AA0F9C
:10377000BB1F6A95E2F7BD01DA01A954B24F7C91F3
:10378000762B7C93DA94DA01A654B24F4FEF4D0DAD
:10379000BC0102C0660F771F4A95E2F7AB015C914E
:1037A000542B5C9371E0A71202C0BB24B39464EC69
:1037B00079E0408150E042235323452B31F461509E
:1037C000710961157105A9F7BACFBA2D40E050E033
:1037D000D11003C0C39468E0D62EBA3208F46ACF81
:1037E0008BEE8B0F853068F48091BA0D8093B70D06
:1037F0008091BB0D8093B80D8091BC0D8093B90D65
:103800000AC0B43030F48091B70D86958093B70D1F
:1038100004C0B53010F083E001C081E08093BA0DA0
:10382000D7018C91813021F4F801EC51F84F09C097
:10383000F401E25AF74F0190F081E02DEC51F84F7E
:1038400081E0808380E02196ECE00C946E901F92E2
:103850000F920FB60F9211240BB60F922F933F9336
:103860004F935F936F937F938F939F93AF93BF9388
:10387000EF93FF93F8948EE181DE8111E8987894BC
:10388000FF91EF91BF91AF919F918F917F916F9138
:103890005F914F913F912F910F900BBE0F900FBEF4
:1038A0000F901F9018951F920F920FB60F92112430
:1038B0000BB60F922F933F934F935F936F937F932A
:1038C0008F939F93AF93BF93EF93FF93F8948FE100
:1038D00055DE8111E9987894FF91EF91BF91AF91F6
:1038E0009F918F917F916F915F914F913F912F9118
:1038F0000F900BBE0F900FBE0F901F9018951F9248
:103900000F920FB60F9211240BB60F922F933F9385
:103910004F935F936F937F938F939F93AF93BF93D7
:10392000EF93FF93F89480E229DE8111EA9878946E
:10393000FF91EF91BF91AF919F918F917F916F9187
:103940005F914F913F912F910F900BBE0F900FBE43
:103950000F901F9018951F920F920FB60F9211247F
:103960000BB60F922F933F934F935F936F937F9379
:103970008F939F93AF93BF93EF93FF93F89481E25C
:10398000FDDD8111EB987894FF91EF91BF91AF919C
:103990009F918F917F916F915F914F913F912F9167
:1039A0000F900BBE0F900FBE0F901F9018951F9297
:1039B0000F920FB60F9211240BB60F922F933F93D5
:1039C0004F935F936F937F938F939F93AF93BF9327
:1039D000EF93FF93F8948BE1D1DD8111EC9878940B
:1039E000FF91EF91BF91AF919F918F917F916F91D7
:1039F0005F914F913F912F910F900BBE0F900FBE93
:103A00000F901F9018951F920F920FB60F921124CE
:103A10000BB60F922F933F934F935F936F937F93C8
:103A20008F939F93AF93BF93EF93FF93F89489E1A4
:103A3000A5DD8111ED987894FF91EF91BF91AF9141
:103A40009F918F917F916F915F914F913F912F91B6
:103A50000F900BBE0F900FBE0F901F9018951F92E6
:103A60000F920FB60F9211240BB60F922F933F9324
:103A70004F935F936F937F938F939F93AF93BF9376
:103A8000EF93FF93F89487E179DD8111EE987894B4
:103A9000FF91EF91BF91AF919F918F917F916F9126
:103AA0005F914F913F912F910F900BBE0F900FBEE2
:103AB0000F901F9018951F920F920FB60F9211241E
:103AC0000BB60F922F933F934F935F936F937F9318
:103AD0008F939F93AF93BF93EF93FF93F89486E1F7
:103AE0004DDD8111EF987894FF91EF91BF91AF91E7
:103AF0009F918F917F916F915F914F913F912F9106
:103B00000F900BBE0F900FBE0F901F9018951F9235
:103B10000F920FB60F9211240BB60F922F923F9275
:103B20004F925F926F927F928F929F92AF92BF92CD
:103B3000CF92DF92EF92FF920F931F932F933F93B9
:103B40004F935F936F937F938F939F93AF93BF93A5
:103B5000EF93FF93CF93DF93CDB7DEB72797DEBF09
:103B6000CDBF809164068F5F80936406883C09F026
:103B70004BC010926406809163068F5F809363064A
:103B800090916206923111F09A3251F48E3141F4E3
:103B9000809110028230C1F181E08093100234C024
:103BA0008C3391F51092630631E0390F3093620641
:103BB00080914C0690914D06A0914E06B0914F0613
:103BC0000196A11DB11D80934C0690934D06A093C4
:103BD0004E06B0934F0621E0209350063C33A1F4EB
:103BE00010926206809161068F5F80936106883132
:103BF00059F410926106809160068F5F8093600691
:103C0000883011F42093600680914507813099F443
:103C10008091140290911502A0911602B0911702A2
:103C20000196A11DB11D8093140290931502A093DB
:103C30001602B093170280910B0890910C08A09186
:103C40000D08B0910E0883309105A105B10558F01B
:103C50000197A109B10980930B0890930C08A093D8
:103C60000D08B0930E0880912D0D90912E0D82308D
:103C7000910528F0019790932E0D80932D0D809142
:103C8000300D8F3F69F080916E0690916F06813103
:103C900027E2920728F0019790936F0680936E06B3
:103CA0008AEF98E09A83898329EC422E2EE0522EE7
:103CB0003EE5832E38E0932E47ECA42E4DE0B42E43
:103CC00000E118E05DE9C52E56E0D52E67EFE62E3F
:103CD00066E0F62E75E0272E7DE0372EEAE16E2EA7
:103CE000E2E07E2E1F821E827FEFA981BA812D9194
:103CF000BA83A983213009F057C0EE81FF81E455D2
:103D0000F74F8081813009F099C0F4018081918161
:103D1000181619060CF092C0D5018D919C91009750
:103D200009F48CC0EE81FF81E354F84F208121110A
:103D300085C081309105A9F5F30120813181C90148
:103D400001962B833C837D830E94C592682F2B8133
:103D50003C81D9018C910E94C312E0914A0EF091EE
:103D60004B0E80819181682FD8014D915C919C010F
:103D700033277D812417350714F461E004C042170E
:103D800053071CF46FEF680F03C0D4011D921C92FF
:103D9000862F90E091838083F40180819181D50109
:103DA0004BC00197F5013BC0D7018D919C911197B4
:103DB0000097D9F001978D939C93009751F4F101EE
:103DC000308131FD06C0E1E0F0E0D601ED93FC93D7
:103DD0000CC0D1013C9131FF08C0803A910528F414
:103DE00070936A02F70111821082D6018D919C9125
:103DF00011978330910518F001978D939C93233090
:103E000089F4EE81FF81ED52F74F80818430B1F467
:103E1000F801808191811816190684F40197918325
:103E200080830CC021110AC0D8018D919C911197FB
:103E3000823091051CF001978D939C93F201808153
:103E40009181009759F0EE81FF81EA56F84F208169
:103E5000233021F00197D2018D939C93EE81FF8155
:103E60003196FF83EE83F2E04F0E511C22E0820E6A
:103E7000911C82E0A80EB11C0E5F1F4F92E0C90E8C
:103E8000D11CA2E0EA0EF11CBFEF2B1A3B0AE2E0C4
:103E90006E0E711C8E819F81869709F026CF8091CE
:103EA0001002823069F48091F5069091F606833015
:103EB0009105B0F001979093F6068093F50610C037
:103EC000EBEEF6E0808191818330910518F0019747
:103ED00091838083329696E0E53FF90799F7E3CF27
:103EE0008FB180953091830E832790910D02982396
:103EF000909590930D0220910C022823292720935E
:103F00000C0289238223282F23239091530E922B76
:103F10009093530E38273093830E832320914F0EB6
:103F2000282B20934F0E8CB1809530914C0E832717
:103F300090910B029823909590930B0220910A0286
:103F40002823292720930A0289238223282F232329
:103F500090914E0E922B90934E0E382730934C0E2C
:103F600083232091AB0E282B2093AB0E83B1809539
:103F700030915A0E8327909109029823909590933F
:103F80000902209108022823292720930802892367
:103F90008223282F23239091B30E922B9093B30E5C
:103FA000382730935A0E83232091B40E282B209368
:103FB000B40E80B180953091C60E83279091070290
:103FC0009823909590930702209106022823292791
:103FD0002093060289238223282F23239091BD0D4D
:103FE000922B9093BD0D38273093C60E83232091DA
:103FF0005B0E282B20935B0E86B180953091AF0E1F
:104000008327909105029823909590930502209123
:104010000402282329272093040289238223282F9E
:1040200023239091B20E922B9093B20E38273093A7
:10403000AF0E83232091BE0D282B2093BE0D89B196
:1040400080953091B60D8327909103029823909527
:104050009093030220910202282329272093020231
:1040600089238223282F23239091510E922B909302
:10407000510E38273093B60D83232091B50E282B8F
:104080002093B50E82B3809530918A0E832790914C
:104090000102982390959093010220910002282319
:1040A00029272093000289238223282F23239091FC
:1040B0004D0E922B90934D0E382730938A0E83230A
:1040C0002091B50D282B2093B50D809167068C307B
:1040D00021F4A0981092670605C0882319F08F5F1D
:1040E0008093670681E08093690627960FB6F8945F
:1040F000DEBF0FBECDBFDF91CF91FF91EF91BF919A
:10410000AF919F918F917F916F915F914F913F916F
:104110002F911F910F91FF90EF90DF90CF90BF9064
:10412000AF909F908F907F906F905F904F903F9057
:104130002F900F900BBE0F900FBE0F901F901895F1
:10414000F89490914F0E8923982790934F0E78946E
:104150000895F8949091530E892398279093530EC5
:1041600078940895F8949091AB0E892398279093B2
:10417000AB0E78940895F89490914E0E8923982769
:1041800090934E0E78940895F8949091B40E8923EC
:1041900098279093B40E78940895F8949091B30E64
:1041A000892398279093B30E78940895F89490916A
:1041B0005B0E8923982790935B0E78940895F8946A
:1041C0009091BD0D892398279093BD0D7894089503
:1041D000F8949091BE0D892398279093BE0D789402
:1041E0000895F8949091B20E892398279093B20E77
:1041F00078940895F8949091B50E89239827909318
:10420000B50E78940895F8949091510E89239827CB
:104210009093510E78940895F8949091B50D892358
:1042200098279093B50D78940895F89490914D0E39
:104230008923982790934D0E78940895009731F034
:1042400023E52A95F1F700000197F8CF08956AE079
:104250000E94B68F20E1829F900D1124892F08952E
:10426000982F92959F708F702AE0929F800D112455
:104270000895A6E0B0E0EFE3F1E20C945C9083E4F3
:10428000809313021092650644E050E062E070E013
:10429000CE0101960E941096898191E0980F92308C
:1042A00030F0809313028A8180538093650683E403
:1042B0008093120281E08093110244E050E060E0BC
:1042C00070E0CE0101960E941096898191E0980FCE
:1042D000923030F0809312028A81805380931102D1
:1042E00080911002823009F443C081E00E94F613ED
:1042F00082E00E94F61380ED0E94261480E00E9466
:10430000261483E00E94F61382E00E94F61381EDEA
:104310000E94261480E00E949014A2DF809363061E
:1043200080E00E9490149CDF8093620680E00E94EF
:10433000901496DF8093610681E00E949014809330
:10434000600683E00E94F6138091600681508730FA
:1043500068F082E080931002109263061092620669
:104360001092610681E08093600602C010921002F4
:104370002696E2E00C947890CF93DF93C82F83E0E9
:104380000E94F61381E00E94F61382E00E94F61369
:1043900088E70E94261480E00E9426148EEA0E947C
:1043A000261485ED0E94261480E80E94261481E8D8
:1043B0000E9426148C2F90E0880F991F83559F4FE1
:1043C0000E9428968F3F09F48FE70E9426148DE8FB
:1043D0000E94261484E10E94261481EA0E94261479
:1043E00088EC0E94261486EA0E94261480E20E942D
:1043F000261480E00E94261481E20E94261480E0A8
:104400000E9426148FE70E94261480E00E94261442
:1044100082E20E94261480E00E94261487E00E9417
:10442000261483E00E94F61382E00E94F61388E7C8
:104430000E94261480E40E942614C0E0D4E080E0AC
:104440000E94261421972097D1F783E00E94F6134B
:1044500082E00E94F61388E70E94261480E00E9402
:1044600026148FEA0E94261483E00E94F613DF913F
:10447000CF910895A0E0B0E0E0E4F2E20C94529015
:10448000D82FC62F7A01D22E809174078A3008F077
:104490003FC081E00E94F61382E00E94F61388E795
:1044A0000E94261480E00E94261480E20E942614B6
:1044B00081E00E94261481E20E94261421E0D2129B
:1044C00002C080E001C08D2F0E9426148FE70E9459
:1044D000261482E20E94261481E0D81201C0C2E0B4
:1044E0008C2F0E94261421E0D21202C083E001C06A
:1044F00081E08C0F0E94261483E00E94F61382E074
:104500000E94F61388E70E94261480E40E94261475
:10451000E091190EF0E0EE0FFF1FE953F24F80819A
:104520009181209174070A9751F4213041F48AE077
:10453000809374071092720710927107D7C02130D0
:1045400031F484EF91E0909372078093710700E05B
:1045500010E0C12C8C2D90E0F70101900020E9F7CC
:104560003197EE19FF098E179F0708F08EC0F701EB
:10457000E80FF91F8081803279F4D11010C080E0FB
:104580000E94261480E00E94261480E00E942614D7
:1045900080E00E94261457C0803208F454C0982F3F
:1045A0009D0D8FED890F803B10F08FEA890F90E011
:1045B00021E0D21609F47BC0FC01EE0FFF1FE80FCB
:1045C000F91FEB50FA4EC491FC01EE0FFF1FE80FEC
:1045D000F91FEA50FA4EA590B490D0E0CC0FDD1F41
:1045E00088248394912CE92DF0E0EC17FD0758F511
:1045F000E80DF11D87FCFA95EA0DFB1DEB52F84E14
:1046000084910E94261481949394EDCF2091710798
:1046100030917207C9010A96C817D90708F05EC021
:10462000C217D30708F45AC0EA0DFB1DEB5DFE4E1E
:1046300084910E9426142196EC2FE01BF0E0E815EF
:10464000F90520F38E0180917107909172079C010A
:10465000265F3F4F0217130718F40817190720F4B5
:10466000809174078A3078F480E00E94261480E0FC
:104670000E94261481E0D81206C080E00E94261411
:1046800080E00E942614C39465CF809174078A301D
:1046900039F481E0809374071092720710927107C9
:1046A0008FEF8093190283E00E94F6131FC0FC0174
:1046B000EE0FFF1FE80FF91FEC52FF4E8490FC0134
:1046C000EE0FFF1FE80FF91FEB52FF4EA590B490BD
:1046D00024E0829E40011124E801AECFC817D9071B
:1046E00009F0A9CFD0937207C0937107CDB7DEB799
:1046F000ECE00C946E90CF93DF93C82F81E00E9482
:10470000F61382E00E94F61380E80E94261483E0EC
:104710000E94F61382E00E94F61380E80E9426149D
:10472000C13011F483EE01C085EE0E94261483E0AF
:104730000E94F6138AEF90E081DD82E00E94F6137A
:10474000C13019F484EA96E002C08CE291E076DD93
:1047500081E80E94261488EC90E070DD80E00E94E1
:104760009014D82F81E00E9490142D2F30E0322F2A
:104770002227282B442737FD4095542F2C7F442790
:104780005527A0E1B7E20E943C909C01552737FDD8
:104790005095452FC13049F4A4EAB4E40E943C90FE
:1047A000605D7F4D8A4C924008C0A4EDB0E30E944A
:1047B0003C9060587D488B45910920E137E240E00C
:1047C00050E00E940B90CA01B90124E630E040E0BD
:1047D00050E00E940B909F938F937F936F935F9312
:1047E0004F933F932F9381EE92E09F938F938AE1B3
:1047F0009EE09F938F930E94F49383E00E94F613B0
:104800008DB79EB70C960FB6F8949EBF0FBE8DBFA6
:10481000DF91CF910895CF93DF9381E00E94F6134B
:1048200082E00E94F61386E40E94261480E10E9432
:10483000261483E00E94F61382E00E94F61387E4B8
:104840000E94261480E00E949014C82F81E00E94EC
:104850009014D82F83E00E94F613AD2FB0E0BC2B4C
:104860002AE030E00E9436902CE030E040E050E05A
:104870000E940B905F934F933F932F938CEB92E0AA
:104880009F938F938AE19EE09F938F930E94F4936E
:104890008DB79EB708960FB6F8949EBF0FBE8DBF1A
:1048A000DF91CF910895ACE0B0E0E9E5F4E20C943B
:1048B0005290182F9BE0EFEAF2E0DE011196019092
:1048C0000D929A95E1F781E00E94F61382E00E9432
:1048D000F6139E012F5F3F4F790137E1139FC0010F
:1048E000112400E010E0FC01EC50FB4F5F019C0143
:1048F0002B503B4F49018EEE0E942614F701819107
:104900007F010E94261483E00E94F61382E00E9439
:10491000F6138FEE0E94261480E00E949014682FF8
:104920006501C00ED11EC6016C870E9420966C8561
:10493000861719F0C6010E94369681E00E949014F5
:10494000682F6401C00ED11EC6016C870E9420969C
:104950006C85861719F0C6010E9436960E5F1F4FB0
:104960000631110541F683E00E94F6132C96ECE027
:104970000C946E90A1E0B0E0E0ECF4E20C944E9068
:10498000782E81E00E94F61382E00E94F6138CEEEE
:104990000E94261482EF0E94261482E00E942614B0
:1049A00083E00E94F61381E00E94F61382E00E94E9
:1049B000F6138CEE0E94261484EF0E94261487E2E0
:1049C0000E94261483E00E94F61381E00E94F613F1
:1049D00082E00E94F6138CEE0E94261488E80E9462
:1049E000261483E00E94F61382E00E94F6138DEEF7
:1049F0000E94261427E1729EC0011124412C512CE3
:104A0000612C44E1749E90011124890107511E4FCD
:104A1000FC01EB50FB4F5F01A90148515E4F7A0149
:104A2000FC01EC50FB4F4F0180E00E949014682F76
:104A3000FBE06F1661F06501C40CD51CC6016983EB
:104A40000E9420966981861761F0C60108C0C801DE
:104A500069830E9420966981861719F0C8010E9417
:104A6000369680E00E949014682F2BE0621661F069
:104A70006401C40CD51CC60169830E94209669811B
:104A8000861761F0C60108C0C70169830E9420969D
:104A90006981861719F0C7010E943696639432E047
:104AA000430E511C4CE06412BFCF80E00E94901472
:104AB00081E00E949014182F83E00E94F61381E099
:104AC0000E94F61382E00E94F6138CEE0E942614D8
:104AD00080ED0E94261483E00E94F61382E00E947B
:104AE000F6138DEE0E94261481E00E949014082F88
:104AF00083E00E94F613272D30E084E1003609F0B0
:104B00004FC0829F7001839FF00C1124C701865112
:104B10009E4F7C010E942096811721F0612FC701D2
:104B20000E94369681E00E94F61382E00E94F613FE
:104B30008CEE0E94261481EE0E94261483E00E94CF
:104B4000F61382E00E94F6138DEE0E94261494E183
:104B5000799E80011124C12CD12C05511E4FE6E015
:104B6000CE1202C081E001C080E00E949014682F44
:104B70007801EC0CFD1CC70169830E9420966981B5
:104B8000861719F0C7010E943696FFEFCF1ADF0A89
:104B900027E0C216D10419F783E00E94F61310C073
:104BA000829F8001839F100D112406511E4FC80162
:104BB0000E9420968F3F21F06FEFC8010E94369629
:104BC0002196E0E10C946A90AEE1B0E0EAEEF5E205
:104BD0000C944C90082F262E81E00E94F61382E060
:104BE0000E94F6138EEE0E94261484EF0E94261473
:104BF0008EE20E94261483E00E94F61382E00E9457
:104C0000F61388E09DE30197F1F700C000008EEEF7
:104C10000E94261486EF0E94261483E00E94F61359
:104C200082E00E94F6138FEE0E94261480E00E941C
:104C30009014182F81E00E949014C82E83E00E94E7
:104C4000F61397E1099FB00111246C507B4F46E1A8
:104C500050E0CE0101960E941096298530E0322F57
:104C600022278A85282BD12CE12CF12CD12A8B8567
:104C700090E0982F88274C85842BC81AD90AE10820
:104C8000F108A8EEB3E00E942790BFE095958795C4
:104C900077956795BA95D1F7A70196010E94A78FDE
:104CA00028EE33E040E050E00E940B9069017A0169
:104CB0006B8970E0762F66278C89682B882777FDB3
:104CC0008095982F0BE0660F771F881F991F0A9514
:104CD000D1F70D8910E0102F00272E89022B9801A3
:104CE000442737FD4095542F2C0D3D1D4E1D5F1D53
:104CF0000E940B9049015A018C0C9D1CAE1CBF1CDC
:104D0000A5019401285F3F4F4F4F5F4FAAE0B0E0ED
:104D10000E943C9020E130E040E050E00E940B9087
:104D20002F8B388F498F5A8F81E00E94F61382E0D3
:104D30000E94F6138EEE0E94261484EF0E94261421
:104D400084E70E94261483E00E94F61383ED90E32B
:104D50000197F1F700C0000082E00E94F6138EEE8A
:104D60000E94261486EF0E94261483E00E94F61308
:104D700082E00E94F6138FEE0E94261480E00E94CB
:104D80009014182F80E00E949014082F81E00E9458
:104D90009014382E83E00E94F61390EA891A9FE05F
:104DA000990AA108B108A5019401C501B4010E94A6
:104DB000A78F20E030E140E050E00E940B902B8F65
:104DC0003C8F4D8F5E8F898190E0982F88272A81B4
:104DD000822B2C01662457FC6094762C42E0440C14
:104DE000551C661C771C4A95D1F7AF85B0E0BA2FE9
:104DF000AA278889A82B2B8D3C8D4D8D5E8D0E9416
:104E00003C9020E038E040E050E00E940B906901C7
:104E10007A01AB81B0E0BA2FAA278C81A82BA5011B
:104E200094010E94469020E038E040E050E00E946B
:104E30000B90C20ED31EE41EF51E4C0C5D1C6E1CA6
:104E40007F1C440C551C661C771C22E0420E511C32
:104E5000611C711CC12ED12CE12CF12C7601DD24BA
:104E6000CC2410E020E030E0322F212F102F00273B
:104E7000C00ED11EE21EF31EC30CD11CE11CF11C9E
:104E8000A7E0F694E794D794C794AA95D1F7C30105
:104E9000B20124E030E040E050E00E940B90C21AE2
:104EA000D30AE40AF50AA8EAB1E6A70196010E942E
:104EB0003C906B017C01CC0CDD1CEE1CFF1C0F81B7
:104EC00010E0102F00278885082BAD81B0E0BA2FA5
:104ED000AA278E81A82BA50194010E94469020E06C
:104EE00030E240E050E00E940B9049015A01AD854C
:104EF000B0E0BA2FAA278E85A82B2B8D3C8D4D8D27
:104F00005E8D0E944690412C512C32016394A30186
:104F100092010E940B90820E931EA41EB51E82E089
:104F2000880E911CA11CB11CC501B40124E030E025
:104F300040E050E00E940B9030584F4F5F4FD80137
:104F40000E943C9020E030E840E050E00E940B904E
:104F5000C701B6010E94E98F49015A01CA01B9018E
:104F600020E031E040E050E00E940B90CA01B9011E
:104F70000E94A78F9B01AC01AEEDBBE00E943C906C
:104F8000A30192010E940B9069017A01A3E4B3EEA0
:104F9000A50194010E944890A30192010E940B90E8
:104FA000C20ED31EE41EF51E9FECC90E9EE0D91E54
:104FB000E11CF11CC701B60120E130E040E050E007
:104FC0000E940B90280D391D4A1D5B1DA0E1B7E220
:104FD0000E943C9024E134E340E050E00E940B90BA
:104FE000CA01B90122E022122CC0E4E6CE2ED12C57
:104FF000E12CF12CA70196010E940B909F938F93B7
:105000007F936F935F934F933F932F936F89788D27
:10501000898D9A8DA70196010E940B909F938F9383
:105020007F936F935F934F933F932F9380EC92E026
:105030009F938F938AE19EE09F938F930E94F493B6
:105040001FC021E0221204C06F89788D898D9A8D4E
:1050500024E630E040E050E00E940B909F938F9355
:105060007F936F935F934F933F932F9381EE92E0E3
:105070009F938F938AE19EE09F938F930E94F49376
:105080000FB6F894DEBF0FBECDBF6E96E2E10C9472
:105090006890A1E3B0E0EFE4F8E20C944C90162F96
:1050A000E82EF12C27E1829FB00111246C507B4F38
:1050B00046E150E0CE0101960E94109684E18E9D5B
:1050C000B0018F9D700D112468517E4F4AE050E071
:1050D000CE0147960E94109681E00E94F61382E06E
:1050E0000E94F6138CEE0E94261482E00E94F613B2
:1050F00087EF0E94261483E00E94F61382E00E944C
:10510000F61388E09DE30197F1F700C000008DEEF3
:105110000E94261480E00E94901489A780E00E94DB
:105120009014082F80E00E9490148DA780E00E94C8
:105130009014882E912CA12CB12C80E00E94901408
:10514000C82ED12CE12CF12C898D8F3F11F481E0F8
:1051500001C080E00E94901490E0A0E0B0E0F4E094
:10516000CC0CDD1CEE1CFF1CFA95D1F72CE0880C52
:10517000991CAA1CBB1C2A95D1F7C828D928EA2853
:10518000FB2834E0B695A795979587953A95D1F782
:10519000C82AD92AEA2AFB2A898D8F3FA9F080E004
:1051A0000E949014B82E81E00E9490144B2D50E084
:1051B00060E070E08824942EA52EB62E882A8DA259
:1051C0009EA2AFA2B8A604C01DA21EA21FA218A62E
:1051D00083E00E94F6139A818981292E312C2101C6
:1051E000582AC701B601A4E09695879577956795EB
:1051F000AA95D1F7612C712C641975098609970954
:105200009B01AC010E94A78F9B01AC01BCE05595AE
:10521000479537952795BA95D1F7AD81B0E0BA2F6C
:10522000AA278E81A82B0E9446904B015C01A70102
:10523000960193E056954795379527959A95D1F71E
:10524000440C551C661C771C24193509460957095E
:10525000AB81B0E0BA2FAA278C81A82B0E94469080
:105260009B01AC01EBE05695479537952795EA955C
:10527000D1F7FEE0B594A79497948794FA95D1F767
:10528000280D391D4A1D5B1D29A33AA34BA35CA31E
:1052900029013A0175946794579447943AEF531A49
:1052A00061087108E989FA89C301B201B2E09595F4
:1052B000879577956795BA95D1F79B01AC010E94C8
:1052C000A78F6B017C018F848EA698889FA6AD84E2
:1052D000A8AABE84B9AAAB85B0E0BA2FAA278C854C
:1052E000A82BA70196019DE05595479537952795E1
:1052F0009A95D1F70E9446904B015C0123E0B5944A
:10530000A794979487942A95D1F7A985B0E0BA2FEE
:10531000AA278A85A82BA30192010E944690959501
:10532000879577956795860E971EA81EB91E52E140
:10533000B594A794979487945A95D1F720E8920E44
:10534000A11CB11CAF81B0E0BA2FAA278885A82B79
:10535000A50194010E943C904B015C017FE0B69452
:10536000A794979487947A95D1F781149104A10416
:10537000B10409F463C2A7019601ABE055954795C6
:1053800037952795AA95D1F7AF2FB0E0BE2B0E9495
:1053900046906B017C013FA5A32FB0E04EA5B42B36
:1053A000A30192010E944690660F771F881F991FE4
:1053B000C60ED71EE81EF91E82E0F594E794D79436
:1053C000C7948A95D1F759A9852F90E0A8A99A2B5F
:1053D000AA2797FDA095BA2FDC0199278827C80E28
:1053E000D91EEA1EFB1E3CE0F594E794D794C794BF
:1053F0003A95D1F7802F90E0A0E0B0E044E0880F2C
:10540000991FAA1FBB1F4A95D1F729A5422F50E02B
:1054100060E070E0ECE0440F551F661F771FEA95CF
:10542000D1F7842B952BA62BB72B3DA5432F50E00E
:1054300060E070E0F4E07695679557954795FA95AA
:10544000D1F7842B952BA62BB72BC80ED91EEA1E9D
:10545000FB1EABECB3EFA70196010E944890805B66
:105460009C4397FD0BC0660F771F881F991FA501EE
:1054700094010E94E98F49015A010AC0A5019401D3
:105480000E94E98F49015A01880C991CAA1CBB1C77
:10549000C501B401F3E09695879577956795FA95E0
:1054A000D1F72F89F101F22B9B01AC010E94A78F4C
:1054B0009B01AC01ADE05695479537952795AA9588
:1054C000D1F7DF010E9446906B017C01BCE0F594AE
:1054D000E794D794C794BA95D1F7A501940182E0D7
:1054E00056954795379527958A95D1F7AD89B0E0C0
:1054F000BA2FAA278E89A82B0E9446902DE0959559
:105500008795779567952A95D1F7C60ED71EE81E21
:10551000F91E8B8990E0982F88272C89822BAA2747
:1055200097FDA095BA2FC80ED91EEA1EFB1E44E0B7
:10553000F594E794D794C7944A95D1F7C80CD91C31
:10554000EA1CFB1CA0E1B7E2A70196010E943C9077
:1055500024E134E340E050E00E94E98F29A73AA714
:105560004BA75CA7E98DEF3F09F4CAC02E8D322FFF
:105570003F708D8D40E1849FC0011124832BAA27A9
:1055800097FDA095BA2FF4E1880F991FAA1FBB1FA2
:10559000FA95D1F7C12C30E4D32EE12CF12CC81AA6
:1055A000D90AEA0AFB0A22952F70AF8D50E1A59F18
:1055B000D0011124A22B49A05AA06BA07CA08CE2A0
:1055C000581A81E0680A7108A30192010E9446906E
:1055D000C61AD70AE80AF90A8DA19EA1AFA1B8A5FB
:1055E0006EE0880F991FAA1FBB1F6A95D1F7C80EDE
:1055F000D91EEA1EFB1E7FE0F694E794D794C79469
:105600007A95D1F7A8A1B0E00E943C904B015C01D3
:10561000FAE0B594A79497948794FA95D1F7AC8D56
:10562000B0E00E943C90ABE09595879577956795A3
:10563000AA95D1F770588F4F9F4FA50194010E94F2
:10564000A78F9B01AC01BAE05595479537952795F3
:10565000BA95D1F7405E5F4FAB8DB0E0BA2FAA2765
:105660008A8DA82B0E944690705E8F4F9F4F2EE030
:1056700095958795779567952A95D1F7A701960116
:105680000E94A78F6B017C013FE0959587957795E8
:1056900067953A95D1F79B01AC010E94A78F9B01BA
:1056A000AC0167E055954795379527956A95D1F7F1
:1056B000AE2FB0E00E943C90E4E0959587957795F9
:1056C0006795EA95D1F7C61AD70AE80AF90AF7FEEC
:1056D00003C0C12CD12C760191E0C916D104E1049C
:1056E00099E1F9062CF0C12CD12CE12C79E1F72EAF
:1056F0006CE0F594E794D794C7946A95D1F703C00A
:10570000C12CD12C7601A5E0B0E029A13AA14BA192
:105710005CA10E943C9060587F4F8F4F9F4F872E17
:10572000982EA92EBB24A7FCBA94133009F051C0BF
:1057300044E6442E512C612C712C69A57AA58BA5C9
:105740009CA5A30192010E94E98F9F938F937F9361
:105750006F935F934F933F932F93C501B401A301C0
:1057600092010E940B909F938F937F936F935F930F
:105770004F933F932F9380EC92E09F938F930AE196
:105780001EE01F930F930E94F4930FB6F894DEBFB0
:105790000FBECDBF898D8F3F09F450C0C701B60140
:1057A00028EE33E040E050E00E940B909F938F93EF
:1057B0007F936F935F934F933F932F931F930F9319
:1057C0008AED92E09F938F931F930F930E94F4931F
:1057D00030C0113039F4C501B40124E630E040E0B6
:1057E00050E008C0123049F4C701B60128EE33E09A
:1057F00040E050E00E940B900AC069A57AA58BA5F5
:105800009CA524E630E040E050E00E94E98F9F93A1
:105810008F937F936F935F934F933F932F9381EE7B
:1058200092E09F938F938AE19EE09F938F930E94D3
:10583000F4930FB6F894DEBF0FBECDBFE196E2E160
:105840000C946890A4E0B0E0E8E2FCE20C944E9086
:1058500081E00E94F61382E00E94F61382E50E9426
:10586000261480EA0E94261483E00E94261483E016
:105870000E94F61382E00E94F61382E50E9426142D
:1058800081EA0E94261480E00E94261483E00E9490
:10589000F61382E00E94F61382E50E94261484EB40
:1058A0000E94261483E00E94F61382E00E94F61301
:1058B00083E50E94261480E00E949014082F80E067
:1058C0000E94901410E0182B80E00E949014482E43
:1058D00081E00E949014F82E83E00E94F613512C70
:1058E0005F28612C712CD80120EA36E841E050E0B5
:1058F0000E943C906B017C01A301920160EA70E878
:1059000082E090E00E94A78FC61AD70AE80AF90A37
:1059100045EF842E912CA12CB12CC701B601A50115
:1059200094010E94E98F29833A834B835C83980119
:10593000A8E7B6EE0E9427906B017C01A3019201BB
:1059400060EF7FE481E090E00E94A78FC61AD70A3B
:10595000E80AF90AC701B601A50194010E94E98F7E
:1059600089819A81AB81BC81281739074A075B0777
:1059700010F49C01AD01CA01B90124E630E040E019
:1059800050E00E94E98F9F938F937F936F935F9373
:105990004F933F932F9381EE92E09F938F938AE1F1
:1059A0009EE09F938F930E94F4930FB6F894DEBF0E
:1059B0000FBECDBF2496E0E10C946A90CF92DF92A7
:1059C000EF92FF92CF93DF9300D01F92CDB7DEB757
:1059D00081E00E94F61382E00E94F61384E90E949F
:1059E000261483E00E94261484E00E94F61385E9C1
:1059F0000E94261481E00E949014F82E84E00E94F8
:105A0000F61384E90E94261484E00E94261484E0A0
:105A10000E94F61385E90E94261481E00E949014EA
:105A2000E82E83E00E94F6138E2D90E09F299C01C2
:105A300022273F70442737FD4095542F64E0569548
:105A40004795379527956A95D1F76C016FE0C62287
:105A5000DD24EE24D7FCE094FE2C2C0D3D1D4E1DC4
:105A60005F1DAA2797FDA095BA2F8827907FAA27A8
:105A7000BB277CE0B695A795979587957A95D1F742
:105A800004C0220F331F441F551F8A95D2F7ADE281
:105A9000B0E00E943C902AE030E040E050E00E94FC
:105AA000E98F83E029833A834B835C830E94F6135A
:105AB00029813A814B815C81CA01B90124E630E039
:105AC00040E050E00E94E98F9F938F937F936F9304
:105AD0005F934F933F932F9381EE92E09F938F9329
