:100000000C945B100C94781C0C94A41C0C94D01CC5
:100010000C94FC1C0C94281D0C94541D0C94801DF5
:100020000C94AC1D0C947C100C947C100C947C10E3
:100030000C947C100C947C100C947C100C947C1010
:100040000C947C100C947C100C947C100C947C1000
:100050000C947C100C947C100C94D81D0C947C1087
:100060000C947C100C947C100C947C100C947C10E0
:100070000C947C100C947C100C947C100C947C10D0
:100080000C947C100C947C100C947C100C947C10C0
:100090000C947C100C947C100C947C100C947C10B0
:1000A0000C947C100C947C100C947C100C947C10A0
:1000B0000C947C100C947C100C947C100C947C1090
:1000C0000C947C100C947C100C947C103C2F613EA2
:1000D000004578742D494F002F3F70743D256426EC
:1000E00063663D313E00207C203C6120687265667D
:1000F0003D2F003C2F613E002F53434C002F5344B3
:100100004100493243004453002F4431002F443012
:100110000057323600414443004E4300202D20005A
:10012000290025640028003E50002564002F3F7000
:10013000743D003C62723E3C6120687265663D2FF2
:10014000003C62723E2D2D2D003C62723E2D2D2012
:100150005850352F36202D2D002F3F63663D343EFD
:100160005850323C2F613E3C62723E2D2D20585437
:1001700032202D2D002F3F63663D333E5850313CD9
:100180002F613E3C62723E3C6120687265663D2F85
:10019000002F3F63663D313E436F6E6669673C2FBB
:1001A000613E3C62723E2D2D204D4F4453202D2D3B
:1001B0003C62723E3C6120687265663D2F00293CBE
:1001C00062723E3C6120687265663D2F00342E31BC
:1001D000386232004D656761442D32353631206218
:1001E00079203C6120687265663D687474703A2FAE
:1001F0002F61622D6C6F672E72753E61622D6C6F80
:10020000672E72753C2F613E202866773A200032B7
:10021000202D2D0031202D2D003E4261636B3C2F9F
:10022000613E3C62723E2D2D20506F7274732058D7
:100230005000446F6E65003E002076616C75653D30
:10024000003C696E707574206E616D653D6B6579FB
:10025000004E2F4100383E4C617374206B65793A33
:1002600020003E002076616C75653D003E204163B4
:10027000743A203C696E707574206E616D653D63E3
:10028000726E61002076616C75653D00543A203CC9
:10029000696E707574206E616D653D63726E740079
:1002A0003E003E205344413A203C696E70757420F4
:1002B0006E616D653D637364612076616C75653D4B
:1002C000003C62723E5365742074696D653A203C4F
:1002D000696E707574206E616D653D7374696D65CE
:1002E0003E3C62723E53434C3A203C696E707574DA
:1002F000206E616D653D6373636C2076616C75651E
:100300003D00373E4375722074696D653A200022C6
:100310003E3C62723E737276206C6F6F703A203C86
:10032000696E70757420747970653D636865636B80
:10033000626F78206E616D653D736C2076616C75BF
:10034000653D31004D656761642D49443A203C6943
:100350006E707574206E616D653D6D646964206DAD
:1003600061786C656E6774683D352073697A653DA8
:10037000352076616C75653D2200323E003C62722C
:100380003E557074696D653A200057646F673A2076
:100390003C696E707574206E616D653D707220737E
:1003A000697A653D332076616C75653D00536372F3
:1003B0006970743A203C696E707574206E616D6569
:1003C0003D736374206D61786C656E6774683D3150
:1003D000352076616C75653D22003C62723E00649A
:1003E0006973636F6E6E656374656400636F6E6ED0
:1003F0006563746564003E4D5154543C2F73656CC5
:100400006563743E20003E485454503C6F707469DC
:100410006F6E2076616C75653D31005352562054E5
:100420007970653A203C73656C656374206E616D0C
:10043000653D737276743E3C6F7074696F6E2076A2
:10044000616C75653D300025642E25642E25642E73
:1004500025643A25753E3C62723E003E3C62723E27
:100460005352563A203C696E707574206E616D650A
:100470003D7369702076616C75653D0047573A2081
:100480003C696E707574206E616D653D677720768E
:10049000616C75653D25642E25642E25642E2564CA
:1004A000005077643A203C696E707574206E616DFF
:1004B000653D707764206D61786C656E6774683D2A
:1004C000332076616C75653D220049503A203C69C5
:1004D0006E707574206E616D653D65697020766122
:1004E0006C75653D25642E25642E25642E256400DB
:1004F000313E0063662076616C75653D002F3E00DD
:100500002F3F63663D383E6942204B6579733C2F2F
:10051000613E002F3F63663D373E43726F6E3C2F56
:10052000613E002F3F63663D323E4D656761642D3D
:1005300049443C2F613E002F3F63663D313E436F8F
:100540006E6669673C2F613E003E4261636B3C2FE3
:10055000613E002F3F63663D31003E4261636B3C6C
:100560002F613E3C62723E4D656761442069732095
:1005700072657374617274656400340033002F3FD8
:1005800063663D002A003B003E003C62723E4469C7
:100590007370203C696E707574206E616D653D648A
:1005A0006973702073697A653D322076616C756578
:1005B0003D0026636D643D7363616E3E49324320A6
:1005C0005363616E3C2F613E002F3F70743D003ECF
:1005D000003C62723E494E54203C696E7075742036
:1005E0006E616D653D696E74612073697A653D3336
:1005F0002076616C75653D003E003C62723E427241
:1006000069676874203C696E707574206E616D65F1
:100610003D6873742073697A653D332076616C752B
:10062000653D003E4D435032333058583C2F736582
:100630006C6563743E003E535344313330363C6F37
:100640007074696F6E2076616C75653D3230003E66
:1006500054534C323539313C6F7074696F6E20766B
:10066000616C75653D34003E4248313735303C6F32
:100670007074696F6E2076616C75653D33003E4D18
:10068000415834343030393C6F7074696F6E207665
:10069000616C75653D32003E424D783238303C6FBA
:1006A0007074696F6E2076616C75653D37003E42EF
:1006B0004D503138303C6F7074696F6E2076616CCC
:1006C00075653D36003E4854553231443C6F707478
:1006D000696F6E2076616C75653D35003E414E59FF
:1006E0003C6F7074696F6E2076616C75653D31008A
:1006F0003C62723E446576203C73656C6563742091
:100700006E616D653D643E3C6F7074696F6E2076FE
:10071000616C75653D30003E003C62723E53434C57
:10072000203C696E707574206E616D653D6D6973F6
:10073000632073697A653D332076616C75653D0091
:100740003E53434C3C2F73656C6563743E003E53CF
:1007500044413C6F7074696F6E2076616C75653DC5
:1007600032003E4E433C6F7074696F6E2076616C50
:1007700075653D31003C62723E4D6F6465203C738F
:10078000656C656374206E616D653D6D3E3C6F7098
:1007900074696F6E2076616C75653D30003E003C7B
:1007A00062723E4431203C696E707574206E616DDA
:1007B000653D6D6973632073697A653D33207661A9
:1007C0006C75653D003E44313C2F73656C65637408
:1007D0003E003E44303C6F7074696F6E2076616CF1
:1007E00075653D32003E4E433C6F7074696F6E20FC
:1007F00076616C75653D31003C62723E4D6F64659B
:10080000203C73656C656374206E616D653D6D3E63
:100810003C6F7074696F6E2076616C75653D300059
:1008200026636D643D6C6973743E446576696365E7
:10083000204C6973743C2F613E002F3F70743D0063
:100840003E5732363C2F73656C6563743E003E69DB
:10085000423C6F7074696F6E2076616C75653D36D1
:10086000003E31574255533C6F7074696F6E20766D
:10087000616C75653D34003E31573C6F7074696F33
:100880006E2076616C75653D35003E4448543232C9
:100890003C6F7074696F6E2076616C75653D3300D6
:1008A0003E44485431313C6F7074696F6E207661FC
:1008B0006C75653D32003C62723E53656E203C7340
:1008C000656C656374206E616D653D643E3C6F7060
:1008D00074696F6E2076616C75653D3100206368C8
:1008E00065636B65643E203C696E707574206E6153
:1008F0006D653D6D322073697A653D332076616C9C
:1009000075653D003E486967683C2F73656C65639B
:10091000743E3C62723E536D6F6F7468203C696E2A
:1009200070757420747970653D636865636B626F80
:1009300078206E616D653D6D6973632076616C75BD
:10094000653D31003E4C6F773C6F7074696F6E206F
:1009500076616C75653D32003E4E6F726D3C6F7016
:1009600074696F6E2076616C75653D31003C627212
:100970003E46726571203C73656C656374206E61E0
:100980006D653D66723E3C6F7074696F6E20766176
:100990006C75653D30003E4453323431333C2F7327
:1009A000656C6563743E003C6F7074696F6E207691
:1009B000616C75653D32003E50574D003C6F707460
:1009C000696F6E2076616C75653D31003E5357004E
:1009D0003C62723E4D6F6465203C73656C65637468
:1009E000206E616D653D6D3E3C6F7074696F6E2069
:1009F00076616C75653D30003E313C2F73656C65EA
:100A000063743E003E303C6F7074696F6E20766197
:100A10006C75653D31003C73656C656374206E6177
:100A20006D653D643E3C6F7074696F6E2076616CDD
:100A300075653D30003C696E707574206E616D6542
:100A40003D642073697A653D33206D61786C656E15
:100A50006774683D332076616C75653D003C627259
:100A60003E44656661756C743A20003C62723E5289
:100A70006177203C696E70757420747970653D6390
:100A80006865636B626F78206E616D653D6420768A
:100A9000616C75653D3100203C696E707574207421
:100AA0007970653D636865636B626F78206E616D18
:100AB000653D6D6973632076616C75653D31003EFF
:100AC000433C2F73656C6563743E003E523C6F700F
:100AD00074696F6E2076616C75653D33003E5026FB
:100AE000523C6F7074696F6E2076616C75653D3233
:100AF000003E503C6F7074696F6E2076616C756556
:100B00003D31003C62723E4D6F6465203C73656C04
:100B1000656374206E616D653D6D3E3C6F707469F8
:100B20006F6E2076616C75653D3000223E203C6919
:100B30006E70757420747970653D636865636B626F
:100B40006F78206E616D653D6E61662076616C75B3
:100B5000653D31002F003A25750025642E25642E51
:100B600025642E2564003E3C62723E4E6574203C36
:100B7000696E7075742073697A653D3332206E61D9
:100B80006D653D6574682076616C75653D22002257
:100B90003E203C696E70757420747970653D6368A1
:100BA00065636B626F78206E616D653D616620766E
:100BB000616C75653D31003C62723E416374203C5E
:100BC000696E707574206E616D653D65636D64203E
:100BD00076616C75653D22003E3C62723E487374DE
:100BE000203C696E707574206E616D653D6873742C
:100BF0002076616C75653D003E3C3E3C2F73656C14
:100C00006563743E3C62723E56616C203C696E7056
:100C10007574206E616D653D6D6973632073697ACB
:100C2000653D342076616C75653D003E3C3C6F70DF
:100C300074696F6E2076616C75653D33003E3E3C95
:100C40006F7074696F6E2076616C75653D32003E21
:100C50004E6F726D3C6F7074696F6E2076616C754B
:100C6000653D31004D6F6465203C73656C65637450
:100C7000206E616D653D6D3E3C6F7074696F6E20D6
:100C800076616C75653D30003C2F73656C656374EF
:100C90003E003E414443003C6F7074696F6E2076A5
:100CA000616C75653D32003E493243003E445365F8
:100CB0006E3C6F7074696F6E2076616C75653D3443
:100CC000003E4F75743C6F7074696F6E2076616C76
:100CD00075653D33003E496E3C6F7074696F6E20E0
:100CE00076616C75653D31003E4E433C6F707469B2
:100CF0006F6E2076616C75653D30005479706520AB
:100D00003C73656C656374206E616D653D707479CC
:100D10003E3C6F7074696F6E2076616C75653D3214
:100D2000353500706E2076616C75653D002F3E0094
:100D30003C62723E3C6120687265663D2F25732FD0
:100D40003F70743D2564266578743D25643E5025CA
:100D500064202D200029202D2D003038003137004F
:100D60003C62723E2D2D20506F7274732045787452
:100D700020284D4350323330002F002F0068756D0E
:100D80003A002F0074656D703A003E4F75743C2F29
:100D900073656C6563743E003E496E3C6F707469A8
:100DA0006F6E2076616C75653D31005479706520F9
:100DB0003C73656C656374206E616D653D65747927
:100DC0003E3C6F7074696F6E2076616C75653D3066
:100DD000006578742076616C75653D25643E007011
:100DE000742076616C75653D25643E002F3E003CA5
:100DF0002F613E2000303E003C2F613E2000313EFE
:100E0000003C6120687265663D2F25732F3F70742A
:100E10003D2564266578743D256426636D643D2513
:100E2000646525643A002F4F4E002F4F4646003A26
:100E3000303E4F46463C2F613E3C62723E004200CF
:100E4000410026636D643D002F3F70743D003A31D0
:100E50003E4F4E3C2F613E203C6120687265663DEE
:100E60002F004200410026636D643D002F3F7074E7
:100E70003D00423A2000413A20002F004E412F4EC3
:100E800041002F003E203C696E70757420747970AB
:100E9000653D7375626D69742076616C75653D633F
:100EA00068616E67653E3C2F666F726D3E003E5016
:100EB000574D2028302D323535293A203C696E7047
:100EC0007574206E616D653D70776D2073697A650C
:100ED0003D332076616C75653D0070742076616CE1
:100EE00075653D002F3E003C62723E3C666F726D40
:100EF000207374796C653D646973706C61793A69CB
:100F00006E6C696E6520616374696F6E3D2F004D74
:100F10004350003C62723E003C62723E6C75783A0F
:100F2000003C62723E6C75783A003C62723E6C75B1
:100F3000783A0074656D703A002F68756D3A0074E8
:100F4000656D703A002F003E4261636B3C2F613E3D
:100F50003C62723E500034003300312670743D0014
:100F60002F3F63663D003B003A0062757379004491
:100F70006F6E650026616C6C3D006D6469643D00B8
:100F80003F00485454502F312E30203430312055FA
:100F90006E617574686F72697A65640D0A0D0A5521
:100FA0006E617574686F72697A6564005472792035
:100FB000687474703A2F2F69702F707764002F0057
:100FC0002F002F002F002F002F005025643A200003
:100FD00049503A202564202E202564202E202564A7
:100FE000202E20256400485454502F312E302032BA
:100FF0003030204F4B0D0A436F6E74656E742D5464
:101000007970653A20746578742F68746D6C0D0A78
:10101000507261676D613A206E6F2D636163686520
:101020000D0A0D0A002892A5ACAFA5E0290082EBBD
:10103000AAAB0082AAAB202020004F4646004F4EAC
:1010400000494E004F555400223E3C62723E003E25
:101050003C62723E003C62723E00207C203C61207B
:10106000687265663D2F003C6120687265663D2FA1
:10107000003E0020636865636B6564003C696E70C8
:10108000757420747970653D68696464656E206E5E
:10109000616D653D003C62723E3C696E7075742006
:1010A000747970653D7375626D69742076616C75D5
:1010B000653D536176653E3C2F666F726D3E003C28
:1010C000666F726D20616374696F6E3D2F002073CF
:1010D000656C656374656400160000000000000024
:1010E0000000000000000000000000000000000000
:1010F000000000000000000000165800000000166C
:10110000B000070801000000162401167C0116D467
:1011100001162C0216840216DC02163403168C0308
:1011200016E403163C040F940400000000000000C5
:1011300000000000000000000000000000000000AF
:10114000000000000000000000000000000000009F
:10115000000000000000000000000000000000008F
:10116000000000000000000000000000000000007F
:10117000000000000000000000000000000000006F
:10118000000000000000003E0000003E0000003EA5
:101190000000003E0000003E0000003E0000003E57
:1011A0000000003E0000FEFF1F00FEFF1F00FEFFCC
:1011B0001F00FEFF1F00003E0000003E0000003E3A
:1011C0000000003E0000003E0000003E0000003E27
:1011D0000000003E000000000000000000000000D1
:1011E00000000000000000000000000000000000FF
:1011F00000000000000000000000003E0000003E73
:101200000000003E0000003E0000003E0000003EE6
:101210000000003E0000003E0000003E0000003ED6
:101220000000003E0000003E0000003E0000003EC6
:1012300000000000FE000000FE000000FE000000B4
:10124000FE000000FE000000FE000000FE00F0FFB7
:101250000000FEFF0700FFFF0FC0FFFF3FC0FFFFC2
:101260003FE0FFFF7FE0FFFF7FF00F00FFF0030094
:10127000FCF00100F8F00100F8F00100F8F00100C6
:10128000F8F00300FCF00F00FFE0FFFF7FE0FFFF3E
:101290007FC0FFFF3FC0FFFF3F00FFFF0F00FEFFCB
:1012A0000700F0FF00000000000000000000000048
:1012B00000001E00F8001E00F8001E00F8001E00CE
:1012C000F8001F00F8001F00F8C0FFFFFFE0FFFF5D
:1012D000FFE0FFFFFFE0FFFFFFE0FFFFFFE0FFFF9A
:1012E000FFE0FFFFFF000000F8000000F800000032
:1012F000F8000000F8000000F8000000F80000000E
:1013000000000000F8C00F00F8E00700FCE0070054
:10131000FEE00300FFF00380FFF001C0FFF001C01A
:10132000FFF001E0FFF001F0FFF001FCFBF003FE35
:10133000F9F087FFF8F0FF7FF8E0FF7FF8E0FF3F6C
:10134000F8C0FF1FF8C0FF07F880FF03F800FE0099
:10135000F8000000F800000000000000000000009D
:101360003FC00F007EE007007EE003007CE003004A
:10137000FCF00100F8F0810FF8F0810FF8F0810F18
:10138000F8F0810FF8F0810FF8F0C30FFCF0FF1FA9
:10139000FEF0FFFF7FE0FFFF7FE0FFFD7FC0FFFC6F
:1013A0003F807FFC1F001FF80F0000E0030000F0EB
:1013B000030000F8030000FE030000FF030080FFAD
:1013C0000300E0EF0300F0E70300F8E10300FEE0B4
:1013D00003007FE003C01FE003E00FE003E0FFFF36
:1013E000FFE0FFFFFFE0FFFFFFE0FFFFFFE0FFFF89
:1013F000FFE0FFFFFFE0FFFFFF0000E0030000E071
:10140000030000E003000000000000003FE0FF0FC9
:101410007EE0FF0F7EE0FF0F7CE0FF07FCE0FF07B0
:10142000F8E0FF07F8E0FF07F8E0C307F8E0C307BC
:10143000F8E0C307F8E0C30FFCE0C30FFCE0C31FF4
:10144000FEE0C3FF7FE083FF7FE083FF3FE003FF19
:101450003FE003FF1FE003FE0F0000F80300C0FFA2
:101460000000F8FF0700FCFF0F00FFFF1F80FFFFD9
:101470003F80FFFF7FC0FFFF7FE09F03FFE0C703C8
:10148000FCE0C703F8F0E303F8F0E103F8F0E10350
:10149000F8F0E107FCF0E10FFEF0E1FF7FF0E1FF83
:1014A0007FF0C1FF3FF0C3FF3FF083FF1F0000FF4D
:1014B000070000FC0100000000E0030000E0030062
:1014C00080E00300E0E00300F0E00300FCE0030044
:1014D000FFE003C0FFE003F0FFE003F8FFE003FEDE
:1014E0007FE083FF1FE0E3FF0FE0F3FF03E0FFFF78
:1014F00000E0FF3F00E0FF0F00E0FF0300E0FF011E
:1015000000E07F0000E01F0000E00700000000C0D6
:1015100007003EF01F80FFF83FC0FFF93FC0FFFD0E
:101520007FE0FFFF7FE0FFFFFFF0FF1FFEF0E3071C
:10153000FCF0C10FF8F0C10FF8F0C10FF8F0811FF7
:10154000F8F0831FFCF0FF3FFCE0FFFF7FE0FFFFB0
:101550007FE0FFFE7FC0FFFC3F807FFC1F001FF885
:101560000F0000E00700FC010000FF070080FF0FF4
:10157000FCC0FF1FFCC0FF1FF8E0FF3FF8E0FF3F8B
:10158000F8F0873FF8F0033FF8F0013EF8F0013E35
:10159000FCF0013EFCF0011E7EF0031E7FF00FCE3A
:1015A0007FE0FFFF3FE0FFFF1FC0FFFF1FC0FFFF07
:1015B0000F00FFFF0300FEFF0000F01F00003E00D1
:1015C0000080FF0000C0FF0100E0FF0300E0E30334
:1015D00000F0C10700F0800700F0800700F08007EE
:1015E00000F0C10700E0E30300E0FF0300C0FF01DB
:1015F0000080FF0000003E00000100000302000820
:1016000008000618000B2400083A00014A00044CA8
:1016100000045400055C00076600027400057800B1
:10162000018200068400069000059C0006A60006C4
:10163000B20007BE0006CC0006D80006E40006F0A3
:101640000006FC00010801020A01070E01071C0147
:10165000072A010538010B420107580106660107F8
:101660007201078001068E01069A0107A60107B4E0
:101670000103C20105C80106D20106DE0109EA0123
:1016800007FC01080A02061A0208260207360207AA
:101690004402075202076002076E020B7C020792A7
:1016A0000207A00207AE0203BC0206C20203CE027A
:1016B00009D40208E60202F60206FA02060603064A
:1016C0001203061E03062A03053603064003064CD2
:1016D00003015803045A03056203016C03096E03F6
:1016E000068003068C0306980306A40304B00305D2
:1016F000B80304C20306CA0306D60309E20305F4CD
:101700000306FE03050A04051404011E0405200453
:10171000082A04063A040746040654040660040630
:101720006C04097804068A040B960406AC0407B816
:101730000407C60406D40409E00409F204070405FA
:10174000081205072205063005073C05074A05076C
:1017500058050966050778050886050796050BA450
:10176000050CBA0509D2050AE40506F805070406C2
:101770000B1206072806063606064206064E060522
:101780005A06076406067206097E06059006069A42
:101790000606A60606B20607BE0607CC0606DA0649
:1017A00006E60606F20606FE06060A070516070600
:1017B0002007092C07053E07074807065607096258
:1017C000070A740707880707960705A40706AE07E8
:1017D00009BA0706CC0706D8071BF00078000000FE
:1017E0007802000E4003C002700E4003C002700079
:1017F0004010C011207FF8122012200C2000E001C0
:10180000101110091006E001000EC0112011101176
:10181000000E000EE01110111011100AE00C001261
:1018200000110000780F8030604010800880084070
:101830001030600F800050002000F80020005001A0
:1018400000010001000FE00100010001004000382C
:1018500000010001000100010001001800600018F3
:101860000006000180006000180FE010101010103A
:101870001010100FE0102010201FF01000100018A2
:1018800060141012101210111010E0082010101126
:1018900010111011100EE003000280024002201F00
:1018A000F002000200080011F01110111011100ECA
:1018B000100FC010A01090109010900F000010009A
:1018C000101C10031000D000300EE0111011101188
:1018D0001011100EE001E01210121012100A100781
:1018E000E018C0400038C00200050005000880086C
:1018F0008010401040048004800480048004800430
:101900008004801040104008800880050005000217
:1019100000002000101B10009000600F801040207D
:10192000204F905050505050505FD0102010400F1A
:10193000801800070004C0043004C0070018001F0E
:10194000F011101110111011E00E0007C008201046
:101950001010101010101008201FF0101010101090
:10196000101010082007C01FF011101110111011D5
:101970001011101FF00110011001100110001007CC
:10198000C0082010101010121012101E201FF0019D
:101990000001000100010001001FF010101FF010F5
:1019A0001010001000101010100FF01FF0010002B6
:1019B000800440082010101FF010001000100010CC
:1019C0000010001FF0003000C003000C00030000F6
:1019D000C000301FF01FF0003000C00100060018EA
:1019E000001FF007C0082010101010101010100871
:1019F0002007C01FF0021002100210021001E007C1
:101A0000C008201010101010103010482047C01FC0
:101A1000F0021002100210051008E0100008E0119A
:101A20001011101110111011100E200010001000D4
:101A3000101FF000100010001007F0080010001038
:101A4000001000080007F000700180060018000672
:101A5000000180007000F007001800060001C000BF
:101A60003001C006001800070000F01830044002E2
:101A70008001000280044018300010006001801EC8
:101A800000018000600010181014101210111010C6
:101A900090105010307FF840084008001800600196
:101AA00080060018006000400840087FF801000030
:101AB0008000400020001000200040008001004015
:101AC0000040004000400040004000400040000056
:101AD0000800100C0012401240124012401F801FDC
:101AE000F810801040104010400F800F8010401000
:101AF000401040104008800F8010401040104008F7
:101B0000401FF80F8012401240124012400B80001C
:101B1000401FF00048004800080F8090409040901F
:101B20004088407FC01FF800800040004000401FF8
:101B3000801FC88000800080407FC81FF802000519
:101B400000088010401FF81FC00080004000401FA8
:101B5000800080004000401F801FC00080004000C7
:101B60004000401F800F8010401040104010400F78
:101B700080FFC010801040104010400F800F801078
:101B800040104010400840FFC01FC00080004000CF
:101B90004011801240124012400C4000400FF010E3
:101BA0004010400FC010001000100008001FC000BF
:101BB000C0070018001800070000C000C007001888
:101BC00000070000C007001800070000C018C0058B
:101BD000000200050018C000C08700780018000748
:101BE0000000C0184014401240114010C001000114
:101BF000003EF0400840087FF8400840083EF001F1
:101C000000010003000080008001000100020002CA
:101C10000001801FF011141110111011141110186F
:101C200000070004C0043004C0070018001FF011B2
:101C3000101110111011100E001FF01110111011C1
:101C40001011E00E001FF000100010001000100036
:101C50001070001800170010F01010101010101F56
:101C6000F070001FF0111011101110111011101050
:101C700010081004E0030001001FF001000300043D
:101C8000E008101010082010101110111011100E83
:101C9000E01FF008000600010000C000201FF01F38
:101CA000F008020604010400C400221FF01FF00126
:101CB00000030004E008101010100010000FF000E6
:101CC0001000100010001000101FF01FF000300076
:101CD000C003000C00030000C000301FF01FF00123
:101CE0000001000100010001001FF007C0082010E2
:101CF00010101010101010082007C01FF000100066
:101D0000100010001000101FF01FF002100210024F
:101D100010021001E007C008201010101010101061
:101D20001008200010001000101FF000100010001C
:101D300010103010C013000C00030000C00030036E
:101D4000800440082008201FF008200820044003D9
:101D50008018300440028001000280044018301FC7
:101D6000F0100010001000100010001FF0700001B3
:101D7000F0020002000200020002001FF01FF0103B
:101D8000001000100010001FF010001000100010D4
:101D9000001FF01FF010001000100010001FF010C6
:101DA000001000100010001FF07000001000100064
:101DB000101FF011001100110011000E001FF01192
:101DC0000011001100110011000E00000000001FA2
:101DD000F01FF011001100110011000E0008201179
:101DE00010111011101110092007C01FF00100017F
:101DF0000007C00820101010101010101008200745
:101E0000C0100009E006100210021002101FF00CB2
:101E10000012401240124012401F800FE01050107C
:101E200048104810480F881FC0124012401240123C
:101E3000400D801FC0004000400040004070001C6A
:101E40000013C0104010401FC070000F80124012DD
:101E500040124012400B8010400840058002001FD5
:101E6000C002000580084010400880124012401255
:101E7000400D801FC004000200010000801FC01F31
:101E8000C004080210011000881FC01FC002000219
:101E900000058008401040100010000FC0004000F6
:101EA0004000401FC01FC00080010006000100006C
:101EB000801FC01FC002000200020002001FC00FEE
:101EC0008010401040104010400F801FC0004000A4
:101ED00040004000401FC0FFC01080104010401064
:101EE000400F800F801040104010401040088000CC
:101EF0004000401FC00040004000C087007800182C
:101F000000070000C00F80104010401040FFF81084
:101F100040104010400F8018C00500020005001856
:101F2000C01FC010001000100010001FC070000380
:101F3000C004000400040004001FC01FC0100010F3
:101F40000010001FC01000100010001FC01FC010A4
:101F500000100010001FC01000100010001FC07003
:101F600000004000401FC01100110011000E001FB2
:101F7000C01100110011000E0000001FC01FC01191
:101F800000110011000E0008801040124012401293
:101F9000400F801FC0020002000F80104010401050
:101FA0004010400F8011800A400640024002401F4E
:101FB000C00F8012501240124012500B802F636DE0
:101FC00064004D5149736470000D0A436F6E74656F
:101FD0006E742D547970653A206170706C6963611C
:101FE00074696F6E2F782D7777772D666F726D2DF0
:101FF00075726C656E636F6465640D0A0D0A00434B
:102000006F6E74656E742D4C656E6774683A20004F
:102010000D0A557365722D4167656E743A207467B9
:10202000722F312E310D0A4163636570743A202A94
:102030002F2A0D0A436F6E6E656374696F6E3A20C6
:10204000636C6F73650D0A000D0A002048545450EC
:102050002F312E310D0A486F73743A2000504F53C0
:102060005420000D0A557365722D4167656E743AF0
:10207000206D656761640D0A4163636570743A2081
:10208000746578742F68746D6C0D0A0D0A00204811
:102090005454502F312E310D0A486F73743A20007A
:1020A00047455420000001080006040001450000D7
:1020B00082000040002011241FBECFEFD1E2DEBF1E
:1020C000CDBF00E00CBF16E0A0E0B2E0ECE8FFE21C
:1020D00001E00BBF02C007900D92A635B107D9F7FA
:1020E0002FE0A6E5B6E001C01D92A333B207E1F7E9
:1020F0000E94172E0C94C4970C9400008FEF8093CD
:10210000180208950F931F93CF93DF93EB0140E3E1
:1021100050E0BC0182E39EE00E9415946AEB72E0FD
:1021200082E39EE00E94B99310926A0E20916A0E9B
:102130002430C8F40097B9F08E01020F111D4AE057
:1021400050E060E070E00E947292F801608380913C
:102150006A0E8F5F80936A0E6AEB72E080E090E017
:102160000E94B993E3CF822FDF91CF911F910F91FE
:102170000895613049F4DA01EAE6F2E08D91819345
:1021800082E0E037F807D1F70895623049F4DA01C8
:10219000E0E5FDE08D9181938DE0E635F807D1F71C
:1021A0000895E091CB0DF091CC0D908121E030E0CD
:1021B000082E01C0220F0A94EAF7922B908308950B
:1021C000E091C50DF091C60D208181E090E0009076
:1021D000110202C0880F991F0A94E2F7282B20836E
:1021E0000895F894E091C50DF091C60D908121E01D
:1021F00030E001C0220F8A95EAF7322F3095932301
:102200009083E091CB0DF091CC0D8081822B808367
:102210008BED95E00197F1F700C00000E091CB0D48
:10222000F091CC0D808183238083EAEDF0E031973B
:10223000F1F700C0E091C50EF091C60E8081E1E09B
:10224000F5E03197F1F7789482230895F894E091BE
:10225000C50DF091C60D408121E030E0062E01C091
:10226000220F0A94EAF7922F909549234083E09138
:10227000CB0DF091CC0D3081322B308329E22A95A1
:10228000F1F700C0882339F0E091CB0DF091CC0D2F
:1022900080818923808385EE8A95F1F70000E091A3
:1022A000CB0DF091CC0D80818923808378940895A3
:1022B000F894E091C50DF091C60D908121E030E0D9
:1022C000082E01C0220F0A94EAF7322F309593238B
:1022D0009083E091CB0DF091CC0D9081922B908367
:1022E00094E09A95F1F70000E091CB0DF091CC0DC0
:1022F0009081932390839AE39A95F1F70000E091FF
:10230000C50EF091C60E20819BEB9A95F1F700C0A7
:10231000789430E002C0359527958A95E2F7822FB0
:10232000817008951F93CF93DF93D82F162FC9E0A4
:10233000C15031F0612F8D2F817088DFD695F8CF95
:10234000DF91CF911F9108951F93CF93DF93182FA3
:10235000D9E0C0E0D15049F0812FAADF20E8829F68
:10236000C0011124C695C82BF5CF8C2FDF91CF91DA
:102370001F910895EF92FF920F931F93CF93DF93D6
:10238000182FF62EEA01E22E2CDF811163C0612F97
:10239000F11003C08CECC6DF09C085E5C3DF00E0A7
:1023A000612F8991BFDF0F5F0830D1F7612F8EEB6E
:1023B000B9DF812FC9DFC82F812FC6DFD82FF110D9
:1023C00012C0812F0EDF612F8CECACDF612F84E413
:1023D000A9DFEE2DF0E0EE0FFF1FEF51F14F2BE9DB
:1023E00030E031832083E091CB0DF091CC0D9081D2
:1023F00021E030E0012E01C0220F0A94EAF7922B6F
:102400009083E091C50DF091C60D9081922B908341
:10241000EC2FE295EF702D2F277080E1289F90011F
:102420001124E22BCF7041E752E0C49FC001C59F49
:10243000900D1124D7FF03C0EF578051974264E6F7
:1024400070E00E949490CB0124E6E202800D911D81
:10245000112402C088EC92E3CDB7DEB7E6E00C941D
:10246000329198E02CE8362F3827869530FD822768
:1024700066959150C1F708951F93CF93DF93C82FAE
:10248000B0DE6C2F8CEC4EDF6C2F85EF4BDF14E051
:102490008C2F5ADFD82FDF7082958F70482F50E035
:1024A0002D2F30E0209530952F703327421753079A
:1024B00011F410E003C0115059F71FEF8C2F91DE7B
:1024C0001F3F09F4DFEF8D2FDF91CF911F9108950A
:1024D000FF920F931F93CF93DF93C82FD62FDC6FFC
:1024E00014E00D2F00958C2F7CDE6C2F8CEC1ADF06
:1024F0006C2F8AE517DF6C2F8D2F14DF6C2F802F48
:1025000011DF8C2F21DFF82E8C2F1EDF8AEAF816C0
:1025100011F0115041F78C2F64DECDB7DEB7E5E046
:102520000C94339146EE5FE060E070E086E499E061
:102530000C94AB76DC012C912F3229F5FC013196FD
:1025400080E0BF019191903231F09F3221F0BF01C4
:102550008F5F8630B1F790E0681B790BE9E4FDE00E
:10256000DF010D900020E9F7AD01415051094954B8
:102570005D404817590739F4CF010E940794892B11
:1025800011F481E008958FEF08958234A1F467304B
:1025900019F48CE890E01FC0663019F48AE890E0E6
:1025A0001AC0653019F488E890E015C06430B9F4B9
:1025B00083EB90E010C0853491F4633019F488E91E
:1025C00090E009C0643019F48AE990E004C06530F5
:1025D00031F48CE990E09093630E8093620E08953D
:1025E000863419F481E390E01DC0853419F48EE23D
:1025F00090E018C0823419F485E290E013C087346B
:1026000019F484E390E00EC0843419F48BE290E076
:1026100009C0813419F482E290E004C0833431F4BB
:1026200088E290E09093C90E8093C80E0895863496
:1026300079F481E390E09093C60D8093C50D80E31B
:1026400090E09093CC0D8093CB0D8FE290E065C02D
:10265000853479F48EE290E09093C60D8093C50D99
:102660008DE290E09093CC0D8093CB0D8CE290E0C6
:1026700054C0823479F485E290E09093C60D809343
:10268000C50D84E290E09093CC0D8093CB0D83E256
:1026900090E043C0873479F484E390E09093C60DD2
:1026A0008093C50D83E390E09093CC0D8093CB0D88
:1026B00082E390E032C0843479F48BE290E090932E
:1026C000C60D8093C50D8AE290E09093CC0D809367
:1026D000CB0D89E290E021C0813479F482E290E070
:1026E0009093C60D8093C50D81E290E09093CC0D40
:1026F0008093CB0D80E290E010C0833491F488E2A7
:1027000090E09093C60D8093C50D87E290E0909382
:10271000CC0D8093CB0D86E290E09093C60E809313
:10272000C50E0895A1E0B0E0E8E9F3E10C94199139
:10273000182F862F49837BDF4981113319F4842FA9
:1027400030DD0EC0E091CB0DF091CC0D808121E009
:1027500030E001C0220F4A95EAF720952823208314
:102760002196E3E00C943591CF93C82F833038F550
:102770008091130235DFC13089F4E091C80EF091E9
:10278000C90E208181E090E00090710602C0880FA0
:10279000991F0A94E2F7282B208328C0C23079F4CD
:1027A000E091C80EF091C90E208181E090E0009088
:1027B000710602C0880F991F0A94E2F714C0C33053
:1027C00011F4FEDC13C0C43089F4E091C50DF09122
:1027D000C60D208181E090E00090110202C0880FB8
:1027E000991F0A94E2F7809582238083CF91089500
:1027F000CF93C82F809112021ADFC13079F4C091B3
:1028000071068091130213DF8C2FCBDCC091110273
:10281000809112020CDF8C2FC4DC15C0C23061F035
:10282000C43079F4C09111028091120200DF8C2F24
:10283000B8DCC6DC81E098DF84E096DF82E094DFDC
:1028400005C084E091DF81E08FDFBADCCF9108958D
:10285000EF92FF920F931F93CF93DF93E82E809117
:102860001202E5DEC7E0D0E0F12C01E010E022E347
:102870002A95F1F7E091C50DF091C60D80911102F6
:1028800097010C2E02C0359527950A94E2F720FF98
:102890000AC02081A80102C0440F551F8A95E2F7A3
:1028A000242B20830BC02081A80102C0440F551F98
:1028B0008A95E2F7CA0180958223808381E054DF04
:1028C00082E052DF84E050DF219788F640911102C8
:1028D0006091120280E326DF81E046DFE091C50EC1
:1028E000F091C60E808190E00090110202C0959593
:1028F00087950A94E2F78170992721E08227C82FF3
:10290000C17082E031DF84E02FDFD091110280912D
:1029100012028DDE8D2F45DC8C2FCDB7DEB7E6E0C1
:102920000C943291EF92FF920F931F93CF93DF930A
:10293000E82E409111026091120280E3F3DE809153
:10294000120275DE82E010DFC7E0D0E0F12C01E07A
:1029500010E081E009DFE091C50EF091C60E208104
:1029600030E00090110202C0359527950A94E2F7F5
:1029700020FD09C098010C2E01C0220F0A94EAF72D
:102980002095F22207C098010C2E01C0220F0A9454
:10299000EAF7F22A82E0E8DE2197D8F6C091110228
:1029A0008091120244DE8C2FFCDB81E0DDDE81E0D1
:1029B000E81202C005DC02C084E0D6DE82E0D4DE8C
:1029C000409111026091120280E3ACDE8F2DCDB7F1
:1029D000DEB7E6E00C943291A3E2B0E0E2EFF4E17E
:1029E0000C940A911C016B8F4E8F2C8B86E496E41D
:1029F000A0E08E879F87A88B8B879C87AD871092DE
:102A00006A0E23E02D8B1B8A612C44244394512CA5
:102A1000862F90E0AC01440F551F445E574F588FEE
:102A20004F8B9C012458394F3A8F298F58A34F8FD1
:102A3000AE014F5F5F4F5A8B498B9C012A5F364F27
:102A40003AA329A320916A0EA22EB12CF101019084
:102A50000020E9F73197E219F309AE16BF0608F036
:102A6000F3C4A20CB31CD5013C913A3039F486E48E
:102A70008E878F871F821B8A612CD4C43A3329F436
:102A80004B89433009F0BCC48AC03B3309F4BBC452
:102A9000303709F4BAC4313609F4BAC4353609F40A
:102AA000BAC4333709F050C006E019E08DEAA82E09
:102AB00080E0B82E9AE1C92E92E0D92E28EBE22EC2
:102AC00028E0F22ED8018D918D01813071F5F6014B
:102AD00080819181DC017D90CD010E9483934C0126
:102AE000682F872D52DD872DA2DDF701808181308F
:102AF00049F4E091620EF091630E60817181615042
:102B000080F413C0E091C50DF091C60D808190E076
:102B1000082C02C0959587950A94E2F780FF05C0BE
:102B200060E070E0C5010E940297F2E0AF0EB11CB8
:102B300022E0C20ED11C3FEFE31AF30A49E00D3246
:102B4000140709F0BFCF6EC4313409F467C43234BE
:102B500009F466C43C3709F477C43B3209F468C40D
:102B60003E3709F467C43D3209F467C45B895111EB
:102B700007C08E85863411F03F8754C43E8752C407
:102B80004B89473039F48B85863411F03C874AC431
:102B90003B8748C45B89513041F0543031F08B8918
:102BA0008550823008F019C30CC03B8D343649F093
:102BB000A9A1BAA18C91811104C0EF89F88D11826D
:102BC00010828F85863409F41F86CE010E960E94EE
:102BD00083938E8BE82EFF24E7FCF0948701000F8F
:102BE000111FF801E65EFD4F80819181DC017D902F
:102BF000CD010E9483936C01F50180818E3761F4D1
:102C0000F801ED5FF84F80819181029719F426E079
:102C10002B8B02C035E03B8B6C2D872DB6DC872DCE
:102C200006DD80916A0E5101A80EB11CD5012C91D0
:102C3000F701E753F84F4F012E3529F480818111B8
:102C400009C081E0A4C2263741F48081811102C00D
:102C500082E09DC2D4011C929BC2283771F410827D
:102C600086E48E878F87F801E755F94F118210822D
:102C7000F701E458F94F108291C21082F701E8542D
:102C8000F74F9081913009F0F1C0F701EA5FF64FFC
:102C90009081913009F033C18F5F90E0F101019094
:102CA0000020E9F73197E219F3098E179F0740F4E6
:102CB000F101E80FF91F80818A53823008F0CAC001
:102CC000862D90E0E7E0F0E0EC0FFD1FE80FF91F24
:102CD0002083FE01E80FF91F1086B2E47B1619F07D
:102CE000E5E47E12B1C0CE0107960E948393F801FD
:102CF000E45EF74F918380832B89243051F4A091B7
:102D0000620EB091630E8D919C91892B11F011820E
:102D10001082C80182509F4F0E94E696F801E65942
:102D2000F74F918380833B89353008F47CC0AF89AD
:102D3000B88D8D919C91009771F5E98DFA8D808108
:102D4000811159C0E091620EF091630E80819181F2
:102D5000892B21F0D5018C918E3719F02B892530E4
:102D600041F011821082F801ED5FF84F51824082EC
:102D70006BC0D701A458B94F8C91811102C08FEF5D
:102D80008C938C9190E09183808382E090E0F801B5
:102D9000ED5FF84F57C0019709F041C0E091620E16
:102DA000F091630E3B89353049F4808191818F3FEA
:102DB000910580F48081918101960AC04B8946304B
:102DC00049F480819181892B29F08081918101973B
:102DD0009183808381E0A98DBA8D8C9383E090E00C
:102DE000AF8DB8A18D939C9380819181F701E458B8
:102DF000F94F808329C0813091F4F801ED5FF84FDD
:102E000080819181029728F482E090E09183808311
:102E100002C051824082E98DFA8D108215C0A98DC1
:102E2000BA8D1C9211C0009751F4E091620EF0919E
:102E3000630ED801A45EB74F8D919C9103C0F80139
:102E4000E152F24F9183808386E48E878F871F82C1
:102E5000612CA4C12A3209F49FC1E7E0F0E0EC0F35
:102E6000FD1FE60DF11D2083639498C1923009F097
:102E700046C03D89333009F442C08C2DFDDA682FFD
:102E800066956B7F80916A0EF101E80FF11D8081DC
:102E9000813359F0833321F44C894130F1F405C07A
:102EA000843369F45C8951111CC0C2010D8802C0D1
:102EB000880F991F0A94E2F7809568231DC082331A
:102EC00049F492010D8802C0220F331F0A94E2F7E1
:102ED000622712C0803381F407C02C89222321F09D
:102EE0000BC03C89313041F492010D8802C0220FA1
:102EF000331F0A94E2F7622B8C2DEADA49C1F701FD
:102F0000EA5FF64F8081843009F0F5C0F701E152A5
:102F1000F74F8081843109F07CC0CE010B960E946E
:102F200083935C01D82E70921202C0921102F801B4
:102F3000E659F74F0190F081E02DEE0FFF1FE65E9E
:102F4000FD4F80819181DC012D91CD0120931302F1
:102F50000E9483938093710681E04ADC82E048DC22
:102F600080E476DCF701EE55F84F8081813041F442
:102F7000B7E0BA1528F489E16BDCE8E0FE2E03C067
:102F800089E066DCF12C83E033DC82E031DC81E433
:102F90005FDC81E0C7DCE82E83E02ADC80916A0EEA
:102FA000F101E80FF11D2081BB248F2D90E0A81ABC
:102FB000B90A213349F4F20102C0EE0FFF1FAA94AF
:102FC000E2F75F01AE2814C0223349F4920102C037
:102FD000220F331FAA94E2F75901AE2409C0A201BF
:102FE00002C0440F551FAA94E2F75A01A094AE20E4
:102FF00081E0FEDB82E0FCDB80E42ADCFF2011F0D4
:1030000089E101C089E024DC8A2D22DC83E0F0DB49
:10301000BFC0843009F06FC05E89563259F483E432
:1030200080931302109271068093120281E08093C4
:10303000110219C070921202C0921102F801E659F1
:10304000F74F0190F081E02DEE0FFF1FE65EFD4F80
:1030500080819181DC012D91CD01209313020E948A
:1030600083938093710681E0C3DB82E0C1DB209112
:103070006A0EFE01379680E090E0A101420F511DDB
:103080009A01482FD901A80FB91F5C915B3341F019
:10309000552331F0519301968330910591F743E028
:1030A000E7E0F0E0EC0FFD1FE40FF11D1082CE0110
:1030B00007960E9483937C01982F88E79BA3C8DB27
:1030C00080E0C6DB9BA1913011F48FEA09C0911119
:1030D00002C08EEA05C09F3F21F081E8B9DB8E2D4A
:1030E000B7DB82E085DB81E08093800710927E076A
:1030F00010927D074DC0213359F0233321F45C89B0
:103100005130B9F405C0243389F42C89211115C03C
:10311000E091C50DF091C60D8081A20102C0440F5F
:10312000551FCA94E2F76A01842B29C02033C1F4E9
:1031300007C05C89552321F023C02C89213001F57B
:10314000E091C50DF091C60D8081A20102C0440F2F
:10315000551FCA94E2F76A01C094C822C08210C009
:10316000223371F4E091C50DF091C60D8081D2013A
:1031700002C0AA0FBB1FCA94E2F76D018A278083A1
:10318000F701EC58F14F8081843610F48C5980831C
:1031900086E48E878F8702C024E02B8BD4018C912C
:1031A00018160CF03FC120916A0EF101E20FF11DDB
:1031B000818190ED980FF801E45EF74F9A3050F45A
:1031C000992787FD9095C097918380832F5F2093E7
:1031D0006A0E28C11182108225C14B89423009F044
:1031E0004AC0862D90E0E1E0F0E0EC0FFD1FE80F13
:1031F000F91F3083FE01E80FF91F1282639481E00A
:10320000820F90E0F10101900020E9F73197E21977
:10321000F3098E179F0740F4F101E80FF91F808131
:103220008A53823008F0FEC012E0120F5E8D150F37
:10323000173108F0F7C03B8DE32EF12CCE0101963B
:103240000E948393F701EE0FFF1FE755F94F24E12A
:10325000AC01249FC001259F900D11249183808390
:10326000F701E458F94F108385E0A989BA891D92C6
:103270008A95E9F7E9C03B89333009F0D3C02F5F65
:1032800020936A0E9AE1C92E92E0D92E46E059E0C9
:103290005D8F4C8F24E7E22E2EE0F22E38EBA32E2A
:1032A00038E0B32E88248A94912C53E0752ED601F1
:1032B0008D919D916D01FC012191CF012E8B0E947A
:1032C00083938C018E89B3D9AC8DBD8D8D91BD8FCB
:1032D000AC8F813009F087C0F50180818230D9F44C
:1032E00080916A0EF101E80FF11D8081813309F4AC
:1032F000A7C0803309F4A6C0823309F074C0802FC0
:10330000BBD8682F66956B7F6725643008F06BC06B
:10331000802FDED868C0813041F5602F8E8935D985
:1033200080916A0EF101E80FF11D8081803329F44C
:10333000E091620EF091630E12C0813329F4E091A6
:10334000620EF091630E0EC0823309F04CC0E09122
:10335000620EF091630E80819181892B19F01182A8
:10336000108241C0918280823EC080916A0EF1013C
:10337000E80FF11D8081813371F4E091C50DF0916A
:10338000C60D8081920102C0220F331F0A95E2F719
:103390008901822B21C0803381F4E091C50DF09129
:1033A000C60D8081A20102C0440F551F0A95E2F7A5
:1033B0008A0100950823008310C0823371F4E091E4
:1033C000C50DF091C60D8081D20102C0AA0FBB1FAE
:1033D0000A95E2F78D018A278083F7018081843680
:1033E00010F48C598083FFEFEF1AFF0A2FEFA21A17
:1033F000B20A36E6C31632E0D30609F058CF12C03F
:1034000041E04B8B0FC01B8A0DC052E05B8B0AC0A2
:1034100023E02B8B07C037E03B8B04C01D8A02C022
:1034200041E04D8B80916A0E8F5F80936A0E0ACBCC
:1034300055E004C045E04B8BB2CB56E05B8BAFCB85
:1034400060E066CF63E064CFA396E2E10C9426913E
:10345000AFE1B0E0EEE2FAE10C941491322F2732A2
:1034600040F4E22FF0E0EE0FFF1FED5FF84F118206
:103470001082DE0111967D015E96F7011192EA1726
:10348000FB07E1F7032F10E0F801EA5FF64F208118
:10349000233031F4F801E152F74FE081E43011F0CC
:1034A000373210F0EFEF01C0E1E0E0931802F801CD
:1034B000E35EF24FE081E1FF05C0883C910509F031
:1034C000A7C0A9C0883C910509F059C06A5B764F36
:1034D000FB01D12CC12CDF01A61BB70BCA014D3D4E
:1034E000510510F08CED90E0A817B90718F58191FF
:1034F0008D3011F08A3041F4B2E0DB1641F080816A
:103500008A3049F7D394E7CF92E0D91211C08F3EA9
:1035100049F0982F9B7F9B3B29F0D701AC0DB11D43
:103520008C93C394ACE1AC1528F0A2E0DA2ED3CF93
:10353000D12CD1CFF701EC0DF11D108289818823A8
:10354000F1F08A818436D9F0F70101900020E9F783
:103550003197D701AE17BF0761F08D918037D1F752
:10356000B70181E897E00E94009423E040E06CE21C
:1035700003C023E040E064E6C7012EDA4CC0F80146
:10358000E854F74F8081811107C0F801E051F84FEE
:1035900080818F3F61F410C0823039F4F801E0512E
:1035A000F84F80818E3F19F407C0813029F0211136
:1035B00003C08A81843679F5373268F581E0F801F5
:1035C000E753F84F808380E3E2E3FEE0DF011D92E2
:1035D0008A95E9F727E1209FB001219F700D112402
:1035E0006C507B4F47E150E0CF013F8F0E94CE9659
:1035F0008091320E8F5F3F8D823050F0F801E051A4
:10360000F84F20812E5F40E0632F82E39EE0E4D9F3
:1036100082E0809318026F96E8E00C943091A1E06C
:10362000B0E0E5E1FBE10C941091482F082F10E089
:10363000B8016854774F7B01DB018C914801880CFD
:10364000991C813099F54E3118F089E290E002C062
:103650008CE290E09093C60E8093C50EF401E65E76
:10366000FD4F8081918101960E948393809374061F
:10367000F401E659F74FC080D180F601EE0FFF1F2D
:10368000E65EFD4F8081918101960E948393B82E62
:10369000BEE1CB16D1041CF089E290E002C08CE2BE
:1036A00090E09093710E8093700E39C0F401E65E45
:1036B000FD4F80819181019649830E948393B82EAA
:1036C00049814E3138F089E290E09093710E8093F9
:1036D000700E06C02CE230E03093710E2093700E15
:1036E000F401E659F74F0190F081E02DEE0FFF1F36
:1036F000E65EFD4FC080D180C60101960E94839393
:1037000080937406F6018081843419F429E230E054
:1037100002C02CE230E03093C60E2093C50E10920A
:10372000CF0D1092D00D1092D10D1092D20D10929B
:10373000D30D1092D40D21E030E002C0220F331FD0
:10374000BA94E2F7B12CC12C78E0D72E40E050E0DB
:10375000B0E081E090E0F4E0FA95F1F700004F5F0F
:103760005F4F483765E0560779F4BA3108F089C0F1
:10377000BB0CBB0CBB0C8091CF0D829586958770DE
:10378000B82AB092CF0D7DC0E091C50EF091C60E63
:103790006081A091740670E00A2E02C0759567954D
:1037A0000A94E2F760FD1EC0AA24A394AB0EB150A8
:1037B000B83108F4DA94AC0102C0440F551FAA9541
:1037C000E2F7DA0164EC79E0408150E04A235B23C0
:1037D000452B09F04BC06150710961157105A1F7C6
:1037E00081E082C0E091700EF091710E608170E016
:1037F00062237323672BE9F5AA24A394AB0EB1507F
:103800004C2D50E0B83180F46FEF6D0DDC0102C03B
:10381000AA0FBB1F6A95E2F7BD01DA01A153B24FAF
:103820007C91762B7C93DA94DA01AE52B24F4FEF53
:103830004D0DBC0102C0660F771F4A95E2F7AB0140
:103840005C91542B5C9371E0A71202C0BB24B3942B
:1038500064EC79E0408150E042235323452B31F45E
:103860006150710961157105A9F7BACFBA2D40E011
:1038700050E0D11003C0C39468E0D62EBA3208F4E9
:103880006ACF8BEE8B0F853068F48091D20D8093D8
:10389000CF0D8091D30D8093D00D8091D40D809366
:1038A000D10D0AC0B43030F48091CF0D869580934D
:1038B000CF0D04C0B53010F083E001C081E08093EB
:1038C000D20DD7018C91813021F4F801E051F84FED
:1038D00009C0F401E659F74F0190F081E02DE05165
:1038E000F84F81E0808380E02196ECE00C942C91ED
:1038F0001F920F920FB60F9211240BB60F922F93B7
:103900003F934F935F936F937F938F939F93AF9367
:10391000BF93EF93FF93F8948EE181DE8111E898D5
:103920007894FF91EF91BF91AF919F918F917F918B
:103930006F915F914F913F912F910F900BBE0F9020
:103940000FBE0F901F9018951F920F920FB60F92F7
:1039500011240BB60F922F933F934F935F936F9366
:103960007F938F939F93AF93BF93EF93FF93F894BD
:103970008FE155DE8111E9987894FF91EF91BF9125
:10398000AF919F918F917F916F915F914F913F91F7
:103990002F910F900BBE0F900FBE0F901F90189598
:1039A0001F920F920FB60F9211240BB60F922F9306
:1039B0003F934F935F936F937F938F939F93AF93B7
:1039C000BF93EF93FF93F89480E229DE8111EA9888
:1039D0007894FF91EF91BF91AF919F918F917F91DB
:1039E0006F915F914F913F912F910F900BBE0F9070
:1039F0000FBE0F901F9018951F920F920FB60F9247
:103A000011240BB60F922F933F934F935F936F93B5
:103A10007F938F939F93AF93BF93EF93FF93F8940C
:103A200081E2FDDD8111EB987894FF91EF91BF91D8
:103A3000AF919F918F917F916F915F914F913F9146
:103A40002F910F900BBE0F900FBE0F901F901895E7
:103A50001F920F920FB60F9211240BB60F922F9355
:103A60003F934F935F936F937F938F939F93AF9306
:103A7000BF93EF93FF93F8948BE1D1DD8111EC9824
:103A80007894FF91EF91BF91AF919F918F917F912A
:103A90006F915F914F913F912F910F900BBE0F90BF
:103AA0000FBE0F901F9018951F920F920FB60F9296
:103AB00011240BB60F922F933F934F935F936F9305
:103AC0007F938F939F93AF93BF93EF93FF93F8945C
:103AD00089E1A5DD8111ED987894FF91EF91BF9177
:103AE000AF919F918F917F916F915F914F913F9196
:103AF0002F910F900BBE0F900FBE0F901F90189537
:103B00001F920F920FB60F9211240BB60F922F93A4
:103B10003F934F935F936F937F938F939F93AF9355
:103B2000BF93EF93FF93F89487E179DD8111EE98CD
:103B30007894FF91EF91BF91AF919F918F917F9179
:103B40006F915F914F913F912F910F900BBE0F900E
:103B50000FBE0F901F9018951F920F920FB60F92E5
:103B600011240BB60F922F933F934F935F936F9354
:103B70007F938F939F93AF93BF93EF93FF93F894AB
:103B800086E14DDD8111EF987894FF91EF91BF911F
:103B9000AF919F918F917F916F915F914F913F91E5
:103BA0002F910F900BBE0F900FBE0F901F90189586
:103BB0001F920F920FB60F9211240BB60F922F92F5
:103BC0003F924F925F926F927F928F929F92AF92AD
:103BD000BF92CF92DF92EF92FF920F931F932F939A
:103BE0003F934F935F936F937F938F939F93AF9385
:103BF000BF93EF93FF93CF93DF93CDB7DEB72797B4
:103C0000DEBFCDBF809170068F5F80937006883CC9
:103C100009F04BC01092700680916F068F5F809301
:103C20006F0690916E06923111F09A3251F48E31F6
:103C300041F4809110028230C1F181E08093100242
:103C400034C08C3391F510926F0631E0390F309308
:103C50006E068091580690915906A0915A06B0912F
:103C60005B060196A11DB11D8093580690935906DD
:103C7000A0935A06B0935B0621E020935C063C3388
:103C8000A1F410926E0680916D068F5F80936D0691
:103C9000883159F410926D0680916C068F5F809385
:103CA0006C06883011F420936C06809151078130A6
:103CB00099F48091140290911502A0911602B0918E
:103CC00017020196A11DB11D809314029093150255
:103CD000A0931602B09317028091170890911808CC
:103CE000A0911908B0911A0883309105A105B1057A
:103CF00058F00197A109B10980931708909318080B
:103D0000A0931908B0931A088091450D9091460D23
:103D10008230910528F001979093460D8093450DD0
:103D20008091480D8F3F69F080917A0690917B06D3
:103D3000813127E2920728F0019790937B068093C8
:103D40007A0686E099E09A83898321EE422E2EE05E
:103D5000522E3AE6832E38E0932E4FEDA42E4DE0FE
:103D6000B42E0CE118E059EAC52E56E0D52E63E0DA
:103D7000E62E67E0F62E7DE1272E7DE0372EEAE184
:103D80006E2EE2E07E2E1F821E827FEFA981BA8115
:103D90002D91BA83A983213009F057C0EE81FF81AC
:103DA000E854F74F8081813009F099C0F401808197
:103DB0009181181619060CF092C0D5018D919C9135
:103DC000009709F48CC0EE81FF81E753F84F208102
:103DD000211185C081309105A9F5F3012081318140
:103DE000C90101962B833C837D830E948393682FB6
:103DF0002B813C81D9018C910E94C512E091620E09
:103E0000F091630E80819181682FD8014D915C9172
:103E10009C0133277D812417350714F461E004C029
:103E2000421753071CF46FEF680F03C0D4011D92B3
:103E30001C92862F90E091838083F4018081918190
:103E4000D5014BC00197F5013BC0D7018D919C91E5
:103E500011970097D9F001978D939C93009751F497
:103E6000F101308131FD06C0E1E0F0E0D601ED93D3
:103E7000FC930CC0D1013C9131FF08C0803A910500
:103E800028F470936A02F70111821082D6018D9195
:103E90009C9111978330910518F001978D939C9315
:103EA000233089F4EE81FF81E152F74F8081843025
:103EB000B1F4F801808191811816190684F40197F4
:103EC000918380830CC021110AC0D8018D919C91EF
:103ED0001197823091051CF001978D939C93F2010C
:103EE00080819181009759F0EE81FF81EE55F84F66
:103EF0002081233021F00197D2018D939C93EE8194
:103F0000FF813196FF83EE83F2E04F0E511C22E0D9
:103F1000820E911C82E0A80EB11C0E5F1F4F92E032
:103F2000C90ED11CA2E0EA0EF11CBFEF2B1A3B0A0E
:103F3000E2E06E0E711C8E819F81869709F026CF7C
:103F400080911002823069F48091010790910207FC
:103F500083309105B0F00197909302078093010799
:103F600010C0E7EFF6E0808191818330910518F071
:103F7000019791838083329697E0E130F90799F7B2
:103F8000E3CF8FB1809530919B0E832790910D02E6
:103F90009823909590930D0220910C0228232927B5
:103FA00020930C0289238223282F232390916B0EC8
:103FB000922B90936B0E382730939B0E8323209186
:103FC000670E282B2093670E8CB180953091640E7C
:103FD000832790910B029823909590930B02209148
:103FE0000A022823292720930A0289238223282FC3
:103FF00023239091660E922B9093660E3827309370
:10400000640E83232091C30E282B2093C30E83B10B
:1040100080953091720E8327909109029823909594
:10402000909309022091080228232927209308024F
:1040300089238223282F23239091CB0E922B9093B8
:10404000CB0E38273093720E83232091CC0E282B71
:104050002093CC0E80B180953091DE0E8327909115
:104060000702982390959093070220910602282337
:1040700029272093060289238223282F2323909126
:10408000D50D922B9093D50D38273093DE0E8323D8
:104090002091730E282B2093730E86B1809530915A
:1040A000C70E83279091050298239095909305025F
:1040B00020910402282329272093040289238223A4
:1040C000282F23239091CA0E922B9093CA0E382743
:1040D0003093C70E83232091D60D282B2093D60D25
:1040E00089B180953091CE0D83279091030298235A
:1040F0009095909303022091020228232927209370
:10410000020289238223282F23239091690E922B68
:104110009093690E38273093CE0D83232091CD0ED6
:10412000282B2093CD0E82B380953091A20E832749
:1041300090910102982390959093010220910002A2
:10414000282329272093000289238223282F232331
:104150009091650E922B9093650E38273093A20EA6
:1041600083232091CD0D282B2093CD0D80917306B4
:104170008C3021F4A0981092730605C0882319F0A2
:104180008F5F8093730681E08093750627960FB644
:10419000F894DEBF0FBECDBFDF91CF91FF91EF91BD
:1041A000BF91AF919F918F917F916F915F914F914F
:1041B0003F912F911F910F91FF90EF90DF90CF9043
:1041C000BF90AF909F908F907F906F905F904F9037
:1041D0003F902F900F900BBE0F900FBE0F901F902F
:1041E0001895F8949091670E892398279093670EFD
:1041F00078940895F89490916B0E89239827909362
:104200006B0E78940895F8949091C30E89239827A3
:104210009093C30E78940895F8949091660E892334
:1042200098279093660E78940895F8949091CC0E08
:10423000892398279093CC0E78940895F8949091C0
:10424000CB0E892398279093CB0E78940895F894F9
:104250009091730E892398279093730E7894089504
:10426000F8949091D50D892398279093D50D789443
:104270000895F8949091D60D892398279093D60DA0
:1042800078940895F8949091CA0E89239827909372
:10429000CA0E78940895F8949091CD0E89239827AA
:1042A0009093CD0E78940895F8949091690E892397
:1042B00098279093690E78940895F8949091CD0D75
:1042C000892398279093CD0D78940895F894909130
:1042D000650E892398279093650E7894089500972A
:1042E00031F023E52A95F1F700000197F8CF089502
:1042F0006AE00E94749020E1829F900D1124892F22
:104300000895982F92959F708F702AE0929F800D4C
:1043100011240895A6E0B0E0E0E9F1E20C941A91CE
:1043200083E4809313021092710644E050E062E04F
:1043300070E0CE0101960E94CE96898191E0980F9F
:10434000923030F0809313028A81805380937106FB
:1043500083E48093120281E08093110244E050E0F4
:1043600060E070E0CE0101960E94CE96898191E0D6
:10437000980F923030F0809312028A81805380939C
:10438000110280911002823009F443C081E00E9442
:10439000F81382E00E94F81380ED0E94281480E058
:1043A0000E94281483E00E94F81382E00E94F81310
:1043B00081ED0E94281480E00E949214A2DF809375
:1043C0006F0680E00E9492149CDF80936E0680E06E
:1043D0000E94921496DF80936D0681E00E949214F1
:1043E00080936C0683E00E94F81380916C068150E4
:1043F000873068F082E08093100210926F0610926E
:104400006E0610926D0681E080936C0602C01092D9
:1044100010022696E2E00C943691CF93DF93C82FDA
:1044200083E00E94F81381E00E94F81382E00E946A
:10443000F81388E70E94281480E00E9428148EEA6E
:104440000E94281485ED0E94281480E80E942814F8
:1044500081E80E9428148C2F90E0880F991F8355C3
:104460009F4F0E94E6968F3F09F48FE70E94281421
:104470008DE80E94281484E10E94281481EA0E9499
:10448000281488EC0E94281486EA0E94281480E2EE
:104490000E94281480E00E94281481E20E942814BF
:1044A00080E00E9428148FE70E94281480E00E9478
:1044B000281482E20E94281480E00E94281487E0D9
:1044C0000E94281483E00E94F81382E00E94F813EF
:1044D00088E70E94281480E40E942814C0E0D4E0F9
:1044E00080E00E94281421972097D1F783E00E9452
:1044F000F81382E00E94F81388E70E94281480E0F5
:104500000E9428148FEA0E94281483E00E94F81366
:10451000DF91CF910895A0E0B0E0E1E9F2E20C94E0
:104520001091D82FC62F7A01D22E809180078A3021
:1045300008F03FC081E00E94F81382E00E94F81367
:1045400088E70E94281480E00E94281480E20E94DC
:10455000281481E00E94281481E20E94281421E09E
:10456000D21202C080E001C08D2F0E9428148FE774
:104570000E94281482E20E94281481E0D81201C00F
:10458000C2E08C2F0E94281421E0D21202C083E0E6
:1045900001C081E08C0F0E94281483E00E94F81370
:1045A00082E00E94F81388E70E94281480E40E94A9
:1045B0002814E091310EF0E0EE0FFF1FE152F24FB0
:1045C00080819181209180070A9751F4213041F434
:1045D0008AE08093800710927E0710927D07D7C0F3
:1045E000213031F484EF91E090937E0780937D0732
:1045F00000E010E0C12C8C2D90E0F701019000202C
:10460000E9F73197EE19FF098E179F0708F08EC062
:10461000F701E80FF91F8081803279F4D11010C0C2
:1046200080E00E94281480E00E94281480E00E940C
:10463000281480E00E94281457C0803208F454C027
:10464000982F9D0D8FED890F803B10F08FEA890F19
:1046500090E021E0D21609F47BC0FC01EE0FFF1FB1
:10466000E80FF91FE750FA4EC491FC01EE0FFF1F4F
:10467000E80FF91FE650FA4EA590B490D0E0CC0FA9
:10468000DD1F88248394912CE92DF0E0EC17FD07C1
:1046900058F5E80DF11D87FCFA95EA0DFB1DE75270
:1046A000F84E84910E94281481949394EDCF209128
:1046B0007D0730917E07C9010A96C817D90708F00F
:1046C0005EC0C217D30708F45AC0EA0DFB1DE75DB0
:1046D000FE4E84910E9428142196EC2FE01BF0E0FE
:1046E000E815F90520F38E0180917D0790917E07F2
:1046F0009C01265F3F4F0217130718F4081719078C
:1047000020F4809180078A3078F480E00E94281499
:1047100080E00E94281481E0D81206C080E00E9448
:10472000281480E00E942814C39465CF80918007EC
:104730008A3039F481E08093800710927E071092CE
:104740007D078FEF8093190283E00E94F8131FC04A
:10475000FC01EE0FFF1FE80FF91FE852FF4E849097
:10476000FC01EE0FFF1FE80FF91FE752FF4EA59067
:10477000B49024E0829E40011124E801AECFC81716
:10478000D90709F0A9CFD0937E07C0937D07CDB795
:10479000DEB7ECE00C942C91CF93DF93C82F81E02F
:1047A0000E94F81382E00E94F81380E80E94281407
:1047B00083E00E94F81382E00E94F81380E80E94D0
:1047C0002814C13011F483EE01C085EE0E94281434
:1047D00083E00E94F8138AEF90E081DD82E00E947E
:1047E000F813C13019F484EA96E002C08CE291E03B
:1047F00076DD81E80E94281488EC90E070DD80E08E
:104800000E949214D82F81E00E9492142D2F30E044
:10481000322F2227282B442737FD4095542F2C7FF9
:1048200044275527A0E1B7E20E94FA909C01552742
:1048300037FD5095452FC13049F4A4EAB4E40E94F5
:10484000FA90605D7F4D8A4C924008C0A4EDB0E3C1
:104850000E94FA9060587D488B45910920E137E22B
:1048600040E050E00E94C990CA01B90124E630E05E
:1048700040E050E00E94C9909F938F937F936F9385
:104880005F934F933F932F9381EE92E09F938F938B
:1048900082E39EE09F938F930E94B29483E00E94F4
:1048A000F8138DB79EB70C960FB6F8949EBF0FBE47
:1048B0008DBFDF91CF910895CF93DF9381E00E9468
:1048C000F81382E00E94F81386E40E94281480E125
:1048D0000E94281483E00E94F81382E00E94F813DB
:1048E00087E40E94281480E00E949214C82F81E07F
:1048F0000E949214D82F83E00E94F813AD2FB0E0ED
:10490000BC2B2AE030E00E94F4902CE030E040E044
:1049100050E00E94C9905F934F933F932F938CEB8D
:1049200092E09F938F9382E39EE09F938F930E94E8
:10493000B2948DB79EB708960FB6F8949EBF0FBE7F
:104940008DBFDF91CF910895ACE0B0E0EAEAF4E2E8
:104950000C941091182F9BE0EFEAF2E0DE01119623
:1049600001900D929A95E1F781E00E94F81382E0A0
:104970000E94F8139E012F5F3F4F790137E1139F8B
:10498000C001112400E010E0FC01EC50FB4F5F017E
:104990009C012B503B4F49018EEE0E942814F701D9
:1049A00081917F010E94281483E00E94F81382E025
:1049B0000E94F8138FEE0E94281480E00E94921447
:1049C000682F6501C00ED11EC6016C870E94DE965D
:1049D0006C85861719F0C6010E94F49681E00E944A
:1049E0009214682F6401C00ED11EC6016C870E940C
:1049F000DE966C85861719F0C6010E94F4960E5F4C
:104A00001F4F0631110541F683E00E94F8132C96E2
:104A1000ECE00C942C91A1E0B0E0E1E1F5E20C9423
:104A20000C91782E81E00E94F81382E00E94F81326
:104A30008CEE0E94281482EF0E94281482E00E94CB
:104A4000281483E00E94F81381E00E94F81382E0AA
:104A50000E94F8138CEE0E94281484EF0E94281400
:104A600087E20E94281483E00E94F81381E00E94EC
:104A7000F81382E00E94F8138CEE0E94281488E854
:104A80000E94281483E00E94F81382E00E94F81329
:104A90008DEE0E94281427E1729EC0011124412C42
:104AA000512C612C44E1749E90011124890107511D
:104AB0001E4FFC01EB50FB4F5F01A90148515E4FB7
:104AC0007A01FC01EC50FB4F4F0180E00E949214F0
:104AD000682FFBE06F1661F06501C40CD51CC601A0
:104AE00069830E94DE966981861761F0C60108C05D
:104AF000C80169830E94DE966981861719F0C80192
:104B00000E94F49680E00E949214682F2BE06216B7
:104B100061F06401C40CD51CC60169830E94DE9655
:104B20006981861761F0C60108C0C70169830E94C8
:104B3000DE966981861719F0C7010E94F496639486
:104B400032E0430E511C4CE06412BFCF80E00E9463
:104B5000921481E00E949214182F83E00E94F813AF
:104B600081E00E94F81382E00E94F8138CEE0E940C
:104B7000281480ED0E94281483E00E94F81382E03C
:104B80000E94F8138DEE0E94281481E00E94921476
:104B9000082F83E00E94F813272D30E084E10036CF
:104BA00009F04FC0829F7001839FF00C1124C70150
:104BB00086519E4F7C010E94DE96811721F0612F65
:104BC000C7010E94F49681E00E94F81382E00E94DF
:104BD000F8138CEE0E94281481EE0E94281483E0C2
:104BE0000E94F81382E00E94F8138DEE0E942814B0
:104BF00094E1799E80011124C12CD12C05511E4FC6
:104C0000E6E0CE1202C081E001C080E00E94921472
:104C1000682F7801EC0CFD1CC70169830E94DE96A9
:104C20006981861719F0C7010E94F496FFEFCF1A29
:104C3000DF0A27E0C216D10419F783E00E94F813B7
:104C400010C0829F8001839F100D112406511E4FBA
:104C5000C8010E94DE968F3F21F06FEFC8010E94CD
:104C6000F4962196E0E10C942891AEE1B0E0EBE3FC
:104C7000F6E20C940A91082F262E81E00E94F81388
:104C800082E00E94F8138EEE0E94281484EF0E94A6
:104C900028148EE20E94281483E00E94F81382E018
:104CA0000E94F81388E09DE30197F1F700C000002F
:104CB0008EEE0E94281486EF0E94281483E00E9442
:104CC000F81382E00E94F8138FEE0E94281480E00F
:104CD0000E949214182F81E00E949214C82E83E043
:104CE0000E94F81397E1099FB00111246C507B4F8B
:104CF00046E150E0CE0101960E94CE96298530E033
:104D0000322F22278A85282BD12CE12CF12CD12A75
:104D10008B8590E0982F88274C85842BC81AD90A58
:104D2000E108F108A8EEB3E00E94E590BFE0959598
:104D3000879577956795BA95D1F7A70196010E9457
:104D4000659028EE33E040E050E00E94C990690190
:104D50007A016B8970E0762F66278C89682B88270B
:104D600077FD8095982F0BE0660F771F881F991F9E
:104D70000A95D1F70D8910E0102F00272E89022BFC
:104D80009801442737FD4095542F2C0D3D1D4E1D95
:104D90005F1D0E94C99049015A018C0C9D1CAE1CDC
:104DA000BF1CA5019401285F3F4F4F4F5F4FAAE002
:104DB000B0E00E94FA9020E130E040E050E00E9434
:104DC000C9902F8B388F498F5A8F81E00E94F8133A
:104DD00082E00E94F8138EEE0E94281484EF0E9455
:104DE000281484E70E94281483E00E94F81383EDBE
:104DF00090E30197F1F700C0000082E00E94F813F1
:104E00008EEE0E94281486EF0E94281483E00E94F0
:104E1000F81382E00E94F8138FEE0E94281480E0BD
:104E20000E949214182F80E00E949214082F81E0B3
:104E30000E949214382E83E00E94F81390EA891A97
:104E40009FE0990AA108B108A5019401C501B40128
:104E50000E94659020E030E140E050E00E94C9905F
:104E60002B8F3C8F4D8F5E8F898190E0982F882704
:104E70002A81822B2C01662457FC6094762C42E018
:104E8000440C551C661C771C4A95D1F7AF85B0E0E1
:104E9000BA2FAA278889A82B2B8D3C8D4D8D5E8D2E
:104EA0000E94FA9020E038E040E050E00E94C99073
:104EB00069017A01AB81B0E0BA2FAA278C81A82BB7
:104EC000A50194010E94049120E038E040E050E008
:104ED0000E94C990C20ED31EE41EF51E4C0C5D1C30
:104EE0006E1C7F1C440C551C661C771C22E0420E75
:104EF000511C611C711CC12ED12CE12CF12C7601AE
:104F0000DD24CC2410E020E030E0322F212F102FC0
:104F10000027C00ED11EE21EF31EC30CD11CE11CE3
:104F2000F11CA7E0F694E794D794C794AA95D1F71B
:104F3000C301B20124E030E040E050E00E94C9909B
:104F4000C21AD30AE40AF50AA8EAB1E6A701960153
:104F50000E94FA906B017C01CC0CDD1CEE1CFF1C46
:104F60000F8110E0102F00278885082BAD81B0E05D
:104F7000BA2FAA278E81A82BA50194010E94049123
:104F800020E030E240E050E00E94C99049015A011F
:104F9000AD85B0E0BA2FAA278E85A82B2B8D3C8D2E
:104FA0004D8D5E8D0E940491412C512C32016394F1
:104FB000A30192010E94C990820E931EA41EB51EE9
:104FC00082E0880E911CA11CB11CC501B40124E033
:104FD00030E040E050E00E94C99030584F4F5F4FA2
:104FE000D8010E94FA9020E030E840E050E00E94B2
:104FF000C990C701B6010E94A79049015A01CA0190
:10500000B90120E031E040E050E00E94C990CA01BF
:10501000B9010E9465909B01AC01AEEDBBE00E941E
:10502000FA90A30192010E94C99069017A01A3E458
:10503000B3EEA50194010E940691A30192010E9482
:10504000C990C20ED31EE41EF51E9FECC90E9EE051
:10505000D91EE11CF11CC701B60120E130E040E09F
:1050600050E00E94C990280D391D4A1D5B1DA0E12A
:10507000B7E20E94FA9024E134E340E050E00E945D
:10508000C990CA01B90122E022122CC0E4E6CE2E5A
:10509000D12CE12CF12CA70196010E94C9909F937D
:1050A0008F937F936F935F934F933F932F936F896A
:1050B000788D898D9A8DA70196010E94C9909F9342
:1050C0008F937F936F935F934F933F932F9380ECD6
:1050D00092E09F938F9382E39EE09F938F930E9431
:1050E000B2941FC021E0221204C06F89788D898D8F
:1050F0009A8D24E630E040E050E00E94C9909F93F2
:105100008F937F936F935F934F933F932F9381EE92
:1051100092E09F938F9382E39EE09F938F930E94F0
:10512000B2940FB6F894DEBF0FBECDBF6E96E2E12B
:105130000C942691A1E3B0E0E0EAF8E20C940A9125
:10514000162FE82EF12C27E1829FB00111246C501C
:105150007B4F46E150E0CE0101960E94CE9684E15D
:105160008E9DB0018F9D700D112468517E4F4AE0D5
:1051700050E0CE0147960E94CE9681E00E94F8133F
:1051800082E00E94F8138CEE0E94281482E00E94B4
:10519000F81387EF0E94281483E00E94F81382E03E
:1051A0000E94F81388E09DE30197F1F700C000002A
:1051B0008DEE0E94281480E00E94921489A780E05E
:1051C0000E949214082F80E00E9492148DA780E024
:1051D0000E949214882E912CA12CB12C80E00E9468
:1051E0009214C82ED12CE12CF12C898D8F3F11F413
:1051F00081E001C080E00E94921490E0A0E0B0E065
:10520000F4E0CC0CDD1CEE1CFF1CFA95D1F72CE071
:10521000880C991CAA1CBB1C2A95D1F7C828D92830
:10522000EA28FB2834E0B695A795979587953A9597
:10523000D1F7C82AD92AEA2AFB2A898D8F3FA9F0FB
:1052400080E00E949214B82E81E00E9492144B2DAF
:1052500050E060E070E08824942EA52EB62E882AB7
:105260008DA29EA2AFA2B8A604C01DA21EA21FA21C
:1052700018A683E00E94F8139A818981292E312C87
:105280002101582AC701B601A4E096958795779524
:105290006795AA95D1F7612C712C64197509860957
:1052A00097099B01AC010E9465909B01AC01BCE099
:1052B0005595479537952795BA95D1F7AD81B0E0CB
:1052C000BA2FAA278E81A82B0E9404914B015C0162
:1052D000A701960193E056954795379527959A959E
:1052E000D1F7440C551C661C771C24193509460956
:1052F0005709AB81B0E0BA2FAA278C81A82B0E9456
:1053000004919B01AC01EBE05695479537952795A5
:10531000EA95D1F7FEE0B594A79497948794FA950F
:10532000D1F7280D391D4A1D5B1D29A33AA34BA3B4
:105330005CA329013A0175946794579447943AEF16
:10534000531A61087108E989FA89C301B201B2E010
:105350009595879577956795BA95D1F79B01AC019F
:105360000E9465906B017C018F848EA698889FA611
:10537000AD84A8AABE84B9AAAB85B0E0BA2FAA278B
:105380008C85A82BA70196019DE0559547953795EB
:1053900027959A95D1F70E9404914B015C0123E077
:1053A000B594A794979487942A95D1F7A985B0E0EE
:1053B000BA2FAA278A85A82BA30192010E940491E3
:1053C0009595879577956795860E971EA81EB91EA9
:1053D00052E1B594A794979487945A95D1F720E811
:1053E000920EA11CB11CAF81B0E0BA2FAA2788850C
:1053F000A82BA50194010E94FA904B015C017FE06B
:10540000B694A794979487947A95D1F781149104D0
:10541000A104B10409F463C2A7019601ABE055955C
:10542000479537952795AA95D1F7AF2FB0E0BE2BBA
:105430000E9404916B017C013FA5A32FB0E04EA513
:10544000B42BA30192010E940491660F771F881F5D
:10545000991FC60ED71EE81EF91E82E0F594E79448
:10546000D794C7948A95D1F759A9852F90E0A8A918
:105470009A2BAA2797FDA095BA2FDC019927882798
:10548000C80ED91EEA1EFB1E3CE0F594E794D794A3
:10549000C7943A95D1F7802F90E0A0E0B0E044E0C7
:1054A000880F991FAA1FBB1F4A95D1F729A5422F24
:1054B00050E060E070E0ECE0440F551F661F771F7E
:1054C000EA95D1F7842B952BA62BB72B3DA5432F1F
:1054D00050E060E070E0F4E0769567955795479569
:1054E000FA95D1F7842B952BA62BB72BC80ED91E76
:1054F000EA1EFB1EABECB3EFA70196010E940691DA
:10550000805B9C4397FD0BC0660F771F881F991F18
:10551000A50194010E94A79049015A010AC0A50162
:1055200094010E94A79049015A01880C991CAA1C59
:10553000BB1CC501B401F3E09695879577956795F7
:10554000FA95D1F72F89F101F22B9B01AC010E9452
:1055500065909B01AC01ADE0569547953795279531
:10556000AA95D1F7DF010E9404916B017C01BCE098
:10557000F594E794D794C794BA95D1F7A50194010F
:1055800082E056954795379527958A95D1F7AD894D
:10559000B0E0BA2FAA278E89A82B0E9404912DE093
:1055A00095958795779567952A95D1F7C60ED71E5D
:1055B000E81EF91E8B8990E0982F88272C89822B72
:1055C000AA2797FDA095BA2FC80ED91EEA1EFB1E6A
:1055D00044E0F594E794D794C7944A95D1F7C80C62
:1055E000D91CEA1CFB1CA0E1B7E2A70196010E94AE
:1055F000FA9024E134E340E050E00E94A79029A70C
:105600003AA74BA75CA7E98DEF3F09F4CAC02E8DDE
:10561000322F3F708D8D40E1849FC0011124832B78
:10562000AA2797FDA095BA2FF4E1880F991FAA1F0A
:10563000BB1FFA95D1F7C12C30E4D32EE12CF12C0D
:10564000C81AD90AEA0AFB0A22952F70AF8D50E1D9
:10565000A59FD0011124A22B49A05AA06BA07CA029
:105660008CE2581A81E0680A7108A30192010E9435
:105670000491C61AD70AE80AF90A8DA19EA1AFA122
:10568000B8A56EE0880F991FAA1FBB1F6A95D1F7B6
:10569000C80ED91EEA1EFB1E7FE0F694E794D7944D
:1056A000C7947A95D1F7A8A1B0E00E94FA904B0177
:1056B0005C01FAE0B594A79497948794FA95D1F792
:1056C000AC8DB0E00E94FA90ABE095958795779508
:1056D0006795AA95D1F770588F4F9F4FA5019401F8
:1056E0000E9465909B01AC01BAE0559547953795AE
:1056F0002795BA95D1F7405E5F4FAB8DB0E0BA2FDA
:10570000AA278A8DA82B0E940491705E8F4F9F4F0D
:105710002EE095958795779567952A95D1F7A701FE
:1057200096010E9465906B017C013FE095958795FD
:10573000779567953A95D1F79B01AC010E946590EA
:105740009B01AC0167E055954795379527956A957C
:10575000D1F7AE2FB0E00E94FA90E4E095958795DE
:1057600077956795EA95D1F7C61AD70AE80AF90A34
:10577000F7FE03C0C12CD12C760191E0C916D104EB
:10578000E10499E1F9062CF0C12CD12CE12C79E14E
:10579000F72E6CE0F594E794D794C7946A95D1F707
:1057A00003C0C12CD12C7601A5E0B0E029A13AA11B
:1057B0004BA15CA10E94FA9060587F4F8F4F9F4F82
:1057C000872E982EA92EBB24A7FCBA94133009F07B
:1057D00051C044E6442E512C612C712C69A57AA548
:1057E0008BA59CA5A30192010E94A7909F938F93E4
:1057F0007F936F935F934F933F932F93C501B401B2
:10580000A30192010E94C9909F938F937F936F93FE
:105810005F934F933F932F9380EC92E09F938F93EE
:1058200002E31EE01F930F930E94B2940FB6F89408
:10583000DEBF0FBECDBF898D8F3F09F450C0C701B9
:10584000B60128EE33E040E050E00E94C9909F93FB
:105850008F937F936F935F934F933F932F931F93F8
:105860000F938AED92E09F938F931F930F930E9463
:10587000B29430C0113039F4C501B40124E630E0EF
:1058800040E050E008C0123049F4C701B60128EEEC
:1058900033E040E050E00E94C9900AC069A57AA5B3
:1058A0008BA59CA524E630E040E050E00E94A79044
:1058B0009F938F937F936F935F934F933F932F9318
:1058C00081EE92E09F938F9382E39EE09F938F936C
:1058D0000E94B2940FB6F894DEBF0FBECDBFE19622
:1058E000E2E10C942691A4E0B0E0E9E7FCE20C943C
:1058F0000C9181E00E94F81382E00E94F81382E587
:105900000E94281480EA0E94281483E00E94281430
:1059100083E00E94F81382E00E94F81382E50E945F
:10592000281481EA0E94281480E00E94281483E051
:105930000E94F81382E00E94F81382E50E94281466
:1059400084EB0E94281483E00E94F81382E00E94F6
:10595000F81383E50E94281480E00E949214082F17
:1059600080E00E94921410E0182B80E00E949214B4
:10597000482E81E00E949214F82E83E00E94F813D2
:10598000512C5F28612C712CD80120EA36E841E0C7
:1059900050E00E94FA906B017C01A301920160EA41
:1059A00070E882E090E00E946590C61AD70AE80A83
:1059B000F90A45EF842E912CA12CB12CC701B60118
:1059C000A50194010E94A79029833A834B835C83AD
:1059D0009801A8E7B6EE0E94E5906B017C01A30157
:1059E000920160EF7FE481E090E00E946590C61A2A
:1059F000D70AE80AF90AC701B601A50194010E9475
:105A0000A79089819A81AB81BC81281739074A0701
:105A10005B0710F49C01AD01CA01B90124E630E036
:105A200040E050E00E94A7909F938F937F936F93E5
:105A30005F934F933F932F9381EE92E09F938F93C9
:105A400082E39EE09F938F930E94B2940FB6F894E6
:105A5000DEBF0FBECDBF2496E0E10C942891CF921B
:105A6000DF92EF92FF92CF93DF9300D01F92CDB7DA
:105A7000DEB781E00E94F81382E00E94F81384E907
:105A80000E94281483E00E94281484E00E94F813E6
:105A900085E90E94281481E00E949214F82E84E087
:105AA0000E94F81384E90E94281484E00E942814BC
:105AB00084E00E94F81385E90E94281481E00E9486
:105AC0009214E82E83E00E94F8138E2D90E09F2917
:105AD0009C0122273F70442737FD4095542F64E0F6
