:100000000C947D110C94E41F0C9410200C943C2053
:100010000C9468200C9494200C94C0200C94EC2038
:100020000C9418210C949E110C949E110C949E110A
:100030000C949E110C949E110C949E110C949E1184
:100040000C949E110C949E110C949E110C949E1174
:100050000C949E110C949E110C9444210C949E11AE
:100060000C949E110C949E110C949E110C949E1154
:100070000C949E110C949E110C949E110C949E1144
:100080000C949E110C949E110C949E110C949E1134
:100090000C949E110C949E110C949E110C949E1124
:1000A0000C949E110C949E110C949E110C949E1114
:1000B0000C949E110C949E110C949E110C949E1104
:1000C0000C949E110C949E110C949E113C2F613E39
:1000D000004578742D494F002F3F70743D256426EC
:1000E00063663D313E00207C203C6120687265667D
:1000F0003D2F003C2F613E002F53434C002F5344B3
:100100004100493243004453002F4431002F443012
:100110000057323600414443004E4300202D20005A
:10012000290025640028003E50002564002F3F7000
:10013000743D003C62723E3C6120687265663D2FF2
:10014000003C62723E2D2D2D003C62723E2D2D2012
:100150005850352F36202D2D002F3F63663D343EFD
:100160005850323C2F613E3C62723E2D2D20585437
:1001700032202D2D002F3F63663D333E5850313CD9
:100180002F613E3C62723E3C6120687265663D2F85
:10019000002F3F63663D313E436F6E6669673C2FBB
:1001A000613E3C62723E2D2D204D4F4453202D2D3B
:1001B0003C62723E3C6120687265663D2F00293CBE
:1001C00062723E3C6120687265663D2F00342E31BC
:1001D000396238004D656761442D32353631206211
:1001E00079203C6120687265663D687474703A2FAE
:1001F0002F61622D6C6F672E72753E61622D6C6F80
:10020000672E72753C2F613E202866773A200032B7
:10021000202D2D0031202D2D003E4261636B3C2F9F
:10022000613E3C62723E2D2D20506F7274732058D7
:100230005000446F6E65003E002076616C75653D30
:10024000003C696E707574206E616D653D6B6579FB
:10025000004E2F4100383E4C617374206B65793A33
:1002600020003E003E20736C6176653A203C696E4A
:10027000707574206E616D653D7072732074797055
:10028000653D636865636B626F782076616C756548
:100290003D3120003E20636D643A203C696E7075EC
:1002A00074206E616D653D7072642076616C756559
:1002B0003D003E3D3C2F73656C6563743E20766166
:1002C0006C75653A203C696E707574206E616D6561
:1002D0003D7072762073697A653D332076616C7566
:1002E000653D003E3C3C6F7074696F6E2076616CBA
:1002F00075653D33003E3E3C6F7074696F6E2076CD
:10030000616C75653D32003E4E3C6F7074696F6E76
:100310002076616C75653D31003E203C73656C65EF
:100320006374206E616D653D7072633E3C6F7074E6
:10033000696F6E2076616C75653D30003E696620A0
:10034000706F72743A203C696E707574206E616DC6
:10035000653D7072702073697A653D332076616CFB
:1003600075653D0070726E2076616C75653D00317B
:10037000303E00656D70747900393E003E00207695
:10038000616C75653D003E204163743A203C696EA6
:10039000707574206E616D653D63726E61002076CC
:1003A000616C75653D00543A203C696E707574202F
:1003B0006E616D653D63726E74003E003E20534475
:1003C000413A203C696E707574206E616D653D63C5
:1003D0007364612076616C75653D003C62723E53CA
:1003E00065742074696D653A203C696E707574207F
:1003F0006E616D653D7374696D653E3C62723E531E
:10040000434C3A203C696E707574206E616D653D99
:100410006373636C2076616C75653D00373E437590
:10042000722074696D653A2000223E3C62723E7310
:100430007276206C6F6F703A203C696E7075742014
:10044000747970653D636865636B626F78206E6177
:100450006D653D736C2076616C75653D31004D6551
:100460006761642D49443A203C696E707574206E52
:10047000616D653D6D646964206D61786C656E6762
:1004800074683D352073697A653D352076616C75F9
:10049000653D2200323E003C62723E557074696DCB
:1004A000653A200057646F673A203C696E70757436
:1004B000206E616D653D70722073697A653D3320F1
:1004C00076616C75653D005363726970743A203CC7
:1004D000696E707574206E616D653D736374206D17
:1004E00061786C656E6774683D31352076616C7536
:1004F000653D22003C62723E00646973636F6E6EFC
:10050000656374656400636F6E6E65637465640033
:100510003E4D5154543C2F73656C6563743E20000E
:100520003E485454503C6F7074696F6E2076616C15
:1005300075653D310053525620547970653A203C20
:1005400073656C656374206E616D653D737276745E
:100550003E3C6F7074696F6E2076616C75653D30DE
:100560000025642E25642E25642E25643A25753ECB
:100570003C62723E003E3C62723E5352563A203C10
:10058000696E707574206E616D653D73697020765B
:10059000616C75653D0047573A203C696E70757413
:1005A000206E616D653D67772076616C75653D25D0
:1005B000642E25642E25642E2564005077643A202D
:1005C0003C696E707574206E616D653D7077642056
:1005D0006D61786C656E6774683D332076616C750B
:1005E000653D220049503A203C696E707574206E5A
:1005F000616D653D6569702076616C75653D25644A
:100600002E25642E25642E256400313E006366206D
:1006100076616C75653D002F3E002F3F63663D3867
:100620003E6942204B6579733C2F613E002F3F634A
:10063000663D393E50726F6772616D3C2F613E00BE
:100640002F3F63663D373E43726F6E3C2F613E0025
:100650002F3F63663D323E4D656761642D49443CE2
:100660002F613E002F3F63663D313E436F6E6669EA
:10067000673C2F613E003E4261636B3C2F613E0050
:100680002F3F63663D31002F3F63663D39003E4298
:1006900061636B3C2F613E3C62723E4D6567614415
:1006A000206973207265737461727465640034002C
:1006B00033002F3F63663D002A003B003E003C6252
:1006C000723E44697370203C696E707574206E616F
:1006D0006D653D646973702073697A653D3220767B
:1006E000616C75653D0026636D643D7363616E3EAC
:1006F000493243205363616E3C2F613E002F3F70AF
:10070000743D003E003C62723E494E54203C696E8E
:10071000707574206E616D653D696E7461207369DA
:100720007A653D332076616C75653D003E003C6224
:10073000723E427269676874203C696E70757420FD
:100740006E616D653D6873742073697A653D332011
:1007500076616C75653D003E504341393638353C15
:100760002F73656C6563743E003E4D4350323330E9
:1007700058583C6F7074696F6E2076616C75653D7A
:100780003231003E535344313330363C6F7074691C
:100790006F6E2076616C75653D3230003E54534C6F
:1007A000323539313C6F7074696F6E2076616C75CB
:1007B000653D34003E4248313735303C6F707469D6
:1007C0006F6E2076616C75653D33003E4D41583447
:1007D000343030393C6F7074696F6E2076616C759F
:1007E000653D32003E424D783238303C6F7074695E
:1007F0006F6E2076616C75653D37003E424D50311D
:1008000038303C6F7074696F6E2076616C75653D31
:1008100036003E4854553231443C6F7074696F6EF7
:100820002076616C75653D35003E414E593C6F70D8
:1008300074696F6E2076616C75653D31003C627243
:100840003E446576203C73656C656374206E616D13
:10085000653D643E3C6F7074696F6E2076616C75A7
:10086000653D30003E003C62723E53434C203C6983
:100870006E707574206E616D653D6D697363207374
:10088000697A653D332076616C75653D003E534362
:100890004C3C2F73656C6563743E003E5344413C91
:1008A0006F7074696F6E2076616C75653D32003EC5
:1008B0004E433C6F7074696F6E2076616C75653D58
:1008C00031003C62723E4D6F6465203C73656C651F
:1008D0006374206E616D653D6D3E3C6F7074696F31
:1008E0006E2076616C75653D30003E003C62723E64
:1008F0004431203C696E707574206E616D653D6D8C
:100900006973632073697A653D332076616C756520
:100910003D003E44313C2F73656C6563743E003E80
:1009200044303C6F7074696F6E2076616C75653D04
:1009300032003E4E433C6F7074696F6E2076616C7E
:1009400075653D31003C62723E4D6F6465203C73BD
:10095000656C656374206E616D653D6D3E3C6F70C6
:1009600074696F6E2076616C75653D300026636D2D
:10097000643D6C6973743E446576696365204C69B7
:1009800073743C2F613E002F3F70743D003E573220
:10099000363C2F73656C6563743E003E69423C6F64
:1009A0007074696F6E2076616C75653D36003E31FE
:1009B000574255533C6F7074696F6E2076616C7549
:1009C000653D34003E31573C6F7074696F6E207620
:1009D000616C75653D35003E44485432323C6F7061
:1009E00074696F6E2076616C75653D33003E4448D6
:1009F0005431313C6F7074696F6E2076616C75652F
:100A00003D32003C62723E53656E203C73656C65FE
:100A10006374206E616D653D643E3C6F7074696FF8
:100A20006E2076616C75653D310020636865636B8F
:100A300065643E203C696E707574206E616D653D25
:100A40006D322073697A653D332076616C75653D42
:100A5000003E486967683C2F73656C6563743E3C73
:100A600062723E536D6F6F7468203C696E7075746E
:100A700020747970653D636865636B626F78206E82
:100A8000616D653D6D6973632076616C75653D319F
:100A9000003E4C6F773C6F7074696F6E2076616CAE
:100AA00075653D32003E4E6F726D3C6F7074696FBC
:100AB0006E2076616C75653D31003C62723E467217
:100AC0006571203C73656C656374206E616D653D76
:100AD00066723E3C6F7074696F6E2076616C7565EE
:100AE0003D30003E003C62723E47726F7570203CA4
:100AF000696E707574206E616D653D6772702073EC
:100B0000697A653D322076616C75653D003E4453DF
:100B1000323431333C2F73656C6563743E003E5351
:100B200057204C494E4B3C2F6F7074696F6E3E3CA2
:100B30006F7074696F6E2076616C75653D32003C34
:100B40006F7074696F6E2076616C75653D33003E21
:100B500050574D003C6F7074696F6E2076616C75F4
:100B6000653D31003E5357003C62723E4D6F6465F7
:100B7000203C73656C656374206E616D653D6D3EF0
:100B80003C6F7074696F6E2076616C75653D3000E6
:100B90003E313C2F73656C6563743E003E303C6FA4
:100BA0007074696F6E2076616C75653D31003C73C1
:100BB000656C656374206E616D653D643E3C6F706D
:100BC00074696F6E2076616C75653D30003C696EAE
:100BD000707574206E616D653D642073697A653D42
:100BE00033206D61786C656E6774683D3320766183
:100BF0006C75653D003C62723E44656661756C745F
:100C00003A20003C62723E526177203C696E7075FA
:100C10007420747970653D636865636B626F7820DA
:100C20006E616D653D642076616C75653D310020B7
:100C30003C696E70757420747970653D6368656396
:100C40006B626F78206E616D653D6D6973632076B0
:100C5000616C75653D31003E433C2F73656C656387
:100C6000743E003E523C6F7074696F6E2076616C0A
:100C700075653D33003E5026523C6F7074696F6E4F
:100C80002076616C75653D32003E503C6F70746932
:100C90006F6E2076616C75653D31003C62723E4D31
:100CA0006F6465203C73656C656374206E616D656F
:100CB0003D6D3E3C6F7074696F6E2076616C75653A
:100CC0003D3000223E203C696E707574207479704E
:100CD000653D636865636B626F78206E616D653D2D
:100CE0006E61662076616C75653D31002F003A2596
:100CF000750025642E25642E25642E2564003E3C57
:100D000062723E4E6574203C696E70757420736922
:100D10007A653D3332206E616D653D65746820767D
:100D2000616C75653D2200223E203C696E707574D1
:100D300020747970653D636865636B626F78206EBF
:100D4000616D653D61662076616C75653D31003C85
:100D500062723E416374203C696E707574206E61EE
:100D60006D653D65636D642076616C75653D22003F
:100D70003E3C62723E487374203C696E707574200C
:100D80006E616D653D6873742076616C75653D00BC
:100D90003E3C3E3C2F73656C6563743E3C62723E24
:100DA00056616C203C696E707574206E616D653D96
:100DB0006D6973632073697A653D342076616C7563
:100DC000653D003E3C3C6F7074696F6E2076616CCF
:100DD00075653D33003E3E3C6F7074696F6E2076E2
:100DE000616C75653D32003E4E6F726D3C6F707484
:100DF000696F6E2076616C75653D31004D6F64657D
:100E0000203C73656C656374206E616D653D6D3E5D
:100E10003C6F7074696F6E2076616C75653D300053
:100E20003C2F73656C6563743E003E414443003C57
:100E30006F7074696F6E2076616C75653D32003E2F
:100E4000493243003E4453656E3C6F7074696F6E67
:100E50002076616C75653D34003E4F75743C6F7053
:100E600074696F6E2076616C75653D33003E496E26
:100E70003C6F7074696F6E2076616C75653D3100F2
:100E80003E4E433C6F7074696F6E2076616C756581
:100E90003D300054797065203C73656C6563742047
:100EA0006E616D653D7074793E3C6F7074696F6EF4
:100EB0002076616C75653D32353500706E20766147
:100EC0006C75653D002F3E003C62723E3C612068BF
:100ED0007265663D2F25732F3F70743D256426652E
:100EE00078743D25643E5025643C2F613E003C6291
:100EF000723E2D2D20506F72747320457874202817
:100F00005043413936383529202D2D003C62723E40
:100F10003C6120687265663D2F25732F3F70743DDC
:100F20002564266578743D25643E502564202D2077
:100F30000029202D2D003038003137003C62723EF0
:100F40002D2D20506F7274732045787420284D43E6
:100F500050323330002F002F0068756D3A002F009B
:100F600074656D703A00203C696E707574207479F8
:100F700070653D7375626D69742076616C75653D51
:100F80007365743E3C2F666F726D3E0050574D3A4C
:100F9000203C696E707574206E616D653D6570777B
:100FA0006D2076616C75653D25642073697A653DB9
:100FB000333E006578742076616C75653D25643E2E
:100FC0000070742076616C75653D25643E002F3E8F
:100FD000003E4F75743C2F73656C6563743E003E34
:100FE000496E3C6F7074696F6E2076616C75653DFB
:100FF000310054797065203C73656C656374206EB4
:10100000616D653D6574793E3C6F7074696F6E20EB
:1010100076616C75653D30006578742076616C751D
:10102000653D25643E0070742076616C75653D25D4
:10103000643E002F3E003C2F613E2000303E003CCD
:101040002F613E2000313E003C6120687265663DA4
:101050002F25732F3F70743D2564266578743D25D8
:101060006426636D643D25646525643A002F003A6B
:10107000303E4F46463C2F613E3C62723E0042008D
:10108000410026636D643D002F3F70743D003A318E
:101090003E4F4E3C2F613E203C6120687265663DAC
:1010A0002F004200410026636D643D002F3F7074A5
:1010B0003D00423A2000413A20002F004E412F4E81
:1010C00041002F003E203C696E7075742074797069
:1010D000653D7375626D69742076616C75653D63FD
:1010E00068616E67653E3C2F666F726D3E003E50D4
:1010F000574D2028302D323535293A203C696E7005
:101100007574206E616D653D70776D2073697A65C9
:101110003D332076616C75653D0070742076616C9E
:1011200075653D002F3E003C62723E3C666F726DFD
:10113000207374796C653D646973706C61793A6988
:101140006E6C696E6520616374696F6E3D2F00502F
:101150004341004D4350003C62723E003C62723E8F
:101160006C75783A003C62723E6C75783A003C626D
:10117000723E6C75783A0074656D703A002F687530
:101180006D3A0074656D703A002F003E4261636BEA
:101190003C2F613E3C62723E5000340033003126E9
:1011A00070743D002F3F63663D003B003A0062755E
:1011B000737900446F6E650026616C6C3D006D6450
:1011C00069643D003F00485454502F312E30203484
:1011D000303120556E617574686F72697A65640D7F
:1011E0000A0D0A556E617574686F72697A656400DC
:1011F00054727920687474703A2F2F69702F707749
:1012000064002F002F002F002F002F002F005025EB
:10121000643A200049503A202564202E202564207D
:101220002E202564202E20256400485454502F3150
:101230002E3020323030204F4B0D0A436F6E7465D4
:101240006E742D547970653A20746578742F6874C3
:101250006D6C0D0A507261676D613A206E6F2D637F
:10126000616368650D0A0D0A002892A5ACAFA5E080
:10127000290082EBAAAB0082AAAB202020004F46B7
:1012800046004F4E00494E004F555400223E3C62EE
:10129000723E003E3C62723E003C62723E00207C28
:1012A000203C6120687265663D2F003C61206872B9
:1012B00065663D2F003E0020636865636B656400D2
:1012C0003C696E70757420747970653D68696464FA
:1012D000656E206E616D653D003C62723E3C696EDC
:1012E00070757420747970653D7375626D697420D2
:1012F00076616C75653D536176653E3C2F666F7215
:101300006D3E003C666F726D20616374696F6E3D67
:101310002F002073656C656374656400160000001F
:1013200000000000000000000000000000000000BD
:10133000000000000000000000000000001658003F
:1013400000000016B0000708010000001624011676
:101350007C0116D401162C0216840216DC02163407
:1013600003168C0316E403163C040F9404000000DB
:10137000000000000000000000000000000000006D
:10138000000000000000000000000000000000005D
:10139000000000000000000000000000000000004D
:1013A000000000000000000000000000000000003D
:1013B000000000000000000000000000000000002D
:1013C00000000000000000000000003E0000003EA1
:1013D0000000003E0000003E0000003E0000003E15
:1013E0000000003E0000003E0000FEFF1F00FEFF68
:1013F0001F00FEFF1F00FEFF1F00003E0000003E1A
:101400000000003E0000003E0000003E0000003EE4
:101410000000003E0000003E000000000000000050
:1014200000000000000000000000000000000000BC
:101430000000000000000000000000000000003E6E
:101440000000003E0000003E0000003E0000003EA4
:101450000000003E0000003E0000003E0000003E94
:101460000000003E0000003E0000003E0000003E84
:101470000000003E00000000FE000000FE00000032
:10148000FE000000FE000000FE000000FE00000064
:10149000FE00F0FF0000FEFF0700FFFF0FC0FFFF90
:1014A0003FC0FFFF3FE0FFFF7FE0FFFF7FF00F0047
:1014B000FFF00300FCF00100F8F00100F8F001007B
:1014C000F8F00100F8F00300FCF00F00FFE0FFFF70
:1014D0007FE0FFFF7FC0FFFF3FC0FFFF3F00FFFF38
:1014E0000F00FEFF0700F0FF0000000000000000FA
:1014F0000000000000001E00F8001E00F8001E00A2
:10150000F8001E00F8001F00F8001F00F8C0FFFFE1
:10151000FFE0FFFFFFE0FFFFFFE0FFFFFFE0FFFF57
:10152000FFE0FFFFFFE0FFFFFF000000F80000000A
:10153000F8000000F8000000F8000000F8000000CB
:10154000F800000000000000F8C00F00F8E00700FD
:10155000FCE00700FEE00300FFF00380FFF001C0A5
:10156000FFF001C0FFF001E0FFF001F0FFF001FC2F
:10157000FBF003FEF9F087FFF8F0FF7FF8E0FF7F54
:10158000F8E0FF3FF8C0FF1FF8C0FF07F880FF0337
:10159000F800FE00F8000000F80000000000000065
:1015A000000000003FC00F007EE007007EE0030067
:1015B0007CE00300FCF00100F8F0810FF8F0810FEF
:1015C000F8F0810FF8F0810FF8F0810FF8F0C30FF9
:1015D000FCF0FF1FFEF0FFFF7FE0FFFF7FE0FFFD5D
:1015E0007FC0FFFC3F807FFC1F001FF80F0000E062
:1015F000030000F0030000F8030000FE030000FFFA
:10160000030080FF0300E0EF0300F0E70300F8E1D0
:101610000300FEE003007FE003C01FE003E00FE0F3
:1016200003E0FFFFFFE0FFFFFFE0FFFFFFE0FFFF42
:10163000FFE0FFFFFFE0FFFFFFE0FFFFFF0000E034
:10164000030000E0030000E00300000000000000D1
:101650003FE0FF0F7EE0FF0F7EE0FF0F7CE0FF0723
:10166000FCE0FF07F8E0FF07F8E0FF07F8E0C3073A
:10167000F8E0C307F8E0C307F8E0C30FFCE0C30FCE
:10168000FCE0C31FFEE0C3FF7FE083FF7FE083FF3A
:101690003FE003FF3FE003FF1FE003FE0F0000F801
:1016A0000300C0FF0000F8FF0700FCFF0F00FFFF72
:1016B0001F80FFFF3F80FFFF7FC0FFFF7FE09F0392
:1016C000FFE0C703FCE0C703F8F0E303F8F0E10331
:1016D000F8F0E103F8F0E107FCF0E10FFEF0E1FFC4
:1016E0007FF0E1FF7FF0C1FF3FF0C3FF3FF083FFDA
:1016F0001F0000FF070000FC0100000000E00300E5
:1017000000E0030080E00300E0E00300F0E00300FD
:10171000FCE00300FFE003C0FFE003F0FFE003F89C
:10172000FFE003FE7FE083FF1FE0E3FF0FE0F3FF36
:1017300003E0FFFF00E0FF3F00E0FF0F00E0FF03DA
:1017400000E0FF0100E07F0000E01F0000E0070074
:10175000000000C007003EF01F80FFF83FC0FFF907
:101760003FC0FFFD7FE0FFFF7FE0FFFFFFF0FF1FB7
:10177000FEF0E307FCF0C10FF8F0C10FF8F0C10F65
:10178000F8F0811FF8F0831FFCF0FF3FFCE0FFFF43
:101790007FE0FFFF7FE0FFFE7FC0FFFC3F807FFC1C
:1017A0001F001FF80F0000E00700FC010000FF070A
:1017B0000080FF0FFCC0FF1FFCC0FF1FF8E0FF3FD1
:1017C000F8E0FF3FF8F0873FF8F0033FF8F0013E04
:1017D000F8F0013EFCF0013EFCF0011E7EF0031E1D
:1017E0007FF00FCE7FE0FFFF3FE0FFFF1FC0FFFF56
:1017F0001FC0FFFF0F00FFFF0300FEFF0000F01FF0
:1018000000003E000080FF0000C0FF0100E0FF0379
:1018100000E0E30300F0C10700F0800700F080075C
:1018200000F0800700F0C10700E0E30300E0FF03E1
:1018300000C0FF010080FF0000003E00000100002A
:101840000302000808000618000B2400083A0001F3
:101850004A00044C00045400055C00076600027452
:1018600000057800018200068400069000059C00B7
:1018700006A60006B20007BE0006CC0006D8000689
:10188000E40006F00006FC00010801020A01070E50
:1018900001071C01072A010538010B420107580105
:1018A000066601077201078001068E01069A01078C
:1018B000A60107B40103C20105C80106D20106DE74
:1018C0000109EA0107FC01080A02061A02082602B9
:1018D000073602074402075202076002076E020B36
:1018E0007C0207920207A00207AE0203BC0206C2F6
:1018F0000203CE0209D40208E60202F60206FA0248
:10190000060603061203061E03062A03053603060F
:101910004003064C03015803045A03056203016C9B
:1019200003096E03068003068C0306980306A403CE
:1019300004B00305B80304C20306CA0306D60309AC
:10194000E20305F40306FE03050A04051404011E60
:1019500004052004082A04063A0407460406540431
:10196000066004066C04097804068A040B960406D3
:10197000AC0407B80407C60406D40409E00409F25D
:1019800004070405081205072205063005073C0573
:10199000074A0507580509660507780508860507FB
:1019A00096050BA4050CBA0509D2050AE40506F84C
:1019B000050704060B120607280606360606420629
:1019C000064E06055A06076406067206097E0605D7
:1019D0009006069A0606A60606B20607BE0607CCBD
:1019E0000606DA0606E60606F20606FE06060A07FA
:1019F000051607062007092C07053E0707480706B6
:101A000056070962070A740707880707960705A49F
:101A10000706AE0709BA0706CC0706D8071BF00071
:101A2000780000007802000E4003C002700E4003F0
:101A3000C00270004010C011207FF8122012200C4C
:101A40002000E001101110091006E001000EC01185
:101A500020111011000E000EE01110111011100ACB
:101A6000E00C001200110000780F80306040108000
:101A7000088008401030600F800050002000F800FF
:101A80002000500100010001000FE00100010001F1
:101A900000400038000100010001000100010018B1
:101AA000006000180006000180006000180FE010C0
:101AB000101010101010100FE0102010201FF01048
:101AC0000010001860141012101210111010E0080D
:101AD0002010101110111011100EE00300028002EE
:101AE0004002201FF002000200080011F011101146
:101AF0001011100E100FC010A01090109010900F29
:101B000000001000101C10031000D000300EE01177
:101B1000101110111011100EE001E012101210122D
:101B2000100A1007E018C0400038C0020005000588
:101B30000008800880104010400480048004800465
:101B400080048004800480104010400880088005D4
:101B50000005000200002000101B10009000600F24
:101B600080104020204F905050505050505FD01067
:101B70002010400F801800070004C0043004C00784
:101B80000018001FF011101110111011E00E0007C5
:101B9000C00820101010101010101008201FF01096
:101BA00010101010101010082007C01FF011101195
:101BB000101110111011101FF0011001100110016F
:101BC00010001007C0082010101010121012101E64
:101BD000201FF0010001000100010001001FF010B2
:101BE000101FF0101010001000101010100FF01F38
:101BF000F0010002800440082010101FF0100010B7
:101C0000001000100010001FF0003000C003000C96
:101C100000030000C000301FF01FF0003000C001C2
:101C200000060018001FF007C00820101010101048
:101C3000101010082007C01FF0021002100210023E
:101C40001001E007C00820101010101010301048CC
:101C50002047C01FF0021002100210051008E0100B
:101C60000008E0111011101110111011100E2000B9
:101C700010001000101FF000100010001007F008F6
:101C800000100010001000080007F000700180062E
:101C900000180006000180007000F0070018000620
:101CA0000001C0003001C006001800070000F01855
:101CB000300440028001000280044018300010000F
:101CC0006001801E000180006000101810141012C6
:101CD0001011101090105010307FF840084008008C
:101CE0001800600180060018006000400840087F6E
:101CF000F80100008000400020001000200040009B
:101D00008001004000400040004000400040004092
:101D1000004000000800100C001240124012401257
:101D2000401F801FF810801040104010400F800F9F
:101D300080104010401040104008800F801040106C
:101D400040104008401FF80F80124012401240120D
:101D5000400B8000401FF00048004800080F8090B2
:101D6000409040904088407FC01FF80080004000B5
:101D70004000401F801FC88000800080407FC81F37
:101D8000F802000500088010401FF81FC000800006
:101D90004000401F800080004000401F801FC000A6
:101DA000800040004000401F800F80104010401015
:101DB0004010400F80FFC010801040104010400FB6
:101DC000800F801040104010400840FFC01FC0002E
:101DD000800040004011801240124012400C400030
:101DE000400FF0104010400FC0100010001000080D
:101DF000001FC000C0070018001800070000C00046
:101E0000C007001800070000C00700180007000006
:101E1000C018C005000200050018C000C087007887
:101E2000001800070000C018401440124011401074
:101E3000C0010001003EF0400840087FF840084023
:101E4000083EF00100010003000080008001000155
:101E5000000200020001801FF01114111011101176
:101E60001411101800070004C0043004C007001843
:101E7000001FF011101110111011100E001FF011A1
:101E8000101110111011E00E001FF00010001000D2
:101E9000100010001070001800170010F010101043
:101EA0001010101FF070001FF01110111011101100
:101EB0001011101010081004E0030001001FF001C1
:101EC00000030004E0081010100820101011101179
:101ED0001011100EE01FF008000600010000C00005
:101EE000201FF01FF008020604010400C400221F96
:101EF000F01FF00100030004E008101010100010A3
:101F0000000FF0001000100010001000101FF01F54
:101F1000F0003000C003000C00030000C000301FC0
:101F2000F01FF0010001000100010001001FF00797
:101F3000C008201010101010101010082007C01F2B
:101F4000F0001000100010001000101FF01FF00231
:101F50001002100210021001E007C008201010103B
:101F6000101010101008200010001000101FF000BA
:101F70001000100010103010C013000C00030000FF
:101F8000C0003003800440082008201FF00820080B
:101F900020044003801830044002800100028004C5
:101FA0004018301FF0100010001000100010001F2B
:101FB000F0700001F0020002000200020002001FA7
:101FC000F01FF010001000100010001FF0100010A3
:101FD00000100010001FF01FF01000100010001083
:101FE000001FF010001000100010001FF070000023
:101FF00010001000101FF011001100110011000E50
:10200000001FF0110011001100110011000E00005E
:102010000000001FF01FF011001100110011000E50
:102020000008201110111011101110092007C01FF5
:10203000F00100010007C00820101010101010104F
:1020400010082007C0100009E0061002100210025C
:10205000101FF00C0012401240124012401F800F5F
:10206000E010501048104810480F881FC01240124E
:1020700040124012400D801FC00040004000400050
:102080004070001C0013C0104010401FC070000FB3
:102090008012401240124012400B80104008400550
:1020A0008002001FC0020005800840104008801216
:1020B00040124012400D801FC004000200010000C9
:1020C000801FC01FC004080210011000881FC01F1D
:1020D000C002000200058008401040100010000FF0
:1020E000C00040004000401FC01FC000800100062B
:1020F00000010000801FC01FC00200020002000299
:10210000001FC00F8010401040104010400F801F73
:10211000C000400040004000401FC0FFC0108010C1
:1021200040104010400F800F8010401040104010B1
:10213000400880004000401FC00040004000C087B1
:102140000078001800070000C00F801040104010F9
:1021500040FFF81040104010400F8018C0050002EA
:1021600000050018C01FC010001000100010001F54
:10217000C0700003C004000400040004001FC01F5E
:10218000C01000100010001FC01000100010001F31
:10219000C01FC01000100010001FC0100010001061
:1021A000001FC07000004000401FC011001100114E
:1021B000000E001FC01100110011000E0000001FD2
:1021C000C01FC01100110011000E00088010401245
:1021D00040124012400F801FC0020002000F80100A
:1021E000401040104010400F8011800A400640020D
:1021F0004002401FC00F8012501240124012500B7C
:10220000802F636D64004D5149736470000D0A4363
:102210006F6E74656E742D547970653A20617070BC
:102220006C69636174696F6E2F782D7777772D668F
:102230006F726D2D75726C656E636F6465640D0AE7
:102240000D0A00436F6E74656E742D4C656E677475
:10225000683A20000D0A557365722D4167656E74EA
:102260003A207467722F312E310D0A416363657015
:10227000743A202A2F2A0D0A436F6E6E65637469C3
:102280006F6E3A20636C6F73650D0A000D0A0020B3
:10229000485454502F312E310D0A486F73743A2030
:1022A00000504F535420000D0A557365722D41673D
:1022B000656E743A206D656761640D0A41636365FC
:1022C00070743A20746578742F68746D6C0D0A0D03
:1022D0000A0020485454502F312E310D0A486F7394
:1022E000743A20004745542000000108000604000D
:1022F0000145000082000040002011241FBECFEFE6
:10230000D1E2DEBFCDBF00E00CBF16E0A0E0B2E03E
:10231000EAEFF4E401E00BBF02C007900D92AE3F7C
:10232000B107D9F720E1AEEFB6E001C01D92A934A4
:10233000B207E1F70E944D320C947BA20C9400008E
:1023400010926608109265088FEF80931802089526
:102350000F931F93CF93DF93EB0140E350E0BC0159
:1023600088E49FE00E94CC9E6AEB72E088E49FE0E4
:102370000E94709E1092800F2091800F2430C8F42C
:102380000097B9F08E01020F111D4AE050E060E0A5
:1023900070E00E94299DF80160838091800F8F5F1B
:1023A0008093800F6AEB72E080E090E00E94709E64
:1023B000E3CF822FDF91CF911F910F91089561306C
:1023C00049F4DA01EAE6F2E08D91819382E0E037A8
:1023D000F807D1F70895623049F4DA01E6E6FEE045
:1023E0008D9181938EE0EC36F807D1F70895E09156
:1023F000E10EF091E20E908121E030E0082E01C064
:10240000220F0A94EAF7922B90830895E091DB0E55
:10241000F091DC0E208181E090E00090110202C07A
:10242000880F991F0A94E2F7282B20830895F894C7
:10243000E091DB0EF091DC0E908121E030E001C0F4
:10244000220F8A95EAF7322F309593239083E091FB
:10245000E10EF091E20E8081822B80838BED95E07E
:102460000197F1F700C00000E091E10EF091E20E5B
:10247000808183238083EAEDF0E03197F1F700C09B
:10248000E091DB0FF091DC0F8081E1E0F5E0319726
:10249000F1F7789482230895F894E091DB0EF0919F
:1024A000DC0E408121E030E0062E01C0220F0A94AC
:1024B000EAF7922F909549234083E091E10EF09145
:1024C000E20E3081322B308329E22A95F1F700C0E9
:1024D000882339F0E091E10EF091E20E80818923AA
:1024E000808385EE8A95F1F70000E091E10EF0918E
:1024F000E20E80818923808378940895F894E09196
:10250000DB0EF091DC0E908121E030E0082E01C05E
:10251000220F0A94EAF7322F309593239083E091AB
:10252000E10EF091E20E9081922B908394E09A95C7
:10253000F1F70000E091E10EF091E20E908193231B
:1025400090839AE39A95F1F70000E091DB0FF09108
:10255000DC0F20819BEB9A95F1F700C0789430E076
:1025600002C0359527958A95E2F7822F81700895EC
:102570001F93CF93DF93D82F162FC9E0C15031F0AE
:10258000612F8D2F817088DFD695F8CFDF91CF91A5
:102590001F9108951F93CF93DF93182FD9E0C0E0C8
:1025A000D15049F0812FAADF20E8829FC001112479
:1025B000C695C82BF5CF8C2FDF91CF911F91089531
:1025C000EF92FF920F931F93CF93DF93182FF62E66
:1025D000EA01E22E2CDF811163C0612FF11003C0EC
:1025E0008CECC6DF09C085E5C3DF00E0612F89916F
:1025F000BFDF0F5F0830D1F7612F8EEBB9DF812F7E
:10260000C9DFC82F812FC6DFD82FF11012C0812F4C
:102610000EDF612F8CECACDF612F84E4A9DFEE2D9F
:10262000F0E0EE0FFF1FE950F04F2BE930E031836F
:102630002083E091E10EF091E20E908121E030E004
:10264000012E01C0220F0A94EAF7922B9083E091A9
:10265000DB0EF091DC0E9081922B9083EC2FE295B3
:10266000EF702D2F277080E1289F90011124E22B1D
:10267000CF7041E752E0C49FC001C59F900D112467
:10268000D7FF03C0EF578051974264E670E00E9485
:102690004B9BCB0124E6E202800D911D112402C068
:1026A00088EC92E3CDB7DEB7E6E00C94E99B98E0C6
:1026B0002CE8362F3827869530FD82276695915075
:1026C000C1F708951F93CF93DF93C82FB0DE6C2F0F
:1026D0008CEC4EDF6C2F85EF4BDF14E08C2F5ADF34
:1026E000D82FDF7082958F70482F50E02D2F30E06B
:1026F000209530952F7033274217530711F410E0BF
:1027000003C0115059F71FEF8C2F91DE1F3F09F4C2
:10271000DFEF8D2FDF91CF911F910895FF920F93DF
:102720001F93CF93DF93C82FD62FDC6F14E00D2FAC
:1027300000958C2F7CDE6C2F8CEC1ADF6C2F8AE5D9
:1027400017DF6C2F8D2F14DF6C2F802F11DF8C2F54
:1027500021DFF82E8C2F1EDF8AEAF81611F01150B7
:1027600041F78C2F64DECDB7DEB7E5E00C94EA9B31
:102770004AE252E160E070E08CE59AE00C946281FC
:10278000DC012C912F3229F5FC01319680E0BF014C
:102790009191903231F09F3221F0BF018F5F8630EE
:1027A000B1F790E0681B790BEFE5FEE0DF010D90DB
:1027B0000020E9F7AD01415051094F555E404817DF
:1027C000590739F4CF010E94BE9E892B11F481E094
:1027D00008958FEF08958234A1F4673019F48CE8DE
:1027E00090E01FC0663019F48AE890E01AC06530A6
:1027F00019F488E890E015C06430B9F483EB90E0F8
:1028000010C0853491F4633019F488E990E009C070
:10281000643019F48AE990E004C0653031F48CE941
:1028200090E09093790F8093780F0895863419F48F
:1028300081E390E01DC0853419F48EE290E018C069
:10284000823419F485E290E013C0873419F484E3EC
:1028500090E00EC0843419F48BE290E009C081341A
:1028600019F482E290E004C0833431F488E290E00D
:102870009093DF0F8093DE0F0895863479F481E31F
:1028800090E09093DC0E8093DB0E80E390E09093D9
:10289000E20E8093E10E8FE290E065C0853479F41A
:1028A0008EE290E09093DC0E8093DB0E8DE290E060
:1028B0009093E20E8093E10E8CE290E054C082345B
:1028C00079F485E290E09093DC0E8093DB0E84E255
:1028D00090E09093E20E8093E10E83E290E043C09B
:1028E000873479F484E390E09093DC0E8093DB0EE0
:1028F00083E390E09093E20E8093E10E82E390E018
:1029000032C0843479F48BE290E09093DC0E8093B3
:10291000DB0E8AE290E09093E20E8093E10E89E272
:1029200090E021C0813479F482E290E09093DC0E53
:102930008093DB0E81E290E09093E20E8093E10EB3
:1029400080E290E010C0833491F488E290E09093AC
:10295000DC0E8093DB0E87E290E09093E20E809392
:10296000E10E86E290E09093DC0F8093DB0F0895F8
:10297000A1E0B0E0EEEBF4E10C94D09B182F862F91
:1029800049837BDF4981113319F4842F30DD0EC078
:10299000E091E10EF091E20E808121E030E001C093
:1029A000220F4A95EAF72095282320832196E3E019
:1029B0000C94EC9BCF93C82F833038F58091130291
:1029C00035DFC13089F4E091DE0FF091DF0F208117
:1029D00081E090E00090870702C0880F991F0A9459
:1029E000E2F7282B208328C0C23079F4E091DE0F73
:1029F000F091DF0F208181E090E00090870702C016
:102A0000880F991F0A94E2F714C0C33011F4FEDC5A
:102A100013C0C43089F4E091DB0EF091DC0E20810C
:102A200081E090E00090110202C0880F991F0A9483
:102A3000E2F7809582238083CF910895CF93C82FAA
:102A4000809112021ADFC13079F4C091870780911A
:102A5000130213DF8C2FCBDCC09111028091120284
:102A60000CDF8C2FC4DC15C0C23061F0C43079F4A7
:102A7000C09111028091120200DF8C2FB8DCC6DCFD
:102A800081E098DF84E096DF82E094DF05C084E097
:102A900091DF81E08FDFBADCCF910895EF92FF9252
:102AA0000F931F93CF93DF93E82E80911202E5DE00
:102AB000C7E0D0E0F12C01E010E022E32A95F1F725
:102AC000E091DB0EF091DC0E8091110297010C2E4B
:102AD00002C0359527950A94E2F720FF0AC02081AD
:102AE000A80102C0440F551F8A95E2F7242B2083CA
:102AF0000BC02081A80102C0440F551F8A95E2F740
:102B0000CA0180958223808381E054DF82E052DF16
:102B100084E050DF219788F6409111026091120203
:102B200080E326DF81E046DFE091DB0FF091DC0FF0
:102B3000808190E00090110202C0959587950A94DB
:102B4000E2F78170992721E08227C82FC17082E0C7
:102B500031DF84E02FDFD0911102809112028DDEEF
:102B60008D2F45DC8C2FCDB7DEB7E6E00C94E99BCA
:102B7000EF92FF920F931F93CF93DF93E82E409134
:102B800011026091120280E3F3DE8091120275DE81
:102B900082E010DFC7E0D0E0F12C01E010E081E03E
:102BA00009DFE091DB0FF091DC0F208130E0009035
:102BB000110202C0359527950A94E2F720FD09C05D
:102BC00098010C2E01C0220F0A94EAF72095F222F8
:102BD00007C098010C2E01C0220F0A94EAF7F22ACE
:102BE00082E0E8DE2197D8F6C091110280911202AE
:102BF00044DE8C2FFCDB81E0DDDE81E0E81202C0E8
:102C000005DC02C084E0D6DE82E0D4DE4091110211
:102C10006091120280E3ACDE8F2DCDB7DEB7E6E027
:102C20000C94E99B1F93CF93DF93182FEB0181E066
:102C300005DF82E003DF80E831DF812F2FDF8C2F7B
:102C40002DDF8D2F2BDF83E0F9DEDF91CF911F91F8
:102C50000895CF93DF93C82F81E0F0DE82E0EEDEAF
:102C600080E81CDF8C2F1ADF83E0E8DE82E0E6DEFE
:102C700081E814DF80E07CDFC82F81E079DFD82F86
:102C800083E0DCDE2D2F30E0922F88278C0F911D02
:102C9000DF91CF910895A0E0B0E0E1E5F6E10C947A
:102CA000C99BB82E3CE1C32E3AE0D32E0AE112E0D4
:102CB000C0E0D0E0E82EF12CC7018854974F7C018A
:102CC000F60181916F01813051F121960E5F1F4F06
:102CD000C732D105A9F7EB2DF0E0EE0FFF1FE65E3E
:102CE000FD4F0190F081E02DC191C093DA0FCF012B
:102CF0000E943A9E80938A078C2FBFDDE091DB0E05
:102D0000F091DC0E208181E090E000908A0702C003
:102D1000880F991F0A94E2F7282B20832AC0DE012E
:102D2000A253B64F8C91833081F6DE01A854B74F81
:102D30009C91F70180819813C8CFF801A081B181DF
:102D4000AD90A092DA0FCD010E943A9E80938A073F
:102D50008A2D93DDA091DB0EB091DC0E2C9130E03A
:102D600000908A0702C0359527950A94E2F720FF64
:102D7000ACCFCDB7DEB7EAE00C94E59BA1E3B0E0C1
:102D8000E4ECF6E10C94C19B4C016FA34BA72E8F92
:102D900086E496E4A0E08E8B9F8BA88F8B8B9C8B18
:102DA000AD8B888B998BAA8B1092800F23E02CA37C
:102DB0001D8E19A222242394312CAE01495F5F4F4E
:102DC0005A8F498F262F30E039A728A7220F331FAB
:102DD0002E5C364F3EA32DA33DA72CA7465051098C
:102DE0005C8F4B8F2091800FA22EB12CF4010190AB
:102DF0000020E9F73197E819F909AE16BF0608F087
:102E00008FC6A80CB91CD5013C913A3049F486E430
:102E10008E8B8F8B1C868B8B8C8B1D8E19A26EC616
:102E20003A3311F03D3321F44D8D433009F052C651
:102E30003B3309F451C6303709F450C6313609F432
:102E400050C6353609F450C6373609F450C6333704
:102E500009F050C00CE11AE059EDA52E51E0B52E55
:102E60006AE1C62E62E0D62E7EECE72E79E0F72EE0
:102E7000D8018D918D01813071F5F60180819181AC
:102E8000DC017D90CD010E943A9E2C01682F872D98
:102E9000A2DC872DF2DCF7018081813049F4E091DA
:102EA000780FF091790F60817181615080F413C0C7
:102EB000E091DB0EF091DC0E808190E0042C02C0EA
:102EC000959587950A94E2F780FF05C060E070E071
:102ED000C5010E94B9A1F2E0AF0EB11C22E0C20E02
:102EE000D11C3FEFE31AF30A4AE00334140709F058
:102EF000BFCF04C6313409F4FDC5323409F4FCC532
:102F00003C3709F40DC63B3209F4FEC53E3709F4DF
:102F1000FDC53D3209F4FDC55D8D511107C08E8997
:102F2000863411F03F8BEAC53E8BE8C54D8D4730A6
:102F300039F48B89863411F03C8BE0C53B8BDEC5C0
:102F40005D8D583039F48889863411F0398BD6C5B7
:102F5000388BD4C54D8D413041F0443031F08D8DEA
:102F60008550823008F079C40EC05FA1543659F004
:102F7000E8A5F9A5E45EF54F8081811104C0ADA1FB
:102F8000BEA11D921C928F89863409F41F8ACE013E
:102F900046960E943A9E2C018AA7E82EFF24E7FC61
:102FA000F0948701000F111FF801E65EFD4F80814C
:102FB0009181FC017190CF010E943A9E6C01D50174
:102FC0008C918E3761F4F801E75EF74F8081918133
:102FD000029719F426E02D8F02C035E03D8F6C2D4D
:102FE000872DF9DB872D49DC6090800FA62CB12C52
:102FF000A4014A0D5B1D5BA34AA3DA018C919701E2
:103000002152374F38A32F8F8E3531F4D9018C914F
:1030100081110CC081E008C0863761F4AF8DB8A182
:103020008C91811103C082E08C93F1C3EF8DF8A1E4
:103030001082EDC3883781F4AF8DB8A11C9286E46D
:103040008E8B8F8BF801E154F84F11821082F701BB
:10305000EE56F84F1082E1C3EF8DF8A11082F70110
:10306000E253F64F9081913009F0F2C0F701E45E2F
:10307000F54F2081213009F034C1960D292F30E021
:10308000F40101900020E9F73197E819F9092E17AA
:103090003F0758F4F401E20FF31F908126EC290F4B
:1030A000223018F09D3309F0C5C049A1242F30E02B
:1030B000ECE0F0E0EC0FFD1FE20FF31F8083FE0158
:1030C000E20FF31F158652E4751619F085E47812A5
:1030D000ABC0CE010C960E943A9EF801EE5CF64F12
:1030E000918380832D8D243051F4A091780FB0917D
:1030F000790F8D919C91892B11F011821082C8015A
:10310000865D9D4F0E949DA1F801E058F64F918386
:1031100080833D8D353008F476C0ADA1BEA18D9180
:103120009C91A8A5B9A5AE56B84F009769F58C91AA
:10313000811157C0E091780FF091790F80819181D2
:10314000892B29F0AAA1BBA18C918E3719F02D8D66
:10315000253041F011821082F801E75EF74F31828D
:10316000208262C0D701AE56B84F8C91811102C047
:103170008FEF8C938C9190E09183808382E090E03C
:10318000F801E75EF74F4EC00197D9F5E091780F4F
:10319000F091790F3D8D353049F4808191818F3FD9
:1031A000910580F48081918101960AC04D8D463051
:1031B00049F480819181892B29F080819181019747
:1031C0009183808381E08C9383E090E0ACA5BDA5E2
:1031D0008D939C9380819181F701EE56F84F808307
:1031E00023C0813071F4F801E75EF74F808191814F
:1031F000029728F482E090E09183808302C03182BC
:1032000020821C9211C0009751F4E091780FF09148
:10321000790FD801AE5CB64F8D919C9103C0F80137
:10322000EB50F14F9183808386E48E8B8F8B1C86CD
:1032300019A2F3C28A3209F4EEC2ECE0F0E0EC0F1E
:10324000FD1F29A1E20FF11D80832F5F29A3E5C295
:10325000923009F046C03CA1333009F442C08C2DB5
:1032600031DA682F66956B7F8091800FF401E80F4B
:10327000F11D8081813359F0833321F44E8D41302B
:10328000F1F405C0843369F45E8D51111CC0C10195
:103290000CA002C0880F991F0A94E2F7809568235A
:1032A0001DC0823349F491010CA002C0220F331FCC
:1032B0000A94E2F7622712C0803381F407C02E8D92
:1032C000222321F00BC03E8D313041F491010CA03E
:1032D00002C0220F331F0A94E2F7622B8C2D1EDAF4
:1032E00096C2F701E45EF54F2081243009F057C102
:1032F000F701EB50F64F2081253109F04DC085E0F4
:10330000A98DBA8D1D928A95E9F7CE0143960E9448
:103310003A9E7C0120E0822F90E0F401E80FF91F33
:10332000EA0DFB1D30813B3311F031112CC08FEFC2
:10333000860D820F8093800F70921202C09211024C
:10334000F801E058F64F0190F081E02DEE0FFF1FDD
:10335000E65EFD4F80819181FC012191CF01209398
:1033600013020E943A9E80938707CE0107960E941F
:103370003A9EBC018E2D880F880F885F53DC86E44F
:103380008B8B8C8B44C2E7E0F0E0EC0FFD1FE80F65
:10339000F91F30832F5FBFCF243109F07BC0CE01EE
:1033A00043960E943A9E5C0170921202C0921102F2
:1033B000F801E058F64F0190F081E02DEE0FFF1F6D
:1033C000E65EFD4F80819181DC012D91CD0120933E
:1033D00013020E943A9E8093870781E02FDB82E0F0
:1033E0002DDB80E45BDBF701E854F74F808181300F
:1033F00041F4B7E0BA1528F489E150DB98E0F92EE2
:1034000003C089E04BDBF12C83E018DB82E016DBA4
:1034100081E444DB81E0ACDBE82E83E00FDB8091CC
:10342000800FF401E80FF11D2081BB248F2D90E067
:10343000A81AB90A213349F4F10102C0EE0FFF1FA7
:10344000AA94E2F75F01AE2814C0223349F4910137
:1034500002C0220F331FAA94E2F75901AE2409C01B
:10346000A10102C0440F551FAA94E2F75A01A0948B
:10347000AE2081E0E3DA82E0E1DA80E40FDBFF20D6
:1034800011F089E101C089E009DB8A2D07DB83E0C7
:10349000D5DABDC1243009F082C05AA5563259F49C
:1034A00083E480931302109287078093120281E0D5
:1034B0008093110219C070921202C0921102F80199
:1034C000E058F64F0190F081E02DEE0FFF1FE65E11
:1034D000FD4F80819181DC012D91CD01209313025C
:1034E0000E943A9E8093870781E0A8DA82E0A6DAFC
:1034F0002091800FFE013C9680E090E0A401420FF5
:10350000511D9A01482FD901A80FB91F5C915B3357
:1035100041F0552331F0519301968330910591F795
:1035200043E0ECE0F0E0EC0FFD1FE40FF11D108232
:10353000CE010C960E943A9EF82E52E0851311C0DF
:1035400089E7ACDA81E014DBE82E83E077DA81E00A
:1035500093E0E91201C080E0F82E81E06FDA82E0AA
:103560006DDA88E79BDA80E099DAA1E0FA1202C00E
:103570008FEA0AC0F11002C08EEA06C0BFEFFB1648
:1035800021F081E88BDA8F2D89DA82E057DA81E049
:1035900080939608109294081092930838C1288955
:1035A000263409F4B1C0CE0140960E943A9E782E8E
:1035B0006AE172E04CE15AE0BAE84B2EBFE05B2EC4
:1035C000C12CD12C97012C5F384F3BA32AA3662432
:1035D0006394DB01AD90BD90BD01C501019648AB80
:1035E00059ABAEA77FA70E943A9E7C01F50180816E
:1035F00044D948A959A9DA018D91AD016EA57FA5DD
:10360000813009F06CC0F601E253F64F80818111E0
:1036100066C0F601E854F74F8081871160C0E091E1
:10362000DB0EF091DC0E2081FF24E7FCF09430E00B
:103630000E2C02C0359527950A94E2F721708091EF
:10364000800FD401A80FB11D8C91813359F08333C1
:1036500021F43E8D313091F405C0843361F43E8D08
:10366000311110C03081C1010E2C01C0880F0A94A5
:10367000EAF7382B1FC0803399F407C03E8D3323FF
:1036800021F019C03E8D3130B1F43081C1010E2CD2
:1036900001C0880F0A94EAF78095832380830BC0CA
:1036A000823349F43081C1010E2C01C0880F0A9485
:1036B000EAF738273083E091DB0EF091DC0E808151
:1036C00090E00E2C02C0959587950A94E2F78170E0
:1036D000821729F0AAA1BBA16C9260922B07F2017C
:1036E0008081843610F48C598083FFEFCF1ADF0A73
:1036F0002FEF421A520A37E2C316D10409F069CFFC
:1037000086E4888B898B83C0E091DB0EF091DC0E20
:103710002081DD24C7FCD09430E00C2C02C035950C
:1037200027950A94E2F7422F4170B42E813359F065
:10373000833321F45E8D5130D1F405C08433A1F47C
:103740002E8D211118C0933031F4D701A854B74FF2
:103750008C918F3F91F52081C1010C2C01C0880F05
:103760000A94EAF7282B34C0803341F012C03E8D12
:10377000332321F02EC04E8D413059F52081C101F7
:103780000C2C01C0880F0A94EAF78095822380836D
:1037900020C08233F1F4933099F4D701A854B74F85
:1037A0008C918F3F69F0808190E00C2C02C0959540
:1037B00087950A94E2F780FD03C0842D6CDA09C076
:1037C0002081C1010C2C01C0880F0A94EAF7282738
:1037D0002083E091DB0EF091DC0E808190E00C2CD8
:1037E00002C0959587950A94E2F781708B1539F0A0
:1037F00081E0F701EC5FF84F808380932B07F7019E
:10380000E657F04F8081843610F48C59808386E42B
:103810008E8B8F8B02C054E05D8FAF8DB8A18C91E1
:1038200018160CF06BC12091800FF401E20FF11D0E
:10383000818190ED980FF801EE5CF64F9A3050F4CC
:10384000992787FD9095C097918380832F5F209360
:10385000800F54C11182108251C14D8D423009F048
:103860004FC059A1852F90E0E1E0F0E0EC0FFD1F83
:10387000E80FF91F3083FE01E80FF91F12825F5F26
:1038800059A381E0820F90E0F40101900020E9F754
:103890003197E819F9098E179F0758F4F401E80FDA
:1038A000F91F808196EC980F923018F08D3309F053
:1038B00025C112E0120F3BA5130F173108F01EC1EE
:1038C0005FA1E52EF12CCE0101960E943A9EF701F0
:1038D000EE0FFF1FE154F84F24E1DC012A9FC001E5
:1038E0002B9F900D112491838083F701EE56F84FA2
:1038F000108385E0EB8DFC8D11928A95E9F710C15C
:103900003D8D333009F0FAC02F5F2093800F4AE1DC
:1039100052E058A34F8F2CE13AE03BA32AA34AE898
:10392000A42E4FE0B42E58EB652E58E0752E00E023
:1039300010E044244A94512C73E0D72EAF8DB8A1E7
:103940008D919D91B8A3AF8FFC01C190CF010E94D2
:103950003A9E7C018C2D0E943D14AAA1BBA18D91A1
:10396000BBA3AAA3813009F0A8C0F801E253F64F27
:1039700080818230E9F48091800FF401E80FF11D1D
:103980008081813309F4C8C0803309F4C7C0823311
:1039900009F093C08E2D0E946213682F66956B7F8D
:1039A0006D25643008F089C08E2D0E948E1385C06D
:1039B000813049F56E2D8C2D0E94EB138091800F84
:1039C000F401E80FF11D8081803329F4E091780F34
:1039D000F091790F12C0813329F4E091780FF091C2
:1039E000790F0EC0823309F068C0E091780FF09132
:1039F000790F80819181892B19F0118210825DC02D
:103A0000518240825AC09091800FF401E90FF11D5C
:103A100090819133A1F4833021F4F30180818F3FB1
:103A2000C9F5E091DB0EF091DC0E8081910102C0BE
:103A3000220F331FEA94E2F77901822B37C09033CB
:103A400081F4E091DB0EF091DC0E8081A10102C0D7
:103A5000440F551FEA94E2F77A01E094E822E082ED
:103A600026C0923321F5E091DB0EF091DC0EFF24AD
:103A7000E7FCF094833089F4D3018C918F3F69F097
:103A8000808190E00E2C02C0959587950A94E2F70C
:103A900080FD03C0802FFFD80AC08081910102C041
:103AA000220F331FEA94E2F7790182278083D50140
:103AB0008C91843610F48C598C930F5F1F4FBFEF9D
:103AC000AB1ABB0AEFEF6E1A7E0A0632110509F037
:103AD00035CF14C021E00CC01D8E10C032E03D8FE8
:103AE0000DC043E04D8F0AC057E05D8F07C028E04E
:103AF0002D8F04C01CA202C031E03CA38091800F36
:103B00008F5F8093800F6EC945E004C055E05D8FE4
:103B100026CA46E04D8F23CA60E046CF63E044CF1B
:103B2000E196E2E10C94DD9BAFE1B0E0EAE9FDE172
:103B30000C94CB9B322F273240F4E22FF0E0EE0FB3
:103B4000FF1FE75EF74F11821082DE0111967D01A3
:103B50005E96F7011192EA17FB07E1F7032F10E0D9
:103B6000F801E45EF54F2081233031F4F801EB5089
:103B7000F64FE081E43011F0373210F0EFEF01C082
:103B8000E1E0E0931802F801ED5CF14FE081E1FF24
:103B900005C0883C910509F0A7C0A9C0883C9105E3
:103BA00009F059C0645A754FFB01D12CC12CDF01BB
:103BB000A61BB70BCA014D3D510510F08CED90E0EE
:103BC000A817B90718F581918D3011F08A3041F4AA
:103BD000B2E0DB1641F080818A3049F7D394E7CF19
:103BE00092E0D91211C08F3E49F0982F9B7F9B3BEA
:103BF00029F0D701AC0DB11D8C93C394ACE1AC1589
:103C000028F0A2E0DA2ED3CFD12CD1CFF701EC0DE2
:103C1000F11D108289818823F1F08A818436D9F0E0
:103C2000F70101900020E9F73197D701AE17BF07E0
:103C300061F08D918037D1F7B70187E998E00E9454
:103C4000B79E23E040E06CE203C023E040E064E67E
:103C5000C70194D84CC0F801E253F64F808181111E
:103C600007C0F801EA5FF64F80818F3F61F410C012
:103C7000823039F4F801EA5FF64F80818E3F19F403
:103C800007C0813029F0211103C08A81843679F57B
:103C9000373268F581E0F801E152F74F808380E325
:103CA000E8E4FFE0DF011D928A95E9F727E1209F14
:103CB000B001219F700D1124605E794F47E150E003
:103CC000CF013F8F0E9485A18091480F8F5F3F8D6C
:103CD000823050F0F801EA5FF64F20812E5F40E01D
:103CE000632F88E49FE04AD882E0809318026F96A1
:103CF000E8E00C94E79BA1E0B0E0E1E8FEE10C9481
:103D0000C79B482F082F10E0B8016253764F7B0104
:103D1000DB018C914801880C991C813099F54E315A
:103D200018F089E290E002C08CE290E09093DC0F02
:103D30008093DB0FF401E65EFD4F80819181019657
:103D40000E943A9E80938A07F401E058F64FC080A3
:103D5000D180F601EE0FFF1FE65EFD4F808191815D
:103D600001960E943A9EB82EBEE1CB16D1041CF0FB
:103D700089E290E002C08CE290E09093870F8093FC
:103D8000860F39C0F401E65EFD4F80819181019676
:103D900049830E943A9EB82E49814E3138F089E21B
:103DA00090E09093870F8093860F06C02CE230E05E
:103DB0003093870F2093860FF401E058F64F01905F
:103DC000F081E02DEE0FFF1FE65EFD4FC080D18039
:103DD000C60101960E943A9E80938A07F60180816F
:103DE000843419F429E230E002C02CE230E0309350
:103DF000DC0F2093DB0F1092E50E1092E60E10926E
:103E0000E70E1092E80E1092E90E1092EA0E21E0F1
:103E100030E002C0220F331FBA94E2F7B12CC12C5C
:103E200078E0D72E40E050E0B0E081E090E0F4E0B0
:103E3000FA95F1F700004F5F5F4F483765E056078E
:103E400079F4BA3108F089C0BB0CBB0CBB0C809173
:103E5000E50E829586958770B82AB092E50E7DC0F2
:103E6000E091DB0FF091DC0F6081A0918A0770E098
:103E70000A2E02C0759567950A94E2F760FD1EC090
:103E8000AA24A394AB0EB150B83108F4DA94AC0173
:103E900002C0440F551FAA95E2F7DA0164EC79E0FD
:103EA000408150E04A235B23452B09F04BC0615011
:103EB000710961157105A1F781E082C0E091860F5B
:103EC000F091870F608170E062237323672BE9F51F
:103ED000AA24A394AB0EB1504C2D50E0B83180F41D
:103EE0006FEF6D0DDC0102C0AA0FBB1F6A95E2F7F0
:103EF000BD01DA01AB51B14F7C91762B7C93DA9402
:103F0000DA01A851B14F4FEF4D0DBC0102C0660F51
:103F1000771F4A95E2F7AB015C91542B5C9371E0FB
:103F2000A71202C0BB24B39464EC79E0408150E056
:103F300042235323452B31F46150710961157105FA
:103F4000A9F7BACFBA2D40E050E0D11003C0C39416
:103F500068E0D62EBA3208F46ACF8BEE8B0F85302C
:103F600068F48091E80E8093E50E8091E90E8093CD
:103F7000E60E8091EA0E8093E70E0AC0B43030F46A
:103F80008091E50E86958093E50E04C0B53010F063
:103F900083E001C081E08093E80ED7018C918130ED
:103FA00021F4F801EA5FF64F09C0F401E058F64F3A
:103FB0000190F081E02DEA5FF64F81E0808380E0A0
:103FC0002196ECE00C94E39B1F920F920FB60F9298
:103FD00011240BB60F922F933F934F935F936F93E0
:103FE0007F938F939F93AF93BF93EF93FF93F89437
:103FF0008EE181DE8111E8987894FF91EF91BF9175
:10400000AF919F918F917F916F915F914F913F9170
:104010002F910F900BBE0F900FBE0F901F90189511
:104020001F920F920FB60F9211240BB60F922F937F
:104030003F934F935F936F937F938F939F93AF9330
:10404000BF93EF93FF93F8948FE155DE8111E998C8
:104050007894FF91EF91BF91AF919F918F917F9154
:104060006F915F914F913F912F910F900BBE0F90E9
:104070000FBE0F901F9018951F920F920FB60F92C0
:1040800011240BB60F922F933F934F935F936F932F
:104090007F938F939F93AF93BF93EF93FF93F89486
:1040A00080E229DE8111EA987894FF91EF91BF9127
:1040B000AF919F918F917F916F915F914F913F91C0
:1040C0002F910F900BBE0F900FBE0F901F90189561
:1040D0001F920F920FB60F9211240BB60F922F93CF
:1040E0003F934F935F936F937F938F939F93AF9380
:1040F000BF93EF93FF93F89481E2FDDD8111EB987C
:104100007894FF91EF91BF91AF919F918F917F91A3
:104110006F915F914F913F912F910F900BBE0F9038
:104120000FBE0F901F9018951F920F920FB60F920F
:1041300011240BB60F922F933F934F935F936F937E
:104140007F938F939F93AF93BF93EF93FF93F894D5
:104150008BE1D1DD8111EC987894FF91EF91BF91C3
:10416000AF919F918F917F916F915F914F913F910F
:104170002F910F900BBE0F900FBE0F901F901895B0
:104180001F920F920FB60F9211240BB60F922F931E
:104190003F934F935F936F937F938F939F93AF93CF
:1041A000BF93EF93FF93F89489E1A5DD8111ED981A
:1041B0007894FF91EF91BF91AF919F918F917F91F3
:1041C0006F915F914F913F912F910F900BBE0F9088
:1041D0000FBE0F901F9018951F920F920FB60F925F
:1041E00011240BB60F922F933F934F935F936F93CE
:1041F0007F938F939F93AF93BF93EF93FF93F89425
:1042000087E179DD8111EE987894FF91EF91BF916C
:10421000AF919F918F917F916F915F914F913F915E
:104220002F910F900BBE0F900FBE0F901F901895FF
:104230001F920F920FB60F9211240BB60F922F936D
:104240003F934F935F936F937F938F939F93AF931E
:10425000BF93EF93FF93F89486E14DDD8111EF98C2
:104260007894FF91EF91BF91AF919F918F917F9142
:104270006F915F914F913F912F910F900BBE0F90D7
:104280000FBE0F901F9018951F920F920FB60F92AE
:1042900011240BB60F922F923F924F925F926F9222
:1042A0007F928F929F92AF92BF92CF92DF92EF92C6
:1042B000FF920F931F932F933F934F935F936F93AF
:1042C0007F938F939F93AF93BF93EF93FF93CF937E
:1042D000DF93CDB7DEB72797DEBFCDBF80918607CE
:1042E0008F5F80938607883C09F04BC01092860749
:1042F000809185078F5F8093850790918407923125
:1043000011F09A3251F48E3141F4809110028230D2
:10431000C1F181E08093100234C08C3391F510928A
:10432000850731E0390F3093840780910007909121
:104330000107A0910207B09103070196A11DB11DCD
:104340008093000790930107A0930207B09303079F
:1043500021E0209372073C33A1F4109284078091EE
:1043600083078F5F80938307883159F41092830706
:10437000809182078F5F80938207883011F42093A9
:10438000820780916708813099F48091140290919E
:104390001502A0911602B09117020196A11DB11D40
:1043A0008093140290931502A0931602B093170203
:1043B00080912D0990912E09A0912F09B09130097B
:1043C00083309105A105B10558F00197A109B10904
:1043D00080932D0990932E09A0932F09B093300953
:1043E00080915B0E90915C0E8230910528F00197D0
:1043F00090935C0E80935B0E80915E0E8F3F69F010
:104400008091900790919107813127E2920728F0DF
:10441000019790939107809390072CE13AE03A83BB
:10442000298327EF422E2FE0522E30E8832E39E0E9
:10443000932E45EFA42E4EE0B42E02E319E05FEB7D
:10444000C52E57E0D52E69E1E62E68E0F62E73E31F
:10445000272E7EE0372EEAE16E2EE2E07E2E1F82CE
:104460001E827FEFA981BA812D91BA83A983213061
:1044700009F057C0EE81FF81E253F64F8081813011
:1044800009F0A4C0F40180819181181619060CF07E
:104490009DC0D5018D919C91009709F497C0EE8144
:1044A000FF81E152F74F2081211190C081309105A9
:1044B000A9F5F30120813181C90101962B833C8349
:1044C0007D830E943A9E682F2B813C81D9018C917B
:1044D0000E94EB13E091780FF091790F8081918128
:1044E000682FD8014D915C919C0133277D81241761
:1044F000350714F461E004C0421753071CF46FEF52
:10450000680F03C0D4011D921C92862F90E0918306
:104510008083F40180819181D50156C00197F50116
:1045200046C0D7018D919C911197009731F1019769
:104530008D939C93BE81B63241F4409165085091B1
:104540006608452B11F41092BF0E009751F4F1014B
:10455000308131FD06C0E1E0F0E0D601ED93FC933F
:104560000CC0D1013C9131FF08C0803A910528F47C
:1045700070936A02F70111821082D6018D919C918D
:1045800011978330910518F001978D939C932330F8
:1045900089F4EE81FF81EB50F64F80818430B1F4D5
:1045A000F801808191811816190684F4019791838E
:1045B00080830CC021110AC0D8018D919C91119764
:1045C000823091051CF001978D939C93F2018081BC
:1045D0009181009759F0EE81FF81E854F74F2081D7
:1045E000233021F00197D2018D939C932E813F813E
:1045F0002F5F3F4F3F832E8332E0430E511C82E0FA
:10460000880E911C92E0A90EB11C0E5F1F4FA2E014
:10461000CA0ED11CB2E0EB0EF11CEFEF2E1A3E0ACF
:10462000F2E06F0E711C2E813F812732310509F0B7
:1046300019CF80911002823069F48091170890910F
:10464000180883309105B0F0019790931808809373
:10465000170810C0EDE0F8E080819181833091056A
:1046600018F0019791838083329638E0E731F307A1
:1046700099F7E3CF8FB180953091B10F8327909157
:104680000D029823909590930D0220910C022823FF
:10469000292720930C0289238223282F23239091FA
:1046A000810F922B9093810F38273093B10F832382
:1046B00020917D0F282B20937D0F8CB18095309118
:1046C0007A0F832790910B029823909590930B0279
:1046D00020910A022823292720930A028923822372
:1046E000282F232390917C0F922B90937C0F3827B7
:1046F00030937A0F83232091D90F282B2093D90F41
:1047000083B180953091880F832790910902982377
:10471000909590930902209108022823292720933D
:10472000080289238223282F23239091E10F922BC3
:104730009093E10F38273093880F83232091E20F65
:10474000282B2093E20F80B180953091F40F8327BE
:10475000909107029823909590930702209106026A
:10476000282329272093060289238223282F232305
:104770009091EB0E922B9093EB0E38273093F40F21
:1047800083232091890F282B2093890F86B1809550
:104790003091DD0F83279091050298239095909397
:1047A000050220910402282329272093040289234B
:1047B0008223282F23239091E00F922B9093E00FD8
:1047C00038273093DD0F83232091EC0E282B209384
:1047D000EC0E89B180953091E40E8327909103020D
:1047E0009823909590930302209102022823292771
:1047F0002093020289238223282F232390917F0F65
:10480000922B90937F0F38273093E40E83232091CF
:10481000E30F282B2093E30F82B380953091B80FDC
:104820008327909101029823909590930102209103
:104830000002282329272093000289238223282F7E
:10484000232390917B0F922B90937B0F38273093EB
:10485000B80F83232091E30E282B2093E30E809141
:1048600089078C3021F4A0981092890705C088230D
:1048700019F08F5F8093890781E080938B072796DB
:104880000FB6F894DEBF0FBECDBFDF91CF91FF9181
:10489000EF91BF91AF919F918F917F916F915F91B8
:1048A0004F913F912F911F910F91FF90EF90DF90CB
:1048B000CF90BF90AF909F908F907F906F905F90C0
:1048C0004F903F902F900F900BBE0F900FBE0F9008
:1048D0001F901895F89490917D0F892398279093B5
:1048E0007D0F78940895F8949091810F89239827EB
:1048F0009093810F78940895F8949091D90F89231B
:1049000098279093D90F78940895F89490917C0FFC
:104910008923982790937C0F78940895F894909128
:10492000E20F892398279093E20F78940895F894E2
:104930009091E10F892398279093E10F789408953F
:10494000F8949091890F892398279093890F7894F0
:104950000895F8949091EB0E892398279093EB0E8D
:1049600078940895F8949091EC0E89239827909369
:10497000EC0E78940895F8949091E00F892398278D
:104980009093E00F78940895F8949091E30F892321
:1049900098279093E30F78940895F89490917F0F5F
:1049A0008923982790937F0F78940895F894909195
:1049B000E30E892398279093E30E78940895F89452
:1049C00090917B0F8923982790937B0F789408957B
:1049D000009731F023E52A95F1F700000197F8CF11
:1049E00008956AE00E942B9B20E1829F900D112484
:1049F000892F0895982F92959F708F702AE0929F2B
:104A0000800D11240895A6E0B0E0E9E0F5E20C94F1
:104A1000D19B83E4809313021092870744E050E017
:104A20006EE271E0CE0101960E9485A1898191E03C
:104A3000980F923030F0809313028A8180538093D4
:104A4000870783E48093120281E08093110244E09F
:104A500050E06CE271E0CE0101960E9485A189814F
:104A600091E0980F923030F0809312028A81805347
:104A70008093110280911002823009F443C081E0DA
:104A80000E941E1582E00E941E1580ED0E944E15A8
:104A900080E00E944E1583E00E941E1582E00E9475
:104AA0001E1581ED0E944E1580E00E94B815A2DF10
:104AB0008093850780E00E94B8159CDF809384076F
:104AC00080E00E94B81596DF8093830781E00E9402
:104AD000B8158093820783E00E941E15809182079B
:104AE0008150873068F082E0809310021092850731
:104AF000109284071092830781E08093820702C09E
:104B0000109210022696E2E00C94ED9BCF93DF9377
:104B1000C82F83E00E941E1581E00E941E1582E0CE
:104B20000E941E1588E70E944E1580E00E944E15D7
:104B30008EEA0E944E1585ED0E944E1580E80E9477
:104B40004E1581E80E944E158C2F90E0880F991F1A
:104B500087529E4F0E949DA18F3F09F48FE70E94CC
:104B60004E158DE80E944E1584E10E944E1581EA93
:104B70000E944E1588EC0E944E1586EA0E944E1542
:104B800080E20E944E1580E00E944E1581E20E9454
:104B90004E1580E00E944E158FE70E944E1580E072
:104BA0000E944E1582E20E944E1580E00E944E1532
:104BB00087E00E944E1583E00E941E1582E00E944D
:104BC0001E1588E70E944E1580E40E944E15C0E035
:104BD000D4E080E00E944E1521972097D1F783E022
:104BE0000E941E1582E00E941E1588E70E944E1545
:104BF00080E00E944E158FEA0E944E1583E00E94CD
:104C00001E15DF91CF910895A0E0B0E0EAE0F6E252
:104C10000C94C79BD82FC62F7A01D22E809196086C
:104C20008A3008F03FC081E00E941E1582E00E9499
:104C30001E1588E70E944E1580E00E944E1580E206
:104C40000E944E1581E00E944E1581E20E944E1591
:104C500021E0D21202C080E001C08D2F0E944E15CB
:104C60008FE70E944E1582E20E944E1581E0D81215
:104C700001C0C2E08C2F0E944E1521E0D21202C06A
:104C800083E001C081E08C0F0E944E1583E00E94FA
:104C90001E1582E00E941E1588E70E944E1580E4D2
:104CA0000E944E15E091470FF0E0EE0FFF1FEB5012
:104CB000F14F80819181209196080A9751F421301B
:104CC00041F48AE080939608109294081092930819
:104CD000D7C0213031F484EF91E090939408809311
:104CE000930800E010E0C12C8C2D90E0F7010190BA
:104CF0000020E9F73197EE19FF098E179F0708F09A
:104D00008EC0F701E80FF91F8081803279F4D1104D
:104D100010C080E00E944E1580E00E944E1580E099
:104D20000E944E1580E00E944E1557C0803208F454
:104D300054C0982F9D0D8FED890F803B10F08FEAA6
:104D4000890F90E021E0D21609F47BC0FC01EE0F40
:104D5000FF1FE80FF91FE35CF74EC491FC01EE0F53
:104D6000FF1FE80FF91FE25CF74EA590B490D0E06A
:104D7000CC0FDD1F88248394912CE92DF0E0EC17F3
:104D8000FD0758F5E80DF11D87FCFA95EA0DFB1DAE
:104D9000E35EF54E84910E944E1581949394EDCF7D
:104DA0002091930830919408C9010A96C817D90731
:104DB00008F05EC0C217D30708F45AC0EA0DFB1D05
:104DC000E359FC4E84910E944E152196EC2FE01B76
:104DD000F0E0E815F90520F38E0180919308909199
:104DE00094089C01265F3F4F0217130718F4081719
:104DF000190720F4809196088A3078F480E00E94A8
:104E00004E1580E00E944E1581E0D81206C080E069
:104E10000E944E1580E00E944E15C39465CF80918C
:104E200096088A3039F481E08093960810929408AD
:104E3000109293088FEF8093190283E00E941E1551
:104E40001FC0FC01EE0FFF1FE80FF91FE45EFC4ED0
:104E50008490FC01EE0FFF1FE80FF91FE35EFC4E8C
:104E6000A590B49024E0829E40011124E801AECFC9
:104E7000C817D90709F0A9CFD0939408C093930815
:104E8000CDB7DEB7ECE00C94E39BCF92DF92EF92CC
:104E9000FF92CF93C82F81E00E941E1582E00E94EE
:104EA0001E1580E80E944E1583E00E941E1582E0C8
:104EB0000E941E1580E80E944E15C13011F483EE49
:104EC00001C085EE0E944E1583E00E941E158AEFF8
:104ED00090E07EDD82E00E941E15C13019F484EA64
:104EE00096E002C08CE291E073DD81E80E944E15ED
:104EF00088EC90E06DDD80E00E94B815F82E81E02E
:104F00000E94B8152F2D30E0322F2227282B44275E
:104F100037FD4095542F2C7F44275527A0E1B7E259
:104F20000E94B19B9C01552737FD5095452FC130FC
:104F300049F4A4EAB4E40E94B19B605D7F4D8A4CC1
:104F4000924008C0A4EDB0E30E94B19B60587D4838
:104F50008B45910920E137E240E050E00E94809BC0
:104F600069017A01CA01B90124E630E040E050E06D
:104F70000E94809BF7FE29C09B0177FF04C0222777
:104F80003327261B370B3F932F93C701B60124E627
:104F900030E040E050E00E94809B3195219531093E
:104FA0003F932F938CEB92E09F938F9388E49FE045
:104FB0009F938F930E94699F8DB79EB708960FB6F7
:104FC000F8949EBF0FBE8DBF1AC09F938F937F939F
:104FD0006F935F934F933F932F9383E093E09F935F
:104FE0008F9388E49FE09F938F930E94699F8DB772
:104FF0009EB70C960FB6F8949EBF0FBE8DBF83E090
:105000000E941E15CF91FF90EF90DF90CF900895F2
:10501000CF93DF9381E00E941E1582E00E941E154F
:1050200086E40E944E1580E10E944E1583E00E94A6
:105030001E1582E00E941E1587E40E944E1580E036
:105040000E94B815C82F81E00E94B815D82F83E0C0
:105050000E941E15AD2FB0E0BC2B2AE030E00E946C
:10506000AB9B2CE030E040E050E00E94809B5F93DF
:105070004F933F932F9385EC92E09F938F9388E417
:105080009FE09F938F930E94699F8DB79EB708966C
:105090000FB6F8949EBF0FBE8DBFDF91CF910895DC
:1050A000ACE0B0E0E6E5F8E20C94C79B182F9BE07B
:1050B000EFEAF2E0DE01119601900D929A95E1F788
:1050C00081E00E941E1582E00E941E159E012F5F46
:1050D0003F4F790137E1139FC001112400E010E038
:1050E000FC01E05EF94F5F019C012F5D394F4901E2
:1050F0008EEE0E944E15F70181917F010E944E15A0
:1051000083E00E941E1582E00E941E158FEE0E9411
:105110004E1580E00E94B815682F6501C00ED11EA3
:10512000C6016C870E9495A16C85861719F0C6018F
:105130000E94ABA181E00E94B815682F6401C00EE7
:10514000D11EC6016C870E9495A16C85861719F047
:10515000C6010E94ABA10E5F1F4F0631110541F63B
:1051600083E00E941E152C96ECE00C94E39BA1E0DA
:10517000B0E0EDEBF8E20C94C39B782E81E00E9446
:105180001E1582E00E941E158CEE0E944E1582EFC5
:105190000E944E1582E00E944E1583E00E941E156B
:1051A00081E00E941E1582E00E941E158CEE0E9476
:1051B0004E1584EF0E944E1587E20E944E1583E043
:1051C0000E941E1581E00E941E1582E00E941E159D
:1051D0008CEE0E944E1588E80E944E1583E00E94D6
:1051E0001E1582E00E941E158DEE0E944E1527E1CD
:1051F000729EC0011124412C512C612C44E1749EFB
:105200009001112489010B5E1C4FFC01EF5DF94FE9
:105210005F01A9014C5E5C4F7A01FC01E05EF94F31
:105220004F0180E00E94B815682FFBE06F1661F017
:105230006501C40CD51CC60169830E9495A16981D2
:10524000861761F0C60108C0C80169830E9495A154
:105250006981861719F0C8010E94ABA180E00E9405
:10526000B815682F2BE0621661F06401C40CD51CE0
:10527000C60169830E9495A16981861761F0C60104
:1052800008C0C70169830E9495A16981861719F03A
:10529000C7010E94ABA1639432E0430E511C4CE065
:1052A0006412BFCF80E00E94B81581E00E94B8155B
:1052B000182F83E00E941E1581E00E941E1582E0D7
:1052C0000E941E158CEE0E944E1580ED0E944E1518
:1052D00083E00E941E1582E00E941E158DEE0E9442
:1052E0004E1581E00E94B815082F83E00E941E151C
:1052F000272D30E084E1003609F04FC0829F700115
:10530000839FF00C1124C7018A5E9C4F7C010E9490
:1053100095A1811721F0612FC7010E94ABA181E007
:105320000E941E1582E00E941E158CEE0E944E15F2
:1053300081EE0E944E1583E00E941E1582E00E94BD
:105340001E158DEE0E944E1594E1799E8001112468
:10535000C12CD12C095E1C4FE6E0CE1202C081E0C8
:1053600001C080E00E94B815682F7801EC0CFD1C8C
:10537000C70169830E9495A16981861719F0C70149
:105380000E94ABA1FFEFCF1ADF0A27E0C216D104BB
:1053900019F783E00E941E1510C0829F8001839F31
:1053A000100D11240A5E1C4FC8010E9495A18F3F69
:1053B00021F06FEFC8010E94ABA12196E0E10C94AF
:1053C000DF9BAEE1B0E0E7EEF9E20C94C19B082F61
:1053D000262E81E00E941E1582E00E941E158EEE90
:1053E0000E944E1584EF0E944E158EE20E944E15CB
:1053F00083E00E941E1582E00E941E1588E09DE356
:105400000197F1F700C000008EEE0E944E1586EF66
:105410000E944E1583E00E941E1582E00E941E1518
:105420008FEE0E944E1580E00E94B815182F81E083
:105430000E94B815C82E83E00E941E1597E1099FAF
:10544000B0011124605E794F46E150E0CE01019633
:105450000E9485A1298530E0322F22278A85282BBA
:10546000D12CE12CF12CD12A8B8590E0982F882724
:105470004C85842BC81AD90AE108F108A8EEB3E0DC
:105480000E949C9BBFE09595879577956795BA9507
:10549000D1F7A70196010E941C9B28EE33E040E063
:1054A00050E00E94809B69017A016B8970E0762F41
:1054B00066278C89682B882777FD8095982F0BE0CD
:1054C000660F771F881F991F0A95D1F70D8910E085
:1054D000102F00272E89022B9801442737FD409575
:1054E000542F2C0D3D1D4E1D5F1D0E94809B4901B8
:1054F0005A018C0C9D1CAE1CBF1CA5019401285F99
:105500003F4F4F4F5F4FAAE0B0E00E94B19B20E1B8
:1055100030E040E050E00E94809B2F8B388F498F15
:105520005A8F81E00E941E1582E00E941E158EEEA9
:105530000E944E1584EF0E944E1584E70E944E157E
:1055400083E00E941E1583ED90E30197F1F700C000
:10555000000082E00E941E158EEE0E944E1586EF1E
:105560000E944E1583E00E941E1582E00E941E15C7
:105570008FEE0E944E1580E00E94B815182F80E033
:105580000E94B815082F81E00E94B815382E83E0DC
:105590000E941E1590EA891A9FE0990AA108B10895
:1055A000A5019401C501B4010E941C9B20E030E1DB
:1055B00040E050E00E94809B2B8F3C8F4D8F5E8F90
:1055C000898190E0982F88272A81822B2C016624DC
:1055D00057FC6094762C42E0440C551C661C771CEA
:1055E0004A95D1F7AF85B0E0BA2FAA278889A82BB2
:1055F0002B8D3C8D4D8D5E8D0E94B19B20E038E05F
:1056000040E050E00E94809B69017A01AB81B0E0EC
:10561000BA2FAA278C81A82BA50194010E94BB9BBD
:1056200020E038E040E050E00E94809BC20ED31E94
:10563000E41EF51E4C0C5D1C6E1C7F1C440C551C9E
:10564000661C771C22E0420E511C611C711CC12E8D
:10565000D12CE12CF12C7601DD24CC2410E020E0CB
:1056600030E0322F212F102F0027C00ED11EE21E56
:10567000F31EC30CD11CE11CF11CA7E0F694E794C7
:10568000D794C794AA95D1F7C301B20124E030E0C2
:1056900040E050E00E94809BC21AD30AE40AF50A57
:1056A000A8EAB1E6A70196010E94B19B6B017C01BB
:1056B000CC0CDD1CEE1CFF1C0F8110E0102F00270E
:1056C0008885082BAD81B0E0BA2FAA278E81A82B40
:1056D000A50194010E94BB9B20E030E240E050E035
:1056E0000E94809B49015A01AD85B0E0BA2FAA27DC
:1056F0008E85A82B2B8D3C8D4D8D5E8D0E94BB9B86
:10570000412C512C32016394A30192010E94809B91
:10571000820E931EA41EB51E82E0880E911CA11C51
:10572000B11CC501B40124E030E040E050E00E942B
:10573000809B30584F4F5F4FD8010E94B19B20E0B3
:1057400030E840E050E00E94809BC701B6010E9413
:105750005E9B49015A01CA01B90120E031E040E0F5
:1057600050E00E94809BCA01B9010E941C9B9B01D2
:10577000AC01AEEDBBE00E94B19BA30192010E947F
:10578000809B69017A01A3E4B3EEA50194010E9414
:10579000BD9BA30192010E94809BC20ED31EE41EFA
:1057A000F51E9FECC90E9EE0D91EE11CF11CC7013D
:1057B000B60120E130E040E050E00E94809B280DDF
:1057C000391D4A1D5B1DA0E1B7E20E94B19B24E197
:1057D00034E340E050E00E94809BCA01B90122E01E
:1057E00022122CC0E4E6CE2ED12CE12CF12CA70104
:1057F00096010E94809B9F938F937F936F935F93FB
:105800004F933F932F936F89788D898D9A8DA70140
:1058100096010E94809B9F938F937F936F935F93DA
:105820004F933F932F9389EC92E09F938F9388E45B
:105830009FE09F938F930E94699F1FC021E02212D7
:1058400004C06F89788D898D9A8D24E630E040E020
:1058500050E00E94809B9F938F937F936F935F9301
:105860004F933F932F9383E093E09F938F9388E42C
:105870009FE09F938F930E94699F0FB6F894DEBFBD
:105880000FBECDBF6E96E2E10C94DD9BA1E3B0E0CC
:10589000ECE4FCE20C94C19B162FE82EF12C27E1DE
:1058A000829FB0011124605E794F46E150E0CE0145
:1058B00001960E9485A184E18E9DB0018F9D700D9F
:1058C00011246C5E7C4F4AE050E0CE0147960E9466
:1058D00085A181E00E941E1582E00E941E158CEEBB
:1058E0000E944E1582E00E941E1587EF0E944E1501
:1058F00083E00E941E1582E00E941E1588E09DE351
:105900000197F1F700C000008DEE0E944E1580E077
:105910000E94B8158DA380E00E94B815082F80E082
:105920000E94B8158DA780E00E94B815882E912C92
:10593000A12CB12C80E00E94B815C82ED12CE12CEE
:10594000F12C898D8F3F11F481E001C080E00E942D
:10595000B81590E0A0E0B0E0F4E0CC0CDD1CEE1C4B
:10596000FF1CFA95D1F72CE0880C991CAA1CBB1CD3
:105970002A95D1F7C828D928EA28FB2834E0B6951B
:10598000A795979587953A95D1F7C82AD92AEA2AF3
:10599000FB2A898D8F3FA9F080E00E94B815B82EB0
:1059A00081E00E94B8154B2D50E060E070E0882443
:1059B000942EA52EB62E882A89A69AA6ABA6BCA69A
:1059C00004C019A61AA61BA61CA683E00E941E15D9
:1059D0009A818981292E312C4101982AA7019601AB
:1059E000A3E05695479537952795AA95D1F7A12C11
:1059F000B12CD501C401880F991FAA1FBB1F281BFA
:105A0000390B4A0B5B0BAB81B0E0BA2FAA278C8114
:105A1000A82B0E94BB9B69A37AA38BA39CA3C7015D
:105A2000B601E4E09695879577956795EA95D1F765
:105A3000681979098A099B099B01AC010E941C9B8A
:105A40009B01AC01FCE05595479537952795FA9554
:105A5000D1F7AD81B0E0BA2FAA278E81A82B0E9482
:105A6000BB9B89A09AA0ABA0BCA02BE0B594A79447
:105A7000979487942A95D1F73EE0959587957795E9
:105A800067953A95D1F7860E971EA81EB91E89A272
:105A90009AA2ABA2BCA224013501759467945794D5
:105AA00047942AEF521A61087108E989FA89C301FB
:105AB000B20152E095958795779567955A95D1F7FC
:105AC0009B01AC010E941C9B6B017C018F848EA604
:105AD00098889FA6AD84A8AABE84B9AAAB85B0E079
