:100000000C9480110C94E71F0C9413200C943F2047
:100010000C946B200C9497200C94C3200C94EF202C
:100020000C941B210C94A1110C94A1110C94A111FE
:100030000C94A1110C94A1110C94A1110C94A11178
:100040000C94A1110C94A1110C94A1110C94A11168
:100050000C94A1110C94A1110C9447210C94A111A2
:100060000C94A1110C94A1110C94A1110C94A11148
:100070000C94A1110C94A1110C94A1110C94A11138
:100080000C94A1110C94A1110C94A1110C94A11128
:100090000C94A1110C94A1110C94A1110C94A11118
:1000A0000C94A1110C94A1110C94A1110C94A11108
:1000B0000C94A1110C94A1110C94A1110C94A111F8
:1000C0000C94A1110C94A1110C94A1113C2F613E30
:1000D000004578742D494F002F3F70743D256426EC
:1000E00063663D313E00207C203C6120687265667D
:1000F0003D2F003C2F613E002F53434C002F5344B3
:100100004100493243004453002F4431002F443012
:100110000057323600414443004E4300202D20005A
:10012000290025640028003E50002564002F3F7000
:10013000743D003C62723E3C6120687265663D2FF2
:10014000003C62723E2D2D2D003C62723E2D2D2012
:100150005850352F36202D2D002F3F63663D343EFD
:100160005850323C2F613E3C62723E2D2D20585437
:1001700032202D2D002F3F63663D333E5850313CD9
:100180002F613E3C62723E3C6120687265663D2F85
:10019000002F3F63663D313E436F6E6669673C2FBB
:1001A000613E3C62723E2D2D204D4F4453202D2D3B
:1001B0003C62723E3C6120687265663D2F00293CBE
:1001C00062723E3C6120687265663D2F00342E32BB
:1001D000306236004D656761442D3235363120621C
:1001E00079203C6120687265663D687474703A2FAE
:1001F0002F61622D6C6F672E72753E61622D6C6F80
:10020000672E72753C2F613E202866773A200032B7
:10021000202D2D0031202D2D003E4261636B3C2F9F
:10022000613E3C62723E2D2D20506F7274732058D7
:100230005000446F6E65003E002076616C75653D30
:10024000003C696E707574206E616D653D6B6579FB
:10025000004E2F4100383E4C617374206B65793A33
:1002600020003E003E20736C6176653A203C696E4A
:10027000707574206E616D653D7072732074797055
:10028000653D636865636B626F782076616C756548
:100290003D3120003E20636D643A203C696E7075EC
:1002A00074206E616D653D7072642076616C756559
:1002B0003D003E3D3C2F73656C6563743E20766166
:1002C0006C75653A203C696E707574206E616D6561
:1002D0003D7072762073697A653D332076616C7566
:1002E000653D003E3C3C6F7074696F6E2076616CBA
:1002F00075653D33003E3E3C6F7074696F6E2076CD
:10030000616C75653D32003E4E3C6F7074696F6E76
:100310002076616C75653D31003E203C73656C65EF
:100320006374206E616D653D7072633E3C6F7074E6
:10033000696F6E2076616C75653D30003E696620A0
:10034000706F72743A203C696E707574206E616DC6
:10035000653D7072702073697A653D332076616CFB
:1003600075653D0070726E2076616C75653D00317B
:10037000303E00656D70747900393E003E00207695
:10038000616C75653D003E204163743A203C696EA6
:10039000707574206E616D653D63726E61002076CC
:1003A000616C75653D00543A203C696E707574202F
:1003B0006E616D653D63726E74003E003E20534475
:1003C000413A203C696E707574206E616D653D63C5
:1003D0007364612076616C75653D003C62723E53CA
:1003E00065742074696D653A203C696E707574207F
:1003F0006E616D653D7374696D653E3C62723E531E
:10040000434C3A203C696E707574206E616D653D99
:100410006373636C2076616C75653D00373E437590
:10042000722074696D653A2000223E3C62723E7310
:100430007276206C6F6F703A203C696E7075742014
:10044000747970653D636865636B626F78206E6177
:100450006D653D736C2076616C75653D31004D6551
:100460006761642D49443A203C696E707574206E52
:10047000616D653D6D646964206D61786C656E6762
:1004800074683D352073697A653D352076616C75F9
:10049000653D2200323E003C62723E557074696DCB
:1004A000653A200057646F673A203C696E70757436
:1004B000206E616D653D70722073697A653D3320F1
:1004C00076616C75653D005363726970743A203CC7
:1004D000696E707574206E616D653D736374206D17
:1004E00061786C656E6774683D31352076616C7536
:1004F000653D22003C62723E00646973636F6E6EFC
:10050000656374656400636F6E6E65637465640033
:100510003E4D5154543C2F73656C6563743E20000E
:100520003E485454503C6F7074696F6E2076616C15
:1005300075653D310053525620547970653A203C20
:1005400073656C656374206E616D653D737276745E
:100550003E3C6F7074696F6E2076616C75653D30DE
:100560000025642E25642E25642E25643A25753ECB
:100570003C62723E003E3C62723E5352563A203C10
:10058000696E707574206E616D653D73697020765B
:10059000616C75653D0047573A203C696E70757413
:1005A000206E616D653D67772076616C75653D25D0
:1005B000642E25642E25642E2564005077643A202D
:1005C0003C696E707574206E616D653D7077642056
:1005D0006D61786C656E6774683D332076616C750B
:1005E000653D220049503A203C696E707574206E5A
:1005F000616D653D6569702076616C75653D25644A
:100600002E25642E25642E256400313E006366206D
:1006100076616C75653D002F3E002F3F63663D3867
:100620003E6942204B6579733C2F613E002F3F634A
:10063000663D393E50726F6772616D3C2F613E00BE
:100640002F3F63663D373E43726F6E3C2F613E0025
:100650002F3F63663D323E4D656761642D49443CE2
:100660002F613E002F3F63663D313E436F6E6669EA
:10067000673C2F613E003E4261636B3C2F613E0050
:100680002F3F63663D31002F3F63663D39003E4298
:1006900061636B3C2F613E3C62723E4D6567614415
:1006A000206973207265737461727465640034002C
:1006B00033002F3F63663D002A002A00227D003B65
:1006C000003E003C62723E44697370203C696E706B
:1006D0007574206E616D653D646973702073697A0D
:1006E000653D322076616C75653D0026636D643D25
:1006F0007363616E3E493243205363616E3C2F61E8
:100700003E002F3F70743D003E003C62723E494EF9
:1007100054203C696E707574206E616D653D696E24
:1007200074612073697A653D332076616C75653D2F
:10073000003E003C62723E427269676874203C6908
:100740006E707574206E616D653D68737420736999
:100750007A653D332076616C75653D003E504341BE
:10076000393638353C2F73656C6563743E003E4DF9
:10077000435032333058583C6F7074696F6E207636
:10078000616C75653D3231003E5353443133303630
:100790003C6F7074696F6E2076616C75653D3230A8
:1007A000003E54534C323539313C6F7074696F6E72
:1007B0002076616C75653D34003E424831373530F6
:1007C0003C6F7074696F6E2076616C75653D3300A7
:1007D0003E4D415834343030393C6F7074696F6E1F
:1007E0002076616C75653D32003E424D783238307E
:1007F0003C6F7074696F6E2076616C75653D370073
:100800003E424D503138303C6F7074696F6E2076C7
:10081000616C75653D36003E4854553231443C6F3D
:100820007074696F6E2076616C75653D35003E4170
:100830004E593C6F7074696F6E2076616C75653DC2
:1008400031003C62723E446576203C73656C6563A2
:1008500074206E616D653D643E3C6F7074696F6EAF
:100860002076616C75653D30003E003C62723E53FF
:10087000434C203C696E707574206E616D653D6DF2
:100880006973632073697A653D332076616C7565A1
:100890003D003E53434C3C2F73656C6563743E00D2
:1008A0003E5344413C6F7074696F6E2076616C7585
:1008B000653D32003E4E433C6F7074696F6E20762A
:1008C000616C75653D31003C62723E4D6F64652020
:1008D0003C73656C656374206E616D653D6D3E3C77
:1008E0006F7074696F6E2076616C75653D30003E87
:1008F000003C62723E4431203C696E707574206E1B
:10090000616D653D6D6973632073697A653D332060
:1009100076616C75653D003E44313C2F73656C65B6
:1009200063743E003E44303C6F7074696F6E207695
:10093000616C75653D32003E4E433C6F7074696F6B
:100940006E2076616C75653D31003C62723E4D6F84
:100950006465203C73656C656374206E616D653DF4
:100960006D3E3C6F7074696F6E2076616C75653D8D
:10097000300026636D643D6C6973743E446576692E
:100980006365204C6973743C2F613E002F3F707487
:100990003D003E5732363C2F73656C6563743E00F4
:1009A0003E69423C6F7074696F6E2076616C75654C
:1009B0003D36003E31574255533C6F7074696F6E3F
:1009C0002076616C75653D34003E31573C6F707424
:1009D000696F6E2076616C75653D35003E44485404
:1009E00032323C6F7074696F6E2076616C75653D54
:1009F00033003E44485431313C6F7074696F6E204F
:100A000076616C75653D32003C62723E53656E20C6
:100A10003C73656C656374206E616D653D643E3C3E
:100A20006F7074696F6E2076616C75653D31002062
:100A3000636865636B65643E203C696E7075742005
:100A40006E616D653D6D322073697A653D33207648
:100A5000616C75653D003E486967683C2F73656C45
:100A60006563743E3C62723E536D6F6F7468203CE8
:100A7000696E70757420747970653D636865636B29
:100A8000626F78206E616D653D6D6973632076617C
:100A90006C75653D31003E4C6F773C6F7074696FCB
:100AA0006E2076616C75653D32003E4E6F726D3C16
:100AB0006F7074696F6E2076616C75653D31003CB6
:100AC00062723E46726571203C73656C656374208A
:100AD0006E616D653D66723E3C6F7074696F6E202D
:100AE00076616C75653D30003E003C62723E477237
:100AF0006F7570203C696E707574206E616D653D18
:100B00006772702073697A653D322076616C756515
:100B10003D003E4453323431333C2F73656C656382
:100B2000743E003E5357204C494E4B3C2F6F70741F
:100B3000696F6E3E3C6F7074696F6E2076616C7584
:100B4000653D32003C6F7074696F6E2076616C7524
:100B5000653D33003E50574D003C6F7074696F6EB9
:100B60002076616C75653D31003E5357003C6272E2
:100B70003E4D6F6465203C73656C656374206E61E7
:100B80006D653D6D3E3C6F7074696F6E2076616C73
:100B900075653D30003E313C2F73656C6563743E76
:100BA000003E303C6F7074696F6E2076616C7565C5
:100BB0003D31003C73656C656374206E616D653D0D
:100BC000643E3C6F7074696F6E2076616C75653D34
:100BD00030003C696E707574206E616D653D6420F7
:100BE00073697A653D33206D61786C656E677468F2
:100BF0003D332076616C75653D003C62723E446514
:100C00006661756C743A20003C62723E52617720D6
:100C10003C696E70757420747970653D63686563B6
:100C20006B626F78206E616D653D642076616C75D6
:100C3000653D3100203C696E707574207479706573
:100C40003D636865636B626F78206E616D653D6DB5
:100C50006973632076616C75653D31003E433C2FBE
:100C600073656C6563743E003E523C6F7074696FCF
:100C70006E2076616C75653D33003E5026523C6FA8
:100C80007074696F6E2076616C75653D32003E5000
:100C90003C6F7074696F6E2076616C75653D3100D4
:100CA0003C62723E4D6F6465203C73656C65637495
:100CB000206E616D653D6D3E3C6F7074696F6E2096
:100CC00076616C75653D3000223E203C696E707522
:100CD0007420747970653D636865636B626F78201A
:100CE0006E616D653D6E61662076616C75653D3146
:100CF000002F003A25750025642E25642E25642ECC
:100D00002564003E3C62723E4E6574203C696E7004
:100D100075742073697A653D3332206E616D653D6F
:100D20006574682076616C75653D2200223E203C2A
:100D3000696E70757420747970653D636865636B66
:100D4000626F78206E616D653D61662076616C75BD
:100D5000653D31003C62723E416374203C696E70B7
:100D60007574206E616D653D65636D642076616CA0
:100D700075653D22003E3C62723E487374203C69BA
:100D80006E707574206E616D653D68737420766158
:100D90006C75653D003E3C3E3C2F73656C6563742D
:100DA0003E3C62723E56616C203C696E70757420E8
:100DB0006E616D653D6D6973632073697A653D345D
:100DC0002076616C75653D003E3C3C6F7074696FC8
:100DD0006E2076616C75653D33003E3E3C6F7074ED
:100DE000696F6E2076616C75653D32003E4E6F72A4
:100DF0006D3C6F7074696F6E2076616C75653D3106
:100E0000004D6F6465203C73656C656374206E6192
:100E10006D653D6D3E3C6F7074696F6E2076616CE0
:100E200075653D30003C2F73656C6563743E003E14
:100E3000414443003C6F7074696F6E2076616C753D
:100E4000653D32003E493243003E4453656E3C6F7F
:100E50007074696F6E2076616C75653D34003E4F2D
:100E600075743C6F7074696F6E2076616C75653D4A
:100E700033003E496E3C6F7074696F6E2076616C12
:100E800075653D31003E4E433C6F7074696F6E2056
:100E900076616C75653D300054797065203C7365F2
:100EA0006C656374206E616D653D7074793E3C6F56
:100EB0007074696F6E2076616C75653D32353500F2
:100EC000706E2076616C75653D002F3E003C62724D
:100ED0003E3C6120687265663D2F25732F3F70741C
:100EE0003D2564266578743D25643E5025643C2F7D
:100EF000613E003C62723E2D2D20506F7274732053
:100F000045787420285043413936383529202D2D15
:100F1000003C62723E3C6120687265663D2F25731D
:100F20002F3F70743D2564266578743D25643E50DE
:100F30002564202D200029202D2D00303800313748
:100F4000003C62723E2D2D20506F727473204578E4
:100F50007420284D4350323330002F002F00687525
:100F60006D3A002F0074656D703A00203C696E7018
:100F7000757420747970653D7375626D697420763F
:100F8000616C75653D7365743E3C2F666F726D3E96
:100F90000050574D3A203C696E707574206E616D3B
:100FA000653D6570776D2076616C75653D256420C3
:100FB00073697A653D333E006578742076616C759F
:100FC000653D25643E0070742076616C75653D2535
:100FD000643E002F3E003E4F75743C2F73656C6578
:100FE00063743E003E496E3C6F7074696F6E20768C
:100FF000616C75653D310054797065203C73656C9A
:10100000656374206E616D653D6574793E3C6F70FB
:1010100074696F6E2076616C75653D30006578741B
:101020002076616C75653D25643E007074207661A4
:101030006C75653D25643E002F3E003C2F613E20CF
:1010400000303E003C2F613E2000313E003C6120DC
:10105000687265663D2F25732F3F70743D256426A9
:101060006578743D256426636D643D25646525645B
:101070003A002F003A303E4F46463C2F613E3C62DC
:10108000723E004200410026636D643D002F3F70B8
:10109000743D003A313E4F4E3C2F613E203C612072
:1010A000687265663D2F004200410026636D643D15
:1010B000002F3F70743D00423A2000413A20002F3B
:1010C000004E412F4E41002F003E203C696E70754E
:1010D0007420747970653D7375626D6974207661F2
:1010E0006C75653D6368616E67653E3C2F666F7227
:1010F0006D3E003E50574D2028302D323535293A6F
:10110000203C696E707574206E616D653D70776D01
:101110002073697A653D332076616C75653D00709A
:10112000742076616C75653D002F3E003C62723E16
:101130003C666F726D207374796C653D6469737081
:101140006C61793A696E6C696E6520616374696F70
:101150006E3D2F00504341004D4350003C62723EB3
:10116000003C62723E6C75783A003C62723E6C756F
:10117000783A003C62723E6C75783A0074656D7026
:101180003A002F68756D3A0074656D703A002F0053
:101190003E4261636B3C2F613E3C62723E500034C4
:1011A000003300312670743D002F3F63663D003BE5
:1011B000003A006275737900446F6E650026616CB9
:1011C0006C3D006D6469643D003F00485454502FED
:1011D000312E302034303120556E617574686F7255
:1011E000697A65640D0A0D0A556E617574686F72CF
:1011F000697A65640054727920687474703A2F2F8C
:1012000069702F707764002F002F002F002F002FA0
:10121000002F005025643A200049503A20256420D0
:101220002E202564202E202564202E2025640048B1
:101230005454502F312E3020323030204F4B0D0A75
:10124000436F6E74656E742D547970653A207465C1
:1012500078742F68746D6C0D0A507261676D613A15
:10126000206E6F2D63616368650D0A0D0A00289278
:10127000A5ACAFA5E0290082EBAAAB0082AAAB2007
:101280002020004F4646004F4E00494E004F555417
:1012900000223E3C62723E003E3C62723E003C6276
:1012A000723E00207C203C6120687265663D2F0004
:1012B0003C6120687265663D2F003E0020636865D2
:1012C000636B6564003C696E707574207479706539
:1012D0003D68696464656E206E616D653D003C62C9
:1012E000723E3C696E70757420747970653D7375DB
:1012F000626D69742076616C75653D536176653EFB
:101300003C2F666F726D3E003C666F726D206163AC
:1013100074696F6E3D2F002073656C65637465643E
:1013200000160000000000000000000000000000A7
:1013300000000000000000000000000000000000AD
:10134000000016580000000016B000070801000059
:1013500000162401167C0116D401162C02168402F4
:1013600016DC02163403168C0316E403163C040F35
:1013700094040000000000000000000000000000D5
:10138000000000000000000000000000000000005D
:10139000000000000000000000000000000000004D
:1013A000000000000000000000000000000000003D
:1013B000000000000000000000000000000000002D
:1013C000000000000000000000000000000000001D
:1013D0003E0000003E0000003E0000003E00000015
:1013E0003E0000003E0000003E0000003E0000FE07
:1013F000FF1F00FEFF1F00FEFF1F00FEFF1F00007B
:101400003E0000003E0000003E0000003E000000E4
:101410003E0000003E0000003E0000003E000000D4
:1014200000000000000000000000000000000000BC
:1014300000000000000000000000000000000000AC
:10144000000000003E0000003E0000003E000000E2
:101450003E0000003E0000003E0000003E00000094
:101460003E0000003E0000003E0000003E00000084
:101470003E0000003E0000003E00000000FE0000B4
:1014800000FE000000FE000000FE000000FE000064
:1014900000FE000000FE00F0FF0000FEFF0700FF5E
:1014A000FF0FC0FFFF3FC0FFFF3FE0FFFF7FE0FFF8
:1014B000FF7FF00F00FFF00300FCF00100F8F001E7
:1014C00000F8F00100F8F00100F8F00300FCF00F64
:1014D00000FFE0FFFF7FE0FFFF7FC0FFFF3FC0FF97
:1014E000FF3F00FFFF0F00FEFF0700F0FF000000BE
:1014F00000000000000000000000001E00F8001EB8
:1015000000F8001E00F8001E00F8001F00F8001F81
:1015100000F8C0FFFFFFE0FFFFFFE0FFFFFFE0FF7D
:10152000FFFFE0FFFFFFE0FFFFFFE0FFFFFF000026
:1015300000F8000000F8000000F8000000F80000CB
:1015400000F8000000F800000000000000F8C00FE4
:1015500000F8E00700FCE00700FEE00300FFF003F6
:1015600080FFF001C0FFF001C0FFF001E0FFF001DB
:10157000F0FFF001FCFBF003FEF9F087FFF8F0FF4D
:101580007FF8E0FF7FF8E0FF3FF8C0FF1FF8C0FFE3
:1015900007F880FF03F800FE00F8000000F80000E4
:1015A0000000000000000000003FC00F007EE007C8
:1015B000007EE003007CE00300FCF00100F8F08115
:1015C0000FF8F0810FF8F0810FF8F0810FF8F0813B
:1015D0000FF8F0C30FFCF0FF1FFEF0FFFF7FE0FFEE
:1015E000FF7FE0FFFD7FC0FFFC3F807FFC1F001FEF
:1015F000F80F0000E0030000F0030000F803000013
:10160000FE030000FF030080FF0300E0EF0300F093
:10161000E70300F8E10300FEE003007FE003C01FE2
:10162000E003E00FE003E0FFFFFFE0FFFFFFE0FF6C
:10163000FFFFE0FFFFFFE0FFFFFFE0FFFFFFE0FF36
:10164000FFFF0000E0030000E0030000E0030000F3
:1016500000000000003FE0FF0F7EE0FF0F7EE0FF94
:101660000F7CE0FF07FCE0FF07F8E0FF07F8E0FF72
:1016700007F8E0C307F8E0C307F8E0C307F8E0C3E2
:101680000FFCE0C30FFCE0C31FFEE0C3FF7FE0835D
:10169000FF7FE083FF3FE003FF3FE003FF1FE00326
:1016A000FE0F0000F80300C0FF0000F8FF0700FC79
:1016B000FF0F00FFFF1F80FFFF3F80FFFF7FC0FF86
:1016C000FF7FE09F03FFE0C703FCE0C703F8F0E300
:1016D00003F8F0E103F8F0E103F8F0E107FCF0E1D2
:1016E0000FFEF0E1FF7FF0E1FF7FF0C1FF3FF0C3AD
:1016F000FF3FF083FF1F0000FF070000FC01000018
:101700000000E0030000E0030080E00300E0E003ED
:1017100000F0E00300FCE00300FFE003C0FFE00393
:10172000F0FFE003F8FFE003FE7FE083FF1FE0E34C
:10173000FF0FE0F3FF03E0FFFF00E0FF3F00E0FFEB
:101740000F00E0FF0300E0FF0100E07F0000E01F6A
:101750000000E00700000000C007003EF01F80FF0F
:10176000F83FC0FFF93FC0FFFD7FE0FFFF7FE0FFD4
:10177000FFFFF0FF1FFEF0E307FCF0C10FF8F0C120
:101780000FF8F0C10FF8F0811FF8F0831FFCF0FF95
:101790003FFCE0FFFF7FE0FFFF7FE0FFFE7FC0FF39
:1017A000FC3F807FFC1F001FF80F0000E00700FCDB
:1017B000010000FF070080FF0FFCC0FF1FFCC0FFFF
:1017C0001FF8E0FF3FF8E0FF3FF8F0873FF8F00335
:1017D0003FF8F0013EF8F0013EFCF0013EFCF00164
:1017E0001E7EF0031E7FF00FCE7FE0FFFF3FE0FF85
:1017F000FF1FC0FFFF1FC0FFFF0F00FFFF0300FE22
:10180000FF0000F01F00003E000080FF0000C0FF4E
:101810000100E0FF0300E0E30300F0C10700F080F7
:101820000700F0800700F0800700F0C10700E0E348
:101830000300E0FF0300C0FF010080FF0000003E46
:1018400000000100000302000808000618000B2435
:1018500000083A00014A00044C00045400055C00F2
:101860000766000274000578000182000684000605
:101870009000059C0006A60006B20007BE0006CC3C
:101880000006D80006E40006F00006FC000108018E
:10189000020A01070E01071C01072A010538010B86
:1018A0004201075801066601077201078001068E92
:1018B00001069A0107A60107B40103C20105C80188
:1018C00006D20106DE0109EA0107FC01080A020648
:1018D0001A0208260207360207440207520207606E
:1018E00002076E020B7C0207920207A00207AE02FB
:1018F00003BC0206C20203CE0209D40208E60202B9
:10190000F60206FA02060603061203061E03062A5C
:1019100003053603064003064C03015803045A032B
:10192000056203016C03096E03068003068C03063F
:10193000980306A40304B00305B80304C20306CA4F
:101940000306D60309E20305F40306FE03050A04B1
:10195000051404011E04052004082A04063A04079D
:101960004604065404066004066C04097804068ADA
:10197000040B960406AC0407B80407C60406D40496
:1019800009E00409F2040704050812050722050608
:101990003005073C05074A0507580509660507781D
:1019A000050886050796050BA4050CBA0509D2059E
:1019B0000AE40506F8050704060B120607280606C2
:1019C0003606064206064E06055A060764060672E5
:1019D00006097E06059006069A0606A60606B206C3
:1019E00007BE0607CC0606DA0606E60606F2060677
:1019F000FE06060A07051607062007092C07053EFE
:101A0000070748070656070962070A740707880789
:101A100007960705A40706AE0709BA0706CC07060E
:101A2000D8071BF000780000007802000E4003C0C9
:101A300002700E4003C00270004010C011207FF8F9
:101A4000122012200C2000E001101110091006E0F5
:101A500001000EC01120111011000E000EE0111037
:101A6000111011100AE00C001200110000780F8014
:101A70003060401080088008401030600F800050B7
:101A8000002000F8002000500100010001000FE0DC
:101A900001000100010040003800010001000100C8
:101AA00001000100180060001800060001800060BD
:101AB00000180FE010101010101010100FE0102080
:101AC00010201FF0100010001860141012101210D7
:101AD000111010E0082010101110111011100EE05C
:101AE00003000280024002201FF0020002000800F2
:101AF00011F01110111011100E100FC010A0109045
:101B0000109010900F00001000101C10031000D057
:101B100000300EE011101110111011100EE001E054
:101B20001210121012100A1007E018C0400038C03E
:101B30000200050005000880088010401040048065
:101B400004800480048004800480048010401040DD
:101B500008800880050005000200002000101B100E
:101B6000009000600F80104020204F905050505047
:101B700050505FD0102010400F801800070004C0A4
:101B8000043004C0070018001FF0111011101110CC
:101B900011E00E0007C008201010101010101010D7
:101BA00008201FF01010101010101010082007C08F
:101BB0001FF0111011101110111011101FF0011051
:101BC000011001100110001007C0082010101010A3
:101BD000121012101E201FF0010001000100010070
:101BE00001001FF010101FF0101010001000101056
:101BF00010100FF01FF001000280044008201010A8
:101C00001FF0100010001000100010001FF0003036
:101C100000C003000C00030000C000301FF01FF0E4
:101C2000003000C00100060018001FF007C00820A7
:101C30001010101010101010082007C01FF0021014
:101C400002100210021001E007C00820101010104E
:101C500010103010482047C01FF002100210021070
:101C6000051008E0100008E01110111011101110FB
:101C700011100E200010001000101FF000100010B6
:101C8000001007F00800100010001000080007F016
:101C9000007001800600180006000180007000F04E
:101CA00007001800060001C0003001C0060018003F
:101CB000070000F018300440028001000280044058
:101CC00018300010006001801E00018000600010CC
:101CD00018101410121011101090105010307FF8BE
:101CE00040084008001800600180060018006000ED
:101CF000400840087FF801000080004000200010EC
:101D000000200040008001004000400040004000F2
:101D10004000400040004000000800100C0012404D
:101D20001240124012401F801FF8108010401040D7
:101D300010400F800F80104010401040104008806D
:101D40000F8010401040104008401FF80F801240D4
:101D50001240124012400B8000401FF00048004823
:101D600000080F8090409040904088407FC01FF84E
:101D700000800040004000401F801FC8800080009D
:101D800080407FC81FF802000500088010401FF83F
:101D90001FC00080004000401F80008000400040C5
:101DA0001F801FC000800040004000401F800F8047
:101DB00010401040104010400F80FFC010801040B5
:101DC000104010400F800F8010401040104008401D
:101DD000FFC01FC000800040004011801240124030
:101DE00012400C4000400FF0104010400FC0100097
:101DF0001000100008001FC000C0070018001800E5
:101E0000070000C000C007001800070000C007005E
:101E10001800070000C018C005000200050018C027
:101E200000C0870078001800070000C01840144068
:101E30001240114010C0010001003EF0400840086F
:101E40007FF8400840083EF00100010003000080D8
:101E50000080010001000200020001801FF0111447
:101E600011101110111411101800070004C00430D3
:101E700004C0070018001FF01110111011101110EC
:101E80000E001FF011101110111011E00E001FF0C4
:101E90000010001000100010001070001800170053
:101EA00010F01010101010101FF070001FF0111023
:101EB00011101110111011101010081004E003007F
:101EC00001001FF00100030004E0081010100820BA
:101ED00010101110111011100EE01FF00800060074
:101EE000010000C000201FF01FF0080206040104DA
:101EF00000C400221FF01FF00100030004E00810DE
:101F00001010100010000FF0001000100010001052
:101F100000101FF01FF0003000C003000C00030091
:101F200000C000301FF01FF001000100010001009F
:101F300001001FF007C00820101010101010101022
:101F4000082007C01FF00010001000100010001043
:101F50001FF01FF0021002100210021001E007C073
:101F60000820101010101010101008200010001081
:101F700000101FF0001000100010103010C01300EF
:101F80000C00030000C0003003800440082008203B
:101F90001FF008200820044003801830044002800D
:101FA00001000280044018301FF0100010001000E3
:101FB000100010001FF0700001F00200020002008B
:101FC000020002001FF01FF01000100010001000AF
:101FD0001FF010001000100010001FF01FF0100084
:101FE0001000100010001FF0100010001000100072
:101FF0001FF070000010001000101FF01100110001
:10200000110011000E001FF011001100110011004D
:1020100011000E00000000001FF01FF01100110061
:10202000110011000E0008201110111011101110D4
:10203000092007C01FF00100010007C00820101090
:10204000101010101010082007C0100009E0061032
:102050000210021002101FF00C0012401240124039
:1020600012401F800FE010501048104810480F8891
:102070001FC012401240124012400D801FC000408D
:1020800000400040004070001C0013C01040104091
:102090001FC070000F8012401240124012400B808F
:1020A00010400840058002001FC002000580084063
:1020B000104008801240124012400D801FC00400E2
:1020C0000200010000801FC01FC0040802100110A0
:1020D00000881FC01FC00200020005800840104099
:1020E000100010000FC00040004000401FC01FC083
:1020F000008001000600010000801FC01FC0020018
:102100000200020002001FC00F801040104010406B
:1021100010400F801FC000400040004000401FC022
:10212000FFC010801040104010400F800F80104002
:102130001040104010400880004000401FC0004088
:10214000004000C0870078001800070000C00F8022
:10215000104010401040FFF81040104010400F8019
:1021600018C005000200050018C01FC010001000B4
:10217000100010001FC0700003C004000400040021
:1021800004001FC01FC01000100010001FC010006E
:10219000100010001FC01FC01000100010001FC052
:1021A0001000100010001FC07000004000401FC051
:1021B0001100110011000E001FC0110011001100CC
:1021C0000E0000001FC01FC01100110011000E0002
:1021D000088010401240124012400F801FC00200C1
:1021E00002000F8010401040104010400F801180FE
:1021F0000A400640024002401FC00F8012501240A9
:10220000124012500B802F636D64004D514973646E
:1022100070000D0A436F6E74656E742D547970658D
:102220003A206170706C69636174696F6E2F782DEC
:102230007777772D666F726D2D75726C656E636F33
:102240006465640D0A0D0A00436F6E74656E742D2B
:102250004C656E6774683A20000D0A557365722DDF
:102260004167656E743A207467722F312E310D0A02
:102270004163636570743A202A2F2A0D0A436F6EFA
:102280006E656374696F6E3A20636C6F73650D0AD7
:10229000000D0A0020485454502F312E310D0A48A9
:1022A0006F73743A2000504F535420000D0A557339
:1022B00065722D4167656E743A206D656761640DC6
:1022C0000A4163636570743A20746578742F68748A
:1022D0006D6C0D0A0D0A0020485454502F312E31D8
:1022E0000D0A486F73743A200047455420000001DE
:1022F00008000604000145000082000040002000A4
:1023000011241FBECFEFD1E2DEBFCDBF00E00CBF76
:1023100017E0A0E0B2E0E2EFF7E401E00BBF02C09B
:1023200007900D92A631B107D9F720E1A6E1B7E0F9
:1023300001C01D92A136B207E1F70E9450320C9401
:10234000F7A30C94000010927E0810927D088FEF86
:102350008093180208950F931F93CF93DF93EB019F
:1023600040E350E0BC0180E69FE00E9448A06BEB98
:1023700072E080E69FE00E94EC9F1092980F2091FF
:10238000980F2430C8F40097B9F08E01020F111D88
:102390004AE050E060E070E00E94A59EF801608392
:1023A0008091980F8F5F8093980F6BEB72E080E0C5
:1023B00090E00E94EC9FE3CF822FDF91CF911F919D
:1023C0000F910895613049F4DA01EBE6F2E08D9166
:1023D000819382E0E137F807D1F70895623049F43C
:1023E000DA01EEE7FEE08D9181938EE0E438F807A4
:1023F000D1F70895E091F90EF091FA0E908121E065
:1024000030E0082E01C0220F0A94EAF7922B908345
:102410000895E091F30EF091F40E208181E090E0B8
:102420000090110202C0880F991F0A94E2F7282B2E
:1024300020830895F894E091F30EF091F40E9081CA
:1024400021E030E001C0220F8A95EAF7322F309563
:1024500093239083E091F90EF091FA0E8081822B04
:1024600080838BED95E00197F1F700C00000E091CB
:10247000F90EF091FA0E808183238083EAEDF0E07B
:102480003197F1F700C0E091F30FF091F40F8081E4
:10249000E1E0F5E03197F1F7789482230895F8941C
:1024A000E091F30EF091F40E408121E030E0062E31
:1024B00001C0220F0A94EAF7922F90954923408396
:1024C000E091F90EF091FA0E3081322B308329E23F
:1024D0002A95F1F700C0882339F0E091F90EF091C8
:1024E000FA0E80818923808385EE8A95F1F70000BA
:1024F000E091F90EF091FA0E80818923808378941F
:102500000895F894E091F30EF091F40E908121E09B
:1025100030E0082E01C0220F0A94EAF7322F3095DE
:1025200093239083E091F90EF091FA0E9081922B13
:10253000908394E09A95F1F70000E091F90EF09104
:10254000FA0E9081932390839AE39A95F1F7000015
:10255000E091F30FF091F40F20819BEB9A95F1F746
:1025600000C0789430E002C0359527958A95E2F74F
:10257000822F817008951F93CF93DF93D82F162F4A
:10258000C9E0C15031F0612F8D2F817088DFD69561
:10259000F8CFDF91CF911F9108951F93CF93DF93D1
:1025A000182FD9E0C0E0D15049F0812FAADF20E8F0
:1025B000829FC0011124C695C82BF5CF8C2FDF91C7
:1025C000CF911F910895EF92FF920F931F93CF9396
:1025D000DF93182FF62EEA01E22E2CDF811163C063
:1025E000612FF11003C08CECC6DF09C085E5C3DFA5
:1025F00000E0612F8991BFDF0F5F0830D1F7612FB5
:102600008EEBB9DF812FC9DFC82F812FC6DFD82F0E
:10261000F11012C0812F0EDF612F8CECACDF612F27
:1026200084E4A9DFEE2DF0E0EE0FFF1FE15FFF4E27
:102630002BE930E031832083E091F90EF091FA0E1E
:10264000908121E030E0012E01C0220F0A94EAF7C8
:10265000922B9083E091F30EF091F40E9081922BE7
:102660009083EC2FE295EF702D2F277080E1289F4B
:1026700090011124E22BCF7041E752E0C49FC001CA
:10268000C59F900D1124D7FF03C0EF57805197428B
:1026900064E670E00E94C79CCB0124E6E202800D54
:1026A000911D112402C088EC92E3CDB7DEB7E6E0BD
:1026B0000C94659D98E02CE8362F3827869530FDE0
:1026C000822766959150C1F708951F93CF93DF93AA
:1026D000C82FB0DE6C2F8CEC4EDF6C2F85EF4BDFFC
:1026E00014E08C2F5ADFD82FDF7082958F70482F1F
:1026F00050E02D2F30E0209530952F703327421772
:10270000530711F410E003C0115059F71FEF8C2F3D
:1027100091DE1F3F09F4DFEF8D2FDF91CF911F91E5
:102720000895FF920F931F93CF93DF93C82FD62F57
:10273000DC6F14E00D2F00958C2F7CDE6C2F8CEC61
:102740001ADF6C2F8AE517DF6C2F8D2F14DF6C2FAB
:10275000802F11DF8C2F21DFF82E8C2F1EDF8AEACD
:10276000F81611F0115041F78C2F64DECDB7DEB7AB
:10277000E5E00C94669D4FE252E160E070E084E792
:102780009AE00C94DE82DC012C912F3229F5FC01B9
:10279000319680E0BF019191903231F09F3221F06B
:1027A000BF018F5F8630B1F790E0681B790BE7E7D8
:1027B000FEE0DF010D900020E9F7AD014150510925
:1027C00047575E404817590739F4CF010E943AA095
:1027D000892B11F481E008958FEF08958234A1F4DC
:1027E000673019F48CE890E01FC0663019F48AE86D
:1027F00090E01AC0653019F488E890E015C06430A4
:10280000B9F483EB90E010C0853491F4633019F48F
:1028100088E990E009C0643019F48AE990E004C0C6
:10282000653031F48CE990E09093910F8093900F94
:102830000895863419F481E390E01DC0853419F4BD
:102840008EE290E018C0823419F485E290E013C063
:10285000873419F484E390E00EC0843419F48BE2D9
:1028600090E009C0813419F482E290E004C083341E
:1028700031F488E290E09093F70F8093F60F08957B
:10288000863479F481E390E09093F40E8093F30E14
:1028900080E390E09093FA0E8093F90E8FE290E03F
:1028A00065C0853479F48EE290E09093F40E8093C5
:1028B000F30E8DE290E09093FA0E8093F90E8CE285
:1028C00090E054C0823479F485E290E09093F40E65
:1028D0008093F30E84E290E09093FA0E8093F90EC9
:1028E00083E290E043C0873479F484E390E09093EE
:1028F000F40E8093F30E83E390E09093FA0E8093AE
:10290000F90E82E390E032C0843479F48BE290E0F7
:102910009093F40E8093F30E8AE290E09093FA0E77
:102920008093F90E89E290E021C0813479F482E24B
:1029300090E09093F40E8093F30E81E290E09093F8
:10294000FA0E8093F90E80E290E010C0833491F487
:1029500088E290E09093F40E8093F30E87E290E08B
:102960009093FA0E8093F90E86E290E09093F40F24
:102970008093F30F0895A1E0B0E0E1ECF4E10C9452
:102980004C9D182F862F49837BDF4981113319F421
:10299000842F30DD0EC0E091F90EF091FA0E8081A7
:1029A00021E030E001C0220F4A95EAF72095282364
:1029B00020832196E3E00C94689DCF93C82F833049
:1029C00038F58091130235DFC13089F4E091F60FBC
:1029D000F091F70F208181E090E000909F0702C006
:1029E000880F991F0A94E2F7282B208328C0C23051
:1029F00079F4E091F60FF091F70F208181E090E0FB
:102A000000909F0702C0880F991F0A94E2F714C034
:102A1000C33011F4FEDC13C0C43089F4E091F30E2E
:102A2000F091F40E208181E090E00090110202C04C
:102A3000880F991F0A94E2F7809582238083CF91B3
:102A40000895CF93C82F809112021ADFC13079F414
:102A5000C0919F078091130213DF8C2FCBDCC091B4
:102A60001102809112020CDF8C2FC4DC15C0C23021
:102A700061F0C43079F4C09111028091120200DF3C
:102A80008C2FB8DCC6DC81E098DF84E096DF82E042
:102A900094DF05C084E091DF81E08FDFBADCCF9165
:102AA0000895EF92FF920F931F93CF93DF93E82E39
:102AB00080911202E5DEC7E0D0E0F12C01E010E0E9
:102AC00022E32A95F1F7E091F30EF091F40E809154
:102AD000110297010C2E02C0359527950A94E2F752
:102AE00020FF0AC02081A80102C0440F551F8A950B
:102AF000E2F7242B20830BC02081A80102C0440FE1
:102B0000551F8A95E2F7CA0180958223808381E070
:102B100054DF82E052DF84E050DF219788F6409155
:102B200011026091120280E326DF81E046DFE0912E
:102B3000F30FF091F40F808190E00090110202C039
:102B4000959587950A94E2F78170992721E082276D
:102B5000C82FC17082E031DF84E02FDFD0911102F5
:102B6000809112028DDE8D2F45DC8C2FCDB7DEB724
:102B7000E6E00C94659DEF92FF920F931F93CF9325
:102B8000DF93E82E409111026091120280E3F3DEA0
:102B90008091120275DE82E010DFC7E0D0E0F12CF8
:102BA00001E010E081E009DFE091F30FF091F40F14
:102BB000208130E00090110202C0359527950A94DB
:102BC000E2F720FD09C098010C2E01C0220F0A94E3
:102BD000EAF72095F22207C098010C2E01C0220FBF
:102BE0000A94EAF7F22A82E0E8DE2197D8F6C0914B
:102BF00011028091120244DE8C2FFCDB81E0DDDECD
:102C000081E0E81202C005DC02C084E0D6DE82E08A
:102C1000D4DE409111026091120280E3ACDE8F2D70
:102C2000CDB7DEB7E6E00C94659D1F93CF93DF939D
:102C3000182FEB0181E005DF82E003DF80E831DF60
:102C4000812F2FDF8C2F2DDF8D2F2BDF83E0F9DEFF
:102C5000DF91CF911F910895CF93DF93C82F81E02B
:102C6000F0DE82E0EEDE80E81CDF8C2F1ADF83E0EE
:102C7000E8DE82E0E6DE81E814DF80E07CDFC82F5A
:102C800081E079DFD82F83E0DCDE2D2F30E0922F3A
:102C900088278C0F911DDF91CF910895A0E0B0E0BF
:102CA000E4E5F6E10C94459DB82E34E3C32E3AE0FA
:102CB000D32E0AE112E0C0E0D0E0E82EF12CC701EB
:102CC0008053974F7C01F60181916F01813051F162
:102CD00021960E5F1F4FC732D105A9F7EB2DF0E00B
:102CE000EE0FFF1FE65EFD4F0190F081E02DC191D8
:102CF000C093F20FCF010E94B69F8093A2078C2F42
:102D0000BFDDE091F30EF091F40E208181E090E0C0
:102D10000090A20702C0880F991F0A94E2F7282B9F
:102D200020832AC0DE01AA51B64F8C91833081F6F0
:102D3000DE01A053B74F9C91F70180819813C8CF53
:102D4000F801A081B181AD90A092F20FCD010E9457
:102D5000B69F8093A2078A2D93DDA091F30EB091C8
:102D6000F40E2C9130E00090A20702C03595279513
:102D70000A94E2F720FFACCFCDB7DEB7EAE00C94BF
:102D8000619DA1E3B0E0E7ECF6E10C943D9D4C01C0
:102D90006FA34BA72E8F86E496E4A0E08E8B9F8BCB
:102DA000A88F8B8B9C8BAD8B888B998BAA8B109269
:102DB000980F23E02CA31D8E19A222242394312CDA
:102DC000AE01495F5F4F5A8F498F262F30E039A7F8
:102DD00028A7220F331F265B364F3EA32DA33DA706
:102DE0002CA7465051095C8F4B8F2091980FA22E33
:102DF000B12CF40101900020E9F73197E819F909A5
:102E0000AE16BF0608F08FC6A80CB91CD5013C91C0
:102E10003A3049F486E48E8B8F8B1C868B8B8C8B9F
:102E20001D8E19A26EC63A3311F03D3321F44D8D3B
:102E3000433009F052C63B3309F451C6303709F428
:102E400050C6313609F450C6353609F450C6373607
:102E500009F450C6333709F050C004E31AE059EDC5
:102E6000A52E51E0B52E6AE1C62E62E0D62E76EE92
:102E7000E72E79E0F72ED8018D918D01813071F523
:102E8000F60180819181DC017D90CD010E94B69F89
:102E90002C01682F872DA2DC872DF2DCF7018081C1
:102EA000813049F4E091900FF091910F6081718130
:102EB000615080F413C0E091F30EF091F40E808124
:102EC00090E0042C02C0959587950A94E2F780FF64
:102ED00005C060E070E0C5010E9435A3F2E0AF0ECE
:102EE000B11C22E0C20ED11C3FEFE31AF30A4AE004
:102EF0000B35140709F0BFCF04C6313409F4FDC502
:102F0000323409F4FCC53C3709F40DC63B3209F4F0
:102F1000FEC53E3709F4FDC53D3209F4FDC55D8DA2
:102F2000511107C08E89863411F03F8BEAC53E8B64
:102F3000E8C54D8D473039F48B89863411F03C8BD0
:102F4000E0C53B8BDEC55D8D583039F48889863409
:102F500011F0398BD6C5388BD4C54D8D413041F039
:102F6000443031F08D8D8550823008F079C40EC028
:102F70005FA1543659F0E8A5F9A5EC5CF54F8081C6
:102F8000811104C0ADA1BEA11D921C928F8986340F
:102F900009F41F8ACE0146960E94B69F2C018AA78B
:102FA000E82EFF24E7FCF0948701000F111FF801C1
:102FB000E65EFD4F80819181FC017190CF010E94FE
:102FC000B69F6C01D5018C918E3761F4F801EF5CEE
:102FD000F74F80819181029719F426E02D8F02C06E
:102FE00035E03D8F6C2D872DF9DB872D49DC609016
:102FF000980FA62CB12CA4014A0D5B1D5BA34AA31C
:10300000DA018C9197012950374F38A32F8F8E35D5
:1030100031F4D9018C9181110CC081E008C0863750
:1030200061F4AF8DB8A18C91811103C082E08C93C3
:10303000F1C3EF8DF8A11082EDC3883781F4AF8D15
:10304000B8A11C9286E48E8B8F8BF801E952F84F61
:1030500011821082F701E655F84F1082E1C3EF8D1F
:10306000F8A11082F701EA51F64F9081913009F0F2
:10307000F2C0F701EC5CF54F2081213009F034C13A
:10308000960D292F30E0F40101900020E9F73197E7
:10309000E819F9092E173F0758F4F401E20FF31F5E
:1030A000908126EC290F223018F09D3309F0C5C01D
:1030B00049A1242F30E0ECE0F0E0EC0FFD1FE20F1F
:1030C000F31F8083FE01E20FF31F158652E475168D
:1030D00019F085E47812ABC0CE010C960E94B69F21
:1030E000F801E65BF64F918380832D8D243051F4F7
:1030F000A091900FB091910F8D919C91892B11F01F
:1031000011821082C801865D9D4F0E9419A3F801AB
:10311000E856F64F918380833D8D353008F476C0B4
:10312000ADA1BEA18D919C91A8A5B9A5A655B84FFA
:10313000009769F58C91811157C0E091900FF09143
:10314000910F80819181892B29F0AAA1BBA18C913B
:103150008E3719F02D8D253041F011821082F80143
:10316000EF5CF74F3182208262C0D701A655B84F7D
:103170008C91811102C08FEF8C938C9190E09183A0
:10318000808382E090E0F801EF5CF74F4EC001973A
:10319000D9F5E091900FF091910F3D8D353049F4C4
:1031A000808191818F3F910580F48081918101968A
:1031B0000AC04D8D463049F480819181892B29F0D8
:1031C0008081918101979183808381E08C9383E05A
:1031D00090E0ACA5BDA58D939C9380819181F70172
:1031E000E655F84F808323C0813071F4F801EF5C1D
:1031F000F74F80819181029728F482E090E09183DB
:10320000808302C0318220821C9211C0009751F449
:10321000E091900FF091910FD801A65BB64F8D9180
:103220009C9103C0F801E35FF04F9183808386E4B3
:103230008E8B8F8B1C8619A2F3C28A3209F4EEC2E0
:10324000ECE0F0E0EC0FFD1F29A1E20FF11D8083FF
:103250002F5F29A3E5C2923009F046C03CA133306C
:1032600009F442C08C2D31DA682F66956B7F80910E
:10327000980FF401E80FF11D8081813359F08333F9
:1032800021F44E8D4130F1F405C0843369F45E8D34
:1032900051111CC0C1010CA002C0880F991F0A94D3
:1032A000E2F7809568231DC0823349F491010CA098
:1032B00002C0220F331F0A94E2F7622712C0803344
:1032C00081F407C02E8D222321F00BC03E8D3130BA
:1032D00041F491010CA002C0220F331F0A94E2F7BF
:1032E000622B8C2D1EDA96C2F701EC5CF54F208123
:1032F000243009F057C1F701E35FF54F20812531F4
:1033000009F04DC085E0A98DBA8D1D928A95E9F727
:10331000CE0143960E94B69F7C0120E0822F90E070
:10332000F401E80FF91FEA0DFB1D30813B3311F06A
:1033300031112CC08FEF860D820F8093980F709201
:103340001202C0921102F801E856F64F0190F08186
:10335000E02DEE0FFF1FE65EFD4F80819181FC01A5
:103360002191CF01209313020E94B69F80939F0763
:10337000CE0107960E94B69FBC018E2D880F880F44
:10338000885F53DC86E48B8B8C8B44C2E7E0F0E0F3
:10339000EC0FFD1FE80FF91F30832F5FBFCF2431E3
:1033A00009F07BC0CE0143960E94B69F5C017092EB
:1033B0001202C0921102F801E856F64F0190F08116
:1033C000E02DEE0FFF1FE65EFD4F80819181DC0155
:1033D0002D91CD01209313020E94B69F80939F07E9
:1033E00081E02FDB82E02DDB80E45BDBF701E05343
:1033F000F74F8081813041F4B7E0BA1528F489E1B4
:1034000050DB98E0F92E03C089E04BDBF12C83E020
:1034100018DB82E016DB81E444DB81E0ACDBE82EE4
:1034200083E00FDB8091980FF401E80FF11D2081FC
:10343000BB248F2D90E0A81AB90A213349F4F10179
:1034400002C0EE0FFF1FAA94E2F75F01AE2814C07E
:10345000223349F4910102C0220F331FAA94E2F7EC
:103460005901AE2409C0A10102C0440F551FAA94FE
:10347000E2F75A01A094AE2081E0E3DA82E0E1DADB
:1034800080E40FDBFF2011F089E101C089E009DB56
:103490008A2D07DB83E0D5DABDC1243009F082C074
:1034A0005AA5563259F483E48093130210929F0771
:1034B0008093120281E08093110219C0709212026F
:1034C000C0921102F801E856F64F0190F081E02D0C
:1034D000EE0FFF1FE65EFD4F80819181DC012D9193
:1034E000CD01209313020E94B69F80939F0781E035
:1034F000A8DA82E0A6DA2091980FFE013C9680E0DF
:1035000090E0A401420F511D9A01482FD901A80F44
:10351000B91F5C915B3341F0552331F05193019613
:103520008330910591F743E0ECE0F0E0EC0FFD1FF4
:10353000E40FF11D1082CE010C960E94B69FF82E6A
:1035400052E0851311C089E7ACDA81E014DBE82E84
:1035500083E077DA81E093E0E91201C080E0F82EA1
:1035600081E06FDA82E06DDA88E79BDA80E099DA51
:10357000A1E0FA1202C08FEA0AC0F11002C08EEA7E
:1035800006C0BFEFFB1621F081E88BDA8F2D89DAB8
:1035900082E057DA81E08093AE081092AC08109276
:1035A000AB0838C12889263409F4B1C0CE01409651
:1035B0000E94B69F782E6AE172E044E35AE0B2EAD4
:1035C0004B2EBFE05B2EC12CD12C9701245E384FCF
:1035D0003BA32AA366246394DB01AD90BD90BD019B
:1035E000C501019648AB59ABAEA77FA70E94B69F15
:1035F0007C01F501808144D948A959A9DA018D914E
:10360000AD016EA57FA5813009F06CC0F601EA51CD
:10361000F64F8081811166C0F601E053F74F80813B
:10362000871160C0E091F30EF091F40E2081FF2429
:10363000E7FCF09430E00E2C02C0359527950A94F3
:10364000E2F721708091980FD401A80FB11D8C91E1
:10365000813359F0833321F43E8D313091F405C02C
:10366000843361F43E8D311110C03081C1010E2CC4
:1036700001C0880F0A94EAF7382B1FC0803399F4F1
:1036800007C03E8D332321F019C03E8D3130B1F497
:103690003081C1010E2C01C0880F0A94EAF7809591
:1036A000832380830BC0823349F43081C1010E2C07
:1036B00001C0880F0A94EAF738273083E091F30EAF
:1036C000F091F40E808190E00E2C02C095958795C4
:1036D0000A94E2F78170821729F0AAA1BBA16C922B
:1036E00060924307F2018081843610F48C59808304
:1036F000FFEFCF1ADF0A2FEF421A520A37E2C31642
:10370000D10409F069CF86E4888B898B83C0E0916E
:10371000F30EF091F40E2081DD24C7FCD09430E04C
:103720000C2C02C0359527950A94E2F7422F417080
:10373000B42E813359F0833321F45E8D5130D1F4AE
:1037400005C08433A1F42E8D211118C0933031F4BB
:10375000D701A053B74F8C918F3F91F52081C101C4
:103760000C2C01C0880F0A94EAF7282B34C0803350
:1037700041F012C03E8D332321F02EC04E8D4130DA
:1037800059F52081C1010C2C01C0880F0A94EAF779
:1037900080958223808320C08233F1F4933099F4A2
:1037A000D701A053B74F8C918F3F69F0808190E093
:1037B0000C2C02C0959587950A94E2F780FD03C012
:1037C000842D6CDA09C02081C1010C2C01C0880F46
:1037D0000A94EAF728272083E091F30EF091F40E83
:1037E000808190E00C2C02C0959587950A94E2F7B1
:1037F00081708B1539F081E0F701E45EF84F80832A
:1038000080934307F701EE55F04F8081843610F422
:103810008C59808386E48E8B8F8B02C054E05D8F41
:10382000AF8DB8A18C9118160CF06BC12091980F38
:10383000F401E20FF11D818190ED980FF801E65B34
:10384000F64F9A3050F4992787FD9095C097918351
:1038500080832F5F2093980F54C11182108251C131
:103860004D8D423009F04FC059A1852F90E0E1E025
:10387000F0E0EC0FFD1FE80FF91F3083FE01E80FA9
:10388000F91F12825F5F59A381E0820F90E0F4017B
:1038900001900020E9F73197E819F9098E179F0781
:1038A00058F4F401E80FF91F808196EC980F9230DC
:1038B00018F08D3309F025C112E0120F3BA5130F4C
:1038C000173108F01EC15FA1E52EF12CCE01019643
:1038D0000E94B69FF701EE0FFF1FE952F84F24E157
:1038E000DC012A9FC0012B9F900D112491838083BE
:1038F000F701E655F84F108385E0EB8DFC8D1192B2
:103900008A95E9F710C13D8D333009F0FAC02F5F79
:103910002093980F4AE152E058A34F8F24E33AE0F6
:103920003BA32AA342EAA42E4FE0B42E50ED652E0D
:1039300058E0752E00E010E044244A94512C73E0C6
:10394000D72EAF8DB8A18D919D91B8A3AF8FFC01FB
:10395000C190CF010E94B69F7C018C2D0E94401423
:10396000AAA1BBA18D91BBA3AAA3813009F0A8C0D5
:10397000F801EA51F64F80818230E9F48091980F86
:10398000F401E80FF11D8081813309F4C8C0803350
:1039900009F4C7C0823309F093C08E2D0E946513CD
:1039A000682F66956B7F6D25643008F089C08E2D79
:1039B0000E94911385C0813049F56E2D8C2D0E9497
:1039C000EE138091980FF401E80FF11D8081803390
:1039D00029F4E091900FF091910F12C0813329F4F6
:1039E000E091900FF091910F0EC0823309F068C002
:1039F000E091900FF091910F80819181892B19F0C6
:103A0000118210825DC0518240825AC09091980FFD
:103A1000F401E90FF11D90819133A1F4833021F479
:103A2000F30180818F3FC9F5E091F30EF091F40E20
:103A30008081910102C0220F331FEA94E2F77901DD
:103A4000822B37C0903381F4E091F30EF091F40EA5
:103A50008081A10102C0440F551FEA94E2F77A0168
:103A6000E094E822E08226C0923321F5E091F30E43
:103A7000F091F40EFF24E7FCF094833089F4D30135
:103A80008C918F3F69F0808190E00E2C02C095955B
:103A900087950A94E2F780FD03C0802FFFD80AC003
:103AA0008081910102C0220F331FEA94E2F779016D
:103AB00082278083D5018C91843610F48C598C93A5
:103AC0000F5F1F4FBFEFAB1ABB0AEFEF6E1A7E0AF4
:103AD0000632110509F035CF14C021E00CC01D8E4F
:103AE00010C032E03D8F0DC043E04D8F0AC057E05B
:103AF0005D8F07C028E02D8F04C01CA202C031E0FA
:103B00003CA38091980F8F5F8093980F6EC945E01A
:103B100004C055E05D8F26CA46E04D8F23CA60E0A1
:103B200046CF63E044CFE196E2E10C94599DAFE1CA
:103B3000B0E0EDE9FDE10C94479D322F273240F4CF
:103B4000E22FF0E0EE0FFF1FEF5CF74F11821082C3
:103B5000DE0111967D015E96F7011192EA17FB07CF
:103B6000E1F7032F10E0F801EC5CF54F20812330E2
:103B700031F4F801E35FF54FE081E43011F03732C2
:103B800010F0EFEF01C0E1E0E0931802F801E55B0F
:103B9000F14FE081E1FF05C0883C910509F0A7C025
:103BA000A9C0883C910509F059C06C58754FFB01BC
:103BB000D12CC12CDF01A61BB70BCA014D3D51050D
:103BC00010F08CED90E0A817B90718F581918D30B1
:103BD00011F08A3041F4B2E0DB1641F080818A3086
:103BE00049F7D394E7CF92E0D91211C08F3E49F044
:103BF000982F9B7F9B3B29F0D701AC0DB11D8C9377
:103C0000C394ACE1AC1528F0A2E0DA2ED3CFD12CCE
:103C1000D1CFF701EC0DF11D108289818823F1F0DD
:103C20008A818436D9F0F70101900020E9F73197B5
:103C3000D701AE17BF0761F08D918037D1F7B7017B
:103C40008FEA98E00E9433A023E040E06CE203C0DA
:103C500023E040E064E6C70194D84CC0F801EA5183
:103C6000F64F8081811107C0F801E25EF64F808136
:103C70008F3F61F410C0823039F4F801E25EF64FF4
:103C800080818E3F19F407C0813029F0211103C0D3
:103C90008A81843679F5373268F581E0F801E95098
:103CA000F74F808380E3E0E6FFE0DF011D928A9515
:103CB000E9F727E1209FB001219F700D1124605E7C
:103CC000794F47E150E0CF013F8F0E9401A38091DF
:103CD000600F8F5F3F8D823050F0F801E25EF64F4B
:103CE00020812E5F40E0632F80E69FE04AD882E08B
:103CF000809318026F96E8E00C94639DA1E0B0E019
:103D0000E4E8FEE10C94439D482F082F10E0B80131
:103D10006A51764F7B01DB018C914801880C991C1C
:103D2000813099F54E3118F089E290E002C08CE2C2
:103D300090E09093F40F8093F30FF401E65EFD4F53
:103D40008081918101960E94B69F8093A207F40121
:103D5000E856F64FC080D180F601EE0FFF1FE65EF9
:103D6000FD4F8081918101960E94B69FB82EBEE1E1
:103D7000CB16D1041CF089E290E002C08CE290E006
:103D800090939F0F80939E0F39C0F401E65EFD4F24
:103D900080819181019649830E94B69FB82E498106
:103DA0004E3138F089E290E090939F0F80939E0F00
:103DB00006C02CE230E030939F0F20939E0FF40159
:103DC000E856F64F0190F081E02DEE0FFF1FE65E02
:103DD000FD4FC080D180C60101960E94B69F80939E
:103DE000A207F6018081843419F429E230E002C090
:103DF0002CE230E03093F40F2093F30F1092FD0E7D
:103E00001092FE0E1092FF0E1092000F1092010FF2
:103E10001092020F21E030E002C0220F331FBA944B
:103E2000E2F7B12CC12C78E0D72E40E050E0B0E0B2
:103E300081E090E0F4E0FA95F1F700004F5F5F4F0A
:103E4000483765E0560779F4BA3108F089C0BB0CF1
:103E5000BB0CBB0C8091FD0E829586958770B82AAD
:103E6000B092FD0E7DC0E091F30FF091F40F6081F0
:103E7000A091A20770E00A2E02C0759567950A947A
:103E8000E2F760FD1EC0AA24A394AB0EB150B83176
:103E900008F4DA94AC0102C0440F551FAA95E2F76A
:103EA000DA0164EC79E0408150E04A235B23452B42
:103EB00009F04BC06150710961157105A1F781E0EE
:103EC00082C0E0919E0FF0919F0F608170E06223AD
:103ED0007323672BE9F5AA24A394AB0EB1504C2DA4
:103EE00050E0B83180F46FEF6D0DDC0102C0AA0F15
:103EF000BB1F6A95E2F7BD01DA01A350B14F7C9177
:103F0000762B7C93DA94DA01A050B14F4FEF4D0D30
:103F1000BC0102C0660F771F4A95E2F7AB015C91C6
:103F2000542B5C9371E0A71202C0BB24B39464ECE1
:103F300079E0408150E042235323452B31F4615016
:103F4000710961157105A9F7BACFBA2D40E050E0AB
:103F5000D11003C0C39468E0D62EBA3208F46ACFF9
:103F60008BEE8B0F853068F48091000F8093FD0EEF
:103F70008091010F8093FE0E8091020F8093FF0EBF
:103F80000AC0B43030F48091FD0E86958093FD0E0A
:103F900004C0B53010F083E001C081E08093000FD1
:103FA000D7018C91813021F4F801E25EF64F09C00F
:103FB000F401E856F64F0190F081E02DE25EF64FF5
:103FC00081E0808380E02196ECE00C945F9D1F925D
:103FD0000F920FB60F9211240BB60F922F933F93AF
:103FE0004F935F936F937F938F939F93AF93BF9301
:103FF000EF93FF93F8948EE181DE8111E898789435
:10400000FF91EF91BF91AF919F918F917F916F91B0
:104010005F914F913F912F910F900BBE0F900FBE6C
:104020000F901F9018951F920F920FB60F921124A8
:104030000BB60F922F933F934F935F936F937F93A2
:104040008F939F93AF93BF93EF93FF93F8948FE178
:1040500055DE8111E9987894FF91EF91BF91AF916E
:104060009F918F917F916F915F914F913F912F9190
:104070000F900BBE0F900FBE0F901F9018951F92C0
:104080000F920FB60F9211240BB60F922F933F93FE
:104090004F935F936F937F938F939F93AF93BF9350
:1040A000EF93FF93F89480E229DE8111EA987894E7
:1040B000FF91EF91BF91AF919F918F917F916F9100
:1040C0005F914F913F912F910F900BBE0F900FBEBC
:1040D0000F901F9018951F920F920FB60F921124F8
:1040E0000BB60F922F933F934F935F936F937F93F2
:1040F0008F939F93AF93BF93EF93FF93F89481E2D5
:10410000FDDD8111EB987894FF91EF91BF91AF9114
:104110009F918F917F916F915F914F913F912F91DF
:104120000F900BBE0F900FBE0F901F9018951F920F
:104130000F920FB60F9211240BB60F922F933F934D
:104140004F935F936F937F938F939F93AF93BF939F
:10415000EF93FF93F8948BE1D1DD8111EC98789483
:10416000FF91EF91BF91AF919F918F917F916F914F
:104170005F914F913F912F910F900BBE0F900FBE0B
:104180000F901F9018951F920F920FB60F92112447
:104190000BB60F922F933F934F935F936F937F9341
:1041A0008F939F93AF93BF93EF93FF93F89489E11D
:1041B000A5DD8111ED987894FF91EF91BF91AF91BA
:1041C0009F918F917F916F915F914F913F912F912F
:1041D0000F900BBE0F900FBE0F901F9018951F925F
:1041E0000F920FB60F9211240BB60F922F933F939D
:1041F0004F935F936F937F938F939F93AF93BF93EF
:10420000EF93FF93F89487E179DD8111EE9878942C
:10421000FF91EF91BF91AF919F918F917F916F919E
:104220005F914F913F912F910F900BBE0F900FBE5A
:104230000F901F9018951F920F920FB60F92112496
:104240000BB60F922F933F934F935F936F937F9390
:104250008F939F93AF93BF93EF93FF93F89486E16F
:104260004DDD8111EF987894FF91EF91BF91AF915F
:104270009F918F917F916F915F914F913F912F917E
:104280000F900BBE0F900FBE0F901F9018951F92AE
:104290000F920FB60F9211240BB60F922F923F92EE
:1042A0004F925F926F927F928F929F92AF92BF9246
:1042B000CF92DF92EF92FF920F931F932F933F9332
:1042C0004F935F936F937F938F939F93AF93BF931E
:1042D000EF93FF93CF93DF93CDB7DEB72797DEBF82
:1042E000CDBF80919E078F5F80939E07883C09F029
:1042F0004BC010929E0780919D078F5F80939D0712
:1043000090919C07923111F09A3251F48E3141F420
:10431000809110028230C1F181E08093100234C09C
:104320008C3391F510929D0731E0390F30939C0743
:104330008091180790911907A0911A07B0911B0757
:104340000196A11DB11D8093180790931907A093A2
:104350001A07B0931B0721E020938A073C33A1F48E
:1043600010929C0780919B078F5F80939B078831F9
:1043700059F410929B0780919A078F5F80939A0758
:10438000883011F420939A0780917F08813099F446
:104390008091140290911502A0911602B09117021B
:1043A0000196A11DB11D8093140290931502A09354
:1043B0001602B09317028091450990914609A09189
:1043C0004709B091480983309105A105B10558F01E
:1043D0000197A109B1098093450990934609A093DB
:1043E0004709B09348098091730E9091740E823002
:1043F000910528F001979093740E8093730E80912D
:10440000760E8F3F69F08091A8079091A9078131BE
:1044100027E2920728F001979093A9078093A807B5
:1044200024E33AE03A8329832FE0422E20E1522E02
:1044300038E9832E39E0932E4DE0A42E4FE0B42EC0
:104440000AE419E057EDC52E57E0D52E61E3E62EBC
:1044500068E0F62E7BE4272E7EE0372EEAE16E2E12
:10446000E2E07E2E1F821E827FEFA981BA812D910C
:10447000BA83A983213009F057C0EE81FF81EA5148
:10448000F64F8081813009F0A4C0F40180819181D0
:10449000181619060CF09DC0D5018D919C910097BE
:1044A00009F497C0EE81FF81E950F74F2081211177
:1044B00090C081309105A9F5F30120813181C901B6
:1044C00001962B833C837D830E94B69F682F2B81AE
:1044D0003C81D9018C910E94EE13E091900FF091F4
:1044E000910F80819181682FD8014D915C919C0141
:1044F00033277D812417350714F461E004C0421787
:1045000053071CF46FEF680F03C0D4011D921C9277
:10451000862F90E091838083F40180819181D50181
:1045200056C00197F50146C0D7018D919C91119716
:10453000009731F101978D939C93BE81B63241F47F
:1045400040917D0850917E08452B11F41092D70EB2
:10455000009751F4F101308131FD06C0E1E0F0E057
:10456000D601ED93FC930CC0D1013C9131FF08C002
:10457000803A910528F470936B02F7011182108242
:10458000D6018D919C9111978330910518F0019778
:104590008D939C93233089F4EE81FF81E35FF54F87
:1045A00080818430B1F4F801808191811816190658
:1045B00084F40197918380830CC021110AC0D80133
:1045C0008D919C911197823091051CF001978D93EC
:1045D0009C93F20180819181009759F0EE81FF81D7
:1045E000E053F74F2081233021F00197D2018D93C2
:1045F0009C932E813F812F5F3F4F3F832E8332E07C
:10460000430E511C82E0880E911C92E0A90EB11C51
:104610000E5F1F4FA2E0CA0ED11CB2E0EB0EF11CE0
:10462000EFEF2E1A3E0AF2E06F0E711C2E813F81D1
:104630002732310509F019CF80911002823069F4D8
:1046400080912F089091300883309105B0F0019748
:104650009093300880932F0810C0E5E2F8E0808145
:1046600091818330910518F0019791838083329670
:1046700038E0EF32F30799F7E3CF8FB180953091AF
:10468000C90F832790910D029823909590930D0266
:1046900020910C022823292720930C0289238223AE
:1046A000282F23239091990F922B9093990F3827BD
:1046B0003093C90F83232091950F282B2093950FBA
:1046C0008CB180953091920F832790910B029823A3
:1046D000909590930B0220910A022823292720937A
:1046E0000A0289238223282F23239091940F922B4F
:1046F0009093940F38273093920F83232091F10FDA
:10470000282B2093F10F83B180953091A00F832740
:1047100090910902982390959093090220910802A4
:10472000282329272093080289238223282F232343
:104730009091F90F922B9093F90F38273093A00F97
:1047400083232091FA0F282B2093FA0F80B18095B4
:1047500030910C10832790910702982390959093A5
:104760000702209106022823292720930602892385
:104770008223282F23239091030F922B9093030FD2
:10478000382730930C1083232091A10F282B2093DE
:10479000A10F86B180953091F50F83279091050286
:1047A00098239095909305022091040228232927AD
:1047B0002093040289238223282F23239091F80F2A
:1047C000922B9093F80F38273093F50F8323209185
:1047D000040F282B2093040F89B180953091FC0E93
:1047E0008327909103029823909590930302209140
:1047F0000202282329272093020289238223282FBB
:1048000023239091970F922B9093970F38273093F3
:10481000FC0E83232091FB0F282B2093FB0F82B3E8
:1048200080953091D00F8327909101029823909525
:10483000909301022091000228232927209300024F
:1048400089238223282F23239091930F922B9093D7
:10485000930F38273093D00F83232091FB0E282B02
:104860002093FB0E8091A1078C3021F4A098109228
:10487000A10705C0882319F08F5F8093A10781E00D
:104880008093A30727960FB6F894DEBF0FBECDBF67
:10489000DF91CF91FF91EF91BF91AF919F918F9158
:1048A0007F916F915F914F913F912F911F910F9148
:1048B000FF90EF90DF90CF90BF90AF909F908F9040
:1048C0007F906F905F904F903F902F900F900BBE16
:1048D0000F900FBE0F901F901895F8949091950F20
:1048E000892398279093950F78940895F894909140
:1048F000990F892398279093990F78940895F894A5
:104900009091F10F892398279093F10F789408954F
:10491000F8949091940F892398279093940F78940A
:104920000895F8949091FA0F892398279093FA0F9D
:1049300078940895F8949091F90F8923982790938B
:10494000F90F78940895F8949091A10F89239827EE
:104950009093A10F78940895F8949091030F892370
:1049600098279093030F78940895F8949091040FEA
:10497000892398279093040F78940895F894909140
:10498000F80F892398279093F80F78940895F89456
:104990009091FB0F892398279093FB0F78940895AB
:1049A000F8949091970F892398279093970F789474
:1049B0000895F8949091FB0E892398279093FB0E0D
:1049C00078940895F8949091930F89239827909361
:1049D000930F78940895009731F023E52A95F1F725
:1049E00000000197F8CF08956AE00E94A79C20E19B
:1049F000829F900D1124892F0895982F92959F7072
:104A00008F702AE0929F800D11240895A6E0B0E0F7
:104A1000ECE0F5E20C944D9D83E480931302109238
:104A20009F0744E050E06EE271E0CE0101960E94E3
:104A300001A3898191E0980F923030F080931302A6
:104A40008A81805380939F0783E48093120281E0E0
:104A50008093110244E050E06CE271E0CE010196D7
:104A60000E9401A3898191E0980F923030F08093E9
:104A700012028A8180538093110280911002823049
:104A800009F443C081E00E94211582E00E942115B3
:104A900080ED0E94511580E00E94511583E00E9434
:104AA000211582E00E94211581ED0E94511580E0C0
:104AB0000E94BB15A2DF80939D0780E00E94BB157A
:104AC0009CDF80939C0780E00E94BB1596DF80935B
:104AD0009B0781E00E94BB1580939A0783E00E94A8
:104AE000211580919A078150873068F082E0809389
:104AF000100210929D0710929C0710929B0781E074
:104B000080939A0702C0109210022696E2E00C945D
:104B1000699DCF93DF93C82F83E00E94211581E028
:104B20000E94211582E00E94211588E70E945115FC
:104B300080E00E9451158EEA0E94511585ED0E9479
:104B4000511580E80E94511581E80E9451158C2F63
:104B500090E0880F991F87529E4F0E9419A38F3FA4
:104B600009F48FE70E9451158DE80E94511584E1E8
:104B70000E94511581EA0E94511588EC0E9451153E
:104B800086EA0E94511580E20E94511580E00E9441
:104B9000511581E20E94511580E00E9451158FE766
:104BA0000E94511580E00E94511582E20E94511529
:104BB00080E00E94511587E00E94511583E00E9419
:104BC000211582E00E94211588E70E94511580E49A
:104BD0000E945115C0E0D4E080E00E945115219759
:104BE0002097D1F783E00E94211582E00E942115D1
:104BF00088E70E94511580E00E9451158FEA0E94BB
:104C0000511583E00E942115DF91CF910895A0E016
:104C1000B0E0EDE0F6E20C94439DD82FC62F7A0168
:104C2000D22E8091AE088A3008F03FC081E00E9409
:104C3000211582E00E94211588E70E94511580E02D
:104C40000E94511580E20E94511581E00E94511589
:104C500081E20E94511521E0D21202C080E001C021
:104C60008D2F0E9451158FE70E94511582E20E94FC
:104C7000511581E0D81201C0C2E08C2F0E9451155D
:104C800021E0D21202C083E001C081E08C0F0E94BB
:104C9000511583E00E94211582E00E94211588E7CA
:104CA0000E94511580E40E945115E0915F0FF0E0E1
:104CB000EE0FFF1FE35FF04F808191812091AE08DE
:104CC0000A9751F4213041F48AE08093AE081092A3
:104CD000AC081092AB08D7C0213031F484EF91E0DA
:104CE0009093AC088093AB0800E010E0C12C8C2DB1
:104CF00090E0F70101900020E9F73197EE19FF09E4
:104D00008E179F0708F08EC0F701E80FF91F80810A
:104D1000803279F4D11010C080E00E94511580E0FB
:104D20000E94511580E00E94511580E00E945115AB
:104D300057C0803208F454C0982F9D0D8FED890F15
:104D4000803B10F08FEA890F90E021E0D21609F441
:104D50007BC0FC01EE0FFF1FE80FF91FEE5BF74E63
:104D6000C491FC01EE0FFF1FE80FF91FED5BF74E3A
:104D7000A590B490D0E0CC0FDD1F88248394912CB3
:104D8000E92DF0E0EC17FD0758F5E80DF11D87FC63
:104D9000FA95EA0DFB1DEE5DF54E84910E945115CA
:104DA00081949394EDCF2091AB083091AC08C90168
:104DB0000A96C817D90708F05EC0C217D30708F4CF
:104DC0005AC0EA0DFB1DEE58FC4E84910E9451150D
:104DD0002196EC2FE01BF0E0E815F90520F38E0199
:104DE0008091AB089091AC089C01265F3F4F021761
:104DF000130718F40817190720F48091AE088A30B9
:104E000078F480E00E94511580E00E94511581E005
:104E1000D81206C080E00E94511580E00E94511512
:104E2000C39465CF8091AE088A3039F481E08093D5
:104E3000AE081092AC081092AB088FEF8093190265
:104E400083E00E9421151FC0FC01EE0FFF1FE80F39
:104E5000F91FEF5DFC4E8490FC01EE0FFF1FE80F81
:104E6000F91FEE5DFC4EA590B49024E0829E4001B7
:104E70001124E801AECFC817D90709F0A9CFD09304
:104E8000AC08C093AB08CDB7DEB7ECE00C945F9DE7
:104E9000CF92DF92EF92FF92CF93C82F81E00E94D2
:104EA000211582E00E94211580E80E94511583E0BF
:104EB0000E94211582E00E94211580E80E94511570
:104EC000C13011F483EE01C085EE0E94511583E0DC
:104ED0000E9421158AEF90E07EDD82E00E9421157C
:104EE000C13019F484EA96E002C08CE291E073DDEF
:104EF00081E80E94511588EC90E06DDD80E00E9411
:104F0000BB15F82E81E00E94BB152F2D30E0322F0B
:104F10002227282B442737FD4095542F2C7F4427E8
:104F20005527A0E1B7E20E942D9D9C01552737FD32
:104F30005095452FC13049F4A4EAB4E40E942D9D58
:104F4000605D7F4D8A4C924008C0A4EDB0E30E94A2
:104F50002D9D60587D488B45910920E137E240E066
:104F600050E00E94FC9C69017A01CA01B90124E663
:104F700030E040E050E00E94FC9CF7FE29C09B011D
:104F800077FF04C022273327261B370B3F932F932D
:104F9000C701B60124E630E040E050E00E94FC9CEE
:104FA0003195219531093F932F938DEB92E09F939B
:104FB0008F9380E69FE09F938F930E94E5A08DB72B
:104FC0009EB708960FB6F8949EBF0FBE8DBF1AC04D
:104FD0009F938F937F936F935F934F933F932F9301
:104FE00084E093E09F938F9380E69FE09F938F935D
:104FF0000E94E5A08DB79EB70C960FB6F8949EBFA1
:105000000FBE8DBF83E00E942115CF91FF90EF90DE
:10501000DF90CF900895CF93DF9381E00E94211518
:1050200082E00E94211586E40E94511580E10E94D1
:10503000511583E00E94211582E00E94211587E42A
:105040000E94511580E00E94BB15C82F81E00E948C
:10505000BB15D82F83E00E942115AD2FB0E0BC2BEB
:105060002AE030E00E94279D2CE030E040E050E054
:105070000E94FC9C5F934F933F932F9386EC92E0AA
:105080009F938F9380E69FE09F938F930E94E5A06C
:105090008DB79EB708960FB6F8949EBF0FBE8DBF12
:1050A000DF91CF910895ACE0B0E0E9E5F8E20C942F
:1050B000439D182F9BE0E0EBF2E0DE01119601909A
:1050C0000D929A95E1F781E00E94211582E00E94FD
:1050D00021159E012F5F3F4F790137E1139FC001DA
:1050E000112400E010E0FC01E05EF94F5F019C013B
:1050F0002F5D394F49018EEE0E945115F7018191C4
:105100007F010E94511583E00E94211582E00E94D8
:1051100021158FEE0E94511580E00E94BB15682F6B
:105120006501C00ED11EC6016C870E9411A36C855B
:10513000861719F0C6010E9427A381E00E94BB15C3
:10514000682F6401C00ED11EC6016C870E9411A396
:105150006C85861719F0C6010E9427A30E5F1F4FAA
:105160000631110541F683E00E9421152C96ECE0F2
:105170000C945F9DA1E0B0E0E0ECF8E20C943F9D60
:10518000782E81E00E94211582E00E9421158CEE8C
:105190000E94511582EF0E94511582E00E94511524
:1051A00083E00E94211581E00E94211582E00E9487
:1051B00021158CEE0E94511584EF0E94511587E253
:1051C0000E94511583E00E94211581E00E94211563
:1051D00082E00E9421158CEE0E94511588E80E9401
:1051E000511583E00E94211582E00E9421158DEE69
:1051F0000E94511527E1729EC0011124412C512CAF
:10520000612C44E1749E9001112489010B5E1C4FB6
:10521000FC01EF5DF94F5F01A9014C5E5C4F7A0123
:10522000FC01E05EF94F4F0180E00E94BB15682F42
:10523000FBE06F1661F06501C40CD51CC6016983E3
:105240000E9411A36981861761F0C60108C0C801D8
:1052500069830E9411A36981861719F0C8010E9411
:1052600027A380E00E94BB15682F2BE0621661F037
:105270006401C40CD51CC60169830E9411A3698115
:10528000861761F0C60108C0C70169830E9411A397
:105290006981861719F0C7010E9427A3639432E041
:1052A000430E511C4CE06412BFCF80E00E94BB153E
:1052B00081E00E94BB15182F83E00E94211581E038
:1052C0000E94211582E00E9421158CEE0E9451154A
:1052D00080ED0E94511583E00E94211582E00E941A
:1052E00021158DEE0E94511581E00E94BB15082FFB
:1052F00083E00E942115272D30E084E1003609F07B
:105300004FC0829F7001839FF00C1124C7018A5EF9
:105310009C4F7C010E9411A3811721F0612FC701CE
:105320000E9427A381E00E94211582E00E9421159E
:105330008CEE0E94511581EE0E94511583E00E946F
:10534000211582E00E9421158DEE0E94511594E1F5
:10535000799E80011124C12CD12C095E1C4FE6E0FE
:10536000CE1202C081E001C080E00E94BB15682F10
:105370007801EC0CFD1CC70169830E9411A36981AF
:10538000861719F0C7010E9427A3FFEFCF1ADF0A83
:1053900027E0C216D10419F783E00E94211510C03E
:1053A000829F8001839F100D11240A5E1C4FC8014B
:1053B0000E9411A38F3F21F06FEFC8010E9427A325
:1053C0002196E0E10C945B9DAEE1B0E0EAEEF9E2FB
:1053D0000C943D9D082F262E81E00E94211582E02D
:1053E0000E9421158EEE0E94511584EF0E945115E6
:1053F0008EE20E94511583E00E94211582E00E94F6
:10540000211588E09DE30197F1F700C000008EEEC2
:105410000E94511586EF0E94511583E00E942115CC
:1054200082E00E9421158FEE0E94511580E00E94BB
:10543000BB15182F81E00E94BB15C82E83E00E9487
:10544000211597E1099FB0011124605E794F46E173
:1054500050E0CE0101960E9401A3298530E0322F51
:1054600022278A85282BD12CE12CF12CD12A8B855F
:1054700090E0982F88274C85842BC81AD90AE10818
:10548000F108A8EEB3E00E94189DBFE095958795BE
:1054900077956795BA95D1F7A70196010E94989CD8
:1054A00028EE33E040E050E00E94FC9C69017A0164
:1054B0006B8970E0762F66278C89682B882777FDAB
:1054C0008095982F0BE0660F771F881F991F0A950C
:1054D000D1F70D8910E0102F00272E89022B98019B
:1054E000442737FD4095542F2C0D3D1D4E1D5F1D4B
:1054F0000E94FC9C49015A018C0C9D1CAE1CBF1CD7
:10550000A5019401285F3F4F4F4F5F4FAAE0B0E0E5
:105510000E942D9D20E130E040E050E00E94FC9C84
:105520002F8B388F498F5A8F81E00E94211582E09E
:105530000E9421158EEE0E94511584EF0E94511594
:1055400084E70E94511583E00E94211583ED90E3CA
:105550000197F1F700C0000082E00E9421158EEE55
:105560000E94511586EF0E94511583E00E9421157B
:1055700082E00E9421158FEE0E94511580E00E946A
:10558000BB15182F80E00E94BB15082F81E00E94F8
:10559000BB15382E83E00E94211590EA891A9FE0FE
:1055A000990AA108B108A5019401C501B4010E949E
:1055B000989C20E030E140E050E00E94FC9C2B8F62
:1055C0003C8F4D8F5E8F898190E0982F88272A81AC
:1055D000822B2C01662457FC6094762C42E0440C0C
:1055E000551C661C771C4A95D1F7AF85B0E0BA2FE1
:1055F000AA278889A82B2B8D3C8D4D8D5E8D0E940E
:105600002D9D20E038E040E050E00E94FC9C6901C4
:105610007A01AB81B0E0BA2FAA278C81A82BA50113
:1056200094010E94379D20E038E040E050E00E9465
:10563000FC9CC20ED31EE41EF51E4C0C5D1C6E1CA1
:105640007F1C440C551C661C771C22E0420E511C2A
:10565000611C711CC12ED12CE12CF12C7601DD24B2
:10566000CC2410E020E030E0322F212F102F002733
:10567000C00ED11EE21EF31EC30CD11CE11CF11C96
:10568000A7E0F694E794D794C794AA95D1F7C301FD
:10569000B20124E030E040E050E00E94FC9CC21ADD
:1056A000D30AE40AF50AA8EAB1E6A70196010E9426
:1056B0002D9D6B017C01CC0CDD1CEE1CFF1C0F81B1
:1056C00010E0102F00278885082BAD81B0E0BA2F9D
:1056D000AA278E81A82BA50194010E94379D20E066
:1056E00030E240E050E00E94FC9C49015A01AD8547
:1056F000B0E0BA2FAA278E85A82B2B8D3C8D4D8D1F
:105700005E8D0E94379D412C512C32016394A30180
:1057100092010E94FC9C820E931EA41EB51E82E084
:10572000880E911CA11CB11CC501B40124E030E01D
:1057300040E050E00E94FC9C30584F4F5F4FD80132
:105740000E942D9D20E030E840E050E00E94FC9C4B
:10575000C701B6010E94DA9C49015A01CA01B90188
:1057600020E031E040E050E00E94FC9CCA01B90119
:105770000E94989C9B01AC01AEEDBBE00E942D9D68
:10578000A30192010E94FC9C69017A01A3E4B3EE9B
:10579000A50194010E94399DA30192010E94FC9CE5
:1057A000C20ED31EE41EF51E9FECC90E9EE0D91E4C
:1057B000E11CF11CC701B60120E130E040E050E0FF
:1057C0000E94FC9C280D391D4A1D5B1DA0E1B7E21B
:1057D0000E942D9D24E134E340E050E00E94FC9CB7
:1057E000CA01B90122E022122CC0E4E6CE2ED12C4F
:1057F000E12CF12CA70196010E94FC9C9F938F93B2
:105800007F936F935F934F933F932F936F89788D1F
:10581000898D9A8DA70196010E94FC9C9F938F937E
:105820007F936F935F934F933F932F938AEC92E014
:105830009F938F9380E69FE09F938F930E94E5A0B4
:105840001FC021E0221204C06F89788D898D9A8D46
:1058500024E630E040E050E00E94FC9C9F938F9350
:105860007F936F935F934F933F932F9384E093E0E5
:105870009F938F9380E69FE09F938F930E94E5A074
:105880000FB6F894DEBF0FBECDBF6E96E2E10C946A
:10589000599DA1E3B0E0EFE4FCE20C943D9D162F8E
:1058A000E82EF12C27E1829FB0011124605E794F30
:1058B00046E150E0CE0101960E9401A384E18E9D55
:1058C000B0018F9D700D11246C5E7C4F4AE050E05A
:1058D000CE0147960E9401A381E00E94211582E03B
:1058E0000E9421158CEE0E94511582E00E94211524
:1058F00087EF0E94511583E00E94211582E00E94EB
:10590000211588E09DE30197F1F700C000008DEEBE
:105910000E94511580E00E94BB158DA380E00E947B
:10592000BB15082F80E00E94BB158DA780E00E9468
:10593000BB15882E912CA12CB12C80E00E94BB15A8
:10594000C82ED12CE12CF12C898D8F3F11F481E0F0
:1059500001C080E00E94BB1590E0A0E0B0E0F4E060
:10596000CC0CDD1CEE1CFF1CFA95D1F72CE0880C4A
:10597000991CAA1CBB1C2A95D1F7C828D928EA284B
:10598000FB2834E0B695A795979587953A95D1F77A
:10599000C82AD92AEA2AFB2A898D8F3FA9F080E0FC
:1059A0000E94BB15B82E81E00E94BB154B2D50E024
:1059B00060E070E08824942EA52EB62E882A89A651
:1059C0009AA6ABA6BCA604C019A61AA61BA61CA61E
:1059D00083E00E9421159A818981292E312C410171
:1059E000982AA7019601A3E05695479537952795E4
:1059F000AA95D1F7A12CB12CD501C401880F991F0C
:105A0000AA1FBB1F281B390B4A0B5B0BAB81B0E0F5
:105A1000BA2FAA278C81A82B0E94379D69A37AA34D
:105A20008BA39CA3C701B601E4E096958795779573
:105A30006795EA95D1F7681979098A099B099B014D
:105A4000AC010E94989C9B01AC01FCE055954795E8
:105A500037952795FA95D1F7AD81B0E0BA2FAA27EF
:105A60008E81A82B0E94379D89A09AA0ABA0BCA0D4
:105A70002BE0B594A794979487942A95D1F73EE0AC
:105A800095958795779567953A95D1F7860E971EE8
:105A9000A81EB91E89A29AA2ABA2BCA224013501FC
:105AA00075946794579447942AEF521A61087108C5
:105AB000E989FA89C301B20152E0959587957795F6
:105AC00067955A95D1F79B01AC010E94989C6B0198
:105AD0007C018F848EA698889FA6AD84A8AABE84D8
