:100000000C9494110C9447200C9473200C949F2012
:100010000C94CB200C94F7200C9423210C944F21AA
:100020000C947B210C94B5110C94B5110C94B51162
:100030000C94B5110C94B5110C94B5110C94B51128
:100040000C94B5110C94B5110C94B5110C94B51118
:100050000C94B5110C94B5110C94A7210C94B51106
:100060000C94B5110C94B5110C94B5110C94B511F8
:100070000C94B5110C94B5110C94B5110C94B511E8
:100080000C94B5110C94B5110C94B5110C94B511D8
:100090000C94B5110C94B5110C94B5110C94B511C8
:1000A0000C94B5110C94B5110C94B5110C94B511B8
:1000B0000C94B5110C94B5110C94B5110C94B511A8
:1000C0000C94B5110C94B5110C94B5113C2F613EF4
:1000D000004578742D494F002F3F70743D256426EC
:1000E00063663D313E00207C203C6120687265667D
:1000F0003D2F003C2F613E002F53434C002F5344B3
:100100004100493243004453002F4431002F443012
:100110000057323600414443004E4300202D20005A
:10012000290025640028003E50002564002F3F7000
:10013000743D003C62723E3C6120687265663D2FF2
:10014000003C62723E2D2D2D003C62723E2D2D2012
:100150005850352F36202D2D002F3F63663D343EFD
:100160005850323C2F613E3C62723E2D2D20585437
:1001700032202D2D002F3F63663D333E5850313CD9
:100180002F613E3C62723E3C6120687265663D2F85
:10019000002F3F63663D313E436F6E6669673C2FBB
:1001A000613E3C62723E2D2D204D4F4453202D2D3B
:1001B0003C62723E3C6120687265663D2F00293CBE
:1001C00062723E3C6120687265663D2F00342E32BB
:1001D000316234004D656761442D3235363120621D
:1001E00079203C6120687265663D687474703A2FAE
:1001F0002F61622D6C6F672E72753E61622D6C6F80
:10020000672E72753C2F613E202866773A200032B7
:10021000202D2D0031202D2D003E4261636B3C2F9F
:10022000613E3C62723E2D2D20506F7274732058D7
:100230005000446F6E65003E002076616C75653D30
:10024000003C696E707574206E616D653D6B6579FB
:10025000004E2F4100383E4C617374206B65793A33
:1002600020003E003E20736C6176653A203C696E4A
:10027000707574206E616D653D7072732074797055
:10028000653D636865636B626F782076616C756548
:100290003D3120003E20636D643A203C696E7075EC
:1002A00074206E616D653D7072642076616C756559
:1002B0003D003E3D3C2F73656C6563743E20766166
:1002C0006C75653A203C696E707574206E616D6561
:1002D0003D7072762073697A653D332076616C7566
:1002E000653D003E3C3C6F7074696F6E2076616CBA
:1002F00075653D33003E3E3C6F7074696F6E2076CD
:10030000616C75653D32003E4E3C6F7074696F6E76
:100310002076616C75653D31003E203C73656C65EF
:100320006374206E616D653D7072633E3C6F7074E6
:10033000696F6E2076616C75653D30003E696620A0
:10034000706F72743A203C696E707574206E616DC6
:10035000653D7072702073697A653D332076616CFB
:1003600075653D0070726E2076616C75653D00317B
:10037000303E00656D70747900393E003E00207695
:10038000616C75653D003E204163743A203C696EA6
:10039000707574206E616D653D63726E61002076CC
:1003A000616C75653D00543A203C696E707574202F
:1003B0006E616D653D63726E74003E003E20534475
:1003C000413A203C696E707574206E616D653D63C5
:1003D0007364612076616C75653D003C62723E53CA
:1003E00065742074696D653A203C696E707574207F
:1003F0006E616D653D7374696D653E3C62723E531E
:10040000434C3A203C696E707574206E616D653D99
:100410006373636C2076616C75653D00373E437590
:10042000722074696D653A2000223E3C62723E7310
:100430007276206C6F6F703A203C696E7075742014
:10044000747970653D636865636B626F78206E6177
:100450006D653D736C2076616C75653D31004D6551
:100460006761642D49443A203C696E707574206E52
:10047000616D653D6D646964206D61786C656E6762
:1004800074683D352073697A653D352076616C75F9
:10049000653D2200323E003C62723E557074696DCB
:1004A000653A200057646F673A203C696E70757436
:1004B000206E616D653D70722073697A653D3320F1
:1004C00076616C75653D005363726970743A203CC7
:1004D000696E707574206E616D653D736374206D17
:1004E00061786C656E6774683D31352076616C7536
:1004F000653D22003C62723E00646973636F6E6EFC
:10050000656374656400636F6E6E65637465640033
:100510003E4D5154543C2F73656C6563743E20000E
:100520003E485454503C6F7074696F6E2076616C15
:1005300075653D310053525620547970653A203C20
:1005400073656C656374206E616D653D737276745E
:100550003E3C6F7074696F6E2076616C75653D30DE
:100560000025642E25642E25642E25643A25753ECB
:100570003C62723E003E3C62723E5352563A203C10
:10058000696E707574206E616D653D73697020765B
:10059000616C75653D0047573A203C696E70757413
:1005A000206E616D653D67772076616C75653D25D0
:1005B000642E25642E25642E2564005077643A202D
:1005C0003C696E707574206E616D653D7077642056
:1005D0006D61786C656E6774683D332076616C750B
:1005E000653D220049503A203C696E707574206E5A
:1005F000616D653D6569702076616C75653D25644A
:100600002E25642E25642E256400313E006366206D
:1006100076616C75653D002F3E002F3F63663D3867
:100620003E6942204B6579733C2F613E002F3F634A
:10063000663D393E50726F6772616D3C2F613E00BE
:100640002F3F63663D373E43726F6E3C2F613E0025
:100650002F3F63663D323E4D656761642D49443CE2
:100660002F613E002F3F63663D313E436F6E6669EA
:10067000673C2F613E003E4261636B3C2F613E0050
:100680002F3F63663D31002F3F63663D39003E4298
:1006900061636B3C2F613E3C62723E4D6567614415
:1006A000206973207265737461727465640034002C
:1006B00033002F3F63663D002A002A00227D003B65
:1006C0000026636D643D6C6973743E4465766963AE
:1006D00065204C6973743C2F613E002F3F70743D60
:1006E000003E003C62723E44697370203C696E704B
:1006F0007574206E616D653D646973702073697AED
:10070000653D322076616C75653D0026636D643D04
:100710007363616E3E493243205363616E3C2F61C7
:100720003E002F3F70743D003E003C62723E494ED9
:1007300054203C696E707574206E616D653D696E04
:1007400074612073697A653D332076616C75653D0F
:10075000003E003C62723E46726571203C696E70DC
:100760007574206E616D653D6873742073697A6578
:100770003D332076616C75653D003E003C62723E03
:10078000427269676874203C696E707574206E618E
:100790006D653D6873742073697A653D33207661B9
:1007A0006C75653D003E504341393638353C2F73FA
:1007B000656C6563743E003E4D435032333058588B
:1007C0003C6F7074696F6E2076616C75653D323177
:1007D000003E535344313330363C6F7074696F6E52
:1007E0002076616C75653D3230003E54534C323595
:1007F00039313C6F7074696F6E2076616C75653D40
:1008000034003E4248313735303C6F7074696F6E4A
:100810002076616C75653D33003E4D41583434306F
:1008200030393C6F7074696F6E2076616C75653D10
:1008300032003E424D783238303C6F7074696F6ED2
:100840002076616C75653D37003E424D5031383041
:100850003C6F7074696F6E2076616C75653D360013
:100860003E4854553231443C6F7074696F6E207647
:10087000616C75653D35003E414E593C6F70746941
:100880006F6E2076616C75653D31003C62723E444E
:100890006576203C73656C656374206E616D653DA3
:1008A000643E3C6F7074696F6E2076616C75653D57
:1008B00030003E003C62723E53434C203C696E70F7
:1008C0007574206E616D653D6D6973632073697A1F
:1008D000653D332076616C75653D003E53434C3C6D
:1008E0002F73656C6563743E003E5344413C6F70EA
:1008F00074696F6E2076616C75653D32003E4E43C3
:100900003C6F7074696F6E2076616C75653D310067
:100910003C62723E4D6F6465203C73656C65637428
:10092000206E616D653D6D3E3C6F7074696F6E2029
:1009300076616C75653D30003E003C62723E44312C
:10094000203C696E707574206E616D653D6D6973D4
:10095000632073697A653D332076616C75653D006F
:100960003E44313C2F73656C6563743E003E4430F9
:100970003C6F7074696F6E2076616C75653D3200F6
:100980003E4E433C6F7074696F6E2076616C756586
:100990003D31003C62723E4D6F6465203C73656C76
:1009A000656374206E616D653D6D3E3C6F7074696A
:1009B0006F6E2076616C75653D30003E5732363C77
:1009C0002F73656C6563743E003E69423C6F7074C2
:1009D000696F6E2076616C75653D36003E31574219
:1009E00055533C6F7074696F6E2076616C75653D10
:1009F00034003E31573C6F7074696F6E2076616CC5
:100A000075653D35003E44485432323C6F70746920
:100A10006F6E2076616C75653D33003E44485431FD
:100A2000313C6F7074696F6E2076616C75653D3214
:100A3000003C62723E53656E203C73656C65637466
:100A4000206E616D653D643E3C6F7074696F6E2011
:100A500076616C75653D310020636865636B656424
:100A60003E203C696E707574206E616D653D6D321F
:100A70002073697A653D332076616C75653D003E73
:100A8000486967683C2F73656C6563743E3C6272AD
:100A90003E536D6F6F7468203C696E70757420747E
:100AA0007970653D636865636B626F78206E616D18
:100AB000653D6D6973632076616C75653D31003EFF
:100AC0004C6F773C6F7074696F6E2076616C7565E2
:100AD0003D32003E4E6F726D3C6F7074696F6E20D8
:100AE00076616C75653D31003C62723E467265719F
:100AF000203C73656C656374206E616D653D667244
:100B00003E3C6F7074696F6E2076616C75653D3028
:100B1000003E003C62723E47726F7570203C696E09
:100B2000707574206E616D653D6772702073697AAF
:100B3000653D322076616C75653D003E445332342C
:100B400031333C2F73656C6563743E003E53572010
:100B50004C494E4B3C2F6F7074696F6E3E3C6F700A
:100B600074696F6E2076616C75653D32003C6F7004
:100B700074696F6E2076616C75653D33003E505729
:100B80004D003C6F7074696F6E2076616C75653DC9
:100B900031003E5357003C62723E4D6F6465203C0D
:100BA00073656C656374206E616D653D6D3E3C6F71
:100BB0007074696F6E2076616C75653D30003E31F2
:100BC0003C2F73656C6563743E003E303C6F7074FF
:100BD000696F6E2076616C75653D31003C73656CA4
:100BE000656374206E616D653D643E3C6F70746931
:100BF0006F6E2076616C75653D30003C696E707576
:100C000074206E616D653D642073697A653D3320A3
:100C10006D61786C656E6774683D332076616C75C4
:100C2000653D003C62723E44656661756C743A20B5
:100C3000003C62723E526177203C696E7075742090
:100C4000747970653D636865636B626F78206E616F
:100C50006D653D642076616C75653D3100203C69B1
:100C60006E70757420747970653D636865636B623E
:100C70006F78206E616D653D6D6973632076616C80
:100C800075653D31003E433C2F73656C6563743E72
:100C9000003E523C6F7074696F6E2076616C7565B2
:100CA0003D33003E5026523C6F7074696F6E207663
:100CB000616C75653D32003E503C6F7074696F6EBB
:100CC0002076616C75653D31003C62723E4D6F640B
:100CD00065203C73656C656374206E616D653D6D68
:100CE0003E3C6F7074696F6E2076616C75653D3047
:100CF00000223E203C696E70757420747970653DE9
:100D0000636865636B626F78206E616D653D6E61CF
:100D1000662076616C75653D31002F003A257500BF
:100D200025642E25642E25642E2564003E3C6272C7
:100D30003E4E6574203C696E7075742073697A65E7
:100D40003D3332206E616D653D6574682076616C5F
:100D500075653D2200223E203C696E7075742074DA
:100D60007970653D636865636B626F78206E616D55
:100D7000653D61662076616C75653D31003C62724F
:100D80003E416374203C696E707574206E616D65C0
:100D90003D65636D642076616C75653D22003E3C67
:100DA00062723E487374203C696E707574206E6187
:100DB0006D653D6873742076616C75653D003E3CE1
:100DC0003E3C2F73656C6563743E3C62723E5661B7
:100DD0006C203C696E707574206E616D653D6D6947
:100DE00073632073697A653D342076616C75653D67
:100DF000003E3C3C6F7074696F6E2076616C756567
:100E00003D33003E3E3C6F7074696F6E2076616CBE
:100E100075653D32003E4E6F726D3C6F7074696F48
:100E20006E2076616C75653D31004D6F6465203CC8
:100E300073656C656374206E616D653D6D3E3C6FDE
:100E40007074696F6E2076616C75653D30003C2F63
:100E500073656C6563743E003E414443003C6F70B3
:100E600074696F6E2076616C75653D32003E493263
:100E700043003E4453656E3C6F7074696F6E20761C
:100E8000616C75653D34003E4F75743C6F707469DC
:100E90006F6E2076616C75653D33003E496E3C6F28
:100EA0007074696F6E2076616C75653D31003E4EE1
:100EB000433C6F7074696F6E2076616C75653D3070
:100EC0000054797065203C73656C656374206E61B5
:100ED0006D653D7074793E3C6F7074696F6E2076FD
:100EE000616C75653D32353500706E2076616C75CC
:100EF000653D002F3E003C62723E3C612068726599
:100F0000663D2F25732F3F70743D256426657874E8
:100F10003D25643E5025643C2F613E003C62723E9C
:100F20002D2D20506F727473204578742028504303
:100F3000413936383529202D2D003C62723E3C6106
:100F400020687265663D2F25732F3F70743D2564C0
:100F5000266578743D25643E502564202D200029A7
:100F6000202D2D003038003137003C62723E2D2D8F
:100F700020506F7274732045787420284D4350328E
:100F80003330002F002F0068756D3A002F00746514
:100F90006D703A00203C696E7075742074797065CC
:100FA0003D7375626D69742076616C75653D73651E
:100FB000743E3C2F666F726D3E0050574D3A203C98
:100FC000696E707574206E616D653D6570776D201A
:100FD00076616C75653D25642073697A653D333EA5
:100FE000006578742076616C75653D25643E0070FF
:100FF000742076616C75653D25643E002F3E003E91
:101000004F75743C2F73656C6563743E003E496E8A
:101010003C6F7074696F6E2076616C75653D310050
:1010200054797065203C73656C656374206E616DE6
:10103000653D6574793E3C6F7074696F6E207661B2
:101040006C75653D30006578742076616C75653D22
:1010500025643E0070742076616C75653D25643EA4
:10106000002F3E003C2F613E2000303E003C2F61AF
:101070003E2000313E003C6120687265663D2F25B0
:10108000732F3F70743D2564266578743D25642672
:10109000636D643D25646525643A002F003A303E57
:1010A0004F46463C2F613E3C62723E00420041008A
:1010B00026636D643D002F3F70743D003A313E4F12
:1010C0004E3C2F613E203C6120687265663D2F00DA
:1010D0004200410026636D643D002F3F70743D0067
:1010E000423A2000413A20002F004E412F4E41004D
:1010F0002F003E203C696E70757420747970653DD8
:101100007375626D69742076616C75653D636861A5
:101110006E67653E3C2F666F726D3E003E50574DC8
:101120002028302D323535293A203C696E7075748F
:10113000206E616D653D70776D2073697A653D3312
:101140002076616C75653D0070742076616C756504
:101150003D002F3E003C62723E3C666F726D207314
:1011600074796C653D646973706C61793A696E6C11
:10117000696E6520616374696F6E3D2F0050434155
:10118000004D4350003C62723E003C62723E6C7502
:10119000783A003C62723E6C75783A003C62723E6E
:1011A0006C75783A0074656D703A002F68756D3A09
:1011B0000074656D703A002F003E4261636B3C2FF6
:1011C000613E3C62723E5000340033003126707440
:1011D0003D002F3F63663D003B003A006275737926
:1011E00000446F6E650026616C6C3D006D6469643F
:1011F0003D003F00485454502F312E3020343031C0
:1012000020556E617574686F72697A65640D0A0D98
:101210000A556E617574686F72697A6564005472FC
:101220007920687474703A2F2F69702F707764007A
:101230002F002F002F002F002F002F005025643A81
:10124000200049503A202564202E202564202E209D
:101250002564202E20256400485454502F312E3010
:1012600020323030204F4B0D0A436F6E74656E7420
:101270002D547970653A20746578742F68746D6C9C
:101280000D0A507261676D613A206E6F2D63616364
:1012900068650D0A0D0A002892A5ACAFA5E02900EB
:1012A00082EBAAAB0082AAAB202020004F4646006A
:1012B0004F4E00494E004F555400223E3C62723E54
:1012C000003E3C62723E003C62723E00207C203C4C
:1012D0006120687265663D2F003C6120687265661A
:1012E0003D2F003E0020636865636B6564003C69C8
:1012F0006E70757420747970653D68696464656E9C
:10130000206E616D653D003C62723E3C696E707599
:101310007420747970653D7375626D6974207661AF
:101320006C75653D536176653E3C2F666F726D3E10
:10133000003C666F726D20616374696F6E3D2F00B3
:101340002073656C6563746564001600000000001E
:10135000000000000000000000000000000000008D
:10136000000000000000000000000016580000000F
:101370000016B000070801000000162401167C01C9
:1013800016D401162C0216840216DC02163403163B
:101390008C0316E403163C040F94040000000000C4
:1013A000000000000000000000000000000000003D
:1013B000000000000000000000000000000000002D
:1013C000000000000000000000000000000000001D
:1013D000000000000000000000000000000000000D
:1013E00000000000000000000000000000000000FD
:1013F0000000000000000000003E0000003E000071
:10140000003E0000003E0000003E0000003E0000E4
:10141000003E0000003E0000FEFF1F00FEFF1F0018
:10142000FEFF1F00FEFF1F00003E0000003E000008
:10143000003E0000003E0000003E0000003E0000B4
:10144000003E0000003E0000000000000000000020
:10145000000000000000000000000000000000008C
:10146000000000000000000000000000003E00003E
:10147000003E0000003E0000003E0000003E000074
:10148000003E0000003E0000003E0000003E000064
:10149000003E0000003E0000003E0000003E000054
:1014A000003E00000000FE000000FE000000FE0004
:1014B0000000FE000000FE000000FE000000FE0034
:1014C000F0FF0000FEFF0700FFFF0FC0FFFF3FC05F
:1014D000FFFF3FE0FFFF7FE0FFFF7FF00F00FFF027
:1014E0000300FCF00100F8F00100F8F00100F8F052
:1014F0000100F8F00300FCF00F00FFE0FFFF7FE0C9
:10150000FFFF7FC0FFFF3FC0FFFF3F00FFFF0F0057
:10151000FEFF0700F0FF00000000000000000000D8
:10152000000000001E00F8001E00F8001E00F80079
:101530001E00F8001F00F8001F00F8C0FFFFFFE0CA
:10154000FFFFFFE0FFFFFFE0FFFFFFE0FFFFFFE027
:10155000FFFFFFE0FFFFFF000000F8000000F800C1
:101560000000F8000000F8000000F8000000F8009B
:10157000000000000000F8C00F00F8E00700FCE0E9
:101580000700FEE00300FFF00380FFF001C0FFF062
:1015900001C0FFF001E0FFF001F0FFF001FCFBF003
:1015A00003FEF9F087FFF8F0FF7FF8E0FF7FF8E037
:1015B000FF3FF8C0FF1FF8C0FF07F880FF03F800E7
:1015C000FE00F8000000F80000000000000000002D
:1015D00000003FC00F007EE007007EE003007CE0DB
:1015E0000300FCF00100F8F0810FF8F0810FF8F033
:1015F000810FF8F0810FF8F0810FF8F0C30FFCF0C5
:10160000FF1FFEF0FFFF7FE0FFFF7FE0FFFD7FC0D9
:10161000FFFC3F807FFC1F001FF80F0000E003006D
:1016200000F0030000F8030000FE030000FF0300C9
:1016300080FF0300E0EF0300F0E70300F8E10300A0
:10164000FEE003007FE003C01FE003E00FE003E0E3
:10165000FFFFFFE0FFFFFFE0FFFFFFE0FFFFFFE016
:10166000FFFFFFE0FFFFFFE0FFFFFF0000E00300E0
:1016700000E0030000E003000000000000003FE085
:10168000FF0F7EE0FF0F7EE0FF0F7CE0FF07FCE036
:10169000FF07F8E0FF07F8E0FF07F8E0C307F8E00E
:1016A000C307F8E0C307F8E0C30FFCE0C30FFCE09A
:1016B000C31FFEE0C3FF7FE083FF7FE083FF3FE0C7
:1016C00003FF3FE003FF1FE003FE0F0000F80300ED
:1016D000C0FF0000F8FF0700FCFF0F00FFFF1F80A6
:1016E000FFFF3F80FFFF7FC0FFFF7FE09F03FFE022
:1016F000C703FCE0C703F8F0E303F8F0E103F8F0F8
:10170000E103F8F0E107FCF0E10FFEF0E1FF7FF00C
:10171000E1FF7FF0C1FF3FF0C3FF3FF083FF1F00F9
:1017200000FF070000FC0100000000E0030000E0F3
:10173000030080E00300E0E00300F0E00300FCE0D1
:101740000300FFE003C0FFE003F0FFE003F8FFE069
:1017500003FE7FE083FF1FE0E3FF0FE0F3FF03E002
:10176000FFFF00E0FF3F00E0FF0F00E0FF0300E0AD
:10177000FF0100E07F0000E01F0000E00700000024
:1017800000C007003EF01F80FFF83FC0FFF93FC0D8
:10179000FFFD7FE0FFFF7FE0FFFFFFF0FF1FFEF098
:1017A000E307FCF0C10FF8F0C10FF8F0C10FF8F03B
:1017B000811FF8F0831FFCF0FF3FFCE0FFFF7FE09C
:1017C000FFFF7FE0FFFE7FC0FFFC3F807FFC1F002C
:1017D0001FF80F0000E00700FC010000FF07008079
:1017E000FF0FFCC0FF1FFCC0FF1FF8E0FF3FF8E049
:1017F000FF3FF8F0873FF8F0033FF8F0013EF8F0C4
:10180000013EFCF0013EFCF0011E7EF0031E7FF065
:101810000FCE7FE0FFFF3FE0FFFF1FC0FFFF1FC0B5
:10182000FFFF0F00FFFF0300FEFF0000F01F00009E
:101830003E000080FF0000C0FF0100E0FF0300E069
:10184000E30300F0C10700F0800700F0800700F01C
:10185000800700F0C10700E0E30300E0FF0300C0E1
:10186000FF010080FF0000003E00000100000302B5
:10187000000808000618000B2400083A00014A007E
:10188000044C00045400055C000766000274000567
:101890007800018200068400069000059C0006A6E0
:1018A0000006B20007BE0006CC0006D80006E40021
:1018B00006F00006FC00010801020A01070E0107FC
:1018C0001C01072A010538010B4201075801066671
:1018D00001077201078001068E01069A0107A60121
:1018E00007B40103C20105C80106D20106DE0109E1
:1018F000EA0107FC01080A02061A02082602073656
:1019000002074402075202076002076E020B7C02C4
:1019100007920207A00207AE0203BC0206C202033E
:10192000CE0209D40208E60202F60206FA02060610
:1019300003061203061E03062A03053603064003A8
:10194000064C03015803045A03056203016C0309A2
:101950006E03068003068C0306980306A40304B0F6
:101960000305B80304C20306CA0306D60309E2034B
:1019700005F40306FE03050A04051404011E04050C
:101980002004082A04063A040746040654040660A4
:1019900004066C04097804068A040B960406AC0459
:1019A00007B80407C60406D40409E00409F20407D2
:1019B0000405081205072205063005073C05074AFD
:1019C0000507580509660507780508860507960581
:1019D0000BA4050CBA0509D2050AE40506F80507AB
:1019E00004060B1206072806063606064206064EB1
:1019F00006055A06076406067206097E0605900665
:101A0000069A0606A60606B20607BE0607CC060616
:101A1000DA0606E60606F20606FE06060A070516BA
:101A200007062007092C07053E0707480706560743
:101A30000962070A740707880707960705A40706BF
:101A4000AE0709BA0706CC0706D8071BF0007800D6
:101A500000007802000E4003C002700E4003C00276
:101A600070004010C011207FF8122012200C2000BE
:101A7000E001101110091006E001000EC011201144
:101A80001011000E000EE01110111011100AE00CE0
:101A9000001200110000780F803060401080088034
:101AA00008401030600F800050002000F800200037
:101AB000500100010001000FE001000100010040A1
:101AC0000038000100010001000100010018006061
:101AD00000180006000180006000180FE0101010D0
:101AE00010101010100FE0102010201FF010001028
:101AF000001860141012101210111010E0082010BD
:101B0000101110111011100EE003000280024002AB
:101B1000201FF002000200080011F0111011101136
:101B2000100E100FC010A01090109010900F000019
:101B30001000101C10031000D000300EE011101126
:101B400010111011100EE001E01210121012100A04
:101B50001007E018C0400038C0020005000500086A
:101B600080088010401040048004800480048004B9
:101B70008004800480104010400880088005000523
:101B8000000200002000101B10009000600F801069
:101B90004020204F905050505050505FD010201097
:101BA000400F801800070004C0043004C00700186C
:101BB000001FF011101110111011E00E0007C008E5
:101BC00020101010101010101008201FF01010100E
:101BD0001010101010082007C01FF0111011101164
:101BE00010111011101FF001100110011001100050
:101BF0001007C0082010101010121012101E201F05
:101C0000F0010001000100010001001FF010101F91
:101C1000F0101010001000101010100FF01FF00145
:101C20000002800440082010101FF0100010001067
:101C300000100010001FF0003000C003000C000373
:101C40000000C000301FF01FF0003000C00100068F
:101C50000018001FF007C0082010101010101010FE
:101C600010082007C01FF00210021002100210011D
:101C7000E007C00820101010101010301048204746
:101C8000C01FF0021002100210051008E01000083A
:101C9000E0111011101110111011100E2000100081
:101CA0001000101FF000100010001007F0080010C6
:101CB0000010001000080007F000700180060018F6
:101CC0000006000180007000F00700180006000107
:101CD000C0003001C006001800070000F0183004F2
:101CE00040028001000280044018300010006001B2
:101CF000801E0001800060001018101410121011D6
:101D0000101090105010307FF84008400800180064
:101D1000600180060018006000400840087FF8015C
:101D200000008000400020001000200040008001E2
:101D300000400040004000400040004000400040A3
:101D400000000800100C0012401240124012401F08
:101D5000801FF810801040104010400F800F80103E
:101D60004010401040104008800F8010401040107C
:101D70004008401FF80F8012401240124012400BE2
:101D80008000401FF00048004800080F80904090FD
:101D900040904088407FC01FF80080004000400015
:101DA000401F801FC88000800080407FC81FF8024D
:101DB000000500088010401FF81FC0008000400090
:101DC000401F800080004000401F801FC000800036
:101DD00040004000401F800F801040104010401015
:101DE000400F80FFC010801040104010400F800F47
:101DF000801040104010400840FFC01FC00080000D
:101E000040004011801240124012400C4000400F30
:101E1000F0104010400FC010001000100008001F0C
:101E2000C000C0070018001800070000C000C0076D
:101E3000001800070000C007001800070000C018C5
:101E4000C005000200050018C000C0870078001817
:101E500000070000C0184014401240114010C0019B
:101E60000001003EF0400840087FF8400840083E6E
:101E7000F001000100030000800080010001000269
:101E800000020001801FF011141110111011141123
:101E9000101800070004C0043004C0070018001F19
:101EA000F011101110111011100E001FF01110116F
:101EB00010111011E00E001FF000100010001000B3
:101EC00010001070001800170010F0101010101003
:101ED000101FF070001FF0111011101110111011CF
:101EE000101010081004E0030001001FF0010003AF
:101EF0000004E0081010100820101011101110112B
:101F0000100EE01FF008000600010000C000201FB6
:101F1000F01FF008020604010400C400221FF01F95
:101F2000F00100030004E008101010100010000F72
:101F3000F0001000100010001000101FF01FF00043
:101F40003000C003000C00030000C000301FF01F71
:101F5000F0010001000100010001001FF007C008AE
:101F6000201010101010101010082007C01FF000D3
:101F70001000100010001000101FF01FF0021002DF
:101F8000100210021001E007C008201010101010FD
:101F900010101008200010001000101FF00010009A
:101FA000100010103010C013000C00030000C0001F
:101FB0003003800440082008201FF0082008200477
:101FC0004003801830044002800100028004401861
:101FD000301FF0100010001000100010001FF070F3
:101FE0000001F0020002000200020002001FF01FC8
:101FF000F010001000100010001FF0100010001072
:102000000010001FF01FF010001000100010001F43
:10201000F010001000100010001FF0700000100001
:102020001000101FF011001100110011000E001F10
:10203000F0110011001100110011000E000000004D
:10204000001FF01FF011001100110011000E000818
:10205000201110111011101110092007C01FF001DC
:1020600000010007C00820101010101010101008F8
:102070002007C0100009E006100210021002101F15
:10208000F00C0012401240124012401F800FE0106E
:10209000501048104810480F881FC01240124012BC
:1020A0004012400D801FC0004000400040004070C2
:1020B000001C0013C0104010401FC070000F8012A1
:1020C000401240124012400B801040084005800230
:1020D000001FC00200058008401040088012401216
:1020E0004012400D801FC004000200010000801F4C
:1020F000C01FC004080210011000881FC01FC002CA
:10210000000200058008401040100010000FC000C1
:1021100040004000401FC01FC000800100060001B9
:102120000000801FC01FC002000200020002001F4A
:10213000C00F8010401040104010400F801FC000A2
:10214000400040004000401FC0FFC0108010401001
:102150004010400F800F8010401040104010400889
:1021600080004000401FC00040004000C087007851
:10217000001800070000C00F80104010401040FF02
:10218000F81040104010400F8018C00500020005F4
:102190000018C01FC010001000100010001FC070F9
:1021A0000003C004000400040004001FC01FC0108E
:1021B00000100010001FC01000100010001FC01FF2
:1021C000C01000100010001FC01000100010001FF1
:1021D000C07000004000401FC01100110011000E2F
:1021E000001FC01100110011000E0000001FC01FD1
:1021F000C01100110011000E0008801040124012A2
:102200004012400F801FC0020002000F80104010DB
:1022100040104010400F8011800A400640024002EA
:10222000401FC00F8012501240124012500B802FDE
:10223000636D64004D5149736470000D0A436F6E05
:1022400074656E742D547970653A206170706C6994
:10225000636174696F6E2F782D7777772D666F7253
:102260006D2D75726C656E636F6465640D0A0D0A81
:1022700000436F6E74656E742D4C656E6774683ABA
:1022800020000D0A557365722D4167656E743A2002
:102290007467722F312E310D0A4163636570743A91
:1022A000202A2F2A0D0A436F6E6E656374696F6E64
:1022B0003A20636C6F73650D0A000D0A00204854C4
:1022C00054502F312E310D0A486F73743A2000504C
:1022D0004F535420000D0A557365722D4167656E8A
:1022E000743A206D656761640D0A416363657074BB
:1022F0003A20746578742F68746D6C0D0A0D0A00AD
:1023000020485454502F312E310D0A486F73743ABF
:102310002000474554200000010800060400014544
:10232000000082000040002011241FBECFEFD1E248
:10233000DEBFCDBF00E00CBF17E0A0E0B2E0ECEFE5
:10234000FFE401E00BBF02C007900D92A432B10779
:10235000D9F720E1A4E2B7E001C01D92A537B2078A
:10236000E1F70E9422330C94FCA70C940000109219
:102370008C0810928B088FEF8093180208950F93AA
:102380001F93CF93DF93EB0140E350E0BC0184E760
:102390009FE00E944DA46BEB72E084E79FE00E94F7
:1023A000F1A31092AC0F2091AC0F2430C8F4009729
:1023B000B9F08E01020F111D4AE050E060E070E0BC
:1023C0000E94AAA2F80160838091AC0F8F5F809376
:1023D000AC0F6BEB72E080E090E00E94F1A3E3CFE2
:1023E000822FDF91CF911F910F910895613049F4B1
:1023F000DA01EBE6F2E08D91819382E0E137F807B4
:10240000D1F70895623049F4DA01E2E9FEE08D91F6
:1024100081938EE0E839F807D1F70895E0910D0F28
:10242000F0910E0F908121E030E0082E01C0220FC4
:102430000A94EAF7922B90830895E091070FF091A8
:10244000080F208181E090E00090110202C0880F07
:10245000991F0A94E2F7282B20830895F894E091BD
:10246000070FF091080F908121E030E001C0220FAA
:102470008A95EAF7322F309593239083E0910D0FE0
:10248000F0910E0F8081822B80838BED95E0019778
:10249000F1F700C00000E0910D0FF0910E0F808168
:1024A00083238083EAEDF0E03197F1F700C0E091FB
:1024B0000710F09108108081E1E0F5E03197F1F725
:1024C000789482230895F894E091070FF091080F13
:1024D000408121E030E0062E01C0220F0A94EAF785
:1024E000922F909549234083E0910D0FF0910E0FAC
:1024F0003081322B308329E22A95F1F700C08823FE
:1025000039F0E0910D0FF0910E0F808189238083C7
:1025100085EE8A95F1F70000E0910D0FF0910E0F16
:1025200080818923808378940895F894E091070F3F
:10253000F091080F908121E030E0082E01C0220FB9
:102540000A94EAF7322F309593239083E0910D0F90
:10255000F0910E0F9081922B908394E09A95F1F771
:102560000000E0910D0FF0910E0F90819323908366
:102570009AE39A95F1F70000E0910710F0910810A6
:1025800020819BEB9A95F1F700C0789430E002C06F
:10259000359527958A95E2F7822F817008951F93CC
:1025A000CF93DF93D82F162FC9E0C15031F0612FA0
:1025B0008D2F817088DFD695F8CFDF91CF911F9155
:1025C00008951F93CF93DF93182FD9E0C0E0D15027
:1025D00049F0812FAADF20E8829FC0011124C6950F
:1025E000C82BF5CF8C2FDF91CF911F910895EF92DB
:1025F000FF920F931F93CF93DF93182FF62EEA01CC
:10260000E22E2CDF811163C0612FF11003C08CEC2E
:10261000C6DF09C085E5C3DF00E0612F8991BFDF18
:102620000F5F0830D1F7612F8EEBB9DF812FC9DF43
:10263000C82F812FC6DFD82FF11012C0812F0EDFD7
:10264000612F8CECACDF612F84E4A9DFEE2DF0E08C
:10265000EE0FFF1FED5DFF4E2BE930E0318320834D
:10266000E0910D0FF0910E0F908121E030E0012EEE
:1026700001C0220F0A94EAF7922B9083E091070F92
:10268000F091080F9081922B9083EC2FE295EF70E0
:102690002D2F277080E1289F90011124E22BCF700D
:1026A00041E752E0C49FC001C59F900D1124D7FFA0
:1026B00003C0EF578051974264E670E00E94CCA0BF
:1026C000CB0124E6E202800D911D112402C088ECAA
:1026D00092E3CDB7DEB7E6E00C946AA198E02CE86F
:1026E000362F3827869530FD822766959150C1F7A1
:1026F0000895A1E0B0E0EFE7F3E10C944CA1F82ECF
:102700006983ACDE6981662301F16F2D85E547DFC2
:102710006F2D8AE344DF6AE380E0E0DFE82E93E890
:10272000C92E9EE0D92E86016F2DF60181916F0191
:1027300036DFF80160818E2DD1DFE82EF9E8CF1663
:10274000FEE0DF0681F76F2D02C06F2D8CEC27DFD6
:102750006F2D85EF24DF04E08F2D33DF182F1F70DE
:1027600082958F70482F50E0212F30E020953095D2
:102770002F7033274217530711F400E003C00150B4
:1027800059F70FEF8F2D6ADE0F3F09F41FEF812FEE
:102790002196E8E00C9468A1A0E0B0E0E2EDF3E15E
:1027A0000C944AA1F82EB42E862F8C6FE82E24E0CC
:1027B000D22EA82EA0948F2D51DE6F2DBB20D1F0EC
:1027C00085E5EDDE6F2D8AE3EADE6AE380E086DFF1
:1027D000C82EC3E8DEE08E016F2D8991E0DEF8019E
:1027E00060818C2D7BDFC82EFEE0C938DF0799F7AA
:1027F0006F2D01C08CECD3DE6F2D8AE5D0DE6F2DFE
:102800008E2DCDDE6F2D8A2DCADE8F2DDADEC82FFC
:102810008F2DD7DECA3A19F0DA9409F0CCCF8F2D7C
:102820001DDECDB7DEB7EAE00C9466A148E552E1C3
:1028300060E070E082E89AE00C947E86DC012C91E6
:102840002F3229F5FC01319680E0BF019191903241
:1028500031F09F3221F0BF018F5F8630B1F790E0F9
:10286000681B790BEBE8FEE0DF010D900020E9F733
:10287000AD01415051094B585E404817590739F492
:10288000CF010E943FA4892B11F481E008958FEFBE
:1028900008958234A1F4673019F48CE890E01FC0E9
:1028A000663019F48AE890E01AC0653019F488E8B7
:1028B00090E015C06430B9F483EB90E010C085342B
:1028C00091F4633019F488E990E009C0643019F498
:1028D0008AE990E004C0653031F48CE990E090938F
:1028E000A50F8093A40F0895863419F481E390E036
:1028F0001DC0853419F48EE290E018C0823419F4BA
:1029000085E290E013C0873419F484E390E00EC0B0
:10291000843419F48BE290E009C0813419F482E226
:1029200090E004C0833431F488E290E090930B107F
:1029300080930A100895863479F481E390E09093AF
:10294000080F8093070F80E390E090930E0F809321
:102950000D0F8FE290E065C0853479F48EE290E04F
:102960009093080F8093070F8DE290E090930E0FE5
:1029700080930D0F8CE290E054C0823479F485E2AC
:1029800090E09093080F8093070F84E290E090937B
:102990000E0F80930D0F83E290E043C0873479F4EB
:1029A00084E390E09093080F8093070F83E390E017
:1029B00090930E0F80930D0F82E390E032C0843429
:1029C00079F48BE290E09093080F8093070F8AE2EE
:1029D00090E090930E0F80930D0F89E290E021C05C
:1029E000813479F482E290E09093080F8093070F8E
:1029F00081E290E090930E0F80930D0F80E290E0C3
:102A000010C0833491F488E290E09093080F809393
:102A1000070F87E290E090930E0F80930D0F86E2F0
:102A200090E090930810809307100895A1E0B0E023
:102A3000ECE1F5E10C9451A1182F862F49837BDF3F
:102A40004981113319F4842FE9DC0EC0E0910D0F98
:102A5000F0910E0F808121E030E001C0220F4A95F5
:102A6000EAF72095282320832196E3E00C946DA1BA
:102A7000CF93C82F833038F58091130235DFC130F2
:102A800089F4E0910A10F0910B10208181E090E030
:102A90000090AD0702C0880F991F0A94E2F7282B17
:102AA000208328C0C23079F4E0910A10F0910B1015
:102AB000208181E090E00090AD0702C0880F991F4F
:102AC0000A94E2F714C0C33011F4B7DC13C0C43069
:102AD00089F4E091070FF091080F208181E090E0E8
:102AE0000090110202C0880F991F0A94E2F78095A6
:102AF00082238083CF910895CF93C82F80911202B3
:102B00001ADFC13079F4C091AD078091130213DF51
:102B10008C2F84DCC0911102809112020CDF8C2F6B
:102B20007DDC15C0C23061F0C43079F4C09111026F
:102B30008091120200DF8C2F71DC7FDC81E098DF56
:102B400084E096DF82E094DF05C084E091DF81E0DD
:102B50008FDF73DCCF910895EF92FF920F931F9355
:102B6000CF93DF93E82E80911202E5DEC7E0D0E03C
:102B7000F12C01E010E022E32A95F1F7E091070F34
:102B8000F091080F8091110297010C2E02C035952B
:102B900027950A94E2F720FF0AC02081A80102C00D
:102BA000440F551F8A95E2F7242B20830BC0208108
:102BB000A80102C0440F551F8A95E2F7CA0180950B
:102BC0008223808381E054DF82E052DF84E050DFA3
:102BD000219788F6409111026091120280E326DF6E
:102BE00081E046DFE0910710F0910810808190E0CD
:102BF0000090110202C0959587950A94E2F78170C2
:102C0000992721E08227C82FC17082E031DF84E05C
:102C10002FDFD0911102809112028DDE8D2FFEDB0D
:102C20008C2FCDB7DEB7E6E00C946AA1EF92FF924D
:102C30000F931F93CF93DF93E82E40911102609181
:102C4000120280E3F3DE8091120275DE82E010DF73
:102C5000C7E0D0E0F12C01E010E081E009DFE09175
:102C60000710F0910810208130E00090110202C09E
:102C7000359527950A94E2F720FD09C098010C2E9E
:102C800001C0220F0A94EAF72095F22207C09801AA
:102C90000C2E01C0220F0A94EAF7F22A82E0E8DE45
:102CA0002197D8F6C09111028091120244DE8C2F38
:102CB000B5DB81E0DDDE81E0E81202C0BEDB02C0F0
:102CC00084E0D6DE82E0D4DE4091110260911202EF
:102CD00080E3ACDE8F2DCDB7DEB7E6E00C946AA1C1
:102CE0001F93CF93DF93182FEB0181E005DF82E084
:102CF00003DF80E831DF812F2FDF8C2F2DDF8D2F39
:102D00002BDF83E0F9DEDF91CF911F910895CF9300
:102D1000DF93C82F81E0F0DE82E0EEDE80E81CDF8A
:102D20008C2F1ADF83E0E8DE82E0E6DE81E814DF44
:102D300080E07CDFC82F81E079DFD82F83E0DCDE04
:102D40002D2F30E0922F88278C0F911DDF91CF918E
:102D50000895A0E0B0E0EFEAF6E10C944AA1B82EA5
:102D600062E4C62E6AE0D62E0AE112E0C0E0D0E0AE
:102D7000E82EF12CC7018252974F7C01F601819118
:102D80006F01813051F121960E5F1F4FC732D1057F
:102D9000A9F7EB2DF0E0EE0FFF1FE65EFD4F01906F
:102DA000F081E02DC191C0930610CF010E94BBA31A
:102DB0008093B0078C2FBFDDE091070FF091080FD3
:102DC000208181E090E00090B00702C0880F991F39
:102DD0000A94E2F7282B20832AC0DE01AC50B64FBC
:102DE0008C91833081F6DE01A252B74F9C91F7019E
:102DF00080819813C8CFF801A081B181AD90A092D5
:102E00000610CD010E94BBA38093B0078A2D93DDED
:102E1000A091070FB091080F2C9130E00090B007FF
:102E200002C0359527950A94E2F720FFACCFCDB7C5
:102E3000DEB7EAE00C9466A1A1E3B0E0E2E2F7E1DC
:102E40000C9442A14C016FA34BA72E8F86E496E40D
:102E5000A0E08E8B9F8BA88F8B8B9C8BAD8B888BF0
:102E6000998BAA8B1092AC0F23E02CA31D8E19A274
:102E700022242394312C9E01295F3F4F3A8F298FC2
:102E8000262F30E039A728A7220F331F285A364FA4
:102E90003EA32DA33DA72CA79E012F5F3F4F3C8F44
:102EA0002B8F1091AC0FA12EB12CF40101900020BA
:102EB000E9F73197E819F909AE16BF0608F093C68D
:102EC000A80CB91CD5012C912A3049F486E48E8BCC
:102ED0008F8B1C868B8B8C8B1D8E19A272C62A330E
:102EE00011F02D3321F43D8D333009F057C62B33CB
:102EF00009F456C6203709F455C6213609F454C6DC
:102F0000253609F454C6273609F454C6233709F088
:102F100050C002E41AE069EDA62E61E0B62E7AE117
:102F2000C72E72E0D72EE4EFEE2EE9E0FE2ED80198
:102F30008D918D01813071F5F60180819181DC01E7
:102F40007D90CD010E94BBA32C01682F872DA1DCB1
:102F5000872DF1DCF7018081813049F4E091A40FE5
:102F6000F091A50F60817181615080F413C0E091F0
:102F7000070FF091080F808190E0042C02C0959516
:102F800087950A94E2F780FF05C060E070E0C50114
:102F90000E943AA7F2E0AF0EB11C22E0C20ED11C93
:102FA0003FEFE31AF30A4AE00936140709F0BFCFEE
:102FB00008C6213409F401C6223409F400C62C37AE
:102FC00009F411C62B3209F402C62E3709F401C6E2
:102FD0002D3209F401C65D8D511107C08E898634EA
:102FE00011F02F8BEEC52E8BECC53D8D373039F4AB
:102FF0008B89863411F02C8BE4C52B8BE2C55D8D5B
:10300000583039F48889863411F0298BDAC5288B39
:10301000D8C53D8D313041F0343031F08D8D855043
:10302000823008F07DC40EC05FA1543659F0E8A587
:10303000F9A5EE5BF54F8081811104C0ADA1BEA161
:103040001D921C928F89863409F41F8ACE01469600
:103050000E94BBA32C018AA7E82EFF24E7FCF09472
:103060008701000F111FF801E65EFD4F80819181FD
:10307000FC017190CF010E94BBA36C01D5018C9122
:103080008E3761F4F801E15CF74F808191810297FE
:1030900019F426E02D8F02C035E03D8F6C2D872D71
:1030A000F8DB872D48DC6090AC0FA62CB12CA40176
:1030B0004A0D5B1D5BA34AA3DA018C9197012B5F3C
:1030C000364F38A32F8F8E3531F4D9018C91811171
:1030D0000CC081E008C0863761F4AF8DB8A18C9137
:1030E000811103C082E08C93F5C3EF8DF8A11082AB
:1030F000F1C3883781F4AF8DB8A11C9286E48E8B22
:103100008F8BF801EB51F84F11821082F701E854D0
:10311000F84F1082E5C3EF8DF8A11082F701EC5053
:10312000F64F9081913009F0F2C0F701EE5BF54F58
:103130002081213009F038C1960D292F30E0F401AB
:1031400001900020E9F73197E819F9092E173F0798
:1031500058F4F401E20FF31F908126EC290F22307E
:1031600018F09D3309F0C5C059A1252F30E0ECE0DF
:10317000F0E0EC0FFD1FE20FF31F8083FE01E20F72
:10318000F31F158682E4781619F095E47912ABC026
:10319000CE010C960E94BBA3F801E85AF64F91832A
:1031A00080832D8D243051F4A091A40FB091A50FF0
:1031B0008D919C91892B11F011821082C801865D3E
:1031C0009D4F0E941EA7F801EA55F64F9183808318
:1031D0003D8D353008F476C0ADA1BEA18D919C9196
:1031E000A8A5B9A5A854B84F009769F58C9181118D
:1031F00057C0E091A40FF091A50F80819181892B98
:1032000029F0AAA1BBA18C918E3719F02D8D253004
:1032100041F011821082F801E15CF74F3182208287
:1032200062C0D701A854B84F8C91811102C08FEFB2
:103230008C938C9190E09183808382E090E0F80100
:10324000E15CF74F4EC00197D9F5E091A40FF091E2
:10325000A50F3D8D353049F4808191818F3F9105D7
:1032600080F48081918101960AC05D8D563049F4C9
:1032700080819181892B29F08081918101979183AF
:10328000808381E08C9383E090E0ACA5BDA58D9315
:103290009C9380819181F701E854F84F808323C08B
:1032A000813071F4F801E15CF74F808191810297E0
:1032B00028F482E090E09183808302C031822082F2
:1032C0001C9211C0009751F4E091A40FF091A50F4A
:1032D000D801A85AB64F8D919C9103C0F801EF5DBB
:1032E000F04F9183808386E48E8B8F8B1C8619A28E
:1032F000F7C28A3209F4F2C2ECE0F0E0EC0FFD1FF5
:1033000029A1E20FF11D80832F5F29A3E9C292302A
:1033100009F04AC03CA1333009F446C06091830EE5
:103320008C2DE7D9682F66956B7F8091AC0FF401E7
:10333000E80FF11D8081813359F0833321F45E8DD4
:103340005130F1F405C0843369F42E8D21111CC075
:1033500091010CA002C0220F331F0A94E2F72095BE
:1033600062231DC0823349F491010CA002C0220FD8
:10337000331F0A94E2F7622712C0803381F407C03A
:103380003E8D332321F00BC05E8D513041F491010D
:103390000CA002C0220F331F0A94E2F7622B409167
:1033A000830E8C2DF9D996C2F701EE5BF54F208183
:1033B000243009F057C1F701E55EF54F2081253132
:1033C00009F04DC085E0A98DBA8D1D928A95E9F767
:1033D000CE0143960E94BBA37C0120E0822F90E0A7
:1033E000F401E80FF91FEA0DFB1D30813B3311F0AA
:1033F00031112CC08FEF860D820F8093AC0F70922D
:103400001202C0921102F801EA55F64F0190F081C4
:10341000E02DEE0FFF1FE65EFD4F80819181FC01E4
:103420002191CF01209313020E94BBA38093AD078B
:10343000CE0107960E94BBA3BC018E2D880F880F7A
:10344000885F4EDC86E48B8B8C8B44C2E7E0F0E037
:10345000EC0FFD1FE80FF91F30832F5FBFCF243122
:1034600009F07BC0CE0143960E94BBA35C01709221
:103470001202C0921102F801EA55F64F0190F08154
:10348000E02DEE0FFF1FE65EFD4F80819181DC0194
:103490002D91CD01209313020E94BBA38093AD0711
:1034A00081E02ADB82E028DB80E456DBF701E25290
:1034B000F74F8081813041F4B7E0BA1528F489E1F3
:1034C0004BDB28E0F22E03C089E046DBF12C83E0E1
:1034D00013DB82E011DB81E43FDB81E0A7DBE82E38
:1034E00083E00ADB8091AC0FF401E80FF11D8081CD
:1034F000BB242F2D30E0A21AB30A813349F4F10125
:1035000002C0EE0FFF1FAA94E2F75F01AE2814C0BD
:10351000823349F4910102C0220F331FAA94E2F7CB
:103520005901AE2409C0A10102C0440F551FAA943D
:10353000E2F75A01A094AE2081E0DEDA82E0DCDA24
:1035400080E40ADBFF2011F089E101C089E004DB9F
:103550008A2D02DB83E0D0DABDC1243009F082C0BD
:103560005AA5563259F483E4809313021092AD07A2
:103570008093120281E08093110219C070921202AE
:10358000C0921102F801EA55F64F0190F081E02D4A
:10359000EE0FFF1FE65EFD4F80819181DC012D91D2
:1035A000CD01209313020E94BBA38093AD0781E05D
:1035B000A3DA82E0A1DA2091AC0FFE013C9680E014
:1035C00090E0A401420F511D9A01482FD901A80F84
:1035D000B91F5C915B3341F0552331F05193019653
:1035E0008330910591F743E0ECE0F0E0EC0FFD1F34
:1035F000E40FF11D1082CE010C960E94BBA3F82EA1
:1036000052E0851311C089E7A7DA81E00FDBF82EBD
:1036100083E072DA91E083E0F81201C090E0F92EC5
:1036200081E06ADA82E068DA88E796DA80E094DAA4
:1036300091E0F91202C08FEA0AC0F11002C08EEACE
:1036400006C0AFEFFA1621F081E886DA8F2D84DA12
:1036500082E052DA81E08093BC081092BA0810929E
:10366000B90838C12889263409F4B1C0CE01409682
:103670000E94BBA3782E6AE172E042E45AE086EB36
:10368000482E8FE0582EC12CD12C9701265D384F43
:103690003BA32AA366246394DB01AD90BD90BD01DA
:1036A000C501019648AB59ABAEA77FA70E94BBA34B
:1036B0007C01F50180813FD948A959A9DA018D9192
:1036C000AD016EA57FA5813009F06CC0F601EC500C
:1036D000F64F8081811166C0F601E252F74F80817A
:1036E000871160C0E091070FF091080F2081FF243F
:1036F000E7FCF09430E00E2C02C0359527950A9433
:10370000E2F721708091AC0FD401A80FB11D8C910C
:10371000813359F0833321F43E8D313091F405C06B
:10372000843361F43E8D311110C03081C1010E2C03
:1037300001C0880F0A94EAF7382B1FC0803399F430
:1037400007C03E8D332321F019C03E8D3130B1F4D6
:103750003081C1010E2C01C0880F0A94EAF78095D0
:10376000832380830BC0823349F43081C1010E2C46
:1037700001C0880F0A94EAF738273083E091070FD9
:10378000F091080F808190E00E2C02C095958795EE
:103790000A94E2F78170821729F0AAA1BBA16C926A
:1037A00060925107F2018081843610F48C59808335
:1037B000FFEFCF1ADF0A2FEF421A520A37E2C31681
:1037C000D10409F069CF86E4888B898B83C0E091AE
:1037D000070FF091080F2081DD24C7FCD09430E062
:1037E0000C2C02C0359527950A94E2F7422F4170C0
:1037F000B42E813359F0833321F45E8D5130D1F4EE
:1038000005C08433A1F42E8D211118C0933031F4FA
:10381000D701A252B74F8C918F3F91F52081C10102
:103820000C2C01C0880F0A94EAF7282B34C080338F
:1038300041F012C03E8D332321F02EC05E8D5130F9
:1038400059F52081C1010C2C01C0880F0A94EAF7B8
:1038500080958223808320C08233F1F4933099F4E1
:10386000D701A252B74F8C918F3F69F0808190E0D1
:103870000C2C02C0959587950A94E2F780FD03C051
:10388000842D67DA09C02081C1010C2C01C0880F8A
:103890000A94EAF728272083E091070FF091080F98
:1038A000808190E00C2C02C0959587950A94E2F7F0
:1038B00081708B1539F081E0F701E65DF84F808368
:1038C00080935107F701EA54F04F8081843610F459
:1038D0008C59808386E48E8B8F8B02C024E02D8FE1
:1038E000AF8DB8A18C9118160CF06BC12091AC0F64
:1038F000F401E20FF11D818190ED980FF801E85A73
:10390000F64F9A3050F4992787FD9095C097918390
:1039100080832F5F2093AC0F54C11182108251C15C
:103920003D8D323009F04EC059A1852F90E0E1E085
:10393000F0E0EC0FFD1FE80FF91F2083FE01E80FF8
:10394000F91F12825F5F59A381E0810F90E0F401BB
:1039500001900020E9F73197E819F9098E179F07C0
:1039600058F4F401E80FF91F808196EC980F92301B
:1039700018F08D3309F025C11E5F3BA5130F1731D9
:1039800008F01FC15FA1E52EF12CCE0101960E9427
:10399000BBA3F701EE0FFF1FEB51F84F24E1DC0151
:1039A0002A9FC0012B9F900D112491838083F701E2
:1039B000E854F84F108385E0EB8DFC8D11928A95C9
:1039C000E9F711C12D8D233009F0FBC01F5F109363
:1039D000AC0F2AE132E038A32F8F22E43AE03BA378
:1039E0002AA376EBC72E7FE0D72EEEED6E2EE8E011
:1039F0007E2E00E010E044244A94512CA3E0AA2E2D
:103A0000AF8DB8A18D919D91B8A3AF8FFC01B190FE
:103A1000CF010E94BBA37C018B2D0E949B14AAA105
:103A2000BBA18D91BBA3AAA3813009F0AAC0F80164
:103A3000EC50F64F80818230F9F48091AC0FF401A4
:103A4000E80FF11D8081813309F4C9C0803309F486
:103A5000C8C0823309F095C060E08E2D0E947913B2
:103A6000682F66956B7F6A25643008F08AC040E055
:103A70008E2D0E94CC1385C0813049F56E2D8B2D83
:103A80000E9449148091AC0FF401E80FF11D808170
:103A9000803329F4E091A40FF091A50F12C0813377
:103AA00029F4E091A40FF091A50F0EC0823309F024
:103AB00068C0E091A40FF091A50F80819181892BBE
:103AC00019F0118210825DC0518240825AC09091DB
:103AD000AC0FF401E90FF11D90819133A1F4833013
:103AE00021F4F30180818F3FC9F5E091070FF09138
:103AF000080F8081910102C0220F331FEA94E2F780
:103B00007901822B37C0903381F4E091070FF09157
:103B1000080F8081A10102C0440F551FEA94E2F70B
:103B20007A01E094E822E08226C0923321F5E09108
:103B3000070FF091080FFF24E7FCF094833089F41D
:103B4000D3018C918F3F69F0808190E00E2C02C0F0
:103B5000959587950A94E2F780FD03C0802FF9D8E8
:103B60000AC08081910102C0220F331FEA94E2F75C
:103B7000790182278083D6018C91843610F48C5988
:103B80008C930F5F1F4FBFEFCB1ADB0AEFEF6E1A5C
:103B90007E0A0632110509F033CF13C021E008C0B8
:103BA0001D8E0FC032E007C053E05D8F0AC027E0D2
:103BB0002D8F07C038E03D8F04C01CA202C051E029
:103BC0005CA38091AC0F8F5F8093AC0F6AC935E026
:103BD00004C055E05D8F22CA36E03D8F1FCA60E009
:103BE00046CF63E044CFE196E2E10C945EA1AFE101
:103BF000B0E0EDEFFDE10C944CA1322F273240F400
:103C0000E22FF0E0EE0FFF1FE15CF74F1182108210
:103C1000DE0111967D015E96F7011192EA17FB070E
:103C2000E1F7032F10E0F801EE5BF54F2081233020
:103C300031F4F801E55EF54FE081E43011F0373200
:103C400010F0EFEF01C0E1E0E0931802F801E75A4D
:103C5000F14FE081E1FF05C0883C910509F0A7C064
:103C6000A9C0883C910509F059C06E57754FFB01FA
:103C7000D12CC12CDF01A61BB70BCA014D3D51054C
:103C800010F08CED90E0A817B90718F581918D30F0
:103C900011F08A3041F4B2E0DB1641F080818A30C5
:103CA00049F7D394E7CF92E0D91211C08F3E49F083
:103CB000982F9B7F9B3B29F0D701AC0DB11D8C93B6
:103CC000C394ACE1AC1528F0B2E0DB2ED3CFD12CFD
:103CD000D1CFF701EC0DF11D108289818823F1F01D
:103CE0008A818436D9F0F70101900020E9F73197F5
:103CF000D701AE17BF0761F08D918037D1F7B701BB
:103D00008DEB98E00E9438A423E040E06CE203C011
:103D100023E040E064E6C7018FD84CC0F801EC50C6
:103D2000F64F8081811107C0F801E45DF64F808174
:103D30008F3F61F410C0823039F4F801E45DF64F32
:103D400080818E3F19F407C0813029F0211103C012
:103D50008A81843679F5373268F581E0F801EB5FC6
:103D6000F64F808380E3E4E7FFE0DF011D928A9550
:103D7000E9F727E1209FB001219F700D1124605EBB
:103D8000794F47E150E0CF013F8F0E9406A7809115
:103D9000740F8F5F3F8D823050F0F801E45DF64F75
:103DA00020812E5F40E0632F84E79FE045D882E0CA
:103DB000809318026F96E8E00C9468A1A1E0B0E04F
:103DC000E4EEFEE10C9448A1482F082F10E0B80162
:103DD0006C50764F7B01DB018C914801880C991C5B
:103DE000813099F54E3118F089E290E002C08CE202
:103DF00090E09093081080930710F401E65EFD4F69
:103E00008081918101960E94BBA38093B007F40149
:103E1000EA55F64FC080D180F601EE0FFF1FE65E37
:103E2000FD4F8081918101960E94BBA3B82EBEE117
:103E3000CB16D1041CF089E290E002C08CE290E045
:103E40009093B30F8093B20F39C0F401E65EFD4F3B
:103E500080819181019649830E94BBA3B82E49813C
:103E60004E3138F089E290E09093B30F8093B20F17
:103E700006C02CE230E03093B30F2093B20FF40170
:103E8000EA55F64F0190F081E02DEE0FFF1FE65E40
:103E9000FD4FC080D180C60101960E94BBA38093D4
:103EA000B007F6018081843419F429E230E002C0C1
:103EB0002CE230E030930810209307101092110F7D
:103EC0001092120F1092130F1092140F1092150FE0
:103ED0001092160F21E030E002C0220F331FBA9477
:103EE000E2F7B12CC12C78E0D72E40E050E0B0E0F2
:103EF00081E090E0F4E0FA95F1F700004F5F5F4F4A
:103F0000483765E0560779F4BA3108F089C0BB0C30
:103F1000BB0CBB0C8091110F829586958770B82AD7
:103F2000B092110F7DC0E0910710F09108106081F0
:103F3000A091B00770E00A2E02C0759567950A94AB
:103F4000E2F760FD1EC0AA24A394AB0EB150B831B5
:103F500008F4DA94AC0102C0440F551FAA95E2F7A9
:103F6000DA0164EC79E0408150E04A235B23452B81
:103F700009F04BC06150710961157105A1F781E02D
:103F800082C0E091B20FF091B30F608170E06223C4
:103F90007323672BE9F5AA24A394AB0EB1504C2DE3
:103FA00050E0B83180F46FEF6D0DDC0102C0AA0F54
:103FB000BB1F6A95E2F7BD01DA01AF5EB04F7C919D
:103FC000762B7C93DA94DA01AC5EB04F4FEF4D0D57
:103FD000BC0102C0660F771F4A95E2F7AB015C9106
:103FE000542B5C9371E0A71202C0BB24B39464EC21
:103FF00079E0408150E042235323452B31F4615056
:10400000710961157105A9F7BACFBA2D40E050E0EA
:10401000D11003C0C39468E0D62EBA3208F46ACF38
:104020008BEE8B0F853068F48091140F8093110F05
:104030008091150F8093120F8091160F8093130FAC
:104040000AC0B43030F48091110F86958093110F1F
:1040500004C0B53010F083E001C081E08093140FFC
:10406000D7018C91813021F4F801E45DF64F09C04D
:10407000F401EA55F64F0190F081E02DE45DF64F32
:1040800081E0808380E02196ECE00C9464A11F9293
:104090000F920FB60F9211240BB60F922F933F93EE
:1040A0004F935F936F937F938F939F93AF93BF9340
:1040B000EF93FF93F8948EE181DE8111E898789474
:1040C000FF91EF91BF91AF919F918F917F916F91F0
:1040D0005F914F913F912F910F900BBE0F900FBEAC
:1040E0000F901F9018951F920F920FB60F921124E8
:1040F0000BB60F922F933F934F935F936F937F93E2
:104100008F939F93AF93BF93EF93FF93F8948FE1B7
:1041100055DE8111E9987894FF91EF91BF91AF91AD
:104120009F918F917F916F915F914F913F912F91CF
:104130000F900BBE0F900FBE0F901F9018951F92FF
:104140000F920FB60F9211240BB60F922F933F933D
:104150004F935F936F937F938F939F93AF93BF938F
:10416000EF93FF93F89480E229DE8111EA98789426
:10417000FF91EF91BF91AF919F918F917F916F913F
:104180005F914F913F912F910F900BBE0F900FBEFB
:104190000F901F9018951F920F920FB60F92112437
:1041A0000BB60F922F933F934F935F936F937F9331
:1041B0008F939F93AF93BF93EF93FF93F89481E214
:1041C000FDDD8111EB987894FF91EF91BF91AF9154
:1041D0009F918F917F916F915F914F913F912F911F
:1041E0000F900BBE0F900FBE0F901F9018951F924F
:1041F0000F920FB60F9211240BB60F922F933F938D
:104200004F935F936F937F938F939F93AF93BF93DE
:10421000EF93FF93F8948BE1D1DD8111EC987894C2
:10422000FF91EF91BF91AF919F918F917F916F918E
:104230005F914F913F912F910F900BBE0F900FBE4A
:104240000F901F9018951F920F920FB60F92112486
:104250000BB60F922F933F934F935F936F937F9380
:104260008F939F93AF93BF93EF93FF93F89489E15C
:10427000A5DD8111ED987894FF91EF91BF91AF91F9
:104280009F918F917F916F915F914F913F912F916E
:104290000F900BBE0F900FBE0F901F9018951F929E
:1042A0000F920FB60F9211240BB60F922F933F93DC
:1042B0004F935F936F937F938F939F93AF93BF932E
:1042C000EF93FF93F89487E179DD8111EE9878946C
:1042D000FF91EF91BF91AF919F918F917F916F91DE
:1042E0005F914F913F912F910F900BBE0F900FBE9A
:1042F0000F901F9018951F920F920FB60F921124D6
:104300000BB60F922F933F934F935F936F937F93CF
:104310008F939F93AF93BF93EF93FF93F89486E1AE
:104320004DDD8111EF987894FF91EF91BF91AF919E
:104330009F918F917F916F915F914F913F912F91BD
:104340000F900BBE0F900FBE0F901F9018951F92ED
:104350000F920FB60F9211240BB60F922F923F922D
:104360004F925F926F927F928F929F92AF92BF9285
:10437000CF92DF92EF92FF920F931F932F933F9371
:104380004F935F936F937F938F939F93AF93BF935D
:10439000EF93FF93CF93DF93CDB7DEB72797DEBFC1
:1043A000CDBF8091AC078F5F8093AC07883C09F04C
:1043B0004BC01092AC078091AB078F5F8093AB0727
:1043C0009091AA07923111F09A3251F48E3141F452
:1043D000809110028230C1F181E08093100234C0DC
:1043E0008C3391F51092AB0731E0390F3093AA0767
:1043F0008091260790912707A0912807B09129075F
:104400000196A11DB11D8093260790932707A093C5
:104410002807B093290721E0209398073C33A1F4A3
:104420001092AA078091A9078F5F8093A90788310E
:1044300059F41092A9078091A8078F5F8093A8076D
:10444000883011F42093A80780918D08813099F469
:104450008091140290911502A0911602B09117025A
:104460000196A11DB11D8093140290931502A09393
:104470001602B09317028091530990915409A091AC
:104480005509B091560983309105A105B10558F041
:104490000197A109B1098093530990935409A093FE
:1044A0005509B09356098091810E9091820E823009
:1044B000910528F001979093820E8093810E809150
:1044C0008A0E8F3F69F08091B6079091B7078131CE
:1044D00027E2920728F001979093B7078093B607D9
:1044E00022E43AE03A83298323E2422E20E1522E4D
:1044F00036EA832E39E0932E41E2A42E4FE0B42E0B
:1045000008E519E055EEC52E57E0D52E6FE3E62EEF
:1045100068E0F62E79E5272E7EE0372EEAE16E2E52
:10452000E2E07E2E1F821E827FEFA981BA812D914B
:10453000BA83A983213009F057C0EE81FF81EC5086
:10454000F64F8081813009F0A4C0F401808191810F
:10455000181619060CF09DC0D5018D919C910097FD
:1045600009F497C0EE81FF81EB5FF64F20812111A6
:1045700090C081309105A9F5F30120813181C901F5
:1045800001962B833C837D830E94BBA3682F2B81E4
:104590003C81D9018C910E944914E091A40FF091C3
:1045A000A50F80819181682FD8014D915C919C016C
:1045B00033277D812417350714F461E004C04217C6
:1045C00053071CF46FEF680F03C0D4011D921C92B7
:1045D000862F90E091838083F40180819181D501C1
:1045E00056C00197F50146C0D7018D919C91119756
:1045F000009731F101978D939C93BE81B63241F4BF
:1046000040918B0850918C08452B11F41092EB0EC1
:10461000009751F4F101308131FD06C0E1E0F0E096
:10462000D601ED93FC930CC0D1013C9131FF08C041
:10463000803A910528F470936B02F7011182108281
:10464000D6018D919C9111978330910518F00197B7
:104650008D939C93233089F4EE81FF81E55EF54FC5
:1046600080818430B1F4F801808191811816190697
:1046700084F40197918380830CC021110AC0D80172
:104680008D919C911197823091051CF001978D932B
:104690009C93F20180819181009759F0EE81FF8116
:1046A000E252F74F2081233021F00197D2018D9300
:1046B0009C932E813F812F5F3F4F3F832E8332E0BB
:1046C000430E511C82E0880E911C92E0A90EB11C91
:1046D0000E5F1F4FA2E0CA0ED11CB2E0EB0EF11C20
:1046E000EFEF2E1A3E0AF2E06F0E711C2E813F8111
:1046F0002732310509F019CF80911002823069F418
:1047000080913D0890913E0883309105B0F001976B
:1047100090933E0880933D0810C0E3E3F8E0808169
:1047200091818330910518F00197918380833296AF
:1047300038E0ED33F30799F7E3CF8FB180953091EF
:10474000DD0F832790910D029823909590930D0291
:1047500020910C022823292720930C0289238223ED
:10476000282F23239091AD0F922B9093AD0F3827D4
:104770003093DD0F83232091A90F282B2093A90FBD
:104780008CB180953091A60F832790910B029823CE
:10479000909590930B0220910A02282329272093B9
:1047A0000A0289238223282F23239091A80F922B7A
:1047B0009093A80F38273093A60F832320910510DC
:1047C000282B2093051083B180953091B40F832757
:1047D00090910902982390959093090220910802E4
:1047E000282329272093080289238223282F232383
:1047F00090910D10922B90930D1038273093B40F99
:10480000832320910E10282B20930E1080B18095C9
:1048100030912010832790910702982390959093D0
:1048200007022091060228232927209306028923C4
:104830008223282F23239091170F922B9093170FE9
:1048400038273093201083232091B50F282B2093F5
:10485000B50F86B18095309109108327909105029C
:1048600098239095909305022091040228232927EC
:104870002093040289238223282F232390910C1054
:10488000922B90930C10382730930910832320919A
:10489000180F282B2093180F89B180953091100F95
:1048A000832790910302982390959093030220917F
:1048B0000202282329272093020289238223282FFA
:1048C00023239091AB0F922B9093AB0F382730930B
:1048D000100F832320910F10282B20930F1082B3E9
:1048E00080953091E40F8327909101029823909551
:1048F000909301022091000228232927209300028F
:1049000089238223282F23239091A70F922B909302
:10491000A70F38273093E40F832320910F0F282B04
:1049200020930F0F8091AF078C3021F4A098109244
:10493000AF0705C0882319F08F5F8093AF0781E030
:104940008093B10727960FB6F894DEBF0FBECDBF98
:10495000DF91CF91FF91EF91BF91AF919F918F9197
:104960007F916F915F914F913F912F911F910F9187
:10497000FF90EF90DF90CF90BF90AF909F908F907F
:104980007F906F905F904F903F902F900F900BBE55
:104990000F900FBE0F901F901895F8949091A90F4B
:1049A000892398279093A90F78940895F89490916B
:1049B000AD0F892398279093AD0F78940895F894BC
:1049C0009091051089239827909305107894089565
:1049D000F8949091A80F892398279093A80F789422
:1049E0000895F89490910E108923982790930E10B3
:1049F00078940895F89490910D10892398279093B6
:104A00000D1078940895F8949091B50F8923982704
:104A10009093B50F78940895F8949091170F892387
:104A200098279093170F78940895F8949091180F01
:104A3000892398279093180F78940895F89490916B
:104A40000C108923982790930C1078940895F8946B
:104A500090910F108923982790930F1078940895C0
:104A6000F8949091AB0F892398279093AB0F78948B
:104A70000895F89490910F0F8923982790930F0F22
:104A800078940895F8949091A70F8923982790938C
:104A9000A70F78940895009731F023E52A95F1F750
:104AA00000000197F8CF08956AE00E94ACA020E1D1
:104AB000829F900D1124892F0895982F92959F70B1
:104AC0008F702AE0929F800D11240895A6E0B0E037
:104AD000ECE6F5E20C9452A183E480931302109269
:104AE000AD0744E050E06EE271E0CE0101960E9415
:104AF00006A7898191E0980F923030F080931302DD
:104B00008A8180538093AD0783E48093120281E011
:104B10008093110244E050E06CE271E0CE01019616
:104B20000E9406A7898191E0980F923030F080931F
:104B300012028A8180538093110280911002823088
:104B400009F443C081E00E947C1582E00E947C153C
:104B500080ED0E94AC1580E00E94AC1583E00E94BD
:104B60007C1582E00E947C1581ED0E94AC1580E0EE
:104B70000E941616A2DF8093AB0780E00E941616F3
:104B80009CDF8093AA0780E00E94161696DF809330
:104B9000A90781E00E9416168093A80783E00E946F
:104BA0007C158091A8078150873068F082E080935F
:104BB00010021092AB071092AA071092A90781E089
:104BC0008093A80702C0109210022696E2E00C948F
:104BD0006EA1CF93DF93C82F83E00E947C1581E004
:104BE0000E947C1582E00E947C1588E70E94AC152B
:104BF00080E00E94AC158EEA0E94AC1585ED0E9403
:104C0000AC1580E80E94AC1581E80E94AC158C2F91
:104C100090E0880F991F87529E4F0E941EA78F3FDA
:104C200009F48FE70E94AC158DE80E94AC1584E171
:104C30000E94AC1581EA0E94AC1588EC0E94AC156C
:104C400086EA0E94AC1580E20E94AC1580E00E94CA
:104C5000AC1581E20E94AC1580E00E94AC158FE794
:104C60000E94AC1580E00E94AC1582E20E94AC1557
:104C700080E00E94AC1587E00E94AC1583E00E94A2
:104C80007C1582E00E947C1588E70E94AC1580E4C8
:104C90000E94AC15C0E0D4E080E00E94AC152197E2
:104CA0002097D1F783E00E947C1582E00E947C155A
:104CB00088E70E94AC1580E00E94AC158FEA0E9444
:104CC000AC1583E00E947C15DF91CF910895A0E0A0
:104CD000B0E0EDE6F6E20C9448A1D82FC62F7A0199
:104CE000D22E8091BC088A3008F03FC081E00E943B
:104CF0007C1582E00E947C1588E70E94AC1580E05C
:104D00000E94AC1580E20E94AC1581E00E94AC15B7
:104D100081E20E94AC1521E0D21202C080E001C005
:104D20008D2F0E94AC158FE70E94AC1582E20E9485
:104D3000AC1581E0D81201C0C2E08C2F0E94AC15E6
:104D400021E0D21202C083E001C081E08C0F0E94FA
:104D5000AC1583E00E947C1582E00E947C1588E7F8
:104D60000E94AC1580E40E94AC15E091730FF0E056
:104D7000EE0FFF1FEF5DF04F808191812091BC0805
:104D80000A9751F4213041F48AE08093BC081092D4
:104D9000BA081092B908D7C0213031F484EF91E0FD
:104DA0009093BA088093B90800E010E0C12C8C2DD4
:104DB00090E0F70101900020E9F73197EE19FF0923
:104DC0008E179F0708F08EC0F701E80FF91F80814A
:104DD000803279F4D11010C080E00E94AC1580E0E0
:104DE0000E94AC1580E00E94AC1580E00E94AC15DA
:104DF00057C0803208F454C0982F9D0D8FED890F55
:104E0000803B10F08FEA890F90E021E0D21609F480
:104E10007BC0FC01EE0FFF1FE80FF91FE559F74EAD
:104E2000C491FC01EE0FFF1FE80FF91FE459F74E84
:104E3000A590B490D0E0CC0FDD1F88248394912CF2
:104E4000E92DF0E0EC17FD0758F5E80DF11D87FCA2
:104E5000FA95EA0DFB1DE55BF54E84910E94AC15B9
:104E600081949394EDCF2091B9083091BA08C9018B
:104E70000A96C817D90708F05EC0C217D30708F40E
:104E80005AC0EA0DFB1DE556FC4E84910E94AC15FC
:104E90002196EC2FE01BF0E0E815F90520F38E01D8
:104EA0008091B9089091BA089C01265F3F4F021784
:104EB000130718F40817190720F48091BC088A30EA
:104EC00078F480E00E94AC1580E00E94AC1581E08F
:104ED000D81206C080E00E94AC1580E00E94AC159C
:104EE000C39465CF8091BC088A3039F481E0809307
:104EF000BC081092BA081092B9088FEF809319027B
:104F000083E00E947C151FC0FC01EE0FFF1FE80F1D
:104F1000F91FE65BFC4E8490FC01EE0FFF1FE80FCB
:104F2000F91FE55BFC4EA590B49024E0829E400101
:104F30001124E801AECFC817D90709F0A9CFD09343
:104F4000BA08C093B908CDB7DEB7ECE00C9464A101
:104F5000CF92DF92EF92FF92CF93C82F81E00E9411
:104F60007C1582E00E947C1580E80E94AC1583E0ED
:104F70000E947C1582E00E947C1580E80E94AC159E
:104F8000C13011F483EE01C085EE0E94AC1583E0C0
:104F90000E947C158AEF90E07EDD82E00E947C1505
:104FA000C13019F484EA96E002C08CE291E073DD2E
:104FB00081E80E94AC1588EC90E06DDD80E00E94F5
:104FC0001616F82E81E00E9416162F2D30E0322F93
:104FD0002227282B442737FD4095542F2C7F442728
:104FE0005527A0E1B7E20E9432A19C01552737FD69
:104FF0005095452FC13049F4A4EAB4E40E9432A18F
:10500000605D7F4D8A4C924008C0A4EDB0E30E94E1
:1050100032A160587D488B45910920E137E240E09C
:1050200050E00E9401A169017A01CA01B90124E698
:1050300030E040E050E00E9401A1F7FE29C09B0152
:1050400077FF04C022273327261B370B3F932F936C
:10505000C701B60124E630E040E050E00E9401A123
:105060003195219531093F932F938DEB92E09F93DA
:105070008F9384E79FE09F938F930E94EAA48DB75C
:105080009EB708960FB6F8949EBF0FBE8DBF1AC08C
:105090009F938F937F936F935F934F933F932F9340
:1050A00084E093E09F938F9384E79FE09F938F9397
:1050B0000E94EAA48DB79EB70C960FB6F8949EBFD7
:1050C0000FBE8DBF83E00E947C15CF91FF90EF90C3
:1050D000DF90CF900895CF93DF9381E00E947C15FD
:1050E00082E00E947C1586E40E94AC1580E10E945B
:1050F000AC1583E00E947C1582E00E947C1587E459
:105100000E94AC1580E00E941616C82F81E00E9414
:105110001616D82F83E00E947C15AD2FB0E0BC2B73
:105120002AE030E00E942CA12CE030E040E050E08A
:105130000E9401A15F934F933F932F9386EC92E0DF
:105140009F938F9384E79FE09F938F930E94EAA49D
:105150008DB79EB708960FB6F8949EBF0FBE8DBF51
:10516000DF91CF910895ACE0B0E0E9EBF8E20C9468
:1051700048A1182F9BE0E0EBF2E0DE0111960190D0
:105180000D929A95E1F781E00E947C1582E00E94E1
:105190007C159E012F5F3F4F790137E1139FC001BE
:1051A000112400E010E0FC01E05EF94F5F019C017A
:1051B0002F5D394F49018EEE0E94AC15F7018191A8
:1051C0007F010E94AC1583E00E947C1582E00E9462
:1051D0007C158FEE0E94AC1580E00E941616682F99
:1051E0006501C00ED11EC6016C870E9416A76C8592
:1051F000861719F0C6010E942CA781E00E9416169E
:10520000682F6401C00ED11EC6016C870E9416A7CC
:105210006C85861719F0C6010E942CA70E5F1F4FE0
:105220000631110541F683E00E947C152C96ECE0D6
:105230000C9464A1A1E0B0E0E0E2F9E20C9444A196
:10524000782E81E00E947C1582E00E947C158CEE15
:105250000E94AC1582EF0E94AC1582E00E94AC1552
:1052600083E00E947C1581E00E947C1582E00E9410
:105270007C158CEE0E94AC1584EF0E94AC1587E281
:105280000E94AC1583E00E947C1581E00E947C1591
:1052900082E00E947C158CEE0E94AC1588E80E948A
:1052A000AC1583E00E947C1582E00E947C158DEE97
:1052B0000E94AC1527E1729EC0011124412C512C93
:1052C000612C44E1749E9001112489010B5E1C4FF6
:1052D000FC01EF5DF94F5F01A9014C5E5C4F7A0163
:1052E000FC01E05EF94F4F0180E00E941616682F26
:1052F000FBE06F1661F06501C40CD51CC601698323
:105300000E9416A76981861761F0C60108C0C8010E
:1053100069830E9416A76981861719F0C8010E9447
:105320002CA780E00E941616682F2BE0621661F011
:105330006401C40CD51CC60169830E9416A769814B
:10534000861761F0C60108C0C70169830E9416A7CD
:105350006981861719F0C7010E942CA7639432E077
:10536000430E511C4CE06412BFCF80E00E94161621
:1053700081E00E941616182F83E00E947C1581E0C0
:105380000E947C1582E00E947C158CEE0E94AC1578
:1053900080ED0E94AC1583E00E947C1582E00E94A3
:1053A0007C158DEE0E94AC1581E00E941616082F28
:1053B00083E00E947C15272D30E084E1003609F05F
:1053C0004FC0829F7001839FF00C1124C7018A5E39
:1053D0009C4F7C010E9416A7811721F0612FC70105
:1053E0000E942CA781E00E947C1582E00E947C151F
:1053F0008CEE0E94AC1581EE0E94AC1583E00E94F9
:105400007C1582E00E947C158DEE0E94AC1594E123
:10541000799E80011124C12CD12C095E1C4FE6E03D
:10542000CE1202C081E001C080E00E941616682FF3
:105430007801EC0CFD1CC70169830E9416A76981E5
:10544000861719F0C7010E942CA7FFEFCF1ADF0AB9
:1054500027E0C216D10419F783E00E947C1510C022
:10546000829F8001839F100D11240A5E1C4FC8018A
:105470000E9416A78F3F21F06FEFC8010E942CA752
:105480002196E0E10C9460A1A2E2B0E0EAE4FAE245
:105490000C9442A1082F262E81E00E947C1582E008
:1054A0000E947C158EEE0E94AC1584EF0E94AC1514
:1054B0008EE20E94AC1583E00E947C1582E00E947F
:1054C0007C1588E09DE30197F1F700C000008EEEA7
:1054D0000E94AC1586EF0E94AC1583E00E947C15FB
:1054E00082E00E947C158FEE0E94AC1580E00E9445
:1054F0001616182F81E00E941616C82E83E00E940F
:105500007C1597E1099FB0011124605E794F46E157
:1055100050E0CE0101960E9406A7298530E0322F87
:1055200022278A85282BD12CE12CF12CD12A8B859E
:1055300090E0982F88274C85842BC81AD90AE10857
:10554000F108A8EEB3E00E941DA1BFE095958795F4
:1055500077956795BA95D1F7A70196010E949DA00E
:1055600028EE33E040E050E00E9401A169017A0199
:105570006B8970E0762F66278C89682B882777FDEA
:105580008095982F0BE0660F771F881F991F0A954B
:10559000D1F70D8910E0102F00272E89022B9801DA
:1055A000442737FD4095542F2C0D3D1D4E1D5F1D8A
:1055B0000E9401A149015A018C0C9D1CAE1CBF1C0C
:1055C000A5019401285F3F4F4F4F5F4FAAE0B0E025
:1055D0000E9432A120E130E040E050E00E9401A1B1
:1055E00069017A0181E00E947C1582E00E947C15AD
:1055F0008EEE0E94AC1584EF0E94AC1584E70E94E9
:10560000AC1583E00E947C15A3EDB0E31197F1F790
:1056100000C0000082E00E947C158EEE0E94AC1556
:1056200086EF0E94AC1583E00E947C1582E00E9408
:105630007C158FEE0E94AC1580E00E941616182F84
:1056400080E00E941616082F81E00E941616382E60
:1056500083E00E947C15D501C401805A9F40A109B6
:10566000B1098F8B988FA98FBA8F9C01AD01BC01B6
:10567000CD010E949DA020E030E140E050E00E947A
:1056800001A12F8F38A349A35AA3898190E0982FB5
:1056900088272A81822B2C01662457FC6094762C63
:1056A00042E0440C551C661C771C4A95D1F7AF8527
:1056B000B0E0BA2FAA278889A82B2F8D38A149A13D
:1056C0005AA10E9432A120E038E040E050E00E9460
:1056D00001A149015A01AB81B0E0BA2FAA278C8100
:1056E000A82B2F89388D498D5A8D0E943CA120E02E
:1056F00038E040E050E00E9401A1820E931EA41EFB
:10570000B51E480C591C6A1C7B1C440C551C661C9D
:10571000771C92E0490E511C611C711C812E912C4A
:10572000A12CB12C54019924882410E020E030E011
:10573000322F212F102F0027800E911EA21EB31E84
:10574000830C911CA11CB11CA7E0B694A79497945C
:105750008794AA95D1F7C301B20124E030E040E07C
:1057600050E00E9401A1821A930AA40AB50AA8EA8D
:10577000B1E6A50194010E9432A1DC01CB01880FA2
:10578000991FAA1FBB1F8B8F9C8FAD8FBE8F0F8160
:1057900010E0102F00278885082BAD81B0E0BA2FCC
:1057A000AA278E81A82B2F89388D498D5A8D0E946A
:1057B0003CA120E030E240E050E00E9401A149011C
:1057C0005A01AD85B0E0BA2FAA278E85A82B2F8D60
:1057D00038A149A15AA10E943CA1412C512C32016F
:1057E0006394A30192010E9401A1820E931EA41E44
:1057F000B51E92E0890E911CA11CB11CC501B4011B
:1058000024E030E040E050E00E9401A130584F4FCA
:105810005F4FD8010E9432A120E030E840E050E024
:105820000E9401A16B8D7C8D8D8D9E8D0E94DFA0CD
:105830002F8B388F498F5A8FCA01B90120E031E090
:1058400040E050E00E9401A1CA01B9010E949DA060
:105850009B01AC01AEEDBBE00E9432A1A30192011D
:105860000E9401A149015A01A3E4B3EE2F89388DAA
:10587000498D5A8D0E943EA1A30192010E9401A16F
:10588000820E931EA41EB51EAFEC8A0EAEE09A1EC9
:10589000A11CB11CC501B40120E130E040E050E0A2
:1058A0000E9401A18F89988DA98DBA8D280F391F6B
:1058B0004A1F5B1FA0E1B7E20E9432A124E134E35A
:1058C00040E050E00E9401A1CA01B901A2E02A1201
:1058D0005FC0E4E68E2E912CA12CB12CA501940181
:1058E0000E9401A1F7FE33C09F938F937F936F9324
:1058F0005F934F933F932F93C701B601A501940186
:105900000E9401A19B0177FF04C022273327261B99
:10591000370B3F932F93C701B60124E630E040E0F8
:1059200050E00E9401A1C90137FF04C088279927D0
:10593000821B930B9F938F938AEC92E09F938F939C
:1059400084E79FE09F938F930E94EAA46BC09F938C
:105950008F937F936F935F934F933F932F93C701E1
:10596000B601A50194010E9401A19F938F937F939B
:105970006F935F934F933F932F9383EE92E09F93A8
:105980008F9384E79FE09F938F930E94EAA44AC07D
:10599000B1E02B122FC0C701B60124E630E040E091
:1059A00050E00E9401A1F7FE2BC09B0177FF04C0CD
:1059B00022273327261B370B3F932F93C701B601AE
:1059C00024E630E040E050E00E9401A1C90137FF29
:1059D00004C088279927821B930B9F938F938DEB8D
:1059E00092E09F938F9384E79FE09F938F930E9411
:1059F000EAA418C024E630E040E050E00E9401A193
:105A00009F938F937F936F935F934F933F932F93C6
:105A100084E093E09F938F9384E79FE09F938F931D
:105A20000E94EAA40FB6F894DEBF0FBECDBFA296C7
:105A3000E2E10C945EA1A1E3B0E0E1E2FDE20C94AE
:105A400042A1162FE82EF12C27E1829FB0011124EC
:105A5000605E794F46E150E0CE0101960E9406A7B4
:105A600084E18E9DB0018F9D700D11246C5E7C4F82
:105A70004AE050E0CE0147960E9406A781E00E94CE
:105A80007C1582E00E947C158CEE0E94AC1582E0B1
:105A90000E947C1587EF0E94AC1583E00E947C1564
:105AA00082E00E947C1588E09DE30197F1F700C039
:105AB00000008DEE0E94AC1580E00E9416168DA3AA
:105AC00080E00E941616082F80E00E9416168DA70F
:105AD00080E00E941616882E912CA12CB12C80E01B
