:100000000C94A2110C94B8220C94E4220C941023AA
:100010000C943C230C9468230C9494230C94C023DC
:100020000C94EC230C94C3110C94C3110C94C311C5
:100030000C94C3110C94C3110C94C3110C94C311F0
:100040000C94C3110C94C3110C94C3110C94C311E0
:100050000C94C3110C94C3110C9418240C94C31168
:100060000C94C3110C94C3110C94C3110C94C311C0
:100070000C94C3110C94C3110C94C3110C94C311B0
:100080000C94C3110C94C3110C94C3110C94C311A0
:100090000C94C3110C94C3110C94C3110C94C31190
:1000A0000C94C3110C94C3110C94C3110C94C31180
:1000B0000C94C3110C94C3110C94C3110C94C31170
:1000C0000C94C3110C94C3110C94C311F8130014B5
:1000D0000814101413142914131429143C2F613E0E
:1000E000004578742D494F002F3F70743D256426DC
:1000F00063663D313E00207C203C6120687265666D
:100100003D2F003C2F613E002F53434C002F5344A2
:100110004100493243004453002F4431002F443002
:100120000057323600414443004E4300202D20004A
:10013000290025640028003E50002564002F3F70F0
:10014000743D003C62723E3C6120687265663D2FE2
:10015000003C62723E2D2D2D003C62723E2D2D2002
:100160005850352F36202D2D002F3F63663D343EED
:100170005850323C2F613E3C62723E2D2D20585427
:1001800032202D2D002F3F63663D333E5850313CC9
:100190002F613E3C62723E3C6120687265663D2F75
:1001A000002F3F63663D313E436F6E6669673C2FAB
:1001B000613E3C62723E2D2D204D4F4453202D2D2B
:1001C0003C62723E3C6120687265663D2F00293CAE
:1001D00062723E3C6120687265663D2F00342E32AB
:1001E000326238004D656761442D32353631206208
:1001F00079203C6120687265663D687474703A2F9E
:100200002F61622D6C6F672E72753E61622D6C6F6F
:10021000672E72753C2F613E202866773A200032A7
:10022000202D2D0031202D2D003E4261636B3C2F8F
:10023000613E3C62723E2D2D20506F7274732058C7
:100240005000446F6E65003E002076616C75653D20
:10025000003C696E707574206E616D653D6B6579EB
:10026000004E2F4100383E4C617374206B65793A23
:1002700020003E003E20736C6176653A203C696E3A
:10028000707574206E616D653D7072732074797045
:10029000653D636865636B626F782076616C756538
:1002A0003D3120003E20636D643A203C696E7075DC
:1002B00074206E616D653D7072642076616C756549
:1002C0003D003E3D3C2F73656C6563743E20766156
:1002D0006C75653A203C696E707574206E616D6551
:1002E0003D7072762073697A653D332076616C7556
:1002F000653D003E3C3C6F7074696F6E2076616CAA
:1003000075653D33003E3E3C6F7074696F6E2076BC
:10031000616C75653D32003E4E3C6F7074696F6E66
:100320002076616C75653D31003E203C73656C65DF
:100330006374206E616D653D7072633E3C6F7074D6
:10034000696F6E2076616C75653D30003E69662090
:10035000706F72743A203C696E707574206E616DB6
:10036000653D7072702073697A653D332076616CEB
:1003700075653D0070726E2076616C75653D00316B
:10038000303E00656D707479002300393E003E00F8
:100390002076616C75653D003E204163743A203CD7
:1003A000696E707574206E616D653D63726E61007B
:1003B0002076616C75653D00543A203C696E70751D
:1003C00074206E616D653D63726E74003E003E2068
:1003D0005344413A203C696E707574206E616D65BE
:1003E0003D637364612076616C75653D003C6272AB
:1003F0003E5365742074696D653A203C696E707572
:1004000074206E616D653D7374696D653E3C62720A
:100410003E53434C3A203C696E707574206E616D9A
:10042000653D6373636C2076616C75653D00373E96
:100430004375722074696D653A2000223E3C6272F9
:100440003E737276206C6F6F703A203C696E7075E7
:100450007420747970653D636865636B626F7820A2
:100460006E616D653D736C2076616C75653D310024
:100470004D656761642D49443A203C696E7075741E
:10048000206E616D653D6D646964206D61786C6599
:100490006E6774683D352073697A653D35207661F5
:1004A0006C75653D2200323E003C62723E557074B0
:1004B000696D653A200057646F673A203C696E7039
:1004C0007574206E616D653D70722073697A653D4B
:1004D000332076616C75653D005363726970743AC0
:1004E000203C696E707574206E616D653D73637438
:1004F000206D61786C656E6774683D31352076617A
:100500006C75653D22003C62723E00646973636FE6
:100510006E6E656374656400636F6E6E65637465AB
:1005200064003E4D5154543C2F73656C6563743EBA
:1005300020003E485454503C6F7074696F6E2076B2
:10054000616C75653D310053525620547970653A9F
:10055000203C73656C656374206E616D653D7372DC
:1005600076743E3C6F7074696F6E2076616C756551
:100570003D300025642E25642E25642E25643A2501
:10058000753E3C62723E003E3C62723E5352563AA9
:10059000203C696E707574206E616D653D73697085
:1005A0002076616C75653D0047573A203C696E7056
:1005B0007574206E616D653D67772076616C756539
:1005C0003D25642E25642E25642E25640050776415
:1005D0003A203C696E707574206E616D653D707770
:1005E00064206D61786C656E6774683D3320766158
:1005F0006C75653D220049503A203C696E707574F7
:10060000206E616D653D6569702076616C75653D34
:1006100025642E25642E25642E256400313E00635A
:10062000662076616C75653D002F3E002F3F636646
:100630003D383E6942204B6579733C2F613E002F67
:100640003F63663D393E50726F6772616D3C2F614A
:100650003E002F3F63663D373E43726F6E3C2F6115
:100660003E002F3F63663D323E4D656761642D4914
:10067000443C2F613E002F3F63663D313E436F6E29
:100680006669673C2F613E003E4261636B3C2F61AF
:100690003E002F3F63663D31002F3F63663D3900CA
:1006A0003E4261636B3C2F613E3C62723E4D65672A
:1006B00061442069732072657374617274656400AB
:1006C000340033002F3F63663D002A002A00227D5C
:1006D000003B0026636D643D6C6973743E4465762F
:1006E000696365204C6973743C2F613E002F3F7035
:1006F000743D003E003C62723E44697370203C6968
:100700006E707574206E616D653D646973702073E1
:10071000697A653D322076616C75653D0026636DB2
:10072000643D7363616E3E493243205363616E3CA6
:100730002F613E002F3F70743D003E003C62723ED0
:10074000494E54203C696E707574206E616D653D34
:10075000696E74612073697A653D332076616C75CA
:10076000653D003E003C62723E46726571203C6908
:100770006E707574206E616D653D68737420736969
:100780007A653D332076616C75653D003E003C62C4
:10079000723E427269676874203C696E707574209D
:1007A0006E616D653D6873742073697A653D3320B1
:1007B00076616C75653D003E504341393638353CB5
:1007C0002F73656C6563743E003E4D435032333089
:1007D00058583C6F7074696F6E2076616C75653D1A
:1007E0003231003E535344313330363C6F707469BC
:1007F0006F6E2076616C75653D3230003E54534C0F
:10080000323539313C6F7074696F6E2076616C756A
:10081000653D34003E4248313735303C6F70746975
:100820006F6E2076616C75653D33003E4D415834E6
:10083000343030393C6F7074696F6E2076616C753E
:10084000653D32003E424D783238303C6F707469FD
:100850006F6E2076616C75653D37003E424D5031BC
:1008600038303C6F7074696F6E2076616C75653DD1
:1008700036003E4854553231443C6F7074696F6E97
:100880002076616C75653D35003E414E593C6F7078
:1008900074696F6E2076616C75653D31003C6272E3
:1008A0003E446576203C73656C656374206E616DB3
:1008B000653D643E3C6F7074696F6E2076616C7547
:1008C000653D30003E003C62723E53434C203C6923
:1008D0006E707574206E616D653D6D697363207314
:1008E000697A653D332076616C75653D003E534302
:1008F0004C3C2F73656C6563743E003E5344413C31
:100900006F7074696F6E2076616C75653D32003E64
:100910004E433C6F7074696F6E2076616C75653DF7
:1009200031003C62723E4D6F6465203C73656C65BE
:100930006374206E616D653D6D3E3C6F7074696FD0
:100940006E2076616C75653D30003E003C62723E03
:100950004431203C696E707574206E616D653D6D2B
:100960006973632073697A653D332076616C7565C0
:100970003D003E44313C2F73656C6563743E003E20
:1009800044303C6F7074696F6E2076616C75653DA4
:1009900032003E4E433C6F7074696F6E2076616C1E
:1009A00075653D31003C62723E4D6F6465203C735D
:1009B000656C656374206E616D653D6D3E3C6F7066
:1009C00074696F6E2076616C75653D30003E5732FC
:1009D000363C2F73656C6563743E003E69423C6F24
:1009E0007074696F6E2076616C75653D36003E31BE
:1009F000574255533C6F7074696F6E2076616C7509
:100A0000653D34003E31573C6F7074696F6E2076DF
:100A1000616C75653D35003E44485432323C6F7020
:100A200074696F6E2076616C75653D33003E444895
:100A30005431313C6F7074696F6E2076616C7565EE
:100A40003D32003C62723E53656E203C73656C65BE
:100A50006374206E616D653D643E3C6F7074696FB8
:100A60006E2076616C75653D310020636865636B4F
:100A700065643E203C696E707574206E616D653DE5
:100A80006D322073697A653D332076616C75653D02
:100A9000003E486967683C2F73656C6563743E3C33
:100AA00062723E536D6F6F7468203C696E7075742E
:100AB00020747970653D636865636B626F78206E42
:100AC000616D653D6D6973632076616C75653D315F
:100AD000003E4C6F773C6F7074696F6E2076616C6E
:100AE00075653D32003E4E6F726D3C6F7074696F7C
:100AF0006E2076616C75653D31003C62723E4672D7
:100B00006571203C73656C656374206E616D653D35
:100B100066723E3C6F7074696F6E2076616C7565AD
:100B20003D30003E003C62723E47726F7570203C63
:100B3000696E707574206E616D653D6772702073AB
:100B4000697A653D322076616C75653D003E44539F
:100B5000323431333C2F73656C6563743E003E5311
:100B600057204C494E4B3C2F6F7074696F6E3E3C62
:100B70006F7074696F6E2076616C75653D32003CF4
:100B80006F7074696F6E2076616C75653D33003EE1
:100B900050574D003C6F7074696F6E2076616C75B4
:100BA000653D31003E5357003C62723E4D6F6465B7
:100BB000203C73656C656374206E616D653D6D3EB0
:100BC0003C6F7074696F6E2076616C75653D3000A6
:100BD0003E313C2F73656C6563743E003E303C6F64
:100BE0007074696F6E2076616C75653D31003C7381
:100BF000656C656374206E616D653D643E3C6F702D
:100C000074696F6E2076616C75653D30003C696E6D
:100C1000707574206E616D653D642073697A653D01
:100C200033206D61786C656E6774683D3320766142
:100C30006C75653D003C62723E44656661756C741E
:100C40003A20003C62723E526177203C696E7075BA
:100C50007420747970653D636865636B626F78209A
:100C60006E616D653D642076616C75653D31002077
:100C70003C696E70757420747970653D6368656356
:100C80006B626F78206E616D653D6D697363207670
:100C9000616C75653D31003E433C2F73656C656347
:100CA000743E003E523C6F7074696F6E2076616CCA
:100CB00075653D33003E5026523C6F7074696F6E0F
:100CC0002076616C75653D32003E503C6F707469F2
:100CD0006F6E2076616C75653D31003C62723E4DF1
:100CE0006F6465203C73656C656374206E616D652F
:100CF0003D6D3E3C6F7074696F6E2076616C7565FA
:100D00003D3000223E203C696E707574207479700D
:100D1000653D636865636B626F78206E616D653DEC
:100D20006E61662076616C75653D31002F003A2555
:100D3000750025642E25642E25642E2564003E3C16
:100D400062723E4E6574203C696E707574207369E2
:100D50007A653D3332206E616D653D65746820763D
:100D6000616C75653D2200223E203C696E70757491
:100D700020747970653D636865636B626F78206E7F
:100D8000616D653D61662076616C75653D31003C45
:100D900062723E416374203C696E707574206E61AE
:100DA0006D653D65636D642076616C75653D2200FF
:100DB0003E3C62723E487374203C696E70757420CC
:100DC0006E616D653D6873742076616C75653D007C
:100DD0003E3C3E3C2F73656C6563743E3C62723EE4
:100DE00056616C203C696E707574206E616D653D56
:100DF0006D6973632073697A653D342076616C7523
:100E0000653D003E3C3C6F7074696F6E2076616C8E
:100E100075653D33003E3E3C6F7074696F6E2076A1
:100E2000616C75653D32003E4E6F726D3C6F707443
:100E3000696F6E2076616C75653D31004D6F64653C
:100E4000203C73656C656374206E616D653D6D3E1D
:100E50003C6F7074696F6E2076616C75653D300013
:100E60003C2F73656C6563743E003E414443003C17
:100E70006F7074696F6E2076616C75653D32003EEF
:100E8000493243003E4453656E3C6F7074696F6E27
:100E90002076616C75653D34003E4F75743C6F7013
:100EA00074696F6E2076616C75653D33003E496EE6
:100EB0003C6F7074696F6E2076616C75653D3100B2
:100EC0003E4E433C6F7074696F6E2076616C756541
:100ED0003D300054797065203C73656C6563742007
:100EE0006E616D653D7074793E3C6F7074696F6EB4
:100EF0002076616C75653D32353500706E20766107
:100F00006C75653D002F3E003C62723E3C6120687E
:100F10007265663D2F25732F3F70743D25642665ED
:100F200078743D25643E5025643C2F613E003C6250
:100F3000723E2D2D20506F727473204578742028D6
:100F40005043413936383529202D2D003C62723E00
:100F50003C6120687265663D2F25732F3F70743D9C
:100F60002564266578743D25643E502564202D2037
:100F70000029202D2D003038003137003C62723EB0
:100F80002D2D20506F7274732045787420284D43A6
:100F900050323330002F00222C22636E74223A220A
:100FA000002F0068756D3A002F0074656D703A006F
:100FB000203C696E70757420747970653D7375623C
:100FC0006D69742076616C75653D7365743E3C2F68
:100FD000666F726D3E0050574D3A203C696E7075D9
:100FE00074206E616D653D6570776D2076616C75FE
:100FF000653D25642073697A653D333E00657874EC
:101000002076616C75653D25643E007074207661C4
:101010006C75653D25643E002F3E003E4F75743C67
:101020002F73656C6563743E003E496E3C6F70744F
:10103000696F6E2076616C75653D3100547970651D
:10104000203C73656C656374206E616D653D6574ED
:10105000793E3C6F7074696F6E2076616C75653D8A
:1010600030006578742076616C75653D25643E00BE
:1010700070742076616C75653D25643E002F3E00DE
:101080003C2F613E2000303E003C2F613E2000316D
:101090003E003C6120687265663D2F25732F3F70CE
:1010A000743D2564266578743D256426636D643D32
:1010B00025646525643A002F003A303E4F46463C91
:1010C0002F613E3C62723E004200410026636D6427
:1010D0003D002F3F70743D003A313E4F4E3C2F6132
:1010E0003E203C6120687265663D2F004200410051
:1010F00026636D643D002F3F70743D00423A20002E
:10110000413A20002F004E412F4E41002F003E203B
:101110003C696E70757420747970653D7375626D8D
:1011200069742076616C75653D6368616E67653EC4
:101130003C2F666F726D3E003E50574D2028302D7B
:10114000323535293A203C696E707574206E616DB8
:10115000653D70776D2073697A653D332076616CEB
:1011600075653D0070742076616C75653D002F3E9D
:10117000003C62723E3C666F726D207374796C65E0
:101180003D646973706C61793A696E6C696E652053
:10119000616374696F6E3D2F00504341004D4350B1
:1011A000003C62723E003C62723E6C75783A003CD4
:1011B00062723E6C75783A003C62723E6C75783AA9
:1011C0000074656D703A002F68756D3A0074656D36
:1011D000703A002F003E4261636B3C2F613E3C62DF
:1011E000723E500034003300312670743D002F3FB2
:1011F00063663D003B003A006275737900446F6E90
:10120000650026616C6C3D006D6469643D003F00C3
:10121000485454502F312E302034303120556E61D7
:101220007574686F72697A65640D0A0D0A556E618E
:101230007574686F72697A65640054727920687495
:1012400074703A2F2F69702F707764002F002F0071
:101250002F002F002F002F005025643A2000495006
:101260003A202564202E202564202E202564202E5F
:1012700020256400485454502F312E302032303015
:10128000204F4B0D0A436F6E74656E742D54797048
:10129000653A20746578742F68746D6C0D0A50720D
:1012A00061676D613A206E6F2D63616368650D0A39
:1012B0000D0A002892A5ACAFA5E0290082EBAAABED
:1012C0000082AAAB202020004F4646004F4E004926
:1012D0004E004F555400223E3C62723E003E3C623E
:1012E000723E003C62723E00207C203C61206872AD
:1012F00065663D2F003C6120687265663D2F003EAB
:101300000020636865636B6564003C696E7075748A
:1013100020747970653D68696464656E206E616DE6
:10132000653D003C62723E3C696E70757420747954
:1013300070653D7375626D69742076616C75653D8D
:10134000536176653E3C2F666F726D3E003C666F62
:10135000726D20616374696F6E3D2F002073656C40
:101360006563746564001600000000000000000062
:10137000000000000000000000000000000000006D
:101380000000000000000016580000000016B00029
:10139000070801000000162401167C0116D401166E
:1013A0002C0216840216DC02163403168C0316E493
:1013B00003163C040F94040000000000000000002D
:1013C000000000000000000000000000000000001D
:1013D000000000000000000000000000000000000D
:1013E00000000000000000000000000000000000FD
:1013F00000000000000000000000000000000000ED
:1014000000000000000000000000000000000000DC
:1014100000000000003E0000003E0000003E000012
:10142000003E0000003E0000003E0000003E0000C4
:10143000003E0000FEFF1F00FEFF1F00FEFF1F001A
:10144000FEFF1F00003E0000003E0000003E0000C6
:10145000003E0000003E0000003E0000003E000094
:10146000003E00000000000000000000000000003E
:10147000000000000000000000000000000000006C
:101480000000000000000000003E0000003E0000E0
:10149000003E0000003E0000003E0000003E000054
:1014A000003E0000003E0000003E0000003E000044
:1014B000003E0000003E0000003E0000003E000034
:1014C0000000FE000000FE000000FE000000FE0024
:1014D0000000FE000000FE000000FE00F0FF000023
:1014E000FEFF0700FFFF0FC0FFFF3FC0FFFF3FE011
:1014F000FFFF7FE0FFFF7FF00F00FFF00300FCF035
:101500000100F8F00100F8F00100F8F00100F8F037
:101510000300FCF00F00FFE0FFFF7FE0FFFF7FC054
:10152000FFFF3FC0FFFF3F00FFFF0F00FEFF070070
:10153000F0FF0000000000000000000000000000BC
:101540001E00F8001E00F8001E00F8001E00F80043
:101550001F00F8001F00F8C0FFFFFFE0FFFFFFE0E3
:10156000FFFFFFE0FFFFFFE0FFFFFFE0FFFFFFE007
:10157000FFFFFF000000F8000000F8000000F80086
:101580000000F8000000F8000000F8000000000073
:101590000000F8C00F00F8E00700FCE00700FEE0E4
:1015A0000300FFF00380FFF001C0FFF001C0FFF077
:1015B00001E0FFF001F0FFF001FCFBF003FEF9F0A9
:1015C00087FFF8F0FF7FF8E0FF7FF8E0FF3FF8C00B
:1015D000FF1FF8C0FF07F880FF03F800FE00F800C7
:1015E0000000F800000000000000000000003FC004
:1015F0000F007EE007007EE003007CE00300FCF0CB
:101600000100F8F0810FF8F0810FF8F0810FF8F089
:10161000810FF8F0810FF8F0C30FFCF0FF1FFEF010
:10162000FFFF7FE0FFFF7FE0FFFD7FC0FFFC3F800B
:101630007FFC1F001FF80F0000E0030000F0030014
:1016400000F8030000FE030000FF030080FF03001A
:10165000E0EF0300F0E70300F8E10300FEE0030021
:101660007FE003C01FE003E00FE003E0FFFFFFE0C7
:10167000FFFFFFE0FFFFFFE0FFFFFFE0FFFFFFE0F6
:10168000FFFFFFE0FFFFFF0000E0030000E00300BA
:1016900000E003000000000000003FE0FF0F7EE0DC
:1016A000FF0F7EE0FF0F7CE0FF07FCE0FF07F8E0A4
:1016B000FF07F8E0FF07F8E0C307F8E0C307F8E02A
:1016C000C307F8E0C30FFCE0C30FFCE0C31FFEE05C
:1016D000C3FF7FE083FF7FE083FF3FE003FF3FE046
:1016E00003FF1FE003FE0F0000F80300C0FF00002F
:1016F000F8FF0700FCFF0F00FFFF1F80FFFF3F8088
:10170000FFFF7FC0FFFF7FE09F03FFE0C703FCE018
:10171000C703F8F0E303F8F0E103F8F0E103F8F0B1
:10172000E107FCF0E10FFEF0E1FF7FF0E1FF7FF069
:10173000C1FF3FF0C3FF3FF083FF1F0000FF070022
:1017400000FC0100000000E0030000E0030080E076
:101750000300E0E00300F0E00300FCE00300FFE032
:1017600003C0FFE003F0FFE003F8FFE003FE7FE0CB
:1017700083FF1FE0E3FF0FE0F3FF03E0FFFF00E064
:10178000FF3F00E0FF0F00E0FF0300E0FF0100E08B
:101790007F0000E01F0000E00700000000C007001D
:1017A0003EF01F80FFF83FC0FFF93FC0FFFD7FE024
:1017B000FFFF7FE0FFFFFFF0FF1FFEF0E307FCF0FD
:1017C000C10FF8F0C10FF8F0C10FF8F0811FF8F069
:1017D000831FFCF0FF3FFCE0FFFF7FE0FFFF7FE0A7
:1017E000FFFE7FC0FFFC3F807FFC1F001FF80F0043
:1017F00000E00700FC010000FF070080FF0FFCC0B5
:10180000FF1FFCC0FF1FF8E0FF3FF8E0FF3FF8F0CC
:10181000873FF8F0033FF8F0013EF8F0013EFCF09E
:10182000013EFCF0011E7EF0031E7FF00FCE7FE034
:10183000FFFF3FE0FFFF1FC0FFFF1FC0FFFF0F00C4
:10184000FFFF0300FEFF0000F01F00003E000080CD
:10185000FF0000C0FF0100E0FF0300E0E30300F031
:10186000C10700F0800700F0800700F0800700F05B
:10187000C10700E0E30300E0FF0300C0FF010080B8
:10188000FF0000003E000001000003020008080005
:101890000618000B2400083A00014A00044C00041A
:1018A0005400055C000766000274000578000182A0
:1018B00000068400069000059C0006A60006B20003
:1018C00007BE0006CC0006D80006E40006F00006BD
:1018D000FC00010801020A01070E01071C01072A8A
:1018E000010538010B420107580106660107720124
:1018F000078001068E01069A0107A60107B40103BD
:10190000C20105C80106D20106DE0109EA0107FC91
:1019100001080A02061A02082602073602074402D4
:10192000075202076002076E020B7C020792020751
:10193000A00207AE0203BC0206C20203CE0209D413
:101940000208E60202F60206FA020606030612037F
:10195000061E03062A03053603064003064C030150
:101960005803045A03056203016C03096E030680E1
:1019700003068C0306980306A40304B00305B8030A
:1019800004C20306CA0306D60309E20305F40306EC
:10199000FE03050A04051404011E04052004082A98
:1019A00004063A04074604065404066004066C0460
:1019B000097804068A040B960406AC0407B80407E9
:1019C000C60406D40409E00409F204070405081259
:1019D00005072205063005073C05074A0507580597
:1019E0000966050778050886050796050BA4050C0A
:1019F000BA0509D2050AE40506F8050704060B1224
:101A000006072806063606064206064E06055A064C
:101A1000076406067206097E06059006069A060603
:101A2000A60606B20607BE0607CC0606DA0606E6D6
:101A30000606F20606FE06060A0705160706200732
:101A4000092C07053E070748070656070962070ADB
:101A5000740707880707960705A40706AE0709BAA3
:101A60000706CC0706D8071BF000780000007802B4
:101A7000000E4003C002700E4003C0027000401010
:101A8000C011207FF8122012200C2000E00110115C
:101A900010091006E001000EC01120111011000EF7
:101AA000000EE01110111011100AE00C00120011CC
:101AB0000000780F803060401080088008401030AF
:101AC000600F800050002000F8002000500100014D
:101AD0000001000FE001000100010040003800019A
:101AE000000100010001000100180060001800065C
:101AF000000180006000180FE0101010101010108E
:101B0000100FE0102010201FF010001000186014BB
:101B10001012101210111010E008201010111011E6
:101B20001011100EE003000280024002201FF0029C
:101B3000000200080011F01110111011100E100F0A
:101B4000C010A01090109010900F00001000101CFA
:101B500010031000D000300EE01110111011101100
:101B6000100EE001E01210121012100A1007E01817
:101B7000C0400038C0020005000500088008801041
:101B800040104004800480048004800480048004A9
:101B90008010401040088008800500050002000009
:101BA0002000101B10009000600F80104020204F7C
:101BB000905050505050505FD0102010400F80185F
:101BC00000070004C0043004C0070018001FF01113
:101BD000101110111011E00E0007C0082010101095
:101BE000101010101008201FF010101010101010FE
:101BF00010082007C01FF011101110111011101142
:101C0000101FF00110011001100110001007C00892
:101C10002010101010121012101E201FF0010001D1
:101C2000000100010001001FF010101FF010101043
:101C3000001000101010100FF01FF00100028004BF
:101C400040082010101FF0100010001000100010AD
:101C5000001FF0003000C003000C00030000C000B3
:101C6000301FF01FF0003000C00100060018001FF8
:101C7000F007C008201010101010101010082007D6
:101C8000C01FF0021002100210021001E007C0088D
:101C9000201010101010103010482047C01FF00204
:101CA0001002100210051008E0100008E0111011D9
:101CB000101110111011100E200010001000101F34
:101CC000F000100010001007F008001000100010C5
:101CD00000080007F00070018006001800060001EF
:101CE00080007000F007001800060001C0003001FD
:101CF000C006001800070000F01830044002800100
:101D0000000280044018300010006001801E0001B5
:101D10008000600010181014101210111010901094
:101D20005010307FF840084008001800600180061D
:101D30000018006000400840087FF80100008000A3
:101D400040002000100020004000800100400040C2
:101D500000400040004000400040004000000800FB
:101D6000100C0012401240124012401F801FF81049
:101D7000801040104010400F800F80104010401025
:101D800040104008800F8010401040104008401F55
:101D9000F80F8012401240124012400B8000401F8A
:101DA000F00048004800080F809040904090408824
:101DB000407FC01FF800800040004000401F801F8F
:101DC000C88000800080407FC81FF802000500081E
:101DD0008010401FF81FC00080004000401F80009E
:101DE00080004000401F801FC00080004000400075
:101DF000401F800F8010401040104010400F80FFA7
:101E0000C010801040104010400F800F8010401014
:101E10004010400840FFC01FC0008000400040113B
:101E2000801240124012400C4000400FF010401051
:101E3000400FC010001000100008001FC000C007B5
:101E40000018001800070000C000C00700180007B5
:101E50000000C007001800070000C018C0050002FD
:101E600000050018C000C0870078001800070000B7
:101E7000C0184014401240114010C0010001003E43
:101E8000F0400840087FF8400840083EF00100019B
:101E90000003000080008001000100020002000138
:101EA000801FF011141110111011141110180007D7
:101EB0000004C0043004C0070018001FF011101106
:101EC00010111011100E001FF0111011101110112F
:101ED000E00E001FF0001000100010001000107045
:101EE000001800170010F01010101010101FF070E4
:101EF000001FF01110111011101110111010100806
:101F00001004E0030001001FF00100030004E008DA
:101F1000101010082010101110111011100EE01FD9
:101F2000F008000600010000C000201FF01FF008AC
:101F3000020604010400C400221FF01FF001000388
:101F40000004E008101010100010000FF000100046
:101F5000100010001000101FF01FF0003000C00330
:101F6000000C00030000C000301FF01FF001000152
:101F7000000100010001001FF007C0082010101030
:101F80001010101010082007C01FF00010001000E3
:101F900010001000101FF01FF002100210021002BB
:101FA0001001E007C00820101010101010101008C9
:101FB000200010001000101FF00010001000101082
:101FC0003010C013000C00030000C0003003800478
:101FD00040082008201FF008200820044003801833
:101FE000300440028001000280044018301FF010CD
:101FF0000010001000100010001FF0700001F0022F
:102000000002000200020002001FF01FF01000108A
:1020100000100010001FF010001000100010001F32
:10202000F01FF010001000100010001FF010001042
:1020300000100010001FF070000010001000101FB2
:10204000F011001100110011000E001FF01100111D
:10205000001100110011000E00000000001FF01F11
:10206000F011001100110011000E000820111011D4
:102070001011101110092007C01FF0010001000706
:10208000C008201010101010101010082007C010E9
:102090000009E006100210021002101FF00C0012DE
:1020A000401240124012401F800FE01050104810A4
:1020B0004810480F881FC012401240124012400DB5
:1020C000801FC0004000400040004070001C001312
:1020D000C0104010401FC070000F8012401240120C
:1020E0004012400B8010400840058002001FC002D3
:1020F0000005800840104008801240124012400D38
:10210000801FC004000200010000801FC01FC00427
:10211000080210011000881FC01FC0020002000545
:102120008008401040100010000FC0004000400028
:10213000401FC01FC0008001000600010000801F7A
:10214000C01FC002000200020002001FC00F80106A
:10215000401040104010400F801FC0004000400061
:102160004000401FC0FFC010801040104010400FC2
:10217000800F801040104010401040088000400048
:10218000401FC00040004000C087007800180007D2
:102190000000C00F80104010401040FFF8104010A9
:1021A0004010400F8018C005000200050018C01F35
:1021B000C010001000100010001FC0700003C00409
:1021C000000400040004001FC01FC0100010001015
:1021D000001FC01000100010001FC01FC010001012
:1021E0000010001FC01000100010001FC070000081
:1021F0004000401FC01100110011000E001FC0114F
:1022000000110011000E0000001FC01FC0110011BE
:102210000011000E00088010401240124012400FC2
:10222000801FC0020002000F8010401040104010BC
:10223000400F8011800A400640024002401FC00F3C
:102240008012501240124012500B802F636D6400B8
:102250004D5149736470000D0A436F6E74656E745E
:102260002D547970653A206170706C69636174698E
:102270006F6E2F782D7777772D666F726D2D757253
:102280006C656E636F6465640D0A0D0A00436F6EC2
:1022900074656E742D4C656E6774683A20000D0A83
:1022A000557365722D4167656E743A207467722F9D
:1022B000312E310D0A4163636570743A202A2F2A4A
:1022C0000D0A436F6E6E656374696F6E3A20636CBE
:1022D0006F73650D0A000D0A0020485454502F31C9
:1022E0002E310D0A486F73743A2000504F5354201A
:1022F000000D0A557365722D4167656E743A206D45
:10230000656761640D0A4163636570743A207465A2
:1023100078742F68746D6C0D0A0D0A0020485454AF
:10232000502F312E310D0A486F73743A2000474503
:10233000542000000108000604000145000082004E
:102340000040002011241FBECFEFD1E2DEBFCDBF81
:1023500000E00CBF17E0A0E0B2E0E6E9FEE501E036
:102360000BBF02C007900D92A836B107D9F721E143
:10237000A8E6B7E001C01D92AC35B207E1F70E94B4
:1023800043360C9449AF0C94000010925D091092F2
:102390005C098FEF8093200208950F931F93CF93D2
:1023A000DF93EB0140E350E0BC0187E490E10E9441
:1023B0009AAB61EC72E087E490E10E943EAB109230
:1023C0007F1020917F102430C8F40097B9F08E015F
:1023D000020F111D4AE050E060E070E00E94F7A992
:1023E000F801608380917F108F5F80937F1061EC94
:1023F00072E080E090E00E943EABE3CF822FDF915D
:10240000CF911F910F910895613049F4DA01E1E70E
:10241000F2E08D91819382E0E737F807D1F70895D4
:10242000623049F4DA01E3E6FFE08D9181938FE0B9
:10243000E936F807D1F70895E091E00FF091E10F48
:10244000908121E030E0082E01C0220F0A94EAF7C3
:10245000922B90830895E091DA0FF091DB0F2081A9
:1024600081E090E00090190202C0880F991F0A9441
:10247000E2F7282B2083089570E0DC0111964C913F
:10248000119750E09B01225031094217530799F4EC
:102490001696EC9163507109F0E0E617F7075CF4CB
:1024A000E80FF91F8781805A843028F49285915073
:1024B00081E0943008F080E00895FC01CB01208198
:1024C0002033E1F42481211119C025812430B1F495
:1024D000DB010D900020E9F7AD0141505109461B89
:1024E000570B268130E04217530741F4BF01695F63
:1024F0007F4F0E948CAB21E0892B09F020E0822FD6
:102500000895FC013681E30FF11D978180E6890F64
:10251000823078F42285E20FF11D8189803349F4FD
:1025200081E1830F820FFB018083903A21F481E0E7
:10253000089580E0089582E0089542E0242F30E07D
:10254000662341F0FC01E20FF31F21812E5F420F51
:102550006150F4CF820F931F0895FF920F931F9342
:10256000CF93DF93EC0188818033C1F4098180E04F
:1025700010E09EEFF92E202F30E0281B3109233088
:10258000310554F09F2D981B090F612FCE01D5DF27
:10259000FC0181811F5FEFCF812F01C080E0CDB7AB
:1025A000DEB7E5E00C94B8A8CF93DF93EA01C5DF6E
:1025B000FC0183819581963079F49681913061F4A4
:1025C0008350883048F43796DE01982F992329F0FC
:1025D00021912D939150FACF80E0DF91CF91089512
:1025E000A4E0B0E0E6EFF2E10C949EA819821A8212
:1025F0001B821C8224E0298321E02A832AE22B8388
:10260000FC01DE01119620E030E0462F50E0241757
:1026100035075CF411917D91711768F0171768F018
:102620002F5F3F4F2330310591F7643030F0FC01CC
:1026300083818F5F03C08FEF01C080E02496E3E0C9
:102640000C94BAA8A8E0B0E0E8E2F3E10C9499A8F1
:102650007C01C62E8A01D12CDC1491F0AE014F5FB3
:102660005F4F6D2DC701A0DF682FCE010196B8DF47
:10267000F80181938F01D394883070F38D2D01C0C0
:1026800080E02896E8E00C94B5A8A8E0B0E0EBE480
:10269000F3E10C9499A87C01C62E8A01D12CDC149C
:1026A000E9F0AE014F5F5F4F6D2DC7017DDFFE0189
:1026B000E80FF11D9081F80191938F01D39484303C
:1026C00079F48981843061F48A81813049F48B8185
:1026D0008A3231F48C81883010F302C080E001C06E
:1026E0008D2D2896E8E00C94B5A8DC011696EC91A7
:1026F0001697F0E0AE0FBF1F22EA17962C9317979C
:102700001A962C91E20FF11DE80FF91F6587408B97
:102710000895EF920F931F93CF93DF93FC0180E313
:10272000808386E0828393E0940F93839BE294837B
:10273000858381E08683EF012796DB01460F8A2F90
:10274000861B4A1719F08D918993F9CFEF01C80FB5
:10275000D11D2F83E886875FD80120E030E0AF01EC
:10276000480F511DE21641F09D91EA01C20FD31F9F
:1027700098832F5F3F4FF6CF8E0D9EEF980F91837A
:10278000DF91CF911F910F91EF900895A6E0B0E0F7
:10279000ECECF3E10C9491A86C01F62E3A0184E084
:1027A000898381E08A838AE28B831C82512C412CAD
:1027B000822E912CA62EB12C82E0A80EB11C852D64
:1027C000992787FD9095881599050CF055C0F30160
:1027D000E80FF91F40814C8350E04830510508F064
:1027E00049C0FA01EA59FF4F042D10E00C9464A887
:1027F000C501800F911F3AE0E32E03EC12E027C0E1
:10280000C501800F911FEE24E3940AE617E029C06A
:10281000C501800F911FEE24E3940EE012E021C069
:102820006EEC72E002C065ED72E08AE39BE00E940C
:1028300085ABEAE3FBE001900020E9F73197EA532A
:10284000FB40C501800F911FEE2E0AE31BE024E040
:1028500009C0C501800F911F22E0E22E8E010B5F9F
:102860001F4F22E044E0BE016F5F7F4F8C0D9D1D26
:1028700050DF480E5394A3CFF601EF0DF11D4182B6
:10288000842D8F0DF60181839681E90FF11D92EA67
:1028900097839285965F940D90878E5F2696E0E1F0
:1028A0000C94ADA8CF93C82F69ED72E084EF90E14E
:1028B0000E9485AB9091B1109F5F923038F061EB30
:1028C00070E184EF90E10E9485AB18C080917E0298
:1028D0001F928F9324EF30E13F932F9340EE52E00D
:1028E0005F934F933F932F930E9437AC8DB79EB762
:1028F00008960FB6F8949EBF0FBE8DBFCF3FB1F0C4
:102900001F92CF9384EF90E19F938F9325EE32E057
:102910003F932F939F938F930E9437AC8DB79EB7B1
:1029200008960FB6F8949EBF0FBE8DBFCF91089545
:10293000F894E091DA0FF091DB0F908121E030E024
:1029400001C0220F8A95EAF7322F309593239083A6
:10295000E091E00FF091E10F8081822B80838BED7D
:1029600095E00197F1F700C00000E091E00FF091D1
:10297000E10F808183238083EAEDF0E03197F1F766
:1029800000C0E091DA10F091DB108081E1E0F5E029
:102990003197F1F7789482230895F894E091DA0F53
:1029A000F091DB0F408121E030E0062E01C0220FC4
:1029B0000A94EAF7922F909549234083E091E00F23
:1029C000F091E10F3081322B308329E22A95F1F723
:1029D00000C0882339F0E091E00FF091E10F808191
:1029E0008923808385EE8A95F1F70000E091E00F5E
:1029F000F091E10F80818923808378940895F89481
:102A0000E091DA0FF091DB0F908121E030E0082EA9
:102A100001C0220F0A94EAF7322F30959323908356
:102A2000E091E00FF091E10F9081922B908394E080
:102A30009A95F1F70000E091E00FF091E10F90819D
:102A4000932390839AE39A95F1F70000E091DA10CE
:102A5000F091DB1020819BEB9A95F1F700C0789400
:102A600030E002C0359527958A95E2F7822F817074
:102A700008951F93CF93DF93D82F162FC9E0C1502D
:102A800031F0612F8D2F817088DFD695F8CFDF91DF
:102A9000CF911F9108951F93CF93DF93182FD9E003
:102AA000C0E0D15049F0812FAADF20E8829FC00109
:102AB0001124C695C82BF5CF8C2FDF91CF911F9194
:102AC0000895EF92FF920F931F93CF93DF93182FE8
:102AD000F62EEA01E22E2CDF811163C0612FF11086
:102AE00003C08CECC6DF09C085E5C3DF00E0612FC1
:102AF0008991BFDF0F5F0830D1F7612F8EEBB9DF0F
:102B0000812FC9DFC82F812FC6DFD82FF11012C047
:102B1000812F0EDF612F8CECACDF612F84E4A9DF05
:102B2000EE2DF0E0EE0FFF1FE65FFE4E2BE930E0EA
:102B300031832083E091E00FF091E10F908121E05B
:102B400030E0012E01C0220F0A94EAF7922B908305
:102B5000E091DA0FF091DB0F9081922B9083EC2FB4
:102B6000E295EF702D2F277080E1289F90011124AE
:102B7000E22BCF7041E752E0C49FC001C59F900D8A
:102B80001124D7FF03C0EF578051974264E670E0ED
:102B90000E9413A8CB0124E6E202800D911D1124AE
:102BA00002C088EC92E3CDB7DEB7E6E00C94B7A89C
:102BB00098E02CE8362F3827869530FD82276695D9
:102BC0009150C1F70895A1E0B0E0E9EEF5E10C9471
:102BD00099A8F82E6983ACDE6981662301F16F2D17
:102BE00085E547DF6F2D8AE344DF6AE380E0E0DFBD
:102BF000E82E54E5C52E5FE0D52E86016F2DF60137
:102C000081916F0136DFF80160818E2DD1DFE82ED2
:102C1000FAE5CF16FFE0DF0681F76F2D02C06F2DBA
:102C20008CEC27DF6F2D85EF24DF04E08F2D33DF61
:102C3000182F1F7082958F70482F50E0212F30E0A1
:102C4000209530952F7033274217530711F400E079
:102C500003C0015059F70FEF8F2D6ADE0F3F09F4C3
:102C60001FEF812F2196E8E00C94B5A8A0E0B0E01A
:102C7000ECE3F6E10C9497A8F82EB42E862F8C6F17
:102C8000E82E64E0D62EA82EA0948F2D51DE6F2D55
:102C9000BB20D1F085E5EDDE6F2D8AE3EADE6AE345
:102CA00080E086DFC82EC4E5DFE08E016F2D8991BC
:102CB000E0DEF80160818C2D7BDFC82EFFE0CA3595
:102CC000DF0799F76F2D01C08CECD3DE6F2D8AE5FD
:102CD000D0DE6F2D8E2DCDDE6F2D8A2DCADE8F2D8D
:102CE000DADEC82F8F2DD7DECA3A19F0DA9409F050
:102CF000CCCF8F2D1DDECDB7DEB7EAE00C94B3A8A4
:102D000044E752E160E070E083E59BE00C94C98BFE
:102D1000DC012C912F3229F5FC01319680E0BF01B6
:102D20009191903231F09F3221F0BF018F5F863058
:102D3000B1F790E0681B790BECE5FFE0DF010D9047
:102D40000020E9F7AD01415051094C555F4048174B
:102D5000590739F4CF010E948CAB892B11F481E023
:102D600008958FEF08958234A1F4673019F48CE848
:102D700090E01FC0663019F48AE890E01AC0653010
:102D800019F488E890E015C06430B9F483EB90E062
:102D900010C0853491F4633019F488E990E009C0DB
:102DA000643019F48AE990E004C0653031F48CE9AC
:102DB00090E090937810809377100895863419F4FA
:102DC00081E390E01DC0853419F48EE290E018C0D4
:102DD000823419F485E290E013C0873419F484E357
:102DE00090E00EC0843419F48BE290E009C0813485
:102DF00019F482E290E004C0833431F488E290E078
:102E00009093DE108093DD100895863479F481E389
:102E100090E09093DB0F8093DA0F80E390E0909343
:102E2000E10F8093E00F8FE290E065C0853479F484
:102E30008EE290E09093DB0F8093DA0F8DE290E0CA
:102E40009093E10F8093E00F8CE290E054C08234C5
:102E500079F485E290E09093DB0F8093DA0F84E2BF
:102E600090E09093E10F8093E00F83E290E043C005
:102E7000873479F484E390E09093DB0F8093DA0F4A
:102E800083E390E09093E10F8093E00F82E390E082
:102E900032C0843479F48BE290E09093DB0F80931E
:102EA000DA0F8AE290E09093E10F8093E00F89E2DD
:102EB00090E021C0813479F482E290E09093DB0FBE
:102EC0008093DA0F81E290E09093E10F8093E00F1E
:102ED00080E290E010C0833491F488E290E0909317
:102EE000DB0F8093DA0F87E290E09093E10F8093FD
:102EF000E00F86E290E09093DB108093DA10089563
:102F0000A1E0B0E0E6E8F7E10C949EA8182F862F28
:102F100049837BDF4981113319F4842F8DDA0EC088
:102F2000E091E00FF091E10F808121E030E001C0FD
:102F3000220F4A95EAF72095282320832196E3E083
:102F40000C94BAA8CF93C82F833038F580911B0218
:102F500035DFC13089F4E091DD10F091DE10208181
:102F600081E090E00090F20702C0880F991F0A9458
:102F7000E2F7282B208328C0C23079F4E091DD10DD
:102F8000F091DE10208181E090E00090F20702C015
:102F9000880F991F0A94E2F714C0C33011F45BDA6A
:102FA00013C0C43089F4E091DA0FF091DB0F208177
:102FB00081E090E00090190202C0880F991F0A94E6
:102FC000E2F7809582238083CF910895CF93C82F15
:102FD00080911A021ADFC13079F4C091F207809112
:102FE0001B0213DF8C2F28DAC091190280911A027C
:102FF0000CDF8C2F21DA15C0C23061F0C43079F4B7
:10300000C091190280911A0200DF8C2F15DA23DAA1
:1030100081E098DF84E096DF82E094DF05C084E001
:1030200091DF81E08FDF17DACF910895EF92FF9261
:103030000F931F93CF93DF93E82E80911A02E5DE62
:10304000C7E0D0E0F12C01E010E022E32A95F1F78F
:10305000E091DA0FF091DB0F8091190297010C2EAD
:1030600002C0359527950A94E2F720FF0AC0208117
:10307000A80102C0440F551F8A95E2F7242B208334
:103080000BC02081A80102C0440F551F8A95E2F7AA
:10309000CA0180958223808381E054DF82E052DF81
:1030A00084E050DF219788F64091190260911A025E
:1030B00080E326DF81E046DFE091DA10F091DB105B
:1030C000808190E00090190202C0959587950A943E
:1030D000E2F78170992721E08227C82FC17082E032
:1030E00031DF84E02FDFD091190280911A028DDE4A
:1030F0008D2FA2D98C2FCDB7DEB7E6E00C94B7A800
:10310000EF92FF920F931F93CF93DF93E82E40919E
:10311000190260911A0280E3F3DE80911A0275DED3
:1031200082E010DFC7E0D0E0F12C01E010E081E0A8
:1031300009DFE091DA10F091DB10208130E000909F
:10314000190202C0359527950A94E2F720FD09C0BF
:1031500098010C2E01C0220F0A94EAF72095F22262
:1031600007C098010C2E01C0220F0A94EAF7F22A38
:1031700082E0E8DE2197D8F6C091190280911A0208
:1031800044DE8C2F59D981E0DDDE81E0E81202C0F7
:1031900062D902C084E0D6DE82E0D4DE409119021A
:1031A00060911A0280E3ACDE8F2DCDB7DEB7E6E08A
:1031B0000C94B7A81F93CF93DF93182FEB0181E0F6
:1031C00005DF82E003DF80E831DF812F2FDF8C2FE6
:1031D0002DDF8D2F2BDF83E0F9DEDF91CF911F9163
:1031E0000895CF93DF93C82F81E0F0DE82E0EEDE1A
:1031F00080E81CDF8C2F1ADF83E0E8DE82E0E6DE69
:1032000081E814DF80E07CDFC82F81E079DFD82FF0
:1032100083E0DCDE2D2F30E0922F88278C0F911D6C
:10322000DF91CF910895A0E0B0E0E9E1F9E10C94DD
:1032300097A8B82EB3E1CB2EBBE0DB2E02E212E062
:10324000C0E0D0E0E82EF12CC7018155964F7C01FB
:10325000F60181916F01813051F121960E5F1F4F70
:10326000C732D105A9F7EB2DF0E0EE0FFF1FEE5DA1
:10327000FD4F0190F081E02DC191C093D910CF0195
:103280000E9408AB8093F5078C2FBFDDE091DA0F29
:10329000F091DB0F208181E090E00090F50702C003
:1032A000880F991F0A94E2F7282B20832AC0DE0199
:1032B000AB53B54F8C91833081F6DE01A155B64FEB
:1032C0009C91F70180819813C8CFF801A081B1814A
:1032D000AD90A092D910CD010E9408AB8093F50764
:1032E0008A2D93DDA091DA0FB091DB0F2C9130E0A5
:1032F0000090F50702C0359527950A94E2F720FF64
:10330000ACCFCDB7DEB7EAE00C94B3A8A1E3B0E050
:10331000ECE8F9E10C948FA84C016FA34BA72E8F1A
:1033200086E496E4A0E08E8B9F8BA88F8B8B9C8B82
:10333000AD8B888B998BAA8B10927F1023E02CA3E6
:103340001D8E19A222242394312C9E01295F3F4F08
:103350003A8F298F262F30E039A728A7220F331F55
:10336000275D354F3EA32DA33DA72CA7AE014F5F90
:103370005F4F5C8F4B8F10917F10A12EB12CF40109
:1033800001900020E9F73197E819F909AE16BF0658
:1033900008F09AC6A80CB91CD5012C912A3049F422
:1033A00086E48E8B8F8B1C868B8B8C8B1D8E19A24B
:1033B00079C62A3311F02D3321F43D8D333009F0D5
:1033C0005EC62B3309F45DC6203709F45CC621368E
:1033D00009F45BC6253609F45BC6273609F45BC6DB
:1033E000233709F050C003E11BE029EDA22E21E0B4
:1033F000B22E32E2C32E32E0D32E45ECE42E4AE068
:10340000F42ED8018D918D01813071F5F601808106
:103410009181DC017D90CD010E9408AB2C01682FC9
:10342000872DA1DC872DF1DCF7018081813049F403
:10343000E0917710F091781060817181615080F493
:1034400013C0E091DA0FF091DB0F808190E0042C43
:1034500002C0959587950A94E2F780FF05C060E069
:1034600070E0C5010E9487AEF2E0AF0EB11C22E011
:10347000C20ED11C3FEFE31AF30A4BE00A331407E4
:1034800009F0BFCF0FC6213409F408C6223409F46D
:1034900007C62C3709F418C62B3209F409C62E3793
:1034A00009F408C62D3209F408C65D8D511107C014
:1034B0008E89863411F02F8BF5C52E8BF3C53D8D8B
:1034C000373039F48B89863411F02C8BEBC52B8B7C
:1034D000E9C55D8D583039F48889863411F0298B1F
:1034E000E1C5288BDFC53D8D313041F0343031F0FE
:1034F0008D8D8550823008F07DC40EC05FA154369A
:1035000059F0E8A5F9A5ED5EF44F8081811104C062
:10351000ADA1BEA11D921C928F89863409F41F8A29
:10352000CE0146960E9408AB2C018AA7082F1127CE
:1035300007FD10957801EE0CFF1CF701EE5DFD4FC5
:1035400080819181FC017190CF010E9408AB6C01D8
:10355000D5018C918E3761F4F701E05FF64F8081E1
:103560009181029719F426E02D8F02C035E03D8F3E
:103570006C2D872DF8DB872D48DC60907F10A62C02
:10358000B12CA4014A0D5B1D5BA34AA3DA018C9107
:1035900098012A52364F38A32F8F8E3531F4D90136
:1035A0008C9181110CC081E008C0863761F4AF8D29
:1035B000B8A18C91811103C082E08C93F5C3EF8D8B
:1035C000F8A11082F1C38837B1F4AF8DB8A11C9275
:1035D00086E48E8B8F8BF801EE0FFF1FEE0FFF1F1F
:1035E000EC5CF74F1082118212821382F801E350D3
:1035F000F84F1082DFC3EF8DF8A11082F801EB5372
:10360000F54F9081913009F0F2C0F801ED5EF44F72
:103610002081213009F038C1960D292F30E0F401C6
:1036200001900020E9F73197E819F9092E173F07B3
:1036300058F4F401E20FF31F908126EC290F223099
:1036400018F09D3309F0C5C059A1252F30E0ECE0FA
:10365000F0E0EC0FFD1FE20FF31F8083FE01E20F8D
:10366000F31F158682E4781619F095E47912ABC041
:10367000CE010C960E9408ABF701E75DF54F9183F0
:1036800080832D8D243051F4A0917710B091781063
:103690008D919C91892B11F011821082C701865D5A
:1036A0009D4F0E946BAEF701E958F54F91838083DF
:1036B0003D8D353008F476C0ADA1BEA18D919C91B1
:1036C000A8A5B9A5A350B84F009769F58C918111B1
:1036D00057C0E0917710F091781080819181892B0B
:1036E00029F0AAA1BBA18C918E3719F02D8D253020
:1036F00041F011821082F701E05FF64F31822082A3
:1037000062C0D801A350B84F8C91811102C08FEFD5
:103710008C938C9190E09183808382E090E0F7011C
:10372000E05FF64F4EC00197D9F5E0917710F09128
:1037300078103D8D353049F4808191818F3F91051E
:1037400080F48081918101960AC05D8D563049F4E4
:1037500080819181892B29F08081918101979183CA
:10376000808381E08C9383E090E0ACA5BDA58D9330
:103770009C9380819181F801E350F84F808323C0AE
:10378000813071F4F701E05FF64F808191810297FB
:1037900028F482E090E09183808302C0318220820D
:1037A0001C9211C0009751F4E0917710F0917810BD
:1037B000D701A75DB54F8D919C9103C0F701EC50E7
:1037C000F04F9183808386E48E8B8F8B1C8619A2A9
:1037D000F1C28A3209F4ECC2ECE0F0E0EC0FFD1F1C
:1037E00029A1E20FF11D80832F5F29A3E3C292304C
:1037F00009F04AC03CA1333009F446C06091540F2F
:103800008C2DE1D9682F66956B7F80917F10F40134
:10381000E80FF11D8081813359F0833321F45E8DEF
:103820005130F1F405C0843369F42E8D21111CC090
:1038300091010CA002C0220F331F0A94E2F72095D9
:1038400062231DC0823349F491010CA002C0220FF3
:10385000331F0A94E2F7622712C0803381F407C055
:103860003E8D332321F00BC05E8D513041F4910128
:103870000CA002C0220F331F0A94E2F7622B409182
:10388000540F8C2DF3D990C2F801ED5EF44F2081D6
:10389000243009F051C1F801E451F54F2081253160
:1038A00009F04DC085E0A98DBA8D1D928A95E9F782
:1038B000CE0143960E9408AB8C0120E0822F90E05D
:1038C000F401E80FF91FEA0DFB1D30813B3311F0C5
:1038D00031112CC08FEF860D820F80937F10709274
:1038E0001A02C0921902F701E958F54F0190F081D0
:1038F000E02DEE0FFF1FEE5DFD4F80819181FC01F9
:103900002191CF0120931B020E9408AB8093F20704
:10391000CE0107960E9408ABBC01802F880F880F4C
:10392000885F48DC86E48B8B8C8B3EC2E7E0F0E05E
:10393000EC0FFD1FE80FF91F30832F5FBFCF24313D
:1039400009F07AC0CE0143960E9408AB5C017092E8
:103950001A02C0921902F701E958F54F0190F0815F
:10396000E02DEE0FFF1FEE5DFD4F80819181DC01A8
:103970002D91CD0120931B020E9408AB8093F2078A
:1039800081E024DB82E022DB80E450DBF801E155BA
:10399000F64F8081813039F4B7E0BA1520F489E11F
:1039A00045DB18E003C089E041DB10E083E00EDB7B
:1039B00082E00CDB81E43ADB81E0A2DB082F83E0CC
:1039C00005DB80917F10F401E80FF11D8081BB249D
:1039D000212F30E0A21AB30A813349F4F10102C069
:1039E000EE0FFF1FAA94E2F75F01A02A14C08233F2
:1039F00049F4910102C0220F331FAA94E2F7590142
:103A0000A02609C0A10102C0440F551FAA94E2F7E5
:103A10005A01A094A02281E0D9DA82E0D7DA80E4CA
:103A200005DB112311F089E101C089E0FFDA8A2D5D
:103A3000FDDA83E0CBDAB8C1243009F07DC05AA5A5
:103A4000563259F483E480931B021092F20780935C
:103A50001A0281E08093190219C070921A02C09272
:103A60001902F701E958F54F0190F081E02DEE0FB2
:103A7000FF1FEE5DFD4F80819181DC012D91CD0115
:103A800020931B020E9408AB8093F20781E09EDA2C
:103A900082E09CDA20917F10FE013C9680E090E06D
:103AA000A401420F511D9A01482FD901A80FB91F37
:103AB0005C915B3341F0552331F051930196833093
:103AC000910591F743E0ECE0F0E0EC0FFD1FE40F0F
:103AD000F11D1082CE010C960E9408AB182F823087
:103AE00079F489E7A3DA81E00BDB082F83E06EDA53
:103AF00011E0033009F410E081E068DA82E066DA70
:103B000088E794DA80E092DA113011F48FEA09C084
:103B1000111102C08EEA05C01F3F21F081E886DA4C
:103B2000812F84DA82E052DA81E080938D0910924D
:103B30008B0910928A0938C12889263409F4B1C04A
:103B4000CE0140960E9408AB782E62E272E043E11B
:103B50005BE0E9E84E2EE0E15E2EC12CD12C98010D
:103B60002159384F3BA32AA366246394DB01AD900F
:103B7000BD90BD01C501019648AB59ABAEA77FA76B
:103B80000E9408AB8C01F50180813FD948A959A951
:103B9000DA018D91AD016EA57FA5813009F06CC071
:103BA000F601EB53F54F8081811166C0F601E155B6
:103BB000F64F8081871160C0E091DA0FF091DB0F42
:103BC0002081112707FD109530E0002E02C03595A9
:103BD00027950A94E2F7217080917F10D401A80FF5
:103BE000B11D8C91813359F0833321F43E8D3130F6
:103BF00091F405C0843361F43E8D311110C03081E1
:103C0000C101002E01C0880F0A94EAF7382B1FC0AB
:103C1000803399F407C03E8D332321F019C03E8DC7
:103C20003130B1F43081C101002E01C0880F0A94F7
:103C3000EAF78095832380830BC0823349F4308177
:103C4000C101002E01C0880F0A94EAF7382730839B
:103C5000E091DA0FF091DB0F808190E0002E02C03E
:103C6000959587950A94E2F78170821729F0AAA1A9
:103C7000BBA16C9260929607F2018081843610F4A9
:103C80008C598083FFEFCF1ADF0A2FEF421A520AB6
:103C900037E2C316D10409F069CF86E4888B898B9B
:103CA00083C0E091DA0FF091DB0F2081DD24C7FCA7
:103CB000D09430E00C2C02C0359527950A94E2F799
:103CC000422F4170B42E813359F0833321F45E8D3D
:103CD0005130D1F405C08433A1F42E8D211118C0C8
:103CE000933031F4D801A155B64F8C918F3F91F5A7
:103CF0002081C1010C2C01C0880F0A94EAF7282BFF
:103D000034C0803341F012C03E8D332321F02EC0E9
:103D10005E8D513059F52081C1010C2C01C0880FF6
:103D20000A94EAF780958223808320C08233F1F4DD
:103D3000933099F4D801A155B64F8C918F3F69F01B
:103D4000808190E00C2C02C0959587950A94E2F74B
:103D500080FD03C0842D67DA09C02081C1010C2CCD
:103D600001C0880F0A94EAF728272083E091DA0F30
:103D7000F091DB0F808190E00C2C02C09595879527
:103D80000A94E2F781708B1539F081E0F801E1596E
:103D9000F84F808380939607F801E757FF4E8081A4
:103DA000843610F48C59808386E48E8B8F8B02C00E
:103DB00024E02D8FAF8DB8A18C9118160CF072C134
:103DC00020917F10F401E20FF11D818190ED980F99
:103DD000F701E75DF54F9A3050F4992787FD9095EC
:103DE000C097918380832F5F20937F105BC11182E6
:103DF000108258C13D8D323009F055C059A1852F30
:103E000090E0E1E0F0E0EC0FFD1FE80FF91F2083E8
:103E1000FE01E80FF91F12825F5F59A381E0810F55
:103E200090E0F40101900020E9F73197E819F909D1
:103E30008E179F0758F4F401E80FF91F808196EC64
:103E4000980F923018F08D3309F02CC11E5F3BA5FE
:103E5000130F173108F026C15FA1E52EF12C4AE0BF
:103E600050E060E070E0CE0101960E94F7A99B014E
:103E7000AC01F701EE0FFF1FEE0FFF1FEC5CF74FD9
:103E8000A4E1B0E00E947FA8608371838283938362
:103E9000F701E350F84F108385E0AB8DBC8D1D9288
:103EA0008A95E9F711C12D8D233009F0FBC01F5F02
:103EB00010937F1022E232E038A32F8F23E13BE002
:103EC0003BA32AA319E8C12E10E1D12E0FEA602EE0
:103ED00009E0702E00E010E044244A94512C93E055
:103EE000A92EAF8DB8A18D919D91B8A3AF8FFC0184
:103EF000B190CF010E9408AB7C018B2D0E94051769
:103F0000AAA1BBA18D91BBA3AAA3813009F0AAC02D
:103F1000F801EB53F54F80818230F9F480917F10E6
:103F2000F401E80FF11D8081813309F4C9C08033A9
:103F300009F4C8C0823309F095C060E08E2D0E945C
:103F4000E315682F66956B7F6A25643008F08AC098
:103F500040E08E2D0E94361685C0813049F56E2DC9
:103F60008B2D0E94B31680917F10F401E80FF11D94
:103F70008081803329F4E0917710F091781012C09D
:103F8000813329F4E0917710F09178100EC08233DC
:103F900009F068C0E0917710F091781080819181EC
:103FA000892B19F0118210825DC0518240825AC063
:103FB00090917F10F401E90FF11D90819133A1F4EC
:103FC000833021F4F30180818F3FC9F5E091DA0F4E
:103FD000F091DB0F8081910102C0220F331FEA9420
:103FE000E2F77901822B37C0903381F4E091DA0F48
:103FF000F091DB0F8081A10102C0440F551FEA94AC
:10400000E2F77A01E094E822E08226C0923321F5BB
:10401000E091DA0FF091DB0FFF24E7FCF09483309E
:1040200089F4D3018C918F3F69F0808190E00E2C50
:1040300002C0959587950A94E2F780FD03C0802F12
:10404000F2D80AC08081910102C0220F331FEA9486
:10405000E2F7790182278083D6018C91843610F4AF
:104060008C598C930F5F1F4FBFEFCB1ADB0AEFEF1A
:104070006E1A7E0A0632110509F033CF13C021E013
:1040800008C01D8E0FC032E007C053E05D8F0AC02C
:1040900027E02D8F07C038E03D8F04C01CA202C06E
:1040A00051E05CA380917F108F5F80937F1063C984
:1040B00035E004C055E05D8F1BCA36E03D8F18CA5D
:1040C00060E046CF63E044CFE196E2E10C94ABA818
:1040D000AFE1B0E0EEE6F0E20C9499A8322F27327F
:1040E00040F4E22FF0E0EE0FFF1FE05FF64F118289
:1040F0001082DE0111967D015E96F7011192EA179A
:10410000FB07E1F7032F10E0F801ED5EF44F20818B
:10411000233031F4F801E451F54FE081E43011F03F
:10412000373210F0EFEF01C0E1E0E0932002F80138
:10413000E65DF04FE081E1FF05C0883C910509F0A4
:10414000A7C0A9C0883C910509F059C06D5A744FA9
:10415000FB01D12CC12CDF01A61BB70BCA014D3DC1
:10416000510510F08CED90E0A817B90718F5819172
:104170008D3011F08A3041F4B2E0DB1641F08081DD
:104180008A3049F7D394E7CF92E0D91211C08F3E1D
:1041900049F0982F9B7F9B3B29F0D701AC0DB11DB7
:1041A0008C93C394ACE1AC1528F0A2E0DA2ED3CF07
:1041B000D12CD1CFF701EC0DF11D1082898188231C
:1041C000F1F08A818436D9F0F70101900020E9F7F7
:1041D0003197D701AE17BF0761F08D918037D1F7C6
:1041E000B7018EE899E00E9485AB23E040E06CE2E5
:1041F00003C023E040E064E6C70188D84CC0F80162
:10420000EB53F54F8081811107C0F801E350F64F61
:1042100080818F3F61F410C0823039F4F801E3509F
:10422000F64F80818E3F19F407C0813029F02111AB
:1042300003C08A81843679F5373268F581E0F80168
:10424000EA52F64F808380E3E7E4F0E1DF011D925C
:104250008A95E9F727E1209FB001219F700D112475
:10426000605E794F47E150E0CF013F8F0E9453AE2F
:10427000809147108F5F3F8D823050F0F801E350FE
:10428000F64F20812E5F40E0632F87E490E13ED817
:1042900082E0809320026F96E8E00C94B5A8A1E03C
:1042A000B0E0E5E5F1E20C9495A8482F082F10E066
:1042B000B8016B53754F7B01DB018C914801880C71
:1042C000991C813099F54E3118F089E290E002C0D6
:1042D0008CE290E09093DB108093DA10F401EE5DB5
:1042E000FD4F8081918101960E9408AB8093F50774
:1042F000F401E958F54FC080D180F601EE0FFF1FA1
:10430000EE5DFD4F8081918101960E9408ABB82E31
:10431000BEE1CB16D1041CF089E290E002C08CE231
:1043200090E0909386108093851039C0F401EE5D83
:10433000FD4F80819181019649830E9408ABB82E80
:1043400049814E3138F089E290E090938610809355
:10435000851006C02CE230E0309386102093851043
:10436000F401E958F54F0190F081E02DEE0FFF1FA9
:10437000EE5DFD4FC080D180C60101960E9408AB62
:104380008093F507F6018081843419F429E230E046
:1043900002C02CE230E03093DB102093DA10109250
:1043A000E40F1092E50F1092E60F1092E70F1092B3
:1043B000E80F1092E90F21E030E002C0220F331F16
:1043C000BA94E2F7B12CC12C78E0D72E40E050E04F
:1043D000B0E081E090E0F4E0FA95F1F700004F5F83
:1043E0005F4F483765E0560779F4BA3108F089C065
:1043F000BB0CBB0CBB0C8091E40F8295869587703B
:10440000B82AB092E40F7DC0E091DA10F091DB1091
:104410006081A091F50770E00A2E02C0759567953E
:104420000A94E2F760FD1EC0AA24A394AB0EB1501B
:10443000B83108F4DA94AC0102C0440F551FAA95B4
:10444000E2F7DA0164EC79E0408150E04A235B2333
:10445000452B09F04BC06150710961157105A1F739
:1044600081E082C0E0918510F0918610608170E05B
:1044700062237323672BE9F5AA24A394AB0EB150F2
:104480004C2D50E0B83180F46FEF6D0DDC0102C0AF
:10449000AA0FBB1F6A95E2F7BD01DA01AC51B04F1C
:1044A0007C91762B7C93DA94DA01A951B04F4FEFCF
:1044B0004D0DBC0102C0660F771F4A95E2F7AB01B4
:1044C0005C91542B5C9371E0A71202C0BB24B3949F
:1044D00064EC79E0408150E042235323452B31F4D2
:1044E0006150710961157105A9F7BACFBA2D40E085
:1044F00050E0D11003C0C39468E0D62EBA3208F45D
:104500006ACF8BEE8B0F853068F48091E70F809334
:10451000E40F8091E80F8093E50F8091E90F80937D
:10452000E60F0AC0B43030F48091E40F8695809392
:10453000E40F04C0B53010F083E001C081E0809347
:10454000E70FD7018C91813021F4F801E350F64F49
:1045500009C0F401E958F54F0190F081E02DE350D6
:10456000F64F81E0808380E02196ECE00C94B1A8C6
:104570001F920F920FB60F9211240BB60F922F932A
:104580003F934F935F936F937F938F939F93AF93DB
:10459000BF93EF93FF93F8948EE181DE8111E89849
:1045A0007894FF91EF91BF91AF919F918F917F91FF
:1045B0006F915F914F913F912F910F900BBE0F9094
:1045C0000FBE0F901F9018951F920F920FB60F926B
:1045D00011240BB60F922F933F934F935F936F93DA
:1045E0007F938F939F93AF93BF93EF93FF93F89431
:1045F0008FE155DE8111E9987894FF91EF91BF9199
:10460000AF919F918F917F916F915F914F913F916A
:104610002F910F900BBE0F900FBE0F901F9018950B
:104620001F920F920FB60F9211240BB60F922F9379
:104630003F934F935F936F937F938F939F93AF932A
:10464000BF93EF93FF93F89480E229DE8111EA98FB
:104650007894FF91EF91BF91AF919F918F917F914E
:104660006F915F914F913F912F910F900BBE0F90E3
:104670000FBE0F901F9018951F920F920FB60F92BA
:1046800011240BB60F922F933F934F935F936F9329
:104690007F938F939F93AF93BF93EF93FF93F89480
:1046A00081E2FDDD8111EB987894FF91EF91BF914C
:1046B000AF919F918F917F916F915F914F913F91BA
:1046C0002F910F900BBE0F900FBE0F901F9018955B
:1046D0001F920F920FB60F9211240BB60F922F93C9
:1046E0003F934F935F936F937F938F939F93AF937A
:1046F000BF93EF93FF93F8948BE1D1DD8111EC9898
:104700007894FF91EF91BF91AF919F918F917F919D
:104710006F915F914F913F912F910F900BBE0F9032
:104720000FBE0F901F9018951F920F920FB60F9209
:1047300011240BB60F922F933F934F935F936F9378
:104740007F938F939F93AF93BF93EF93FF93F894CF
:1047500089E1A5DD8111ED987894FF91EF91BF91EA
:10476000AF919F918F917F916F915F914F913F9109
:104770002F910F900BBE0F900FBE0F901F901895AA
:104780001F920F920FB60F9211240BB60F922F9318
:104790003F934F935F936F937F938F939F93AF93C9
:1047A000BF93EF93FF93F89487E179DD8111EE9841
:1047B0007894FF91EF91BF91AF919F918F917F91ED
:1047C0006F915F914F913F912F910F900BBE0F9082
:1047D0000FBE0F901F9018951F920F920FB60F9259
:1047E00011240BB60F922F933F934F935F936F93C8
:1047F0007F938F939F93AF93BF93EF93FF93F8941F
:1048000086E14DDD8111EF987894FF91EF91BF9192
:10481000AF919F918F917F916F915F914F913F9158
:104820002F910F900BBE0F900FBE0F901F901895F9
:104830001F920F920FB60F9211240BB60F922F9268
:104840003F924F925F926F927F928F929F92AF9220
:10485000BF92CF92DF92EF92FF920F931F932F930D
:104860003F934F935F936F937F938F939F93AF93F8
:10487000BF93EF93FF93CF93DF93CDB7DEB7279727
:10488000DEBFCDBF8091F1078F5F8093F107883C39
:1048900009F04BC01092F1078091F0078F5F809371
:1048A000F0079091EF07923111F09A3251F48E3166
:1048B00041F4809118028230C1F181E080931802A6
:1048C00034C08C3391F51092F00731E0390F3093FA
:1048D000EF0780916B0790916C07A0916D07B091E5
:1048E0006E070196A11DB11D80936B0790936C0715
:1048F000A0936D07B0936E0721E02093DD073C3352
:10490000A1F41092EF078091EE078F5F8093EE077E
:10491000883159F41092EE078091ED078F5F8093F4
:10492000ED07883011F42093ED0780915E09813006
:1049300099F480911C0290911D02A0911E02B091E9
:104940001F020196A11DB11D80931C0290931D02B0
:10495000A0931E02B0931F028091240A9091250A11
:10496000A091260AB091270A83309105A105B105CF
:1049700058F00197A109B1098093240A9093250A60
:10498000A093260AB093270A8091520F9091530F5B
:104990008230910528F001979093530F8093520F26
:1049A00080915B0F8F3F69F08091FB079091FC072E
:1049B000813127E2920728F001979093FC078093BA
:1049C000FB0723E13BE03A8329832AE0422E21E1E1
:1049D000522E37E7832E3AE0932E44EFA42E4FE079
:1049E000B42E09E21AE054E3C52E58E0D52E60E15A
:1049F000E62E69E0F62E7AE2272E7FE0372EE2E2FD
:104A00006E2EE2E07E2E1F821E827FEFA981BA8188
:104A10002D91BA83A983213009F057C0EE81FF811F
:104A2000EB53F54F8081813009F0AFC0F4018081F4
:104A30009181181619060CF0A8C0D5018D919C9192
:104A4000009709F4A2C0EE81FF81EA52F64F20815F
:104A500021119BC081309105A9F5F301208131819D
:104A6000C90101962B833C837D830E9408AB682F8C
:104A70002B813C81D9018C910E94B316E091771073
:104A8000F091781080819181682FD8014D915C91CF
:104A90009C0133277D812417350714F461E004C09D
:104AA000421753071CF46FEF680F03C0D4011D9227
:104AB0001C92862F90E091838083F4018081918104
:104AC000D50155C00197F5015EC0D7018D919C912C
:104AD0001197009751F101978D939C93BE81B63247
:104AE00041F440915C0950915D09452B11F41092FD
:104AF000BE0F009771F4F101308131FD0AC081E0F1
:104B000090E0A0E0B0E0F60180839183A283B383BC
:104B10000CC0D1013C9131FF08C0803A910528F4C6
:104B200070937102F70111821082F60180819181E8
:104B3000A281B38183309105A105B10538F00197B9
:104B4000A109B10980839183A283B383233091F4B7
:104B5000EE81FF81E451F54F80818430B1F4D801BA
:104B60008D919C911197181619067CF401978D93DD
:104B70009C930BC0211109C0F80180819181823082
:104B800091051CF0019791838083D2018D919C91B6
:104B90001197009751F0EE81FF81E155F64F20818A
:104BA000233019F001978D939C932E813F812F5FC5
:104BB0003F4F3F832E8332E0430E511C82E0880E2C
:104BC000911C92E0A90EB11C0E5F1F4FA4E0CA0E0B
:104BD000D11CB2E0EB0EF11CEFEF2E1A3E0AF2E010
:104BE0006F0E711C2E813F812732310509F00ECFE7
:104BF000E0EDF8E080819181A281B381833091055D
:104C0000A105B10538F00197A109B109808391830D
:104C1000A283B383349639E0E031F30759F78FB1BB
:104C200080953091B010832790910D029823909534
:104C300090930D0220910C022823292720930C0227
:104C400089238223282F232390918010922B9093E5
:104C5000801038273093B010832320917C10282BAC
:104C600020937C108CB1809530917910832790919E
:104C70000B029823909590930B0220910A0228230F
:104C8000292720930A0289238223282F2323909106
:104C90007B10922B90937B103827309379108323CD
:104CA0002091D810282B2093D81083B18095309173
:104CB0008710832790910902982390959093090279
:104CC0002091080228232927209308028923822380
:104CD000282F23239091E010922B9093E0103827F7
:104CE0003093871083232091E110282B2093E1102B
:104CF00080B180953091F31083279091070298231B
:104D0000909590930702209106022823292720934B
:104D1000060289238223282F23239091EA0F922BC6
:104D20009093EA0F38273093F31083232091881053
:104D3000282B2093881086B180953091DC10832732
:104D4000909105029823909590930502209104027A
:104D5000282329272093040289238223282F232311
:104D60009091DF10922B9093DF1038273093DC1056
:104D700083232091EB0F282B2093EB0F89B1809593
:104D80003091E30F8327909103029823909590939D
:104D9000030220910202282329272093020289235B
:104DA0008223282F232390917E10922B90937E10A4
:104DB00038273093E30F83232091E210282B209390
:104DC000E21082B380953091B71083279091010251
:104DD000982390959093010220910002282329277F
:104DE0002093000289238223282F232390917A1075
:104DF000922B90937A1038273093B7108323209109
:104E0000E20F282B2093E20F8091F4078C3021F4DD
:104E1000A0981092F40705C0882319F08F5F809343
:104E2000F40781E08093F60727960FB6F894DEBF6B
:104E30000FBECDBFDF91CF91FF91EF91BF91AF91A9
:104E40009F918F917F916F915F914F913F912F91A2
:104E50001F910F91FF90EF90DF90CF90BF90AF9098
:104E60009F908F907F906F905F904F903F902F908A
:104E70000F900BBE0F900FBE0F901F901895F894D7
:104E800090917C108923982790937C1078940895B2
:104E9000F8949091801089239827909380107894AB
:104EA0000895F8949091D810892398279093D8105A
:104EB00078940895F89490917B1089239827909383
:104EC0007B1078940895F8949091E11089239827A5
:104ED0009093E11078940895F8949091E0108923CC
:104EE00098279093E01078940895F8949091881002
:104EF000892398279093881078940895F894909136
:104F0000EA0F892398279093EA0F78940895F894EC
:104F10009091EB0F892398279093EB0F7894089545
:104F2000F8949091DF10892398279093DF1078945C
:104F30000895F8949091E210892398279093E210B5
:104F400078940895F89490917E10892398279093EF
:104F50007E1078940895F8949091E20F8923982711
:104F60009093E20F78940895F89490917A108923A1
:104F7000982790937A1078940895009731F023E55C
:104F80002A95F1F700000197F8CF08956AE00E9492
:104F9000F3A720E1829F900D1124892F0895982F67
:104FA00092959F708F702AE0929F800D1124089532
:104FB000A6E0B0E0EEEDF7E20C949FA883E48093C6
:104FC0001B021092F20744E050E06EE271E0CE0165
:104FD00001960E9453AE898191E0980F923030F093
:104FE00080931B028A8180538093F20783E480932D
:104FF0001A0281E08093190244E050E06CE271E013
:10500000CE0101960E9453AE898191E0980F9230B3
:1050100030F080931A028A81805380931902809124
:105020001802823009F443C081E00E94E61782E052
:105030000E94E61780ED0E94161880E00E94161864
:1050400083E00E94E61782E00E94E61781ED0E944D
:10505000161880E00E948018A2DF8093F00780E09D
:105060000E9480189CDF8093EF0780E00E948018E8
:1050700096DF8093EE0781E00E9480188093ED0711
:1050800083E00E94E6178091ED078150873068F039
:1050900082E0809318021092F0071092EF071092AE
:1050A000EE0781E08093ED0702C010921802269669
:1050B000E2E00C94BBA8CF93DF93C82F83E00E945B
:1050C000E61781E00E94E61782E00E94E61788E773
:1050D0000E94161880E00E9416188EEA0E94161888
:1050E00085ED0E94161880E80E94161881E80E943B
:1050F00016188C2F90E0880F991F87529E4F0E94A0
:105100006BAE8F3F09F48FE70E9416188DE80E945E
:10511000161884E10E94161881EA0E94161888EC7D
:105120000E94161886EA0E94161880E20E9416183D
:1051300080E00E94161881E20E94161880E00E940A
:1051400016188FE70E94161880E00E94161882E257
:105150000E94161880E00E94161887E00E94161818
:1051600083E00E94E61782E00E94E61788E70E942B
:10517000161880E40E941618C0E0D4E080E00E9477
:10518000161821972097D1F783E00E94E61782E056
:105190000E94E61788E70E94161880E00E94161801
:1051A0008FEA0E94161883E00E94E617DF91CF91E4
:1051B0000895A0E0B0E0EFEDF8E20C9495A8D82FA8
:1051C000C62F7A01D22E80918D098A3008F03FC017
:1051D00081E00E94E61782E00E94E61788E70E94BD
:1051E000161880E00E94161880E20E94161881E0CE
:1051F0000E94161881E20E94161821E0D21202C005
:1052000080E001C08D2F0E9416188FE70E941618AB
:1052100082E20E94161881E0D81201C0C2E08C2FF1
:105220000E94161821E0D21202C083E001C081E082
:105230008C0F0E94161883E00E94E61782E00E94FD
:10524000E61788E70E94161880E40E941618E0917D
:105250004610F0E0EE0FFF1FEC50F04F808191817F
:1052600020918D090A9751F4213041F48AE080930E
:105270008D0910928B0910928A09D7C0213031F420
:1052800084EF91E090938B0980938A0900E010E00D
:10529000C12C8C2D90E0F70101900020E9F73197A7
:1052A000EE19FF098E179F0708F08EC0F701E80F6F
:1052B000F91F8081803279F4D11010C080E00E9403
:1052C000161880E00E94161880E00E94161880E0F0
:1052D0000E94161857C0803208F454C0982F9D0DB4
:1052E0008FED890F803B10F08FEA890F90E021E06D
:1052F000D21609F47BC0FC01EE0FFF1FE80FF91F67
:10530000E957F74EC491FC01EE0FFF1FE80FF91F9C
:10531000E857F74EA590B490D0E0CC0FDD1F88245D
:105320008394912CE92DF0E0EC17FD0758F5E80D7A
:10533000F11D87FCFA95EA0DFB1DE959F54E8491A4
:105340000E94161881949394EDCF20918A09309190
:105350008B09C9010A96C817D90708F05EC0C217A1
:10536000D30708F45AC0EA0DFB1DE954FC4E8491A2
:105370000E9416182196EC2FE01BF0E0E815F905C5
:1053800020F38E0180918A0990918B099C01265F00
:105390003F4F0217130718F40817190720F48091DC
:1053A0008D098A3078F480E00E94161880E00E940F
:1053B000161881E0D81206C080E00E94161880E01E
:1053C0000E941618C39465CF80918D098A3039F4F4
:1053D00081E080938D0910928B0910928A098FEFDA
:1053E0008093210283E00E94E6171FC0FC01EE0FAC
:1053F000FF1FE80FF91FEA59FC4E8490FC01EE0FE5
:10540000FF1FE80FF91FE959FC4EA590B49024E066
:10541000829E40011124E801AECFC817D90709F0D8
:10542000A9CFD0938B09C0938A09CDB7DEB7ECE042
:105430000C94B1A8CF92DF92EF92FF92CF93C82F36
:1054400081E00E94E61782E00E94E61780E80E9451
:10545000161883E00E94E61782E00E94E61780E8B3
:105460000E941618C13011F483EE01C085EE0E942F
:10547000161883E00E94E6178AEF90E07EDD82E056
:105480000E94E617C13019F484EA96E002C08CE26B
:1054900091E073DD81E80E94161888EC90E06DDDE4
:1054A00080E00E948018F82E81E00E9480182F2D45
:1054B00030E0322F2227282B442737FD4095542FE8
:1054C0002C7F44275527A0E1B7E20E947FA89C01CA
:1054D000552737FD5095452FC13049F4A4EAB4E46F
:1054E0000E947FA8605D7F4D8A4C924008C0A4ED69
:1054F000B0E30E947FA860587D488B45910920E168
:1055000037E240E050E00E9448A869017A01CA01F0
:10551000B90124E630E040E050E00E9448A8F7FEE0
:1055200029C09B0177FF04C022273327261B370B96
:105530003F932F93C701B60124E630E040E050E0EE
:105540000E9448A83195219531093F932F938BEE06
:1055500092E09F938F9387E490E19F938F930E94B3
:1055600037AC8DB79EB708960FB6F8949EBF0FBEA6
:105570008DBF1AC09F938F937F936F935F934F93C9
:105580003F932F9382E393E09F938F9387E490E17F
:105590009F938F930E9437AC8DB79EB70C960FB632
:1055A000F8949EBF0FBE8DBF83E00E94E617CF9197
:1055B000FF90EF90DF90CF900895CF93DF9381E03D
:1055C0000E94E61782E00E94E61786E40E94161801
:1055D00080E10E94161883E00E94E61782E00E9494
:1055E000E61787E40E94161880E00E948018C82FF2
:1055F00081E00E948018D82F83E00E94E617AD2F2B
:10560000B0E0BC2B2AE030E00E9479A82CE030E02A
:1056100040E050E00E9448A85F934F933F932F9340
:1056200084EF92E09F938F9387E490E19F938F9311
:105630000E9437AC8DB79EB708960FB6F8949EBF00
:105640000FBE8DBFDF91CF910895ACE0B0E0EBE2EB
:10565000FBE20C9495A8182F9BE0E6EBF2E0DE014C
:10566000119601900D929A95E1F781E00E94E6175C
:1056700082E00E94E6179E012F5F3F4F790137E1DC
:10568000139FC001112400E010E0FC01E05EF94F1F
:105690005F019C012F5D394F49018EEE0E94161863
:1056A000F70181917F010E94161883E00E94E6179E
:1056B00082E00E94E6178FEE0E94161880E00E949A
:1056C0008018682F6501C00ED11EC6016C870E942C
:1056D00063AE6C85861719F0C6010E9479AE81E031
:1056E0000E948018682F6401C00ED11EC6016C870D
:1056F0000E9463AE6C85861719F0C6010E9479AED0
:105700000E5F1F4F0631110541F683E00E94E61738
:105710002C96ECE00C94B1A8A1E0B0E0E2E9FBE249
:105720000C9491A8782E81E00E94E61782E00E94F6
:10573000E6178CEE0E94161882EF0E94161882E07F
:105740000E94161883E00E94E61781E00E94E61787
:1057500082E00E94E6178CEE0E94161884EF0E94E9
:10576000161887E20E94161883E00E94E61781E06F
:105770000E94E61782E00E94E6178CEE0E9416183F
:1057800088E80E94161883E00E94E61782E00E94D3
:10579000E6178DEE0E94161827E1729EC0011124B3
:1057A000412C512C612C44E1749E900111248901FB
:1057B0000B5E1C4FFC01EF5DF94F5F01A9014C5ED0
:1057C0005C4F7A01FC01E05EF94F4F0180E00E94DE
:1057D0008018682FFBE06F1661F06501C40CD51CC2
:1057E000C60169830E9463AE6981861761F0C601B4
:1057F00008C0C80169830E9463AE6981861719F0E9
:10580000C8010E9479AE80E00E948018682F2BE0CA
:10581000621661F06401C40CD51CC60169830E9444
:1058200063AE6981861761F0C60108C0C70169834C
:105830000E9463AE6981861719F0C7010E9479AE94
:10584000639432E0430E511C4CE06412BFCF80E001
:105850000E94801881E00E948018182F83E00E9427
:10586000E61781E00E94E61782E00E94E6178CEEC0
:105870000E94161880ED0E94161883E00E94E61719
:1058800082E00E94E6178DEE0E94161881E00E94C9
:105890008018082F83E00E94E617272D30E084E16E
:1058A000003609F04FC0829F7001839FF00C1124D5
:1058B000C7018A5E9C4F7C010E9463AE811721F074
:1058C000612FC7010E9479AE81E00E94E61782E055
:1058D0000E94E6178CEE0E94161881EE0E941618A0
:1058E00083E00E94E61782E00E94E6178DEE0E9498
:1058F000161894E1799E80011124C12CD12C095EE7
:105900001C4FE6E0CE1202C081E001C080E00E94A0
:105910008018682F7801EC0CFD1CC70169830E9478
:1059200063AE6981861719F0C7010E9479AEFFEF57
:10593000CF1ADF0A27E0C216D10419F783E00E94CC
:10594000E61710C0829F8001839F100D11240A5E0C
:105950001C4FC8010E9463AE8F3F21F06FEFC8015A
:105960000E9479AE2196E0E10C94ADA8A2E2B0E0ED
:10597000ECEBFCE20C948FA8082F262E81E00E940D
:10598000E61782E00E94E6178EEE0E94161884EF5A
:105990000E9416188EE20E94161883E00E94E617F5
:1059A00082E00E94E61788E09DE30197F1F700C0CE
:1059B00000008EEE0E94161886EF0E94161883E0F3
:1059C0000E94E61782E00E94E6178FEE0E941618EA
:1059D00080E00E948018182F81E00E948018C82E55
:1059E00083E00E94E61797E1099FB0011124605EF1
:1059F000794F46E150E0CE0101960E9453AE2985D1
:105A000030E0322F22278A85282BD12CE12CF12C53
:105A1000D12A8B8590E0982F88274C85842BC81A33
:105A2000D90AE108F108A8EEB3E00E946AA8BFE035
:105A30009595879577956795BA95D1F7A7019601C2
:105A40000E94E4A728EE33E040E050E00E9448A81E
:105A500069017A016B8970E0762F66278C89682B43
:105A6000882777FD8095982F0BE0660F771F881F9A
:105A7000991F0A95D1F70D8910E0102F00272E8964
:105A8000022B9801442737FD4095542F2C0D3D1DC6
:105A90004E1D5F1D0E9448A849015A018C0C9D1C97
:105AA000AE1CBF1CA5019401285F3F4F4F4F5F4FB5
:105AB000AAE0B0E00E947FA820E130E040E050E0A2
:105AC0000E9448A869017A0181E00E94E61782E0FD
:105AD0000E94E6178EEE0E94161884EF0E94161898
