:100000000C9414120C943C230C9468230C949423A9
:100010000C94C0230C94EC230C9418240C944424CA
:100020000C9470240C9435120C9435120C943512E7
:100030000C9435120C9435120C9435120C94351224
:100040000C9435120C9435120C9435120C94351214
:100050000C9435120C9435120C949C240C9435128B
:100060000C9435120C9435120C9435120C943512F4
:100070000C9435120C9435120C9435120C943512E4
:100080000C9435120C9435120C9435120C943512D4
:100090000C9435120C9435120C9435120C943512C4
:1000A0000C9435120C9435120C9435120C943512B4
:1000B0000C9435120C9435120C9435120C943512A4
:1000C0000C9435120C9435120C9435126A14721477
:1000D0007A14821485149B1485149B143C2F613E62
:1000E000004578742D494F002F3F70743D256426DC
:1000F00063663D313E00207C203C6120687265666D
:100100003D2F003C2F613E002F53434C002F5344A2
:100110004100493243004453002F4431002F443002
:100120000057323600414443004E4300202D20004A
:10013000290025640028003E50002564002F3F70F0
:10014000743D003C62723E3C6120687265663D2FE2
:10015000003C62723E2D2D2D003C62723E2D2D2002
:100160005850352F36202D2D002F3F63663D343EED
:100170005850323C2F613E3C62723E2D2D20585427
:1001800032202D2D002F3F63663D333E5850313CC9
:100190002F613E3C62723E3C6120687265663D2F75
:1001A000002F3F63663D313E436F6E6669673C2FAB
:1001B000613E3C62723E2D2D204D4F4453202D2D2B
:1001C0003C62723E3C6120687265663D2F00293CAE
:1001D00062723E3C6120687265663D2F00342E32AB
:1001E000366231004D656761442D3235363120620B
:1001F00079203C6120687265663D687474703A2F9E
:100200002F61622D6C6F672E72753E61622D6C6F6F
:10021000672E72753C2F613E202866773A200032A7
:10022000202D2D0031202D2D003E4261636B3C2F8F
:10023000613E3C62723E2D2D20506F7274732058C7
:100240005000446F6E65003E002076616C75653D20
:10025000003C696E707574206E616D653D6B6579EB
:10026000004E2F4100383E4C617374206B65793A23
:100270002000203C696E70757420747970653D7340
:1002800075626D6974206E616D653D70636C20767A
:10029000616C75653D636C6561723E003E003E2099
:1002A000736C6176653A203C696E707574206E617E
:1002B0006D653D70727320747970653D6368656328
:1002C0006B626F782076616C75653D3120003E2051
:1002D000636D643A203C696E707574206E616D6563
:1002E0003D7072642076616C75653D003E3D3C2F2B
:1002F00073656C6563743E2076616C75653A203C6D
:10030000696E707574206E616D653D7072762073D4
:10031000697A653D332076616C75653D003E3C3CF5
:100320006F7074696F6E2076616C75653D33003E49
:100330003E3C6F7074696F6E2076616C75653D32FE
:10034000003E4E3C6F7074696F6E2076616C75650F
:100350003D31003E203C73656C656374206E616DB9
:10036000653D7072633E3C6F7074696F6E2076619C
:100370006C75653D30003E696620706F72743A207E
:100380003C696E707574206E616D653D7072702091
:1003900073697A653D332076616C75653D007072D6
:1003A0006E2076616C75653D0031303E00656D7084
:1003B0007479002300393E003E002076616C75653B
:1003C0003D003E204163743A203C696E7075742094
:1003D0006E616D653D63726E61002076616C75655E
:1003E0003D00543A203C696E707574206E616D65F5
:1003F0003D63726E74003E003E205344413A203CFF
:10040000696E707574206E616D653D637364612003
:1004100076616C75653D003C62723E536574207474
:10042000696D653A203C696E707574206E616D650A
:100430003D7374696D653E3C62723E53434C3A2095
:100440003C696E707574206E616D653D6373636C9D
:100450002076616C75653D00373E43757220746986
:100460006D653A2000223E3C62723E737276206CCB
:100470006F6F703A203C696E707574207479706586
:100480003D636865636B626F78206E616D653D7377
:100490006C2076616C75653D31004D656761642D3A
:1004A00049443A203C696E707574206E616D653DFB
:1004B0006D646964206D61786C656E6774683D3544
:1004C0002073697A653D352076616C75653D220043
:1004D000323E003C62723E557074696D653A200090
:1004E00057646F673A203C696E707574206E616D59
:1004F000653D70722073697A653D332076616C7555
:10050000653D005363726970743A203C696E707582
:1005100074206E616D653D736374206D61786C65E8
:100520006E6774683D31352076616C75653D2200DB
:100530003C62723E00646973636F6E6E65637465DE
:100540006400636F6E6E6563746564003E4D515464
:10055000543C2F73656C6563743E20003E485454D0
:10056000503C6F7074696F6E2076616C75653D31BB
:100570000053525620547970653A203C73656C657F
:100580006374206E616D653D737276743E3C6F706E
:1005900074696F6E2076616C75653D300025642E40
:1005A00025642E25642E25643A25753E3C62723EF4
:1005B000003E3C62723E5352563A203C696E707562
:1005C00074206E616D653D7369702076616C756530
:1005D0003D0047573A203C696E707574206E616D1E
:1005E000653D67772076616C75653D25642E2564D1
:1005F0002E25642E2564005077643A203C696E7085
:100600007574206E616D653D707764206D61786CE6
:10061000656E6774683D332076616C75653D2200B8
:1006200049503A203C696E707574206E616D653D6D
:100630006569702076616C75653D25642E25642E94
:1006400025642E256400313E0063662076616C755A
:10065000653D002F3E002F3F63663D383E694220D6
:100660004B6579733C2F613E002F3F63663D393EF9
:1006700050726F6772616D3C2F613E002F3F636661
:100680003D373E43726F6E3C2F613E002F3F6366E5
:100690003D323E4D656761642D49443C2F613E000B
:1006A0002F3F63663D313E436F6E6669673C2F6145
:1006B0003E003E4261636B3C2F613E002F3F63660C
:1006C0003D31002F3F63663D39003E4261636B3C24
:1006D0002F613E3C62723E4D656761442069732024
:1006E00072657374617274656400340033002F3F67
:1006F00063663D002A002A007D7D00227D003B00CC
:1007000026636D643D6C6973743E44657669636508
:10071000204C6973743C2F613E002F3F70743D0084
:100720003E003C62723E44697370203C696E707595
:1007300074206E616D653D646973702073697A65BC
:100740003D322076616C75653D0026636D643D73B6
:1007500063616E3E493243205363616E3C2F613EBC
:10076000002F3F70743D003E003C62723E494E5483
:10077000203C696E707574206E616D653D696E74A4
:10078000612073697A653D332076616C75653D0043
:100790003E003C62723E46726571203C696E707527
:1007A00074206E616D653D6873742073697A653D70
:1007B000332076616C75653D003E003E3C62723EC2
:1007C000436C6F636B203C696E707574206E616D55
:1007D000653D636C6F636B20747970653D6368651C
:1007E000636B626F782076616C75653D37003C62A3
:1007F000723E427269676874203C696E707574203D
:100800006E616D653D6873742073697A653D332050
:1008100076616C75653D003E504341393638353C54
:100820002F73656C6563743E003E4D435032333028
:1008300058583C6F7074696F6E2076616C75653DB9
:100840003231003E535344313330363C6F7074695B
:100850006F6E2076616C75653D3230003E54534CAE
:10086000323539313C6F7074696F6E2076616C750A
:10087000653D34003E4248313735303C6F70746915
:100880006F6E2076616C75653D33003E4D41583486
:10089000343030393C6F7074696F6E2076616C75DE
:1008A000653D32003E424D783238303C6F7074699D
:1008B0006F6E2076616C75653D37003E424D50315C
:1008C00038303C6F7074696F6E2076616C75653D71
:1008D00036003E4854553231443C6F7074696F6E37
:1008E0002076616C75653D35003E414E593C6F7018
:1008F00074696F6E2076616C75653D31003C627283
:100900003E446576203C73656C656374206E616D52
:10091000653D643E3C6F7074696F6E2076616C75E6
:10092000653D30003E003C62723E53434C203C69C2
:100930006E707574206E616D653D6D6973632073B3
:10094000697A653D332076616C75653D003E5343A1
:100950004C3C2F73656C6563743E003E5344413CD0
:100960006F7074696F6E2076616C75653D32003E04
:100970004E433C6F7074696F6E2076616C75653D97
:1009800031003C62723E4D6F6465203C73656C655E
:100990006374206E616D653D6D3E3C6F7074696F70
:1009A0006E2076616C75653D30003E003C62723EA3
:1009B0004431203C696E707574206E616D653D6DCB
:1009C0006973632073697A653D332076616C756560
:1009D0003D003E44313C2F73656C6563743E003EC0
:1009E00044303C6F7074696F6E2076616C75653D44
:1009F00032003E4E433C6F7074696F6E2076616CBE
:100A000075653D31003C62723E4D6F6465203C73FC
:100A1000656C656374206E616D653D6D3E3C6F7005
:100A200074696F6E2076616C75653D30003E57329B
:100A3000363C2F73656C6563743E003E69423C6FC3
:100A40007074696F6E2076616C75653D36003E315D
:100A5000574255533C6F7074696F6E2076616C75A8
:100A6000653D34003E31573C6F7074696F6E20767F
:100A7000616C75653D35003E44485432323C6F70C0
:100A800074696F6E2076616C75653D33003E444835
:100A90005431313C6F7074696F6E2076616C75658E
:100AA0003D32003C62723E53656E203C73656C655E
:100AB0006374206E616D653D643E3C6F7074696F58
:100AC0006E2076616C75653D310020636865636BEF
:100AD00065643E203C696E707574206E616D653D85
:100AE0006D322073697A653D332076616C75653DA2
:100AF000003E486967683C2F73656C6563743E3CD3
:100B000062723E536D6F6F7468203C696E707574CD
:100B100020747970653D636865636B626F78206EE1
:100B2000616D653D6D6973632076616C75653D31FE
:100B3000003E4C6F773C6F7074696F6E2076616C0D
:100B400075653D32003E4E6F726D3C6F7074696F1B
:100B50006E2076616C75653D31003C62723E467276
:100B60006571203C73656C656374206E616D653DD5
:100B700066723E3C6F7074696F6E2076616C75654D
:100B80003D30003E003C62723E47726F7570203C03
:100B9000696E707574206E616D653D67727020734B
:100BA000697A653D322076616C75653D003E44533F
:100BB000323431333C2F73656C6563743E003E53B1
:100BC00057204C494E4B3C2F6F7074696F6E3E3C02
:100BD0006F7074696F6E2076616C75653D32003C94
:100BE0006F7074696F6E2076616C75653D33003E81
:100BF00050574D003C6F7074696F6E2076616C7554
:100C0000653D31003E5357003C62723E4D6F646556
:100C1000203C73656C656374206E616D653D6D3E4F
:100C20003C6F7074696F6E2076616C75653D300045
:100C30003E313C2F73656C6563743E003E303C6F03
:100C40007074696F6E2076616C75653D31003C7320
:100C5000656C656374206E616D653D643E3C6F70CC
:100C600074696F6E2076616C75653D30003C696E0D
:100C7000707574206E616D653D642073697A653DA1
:100C800033206D61786C656E6774683D33207661E2
:100C90006C75653D003C62723E44656661756C74BE
:100CA0003A20003C62723E526177203C696E70755A
:100CB0007420747970653D636865636B626F78203A
:100CC0006E616D653D642076616C75653D31002017
:100CD0003C696E70757420747970653D63686563F6
:100CE0006B626F78206E616D653D6D697363207610
:100CF000616C75653D31003E433C2F73656C6563E7
:100D0000743E003E523C6F7074696F6E2076616C69
:100D100075653D33003E5026523C6F7074696F6EAE
:100D20002076616C75653D32003E503C6F70746991
:100D30006F6E2076616C75653D31003C62723E4D90
:100D40006F6465203C73656C656374206E616D65CE
:100D50003D6D3E3C6F7074696F6E2076616C756599
:100D60003D3000223E203C696E70757420747970AD
:100D7000653D636865636B626F78206E616D653D8C
:100D80006E61662076616C75653D31002F003A25F5
:100D9000750025642E25642E25642E2564003E3CB6
:100DA00062723E4E6574203C696E70757420736982
:100DB0007A653D3332206E616D653D6574682076DD
:100DC000616C75653D2200223E203C696E70757431
:100DD00020747970653D636865636B626F78206E1F
:100DE000616D653D61662076616C75653D31003CE5
:100DF00062723E416374203C696E707574206E614E
:100E00006D653D65636D642076616C75653D22009E
:100E10003E3C62723E487374203C696E707574206B
:100E20006E616D653D6873742076616C75653D001B
:100E30003E3C3E3C2F73656C6563743E3C62723E83
:100E400056616C203C696E707574206E616D653DF5
:100E50006D6973632073697A653D342076616C75C2
:100E6000653D003E3C3C6F7074696F6E2076616C2E
:100E700075653D33003E3E3C6F7074696F6E207641
:100E8000616C75653D32003E4E6F726D3C6F7074E3
:100E9000696F6E2076616C75653D31004D6F6465DC
:100EA000203C73656C656374206E616D653D6D3EBD
:100EB0003C6F7074696F6E2076616C75653D3000B3
:100EC0003C2F73656C6563743E003E414443003CB7
:100ED0006F7074696F6E2076616C75653D32003E8F
:100EE000493243003E4453656E3C6F7074696F6EC7
:100EF0002076616C75653D34003E4F75743C6F70B3
:100F000074696F6E2076616C75653D33003E496E85
:100F10003C6F7074696F6E2076616C75653D310051
:100F20003E4E433C6F7074696F6E2076616C7565E0
:100F30003D300054797065203C73656C65637420A6
:100F40006E616D653D7074793E3C6F7074696F6E53
:100F50002076616C75653D32353500706E207661A6
:100F60006C75653D002F3E003C62723E3C6120681E
:100F70007265663D2F25732F3F70743D256426658D
:100F800078743D25643E5025643C2F613E003C62F0
:100F9000723E2D2D20506F72747320457874202876
:100FA0005043413936383529202D2D003C62723EA0
:100FB0003C6120687265663D2F25732F3F70743D3C
:100FC0002564266578743D25643E502564202D20D7
:100FD0000029202D2D003038003137003C62723E50
:100FE0002D2D20506F7274732045787420284D4346
:100FF00050323330002F00222C22636E74223A22AA
:10100000002F0068756D3A002F0074656D703A000E
:10101000203C696E70757420747970653D737562DB
:101020006D69742076616C75653D7365743E3C2F07
:10103000666F726D3E0050574D3A203C696E707578
:1010400074206E616D653D6570776D2076616C759D
:10105000653D25642073697A653D333E006578748B
:101060002076616C75653D25643E00707420766164
:101070006C75653D25643E002F3E003E4F75743C07
:101080002F73656C6563743E003E496E3C6F7074EF
:10109000696F6E2076616C75653D310054797065BD
:1010A000203C73656C656374206E616D653D65748D
:1010B000793E3C6F7074696F6E2076616C75653D2A
:1010C00030006578742076616C75653D25643E005E
:1010D00070742076616C75653D25643E002F3E007E
:1010E0003C2F613E2000303E003C2F613E2000310D
:1010F0003E003C6120687265663D2F25732F3F706E
:10110000743D2564266578743D256426636D643DD1
:1011100025646525643A002F003A303E4F46463C30
:101120002F613E3C62723E004200410026636D64C6
:101130003D002F3F70743D003A313E4F4E3C2F61D1
:101140003E203C6120687265663D2F0042004100F0
:1011500026636D643D002F3F70743D00423A2000CD
:10116000413A20002F004E412F4E41002F003E20DB
:101170003C696E70757420747970653D7375626D2D
:1011800069742076616C75653D6368616E67653E64
:101190003C2F666F726D3E003E50574D2028302D1B
:1011A000323535293A203C696E707574206E616D58
:1011B000653D70776D2073697A653D332076616C8B
:1011C00075653D0070742076616C75653D002F3E3D
:1011D000003C62723E3C666F726D207374796C6580
:1011E0003D646973706C61793A696E6C696E6520F3
:1011F000616374696F6E3D2F00504341004D435051
:10120000003C62723E003C62723E6C75783A003C73
:1012100062723E6C75783A003C62723E6C75783A48
:101220000074656D703A007B2274656D70223A001F
:101230002F68756D3A002C202268756D223A007473
:10124000656D703A007B2274656D70223A002F0044
:101250003E4261636B3C2F613E3C62723E50003403
:10126000003300312670743D002F3F63663D007DE2
:101270007D003B002C003A00220022007B006275BA
:1012800073790062757379227D00446F6E65002664
:10129000616C6C3D006D6469643D003F00485454CE
:1012A000502F312E302034303120556E61757468E6
:1012B0006F72697A65640D0A0D0A556E61757468FE
:1012C0006F72697A65640054727920687474703A38
:1012D0002F2F69702F707764002F002F002F002FA1
:1012E000002F002F005025643A200049503A202555
:1012F00064202E202564202E202564202E202564A5
:1013000000485454502F312E3020323030204F4B73
:101310000D0A436F6E74656E742D547970653A20B2
:10132000746578742F68746D6C0D0A507261676D06
:10133000613A206E6F2D63616368650D0A0D0A00C6
:101340002892A5ACAFA5E0290082EBAAAB0082AA47
:10135000AB202020004F4646004F4E00494E004F24
:10136000555400223E3C62723E003E3C62723E009A
:101370003C62723E00207C203C6120687265663DC4
:101380002F003C6120687265663D2F003E0020639F
:101390006865636B6564003C696E70757420747970
:1013A00070653D68696464656E206E616D653D00C1
:1013B0003C62723E3C696E70757420747970653D54
:1013C0007375626D69742076616C75653D536176E5
:1013D000653E3C2F666F726D3E003C666F726D20FD
:1013E000616374696F6E3D2F002073656C65637473
:1013F000656400160000000000000000000000000E
:1014000000000000000000000000000000000000DC
:101410000000000016580000000016B00007080188
:10142000000000162401167C0116D401162C0216A9
:10143000840216DC02163403168C0316E403163CF1
:10144000040F940409D0040BF40400000000000011
:10145000000000000000000000000000000000008C
:10146000000000000000000000000000000000007C
:10147000000000000000000000000000000000006C
:10148000000000000000000000000000000000005C
:10149000000000000000000000000000000000004C
:1014A00000000000000000003E0000003E000000C0
:1014B0003E0000003E0000003E0000003E00000034
:1014C0003E0000003E0000FEFF1F00FEFF1F00FE6A
:1014D000FF1F00FEFF1F00003E0000003E00000056
:1014E0003E0000003E0000003E0000003E00000004
:1014F0003E0000003E000000000000000000000070
:1015000000000000000000000000000000000000DB
:101510000000000000000000000000003E0000008D
:101520003E0000003E0000003E0000003E000000C3
:101530003E0000003E0000003E0000003E000000B3
:101540003E0000003E0000003E0000003E000000A3
:101550003E00000000FE000000FE000000FE000053
:1015600000FE000000FE000000FE000000FE00F093
:10157000FF0000FEFF0700FFFF0FC0FFFF3FC0FF9F
:10158000FF3FE0FFFF7FE0FFFF7FF00F00FFF00372
:1015900000FCF00100F8F00100F8F00100F8F001A3
:1015A00000F8F00300FCF00F00FFE0FFFF7FE0FF1A
:1015B000FF7FC0FFFF3FC0FFFF3F00FFFF0F00FEA8
:1015C000FF0700F0FF000000000000000000000026
:1015D0000000001E00F8001E00F8001E00F8001EAB
:1015E00000F8001F00F8001F00F8C0FFFFFFE0FF39
:1015F000FFFFE0FFFFFFE0FFFFFFE0FFFFFFE0FF77
:10160000FFFFE0FFFFFF000000F8000000F800000F
:1016100000F8000000F8000000F8000000F80000EA
:101620000000000000F8C00F00F8E00700FCE00731
:1016300000FEE00300FFF00380FFF001C0FFF001B7
:10164000C0FFF001E0FFF001F0FFF001FCFBF00350
:10165000FEF9F087FFF8F0FF7FF8E0FF7FF8E0FF8A
:101660003FF8C0FF1FF8C0FF07F880FF03F800FE37
:1016700000F8000000F8000000000000000000007A
:10168000003FC00F007EE007007EE003007CE00327
:1016900000FCF00100F8F0810FF8F0810FF8F08104
:1016A0000FF8F0810FF8F0810FF8F0C30FFCF0FF96
:1016B0001FFEF0FFFF7FE0FFFF7FE0FFFD7FC0FF29
:1016C000FC3F807FFC1F001FF80F0000E0030000BC
:1016D000F0030000F8030000FE030000FF03008099
:1016E000FF0300E0EF0300F0E70300F8E10300FE72
:1016F000E003007FE003C01FE003E00FE003E0FF32
:10170000FFFFE0FFFFFFE0FFFFFFE0FFFFFFE0FF65
:10171000FFFFE0FFFFFFE0FFFFFF0000E00300002E
:10172000E0030000E003000000000000003FE0FFD5
:101730000F7EE0FF0F7EE0FF0F7CE0FF07FCE0FF85
:1017400007F8E0FF07F8E0FF07F8E0C307F8E0C399
:1017500007F8E0C307F8E0C30FFCE0C30FFCE0C3E9
:101760001FFEE0C3FF7FE083FF7FE083FF3FE003D6
:10177000FF3FE003FF1FE003FE0F0000F80300C07F
:10178000FF0000F8FF0700FCFF0F00FFFF1F80FFB6
:10179000FF3F80FFFF7FC0FFFF7FE09F03FFE0C7A9
:1017A00003FCE0C703F8F0E303F8F0E103F8F0E12D
:1017B00003F8F0E107FCF0E10FFEF0E1FF7FF0E15C
:1017C000FF7FF0C1FF3FF0C3FF3FF083FF1F00002A
:1017D000FF070000FC0100000000E0030000E00340
:1017E0000080E00300E0E00300F0E00300FCE00321
:1017F00000FFE003C0FFE003F0FFE003F8FFE003B9
:10180000FE7FE083FF1FE0E3FF0FE0F3FF03E0FF55
:10181000FF00E0FF3F00E0FF0F00E0FF0300E0FFFC
:101820000100E07F0000E01F0000E0070000000072
:10183000C007003EF01F80FFF83FC0FFF93FC0FF28
:10184000FD7FE0FFFF7FE0FFFFFFF0FF1FFEF0E303
:1018500007FCF0C10FF8F0C10FF8F0C10FF8F081EC
:101860001FF8F0831FFCF0FF3FFCE0FFFF7FE0FF6D
:10187000FF7FE0FFFE7FC0FFFC3F807FFC1F001F5B
:10188000F80F0000E00700FC010000FF070080FFE8
:101890000FFCC0FF1FFCC0FF1FF8E0FF3FF8E0FF98
:1018A0003FF8F0873FF8F0033FF8F0013EF8F00111
:1018B0003EFCF0013EFCF0011E7EF0031E7FF00FA7
:1018C000CE7FE0FFFF3FE0FFFF1FC0FFFF1FC0FF15
:1018D000FF0F00FFFF0300FEFF0000F01F00003EAF
:1018E000000080FF0000C0FF0100E0FF0300E0E314
:1018F0000300F0C10700F0800700F0800700F080CF
:101900000700F0C10700E0E30300E0FF0300C0FFB1
:10191000010080FF0000003E00000000000000F811
:10192000037F00F8037F00F8037F00F8037F00F8CF
:10193000037F00F8037F00F8037F00000000000031
:101940000000000000000000000000000000000097
:101950000000000000000000000000000000000087
:101960000000000000000000000001000003020071
:101970000808000618000B2400083A00014A000479
:101980004C00045400055C000766000274000578F2
:1019900000018200068400069000059C0006A60057
:1019A00006B20007BE0006CC0006D80006E400061A
:1019B000F00006FC00010801020A01070E01071CE5
:1019C00001072A010538010B42010758010666018B
:1019D000077201078001068E01069A0107A601071A
:1019E000B40103C20105C80106D20106DE0109EAFD
:1019F0000107FC01080A02061A020826020736023D
:101A0000074402075202076002076E020B7C0207BE
:101A1000920207A00207AE0203BC0206C20203CE76
:101A20000209D40208E60202F60206FA02060603DA
:101A3000061203061E03062A0305360306400306A4
:101A40004C03015803045A03056203016C03096E39
:101A500003068003068C0306980306A40304B00360
:101A600005B80304C20306CA0306D60309E2030548
:101A7000F40306FE03050A04051404011E040520F0
:101A800004082A04063A04074604065404066004BF
:101A9000066C04097804068A040B960406AC040755
:101AA000B80407C60406D40409E00409F2040704D4
:101AB00005081205072205063005073C05074A05FB
:101AC0000758050966050778050886050796050B7A
:101AD000A4050CBA0509D2050AE40506F8050704B1
:101AE000060B1206072806063606064206064E06AE
:101AF000055A06076406067206097E060590060664
:101B00009A0606A60606B20607BE0607CC0606DA41
:101B10000606E60606F20606FE06060A070516078C
:101B2000062007092C07053E070748070656070940
:101B300062070A740707880707960705A40706AE19
:101B40000709BA0706CC0706D8071BF00078000083
:101B5000007802000E4003C002700E4003C0027005
:101B6000004010C011207FF8122012200C2000E04D
:101B700001101110091006E001000EC01120111013
:101B800011000E000EE01110111011100AE00C00EF
:101B90001200110000780F8030604010800880082B
:101BA000401030600F800050002000F800200050EE
:101BB0000100010001000FE00100010001004000F0
:101BC0003800010001000100010001001800600060
:101BD000180006000180006000180FE010101010BF
:101BE000101010100FE0102010201FF01000100037
:101BF0001860141012101210111010E008201010AC
:101C00001110111011100EE003000280024002209A
:101C10001FF002000200080011F011101110111045
:101C20000E100FC010A01090109010900F00001018
:101C300000101C10031000D000300EE01110111025
:101C4000111011100EE001E01210121012100A1003
:101C500007E018C0400038C00200050005000880F9
:101C600008801040104004800480048004800480B8
:101C700004800480104010400880088005000500A2
:101C80000200002000101B10009000600F80104028
:101C900020204F905050505050505FD01020104096
:101CA0000F801800070004C0043004C007001800AB
:101CB0001FF011101110111011E00E0007C00820C4
:101CC000101010101010101008201FF0101010101D
:101CD00010101010082007C01FF011101110111063
:101CE000111011101FF0011001100110011000104F
:101CF00007C0082010101010121012101E201FF024
:101D0000010001000100010001001FF010101FF090
:101D1000101010001000101010100FF01FF0010034
:101D200002800440082010101FF010001000100066
:101D3000100010001FF0003000C003000C00030072
:101D400000C000301FF01FF0003000C0010006008E
:101D500018001FF007C008201010101010101010ED
:101D6000082007C01FF0021002100210021001E04C
:101D700007C008201010101010103010482047C065
:101D80001FF0021002100210051008E0100008E019
:101D9000111011101110111011100E200010001050
:101DA00000101FF000100010001007F008001000D5
:101DB00010001000080007F00070018006001800F5
:101DC00006000180007000F007001800060001C046
:101DD000003001C006001800070000F01830044071
:101DE0000280010002800440183000100060018071
:101DF0001E00018000600010181014101210111045
:101E00001090105010307FF8400840080018006013
:101E10000180060018006000400840087FF80100BB
:101E200000800040002000100020004000800100E1
:101E300040004000400040004000400040004000A2
:101E4000000800100C0012401240124012401F8087
:101E50001FF810801040104010400F800F8010407D
:101E600010401040104008800F801040104010407B
:101E700008401FF80F8012401240124012400B80A1
:101E800000401FF00048004800080F80904090403C
:101E9000904088407FC01FF8008000400040004014
:101EA0001F801FC88000800080407FC81FF802008C
:101EB0000500088010401FF81FC00080004000404F
:101EC0001F800080004000401F801FC00080004035
:101ED000004000401F800F80104010401040104014
:101EE0000F80FFC010801040104010400F800F8006
:101EF0001040104010400840FFC01FC0008000404C
:101F0000004011801240124012400C4000400FF07F
:101F1000104010400FC010001000100008001FC03B
:101F200000C0070018001800070000C000C007002C
:101F30001800070000C007001800070000C018C004
:101F400005000200050018C000C0870078001800D6
:101F5000070000C0184014401240114010C001009A
:101F600001003EF0400840087FF8400840083EF07D
:101F70000100010003000080008001000100020058
:101F8000020001801FF01114111011101114111012
:101F90001800070004C0043004C0070018001FF038
:101FA00011101110111011100E001FF0111011104E
:101FB000111011E00E001FF00010001000100010B2
:101FC000001070001800170010F010101010101002
:101FD0001FF070001FF011101110111011101110CE
:101FE0001010081004E0030001001FF001000300BE
:101FF00004E008101010082010101110111011101A
:102000000EE01FF008000600010000C000201FF0D5
:102010001FF008020604010400C400221FF01FF094
:102020000100030004E008101010100010000FF071
:10203000001000100010001000101FF01FF0003002
:1020400000C003000C00030000C000301FF01FF0B0
:10205000010001000100010001001FF007C008207D
:102060001010101010101010082007C01FF00010E2
:1020700000100010001000101FF01FF002100210DE
:102080000210021001E007C00820101010101010FC
:10209000101008200010001000101FF00010001099
:1020A0000010103010C013000C00030000C00030FE
:1020B00003800440082008201FF008200820044066
:1020C0000380183004400280010002800440183070
:1020D0001FF0100010001000100010001FF0700022
:1020E00001F0020002000200020002001FF01FF0D7
:1020F00010001000100010001FF010001000100061
:1021000010001FF01FF010001000100010001FF052
:1021100010001000100010001FF0700000100010E0
:1021200000101FF011001100110011000E001FF02F
:10213000110011001100110011000E00000000003C
:102140001FF01FF011001100110011000E000820F7
:102150001110111011101110092007C01FF00100FB
:10216000010007C0082010101010101010100820D7
:1021700007C0100009E006100210021002101FF044
:102180000C0012401240124012401F800FE010500D
:102190001048104810480F881FC0124012401240CB
:1021A00012400D801FC00040004000400040700001
:1021B0001C0013C0104010401FC070000F80124060
:1021C0001240124012400B8010400840058002006F
:1021D0001FC00200058008401040088012401240D5
:1021E00012400D801FC004000200010000801FC0CB
:1021F0001FC004080210011000881FC01FC0020089
:102200000200058008401040100010000FC0004080
:10221000004000401FC01FC00080010006000100F8
:1022200000801FC01FC002000200020002001FC089
:102230000F8010401040104010400F801FC0004021
:102240000040004000401FC0FFC010801040104000
:1022500010400F800F801040104010401040088048
:10226000004000401FC00040004000C087007800D0
:102270001800070000C00F80104010401040FFF809
:102280001040104010400F8018C0050002000500EB
:1022900018C01FC010001000100010001FC07000F8
:1022A00003C004000400040004001FC01FC010008D
:1022B000100010001FC01000100010001FC01FC031
:1022C0001000100010001FC01000100010001FC0F0
:1022D0007000004000401FC01100110011000E00EE
:1022E0001FC01100110011000E0000001FC01FC010
:1022F0001100110011000E00088010401240124021
:1023000012400F801FC0020002000F8010401040DA
:10231000104010400F8011800A40064002400240E9
:102320001FC00F8012501240124012500B802F63BA
:102330006D64004D5149736470000D0A436F6E74F3
:10234000656E742D547970653A206170706C6963A4
:102350006174696F6E2F782D7777772D666F726D48
:102360002D75726C656E636F6465640D0A0D0A00ED
:10237000436F6E74656E742D4C656E6774683A2099
:10238000000D0A557365722D4167656E743A2074AD
:1023900067722F312E310D0A4163636570743A20E4
:1023A0002A2F2A0D0A436F6E6E656374696F6E3A49
:1023B00020636C6F73650D0A000D0A0020485454A9
:1023C000502F312E310D0A486F73743A2000504F50
:1023D000535420000D0A557365722D4167656E7464
:1023E0003A206D656761640D0A4163636570743AF4
:1023F00020746578742F68746D6C0D0A0D0A0020C6
:10240000485454502F312E310D0A486F73743A20BE
:102410000047455420000001080006040001450063
:10242000008200004000200011241FBECFEFD1E247
:10243000DEBFCDBF00E00CBF17E0A0E0B2E0EAE7EE
:10244000F6E601E00BBF02C007900D92AC3BB1076E
:10245000D9F721E1ACEBB7E001C01D92A43BB20774
:10246000E1F70E94D0370C943BB30C94000010921B
:10247000B0091092AF098FEF8093210208950F9356
:102480001F93CF93DF93EB0140E350E0BC018FE952
:1024900090E10E948CAF62EC72E08FE990E10E94C3
:1024A00030AF1092D7102091D7102430C8F4009785
:1024B000B9F08E01020F111D4AE050E060E070E0BB
:1024C0000E94E9ADF80160838091D7108F5F8093FF
:1024D000D71062EC72E080E090E00E9430AFE3CF72
:1024E000822FDF91CF911F910F910895613049F4B0
:1024F000DA01E2E7F2E08D91819382E0E837F807B4
:10250000D1F70895623049F4DA01ECEBFFE08D91E8
:1025100081938FE0E23CF807D1F70895E0913E10F7
:10252000F0913F10908121E030E0082E01C0220F91
:102530000A94EAF7922B90830895E0913810F09175
:102540003910208181E090E000901A0202C0880FCB
:10255000991F0A94E2F7282B2083089570E0DC018C
:1025600011964C91119750E09B012250310942176E
:10257000530799F41696EC9163507109F0E0E61751
:10258000F7075CF4E80FF91F8781805A843028F43C
:102590009285915081E0943008F080E00895FC012C
:1025A000CB0120812033E1F42481211119C0258140
:1025B0002430B1F4DB010D900020E9F7AD0141506A
:1025C0005109461B570B268130E04217530741F44F
:1025D000BF01695F7F4F0E947EAF21E0892B09F028
:1025E00020E0822F0895FC013681E30FF11D9781D1
:1025F00080E6890F823078F42285E20FF11D81890F
:10260000803349F481E1830F820FFB018083903A8C
:1026100021F481E0089580E0089582E0089542E089
:10262000242F30E0662341F0FC01E20FF31F2181EB
:102630002E5F420F6150F4CF820F931F0895FF92D7
:102640000F931F93CF93DF93EC0188818033C1F404
:10265000098180E010E09EEFF92E202F30E0281B4A
:1026600031092330310554F09F2D981B090F612F3C
:10267000CE01D5DFFC0181811F5FEFCF812F01C02B
:1026800080E0CDB7DEB7E5E00C94AAACCF93DF9342
:10269000EA01C5DFFC0183819581963079F496814A
:1026A000913061F48350883048F43796DE01982FDA
:1026B000992329F021912D939150FACF80E0DF9159
:1026C000CF910895A4E0B0E0E8E6F3E10C9490AC7B
:1026D00019821A821B821C8224E0298321E02A832A
:1026E0002AE22B83FC01DE01119620E030E0462F28
:1026F00050E0241735075CF411917D91711768F053
:10270000171768F02F5F3F4F2330310591F7643082
:1027100030F0FC0183818F5F03C08FEF01C080E048
:102720002496E3E00C94ACACA8E0B0E0EAE9F3E175
:102730000C948BAC7C01C62E8A01D12CDC1491F058
:10274000AE014F5F5F4F6D2DC701A0DF682FCE0137
:102750000196B8DFF80181938F01D394883070F32C
:102760008D2D01C080E02896E8E00C94A7ACA8E08D
:10277000B0E0EDEBF3E10C948BAC7C01C62E8A014A
:10278000D12CDC14E9F0AE014F5F5F4F6D2DC70116
:102790007DDFFE01E80FF11D9081F80191938F011B
:1027A000D394843079F48981843061F48A818130D2
:1027B00049F48B818A3231F48C81883010F302C065
:1027C00080E001C08D2D2896E8E00C94A7ACDC01D8
:1027D0001696EC911697F0E0AE0FBF1F22EA1796FF
:1027E0002C9317971A962C91E20FF11DE80FF91F01
:1027F0006587408B0895EF920F931F93CF93DF93DC
:10280000FC0180E3808386E0828393E0940F9383CE
:102810009BE29483858381E08683EF012796DB0129
:10282000460F8A2F861B4A1719F08D918993F9CF8D
:10283000EF01C80FD11D2F83E886875FD80120E004
:1028400030E0AF01480F511DE21641F09D91EA01C1
:10285000C20FD31F98832F5F3F4FF6CF8E0D9EEF91
:10286000980F9183DF91CF911F910F91EF90089571
:10287000A6E0B0E0EEE3F4E10C9483AC6C01F62E3C
:102880003A0184E0898381E08A838AE28B831C8217
:10289000512C412C822E912CA62EB12C82E0A80E18
:1028A000B11C852D992787FD9095881599050CF009
:1028B00055C0F301E80FF91F40814C8350E04830C8
:1028C000510508F049C0FA01EA59FF4F042D10E004
:1028D0000C9456ACC501800F911F3AE0E32E04EC36
:1028E00012E027C0C501800F911FEE24E3940EEB88
:1028F00017E029C0C501800F911FEE24E3940EE07C
:1029000012E021C06FEC72E002C066ED72E08DE86B
:102910009BE00E9477AFEDE8FBE001900020E9F733
:102920003197ED58FB40C501800F911FEE2E0DE849
:102930001BE024E009C0C501800F911F22E0E22EB8
:102940008E010B5F1F4F22E044E0BE016F5F7F4F9F
:102950008C0D9D1D50DF480E5394A3CFF601EF0D53
:10296000F11D4182842D8F0DF60181839681E90F3F
:10297000F11D92EA97839285965F940D90878E5F02
:102980002696E0E10C949FACCF93C82F6AED72E0DD
:102990008CE491E10E9477AF909109119F5F923092
:1029A00038F069E071E18CE491E10E9477AF18C0E2
:1029B00080917F021F928F932CE431E13F932F93FC
:1029C00041EE52E05F934F933F932F930E9429B0C3
:1029D0008DB79EB708960FB6F8949EBF0FBE8DBFF9
:1029E000CF3FB1F01F92CF938CE491E19F938F93EF
:1029F00026EE32E03F932F939F938F930E9429B04E
:102A00008DB79EB708960FB6F8949EBF0FBE8DBFC8
:102A1000CF910895F894E0913810F0913910908199
:102A200021E030E001C0220F8A95EAF7322F30957D
:102A300093239083E0913E10F0913F108081822B90
:102A400080838BED95E00197F1F700C00000E091E5
:102A50003E10F0913F10808183238083EAEDF0E007
:102A60003197F1F700C0E0913211F091331180817C
:102A7000E1E0F5E03197F1F7789482230895F89436
:102A8000E0913810F0913910408121E030E0062EBD
:102A900001C0220F0A94EAF7922F909549234083B0
:102AA000E0913E10F0913F103081322B308329E2CB
:102AB0002A95F1F700C0882339F0E0913E10F0919B
:102AC0003F1080818923808385EE8A95F1F700008D
:102AD000E0913E10F0913F108081892380837894AB
:102AE0000895F894E0913810F0913910908121E028
:102AF00030E0082E01C0220F0A94EAF7322F3095F9
:102B000093239083E0913E10F0913F109081922B9F
:102B1000908395E19A95F1F7E0913E10F0913F1086
:102B200090819323908395E29A95F1F700C0E0910C
:102B30003211F0913311208190ED9A95F1F7000058
:102B4000789430E002C0359527958A95E2F7822F78
:102B5000817008951F93CF93DF93D82F162FC9E06C
:102B6000C15031F0612F8D2F817089DFD695F8CF5C
:102B7000DF91CF911F9108951F93CF93DF93182F6B
:102B8000D9E0C0E0D15049F0812FABDF20E8829F2F
:102B9000C0011124C695C82BF5CF8C2FDF91CF91A2
:102BA0001F910895EF92FF920F931F93CF93DF939E
:102BB000182FF62EEA01E22E2DDF811163C0612F5E
:102BC000F11003C08CECC6DF09C085E5C3DF00E06F
:102BD000612F8991BFDF0F5F0830D1F7612F8EEB36
:102BE000B9DF812FC9DFC82F812FC6DFD82FF110A1
:102BF00012C0812F0FDF612F8CECACDF612F84E4DA
:102C0000A9DFEE2DF0E0EE0FFF1FEE59FE4E2BE98F
:102C100030E031832083E0913E10F0913F109081AD
:102C200021E030E0012E01C0220F0A94EAF7922B36
:102C30009083E0913810F09139109081922B90831D
:102C4000EC2FE295EF702D2F277080E1289F9001E7
:102C50001124E22BCF7041E752E0C49FC001C59F11
:102C6000900D1124D7FF03C0EF578051974264E6BF
:102C700070E00E9405ACCB0124E6E202800D911DBC
:102C8000112402C088EC92E3CDB7DEB7E6E00C94E5
:102C9000A9AC98E02CE8362F3827869530FD82279E
:102CA00066959150C1F70895A1E0B0E0EAE5F6E13C
:102CB0000C948BACF82E6983ADDE6981662301F13B
:102CC0006F2D85E547DF6F2D8AE344DF6AE380E0FF
:102CD000E0DFE82E57EAC52E5FE0D52E86016F2D86
:102CE000F60181916F0136DFF80160818E2DD1DF11
:102CF000E82EFDEACF16FFE0DF0681F76F2D02C058
:102D00006F2D8CEC27DF6F2D85EF24DF04E08F2DF6
:102D100033DF182F1F7082958F70482F50E0212FBE
:102D200030E0209530952F7033274217530711F468
:102D300000E003C0015059F70FEF8F2D6BDE0F3FFE
:102D400009F41FEF812F2196E8E00C94A7ACA0E0D6
:102D5000B0E0EDEAF6E10C9489ACF82EB42E862FA3
:102D60008C6FE82E64E0D62EA82EA0948F2D52DE14
:102D70006F2DBB20D1F085E5EDDE6F2D8AE3EADE15
:102D80006AE380E086DFC82EC7EADFE08E016F2DA0
:102D90008991E0DEF80160818C2D7BDFC82EFFE099
:102DA000CD3ADF0799F76F2D01C08CECD3DE6F2D84
:102DB0008AE5D0DE6F2D8E2DCDDE6F2D8A2DCADEF9
:102DC0008F2DDADEC82F8F2DD7DECA3A19F0DA94AC
:102DD00009F0CCCF8F2D1EDECDB7DEB7EAE00C9424
:102DE000A5AC41E053E160E070E086EA9BE00C9422
:102DF000B78FDC012C912F3229F5FC01319680E050
:102E0000BF019191903231F09F3221F0BF018F5F6D
:102E10008630B1F790E0681B790BE5EBFFE0DF014E
:102E20000D900020E9F7AD0141505109455B5F402D
:102E30004817590739F4CF010E947EAF892B11F44E
:102E400081E008958FEF08958234A1F4673019F47A
:102E50008CE890E01FC0663019F48AE890E01AC050
:102E6000653019F488E890E015C06430B9F483EB5C
:102E700090E010C0853491F4633019F488E990E053
:102E800009C0643019F48AE990E004C0653031F477
:102E90008CE990E09093D0108093CF100895863401
:102EA00019F481E390E01DC0853419F48EE290E0BE
:102EB00018C0823419F485E290E013C0873419F405
:102EC00084E390E00EC0843419F48BE290E009C0F2
:102ED000813419F482E290E004C0833431F488E252
:102EE00090E090933611809335110895863479F4EB
:102EF00081E390E0909339108093381080E390E064
:102F000090933F1080933E108FE290E065C085342F
:102F100079F48EE290E090933910809338108DE22E
:102F200090E090933F1080933E108CE290E054C06C
:102F3000823479F485E290E09093391080933810D0
:102F400084E290E090933F1080933E1083E290E003
:102F500043C0873479F484E390E0909339108093F0
:102F6000381083E390E090933F1080933E1082E30B
:102F700090E032C0843479F48BE290E09093391081
:102F8000809338108AE290E090933F1080933E1037
:102F900089E290E021C0813479F482E290E090935C
:102FA00039108093381081E290E090933F10809325
:102FB0003E1080E290E010C0833491F488E290E00B
:102FC000909339108093381087E290E090933F10EF
:102FD00080933E1086E290E09093331180933211FB
:102FE0000895A1E0B0E0E7EFF7E10C9490AC182F62
:102FF000862F49837BDF4981113319F4842F8EDAC0
:103000000EC0E0913E10F0913F10808121E030E051
:1030100001C0220F4A95EAF72095282320832196A4
:10302000E3E00C94ACACCF93C82F833038F580919B
:103030001C0235DFC13089F4E0913511F091361171
:10304000208181E090E00090450802C0880F991F20
:103050000A94E2F7282B208328C0C23079F4E0914B
:103060003511F0913611208181E090E00090450803
:1030700002C0880F991F0A94E2F714C0C33011F4FC
:103080005CDA13C0C43089F4E0913810F091391043
:10309000208181E090E000901A0202C0880F991F01
:1030A0000A94E2F7809582238083CF910895CF938D
:1030B000C82F80911B021ADFC13079F4C0914508F6
:1030C00080911C0213DF8C2F29DAC0911A028091A3
:1030D0001B020CDF8C2F22DA15C0C23061F0C43025
:1030E00079F4C0911A0280911B0200DF8C2F16DA4E
:1030F00024DA81E098DF84E096DF82E094DF05C087
:1031000084E091DF81E08FDF18DACF910895EF92AC
:10311000FF920F931F93CF93DF93E82E80911B02B2
:10312000E5DEC7E0D0E0F12C01E010E022E32A95D3
:10313000F1F7E0913810F091391080911A0297015F
:103140000C2E02C0359527950A94E2F720FF0AC09D
:103150002081A80102C0440F551F8A95E2F7242B55
:1031600020830BC02081A80102C0440F551F8A95FF
:10317000E2F7CA0180958223808381E054DF82E0F8
:1031800052DF84E050DF219788F640911A02609167
:103190001B0280E326DF81E046DFE0913211F091EF
:1031A0003311808190E000901A0202C095958795B6
:1031B0000A94E2F78170992721E08227C82FC17015
:1031C00082E031DF84E02FDFD0911A0280911B0270
:1031D0008DDE8D2FA3D98C2FCDB7DEB7E6E00C9412
:1031E000A9ACEF92FF920F931F93CF93DF93E82E3A
:1031F00040911A0260911B0280E3F3DE80911B0272
:1032000075DE82E010DFC7E0D0E0F12C01E010E0D5
:1032100081E009DFE0913211F0913311208130E03B
:1032200000901A0202C0359527950A94E2F720FD16
:1032300009C098010C2E01C0220F0A94EAF72095CC
:10324000F22207C098010C2E01C0220F0A94EAF75F
:10325000F22A82E0E8DE2197D8F6C0911A02809126
:103260001B0244DE8C2F5AD981E0DDDE81E0E812BA
:1032700002C063D902C084E0D6DE82E0D4DE409191
:103280001A0260911B0280E3ACDE8F2DCDB7DEB752
:10329000E6E00C94A9AC1F93CF93DF93182FEB01BA
:1032A00081E005DF82E003DF80E831DF812F2FDF5F
:1032B0008C2F2DDF8D2F2BDF83E0F9DEDF91CF9177
:1032C0001F910895CF93DF93C82F81E0F0DE82E055
:1032D000EEDE80E81CDF8C2F1ADF83E0E8DE82E080
:1032E000E6DE81E814DF80E07CDFC82F81E079DF53
:1032F000D82F83E0DCDE2D2F30E0922F88278C0F33
:10330000911DDF91CF910895A0E0B0E0EAE8F9E1E6
:103310000C9489ACB82EB6E6CB2EBBE0DB2E03E2D4
:1033200012E0C0E0D0E0E82EF12CC7018E5F954F8F
:103330007C01F60181916F01813051F121960E5F80
:103340001F4FC732D105A9F7EB2DF0E0EE0FFF1F9D
:10335000ED5DFD4F0190F081E02DC191C0933111E1
:10336000CF010E94FAAE809348088C2FBFDDE09118
:103370003810F0913910208181E090E000904808E9
:1033800002C0880F991F0A94E2F7282B20832AC0D5
:10339000DE01A85EB44F8C91833081F6DE01AE5F12
:1033A000B54F9C91F70180819813C8CFF801A08197
:1033B000B181AD90A0923111CD010E94FAAE8093FF
:1033C00048088A2D93DDA0913810B09139102C91C6
:1033D00030E00090480802C0359527950A94E2F73E
:1033E00020FFACCFCDB7DEB7EAE00C94A5ACA1E3EB
:1033F000B0E0EDEFF9E10C9481AC4C016FA34BA769
:103400002E8F86E496E4A0E08E8B9F8BA88F8B8B0B
:103410009C8BAD8B888B998BAA8B1092D71023E055
:103420002CA31D8E19A222242394312C9E01295FE6
:103430003F4F3A8F298F262F30E039A728A7220F38
:10344000331F2458354F3EA32DA33DA72CA7AE0113
:103450004F5F5F4F5C8F4B8F1091D710A12EB12C17
:10346000F40101900020E9F73197E819F909AE1647
:10347000BF0608F09CC6A80CB91CD5012C912A30B7
:1034800049F486E48E8B8F8B1C868B8B8C8B1D8EE8
:1034900019A27BC62A3311F02D3321F43D8D333030
:1034A00009F060C62B3309F45FC6203709F45EC605
:1034B000213609F45DC6253609F45DC6273609F4C0
:1034C0005DC6233709F050C006E61BE039EDA32E98
:1034D00031E0B32E43E2C42E42E0D42E58E1E52E73
:1034E0005BE0F52ED8018D918D01813071F5F601EB
:1034F00080819181DC017D90CD010E94FAAE2C018A
:10350000682F872DA1DC872DF1DCF70180818130C8
:1035100049F4E091CF10F091D01060817181615039
:1035200080F413C0E0913810F0913910808190E060
:10353000042C02C0959587950A94E2F780FF05C098
:1035400060E070E0C5010E9479B2F2E0AF0EB11CFC
:1035500022E0C20ED11C3FEFE31AF30A4BE00D3814
:10356000140709F0BFCF11C6213409F40AC622346A
:1035700009F409C62C3709F41AC62B3209F40BC614
:103580002E3709F40AC62D3209F40AC65D8D511191
:1035900007C08E89863411F02F8BF7C52E8BF5C5A9
:1035A0003D8D373039F48B89863411F02C8BEDC585
:1035B0002B8BEBC55D8D583039F48889863411F03A
:1035C000298BE3C5288BE1C53D8D313041F0343086
:1035D00031F08D8D8550823008F07FC40EC05FA120
:1035E000543659F0E8A5F9A5EA59F44F80818111C4
:1035F00004C0ADA1BEA11D921C928F89863409F42E
:103600001F8ACE0146960E94FAAE2C018AA7082F87
:10361000112707FD10957801EE0CFF1CF701ED5DF9
:10362000FD4F80819181FC017190CF010E94FAAE23
:103630006C01D5018C918E3761F4F701ED59F64F8D
:1036400080819181029719F426E02D8F02C035E028
:103650003D8F6C2D872DF8DB872D48DC6090D710CF
:10366000A62CB12CA4014A0D5B1D5BA34AA3DA0171
:103670008C919801275D354F38A32F8F8E3531F40B
:10368000D9018C9181110CC081E008C0863761F4AA
:10369000AF8DB8A18C91811103C082E08C93F7C3E8
:1036A000EF8DF8A11082F3C38837B1F4AF8DB8A1C4
:1036B0001C9286E48E8B8F8BF801EE0FFF1FEE0FAE
:1036C000FF1FE957F74F1082118212821382F8010F
:1036D000E05BF74F1082E1C3EF8DF8A11082F80193
:1036E000E85EF44F9081913009F0F2C0F801EA5998
:1036F000F44F2081213009F0EBC0960D292F30E0E6
:10370000F40101900020E9F73197E819F9092E1723
:103710003F0758F4F401E20FF31F908126EC290FC4
:10372000223018F09D3309F0C5C059A1252F30E093
:10373000ECE0F0E0EC0FFD1FE20FF31F8083FE01D1
:10374000E20FF31F158682E4781619F095E47912DA
:10375000ABC0CE010C960E94FAAEF701E458F54FCB
:10376000918380832D8D243051F4A091CF10B0919E
:10377000D0108D919C91892B11F011821082C7017C
:10378000865D9D4F0E945DB2F701E653F54F918330
:1037900080833D8D353008F476C0ADA1BEA18D91FA
:1037A0009C91A8A5B9A5A05BB74F009769F58C912E
:1037B000811157C0E091CF10F091D010808191819C
:1037C000892B29F0AAA1BBA18C918E3719F02D8DE0
:1037D000253041F011821082F701ED59F64F318208
:1037E000208262C0D801A05BB74F8C91811102C0CA
:1037F0008FEF8C938C9190E09183808382E090E0B6
:10380000F701ED59F64F4EC00197D9F5E091CF1071
:10381000F091D0103D8D353049F4808191818F3FFA
:10382000910580F48081918101960AC05D8D5630AA
:1038300049F480819181892B29F0808191810197C0
:103840009183808381E08C9383E090E0ACA5BDA55B
:103850008D939C9380819181F801E05BF74F808389
:1038600023C0813071F4F701ED59F64F80819181C9
:10387000029728F482E090E09183808302C0318235
:1038800020821C9211C0009751F4E091CF10F0916A
:10389000D010D701A458B54F8D919C9103C0F7016A
:1038A000E45BFF4E9183808386E48E8B8F8B1C8636
:1038B00019A2F3C28A3209F4EEC2ECE0F0E0EC0F98
:1038C000FD1F29A1E20FF11D80832F5F29A3E5C20F
:1038D0002889263409F4B2C0CE0140960E94FAAE7F
:1038E000782E66E67BE081EE482E80E1582E43E29A
:1038F00052E0C12CD12C98012D53384F3BA32AA361
:1039000066246394DB018D91BD01813009F07FC095
:10391000F601E85EF44F8081811179C0F601EE5F17
:10392000F54F8081871173C0FA01A080B180C50175
:10393000019648AB59ABAEA77FA70E94FAAE8C01A7
:10394000D5018C91D3DAE0913810F09139102081B3
:10395000112707FD109530E0002E02C03595279500
:103960000A94E2F721708091D710D401A80FB11DFD
:103970008C9148A959A96EA57FA5813359F083334D
:1039800021F43E8D313091F405C0843361F43E8DD5
:10399000311110C03081C101002E01C0880F0A947E
:1039A000EAF7382B1FC0803399F407C03E8D3323CC
:1039B00021F019C03E8D3130B1F43081C101002EAB
:1039C00001C0880F0A94EAF78095832380830BC097
:1039D000823349F43081C101002E01C0880F0A945E
:1039E000EAF738273083E0913810F0913910808160
:1039F00090E0002E02C0959587950A94E2F78170B9
:103A0000821729F0AAA1BBA16C926092EA07F20189
:103A10008081843610F48C598083FFEFCF1ADF0A3F
:103A20002FEF421A520A4E5F5F4F37E2C316D1049E
:103A300009F068CF86E4888B898B29C2923009F01F
:103A40004AC05CA1533009F446C06091A70F8C2D89
:103A50002BD9682F66956B7F8091D710F401E80F02
:103A6000F11D8081813359F0833321F42E8D213073
:103A7000F1F405C0843369F43E8D31111CC091010D
:103A80000CA002C0220F331F0A94E2F72095622394
:103A90001DC0823349F491010CA002C0220F331FD4
:103AA0000A94E2F7622712C0803381F407C05E8D6A
:103AB000552321F00BC02E8D213041F491010CA033
:103AC00002C0220F331F0A94E2F7622B4091A70F26
:103AD0008C2D3DD9DCC1F801EA59F44F2081243006
:103AE00009F052C1F801E15CF44F2081253109F061
:103AF0004DC085E0A98DBA8D1D928A95E9F7CE015A
:103B000043960E94FAAE8C0120E0822F90E0F401EF
:103B1000E80FF91FEA0DFB1D30813B3311F0311125
:103B20002CC08FEF860D820F8093D71070921B02EE
:103B3000C0921A02F701E653F54F0190F081E02D93
:103B4000EE0FFF1FED5DFD4F80819181FC01219102
:103B5000CF0120931C020E94FAAE80934508CE014B
:103B600007960E94FAAEBC01802F880F880F885FED
:103B700092DB86E48B8B8C8B8AC1E7E0F0E0EC0F64
:103B8000FD1FE80FF91F30832F5FBFCF243109F0ED
:103B90007BC0CE0143960E94FAAE5C01D82E709293
:103BA0001B02C0921A02F701E653F54F0190F08113
:103BB000E02DEE0FFF1FED5DFD4F80819181DC0157
:103BC0002D91CD0120931C020E94FAAE80934508EE
:103BD00081E06DDA82E06BDA80E499DAF801EE5F79
:103BE000F54F8081813039F4B7E0BA1520F489E1CE
:103BF0008EDA18E003C089E08ADA10E083E057DA51
:103C000082E055DA81E483DA81E0EBDA082F83E0A1
:103C10004EDA8091D710F401E80FF11D2081BB240A
:103C2000812F90E0A81AB90A213349F4F10102C0AA
:103C3000EE0FFF1FAA94E2F75F01A02A14C02233FF
:103C400049F4910102C0220F331FAA94E2F75901EF
:103C5000A02609C0A10102C0440F551FAA94E2F793
:103C60005A01A094A02281E022DA82E020DA80E4E6
:103C70004EDA112311F089E101C089E048DA8A2D7A
:103C800046DA83E014DA03C1243009F07DC05AA576
:103C9000563259F483E480931C02109245088093B5
:103CA0001B0281E080931A0219C070921B02C0921D
:103CB0001A02F701E653F54F0190F081E02DEE0F67
:103CC000FF1FED5DFD4F80819181DC012D91CD01C4
:103CD00020931C020E94FAAE8093450881E0E7D948
:103CE00082E0E5D92091D710FE013C9680E090E07B
:103CF000A401420F511D9A01482FD901A80FB91FE5
:103D00005C915B3341F0552331F051930196833040
:103D1000910591F743E0ECE0F0E0EC0FFD1FE40FBC
:103D2000F11D1082CE010C960E94FAAE182F82303F
:103D300079F489E7ECD981E054DA082F83E0B7D928
:103D400011E0033009F410E081E0B1D982E0AFD98D
:103D500088E7DDD980E0DBD9113011F48FEA09C0A2
:103D6000111102C08EEA05C01F3F21F081E8CFD9B2
:103D7000812FCDD982E09BD981E08093E009109218
:103D8000DE091092DD0983C0E0913810F0913910FE
:103D90002081DD24C7FCD09430E00C2C02C0359586
:103DA00027950A94E2F7522F5170B52E813359F0BE
:103DB000833321F42E8D2130D1F405C08433A1F456
:103DC0003E8D311118C0933031F4D801AE5FB54F3C
:103DD0008C918F3F91F52081C1010C2C01C0880F7F
:103DE0000A94EAF7282B34C0803341F012C05E8D6C
:103DF000552321F02EC02E8D213059F52081C1018F
:103E00000C2C01C0880F0A94EAF7809582238083E6
:103E100020C08233F1F4933099F4D801AE5FB54FEE
:103E20008C918F3F69F0808190E00C2C02C09595B9
:103E300087950A94E2F780FD03C0842D65DA09C0F6
:103E40002081C1010C2C01C0880F0A94EAF72827B1
:103E50002083E0913810F0913910808190E00C2C93
:103E600002C0959587950A94E2F781708B1539F019
:103E700081E0F801ED53F84F80838093EA07F80161
:103E8000EF51FF4E8081843610F48C59808386E494
:103E90008E8B8F8B02C034E03D8FAF8DB8A18C919B
:103EA00018160CF072C12091D710F401E20FF11D29
:103EB000818190ED980FF701E458F54F9A3050F456
:103EC000992787FD9095C097918380832F5F2093DA
:103ED000D7105BC11182108258C13D8D323009F07C
:103EE00055C059A1852F90E0E1E0F0E0EC0FFD1FF7
:103EF000E80FF91F2083FE01E80FF91F12825F5FB0
:103F000059A381E0810F90E0F40101900020E9F7CE
:103F10003197E819F9098E179F0758F4F401E80F53
:103F2000F91F808196EC980F923018F08D3309F0CC
:103F30002CC11E5F3BA5130F173108F026C15FA1EE
:103F4000E52EF12C4AE050E060E070E0CE010196F1
:103F50000E94E9AD9B01AC01F701EE0FFF1FEE0FD0
:103F6000FF1FE957F74FA4E1B0E00E9471AC6083F6
:103F7000718382839383F701E05BF74F108385E0C1
:103F8000AB8DBC8D1D928A95E9F711C12D8D233023
:103F900009F0FBC01F5F1093D71023E232E038A373
:103FA0002F8F26E63BE03BA32AA311EEC12E10E1A2
:103FB000D12E02E0602E0AE0702E00E010E04424D2
:103FC0004A94512C93E0A92EAF8DB8A18D919D916B
:103FD000B8A3AF8FFC01B190CF010E94FAAE7C0173
:103FE0008B2D0E947617AAA1BBA18D91BBA3AAA37A
:103FF000813009F0AAC0F801E85EF44F8081823078
:10400000F9F48091D710F401E80FF11D808181331C
:1040100009F4C9C0803309F4C8C0823309F095C0DF
:1040200060E08E2D0E945416682F66956B7F6A257E
:10403000643008F08AC040E08E2D0E94A71685C02B
:10404000813049F56E2D8B2D0E9424178091D71059
:10405000F401E80FF11D8081803329F4E091CF1045
:10406000F091D01012C0813329F4E091CF10F0917B
:10407000D0100EC0823309F068C0E091CF10F091EB
:10408000D01080819181892B19F0118210825DC03E
:10409000518240825AC09091D710F401E90FF11D6E
:1040A00090819133A1F4833021F4F30180818F3F1B
:1040B000C9F5E0913810F09139108081910102C06A
:1040C000220F331FEA94E2F77901822B37C0903335
:1040D00081F4E0913810F09139108081A10102C083
:1040E000440F551FEA94E2F77A01E094E822E08257
:1040F00026C0923321F5E0913810F0913910FF2459
:10410000E7FCF094833089F4D3018C918F3F69F000
:10411000808190E00E2C02C0959587950A94E2F775
:1041200080FD03C0802FF0D80AC08081910102C0B9
:10413000220F331FEA94E2F7790182278083D601A8
:104140008C91843610F48C598C930F5F1F4FBFEF06
:10415000CB1ADB0AEFEF6E1A7E0A0632110509F060
:1041600033CF13C021E008C01D8E0FC032E007C05E
:1041700053E05D8F0AC027E02D8F07C038E03D8FE8
:1041800004C01CA202C051E05CA38091D7108F5FD5
:104190008093D71061C935E004C055E05D8F19CA1E
:1041A00036E03D8F16CA60E046CF63E044CFE1962B
:1041B000E2E10C949DACAFE1B0E0E1EEF0E20C94F2
:1041C0008CAC322F273240F4E22FF0E0EE0FFF1FCD
:1041D000ED59F64F11821082DE0111967D015E9637
:1041E000F7011192EA17FB07E1F7032F10E03732CE
:1041F00010F02FEF17C0F801EA59F44F2081233057
:1042000081F4F801E15CF44F2081243051F4F8018D
:10421000EE0FFF1FE45BFF4E0190F081E02DEF2BCE
:1042200041F321E020932102F801E358F04F20816F
:1042300021FF05C0883C910509F0AEC0B0C0883CA4
:10424000910509F056C06A55744FFB0120E0D12C4E
:10425000DF01A61BB70BCA014D3D510510F08CEDD7
:1042600090E0A817B90700F581918D3011F08A30E0
:1042700039F4223039F080818A3051F72F5FE8CF4E
:10428000223081F48F3E49F0982F9B7F9B3B29F091
:10429000D701AD0DB11D8C93D394BCE1BD1520F0B9
:1042A00022E0D6CF20E0D4CFF701ED0DF11D108232
:1042B00089818823F1F08A818436D9F0F701019051
:1042C0000020E9F73197D701AE17BF0761F08D9154
:1042D0008037D1F7B70181EE99E00E9477AF23E0F4
:1042E00040E06CE203C023E040E064E6C7017FD811
:1042F00056C0F801E85EF44F8081811107C0F801D3
:10430000E05BF54F80818F3F61F414C0823039F457
:10431000F801E05BF54F80818E3F19F40BC08130CE
:1043200049F0F801EA59F44F8081811103C08A8174
:104330008436A9F5373298F5F801EA59F44F8081AF
:10434000833029F081E0F801E75DF54F808380E359
:10435000EFE9F0E1DF011D928A95E9F727E1209F5F
:10436000B001219F700D1124605E794F47E150E04C
:10437000CF013F8F0E9445B280919F108F5F3F8D8C
:10438000823050F0F801E05BF54F20812E5F40E075
:10439000632F8FE990E12BD882E0809321026F9602
:1043A000E7E00C94A8ACA1E0B0E0E9EDF1E20C94F8
:1043B00087AC482F082F10E0B801685E744F7B016E
:1043C000DB018C914801880C991C813099F54E31A4
:1043D00018F089E290E002C08CE290E090933311F3
:1043E00080933211F401ED5DFD4F80819181019642
:1043F0000E94FAAE80934808F401E653F54FC0805E
:10440000D180F601EE0FFF1FED5DFD4F80819181A0
:1044100001960E94FAAEB82EBEE1CB16D1041CF074
:1044200089E290E002C08CE290E09093DE108093ED
:10443000DD1039C0F401ED5DFD4F80819181019661
:1044400049830E94FAAEB82E49814E3138F089E294
:1044500090E09093DE108093DD1006C02CE230E0F7
:104460003093DE102093DD10F401E653F54F0190F8
:10447000F081E02DEE0FFF1FED5DFD4FC080D1807C
:10448000C60101960E94FAAE80934808F601808129
:10449000843419F429E230E002C02CE230E0309399
:1044A0003311209332111092AD0F1092AE0F109273
:1044B000AF0F1092B00F1092B10F1092B20F21E017
:1044C00030E002C0220F331FBA94E2F7B12CC12CA6
:1044D00078E0D72E40E050E0B0E081E090E0F4E0FA
:1044E000FA95F1F700004F5F5F4F483765E05607D8
:1044F00079F4BA3108F089C0BB0CBB0CBB0C8091BD
:10450000AD0F829586958770B82AB092AD0F7DC0A9
:10451000E0913211F09133116081A091480870E070
:104520000A2E02C0759567950A94E2F760FD1EC0D9
:10453000AA24A394AB0EB150B83108F4DA94AC01BC
:1045400002C0440F551FAA95E2F7DA0164EC79E046
:10455000408150E04A235B23452B09F04BC061505A
:10456000710961157105A1F781E082C0E091DD104C
:10457000F091DE10608170E062237323672BE9F510
:10458000AA24A394AB0EB1504C2D50E0B83180F466
:104590006FEF6D0DDC0102C0AA0FBB1F6A95E2F739
:1045A000BD01DA01A355B04F7C91762B7C93DA9450
:1045B000DA01A055B04F4FEF4D0DBC0102C0660FA0
:1045C000771F4A95E2F7AB015C91542B5C9371E045
:1045D000A71202C0BB24B39464EC79E0408150E0A0
:1045E00042235323452B31F4615071096115710544
:1045F000A9F7BACFBA2D40E050E0D11003C0C39460
:1046000068E0D62EBA3208F46ACF8BEE8B0F853075
:1046100068F48091B00F8093AD0F8091B10F8093BB
:10462000AE0F8091B20F8093AF0F0AC0B43030F458
:104630008091AD0F86958093AD0F04C0B53010F01A
:1046400083E001C081E08093B00FD7018C9181306D
:1046500021F4F801E05BF54F09C0F401E653F54F92
:104660000190F081E02DE05BF54F81E0808380E0F8
:104670002196ECE00C94A3AC1F920F920FB60F9210
:1046800011240BB60F922F933F934F935F936F9329
:104690007F938F939F93AF93BF93EF93FF93F89480
:1046A0008EE181DE8111E8987894FF91EF91BF91BE
:1046B000AF919F918F917F916F915F914F913F91BA
:1046C0002F910F900BBE0F900FBE0F901F9018955B
:1046D0001F920F920FB60F9211240BB60F922F93C9
:1046E0003F934F935F936F937F938F939F93AF937A
:1046F000BF93EF93FF93F8948FE155DE8111E99812
:104700007894FF91EF91BF91AF919F918F917F919D
:104710006F915F914F913F912F910F900BBE0F9032
:104720000FBE0F901F9018951F920F920FB60F9209
:1047300011240BB60F922F933F934F935F936F9378
:104740007F938F939F93AF93BF93EF93FF93F894CF
:1047500080E229DE8111EA987894FF91EF91BF9170
:10476000AF919F918F917F916F915F914F913F9109
:104770002F910F900BBE0F900FBE0F901F901895AA
:104780001F920F920FB60F9211240BB60F922F9318
:104790003F934F935F936F937F938F939F93AF93C9
:1047A000BF93EF93FF93F89481E2FDDD8111EB98C5
:1047B0007894FF91EF91BF91AF919F918F917F91ED
:1047C0006F915F914F913F912F910F900BBE0F9082
:1047D0000FBE0F901F9018951F920F920FB60F9259
:1047E00011240BB60F922F933F934F935F936F93C8
:1047F0007F938F939F93AF93BF93EF93FF93F8941F
:104800008BE1D1DD8111EC987894FF91EF91BF910C
:10481000AF919F918F917F916F915F914F913F9158
:104820002F910F900BBE0F900FBE0F901F901895F9
:104830001F920F920FB60F9211240BB60F922F9367
:104840003F934F935F936F937F938F939F93AF9318
:10485000BF93EF93FF93F89489E1A5DD8111ED9863
:104860007894FF91EF91BF91AF919F918F917F913C
:104870006F915F914F913F912F910F900BBE0F90D1
:104880000FBE0F901F9018951F920F920FB60F92A8
:1048900011240BB60F922F933F934F935F936F9317
:1048A0007F938F939F93AF93BF93EF93FF93F8946E
:1048B00087E179DD8111EE987894FF91EF91BF91B6
:1048C000AF919F918F917F916F915F914F913F91A8
:1048D0002F910F900BBE0F900FBE0F901F90189549
:1048E0001F920F920FB60F9211240BB60F922F93B7
:1048F0003F934F935F936F937F938F939F93AF9368
:10490000BF93EF93FF93F89486E14DDD8111EF980B
:104910007894FF91EF91BF91AF919F918F917F918B
:104920006F915F914F913F912F910F900BBE0F9020
:104930000FBE0F901F9018951F920F920FB60F92F7
:1049400011240BB60F922F923F924F925F926F926B
:104950007F928F929F92AF92BF92CF92DF92EF920F
:10496000FF920F931F932F933F934F935F936F93F8
:104970007F938F939F93AF93BF93EF93FF93CF93C7
:10498000DF93CDB7DEB72797DEBFCDBF8091440858
:104990008F5F80934408883C09F04BC01092440814
:1049A000809143088F5F8093430890914208923131
:1049B00011F09A3251F48E3141F480911802823014
:1049C000C1F181E08093180234C08C3391F51092CC
:1049D000430831E0390F309342088091BF0790912E
:1049E000C007A091C107B091C2070196A11DB11DDA
:1049F0008093BF079093C007A093C107B093C207ED
:104A000021E0209319023C33A1F4109242088091D6
:104A100041088F5F80934108883159F41092410812
:104A2000809140088F5F80934008883011F4209374
:104A300040088091B109813099F480911D029091D4
:104A40001E02A0911F02B09120020196A11DB11D6E
:104A500080931D0290931E02A0931F02B093200228
:104A60008091770A9091780AA091790AB0917A0A98
:104A700083309105A105B10558F00197A109B1094D
:104A80008093770A9093780AA093790AB0937A0A70
:104A90008091A50F9091A60F8230910528F0019783
:104AA0009093A60F8093A50F8091B40F8F3F69F06C
:104AB00080914E0890914F08813127E2920728F0AB
:104AC000019790934F0880934E0826E63BE03A8387
:104AD000298322E6422E21E1522E3AEC832E3AE03F
:104AE000932E4CE4A42E40E1B42E0CE71AE057E8D4
:104AF000C52E58E0D52E63E6E62E69E0F62E7DE75A
:104B0000272E7FE0372EE3E26E2EE2E07E2E1F821C
:104B10001E827FEFA981BA812D91BA83A9832130AA
:104B200009F057C0EE81FF81E85EF44F808181304B
:104B300009F0AFC0F40180819181181619060CF0BC
:104B4000A8C0D5018D919C91009709F4A2C0EE8177
:104B5000FF81E75DF54F208121119BC081309105D8
:104B6000A9F5F30120813181C90101962B833C8392
:104B70007D830E94FAAE682F2B813C81D9018C91F4
:104B80000E942417E091CF10F091D0108081918184
:104B9000682FD8014D915C919C0133277D812417AA
:104BA000350714F461E004C0421753071CF46FEF9B
:104BB000680F03C0D4011D921C92862F90E0918350
:104BC0008083F40180819181D50155C00197F50161
:104BD0005EC0D7018D919C911197009751F101977B
:104BE0008D939C93BE81B63241F44091AF095091B0
:104BF000B009452B11F410921C10009771F4F101CB
:104C0000308131FD0AC081E090E0A0E0B0E0F60123
:104C100080839183A283B3830CC0D1013C9131FF87
:104C200008C0803A910528F470937202F70111824E
:104C30001082F60180819181A281B3818330910538
:104C4000A105B10538F00197A109B10980839183CD
:104C5000A283B383233091F4EE81FF81E15CF44FB2
:104C600080818430B1F4D8018D919C9111971816F0
:104C700019067CF401978D939C930BC0211109C0F8
:104C8000F80180819181823091051CF00197918318
:104C90008083D2018D919C911197009751F0EE8104
:104CA000FF81EE5FF54F2081233019F001978D933E
:104CB0009C932E813F812F5F3F4F3F832E8332E0B5
:104CC000430E511C82E0880E911C92E0A90EB11C8B
:104CD0000E5F1F4FA4E0CA0ED11CB2E0EB0EF11C18
:104CE000EFEF2E1A3E0AF2E06F0E711C2E813F810B
:104CF0002732310509F00ECFE3E2F9E0808191819E
:104D0000A281B38183309105A105B10538F00197E7
:104D1000A109B10980839183A283B383349639E0DA
:104D2000E336F30759F78FB1809530910811832747
:104D300090910D029823909590930D0220910C0272
:104D40002823292720930C0289238223282F232319
:104D50009091D810922B9093D81038273093081147
:104D600083232091D410282B2093D4108CB18095CC
:104D70003091D110832790910B02982390959093B6
:104D80000B0220910A022823292720930A02892353
:104D90008223282F23239091D310922B9093D3100A
:104DA00038273093D110832320913011282B209362
:104DB000301183B180953091DF10832790910902E3
:104DC000982390959093090220910802282329277F
:104DD0002093080289238223282F232390913811BE
:104DE000922B9093381138273093DF108323209132
:104DF0003911282B2093391180B1809530914B11B6
:104E00008327909107029823909590930702209111
:104E10000602282329272093060289238223282F8C
:104E2000232390914210922B909342103827309375
:104E30004B1183232091E010282B2093E01086B1A2
:104E40008095309134118327909105029823909595
:104E5000909305022091040228232927209304021D
:104E600089238223282F232390913711922B90930B
:104E70003711382730933411832320914310282B86
:104E80002093431089B180953091411083279091F0
:104E90000302982390959093030220910202282305
:104EA00029272093020289238223282F23239091EC
:104EB000D610922B9093D61038273093411083232D
:104EC00020913A11282B20933A1182B3809530918A
:104ED0000F118327909101029823909590930102DE
:104EE000209100022823292720930002892382236E
:104EF000282F23239091D210922B9093D2103827F1
:104F000030930F11832320914010282B20934010C1
:104F1000809147088C3021F4A0981092470805C072
:104F2000882319F08F5F8093470881E080934908B8
:104F300027960FB6F894DEBF0FBECDBFDF91CF919D
:104F4000FF91EF91BF91AF919F918F917F916F9161
:104F50005F914F913F912F911F910F91FF90EF9093
:104F6000DF90CF90BF90AF909F908F907F906F9089
:104F70005F904F903F902F900F900BBE0F900FBE01
:104F80000F901F901895F8949091D410892398272A
:104F90009093D41078940895F8949091D810892320
:104FA00098279093D81078940895F89490913011A0
:104FB000892398279093301178940895F8949091CC
:104FC000D310892398279093D31078940895F89458
:104FD00090913911892398279093391178940895E5
:104FE000F8949091381189239827909338117894E8
:104FF0000895F8949091E010892398279093E010F9
:1050000078940895F894909142108923982790936A
:10501000421078940895F89490914310892398272A
:105020009093431078940895F894909137118923C0
:1050300098279093371178940895F89490913A11A5
:105040008923982790933A1178940895F894909131
:10505000D610892398279093D61078940895F894C1
:105060009091401089239827909340107894089548
:10507000F8949091D210892398279093D210789425
:105080000895009731F023E52A95F1F70000019784
:10509000F8CF08956AE00E94E5AB20E1829F900D71
:1050A0001124892F0895982F92959F708F702AE070
:1050B000929F800D11240895A6E0B0E0E2E6F8E2A8
:1050C0000C9491AC83E480931C021092450844E058
:1050D00050E06EE271E0CE0101960E9445B28981F6
:1050E00091E0980F923030F080931C028A818053B7
:1050F0008093450883E480931B0281E080931A0229
:1051000044E050E06CE271E0CE0101960E9445B2AD
:10511000898191E0980F923030F080931B028A8150
:10512000805380931A0280911802823009F443C0A0
:1051300081E00E94571882E00E94571880ED0E947B
:10514000871880E00E94871883E00E94571882E049
:105150000E94571881ED0E94871880E00E94F11884
:10516000A2DF8093430880E00E94F1189CDF8093C7
:10517000420880E00E94F11896DF8093410881E0A8
:105180000E94F1188093400883E00E945718809194
:1051900040088150873068F082E0809318021092B6
:1051A0004308109242081092410881E08093400821
:1051B00002C0109218022696E2E00C94ADACCF9398
:1051C000DF93C82F83E00E94571881E00E94571890
:1051D00082E00E94571888E70E94871880E00E94AA
:1051E00087188EEA0E94871885ED0E94871880E84C
:1051F0000E94871881E80E9487188C2F90E0880F02
:10520000991F87529E4F0E945DB28F3F09F48FE72E
:105210000E9487188DE80E94871884E10E948718F1
:1052200081EA0E94871888EC0E94871886EA0E940B
:10523000871880E20E94871880E00E94871881E228
:105240000E94871880E00E9487188FE70E948718C5
:1052500080E00E94871882E20E94871880E00E9406
:10526000871887E00E94871883E00E94571882E021
:105270000E94571888E70E94871880E40E948718C8
:10528000C0E0D4E080E00E94871821972097D1F7F2
:1052900083E00E94571882E00E94571888E70E9416
:1052A000871880E00E9487188FEA0E94871883E0A1
:1052B0000E945718DF91CF910895A1E0B0E0E3E696
:1052C000F9E20C948FAC082F162F81E049830E94DD
:1052D000571882E00E94571888E70E94871880E0DC
:1052E0000E94871880E20E94871881E00E94871838
:1052F00081E20E948718802F0E9487188FE70E9402
:10530000871882E20E948718812F0E94871881E007
:10531000810F0E94871883E00E94571882E00E9444
:10532000571888E70E94871880E40E9487184981EF
:10533000413039F083E00E9457182196E4E00C9444
:10534000ABAC00E011E080E00E9487180150110929
:1053500001151105C1F7EECFA0E0B0E0E2EBF9E2F4
:105360000C9487ACD82FC62F7A01D22E8091E009F9
:105370008A3008F03FC081E00E94571882E00E9406
:10538000571888E70E94871880E00E94871880E2FB
:105390000E94871881E00E94871881E20E94871886
:1053A00021E0D21202C080E001C08D2F0E94871838
:1053B0008FE70E94871882E20E94871881E0D81246
:1053C00001C0C2E08C2F0E94871821E0D21202C0D7
:1053D00083E001C081E08C0F0E94871883E00E9467
:1053E000571882E00E94571888E70E94871880E4C7
:1053F0000E94871880919E1090E0FC01EE0FFF1F25
:10540000E45BFF4E208131814091E0092A30310573
:1054100011F4413041F0FC01E358F04F80818730B6
:1054200051F4423041F48AE08093E0091092DE09A1
:105430001092DD09D6C0413031F484EF91E09093B1
:10544000DE098093DD0900E010E0C12C8C2D90E096
:10545000F70101900020E9F73197EE19FF098E1747
:105460009F0708F081C0F701E80FF91F80818032A3
:1054700079F4D11010C080E00E94871880E00E946B
:10548000871880E00E94871880E00E9487184AC031
:10549000803208F447C0982F9D0D8FED890F803B17
:1054A00010F08FEA890F90E021E0D2126FC0FC016A
:1054B000EE0FFF1FE80FF91FED50FC4E8490FC012A
:1054C000EE0FFF1FE80FF91FEC50FC4EA590B490B3
:1054D00024E0829E40011124E801EC2FE01BF0E063
:1054E000E815F905F0F42091DD093091DE09C901D4
:1054F0000A96C817D90758F4C217D30740F0EA0D27
:10550000FB1DE65BFB4E84910E94871808C0C817FC
:10551000D90729F4D093DE09C093DD0962C0219632
:10552000DCCF8E018091DD099091DE099C01265F20
:105530003F4F0217130718F40817190720F480913A
:10554000E0098A3078F480E00E94871880E00E94A9
:10555000871881E0D81206C080E00E94871880E09A
:105560000E948718C39472CF8091E0098A3039F481
:1055700081E08093E0091092DE091092DD098FEF3F
:105580008093220283E00E9457182BC0FC01EE0F8B
:10559000FF1FE80FF91FE659F64EC491FC01EE0F0C
:1055A000FF1FE80FF91FE559F64EA590B490D0E023
:1055B000CC0FDD1F88248394912CE92DF0E0EC17AB
:1055C000FD0708F0AFCFE80DF11D87FCFA95EA0D55
:1055D000FB1DE65BF44E84910E948718819493949E
:1055E000ECCFCDB7DEB7ECE00C94A3ACCF92DF925A
:1055F000EF92FF92CF93C82F81E00E94571882E06C
:105600000E94571880E80E94871883E00E9457186C
:1056100082E00E94571880E80E948718C13011F478
:1056200083EE01C085EE0E94871883E00E94571820
:105630008AEF90E026DD82E00E945718C13019F40D
:1056400084EA96E002C08CE291E01BDD81E80E94D2
:10565000871888EC90E015DD80E00E94F118F82EA4
:1056600081E00E94F1182F2D30E0322F2227282BC5
:10567000442737FD4095542F2C7F44275527A0E120
:10568000B7E20E9471AC9C01552737FD5095452F1C
:10569000C13049F4A4EAB4E40E9471AC605D7F4D6E
:1056A0008A4C924008C0A4EDB0E30E9471AC6058EF
:1056B0007D488B45910920E137E240E050E00E94AF
:1056C0003AAC69017A01CA01B90124E630E040E050
:1056D00050E00E943AACF7FE29C09B0177FF04C05E
:1056E00022273327261B370B3F932F93C701B60181
:1056F00024E630E040E050E00E943AAC319521953C
:1057000031093F932F938CEE92E09F938F938FE913
:1057100090E19F938F930E9429B08DB79EB7089612
:105720000FB6F8949EBF0FBE8DBF1AC09F938F9384
:105730007F936F935F934F933F932F9385E193E014
:105740009F938F938FE990E19F938F930E9429B04D
:105750008DB79EB70C960FB6F8949EBF0FBE8DBF47
:1057600083E00E945718CF91FF90EF90DF90CF9089
:105770000895CF93DF9381E00E94571882E00E9442
:10578000571886E40E94871880E10E94871883E0FA
:105790000E94571882E00E94571887E40E948718D9
:1057A00080E00E94F118C82F81E00E94F118D82FE4
:1057B00083E00E945718AD2FB0E0BC2B2AE030E008
:1057C0000E946BAC2CE030E040E050E00E943AAC2C
:1057D0005F934F933F932F9385EF92E09F938F9327
:1057E0008FE990E19F938F930E9429B08DB79EB768
:1057F00008960FB6F8949EBF0FBE8DBFDF91CF9174
:105800000895CF93DF9390E00496F4E0880F991FFA
:10581000FA95E1F7C82FC26881E00E94571882E02C
:105820000E94571880E90E94871881E00E9487181B
:1058300081E08C0F0E94871883EE0E94871883E016
:105840000E94571885EA9EE00197F1F700C000001A
:1058500082E00E94571880E90E94871880E00E9429
:10586000871883E00E94571882E00E94571881E948
:105870000E94871880E00E94F118C82F81E00E94E2
:10588000F118D82F83E00E9457182D2F30E03C2BC1
:1058900037FF02C020E030E03F932F938AE094E08E
:1058A0009F938F938FE990E19F938F930E9429B0EC
:1058B0000F900F900F900F900F900F90DF91CF915E
:1058C0000895ACE0B0E0E7E6FCE20C9487AC182F5A
:1058D0009BE0E7EBF2E0DE01119601900D929A95C4
:1058E000E1F781E00E94571882E00E9457189E015C
:1058F0002F5F3F4F790137E1139FC001112400E072
:1059000010E0FC01E05EF94F5F019C012F5D394F13
:1059100049018EEE0E948718F70181917F010E9454
:10592000871883E00E94571882E00E9457188FEE74
:105930000E94871880E00E94F118682F6501C00E50
:10594000D11EC6016C870E9455B26C85861719F06E
:10595000C6010E946BB281E00E94F118682F6401B9
:10596000C00ED11EC6016C870E9455B26C85861789
:1059700019F0C6010E946BB20E5F1F4F0631110570
:1059800041F683E00E9457182C96ECE00C94A3ACEF
:10599000A1E0B0E0EEECFCE20C9483AC782E81E068
:1059A0000E94571882E00E9457188CEE0E948718B8
:1059B00082EF0E94871882E00E94871883E00E948D
:1059C000571881E00E94571882E00E9457188CEE09
:1059D0000E94871884EF0E94871887E20E94871828
:1059E00083E00E94571881E00E94571882E00E94CD
:1059F00057188CEE0E94871888E80E94871883E069
:105A00000E94571882E00E9457188DEE0E94871856
:105A100027E1729EC0011124412C512C612C44E1DC
:105A2000749E9001112489010B5E1C4FFC01EF5DF7
:105A3000F94F5F01A9014C5E5C4F7A01FC01E05E09
:105A4000F94F4F0180E00E94F118682FFBE06F16BC
:105A500061F06501C40CD51CC60169830E9455B272
:105A60006981861761F0C60108C0C80169830E9478
:105A700055B26981861719F0C8010E946BB280E0A7
:105A80000E94F118682F2BE0621661F06401C40CCB
:105A9000D51CC60169830E9455B26981861761F0E1
:105AA000C60108C0C70169830E9455B26981861783
:105AB00019F0C7010E946BB2639432E0430E511C8F
:105AC0004CE06412BFCF80E00E94F11881E00E9498
:105AD000F118182F83E00E94571881E00E94571890
