:100000000C9492120C94D0230C94FC230C9428246E
:100010000C9454240C9480240C94AC240C94D82478
:100020000C9404250C94B3120C94B3120C94B312D8
:100030000C94B3120C94B3120C94B3120C94B3122C
:100040000C94B3120C94B3120C94B3120C94B3121C
:100050000C94B3120C94B3120C9430250C94B3127C
:100060000C94B3120C94B3120C94B3120C94B312FC
:100070000C94B3120C94B3120C94B3120C94B312EC
:100080000C94B3120C94B3120C94B3120C94B312DC
:100090000C94B3120C94B3120C94B3120C94B312CC
:1000A0000C94B3120C94B3120C94B3120C94B312BC
:1000B0000C94B3120C94B3120C94B3120C94B312AC
:1000C0000C94B3120C94B3120C94B312E814F01401
:1000D000F814001503151915031519153C2F613E69
:1000E000004578742D494F002F3F70743D256426DC
:1000F00063663D313E00207C203C6120687265666D
:100100003D2F003C2F613E002F53434C002F5344A2
:100110004100493243004453002F4431002F443002
:100120000057323600414443004E4300202D20004A
:10013000290025640028003E50002564002F3F70F0
:10014000743D003C62723E3C6120687265663D2FE2
:10015000003C62723E2D2D2D003C62723E2D2D2002
:100160005850352F36202D2D002F3F63663D343EED
:100170005850323C2F613E3C62723E2D2D20585427
:1001800032202D2D002F3F63663D333E5850313CC9
:100190002F613E3C62723E3C6120687265663D2F75
:1001A000002F3F63663D313E436F6E6669673C2FAB
:1001B000613E3C62723E2D2D204D4F4453202D2D2B
:1001C0003C62723E3C6120687265663D2F00293CAE
:1001D00062723E3C6120687265663D2F00342E32AB
:1001E000366238004D656761442D32353631206204
:1001F00079203C6120687265663D687474703A2F9E
:100200002F61622D6C6F672E72753E61622D6C6F6F
:10021000672E72753C2F613E202866773A200032A7
:10022000202D2D0031202D2D003E4261636B3C2F8F
:10023000613E3C62723E2D2D20506F7274732058C7
:100240005000446F6E65003E002076616C75653D20
:10025000003C696E707574206E616D653D6B6579EB
:10026000004E2F4100383E4C617374206B65793A23
:100270002000203C696E70757420747970653D7340
:1002800075626D6974206E616D653D70636C20767A
:10029000616C75653D636C6561723E003E003E2099
:1002A000736C6176653A203C696E707574206E617E
:1002B0006D653D70727320747970653D6368656328
:1002C0006B626F782076616C75653D3120003E2051
:1002D000636D643A203C696E707574206E616D6563
:1002E0003D7072642076616C75653D003E3D3C2F2B
:1002F00073656C6563743E2076616C75653A203C6D
:10030000696E707574206E616D653D7072762073D4
:10031000697A653D332076616C75653D003E3C3CF5
:100320006F7074696F6E2076616C75653D33003E49
:100330003E3C6F7074696F6E2076616C75653D32FE
:10034000003E4E3C6F7074696F6E2076616C75650F
:100350003D31003E203C73656C656374206E616DB9
:10036000653D7072633E3C6F7074696F6E2076619C
:100370006C75653D30003E696620706F72743A207E
:100380003C696E707574206E616D653D7072702091
:1003900073697A653D332076616C75653D007072D6
:1003A0006E2076616C75653D0031303E00656D7084
:1003B0007479002300393E003E002076616C75653B
:1003C0003D003E204163743A203C696E7075742094
:1003D0006E616D653D63726E61002076616C75655E
:1003E0003D00543A203C696E707574206E616D65F5
:1003F0003D63726E74003E003E205344413A203CFF
:10040000696E707574206E616D653D637364612003
:1004100076616C75653D003C62723E536574207474
:10042000696D653A203C696E707574206E616D650A
:100430003D7374696D653E3C62723E53434C3A2095
:100440003C696E707574206E616D653D6373636C9D
:100450002076616C75653D00373E43757220746986
:100460006D653A2000223E3C62723E737276206CCB
:100470006F6F703A203C696E707574207479706586
:100480003D636865636B626F78206E616D653D7377
:100490006C2076616C75653D31004D656761642D3A
:1004A00049443A203C696E707574206E616D653DFB
:1004B0006D646964206D61786C656E6774683D3544
:1004C0002073697A653D352076616C75653D220043
:1004D000323E003C62723E557074696D653A200090
:1004E00064697361726D003C623E41524D3C2F6203
:1004F0003E00223E3C62723E4D6F64653A20003CF5
:1005000062723E50686F6E653A203C696E70757419
:10051000206E616D653D67736D5F6E756D206D61F9
:10052000786C656E6774683D31322076616C7565F4
:100530003D22003E3C62723E47534D3A203C696E7C
:10054000707574206E616D653D67736D2074797090
:10055000653D636865636B626F782076616C756575
:100560003D310057646F673A203C696E70757420A6
:100570006E616D653D70722073697A653D332076DA
:10058000616C75653D005363726970743A203C6913
:100590006E707574206E616D653D736374206D615E
:1005A000786C656E6774683D31352076616C756571
:1005B0003D22003C62723E00646973636F6E6E653B
:1005C0006374656400636F6E6E6563746564003E9A
:1005D0004D5154543C2F73656C6563743E20003E4E
:1005E000485454503C6F7074696F6E2076616C751E
:1005F000653D310053525620547970653A203C7362
:10060000656C656374206E616D653D737276743ED2
:100610003C6F7074696F6E2076616C75653D30005B
:1006200025642E25642E25642E25643A25753E3CCE
:1006300062723E003E3C62723E5352563A203C6922
:100640006E707574206E616D653D736970207661A2
:100650006C75653D0047573A203C696E7075742093
:100660006E616D653D67772076616C75653D2564CB
:100670002E25642E25642E2564005077643A203C94
:10068000696E707574206E616D653D707764206D64
:1006900061786C656E6774683D332076616C756552
:1006A0003D220049503A203C696E707574206E619D
:1006B0006D653D6569702076616C75653D25642EBC
:1006C00025642E25642E256400313E006366207665
:1006D000616C75653D002F3E002F3F63663D383EDF
:1006E0006942204B6579733C2F613E002F3F636662
:1006F0003D393E50726F6772616D3C2F613E002F35
:100700003F63663D373E43726F6E3C2F613E002F64
:100710003F63663D323E4D656761642D49443C2F21
:10072000613E002F3F63663D313E436F6E666967F1
:100730003C2F613E003E4261636B3C2F613E002FC7
:100740003F63663D31002F3F63663D39003E4261A5
:10075000636B3C2F613E3C62723E4D656761442095
:100760006973207265737461727465640034003358
:10077000002F3F63663D002A002A007D7D00227D18
:10078000003B0026636D643D6C6973743E4465767E
:10079000696365204C6973743C2F613E002F3F7084
:1007A000743D003E61726D3C2F73656C6563743EF1
:1007B000003E616C776179733C6F7074696F6E2075
:1007C00076616C75653D32003E6E6F3C6F7074698A
:1007D0006F6E2076616C75653D31003C62723E53F0
:1007E0004D53203C73656C656374206E616D653D8F
:1007F00067736D663E3C6F7074696F6E2076616CD6
:1008000075653D30003E003C62723E446973702065
:100810003C696E707574206E616D653D64697370BE
:100820002073697A653D322076616C75653D0026DE
:10083000636D643D7363616E3E493243205363616F
:100840006E3C2F613E002F3F70743D003E003C62C5
:10085000723E494E54203C696E707574206E616D15
:10086000653D696E74612073697A653D33207661F8
:100870006C75653D003E003C62723E4672657120BB
:100880003C696E707574206E616D653D687374208F
:1008900073697A653D332076616C75653D003E0075
:1008A0003E3C62723E436C6F636B203C696E7075B8
:1008B00074206E616D653D636C6F636B207479703D
:1008C000653D636865636B626F782076616C756502
:1008D0003D37003C62723E427269676874203C6931
:1008E0006E707574206E616D653D687374207369F8
:1008F0007A653D332076616C75653D003E5043411D
:10090000393638353C2F73656C6563743E003E4D57
:10091000435032333058583C6F7074696F6E207694
:10092000616C75653D3231003E535344313330368E
:100930003C6F7074696F6E2076616C75653D323006
:10094000003E54534C323539313C6F7074696F6ED0
:100950002076616C75653D34003E42483137353054
:100960003C6F7074696F6E2076616C75653D330005
:100970003E4D415834343030393C6F7074696F6E7D
:100980002076616C75653D32003E424D78323830DC
:100990003C6F7074696F6E2076616C75653D3700D1
:1009A0003E424D503138303C6F7074696F6E207626
:1009B000616C75653D36003E4854553231443C6F9C
:1009C0007074696F6E2076616C75653D35003E41CF
:1009D0004E593C6F7074696F6E2076616C75653D21
:1009E00031003C62723E446576203C73656C656301
:1009F00074206E616D653D643E3C6F7074696F6E0E
:100A00002076616C75653D30003E003C62723E535D
:100A1000434C203C696E707574206E616D653D6D50
:100A20006973632073697A653D332076616C7565FF
:100A30003D003E53434C3C2F73656C6563743E0030
:100A40003E5344413C6F7074696F6E2076616C75E3
:100A5000653D32003E4E433C6F7074696F6E207688
:100A6000616C75653D31003C62723E4D6F6465207E
:100A70003C73656C656374206E616D653D6D3E3CD5
:100A80006F7074696F6E2076616C75653D30003EE5
:100A9000003C62723E4431203C696E707574206E79
:100AA000616D653D6D6973632073697A653D3320BF
:100AB00076616C75653D003E44313C2F73656C6515
:100AC00063743E003E44303C6F7074696F6E2076F4
:100AD000616C75653D32003E4E433C6F7074696FCA
:100AE0006E2076616C75653D31003C62723E4D6FE3
:100AF0006465203C73656C656374206E616D653D53
:100B00006D3E3C6F7074696F6E2076616C75653DEB
:100B100030003E5732363C2F73656C6563743E007F
:100B20003E69423C6F7074696F6E2076616C7565CA
:100B30003D36003E31574255533C6F7074696F6EBD
:100B40002076616C75653D34003E31573C6F7074A2
:100B5000696F6E2076616C75653D35003E44485482
:100B600032323C6F7074696F6E2076616C75653DD2
:100B700033003E44485431313C6F7074696F6E20CD
:100B800076616C75653D32003C62723E53656E2045
:100B90003C73656C656374206E616D653D643E3CBD
:100BA0006F7074696F6E2076616C75653D310020E1
:100BB000636865636B65643E203C696E7075742084
:100BC0006E616D653D6D322073697A653D332076C7
:100BD000616C75653D003E486967683C2F73656CC4
:100BE0006563743E3C62723E536D6F6F7468203C67
:100BF000696E70757420747970653D636865636BA8
:100C0000626F78206E616D653D6D697363207661FA
:100C10006C75653D31003E4C6F773C6F7074696F49
:100C20006E2076616C75653D32003E4E6F726D3C94
:100C30006F7074696F6E2076616C75653D31003C34
:100C400062723E46726571203C73656C6563742008
:100C50006E616D653D66723E3C6F7074696F6E20AB
:100C600076616C75653D30003E003C62723E4772B5
:100C70006F7570203C696E707574206E616D653D96
:100C80006772702073697A653D322076616C756594
:100C90003D003E4453323431333C2F73656C656301
:100CA000743E003E5357204C494E4B3C2F6F70749E
:100CB000696F6E3E3C6F7074696F6E2076616C7503
:100CC000653D32003C6F7074696F6E2076616C75A3
:100CD000653D33003E50574D003C6F7074696F6E38
:100CE0002076616C75653D31003E5357003C627261
:100CF0003E4D6F6465203C73656C656374206E6166
:100D00006D653D6D3E3C6F7074696F6E2076616CF1
:100D100075653D30003E313C2F73656C6563743EF4
:100D2000003E303C6F7074696F6E2076616C756543
:100D30003D31003C73656C656374206E616D653D8B
:100D4000643E3C6F7074696F6E2076616C75653DB2
:100D500030003C696E707574206E616D653D642075
:100D600073697A653D33206D61786C656E67746870
:100D70003D332076616C75653D003C62723E446592
:100D80006661756C743A20003C62723E5261772055
:100D90003C696E70757420747970653D6368656335
:100DA0006B626F78206E616D653D642076616C7555
:100DB000653D3100203C696E7075742074797065F2
:100DC0003D636865636B626F78206E616D653D6D34
:100DD0006973632076616C75653D31003E433C2F3D
:100DE00073656C6563743E003E523C6F7074696F4E
:100DF0006E2076616C75653D33003E5026523C6F27
:100E00007074696F6E2076616C75653D32003E507E
:100E10003C6F7074696F6E2076616C75653D310052
:100E20003C62723E4D6F6465203C73656C65637413
:100E3000206E616D653D6D3E3C6F7074696F6E2014
:100E400076616C75653D3000223E203C696E7075A0
:100E50007420747970653D636865636B626F782098
:100E60006E616D653D6E61662076616C75653D31C4
:100E7000002F003A25750025642E25642E25642E4A
:100E80002564003E3C62723E4E6574203C696E7083
:100E900075742073697A653D3332206E616D653DEE
:100EA0006574682076616C75653D2200223E203CA9
:100EB000696E70757420747970653D636865636BE5
:100EC000626F78206E616D653D61662076616C753C
:100ED000653D31003C62723E416374203C696E7036
:100EE0007574206E616D653D65636D642076616C1F
:100EF00075653D22003E3C62723E487374203C6939
:100F00006E707574206E616D653D687374207661D6
:100F10006C75653D003E3C3E3C2F73656C656374AB
:100F20003E3C62723E56616C203C696E7075742066
:100F30006E616D653D6D6973632073697A653D34DB
:100F40002076616C75653D003E3C3C6F7074696F46
:100F50006E2076616C75653D33003E3E3C6F70746B
:100F6000696F6E2076616C75653D32003E4E6F7222
:100F70006D3C6F7074696F6E2076616C75653D3184
:100F8000004D6F6465203C73656C656374206E6111
:100F90006D653D6D3E3C6F7074696F6E2076616C5F
:100FA00075653D30003C2F73656C6563743E003E93
:100FB000414443003C6F7074696F6E2076616C75BC
:100FC000653D32003E493243003E4453656E3C6FFE
:100FD0007074696F6E2076616C75653D34003E4FAC
:100FE00075743C6F7074696F6E2076616C75653DC9
:100FF00033003E496E3C6F7074696F6E2076616C91
:1010000075653D31003E4E433C6F7074696F6E20D4
:1010100076616C75653D300054797065203C736570
:101020006C656374206E616D653D7074793E3C6FD4
:101030007074696F6E2076616C75653D3235350070
:10104000706E2076616C75653D002F3E003C6272CB
:101050003E3C6120687265663D2F25732F3F70749A
:101060003D2564266578743D25643E5025643C2FFB
:10107000613E003C62723E2D2D20506F72747320D1
:1010800045787420285043413936383529202D2D94
:10109000003C62723E3C6120687265663D2F25739C
:1010A0002F3F70743D2564266578743D25643E505D
:1010B0002564202D200029202D2D003038003137C7
:1010C000003C62723E2D2D20506F72747320457863
:1010D0007420284D4350323330002F00222C2263DD
:1010E0006E74223A22002F0068756D3A002F00744A
:1010F000656D703A00203C696E707574207479706B
:10110000653D7375626D69742076616C75653D73BC
:1011100065743E3C2F666F726D3E0050574D3A200D
:101120003C696E707574206E616D653D6570776D9C
:101130002076616C75653D25642073697A653D3361
:101140003E006578742076616C75653D25643E00CF
:1011500070742076616C75653D25643E002F3E00FD
:101160003E4F75743C2F73656C6563743E003E4959
:101170006E3C6F7074696F6E2076616C75653D3181
:101180000054797065203C73656C656374206E61F2
:101190006D653D6574793E3C6F7074696F6E207645
:1011A000616C75653D30006578742076616C75659D
:1011B0003D25643E0070742076616C75653D256444
:1011C0003E002F3E003C2F613E2000303E003C2F71
:1011D000613E2000313E003C6120687265663D2F13
:1011E00025732F3F70743D2564266578743D256412
:1011F00026636D643D25646525643A002F003A300E
:101200003E4F46463C2F613E3C62723E00420041EA
:101210000026636D643D002F3F70743D003A313EFF
:101220004F4E3C2F613E203C6120687265663D2F29
:10123000004200410026636D643D002F3F70743D05
:1012400000423A2000413A20002F004E412F4E41EB
:10125000002F003E203C696E7075742074797065B3
:101260003D7375626D69742076616C75653D636868
:10127000616E67653E3C2F666F726D3E003E505753
:101280004D2028302D323535293A203C696E707555
:1012900074206E616D653D70776D2073697A653D70
:1012A000332076616C75653D0070742076616C75D5
:1012B000653D002F3E003C62723E3C666F726D20C1
:1012C0007374796C653D646973706C61793A696EA9
:1012D0006C696E6520616374696F6E3D2F005043C9
:1012E00041004D4350003C62723E003C62723E6CD5
:1012F00075783A003C62723E6C75783A003C6272D6
:101300003E6C75783A0074656D703A007B227465A6
:101310006D70223A002F68756D3A002C2022687596
:101320006D223A0074656D703A007B2274656D70B1
:10133000223A002F003E4261636B3C2F613E3C62CB
:10134000723E500034003300312670743D002F3F50
:1013500063663D007D7D003B002C003A00220022A8
:10136000007B00627573790062757379227D004499
:101370006F6E650026616C6C3D006D6469643D00B4
:101380003F00485454502F312E30203430312055F6
:101390006E617574686F72697A65640D0A0D0A551D
:1013A0006E617574686F72697A6564005472792031
:1013B000687474703A2F2F69702F707764002F0053
:1013C0002F002F002F002F002F005025643A2000FF
:1013D00049503A202564202E202564202E202564A3
:1013E000202E20256400485454502F312E302032B6
:1013F0003030204F4B0D0A436F6E74656E742D5460
:101400007970653A20746578742F68746D6C0D0A74
:10141000507261676D613A206E6F2D63616368651C
:101420000D0A0D0A002892A5ACAFA5E0290082EBB9
:10143000AAAB0082AAAB2020200041542B43534387
:10144000533D2247534D220041542B434D47463DC7
:1014500031004F4646004F4E00494E004F55540054
:10146000223E3C62723E003E3C62723E003C627232
:101470003E00207C203C6120687265663D2F003C68
:101480006120687265663D2F003E002063686563D9
:101490006B6564003C696E70757420747970653D8D
:1014A00068696464656E206E616D653D003C6272C2
:1014B0003E3C696E70757420747970653D73756219
:1014C0006D69742076616C75653D536176653E3C4F
:1014D0002F666F726D3E003C666F726D20616374A3
:1014E000696F6E3D2F002073656C656374656400E1
:1014F00016000000000000000000000000000000D6
:1015000000000000000000000000000000000000DB
:101510000016580000000016B00007080100000087
:10152000162401167C0116D401162C02168402160C
:10153000DC02163403168C0316E403163C040F94E5
:101540000409D0040BF404000000000000000000B7
:10155000000000000000000000000000000000008B
:10156000000000000000000000000000000000007B
:10157000000000000000000000000000000000006B
:10158000000000000000000000000000000000005B
:10159000000000000000000000000000000000004B
:1015A00000000000003E0000003E0000003E000081
:1015B000003E0000003E0000003E0000003E000033
:1015C000003E0000FEFF1F00FEFF1F00FEFF1F0089
:1015D000FEFF1F00003E0000003E0000003E000035
:1015E000003E0000003E0000003E0000003E000003
:1015F000003E0000000000000000000000000000AD
:1016000000000000000000000000000000000000DA
:101610000000000000000000003E0000003E00004E
:10162000003E0000003E0000003E0000003E0000C2
:10163000003E0000003E0000003E0000003E0000B2
:10164000003E0000003E0000003E0000003E0000A2
:101650000000FE000000FE000000FE000000FE0092
:101660000000FE000000FE000000FE00F0FF000091
:10167000FEFF0700FFFF0FC0FFFF3FC0FFFF3FE07F
:10168000FFFF7FE0FFFF7FF00F00FFF00300FCF0A3
:101690000100F8F00100F8F00100F8F00100F8F0A6
:1016A0000300FCF00F00FFE0FFFF7FE0FFFF7FC0C3
:1016B000FFFF3FC0FFFF3F00FFFF0F00FEFF0700DF
:1016C000F0FF00000000000000000000000000002B
:1016D0001E00F8001E00F8001E00F8001E00F800B2
:1016E0001F00F8001F00F8C0FFFFFFE0FFFFFFE052
:1016F000FFFFFFE0FFFFFFE0FFFFFFE0FFFFFFE076
:10170000FFFFFF000000F8000000F8000000F800F4
:101710000000F8000000F8000000F80000000000E1
:101720000000F8C00F00F8E00700FCE00700FEE052
:101730000300FFF00380FFF001C0FFF001C0FFF0E5
:1017400001E0FFF001F0FFF001FCFBF003FEF9F017
:1017500087FFF8F0FF7FF8E0FF7FF8E0FF3FF8C079
:10176000FF1FF8C0FF07F880FF03F800FE00F80035
:101770000000F800000000000000000000003FC072
:101780000F007EE007007EE003007CE00300FCF039
:101790000100F8F0810FF8F0810FF8F0810FF8F0F8
:1017A000810FF8F0810FF8F0C30FFCF0FF1FFEF07F
:1017B000FFFF7FE0FFFF7FE0FFFD7FC0FFFC3F807A
:1017C0007FFC1F001FF80F0000E0030000F0030083
:1017D00000F8030000FE030000FF030080FF030089
:1017E000E0EF0300F0E70300F8E10300FEE0030090
:1017F0007FE003C01FE003E00FE003E0FFFFFFE036
:10180000FFFFFFE0FFFFFFE0FFFFFFE0FFFFFFE064
:10181000FFFFFFE0FFFFFF0000E0030000E0030028
:1018200000E003000000000000003FE0FF0F7EE04A
:10183000FF0F7EE0FF0F7CE0FF07FCE0FF07F8E012
:10184000FF07F8E0FF07F8E0C307F8E0C307F8E098
:10185000C307F8E0C30FFCE0C30FFCE0C31FFEE0CA
:10186000C3FF7FE083FF7FE083FF3FE003FF3FE0B4
:1018700003FF1FE003FE0F0000F80300C0FF00009D
:10188000F8FF0700FCFF0F00FFFF1F80FFFF3F80F6
:10189000FFFF7FC0FFFF7FE09F03FFE0C703FCE087
:1018A000C703F8F0E303F8F0E103F8F0E103F8F020
:1018B000E107FCF0E10FFEF0E1FF7FF0E1FF7FF0D8
:1018C000C1FF3FF0C3FF3FF083FF1F0000FF070091
:1018D00000FC0100000000E0030000E0030080E0E5
:1018E0000300E0E00300F0E00300FCE00300FFE0A1
:1018F00003C0FFE003F0FFE003F8FFE003FE7FE03A
:1019000083FF1FE0E3FF0FE0F3FF03E0FFFF00E0D2
:10191000FF3F00E0FF0F00E0FF0300E0FF0100E0F9
:101920007F0000E01F0000E00700000000C007008B
:101930003EF01F80FFF83FC0FFF93FC0FFFD7FE092
:10194000FFFF7FE0FFFFFFF0FF1FFEF0E307FCF06B
:10195000C10FF8F0C10FF8F0C10FF8F0811FF8F0D7
:10196000831FFCF0FF3FFCE0FFFF7FE0FFFF7FE015
:10197000FFFE7FC0FFFC3F807FFC1F001FF80F00B1
:1019800000E00700FC010000FF070080FF0FFCC023
:10199000FF1FFCC0FF1FF8E0FF3FF8E0FF3FF8F03B
:1019A000873FF8F0033FF8F0013EF8F0013EFCF00D
:1019B000013EFCF0011E7EF0031E7FF00FCE7FE0A3
:1019C000FFFF3FE0FFFF1FC0FFFF1FC0FFFF0F0033
:1019D000FFFF0300FEFF0000F01F00003E0000803C
:1019E000FF0000C0FF0100E0FF0300E0E30300F0A0
:1019F000C10700F0800700F0800700F0800700F0CA
:101A0000C10700E0E30300E0FF0300C0FF01008026
:101A1000FF0000003E00000000000000F8037F000F
:101A2000F8037F00F8037F00F8037F00F8037F00CE
:101A3000F8037F00F8037F000000000000000000B2
:101A40000000000000000000000000000000000096
:101A50000000000000000000000000000000000086
:101A60000000000000000001000003020008080060
:101A70000618000B2400083A00014A00044C000438
:101A80005400055C000766000274000578000182BE
:101A900000068400069000059C0006A60006B20021
:101AA00007BE0006CC0006D80006E40006F00006DB
:101AB000FC00010801020A01070E01071C01072AA8
:101AC000010538010B420107580106660107720142
:101AD000078001068E01069A0107A60107B40103DB
:101AE000C20105C80106D20106DE0109EA0107FCB0
:101AF00001080A02061A02082602073602074402F3
:101B0000075202076002076E020B7C02079202076F
:101B1000A00207AE0203BC0206C20203CE0209D431
:101B20000208E60202F60206FA020606030612039D
:101B3000061E03062A03053603064003064C03016E
:101B40005803045A03056203016C03096E030680FF
:101B500003068C0306980306A40304B00305B80328
:101B600004C20306CA0306D60309E20305F403060A
:101B7000FE03050A04051404011E04052004082AB6
:101B800004063A04074604065404066004066C047E
:101B9000097804068A040B960406AC0407B8040707
:101BA000C60406D40409E00409F204070405081277
:101BB00005072205063005073C05074A05075805B5
:101BC0000966050778050886050796050BA4050C28
:101BD000BA0509D2050AE40506F8050704060B1242
:101BE00006072806063606064206064E06055A066B
:101BF000076406067206097E06059006069A060622
:101C0000A60606B20607BE0607CC0606DA0606E6F4
:101C10000606F20606FE06060A0705160706200750
:101C2000092C07053E070748070656070962070AF9
:101C3000740707880707960705A40706AE0709BAC1
:101C40000706CC0706D8071BF000780000007802D2
:101C5000000E4003C002700E4003C002700040102E
:101C6000C011207FF8122012200C2000E00110117A
:101C700010091006E001000EC01120111011000E15
:101C8000000EE01110111011100AE00C00120011EA
:101C90000000780F803060401080088008401030CD
:101CA000600F800050002000F8002000500100016B
:101CB0000001000FE00100010001004000380001B8
:101CC000000100010001000100180060001800067A
:101CD000000180006000180FE010101010101010AC
:101CE000100FE0102010201FF010001000186014DA
:101CF0001012101210111010E00820101011101105
:101D00001011100EE003000280024002201FF002BA
:101D1000000200080011F01110111011100E100F28
:101D2000C010A01090109010900F00001000101C18
:101D300010031000D000300EE0111011101110111E
:101D4000100EE001E01210121012100A1007E01835
:101D5000C0400038C002000500050008800880105F
:101D600040104004800480048004800480048004C7
:101D70008010401040088008800500050002000027
:101D80002000101B10009000600F80104020204F9A
:101D9000905050505050505FD0102010400F80187D
:101DA00000070004C0043004C0070018001FF01131
:101DB000101110111011E00E0007C00820101010B3
:101DC000101010101008201FF0101010101010101C
:101DD00010082007C01FF011101110111011101160
:101DE000101FF00110011001100110001007C008B1
:101DF0002010101010121012101E201FF0010001F0
:101E0000000100010001001FF010101FF010101061
:101E1000001000101010100FF01FF00100028004DD
:101E200040082010101FF0100010001000100010CB
:101E3000001FF0003000C003000C00030000C000D1
:101E4000301FF01FF0003000C00100060018001F16
:101E5000F007C008201010101010101010082007F4
:101E6000C01FF0021002100210021001E007C008AB
:101E7000201010101010103010482047C01FF00222
:101E80001002100210051008E0100008E0111011F7
:101E9000101110111011100E200010001000101F52
:101EA000F000100010001007F008001000100010E3
:101EB00000080007F000700180060018000600010D
:101EC00080007000F007001800060001C00030011B
:101ED000C006001800070000F0183004400280011E
:101EE000000280044018300010006001801E0001D4
:101EF00080006000101810141012101110109010B3
:101F00005010307FF840084008001800600180063B
:101F10000018006000400840087FF80100008000C1
:101F200040002000100020004000800100400040E0
:101F30000040004000400040004000400000080019
:101F4000100C0012401240124012401F801FF81067
:101F5000801040104010400F800F80104010401043
:101F600040104008800F8010401040104008401F73
:101F7000F80F8012401240124012400B8000401FA8
:101F8000F00048004800080F809040904090408842
:101F9000407FC01FF800800040004000401F801FAD
:101FA000C88000800080407FC81FF802000500083C
:101FB0008010401FF81FC00080004000401F8000BC
:101FC00080004000401F801FC00080004000400093
:101FD000401F800F8010401040104010400F80FFC5
:101FE000C010801040104010400F800F8010401033
:101FF0004010400840FFC01FC0008000400040115A
:10200000801240124012400C4000400FF01040106F
:10201000400FC010001000100008001FC000C007D3
:102020000018001800070000C000C00700180007D3
:102030000000C007001800070000C018C00500021B
:1020400000050018C000C0870078001800070000D5
:10205000C0184014401240114010C0010001003E61
:10206000F0400840087FF8400840083EF0010001B9
:102070000003000080008001000100020002000156
:10208000801FF011141110111011141110180007F5
:102090000004C0043004C0070018001FF011101124
:1020A00010111011100E001FF0111011101110114D
:1020B000E00E001FF0001000100010001000107063
:1020C000001800170010F01010101010101FF07002
:1020D000001FF01110111011101110111010100824
:1020E0001004E0030001001FF00100030004E008F9
:1020F000101010082010101110111011100EE01FF8
:10210000F008000600010000C000201FF01FF008CA
:10211000020604010400C400221FF01FF0010003A6
:102120000004E008101010100010000FF000100064
:10213000100010001000101FF01FF0003000C0034E
:10214000000C00030000C000301FF01FF001000170
:10215000000100010001001FF007C008201010104E
:102160001010101010082007C01FF0001000100001
:1021700010001000101FF01FF002100210021002D9
:102180001001E007C00820101010101010101008E7
:10219000200010001000101FF000100010001010A0
:1021A0003010C013000C00030000C0003003800496
:1021B00040082008201FF008200820044003801851
:1021C000300440028001000280044018301FF010EB
:1021D0000010001000100010001FF0700001F0024D
:1021E0000002000200020002001FF01FF0100010A9
:1021F00000100010001FF010001000100010001F51
:10220000F01FF010001000100010001FF010001060
:1022100000100010001FF070000010001000101FD0
:10222000F011001100110011000E001FF01100113B
:10223000001100110011000E00000000001FF01F2F
:10224000F011001100110011000E000820111011F2
:102250001011101110092007C01FF0010001000724
:10226000C008201010101010101010082007C01007
:102270000009E006100210021002101FF00C0012FC
:10228000401240124012401F800FE01050104810C2
:102290004810480F881FC012401240124012400DD3
:1022A000801FC0004000400040004070001C001330
:1022B000C0104010401FC070000F8012401240122A
:1022C0004012400B8010400840058002001FC002F1
:1022D0000005800840104008801240124012400D56
:1022E000801FC004000200010000801FC01FC00446
:1022F000080210011000881FC01FC0020002000564
:102300008008401040100010000FC0004000400046
:10231000401FC01FC0008001000600010000801F98
:10232000C01FC002000200020002001FC00F801088
:10233000401040104010400F801FC000400040007F
:102340004000401FC0FFC010801040104010400FE0
:10235000800F801040104010401040088000400066
:10236000401FC00040004000C087007800180007F0
:102370000000C00F80104010401040FFF8104010C7
:102380004010400F8018C005000200050018C01F53
:10239000C010001000100010001FC0700003C00427
:1023A000000400040004001FC01FC0100010001033
:1023B000001FC01000100010001FC01FC010001030
:1023C0000010001FC01000100010001FC07000009F
:1023D0004000401FC01100110011000E001FC0116D
:1023E00000110011000E0000001FC01FC0110011DD
:1023F0000011000E00088010401240124012400FE1
:10240000801FC0020002000F8010401040104010DA
:10241000400F8011800A400640024002401FC00F5A
:102420008012501240124012500B802F636D6400D6
:102430004D5149736470000D0A436F6E74656E747C
:102440002D547970653A206170706C6963617469AC
:102450006F6E2F782D7777772D666F726D2D757271
:102460006C656E636F6465640D0A0D0A00436F6EE0
:1024700074656E742D4C656E6774683A20000D0AA1
:10248000557365722D4167656E743A207467722FBB
:10249000312E310D0A4163636570743A202A2F2A68
:1024A0000D0A436F6E6E656374696F6E3A20636CDC
:1024B0006F73650D0A000D0A0020485454502F31E7
:1024C0002E310D0A486F73743A2000504F53542038
:1024D000000D0A557365722D4167656E743A206D63
:1024E000656761640D0A4163636570743A207465C1
:1024F00078742F68746D6C0D0A0D0A0020485454CE
:10250000502F312E310D0A486F73743A2000474521
:10251000542000000108000604000145000082006C
:102520000040002011241FBECFEFD1E2DEBFCDBF9F
:1025300000E00CBF18E0A0E0B2E0EAE9F2E701E059
:102540000BBF02C007900D92A439B107D9F722E161
:10255000A4E9B8E001C01D92A73EB207E1F70E94CE
:102560009C3A0C944BB90C9400001092880A10927B
:10257000870A8FEF8093210208950F931F93CF93C3
:10258000DF93EB0140E350E0BC0182ED91E10E945A
:102590009CB563EC72E082ED91E10E9440B510922F
:1025A0000A1220910A122430C8F40097B9F08E0163
:1025B000020F111D4AE050E060E070E00E94F9B3A4
:1025C000F801608380910A128F5F80930A1263EC96
:1025D00072E080E090E00E9440B5E3CF822FDF916F
:1025E000CF911F910F910895613049F4DA01E3E72B
:1025F000F2E08D91819382E0E937F807D1F70895F1
:10260000623049F4DA01EFEEF0E18D91819380E1DF
:10261000E53FF807D1F70895E0917111F09172113B
:10262000908121E030E0082E01C0220F0A94EAF7E1
:10263000922B90830895E0916B11F0916C112081A1
:1026400081E090E000901A0202C0880F991F0A945E
:10265000E2F7282B2083089570E0DC0111964C915D
:10266000119750E09B01225031094217530799F40A
:102670001696EC9163507109F0E0E617F7075CF4E9
:10268000E80FF91F8781805A843028F49285915091
:1026900081E0943008F080E00895FC01CB012081B6
:1026A0002033E1F42481211119C025812430B1F4B3
:1026B000DB010D900020E9F7AD0141505109461BA7
:1026C000570B268130E04217530741F4BF01695F81
:1026D0007F4F0E948EB521E0892B09F020E0822FE8
:1026E0000895FC013681E30FF11D978180E6890F83
:1026F000823078F42285E20FF11D8189803349F41C
:1027000081E1830F820FFB018083903A21F481E005
:10271000089580E0089582E0089542E0242F30E09B
:10272000662341F0FC01E20FF31F21812E5F420F6F
:102730006150F4CF820F931F0895FF920F931F9360
:10274000CF93DF93EC0188818033C1F4098180E06D
:1027500010E09EEFF92E202F30E0281B31092330A6
:10276000310554F09F2D981B090F612FCE01D5DF45
:10277000FC0181811F5FEFCF812F01C080E0CDB7C9
:10278000DEB7E5E00C94BAB2CF93DF93EA01C5DF80
:10279000FC0183819581963079F49681913061F4C2
:1027A0008350883048F43796DE01982F992329F01A
:1027B00021912D939150FACF80E0DF91CF91089530
:1027C000A4E0B0E0E6EEF3E10C94A0B219821A8224
:1027D0001B821C8224E0298321E02A832AE22B83A6
:1027E000FC01DE01119620E030E0462F50E0241776
:1027F00035075CF411917D91711768F0171768F037
:102800002F5F3F4F2330310591F7643030F0FC01EA
:1028100083818F5F03C08FEF01C080E02496E3E0E7
:102820000C94BCB2A8E0B0E0E8E1F4E10C949BB2F7
:102830007C01C62E8A01D12CDC1491F0AE014F5FD1
:102840005F4F6D2DC701A0DF682FCE010196B8DF65
:10285000F80181938F01D394883070F38D2D01C0DE
:1028600080E02896E8E00C94B7B2A8E0B0E0EBE393
:10287000F4E10C949BB27C01C62E8A01D12CDC14AD
:10288000E9F0AE014F5F5F4F6D2DC7017DDFFE01A7
:10289000E80FF11D9081F80191938F01D39484305A
:1028A00079F48981843061F48A81813049F48B81A3
:1028B0008A3231F48C81883010F302C080E001C08C
:1028C0008D2D2896E8E00C94B7B2DC011696EC91B9
:1028D0001697F0E0AE0FBF1F22EA17962C931797BA
:1028E0001A962C91E20FF11DE80FF91F6587408BB6
:1028F0000895EF920F931F93CF93DF93FC0180E332
:10290000808386E0828393E0940F93839BE2948399
:10291000858381E08683EF012796DB01460F8A2FAE
:10292000861B4A1719F08D918993F9CFEF01C80FD3
:10293000D11D2F83E886875FD80120E030E0AF010A
:10294000480F511DE21641F09D91EA01C20FD31FBD
:1029500098832F5F3F4FF6CF8E0D9EEF980F918398
:10296000DF91CF911F910F91EF900895A6E0B0E015
:10297000ECEBF4E10C9493B26C01F62E3A0184E096
:10298000898381E08A838AE28B831C82512C412CCB
:10299000822E912CA62EB12C82E0A80EB11C852D82
:1029A000992787FD9095881599050CF055C0F3017E
:1029B000E80FF91F40814C8350E04830510508F082
:1029C00049C0FA01EA59FF4F042D10E00C9466B299
:1029D000C501800F911F3AE0E32E05EC12E027C0FD
:1029E000C501800F911FEE24E39406E918E029C089
:1029F000C501800F911FEE24E3940EE012E021C088
:102A000060ED72E002C067ED72E085E69CE00E9436
:102A100087B5E5E6FCE001900020E9F73197E5563F
:102A2000FC40C501800F911FEE2E05E61CE024E05E
:102A300009C0C501800F911F22E0E22E8E010B5FBD
:102A40001F4F22E044E0BE016F5F7F4F8C0D9D1D44
:102A500050DF480E5394A3CFF601EF0DF11D4182D4
:102A6000842D8F0DF60181839681E90FF11D92EA85
:102A700097839285965F940D90878E5F2696E0E10E
:102A80000C94AFB2CF93C82F6BED72E08FE792E159
:102A90000E9487B590913C129F5F923038F06CE3B2
:102AA00072E18FE792E10E9487B518C080918002A1
:102AB0001F928F932FE732E13F932F9342EE52E024
:102AC0005F934F933F932F930E9439B68DB79EB774
:102AD00008960FB6F8949EBF0FBE8DBFCF3FB1F0E2
:102AE0001F92CF938FE792E19F938F9327EE32E06F
:102AF0003F932F939F938F930E9439B68DB79EB7C4
:102B000008960FB6F8949EBF0FBE8DBFCF91089563
:102B1000F894E0916B11F0916C11908121E030E01C
:102B200001C0220F8A95EAF7322F309593239083C4
:102B3000E0917111F09172118081822B80838BED75
:102B400095E00197F1F700C00000E0917111F0915C
:102B50007211808183238083EAEDF0E03197F1F7F1
:102B600000C0E0916512F09166128081E1E0F5E02D
:102B70003197F1F7789482230895F894E0916B11DE
:102B8000F0916C11408121E030E0062E01C0220F4F
:102B90000A94EAF7922F909549234083E0917111AE
:102BA000F09172113081322B308329E22A95F1F7AE
:102BB00000C0882339F0E0917111F0917211808189
:102BC0008923808385EE8A95F1F70000E0917111E9
:102BD000F091721180818923808378940895F8940C
:102BE000E0916B11F0916C11908121E030E0082EA2
:102BF00001C0220F0A94EAF7322F30959323908375
:102C0000E0917111F09172119081922B908395E176
:102C10009A95F1F7E0917111F091721190819323DF
:102C2000908395E29A95F1F700C0E0916512F091DA
:102C30006612208190ED9A95F1F70000789430E0CB
:102C400002C0359527958A95E2F7822F8170089505
:102C50001F93CF93DF93D82F162FC9E0C15031F0C7
:102C6000612F8D2F817089DFD695F8CFDF91CF91BD
:102C70001F9108951F93CF93DF93182FD9E0C0E0E1
:102C8000D15049F0812FABDF20E8829FC001112491
:102C9000C695C82BF5CF8C2FDF91CF911F9108954A
:102CA000EF92FF920F931F93CF93DF93182FF62E7F
:102CB000EA01E22E2DDF811163C0612FF11003C004
:102CC0008CECC6DF09C085E5C3DF00E0612F899188
:102CD000BFDF0F5F0830D1F7612F8EEBB9DF812F97
:102CE000C9DFC82F812FC6DFD82FF11012C0812F66
:102CF0000FDF612F8CECACDF612F84E4A9DFEE2DB8
:102D0000F0E0EE0FFF1FEB56FD4E2BE930E0318374
:102D10002083E0917111F0917211908121E030E0F7
:102D2000012E01C0220F0A94EAF7922B9083E091C2
:102D30006B11F0916C119081922B9083EC2FE295A6
:102D4000EF702D2F277080E1289F90011124E22B36
:102D5000CF7041E752E0C49FC001C59F900D112480
:102D6000D7FF03C0EF578051974264E670E00E949E
:102D700015B2CB0124E6E202800D911D112402C0A0
:102D800088EC92E3CDB7DEB7E6E00C94B9B298E0F8
:102D90002CE8362F3827869530FD8227669591508E
:102DA000C1F70895A1E0B0E0E8EDF6E10C949BB224
:102DB000F82E6983ADDE6981662301F16F2D85E50B
:102DC00047DF6F2D8AE344DF6AE380E0E0DFE82E2F
:102DD00059EDC52E50E1D52E86016F2DF60181915A
:102DE0006F0136DFF80160818E2DD1DFE82EFFED17
:102DF000CF16F0E1DF0681F76F2D02C06F2D8CEC4E
:102E000027DF6F2D85EF24DF04E08F2D33DF182FB0
:102E10001F7082958F70482F50E0212F30E0209551
:102E200030952F7033274217530711F400E003C089
:102E3000015059F70FEF8F2D6BDE0F3F09F41FEF95
:102E4000812F2196E8E00C94B7B2A0E0B0E0EBE26D
:102E5000F7E10C9499B2F82EB42E862F8C6FE82EE1
:102E600064E0D62EA82EA0948F2D52DE6F2DBB20AD
:102E7000D1F085E5EDDE6F2D8AE3EADE6AE380E0DE
:102E800086DFC82EC9EDD0E18E016F2D8991E0DE7D
:102E9000F80160818C2D7BDFC82EF0E1CF3DDF078C
:102EA00099F76F2D01C08CECD3DE6F2D8AE5D0DE53
:102EB0006F2D8E2DCDDE6F2D8A2DCADE8F2DDADEA1
:102EC000C82F8F2DD7DECA3A19F0DA9409F0CCCF8B
:102ED0008F2D1EDECDB7DEB7EAE00C94B5B246EE1C
:102EE00053E160E070E08EE79CE00C94C795DC0154
:102EF0002C912F3229F5FC01319680E0BF01919190
:102F0000903231F09F3221F0BF018F5F8630B1F7F0
:102F100090E0681B790BE8EEF0E1DF010D900020F6
:102F2000E9F7AD0141505109485E50414817590732
:102F300039F4CF010E948EB5892B11F481E00895F8
:102F40008FEF08958234A1F4673019F48CE890E093
:102F50001FC0663019F48AE890E01AC0653019F491
:102F600088E890E015C06430B9F483EB90E010C0BD
:102F7000853491F4633019F488E990E009C0643035
:102F800019F48AE990E004C0653031F48CE990E0EE
:102F900090930312809302120895863419F481E30A
:102FA00090E01DC0853419F48EE290E018C08234A0
:102FB00019F485E290E013C0873419F484E390E0BB
:102FC0000EC0843419F48BE290E009C0813419F406
:102FD00082E290E004C0833431F488E290E0909380
:102FE0006912809368120895863479F481E390E041
:102FF00090936C1180936B1180E390E09093721129
:10300000809371118FE290E065C0853479F48EE28F
:1030100090E090936C1180936B118DE290E090930F
:103020007211809371118CE290E054C0823479F473
:1030300085E290E090936C1180936B1184E290E0B4
:10304000909372118093711183E290E043C08734B2
:1030500079F484E390E090936C1180936B1183E397
:1030600090E0909372118093711182E390E032C0EE
:10307000843479F48BE290E090936C1180936B111F
:103080008AE290E0909372118093711189E290E04E
:1030900021C0813479F482E290E090936C118093A6
:1030A0006B1181E290E0909372118093711180E234
:1030B00090E010C0833491F488E290E090936C111A
:1030C00080936B1187E290E090937211809371115D
:1030D00086E290E090936612809365120895A1E0D5
:1030E000B0E0E5E7F8E10C94A0B2182F862F4983F1
:1030F0007BDF4981113319F4842F8EDA0EC0E09101
:103100007111F0917211808121E030E001C0220F35
:103110004A95EAF72095282320832196E3E00C9432
:10312000BCB2CF93C82F833038F580911C0235DFB5
:10313000C13089F4E0916812F0916912208181E038
:1031400090E000901D0902C0880F991F0A94E2F7D1
:10315000282B208328C0C23079F4E0916812F091C6
:103160006912208181E090E000901D0902C0880F63
:10317000991F0A94E2F714C0C33011F45CDA13C04B
:10318000C43089F4E0916B11F0916C11208181E0E1
:1031900090E000901A0202C0880F991F0A94E2F78B
:1031A000809582238083CF910895CF93C82F8091FB
:1031B0001B021ADFC13079F4C0911D0980911C02F5
:1031C00013DF8C2F29DAC0911A0280911B020CDFC9
:1031D0008C2F22DA15C0C23061F0C43079F4C0916E
:1031E0001A0280911B0200DF8C2F16DA24DA81E0AC
:1031F00098DF84E096DF82E094DF05C084E091DF11
:1032000081E08FDF18DACF910895EF92FF920F934C
:103210001F93CF93DF93E82E80911B02E5DEC7E07A
:10322000D0E0F12C01E010E022E32A95F1F7E091E3
:103230006B11F0916C1180911A0297010C2E02C053
:10324000359527950A94E2F720FF0AC02081A8014E
:1032500002C0440F551F8A95E2F7242B20830BC030
:103260002081A80102C0440F551F8A95E2F7CA01C8
:1032700080958223808381E054DF82E052DF84E006
:1032800050DF219788F640911A0260911B0280E37B
:1032900026DF81E046DFE0916512F09166128081C1
:1032A00090E000901A0202C0959587950A94E2F783
:1032B0008170992721E08227C82FC17082E031DF19
:1032C00084E02FDFD0911A0280911B028DDE8D2FBA
:1032D000A3D98C2FCDB7DEB7E6E00C94B9B2EF924C
:1032E000FF920F931F93CF93DF93E82E40911A0222
:1032F00060911B0280E3F3DE80911B0275DE82E0A9
:1033000010DFC7E0D0E0F12C01E010E081E009DF40
:10331000E0916512F0916612208130E000901A026F
:1033200002C0359527950A94E2F720FD09C098015F
:103330000C2E01C0220F0A94EAF72095F22207C052
:1033400098010C2E01C0220F0A94EAF7F22A82E0BB
:10335000E8DE2197D8F6C0911A0280911B0244DE64
:103360008C2F5AD981E0DDDE81E0E81202C063D9FA
:1033700002C084E0D6DE82E0D4DE40911A02609181
:103380001B0280E3ACDE8F2DCDB7DEB7E6E00C94F8
:10339000B9B21F93CF93DF93182FEB0181E005DFC4
:1033A00082E003DF80E831DF812F2FDF8C2F2DDFDC
:1033B0008D2F2BDF83E0F9DEDF91CF911F910895F0
:1033C000CF93DF93C82F81E0F0DE82E0EEDE80E86D
:1033D0001CDF8C2F1ADF83E0E8DE82E0E6DE81E886
:1033E00014DF80E07CDFC82F81E079DFD82F83E015
:1033F000DCDE2D2F30E0922F88278C0F911DDF917E
:10340000CF910895A0E0B0E0E8E0FAE10C9499B221
:10341000B82EBEE3CB2EBCE0DB2E03E212E0C0E010
:10342000D0E0E82EF12CC7018652954F7C01F601C1
:1034300081916F01813051F121960E5F1F4FC7328C
:10344000D105A9F7EB2DF0E0EE0FFF1FED5DFD4F6D
:103450000190F081E02DC191C0936412CF010E94D0
:103460000AB5809320098C2FBFDDE0916B11F0919C
:103470006C11208181E090E00090200902C0880F4B
:10348000991F0A94E2F7282B20832AC0DE01A0515D
:10349000B44F8C91833081F6DE01A652B54F9C91DA
:1034A000F70180819813C8CFF801A081B181AD9058
:1034B000A0926412CD010E940AB5809320098A2D42
:1034C00093DDA0916B11B0916C112C9130E00090C4
:1034D000200902C0359527950A94E2F720FFACCF6A
:1034E000CDB7DEB7EAE00C94B5B2A1E3B0E0EBE70C
:1034F000FAE10C9491B24C016FA34BA72E8F86E496
:1035000096E4A0E08E8B9F8BA88F8B8B9C8BAD8BD2
:10351000888B998BAA8B10920A1223E02CA31D8E04
:1035200019A222242394312C9E01295F3F4F3A8F08
:10353000298F262F30E039A728A7220F331F2C5AB6
:10354000344F3EA32DA33DA72CA7AE014F5F5F4F85
:103550005C8F4B8F10910A12A12EB12CF4010190B7
:103560000020E9F73197E819F909AE16BF0608F00F
:10357000B2C6A80CB91CD5012C912A3049F486E4B6
:103580008E8B8F8B1C868B8B8C8B1D8E19A291C67C
:103590002A3311F02D3321F43D8D333009F076C6F6
:1035A0002B3309F475C6203709F474C6213609F4A3
:1035B00073C6253609F473C6273609F473C6233754
:1035C00009F050C00EE31CE039EDA32E31E0B32E1C
:1035D00043E2C42E42E0D42E50EFE52E5BE0F52E00
:1035E000D8018D918D01813071F5F6018081918135
:1035F000DC017D90CD010E940AB52C01682F872D3A
:10360000A1DC872DF1DCF7018081813049F4E09164
:103610000212F091031260817181615080F413C035
:10362000E0916B11F0916C11808190E0042C02C04C
:10363000959587950A94E2F780FF05C060E070E0F9
:10364000C5010E9489B8F2E0AF0EB11C22E0C20EA3
:10365000D11C3FEFE31AF30A4CE00536140709F0DA
:10366000BFCF27C6213409F420C6223409F41FC66F
:103670002C3709F430C62B3209F421C62E3709F451
:1036800020C62D3209F420C65D8D511107C08E89E8
:10369000863411F02F8B0DC62E8B0BC63D8D373027
:1036A00039F48B89863411F02C8B03C62B8B01C621
:1036B0005D8D583039F48889863411F0298BF9C52D
:1036C000288BF7C53D8D3130A9F48E898335D9F427
:1036D000203319F41092E51009C0223321F48091AF
:1036E000E5108130B9F381E08093E51086E48E8B9C
:1036F0008F8BDFC55D8D543031F08D8D85508230DC
:1037000008F07FC40EC03FA1343659F0E8A5F9A5F2
:10371000E25CF34F8081811104C0ADA1BEA11D9276
:103720001C928F89863409F41F8ACE0146960E9426
:103730000AB52C018AA7082F112707FD10957801DB
:10374000EE0CFF1CF701ED5DFD4F80819181FC01C6
:103750007190CF010E940AB56C01D5018C918E3712
:1037600061F4F701E55CF54F80819181029719F4CE
:1037700026E02D8F02C035E03D8F6C2D872DE2DBDA
:10378000872D32DC60900A12A62CB12CA4014A0DC0
:103790005B1D5BA34AA3DA018C9198012F5F344F24
:1037A00038A32F8F8E3531F4D9018C9181110CC043
:1037B00081E008C0863761F4AF8DB8A18C9181118A
:1037C00003C082E08C93F7C3EF8DF8A11082F3C39E
:1037D0008837B1F4AF8DB8A11C9286E48E8B8F8BA5
:1037E000F801EE0FFF1FEE0FFF1FE15AF64F108298
:1037F000118212821382F801E85DF64F1082E1C354
:10380000EF8DF8A11082F801E051F44F90819130D2
:1038100009F0F2C0F801E25CF34F2081213009F099
:10382000EBC0960D292F30E0F40101900020E9F75C
:103830003197E819F9092E173F0758F4F401E20F00
:10384000F31F908126EC290F223018F09D3309F0E8
:10385000C5C059A1252F30E0ECE0F0E0EC0FFD1FD2
:10386000E20FF31F8083FE01E20FF31F158682E44F
:10387000781619F095E47912ABC0CE010C960E942F
:103880000AB5F701EC5AF44F918380832D8D2430D3
:1038900051F4A0910212B09103128D919C91892B49
:1038A00011F011821082C701865D9D4F0E946DB894
:1038B000F701EE55F44F918380833D8D353008F448
:1038C00076C0ADA1BEA18D919C91A8A5B9A5A85D1A
:1038D000B64F009769F58C91811157C0E0910212A3
:1038E000F091031280819181892B29F0AAA1BBA1BB
:1038F0008C918E3719F02D8D253041F01182108278
:10390000F701E55CF54F3182208262C0D801A85DE5
:10391000B64F8C91811102C08FEF8C938C9190E007
:103920009183808382E090E0F701E55CF54F4EC023
:103930000197D9F5E0910212F09103123D8D3530D7
:1039400049F4808191818F3F910580F4808191813C
:1039500001960AC05D8D563049F480819181892B92
:1039600029F08081918101979183808381E08C93FC
:1039700083E090E0ACA5BDA58D939C93808191815F
:10398000F801E85DF64F808323C0813071F4F701C0
:10399000E55CF54F80819181029728F482E090E008
:1039A0009183808302C0318220821C9211C00097D3
:1039B00051F4E0910212F0910312D701AC5AB44FC6
:1039C0008D919C9103C0F701E158FE4E9183808355
:1039D00086E48E8B8F8B1C8619A2F3C28A3209F47F
:1039E000EEC2ECE0F0E0EC0FFD1F29A1E20FF11DAB
:1039F00080832F5F29A3E5C22889263409F4B2C049
:103A0000CE0140960E940AB5782E6EE37CE084E1F8
:103A1000482E82E1582E43E252E0C12CD12C98016D
:103A20002556374F3BA32AA366246394DB018D916F
:103A3000BD01813009F07FC0F601E051F44F808173
:103A4000811179C0F601E652F54F8081871173C06C
:103A5000FA01A080B180C501019648AB59ABAEA771
:103A60007FA70E940AB58C01D5018C91BDDAE09147
:103A70006B11F0916C112081112707FD109530E03A
:103A8000002E02C0359527950A94E2F721708091A7
:103A90000A12D401A80FB11D8C9148A959A96EA58D
:103AA0007FA5813359F0833321F43E8D313091F479
:103AB00005C0843361F43E8D311110C03081C101E5
:103AC000002E01C0880F0A94EAF7382B1FC08033FC
:103AD00099F407C03E8D332321F019C03E8D31305B
:103AE000B1F43081C101002E01C0880F0A94EAF7B9
:103AF0008095832380830BC0823349F43081C101D8
:103B0000002E01C0880F0A94EAF738273083E0912D
:103B10006B11F0916C11808190E0002E02C09595A0
:103B200087950A94E2F78170821729F0AAA1BBA1B8
:103B30006C926092C208F2018081843610F48C5934
:103B40008083FFEFCF1ADF0A2FEF421A520A4E5F2F
:103B50005F4F37E2C316D10409F068CF86E4888B43
:103B6000898B29C2923009F04AC05CA1533009F414
:103B700046C06091D9108C2D15D9682F66956B7F42
:103B800080910A12F401E80FF11D8081813359F010
:103B9000833321F42E8D2130F1F405C0843369F490
:103BA0003E8D31111CC091010CA002C0220F331FA9
:103BB0000A94E2F7209562231DC0823349F49101F3
:103BC0000CA002C0220F331F0A94E2F7622712C032
:103BD000803381F407C05E8D552321F00BC02E8DFC
:103BE000213041F491010CA002C0220F331F0A942E
:103BF000E2F7622B4091D9108C2D27D9DCC1F80156
:103C0000E25CF34F2081243009F052C1F801E95EF3
:103C1000F34F2081253109F04AC085E0A98DBA8D86
:103C20001D928A95E9F7CE0143960E940AB58C0150
:103C300020E0822F90E0F401E80FF91FEA0DFB1D50
:103C400030813B3311F0311129C08FEF860D820F87
:103C500080930A1270921B02C0921A02F701EE556D
:103C6000F44F0190F081E02DEE0FFF1FED5DFD4F51
:103C700080819181FC012191CF0120931C020E943F
:103C80000AB580931D09CE0107960E940AB5BC01B2
:103C9000802F880F880F885F7CDB86C0E7E0F0E02C
:103CA000EC0FFD1FE80FF91F30832F5FC2CF2431C7
:103CB00009F07EC0CE0143960E940AB55C01D82E61
:103CC00070921B02C0921A02F701EE55F44F019058
:103CD000F081E02DEE0FFF1FED5DFD4F80819181A2
:103CE000DC012D91CD0120931C020E940AB5809326
:103CF0001D0981E05ADA82E058DA80E486DAF801B8
:103D0000E652F54F8081813039F4B7E0BA1520F4DE
:103D100089E17BDA18E003C089E077DA10E083E01C
:103D200044DA82E042DA81E470DA81E0D8DA082FFE
:103D300083E03BDA80910A12F401E80FF11D208143
:103D4000BB24812F90E0A81AB90A213349F4F1016C
:103D500002C0EE0FFF1FAA94E2F75F01A02A14C071
:103D6000223349F4910102C0220F331FAA94E2F7D3
:103D70005901A02609C0A10102C0440F551FAA94F1
:103D8000E2F75A01A094A02281E00FDA82E00DDA76
:103D900080E43BDA112311F089E101C089E035DAD2
:103DA0008A2D33DA83E001DA86E48B8B8C8B03C1B6
:103DB000243009F07DC05AA5563259F483E480932B
:103DC0001C0210921D0980931B0281E080931A024D
:103DD00019C070921B02C0921A02F701EE55F44FFF
:103DE0000190F081E02DEE0FFF1FED5DFD4F808112
:103DF0009181DC012D91CD0120931C020E940AB516
:103E000080931D0981E0D1D982E0CFD920910A1297
:103E1000FE013C9680E090E0A401420F511D9A0102
:103E2000482FD901A80FB91F5C915B3341F055238E
:103E300031F0519301968330910591F743E0ECE026
:103E4000F0E0EC0FFD1FE40FF11D1082CE010C9687
:103E50000E940AB5182F823079F489E7D6D981E01B
:103E60003EDA082F83E0A1D911E0033009F410E015
:103E700081E09BD982E099D988E7C7D980E0C5D98C
:103E8000113011F48FEA09C0111102C08EEA05C089
:103E90001F3F21F081E8B9D9812FB7D982E085D9B8
:103EA00081E08093B80A1092B60A1092B50A83C0D6
:103EB000E0916B11F0916C112081DD24C7FCD0944E
:103EC00030E00C2C02C0359527950A94E2F7522F6A
:103ED0005170B52E813359F0833321F42E8D21306A
:103EE000D1F405C08433A1F43E8D311118C0933054
:103EF00031F4D801A652B54F8C918F3F91F52081B6
:103F0000C1010C2C01C0880F0A94EAF7282B34C099
:103F1000803341F012C05E8D552321F02EC02E8DCE
:103F2000213059F52081C1010C2C01C0880F0A9461
:103F3000EAF780958223808320C08233F1F49330A6
:103F400099F4D801A652B54F8C918F3F69F08081CA
:103F500090E00C2C02C0959587950A94E2F780FDBD
:103F600003C0842D4FDA09C02081C1010C2C01C08F
:103F7000880F0A94EAF728272083E0916B11F091CB
:103F80006C11808190E00C2C02C0959587950A9465
:103F9000E2F781708B1539F081E0F801E556F74FB3
:103FA00080838093C208F801EC5EFD4E80818436E8
:103FB00010F48C59808386E48E8B8F8B02C034E0A2
:103FC0003D8FAF8DB8A18C9118160CF072C1209165
:103FD0000A12F401E20FF11D818190ED980FF701B3
:103FE000EC5AF44F9A3050F4992787FD9095C0977A
:103FF000918380832F5F20930A125BC1118210820C
:1040000058C13D8D323009F055C059A1852F90E03F
:10401000E1E0F0E0EC0FFD1FE80FF91F2083FE0147
:10402000E80FF91F12825F5F59A381E0810F90E0D2
:10403000F40101900020E9F73197E819F9098E178A
:104040009F0758F4F401E80FF91F808196EC980F50
:10405000923018F08D3309F02CC11E5F3BA5130F71
:10406000173108F026C15FA1E52EF12C4AE050E09F
:1040700060E070E0CE0101960E94F9B39B01AC01B3
:10408000F701EE0FFF1FEE0FFF1FE15AF64FA4E1FD
:10409000B0E00E9481B26083718382839383F701D1
:1040A000E85DF64F108385E0AB8DBC8D1D928A953F
:1040B000E9F711C12D8D233009F0FBC01F5F10936C
:1040C0000A1223E232E038A32F8F2EE33CE03BA319
:1040D0002AA314E1C12E12E1D12E0AED602E0AE0CE
:1040E000702E00E010E044244A94512C93E0A92E55
:1040F000AF8DB8A18D919D91B8A3AF8FFC01B19008
:10410000CF010E940AB57C018B2D0E94F417AAA151
:10411000BBA18D91BBA3AAA3813009F0AAC0F8016D
:10412000E051F44F80818230F9F480910A12F40159
:10413000E80FF11D8081813309F4C9C0803309F48F
:10414000C8C0823309F095C060E08E2D0E94D2165F
:10415000682F66956B7F6A25643008F08AC040E05E
:104160008E2D0E94251785C0813049F56E2D8B2D2F
:104170000E94A21780910A12F401E80FF11D8081BC
:10418000803329F4E0910212F091031212C08133BE
:1041900029F4E0910212F09103120EC0823309F06B
:1041A00068C0E0910212F091031280819181892B05
:1041B00019F0118210825DC0518240825AC09091E4
:1041C0000A12F401E90FF11D90819133A1F48330BB
:1041D00021F4F30180818F3FC9F5E0916B11F091DB
:1041E0006C118081910102C0220F331FEA94E2F723
:1041F0007901822B37C0903381F4E0916B11F091FB
:104200006C118081A10102C0440F551FEA94E2F7AE
:104210007A01E094E822E08226C0923321F5E09111
:104220006B11F0916C11FF24E7FCF094833089F45A
:10423000D3018C918F3F69F0808190E00E2C02C0F9
:10424000959587950A94E2F780FD03C0802FDAD810
:104250000AC08081910102C0220F331FEA94E2F765
:10426000790182278083D6018C91843610F48C5991
:104270008C930F5F1F4FBFEFCB1ADB0AEFEF6E1A65
:104280007E0A0632110509F033CF13C021E008C0C1
:104290001D8E0FC032E007C053E05D8F0AC027E0DB
:1042A0002D8F07C038E03D8F04C01CA202C051E032
:1042B0005CA380910A128F5F80930A124BC935E08C
:1042C00004C055E05D8F19CA36E03D8F16CA60E024
:1042D00046CF63E044CFE196E2E10C94ADB2AFE1AA
:1042E000B0E0E5E7F1E20C949CB2322F273240F4C3
:1042F000E22FF0E0EE0FFF1FE55CF54F1182108218
:10430000DE0111967D015E96F7011192EA17FB0717
:10431000E1F7032F10E0373210F02FEF17C0F8014C
:10432000E25CF34F2081233081F4F801E95EF34F22
:104330002081243051F4F801EE0FFF1FE158FE4EAA
:104340000190F081E02DEF2B41F321E02093210239
:10435000F801E155FF4E208121FF05C0883C910501
:1043600009F0AEC0B0C0883C910509F056C0625853
:10437000734FFB0120E0D12CDF01A61BB70BCA0154
:104380004D3D510510F08CED90E0A817B90700F5F0
:1043900081918D3011F08A3039F4223039F08081EA
:1043A0008A3051F72F5FE8CF223081F48F3E49F0F9
:1043B000982F9B7F9B3B29F0D701AD0DB11D8C93AE
:1043C000D394BCE1BD1520F022E0D6CF20E0D4CFBD
:1043D000F701ED0DF11D108289818823F1F08A81AA
:1043E0008436D9F0F70101900020E9F73197D70121
:1043F000AE17BF0761F08D918037D1F7B70189EB18
:104400009AE00E9487B523E040E06CE203C023E01D
:1044100040E064E6C70169D856C0F801E051F44FA6
:104420008081811107C0F801E85DF44F80818F3FE2
:1044300061F414C0823039F4F801E85DF44F8081F2
:104440008E3F19F40BC0813049F0F801E25CF34F64
:104450008081811103C08A818436A9F5373298F5AD
:10446000F801E25CF34F8081833029F081E0F801AC
:10447000EF5FF44F808380E3E2EDF1E1DF011D9215
:104480008A95E9F727E1209FB001219F700D112443
:10449000605E794F47E150E0CF013F8F0E9455B8F1
:1044A0008091D2118F5F3F8D823050F0F801E85D2E
:1044B000F44F20812E5F40E0632F82ED91E115D80B
:1044C00082E0809321026F96E7E00C94B8B2A1E0FD
:1044D000B0E0EDE6F2E20C9497B2482F082F10E01E
:1044E000B8016051744F7B01DB018C914801880C4D
:1044F000991C813099F54E3118F089E290E002C0A4
:104500008CE290E09093661280936512F401ED5D69
:10451000FD4F8081918101960E940AB58093200908
:10452000F401EE55F44FC080D180F601EE0FFF1F6D
:10453000ED5DFD4F8081918101960E940AB5B82EF4
:10454000BEE1CB16D1041CF089E290E002C08CE2FF
:1045500090E0909311128093101239C0F401ED5D38
:10456000FD4F80819181019649830E940AB5B82E42
:1045700049814E3138F089E290E090931112809396
:10458000101206C02CE230E030931112209310126A
:10459000F401EE55F44F0190F081E02DEE0FFF1F76
:1045A000ED5DFD4FC080D180C60101960E940AB525
:1045B00080932009F6018081843419F429E230E0E7
:1045C00002C02CE230E03093661220936512109204
:1045D000DF101092E0101092E1101092E210109291
:1045E000E3101092E41021E030E002C0220F331FEC
:1045F000BA94E2F7B12CC12C78E0D72E40E050E01D
:10460000B0E081E090E0F4E0FA95F1F700004F5F50
:104610005F4F483765E0560779F4BA3108F089C032
:10462000BB0CBB0CBB0C8091DF108295869587700C
:10463000B82AB092DF107DC0E0916512F091661249
:104640006081A091200970E00A2E02C075956795DF
:104650000A94E2F760FD1EC0AA24A394AB0EB150E9
:10466000B83108F4DA94AC0102C0440F551FAA9582
:10467000E2F7DA0164EC79E0408150E04A235B2301
:10468000452B09F04BC06150710961157105A1F707
:1046900081E082C0E0911012F0911112608170E00F
:1046A00062237323672BE9F5AA24A394AB0EB150C0
:1046B0004C2D50E0B83180F46FEF6D0DDC0102C07D
:1046C000AA0FBB1F6A95E2F7BD01DA01A152BF4EE6
:1046D0007C91762B7C93DA94DA01AE51BF4E4FEF8A
:1046E0004D0DBC0102C0660F771F4A95E2F7AB0182
:1046F0005C91542B5C9371E0A71202C0BB24B3946D
:1047000064EC79E0408150E042235323452B31F49F
:104710006150710961157105A9F7BACFBA2D40E052
:1047200050E0D11003C0C39468E0D62EBA3208F42A
:104730006ACF8BEE8B0F853068F48091E210809306
:10474000DF108091E3108093E0108091E41080935B
:10475000E1100AC0B43030F48091DF108695809368
:10476000DF1004C0B53010F083E001C081E0809319
:10477000E210D7018C91813021F4F801E85DF44F0B
:1047800009C0F401EE55F44F0190F081E02DE85D91
:10479000F44F81E0808380E02196ECE00C94B3B28A
:1047A0001F920F920FB60F9211240BB60F922F93F8
:1047B0003F934F935F936F937F938F939F93AF93A9
:1047C000BF93EF93FF93F8948EE181DE8111E89817
:1047D0007894FF91EF91BF91AF919F918F917F91CD
:1047E0006F915F914F913F912F910F900BBE0F9062
:1047F0000FBE0F901F9018951F920F920FB60F9239
:1048000011240BB60F922F933F934F935F936F93A7
:104810007F938F939F93AF93BF93EF93FF93F894FE
:104820008FE155DE8111E9987894FF91EF91BF9166
:10483000AF919F918F917F916F915F914F913F9138
:104840002F910F900BBE0F900FBE0F901F901895D9
:104850001F920F920FB60F9211240BB60F922F9347
:104860003F934F935F936F937F938F939F93AF93F8
:10487000BF93EF93FF93F89480E229DE8111EA98C9
:104880007894FF91EF91BF91AF919F918F917F911C
:104890006F915F914F913F912F910F900BBE0F90B1
:1048A0000FBE0F901F9018951F920F920FB60F9288
:1048B00011240BB60F922F933F934F935F936F93F7
:1048C0007F938F939F93AF93BF93EF93FF93F8944E
:1048D00081E2FDDD8111EB987894FF91EF91BF911A
:1048E000AF919F918F917F916F915F914F913F9188
:1048F0002F910F900BBE0F900FBE0F901F90189529
:104900001F920F920FB60F9211240BB60F922F9396
:104910003F934F935F936F937F938F939F93AF9347
:10492000BF93EF93FF93F8948BE1D1DD8111EC9865
:104930007894FF91EF91BF91AF919F918F917F916B
:104940006F915F914F913F912F910F900BBE0F9000
:104950000FBE0F901F9018951F920F920FB60F92D7
:1049600011240BB60F922F933F934F935F936F9346
:104970007F938F939F93AF93BF93EF93FF93F8949D
:1049800089E1A5DD8111ED987894FF91EF91BF91B8
:10499000AF919F918F917F916F915F914F913F91D7
:1049A0002F910F900BBE0F900FBE0F901F90189578
:1049B0001F920F920FB60F9211240BB60F922F93E6
:1049C0003F934F935F936F937F938F939F93AF9397
:1049D000BF93EF93FF93F89487E179DD8111EE980F
:1049E0007894FF91EF91BF91AF919F918F917F91BB
:1049F0006F915F914F913F912F910F900BBE0F9050
:104A00000FBE0F901F9018951F920F920FB60F9226
:104A100011240BB60F922F933F934F935F936F9395
:104A20007F938F939F93AF93BF93EF93FF93F894EC
:104A300086E14DDD8111EF987894FF91EF91BF9160
:104A4000AF919F918F917F916F915F914F913F9126
:104A50002F910F900BBE0F900FBE0F901F901895C7
:104A60001F920F920FB60F9211240BB60F922F9236
:104A70003F924F925F926F927F928F929F92AF92EE
:104A8000BF92CF92DF92EF92FF920F931F932F93DB
:104A90003F934F935F936F937F938F939F93AF93C6
:104AA000BF93EF93FF93CF93DF93CDB7DEB72797F5
:104AB000DEBFCDBF80911C098F5F80931C09883CAD
:104AC00009F04BC010921C0980911B098F5F8093E5
:104AD0001B0990911A09923111F09A3251F48E31DA
:104AE00041F4809118028230C1F181E08093180274
:104AF00034C08C3391F510921B0931E0390F30939B
:104B00001A098091970890919808A0919908B091FE
:104B10009A080196A11DB11D80939708909398085B
:104B2000A0939908B0939A0821E0209319023C338E
:104B3000A1F410921A09809119098F5F80931909C5
:104B4000883159F410921909809118098F5F809368
:104B50001809883011F4209318098091890A81304E
:104B600099F480911D0290911E02A0911F02B091B4
:104B700020020196A11DB11D80931D0290931E027B
:104B8000A0931F02B093200280914F0B9091500B85
:104B9000A091510BB091520B83309105A105B10545
:104BA00058F00197A109B10980934F0B9093500BD6
:104BB000A093510BB093520B8091D7109091D810C5
:104BC0008230910528F001979093D8108093D710E8
:104BD0008091E7108F3F69F0809126099091270915
:104BE000813127E2920728F001979093270980935B
:104BF00026092EE33CE03A83298325E9422E22E16F
:104C0000522E32EA832E3BE0932E4FE7A42E41E151
:104C1000B42E04E51BE05FE5C52E59E0D52E6BE30D
:104C2000E62E6AE0F62E7FEA272E70E1372EE3E2C9
:104C30006E2EE2E07E2E1F821E827FEFA981BA8156
:104C40002D91BA83A983213009F057C0EE81FF81ED
:104C5000E051F44F8081813009F0AFC0F4018081D0
:104C60009181181619060CF0A8C0D5018D919C9160
:104C7000009709F4A2C0EE81FF81EF5FF44F20811D
:104C800021119BC081309105A9F5F301208131816B
:104C9000C90101962B833C837D830E940AB5682F4E
:104CA0002B813C81D9018C910E94A217E0910212C4
:104CB000F091031280819181682FD8014D915C9110
:104CC0009C0133277D812417350714F461E004C06B
:104CD000421753071CF46FEF680F03C0D4011D92F5
:104CE0001C92862F90E091838083F40180819181D2
:104CF000D50155C00197F5015EC0D7018D919C91FA
:104D00001197009751F101978D939C93BE81B63214
:104D100041F44091870A5091880A452B11F4109272
:104D20004F11009771F4F101308131FD0AC081E02B
:104D300090E0A0E0B0E0F60180839183A283B3838A
:104D40000CC0D1013C9131FF08C0803A910528F494
:104D500070937302F70111821082F60180819181B4
:104D6000A281B38183309105A105B10538F0019787
:104D7000A109B10980839183A283B383233091F485
:104D8000EE81FF81E95EF34F80818430B1F4D80178
:104D90008D919C911197181619067CF401978D93AB
:104DA0009C930BC0211109C0F80180819181823050
:104DB00091051CF0019791838083D2018D919C9184
:104DC0001197009751F0EE81FF81E652F54F208157
:104DD000233019F001978D939C932E813F812F5F93
:104DE0003F4F3F832E8332E0430E511C82E0880EFA
:104DF000911C92E0A90EB11C0E5F1F4FA4E0CA0ED9
:104E0000D11CB2E0EB0EF11CEFEF2E1A3E0AF2E0DD
:104E10006F0E711C2E813F812732310509F00ECFB4
:104E2000EBEFF9E080819181A281B381833091051C
:104E3000A105B10538F00197A109B10980839183DB
:104E4000A283B38334963AE0EB33F30759F78FB17B
:104E5000809530913B12832790910D029823909575
:104E600090930D0220910C022823292720930C02F5
:104E700089238223282F232390910B12922B909326
:104E80000B12382730933B12832320910712282BD3
:104E9000209307128CB18095309104128327909152
:104EA0000B029823909590930B0220910A022823DD
:104EB000292720930A0289238223282F23239091D4
:104EC0000612922B909306123827309304128323F4
:104ED00020916312282B2093631283B18095309127
:104EE00012128327909109029823909590930902BA
:104EF000209108022823292720930802892382234E
:104F0000282F232390916B12922B90936B123827AA
:104F100030931212832320916C12282B20936C1251
:104F200080B1809530917E1283279091070298235B
:104F30009095909307022091060228232927209319
:104F4000060289238223282F232390917511922B07
:104F500090937511382730937E128323209113127A
:104F6000282B2093131286B18095309167128327E6
:104F70009091050298239095909305022091040248
:104F8000282329272093040289238223282F2323DF
:104F900090916A12922B90936A123827309367127D
:104FA000832320917611282B2093761189B1809547
:104FB00030917411832790910302982390959093D8
:104FC0000302209102022823292720930202892329
:104FD0008223282F232390910912922B9093091258
:104FE000382730937411832320916D12282B20933E
:104FF0006D1282B380953091421283279091010205
:10500000982390959093010220910002282329274C
:105010002093000289238223282F232390910512B5
:10502000922B9093051238273093421283232091BC
:105030007311282B2093731180911F098C3021F458
:10504000A09810921F0905C0882319F08F5F8093E4
:105050001F0981E08093210927960FB6F894DEBFDF
:105060000FBECDBFDF91CF91FF91EF91BF91AF9177
:105070009F918F917F916F915F914F913F912F9170
:105080001F910F91FF90EF90DF90CF90BF90AF9066
:105090009F908F907F906F905F904F903F902F9058
:1050A0000F900BBE0F900FBE0F901F901895F894A5
:1050B0009091071289239827909307127894089566
:1050C000F89490910B128923982790930B1278945F
:1050D0000895F8949091631289239827909363120E
:1050E00078940895F89490910612892398279093C4
:1050F000061278940895F89490916C128923982759
:1051000090936C1278940895F89490916B1289237F
:10511000982790936B1278940895F89490911312B5
:10512000892398279093131278940895F894909176
:105130007511892398279093751178940895F894A0
:1051400090917611892398279093761178940895F9
:10515000F89490916A128923982790936A12789410
:105160000895F89490916D128923982790936D1269
:1051700078940895F8949091091289239827909330
:10518000091278940895F8949091731189239827BF
:105190009093731178940895F8949091051289234F
:1051A00098279093051278940895009731F023E59D
:1051B0002A95F1F700000197F8CF08956AE00E9460
:1051C000F5B120E1829F900D1124892F0895982F29
:1051D00092959F708F702AE0929F800D1124089500
:1051E000A6E0B0E0E6EFF8E20C94A1B283E480938D
:1051F0001C0210921D0944E050E06EE271E0CE0105
:1052000001960E9455B8898191E0980F923030F054
:1052100080931C028A81805380931D0983E48093CC
:105220001B0281E080931A0244E050E06CE271E0DE
:10523000CE0101960E9455B8898191E0980F923075
:1052400030F080931B028A81805380931A028091F0
:105250001802823009F443C081E00E94D51882E030
:105260000E94D51880ED0E94051980E00E94051962
:1052700083E00E94D51882E00E94D51881ED0E943B
:10528000051980E00E946F19A2DF80931B0980E05E
:105290000E946F199CDF80931A0980E00E946F19A9
:1052A00096DF8093190981E00E946F198093180995
:1052B00083E00E94D518809118098150873068F0EA
:1052C00082E08093180210921B0910921A09109222
:1052D000190981E08093180902C0109218022696DD
:1052E000E2E00C94BDB2CF93DF93C82F83E00E941D
:1052F000D51881E00E94D51882E00E94D51888E771
:105300000E94051980E00E9405198EEA0E94051985
:1053100085ED0E94051980E80E94051981E80E9428
:1053200005198C2F90E0880F991F87529E4F0E947D
:105330006DB88F3F09F48FE70E9405198DE80E9430
:10534000051984E10E94051981EA0E94051988EC7B
:105350000E94051986EA0E94051980E20E9405193B
:1053600080E00E94051981E20E94051980E00E94F8
:1053700005198FE70E94051980E00E94051982E255
:105380000E94051980E00E94051987E00E94051916
:1053900083E00E94D51882E00E94D51888E70E9419
:1053A000051980E40E940519C0E0D4E080E00E9465
:1053B000051921972097D1F783E00E94D51882E044
:1053C0000E94D51888E70E94051980E00E940519FF
:1053D0008FEA0E94051983E00E94D518DF91CF91D2
:1053E0000895A1E0B0E0E7EFF9E20C949FB2082F36
:1053F000162F81E049830E94D51882E00E94D518BB
:1054000088E70E94051980E00E94051980E20E9449
:10541000051981E00E94051981E20E940519802F7B
:105420000E9405198FE70E94051982E20E94051962
:10543000812F0E94051981E0810F0E94051983E0E8
:105440000E94D51882E00E94D51888E70E940519AD
:1054500080E40E9405194981413039F083E00E94BF
:10546000D5182196E4E00C94BBB200E011E080E096
:105470000E9405190150110901151105C1F7EECF60
:10548000A0E0B0E0E6E4FAE20C9497B2D82FC62F81
:105490007A01D22E8091B80A8A3008F03FC081E0AC
:1054A0000E94D51882E00E94D51888E70E9405194D
:1054B00080E00E94051980E20E94051981E00E94A7
:1054C000051981E20E94051921E0D21202C080E094
:1054D00001C08D2F0E9405198FE70E94051982E2F5
:1054E0000E94051981E0D81201C0C2E08C2F0E94F1
:1054F000051921E0D21202C083E001C081E08C0FC7
:105500000E94051983E00E94D51882E00E94D518F8
:1055100088E70E94051980E40E9405198091D11145
:1055200090E0FC01EE0FFF1FE158FE4E208131811B
:105530004091B80A2A30310511F4413041F0FC01A4
:10554000E155FF4E8081873051F4423041F48AE0CA
:105550008093B80A1092B60A1092B50AD6C04130AC
:1055600031F484EF91E09093B60A8093B50A00E09D
:1055700010E0C12C8C2D90E0F70101900020E9F79C
:105580003197EE19FF098E179F0708F081C0F701C8
:10559000E80FF91F8081803279F4D11010C080E0CB
:1055A0000E94051980E00E94051980E00E940519FB
:1055B00080E00E9405194AC0803208F447C0982F45
:1055C0009D0D8FED890F803B10F08FEA890F90E0E1
:1055D00021E0D2126FC0FC01EE0FFF1FE80FF91F90
:1055E000E051FB4E8490FC01EE0FFF1FE80FF91F06
:1055F000EF50FB4EA590B49024E0829E4001112410
:10560000E801EC2FE01BF0E0E815F905F0F420913B
:10561000B50A3091B60AC9010A96C817D90758F4D5
:10562000C217D30740F0EA0DFB1DE95BFA4E8491E7
:105630000E94051908C0C817D90729F4D093B60AE3
:10564000C093B50A62C02196DCCF8E018091B50A65
:105650009091B60A9C01265F3F4F0217130718F47A
:105660000817190720F48091B80A8A3078F480E08E
:105670000E94051980E00E94051981E0D81206C039
:1056800080E00E94051980E00E940519C39472CF42
:105690008091B80A8A3039F481E08093B80A109278
:1056A000B60A1092B50A8FEF8093220283E00E941F
:1056B000D5182BC0FC01EE0FFF1FE80FF91FE959A9
:1056C000F54EC491FC01EE0FFF1FE80FF91FE859DA
:1056D000F54EA590B490D0E0CC0FDD1F88248394C4
:1056E000912CE92DF0E0EC17FD0708F0AFCFE80DA5
:1056F000F11D87FCFA95EA0DFB1DE95BF34E8491E1
:105700000E94051981949394ECCFCDB7DEB7ECE0FD
:105710000C94B3B2CF92DF92EF92FF92CF93C82F47
:1057200081E00E94D51882E00E94D51880E80E948E
:10573000051983E00E94D51882E00E94D51880E800
:105740000E940519C13011F483EE01C085EE0E945C
:10575000051983E00E94D5188AEF90E026DD82E0EB
:105760000E94D518C13019F484EA96E002C08CE298
:1057700091E01BDD81E80E94051988EC90E015DDC1
:1057800080E00E946F19F82E81E00E946F192F2D82
:1057900030E0322F2227282B442737FD4095542F05
:1057A0002C7F44275527A0E1B7E20E9481B29C01DB
:1057B000552737FD5095452FC13049F4A4EAB4E48C
:1057C0000E9481B2605D7F4D8A4C924008C0A4ED7A
:1057D000B0E30E9481B260587D488B45910920E179
:1057E00037E240E050E00E944AB269017A01CA0102
:1057F000B90124E630E040E050E00E944AB2F7FEF2
:1058000029C09B0177FF04C022273327261B370BB3
:105810003F932F93C701B60124E630E040E050E00B
:105820000E944AB23195219531093F932F938DEF14
:1058300094E09F938F9382ED91E19F938F930E94C9
:1058400039B68DB79EB708960FB6F8949EBF0FBEB7
:105850008DBF1AC09F938F937F936F935F934F93E6
:105860003F932F938FE993E09F938F9382ED91E184
:105870009F938F930E9439B68DB79EB70C960FB643
:10588000F8949EBF0FBE8DBF83E00E94D518CF91C4
:10589000FF90EF90DF90CF900895CF93DF9381E05A
:1058A0000E94D51882E00E94D51886E40E9405194E
:1058B00080E10E94051983E00E94D51882E00E94D1
:1058C000D51887E40E94051980E00E946F19C82F3F
:1058D00081E00E946F19D82F83E00E94D518AD2F68
:1058E000B0E0BC2B2AE030E00E947BB22CE030E03C
:1058F00040E050E00E944AB25F934F933F932F9352
:105900008DEE92E09F938F9382ED91E19F938F9321
:105910000E9439B68DB79EB708960FB6F8949EBF11
:105920000FBE8DBFDF91CF910895CF93DF9390E0AD
:105930000496F4E0880F991FFA95E1F7C82FC26822
:1059400081E00E94D51882E00E94D51880E90E946B
:10595000051981E00E94051981E08C0F0E9405194C
:1059600083EE0E94051983E00E94D51885EA9EE027
:105970000197F1F700C0000082E00E94D51880E98D
:105980000E94051980E00E94051983E00E94D51845
:1059900082E00E94D51881E90E94051980E00E94EA
:1059A0006F19C82F81E00E946F19D82F83E00E94E1
:1059B000D5182D2F30E03C2B37FF02C020E030E01F
:1059C0003F932F9384E994E09F938F9382ED91E12D
:1059D0009F938F930E9439B60F900F900F900F9066
:1059E0000F900F90DF91CF910895CF93DF9381E0D7
:1059F0000E94D51882E00E94D5188AE20E940519FB
:105A000084E00E94051983E10E9405198BE80E9439
:105A1000051980E00E94051981E00E94051983E0C4
:105A20000E94D51884E39CE00197F1F700C00000C4
:105A300082E00E94D5188BE20E94051980E00E9446
:105A40006F1980E00E946F1980E00E946F19C82FC3
:105A500081E00E946F19D82F83E00E94D51830E0B2
:105A60003C2B3F93DF9384E994E09F938F9382EDE7
:105A700091E19F938F930E9439B60F900F900F90F2
:105A80000F900F900F90DF91CF910895A1E0B0E0BB
:105A9000ECE4FDE20C949CB281E00E94D51882E017
:105AA0000E94D51884EB0E94051980E00E94051918
:105AB00083E00E94D51882E00E94D51885EB0E94F1
:105AC000051981E00E946F19898383E00E94D5182F
:105AD000898184FD22C08EE994E20197F1F700C02C
