:100000000C94B9120C947E240C94AA240C94D6243B
:100010000C9402250C942E250C945A250C948625BC
:100020000C94B2250C94DA120C94DA120C94DA12B5
:100030000C94DA120C94DA120C94DA120C94DA1290
:100040000C94DA120C94DA120C94DA120C94DA1280
:100050000C94DA120C94DA120C94DE250C94DA1259
:100060000C94DA120C94DA120C94DA120C94DA1260
:100070000C94DA120C94DA120C94DA120C94DA1250
:100080000C94DA120C94DA120C94DA120C94DA1240
:100090000C94153B0C94E03A0C94DA120C94DA129E
:1000A0000C94DA120C94DA120C94DA120C94DA1220
:1000B0000C94DA120C94DA120C94DA120C94DA1210
:1000C0000C94DA120C94DA120C94DA120F1517153C
:1000D0001F1527152A1540152A1540153C2F613E7E
:1000E000004578742D494F002F3F70743D256426DC
:1000F00063663D313E00207C203C6120687265666D
:100100003D2F003C2F613E002F53434C002F5344A2
:100110004100493243004453002F4431002F443002
:100120000057323600414443004E4300202D20004A
:10013000290025640028003E50002564002F3F70F0
:10014000743D003C62723E3C6120687265663D2FE2
:10015000003C62723E2D2D2D003C62723E2D2D2002
:100160005850352F36202D2D002F3F63663D343EED
:100170005850323C2F613E3C62723E2D2D20585427
:1001800032202D2D002F3F63663D333E5850313CC9
:100190002F613E3C62723E3C6120687265663D2F75
:1001A000002F3F63663D313E436F6E6669673C2FAB
:1001B000613E3C62723E2D2D204D4F4453202D2D2B
:1001C0003C62723E3C6120687265663D2F00293CAE
:1001D00062723E3C6120687265663D2F00342E32AB
:1001E000396233004D656761442D32353631206206
:1001F00079203C6120687265663D687474703A2F9E
:100200002F61622D6C6F672E72753E61622D6C6F6F
:10021000672E72753C2F613E202866773A200032A7
:10022000202D2D0031202D2D003E4261636B3C2F8F
:10023000613E3C62723E2D2D20506F7274732058C7
:100240005000446F6E65003E002076616C75653D20
:10025000003C696E707574206E616D653D6B6579EB
:10026000004E2F4100383E4C617374206B65793A23
:100270002000203C696E70757420747970653D7340
:1002800075626D6974206E616D653D70636C20767A
:10029000616C75653D636C6561723E003E003E2099
:1002A000736C6176653A203C696E707574206E617E
:1002B0006D653D70727320747970653D6368656328
:1002C0006B626F782076616C75653D3120003E2051
:1002D000636D643A203C696E707574206E616D6563
:1002E0003D7072642076616C75653D003E3D3C2F2B
:1002F00073656C6563743E2076616C75653A203C6D
:10030000696E707574206E616D653D7072762073D4
:10031000697A653D332076616C75653D003E3C3CF5
:100320006F7074696F6E2076616C75653D33003E49
:100330003E3C6F7074696F6E2076616C75653D32FE
:10034000003E4E3C6F7074696F6E2076616C75650F
:100350003D31003E203C73656C656374206E616DB9
:10036000653D7072633E3C6F7074696F6E2076619C
:100370006C75653D30003E696620706F72743A207E
:100380003C696E707574206E616D653D7072702091
:1003900073697A653D332076616C75653D007072D6
:1003A0006E2076616C75653D0031303E00656D7084
:1003B0007479002300393E003E002076616C75653B
:1003C0003D003E204163743A203C696E7075742094
:1003D0006E616D653D63726E61002076616C75655E
:1003E0003D00543A203C696E707574206E616D65F5
:1003F0003D63726E74003E003E205344413A203CFF
:10040000696E707574206E616D653D637364612003
:1004100076616C75653D003C62723E536574207474
:10042000696D653A203C696E707574206E616D650A
:100430003D7374696D653E3C62723E53434C3A2095
:100440003C696E707574206E616D653D6373636C9D
:100450002076616C75653D00373E43757220746986
:100460006D653A2000223E3C62723E737276206CCB
:100470006F6F703A203C696E707574207479706586
:100480003D636865636B626F78206E616D653D7377
:100490006C2076616C75653D31004D656761642D3A
:1004A00049443A203C696E707574206E616D653DFB
:1004B0006D646964206D61786C656E6774683D3544
:1004C0002073697A653D352076616C75653D220043
:1004D000323E003C62723E557074696D653A200090
:1004E00064697361726D003C623E41524D3C2F6203
:1004F0003E003E3C62723E4D6F64653A2000223EF3
:100500003C62723E534D532074696D656F75743A49
:10051000203C696E707574206E616D653D736D73FE
:10052000742073697A653D332076616C75653D0092
:100530003C62723E50686F6E653A203C696E707521
:1005400074206E616D653D67736D5F6E756D206DB6
:1005500061786C656E6774683D31322076616C75C8
:10056000653D22003E3C62723E47534D3A203C6955
:100570006E707574206E616D653D67736D20747962
:1005800070653D636865636B626F782076616C753A
:10059000653D310057646F673A203C696E70757431
:1005A000206E616D653D70722073697A653D332000
:1005B00076616C75653D005363726970743A203CD6
:1005C000696E707574206E616D653D736374206D26
:1005D00061786C656E6774683D31352076616C7545
:1005E000653D22003C62723E00646973636F6E6E0B
:1005F000656374656400636F6E6E65637465640043
:100600003E4D5154543C2F73656C6563743E20001D
:100610003E485454503C6F7074696F6E2076616C24
:1006200075653D310053525620547970653A203C2F
:1006300073656C656374206E616D653D737276746D
:100640003E3C6F7074696F6E2076616C75653D30ED
:100650000025642E25642E25642E25643A25753EDA
:100660003C62723E003E3C62723E5352563A203C1F
:10067000696E707574206E616D653D73697020766A
:10068000616C75653D0047573A203C696E70757422
:10069000206E616D653D67772076616C75653D25DF
:1006A000642E25642E25642E2564005077643A203C
:1006B0003C696E707574206E616D653D7077642065
:1006C0006D61786C656E6774683D332076616C751A
:1006D000653D220049503A203C696E707574206E69
:1006E000616D653D6569702076616C75653D256459
:1006F0002E25642E25642E256400313E006366207D
:1007000076616C75653D002F3E002F3F63663D3876
:100710003E6942204B6579733C2F613E002F3F6359
:10072000663D393E50726F6772616D3C2F613E00CD
:100730002F3F63663D373E43726F6E3C2F613E0034
:100740002F3F63663D323E4D656761642D49443CF1
:100750002F613E002F3F63663D313E436F6E6669F9
:10076000673C2F613E003E4261636B3C2F613E005F
:100770002F3F63663D31002F3F63663D3900446F74
:100780006E65004D656761442069732072657374FE
:100790006172746564003E4261636B3C2F613E3C54
:1007A00062723E002F3F70743D00340033002F3FD3
:1007B00063663D002A002A007D7D00227D003B000B
:1007C00026636D643D6C6973743E44657669636548
:1007D000204C6973743C2F613E002F3F70743D00C4
:1007E0003E61726D3C2F73656C6563743E003E61C3
:1007F0006C776179733C6F7074696F6E2076616C91
:1008000075653D32003E6E6F3C6F7074696F6E208F
:1008100076616C75653D31003C62723E534D5320EC
:100820003C73656C656374206E616D653D67736DC7
:10083000663E3C6F7074696F6E2076616C75653DC5
:1008400030003E003C62723E44697370203C696E29
:10085000707574206E616D653D6469737020736995
:100860007A653D322076616C75653D0026636D6466
:100870003D7363616E3E493243205363616E3C2F8A
:10088000613E002F3F70743D003E003C62723E4965
:100890004E54203C696E707574206E616D653D69C3
:1008A0006E74612073697A653D332076616C75657D
:1008B0003D003E003C62723E46726571203C696EAE
:1008C000707574206E616D653D6873742073697A0C
:1008D000653D332076616C75653D003E003E3C62AF
:1008E000723E436C6F636B203C696E707574206E52
:1008F000616D653D636C6F636B20747970653D63FA
:100900006865636B626F782076616C75653D370052
:100910003C62723E427269676874203C696E707511
:1009200074206E616D653D6873742073697A653DEE
:10093000332076616C75653D003E50434139363851
:10094000353C2F73656C6563743E003E4D435032F9
:10095000333058583C6F7074696F6E2076616C75D7
:10096000653D3231003E535344313330363C6F7075
:1009700074696F6E2076616C75653D3230003E544F
:10098000534C323539313C6F7074696F6E2076612B
:100990006C75653D34003E4248313735303C6F70F0
:1009A00074696F6E2076616C75653D33003E4D4114
:1009B0005834343030393C6F7074696F6E20766112
:1009C0006C75653D32003E424D783238303C6F7078
:1009D00074696F6E2076616C75653D37003E424DDF
:1009E000503138303C6F7074696F6E2076616C7571
:1009F000653D36003E4854553231443C6F70746951
:100A00006F6E2076616C75653D35003E414E593CF8
:100A10006F7074696F6E2076616C75653D31003C56
:100A200062723E446576203C73656C656374206E2B
:100A3000616D653D643E3C6F7074696F6E207661D8
:100A40006C75653D30003E003C62723E53434C2065
:100A50003C696E707574206E616D653D6D69736380
:100A60002073697A653D332076616C75653D003E83
:100A700053434C3C2F73656C6563743E003E534496
:100A8000413C6F7074696F6E2076616C75653D32A4
:100A9000003E4E433C6F7074696F6E2076616C75DA
:100AA000653D31003C62723E4D6F6465203C73656C
:100AB0006C656374206E616D653D6D3E3C6F707456
:100AC000696F6E2076616C75653D30003E003C625A
:100AD000723E4431203C696E707574206E616D65A4
:100AE0003D6D6973632073697A653D332076616C6F
:100AF00075653D003E44313C2F73656C6563743E03
:100B0000003E44303C6F7074696F6E2076616C7586
:100B1000653D32003E4E433C6F7074696F6E2076C7
:100B2000616C75653D31003C62723E4D6F646520BD
:100B30003C73656C656374206E616D653D6D3E3C14
:100B40006F7074696F6E2076616C75653D30003E24
:100B50005732363C2F73656C6563743E003E6942C4
:100B60003C6F7074696F6E2076616C75653D360000
:100B70003E31574255533C6F7074696F6E207661F9
:100B80006C75653D34003E31573C6F7074696F6E13
:100B90002076616C75653D35003E44485432323CE8
:100BA0006F7074696F6E2076616C75653D33003EC1
:100BB00044485431313C6F7074696F6E2076616CBB
:100BC00075653D32003C62723E53656E203C736534
:100BD0006C656374206E616D653D643E3C6F70743E
:100BE000696F6E2076616C75653D310020636865C4
:100BF000636B65643E203C696E707574206E616D38
:100C0000653D6D322073697A653D332076616C7580
:100C1000653D003E486967683C2F73656C65637489
:100C20003E3C62723E536D6F6F7468203C696E701B
:100C3000757420747970653D636865636B626F7865
:100C4000206E616D653D6D6973632076616C7565BD
:100C50003D31003E4C6F773C6F7074696F6E20764B
:100C6000616C75653D32003E4E6F726D3C6F707405
:100C7000696F6E2076616C75653D31003C62723E35
:100C800046726571203C73656C656374206E616D9E
:100C9000653D66723E3C6F7074696F6E2076616C64
:100CA00075653D30003E003C62723E47726F757064
:100CB000203C696E707574206E616D653D67727061
:100CC0002073697A653D322076616C75653D003E22
:100CD0004453323431333C2F73656C6563743E008A
:100CE0003E5357204C494E4B3C2F6F7074696F6ECA
:100CF0003E3C6F7074696F6E2076616C75653D3235
:100D0000003C6F7074696F6E2076616C75653D3361
:100D1000003E50574D003C6F7074696F6E207661D5
:100D20006C75653D31003E5357003C62723E4D6F1D
:100D30006465203C73656C656374206E616D653D10
:100D40006D3E3C6F7074696F6E2076616C75653DA9
:100D500030003E313C2F73656C6563743E003E305D
:100D60003C6F7074696F6E2076616C75653D310003
:100D70003C73656C656374206E616D653D643E3CDB
:100D80006F7074696F6E2076616C75653D30003CE4
:100D9000696E707574206E616D653D642073697A4B
:100DA000653D33206D61786C656E6774683D3320F6
:100DB00076616C75653D003C62723E4465666175A6
:100DC0006C743A20003C62723E526177203C696E3E
:100DD00070757420747970653D636865636B626FCC
:100DE00078206E616D653D642076616C75653D317E
:100DF00000203C696E70757420747970653D63687D
:100E000065636B626F78206E616D653D6D697363BC
:100E10002076616C75653D31003E433C2F73656CF7
:100E20006563743E003E523C6F7074696F6E20764D
:100E3000616C75653D33003E5026523C6F7074699D
:100E40006F6E2076616C75653D32003E503C6F7070
:100E500074696F6E2076616C75653D31003C62721D
:100E60003E4D6F6465203C73656C656374206E61F4
:100E70006D653D6D3E3C6F7074696F6E2076616C80
:100E800075653D3000223E203C696E70757420749B
:100E90007970653D636865636B626F78206E616D24
:100EA000653D6E61662076616C75653D31002F0091
:100EB0003A25750025642E25642E25642E256400B0
:100EC0003E3C62723E4E6574203C696E70757420C3
:100ED00073697A653D3332206E616D653D65746876
:100EE0002076616C75653D2200223E203C696E7063
:100EF000757420747970653D636865636B626F78A3
:100F0000206E616D653D61662076616C75653D3171
:100F1000003C62723E416374203C696E70757420BF
:100F20006E616D653D65636D642076616C75653DD0
:100F300022003E3C62723E487374203C696E7075BC
:100F400074206E616D653D6873742076616C7565A3
:100F50003D003E3C3E3C2F73656C6563743E3C62D5
:100F6000723E56616C203C696E707574206E616DC6
:100F7000653D6D6973632073697A653D34207661E0
:100F80006C75653D003E3C3C6F7074696F6E2076F9
:100F9000616C75653D33003E3E3C6F7074696F6EE9
:100FA0002076616C75653D32003E4E6F726D3C6F10
:100FB0007074696F6E2076616C75653D31004D6FA0
:100FC0006465203C73656C656374206E616D653D7E
:100FD0006D3E3C6F7074696F6E2076616C75653D17
:100FE00030003C2F73656C6563743E003E414443A2
:100FF000003C6F7074696F6E2076616C75653D3270
:10100000003E493243003E4453656E3C6F70746944
:101010006F6E2076616C75653D34003E4F75743C93
:101020006F7074696F6E2076616C75653D33003E3C
:10103000496E3C6F7074696F6E2076616C75653DAA
:1010400031003E4E433C6F7074696F6E2076616C68
:1010500075653D300054797065203C73656C65633F
:1010600074206E616D653D7074793E3C6F7074697B
:101070006F6E2076616C75653D32353500706E207F
:1010800076616C75653D002F3E003C62723E3C61AE
:1010900020687265663D2F25732F3F70743D25646F
:1010A000266578743D25643E5025643C2F613E00E2
:1010B0003C62723E2D2D20506F72747320457874FF
:1010C00020285043413936383529202D2D003C62E7
:1010D000723E3C6120687265663D2F25732F3F701C
:1010E000743D2564266578743D25643E5025642052
:1010F0002D200029202D2D003038003137003C6292
:10110000723E2D2D20506F72747320457874202804
:101110004D4350323330002F00222C22636E742254
:101120003A22002F0068756D3A002F0074656D70CB
:101130003A00203C696E70757420747970653D7357
:1011400075626D69742076616C75653D7365743E7A
:101150003C2F666F726D3E0050574D3A203C696ED1
:10116000707574206E616D653D6570776D20766178
:101170006C75653D25642073697A653D333E006575
:1011800078742076616C75653D25643E007074202E
:1011900076616C75653D25643E002F3E003E4F75BF
:1011A000743C2F73656C6563743E003E496E3C6F02
:1011B0007074696F6E2076616C75653D310054798D
:1011C0007065203C73656C656374206E616D653D70
:1011D0006574793E3C6F7074696F6E2076616C75D2
:1011E000653D30006578742076616C75653D2564D9
:1011F0003E0070742076616C75653D25643E002F5D
:101200003E003C2F613E2000303E003C2F613E20DE
:1012100000313E003C6120687265663D2F25732FCA
:101220003F70743D2564266578743D256426636DA2
:10123000643D25646525643A002F003A303E4F46F0
:10124000463C2F613E3C62723E00420041002663F4
:101250006D643D002F3F70743D003A313E4F4E3C6F
:101260002F613E203C6120687265663D2F00420080
:10127000410026636D643D002F3F70743D00423A8B
:101280002000413A20002F004E412F4E41002F00F8
:101290003E203C696E70757420747970653D73757D
:1012A000626D69742076616C75653D6368616E6717
:1012B000653E3C2F666F726D3E003E50574D2028B4
:1012C000302D323535293A203C696E707574206EA8
:1012D000616D653D70776D2073697A653D33207669
:1012E000616C75653D0070742076616C75653D00BC
:1012F0002F3E003C62723E3C666F726D20737479C3
:101300006C653D646973706C61793A696E6C696E85
:101310006520616374696F6E3D2F00504341004D3D
:101320004350003C62723E003C62723E6C75783AFB
:10133000003C62723E6C75783A003C62723E6C759D
:10134000783A0074656D703A007B2274656D702286
:101350003A002F68756D3A002C202268756D223A8C
:101360000074656D703A007B2274656D70223A00DE
:101370002F003E4261636B3C2F613E3C62723E50E7
:101380000034003300312670743D002F3F63663D0A
:10139000007D7D003B002C003A00220022007B00F3
:1013A000627573790062757379227D00446F6E6592
:1013B0000026616C6C3D006D6469643D003F00482F
:1013C0005454502F312E302034303120556E6175F9
:1013D00074686F72697A65640D0A0D0A556E6175DD
:1013E00074686F72697A65640054727920687474E5
:1013F000703A2F2F69702F707764002F002F002F05
:10140000002F002F002F005025643A200049503A49
:10141000202564202E202564202E202564202E20C7
:101420002564002F00485454502F312E3020323084
:1014300030204F4B0D0A436F6E74656E742D5479D6
:1014400070653A20746578742F68746D6C0D0A505D
:101450007261676D613A206E6F2D63616368650D1F
:101460000A0D0A002892A5ACAFA5E0290082EBAADC
:10147000AB0082AAAB2020200041542B434E4D49A3
:101480003D322C320A0041542B435343533D2247F3
:10149000534D220A0041542B434D47463D310A002B
:1014A0004F4646004F4E00494E004F555400223ED5
:1014B0003C62723E003E3C62723E003C62723E0004
:1014C000207C203C6120687265663D2F003C6120D5
:1014D000687265663D2F003E0020636865636B653A
:1014E00064003C696E70757420747970653D68693C
:1014F0006464656E206E616D653D003C62723E3CC9
:10150000696E70757420747970653D7375626D696C
:10151000742076616C75653D536176653E3C2F663F
:101520006F726D3E003C666F726D20616374696F0F
:101530006E3D2F002073656C656374656400160052
:10154000000000000000000000000000000000009B
:101550000000000000000000000000000000001675
:10156000580000000016B000070801000000162413
:1015700001167C0116D401162C0216840216DC0218
:10158000163403168C0316E403163C040F94040966
:10159000D0040BF404000000000000000000000074
:1015A000000000000000000000000000000000003B
:1015B000000000000000000000000000000000002B
:1015C000000000000000000000000000000000001B
:1015D000000000000000000000000000000000000B
:1015E00000000000000000000000000000000000FB
:1015F0000000003E0000003E0000003E0000003EF3
:101600000000003E0000003E0000003E0000003EE2
:101610000000FEFF1F00FEFF1F00FEFF1F00FEFF79
:101620001F00003E0000003E0000003E0000003EA3
:101630000000003E0000003E0000003E0000003EB2
:10164000000000000000000000000000000000009A
:10165000000000000000000000000000000000008A
:10166000000000000000003E0000003E0000003EC0
:101670000000003E0000003E0000003E0000003E72
:101680000000003E0000003E0000003E0000003E62
:101690000000003E0000003E0000003E0000000090
:1016A000FE000000FE000000FE000000FE00000042
:1016B000FE000000FE000000FE00F0FF0000FEFF44
:1016C0000700FFFF0FC0FFFF3FC0FFFF3FE0FFFF2E
:1016D0007FE0FFFF7FF00F00FFF00300FCF0010050
:1016E000F8F00100F8F00100F8F00100F8F0030054
:1016F000FCF00F00FFE0FFFF7FE0FFFF7FC0FFFF78
:101700003FC0FFFF3F00FFFF0F00FEFF0700F0FF9D
:1017100000000000000000000000000000001E00AB
:10172000F8001E00F8001E00F8001E00F8001F0060
:10173000F8001F00F8C0FFFFFFE0FFFFFFE0FFFF22
:10174000FFE0FFFFFFE0FFFFFFE0FFFFFFE0FFFF25
:10175000FF000000F8000000F8000000F8000000A2
:10176000F8000000F8000000F80000000000000091
:10177000F8C00F00F8E00700FCE00700FEE00300FF
:10178000FFF00380FFF001C0FFF001C0FFF001E0B7
:10179000FFF001F0FFF001FCFBF003FEF9F087FF22
:1017A000F8F0FF7FF8E0FF7FF8E0FF3FF8C0FF1F91
:1017B000F8C0FF07F880FF03F800FE00F800000003
:1017C000F800000000000000000000003FC00F0013
:1017D0007EE007007EE003007CE00300FCF00100F7
:1017E000F8F0810FF8F0810FF8F0810FF8F0810F19
:1017F000F8F0810FF8F0C30FFCF0FF1FFEF0FFFFC1
:101800007FE0FFFF7FE0FFFD7FC0FFFC3F807FFCAC
:101810001F001FF80F0000E0030000F0030000F8B5
:10182000030000FE030000FF030080FF0300E0EF61
:101830000300F0E70300F8E10300FEE003007FE0AF
:1018400003C01FE003E00FE003E0FFFFFFE0FFFF46
:10185000FFE0FFFFFFE0FFFFFFE0FFFFFFE0FFFF14
:10186000FFE0FFFFFF0000E0030000E0030000E0F6
:1018700003000000000000003FE0FF0F7EE0FF0FCC
:101880007EE0FF0F7CE0FF07FCE0FF07F8E0FF07CA
:10189000F8E0FF07F8E0C307F8E0C307F8E0C30784
:1018A000F8E0C30FFCE0C30FFCE0C31FFEE0C3FF82
:1018B0007FE083FF7FE083FF3FE003FF3FE003FF24
:1018C0001FE003FE0F0000F80300C0FF0000F8FF58
:1018D0000700FCFF0F00FFFF1F80FFFF3F80FFFF9F
:1018E0007FC0FFFF7FE09F03FFE0C703FCE0C7036B
:1018F000F8F0E303F8F0E103F8F0E103F8F0E107B2
:10190000FCF0E10FFEF0E1FF7FF0E1FF7FF0C1FFAF
:101910003FF0C3FF3FF083FF1F0000FF070000FC04
:101920000100000000E0030000E0030080E003008D
:10193000E0E00300F0E00300FCE00300FFE003C090
:10194000FFE003F0FFE003F8FFE003FE7FE083FF2A
:101950001FE0E3FF0FE0F3FF03E0FFFF00E0FF3FC6
:1019600000E0FF0F00E0FF0300E0FF0100E07F0068
:1019700000E01F0000E00700000000C007003EF08C
:101980001F80FFF83FC0FFF93FC0FFFD7FE0FFFF72
:101990007FE0FFFFFFF0FF1FFEF0E307FCF0C10F49
:1019A000F8F0C10FF8F0C10FF8F0811FF8F0831FB5
:1019B000FCF0FF3FFCE0FFFF7FE0FFFF7FE0FFFE6A
:1019C0007FC0FFFC3F807FFC1F001FF80F0000E07E
:1019D0000700FC010000FF070080FF0FFCC0FF1F95
:1019E000FCC0FF1FF8E0FF3FF8E0FF3FF8F0873F43
:1019F000F8F0033FF8F0013EF8F0013EFCF0013E44
:101A0000FCF0011E7EF0031E7FF00FCE7FE0FFFF93
:101A10003FE0FFFF1FC0FFFF1FC0FFFF0F00FFFFE2
:101A20000300FEFF0000F01F00003E000080FF00EA
:101A300000C0FF0100E0FF0300E0E30300F0C10786
:101A400000F0800700F0800700F0800700F0C10779
:101A500000E0E30300E0FF0300C0FF010080FF009F
:101A600000003E00000000000000F8037F00F803C3
:101A70007F00F8037F00F8037F00F8037F00F8037E
:101A80007F00F8037F00000000000000000000005D
:101A90000000000000000000000000000000000046
:101AA0000000000000000000000000000000000036
:101AB00000000000000100000302000808000618F2
:101AC000000B2400083A00014A00044C00045400B2
:101AD000055C0007660002740005780001820006BC
:101AE0008400069000059C0006A60006B20007BE12
:101AF0000006CC0006D80006E40006F00006FC0054
:101B0000010801020A01070E01071C01072A01054D
:101B100038010B4201075801066601077201078070
:101B200001068E01069A0107A60107B40103C2014E
:101B300005C80106D20106DE0109EA0107FC010819
:101B40000A02061A02082602073602074402075252
:101B500002076002076E020B7C0207920207A002D6
:101B600007AE0203BC0206C20203CE0209D4020879
:101B7000E60202F60206FA02060603061203061E33
:101B800003062A03053603064003064C03015803E7
:101B9000045A03056203016C03096E030680030601
:101BA0008C0306980306A40304B00305B80304C21B
:101BB0000306CA0306D60309E20305F40306FE037F
:101BC000050A04051404011E04052004082A04065D
:101BD0003A04074604065404066004066C040978B7
:101BE00004068A040B960406AC0407B80407C6046E
:101BF00006D40409E00409F20407040508120507E5
:101C00002205063005073C05074A05075805096601
:101C1000050778050886050796050BA4050CBA0587
:101C200009D2050AE40506F8050704060B120607A3
:101C30002806063606064206064E06055A060764BC
:101C400006067206097E06059006069A0606A60690
:101C500006B20607BE0607CC0606DA0606E6060644
:101C6000F20606FE06060A07051607062007092CD7
:101C700007053E070748070656070962070A740763
:101C800007880707960705A40706AE0709BA0706DF
:101C9000CC0706D8071BF000780000007802000E81
:101CA0004003C002700E4003C00270004010C0111B
:101CB000207FF8122012200C2000E00110111009E2
:101CC0001006E001000EC01120111011000E000ED0
:101CD000E01110111011100AE00C001200110000A8
:101CE000780F803060401080088008401030600F0E
:101CF000800050002000F800200050010001000189
:101D0000000FE00100010001004000380001000167
:101D10000001000100010018006000180006000129
:101D200080006000180FE010101010101010100F3D
:101D3000E0102010201FF010001000186014101286
:101D4000101210111010E0082010101110111011B5
:101D5000100EE003000280024002201FF002000289
:101D600000080011F01110111011100E100FC0100A
:101D7000A01090109010900F00001000101C100385
:101D80001000D000300EE011101110111011100EC3
:101D9000E001E01210121012100A1007E018C04003
:101DA0000038C002000500050008800880104010BF
:101DB0004004800480048004800480048004801037
:101DC0004010400880088005000500020000200047
:101DD000101B10009000600F80104020204F90508A
:101DE00050505050505FD0102010400F8018000706
:101DF0000004C0043004C0070018001FF0111011C7
:101E000010111011E00E0007C00820101010101063
:101E100010101008201FF0101010101010101008D3
:101E20002007C01FF0111011101110111011101FF8
:101E3000F00110011001100110001007C00820105F
:101E4000101010121012101E201FF00100010001CE
:101E500000010001001FF010101FF0101010001002
:101E600000101010100FF01FF00100028004400855
:101E70002010101FF0100010001000100010001FA4
:101E8000F0003000C003000C00030000C000301F51
:101E9000F01FF0003000C00100060018001FF0071E
:101EA000C008201010101010101010082007C01FBC
:101EB000F0021002100210021001E007C00820100A
:101EC00010101010103010482047C01FF0021002F0
:101ED000100210051008E0100008E0111011101198
:101EE00010111011100E200010001000101FF00033
:101EF000100010001007F00800100010001000087B
:101F00000007F00070018006001800060001800044
:101F10007000F007001800060001C0003001C00684
:101F2000001800070000F018300440028001000291
:101F300080044018300010006001801E0001800005
:101F40006000101810141012101110109010501082
:101F5000307FF84008400800180060018006001833
:101F6000006000400840087FF80100008000400049
:101F70002000100020004000800100400040004090
:101F80000040004000400040004000000800100CED
:101F90000012401240124012401F801FF8108010A3
:101FA00040104010400F800F801040104010401033
:101FB0004008800F8010401040104008401FF80F6C
:101FC0008012401240124012400B8000401FF0006F
:101FD00048004800080F8090409040904088407F23
:101FE000C01FF800800040004000401F801FC880D4
:101FF00000800080407FC81FF802000500088010A4
:10200000401FF81FC00080004000401F800080007B
:102010004000401F801FC000800040004000401F63
:10202000800F8010401040104010400F80FFC01003
:10203000801040104010400F800F80104010401062
:10204000400840FFC01FC0008000400040118012C7
:1020500040124012400C4000400FF0104010400F62
:10206000C010001000100008001FC000C0070018BA
:10207000001800070000C000C0070018000700009B
:10208000C007001800070000C018C00500020005C6
:102090000018C000C0870078001800070000C018B2
:1020A0004014401240114010C0010001003EF040B9
:1020B0000840087FF8400840083EF0010001000396
:1020C0000000800080010001000200020001801F6A
:1020D000F011141110111011141110180007000440
:1020E000C0043004C0070018001FF01110111011B7
:1020F0001011100E001FF011101110111011E00E30
:10210000001FF000100010001000100010700018E8
:1021100000170010F01010101010101FF070001FAA
:10212000F0111011101110111011101010081004DE
:10213000E0030001001FF00100030004E00810109C
:1021400010082010101110111011100EE01FF008CF
:10215000000600010000C000201FF01FF00802066A
:1021600004010400C400221FF01FF001000300045A
:10217000E008101010100010000FF0001000100008
:1021800010001000101FF01FF0003000C003000C02
:1021900000030000C000301FF01FF001000100012B
:1021A00000010001001FF007C008201010101010DF
:1021B000101010082007C01FF000100010001000C1
:1021C0001000101FF01FF002100210021002100188
:1021D000E007C00820101010101010101008200088
:1021E00010001000101FF000100010001010301030
:1021F000C013000C00030000C0003003800440083E
:102200002008201FF0082008200440038018300414
:1022100040028001000280044018301FF0100010BE
:10222000001000100010001FF0700001F00200020A
:10223000000200020002001FF01FF010001000104A
:102240000010001FF010001000100010001FF01F01
:10225000F010001000100010001FF010001000100F
:102260000010001FF070000010001000101FF0118F
:10227000001100110011000E001FF01100110011DB
:1022800000110011000E00000000001FF01FF011EF
:10229000001100110011000E000820111011101182
:1022A000101110092007C01FF00100010007C0082D
:1022B000201010101010101010082007C010000976
:1022C000E006100210021002101FF00C0012401263
:1022D00040124012401F800FE0105010481048106C
:1022E000480F881FC012401240124012400D801F3C
:1022F000C0004000400040004070001C0013C010AF
:102300004010401FC070000F801240124012401257
:10231000400B8010400840058002001FC0020005ED
:10232000800840104008801240124012400D801F6B
:10233000C004000200010000801FC01FC00408028A
:1023400010011000881FC01FC00200020005800895
:10235000401040100010000FC00040004000401F1F
:10236000C01FC0008001000600010000801FC01FC8
:10237000C002000200020002001FC00F80104010C7
:1023800040104010400F801FC0004000400040003F
:10239000401FC0FFC010801040104010400F800F41
:1023A0008010401040104010400880004000401F46
:1023B000C00040004000C0870078001800070000FF
:1023C000C00F80104010401040FFF8104010401027
:1023D000400F8018C005000200050018C01FC01083
:1023E000001000100010001FC0700003C0040004A3
:1023F00000040004001FC01FC01000100010001FC8
:10240000C01000100010001FC01FC01000100010EE
:10241000001FC01000100010001FC070000040001E
:10242000401FC01100110011000E001FC01100114B
:102430000011000E0000001FC01FC011001100118C
:10244000000E00088010401240124012400F801F02
:10245000C0020002000F8010401040104010400FDA
:102460008011800A400640024002401FC00F8012C7
:10247000501240124012500B802F636D64004D517A
:1024800049736470000D0A436F6E74656E742D5449
:102490007970653A206170706C69636174696F6E00
:1024A0002F782D7777772D666F726D2D75726C652D
:1024B0006E636F6465640D0A0D0A00436F6E746588
:1024C0006E742D4C656E6774683A20000D0A557362
:1024D00065722D4167656E743A207467722F312ED4
:1024E000310D0A4163636570743A202A2F2A0D0A60
:1024F000436F6E6E656374696F6E3A20636C6F73C1
:10250000650D0A000D0A0020485454502F312E3119
:102510000D0A486F73743A2000504F535420000D39
:102520000A557365722D4167656E743A206D656753
:1025300061640D0A4163636570743A207465787450
:102540002F68746D6C0D0A0D0A0020485454502FEA
:10255000312E310D0A486F73743A200047455420DC
:102560000000010800060400014500008200004050
:10257000002011241FBECFEFD1E2DEBFCDBF00E0AF
:102580000CBF18E0A0E0B2E0ECE5F9E801E00BBF19
:1025900002C007900D92A63FB107D9F724E1A6EF3C
:1025A000B8E001C01D92A238B207E1F70E94E53CF5
:1025B0000C94ACC40C9400001092EF0A1092EE0A36
:1025C0008FEF8093210208950F931F93CF93DF9392
:1025D000EB0140E350E0BC018FE193E10E94FDC0BC
:1025E00062ED72E08FE193E10E94A1C01092591355
:1025F000209159132430C8F40097B9F08E01020FCE
:10260000111D4AE050E060E070E00E945ABFF801FE
:102610006083809159138F5F8093591362ED72E04C
:1026200080E090E00E94A1C0E3CF822FDF91CF91A4
:102630001F910F910895613049F4DA01E3E7F2E068
:102640008D91819382E0E937F807D1F708956230E0
:1026500049F4DA01ECE3F2E18D91819382E1E23415
:10266000F807D1F70895E091BE12F091BF12908162
:1026700021E030E0082E01C0220F0A94EAF7922BE5
:1026800090830895E091B812F091B912208181E011
:1026900090E000901A0202C0880F991F0A94E2F796
:1026A000282B2083089570E0DC0111964C9111973E
:1026B00050E09B01225031094217530799F41696B6
:1026C000EC9163507109F0E0E617F7075CF4E80F4E
:1026D000F91F8781805A843028F49285915081E0D7
:1026E000943008F080E00895FC01CB012081203374
:1026F000E1F42481211119C025812430B1F4DB01DA
:102700000D900020E9F7AD0141505109461B570BD0
:10271000268130E04217530741F4BF01695F7F4FC4
:102720000E94EFC021E0892B09F020E0822F08955C
:10273000FC013681E30FF11D978180E6890F82301D
:1027400078F42285E20FF11D8189803349F481E11B
:10275000830F820FFB018083903A21F481E008957A
:1027600080E0089582E0089542E0242F30E066235F
:1027700041F0FC01E20FF31F21812E5F420F6150F7
:10278000F4CF820F931F0895FF920F931F93CF935F
:10279000DF93EC0188818033C1F4098180E010E08F
:1027A0009EEFF92E202F30E0281B31092330310510
:1027B00054F09F2D981B090F612FCE01D5DFFC012E
:1027C00081811F5FEFCF812F01C080E0CDB7DEB7E1
:1027D000E5E00C941BBECF93DF93EA01C5DFFC015B
:1027E00083819581963079F49681913061F483509C
:1027F000883048F43796DE01982F992329F02191EB
:102800002D939150FACF80E0DF91CF910895A4E00D
:10281000B0E0EDE0F4E10C9401BE19821A821B8253
:102820001C8224E0298321E02A832AE22B83FC01F5
:10283000DE01119620E030E0462F50E024173507E6
:102840005CF411917D91711768F0171768F02F5F94
:102850003F4F2330310591F7643030F0FC01838124
:102860008F5F03C08FEF01C080E02496E3E00C94FB
:102870001DBEA8E0B0E0EFE3F4E10C94FCBD7C01E8
:10288000C62E8A01D12CDC1491F0AE014F5F5F4F50
:102890006D2DC701A0DF682FCE010196B8DFF801CA
:1028A00081938F01D394883070F38D2D01C080E027
:1028B0002896E8E00C9418BEA8E0B0E0E2E6F4E167
:1028C0000C94FCBD7C01C62E8A01D12CDC14E9F0ED
:1028D000AE014F5F5F4F6D2DC7017DDFFE01E80F39
:1028E000F11D9081F80191938F01D394843079F494
:1028F0008981843061F48A81813049F48B818A3204
:1029000031F48C81883010F302C080E001C08D2D3D
:102910002896E8E00C9418BEDC011696EC91169708
:10292000F0E0AE0FBF1F22EA17962C9317971A9666
:102930002C91E20FF11DE80FF91F6587408B089578
:10294000EF920F931F93CF93DF93FC0180E380837B
:1029500086E0828393E0940F93839BE29483858344
:1029600081E08683EF012796DB01460F8A2F861BC5
:102970004A1719F08D918993F9CFEF01C80FD11D36
:102980002F83E886875FD80120E030E0AF01480F51
:10299000511DE21641F09D91EA01C20FD31F9883A9
:1029A0002F5F3F4FF6CF8E0D9EEF980F9183DF91F3
:1029B000CF911F910F91EF900895A6E0B0E0E3EE64
:1029C000F4E10C94F4BD6C01F62E3A0184E08983A5
:1029D00081E08A838AE28B831C82512C412C822ED7
:1029E000912CA62EB12C82E0A80EB11C852D992722
:1029F00087FD9095881599050CF055C0F301E80FF7
:102A0000F91F40814C8350E04830510508F049C01F
:102A1000FA01EA59FF4F042D10E00C94C7BDC5011F
:102A2000800F911F3AE0E32E04ED12E027C0C501AC
:102A3000800F911FEE24E39408EF18E029C0C50130
:102A4000800F911FEE24E3940EE012E021C06FEDA1
:102A500072E002C066EE72E083E09DE00E94E8C092
:102A6000E3E0FDE001900020E9F73197E350FD40FD
:102A7000C501800F911FEE2E03E01DE024E009C088
:102A8000C501800F911F22E0E22E8E010B5F1F4FC8
:102A900022E044E0BE016F5F7F4F8C0D9D1D50DF33
:102AA000480E5394A3CFF601EF0DF11D4182842D02
:102AB0008F0DF60181839681E90FF11D92EA9783CC
:102AC0009285965F940D90878E5F2696E0E10C9438
:102AD00010BECF93C82F6AEE72E08EEC93E10E9495
:102AE000E8C090918B139F5F923038F06BE873E1F0
:102AF0008EEC93E10E94E8C018C0809180021F9282
:102B00008F932EEC33E13F932F9341EF52E05F938D
:102B10004F933F932F930E949AC18DB79EB708960B
:102B20000FB6F8949EBF0FBE8DBFCF3FB1F01F927E
:102B3000CF938EEC93E19F938F9326EF32E03F93F8
:102B40002F939F938F930E949AC18DB79EB708963B
:102B50000FB6F8949EBF0FBE8DBFCF910895F89425
:102B6000E091B812F091B912908121E030E001C0FB
:102B7000220F8A95EAF7322F309593239083E091C4
:102B8000BE12F091BF128081822B80838BED95E085
:102B90000197F1F700C00000E091BE12F091BF1262
:102BA000808183238083EAEDF0E03197F1F700C064
:102BB000E091B413F091B5138081E1E0F5E0319735
:102BC000F1F7789482230895F894E091B812F09187
:102BD000B912408121E030E0062E01C0220F0A9494
:102BE000EAF7922F909549234083E091BE12F0912D
:102BF000BF123081322B308329E22A95F1F700C0D1
:102C0000882339F0E091BE12F091BF1280818923B0
:102C1000808385EE8A95F1F70000E091BE12F09175
:102C2000BF1280818923808378940895F894E0917D
:102C3000B812F091B912908121E030E0082E01C065
:102C4000220F0A94EAF7322F309593239083E09174
:102C5000BE12F091BF129081922B908395E19A95CC
:102C6000F1F7E091BE12F091BF129081932390830F
:102C700095E29A95F1F700C0E091B413F091B51385
:102C8000208190ED9A95F1F70000789430E002C031
:102C9000359527958A95E2F7822F817008951F93C5
:102CA000CF93DF93D82F162FC9E0C15031F0612F99
:102CB0008D2F817089DFD695F8CFDF91CF911F914D
:102CC00008951F93CF93DF93182FD9E0C0E0D15020
:102CD00049F0812FABDF20E8829FC0011124C69507
:102CE000C82BF5CF8C2FDF91CF911F910895EF92D4
:102CF000FF920F931F93CF93DF93182FF62EEA01C5
:102D0000E22E2DDF811163C0612FF11003C08CEC26
:102D1000C6DF09C085E5C3DF00E0612F8991BFDF11
:102D20000F5F0830D1F7612F8EEBB9DF812FC9DF3C
:102D3000C82F812FC6DFD82FF11012C0812F0FDFCF
:102D4000612F8CECACDF612F84E4A9DFEE2DF0E085
:102D5000EE0FFF1FE05DFB4E2BE930E03183208357
:102D6000E091BE12F091BF12908121E030E0012E7F
:102D700001C0220F0A94EAF7922B9083E091B812D7
:102D8000F091B9129081922B9083EC2FE295EF7025
:102D90002D2F277080E1289F90011124E22BCF7006
:102DA00041E752E0C49FC001C59F900D1124D7FF99
:102DB00003C0EF578051974264E670E00E9476BDF1
:102DC000CB0124E6E202800D911D112402C088ECA3
:102DD00092E3CDB7DEB7E6E00C941ABE98E02CE89B
:102DE000362F3827869530FD822766959150C1F79A
:102DF0000895A1E0B0E0EFEFF6E10C94FCBDF82EF1
:102E00006983ADDE6981662301F16F2D85E547DFBA
:102E10006F2D8AE344DF6AE380E0E0DFE82E53E9C8
:102E2000C52E51E1D52E86016F2DF60181916F01DE
:102E300036DFF80160818E2DD1DFE82EF9E9CF165B
:102E4000F1E1DF0681F76F2D02C06F2D8CEC27DFDB
:102E50006F2D85EF24DF04E08F2D33DF182F1F70D7
:102E600082958F70482F50E0212F30E020953095CB
:102E70002F7033274217530711F400E003C00150AD
:102E800059F70FEF8F2D6BDE0F3F09F41FEF812FE6
:102E90002196E8E00C9418BEA0E0B0E0E2E5F7E18E
:102EA0000C94FABDF82EB42E862F8C6FE82E64E0B9
:102EB000D62EA82EA0948F2D52DE6F2DBB20D1F0E0
:102EC00085E5EDDE6F2D8AE3EADE6AE380E086DFEA
:102ED000C82EC3E9D1E18E016F2D8991E0DEF801A2
:102EE00060818C2D7BDFC82EF1E1C939DF0799F7AE
:102EF0006F2D01C08CECD3DE6F2D8AE5D0DE6F2DF7
:102F00008E2DCDDE6F2D8A2DCADE8F2DDADEC82FF5
:102F10008F2DD7DECA3A19F0DA9409F0CCCF8F2D75
:102F20001EDECDB7DEB7EAE00C9416BE45E254E1F2
:102F300060E070E08CE19DE00C9428A1DC012C9114
:102F40002F3229F5FC01319680E0BF01919190323A
:102F500031F09F3221F0BF018F5F8630B1F790E0F2
:102F6000681B790BE5E3F2E1DF010D900020E9F742
:102F7000AD0141505109455352414817590739F4A1
:102F8000CF010E94EFC0892B11F481E008958FEFEB
:102F900008958234A1F4673019F48CE890E01FC0E2
:102FA000663019F48AE890E01AC0653019F488E8B0
:102FB00090E015C06430B9F483EB90E010C0853424
:102FC00091F4633019F488E990E009C0643019F491
:102FD0008AE990E004C0653031F48CE990E0909388
:102FE000501380934F130895863419F481E390E0D1
:102FF0001DC0853419F48EE290E018C0823419F4B3
:1030000085E290E013C0873419F484E390E00EC0A9
:10301000843419F48BE290E009C0813419F482E21F
:1030200090E004C0833431F488E290E09093B813C8
:103030008093B7130895863479F481E390E09093F8
:10304000B9128093B81280E390E09093BF128093FE
:10305000BE128FE290E065C0853479F48EE290E094
:103060009093B9128093B8128DE290E09093BF12C2
:103070008093BE128CE290E054C0823479F485E2F1
:1030800090E09093B9128093B81284E290E090930C
:10309000BF128093BE1283E290E043C0873479F47C
:1030A00084E390E09093B9128093B81283E390E0A8
:1030B0009093BF128093BE1282E390E032C08434BA
:1030C00079F48BE290E09093B9128093B8128AE27F
:1030D00090E09093BF128093BE1289E290E021C0ED
:1030E000813479F482E290E09093B9128093B8121F
:1030F00081E290E09093BF128093BE1280E290E054
:1031000010C0833491F488E290E09093B9128093D8
:10311000B81287E290E09093BF128093BE1286E2CD
:1031200090E09093B5138093B4130895A1E0B0E0BC
:10313000ECE9F8E10C9401BE182F862F49837BDF60
:103140004981113319F4842F8EDA0EC0E091BE123A
:10315000F091BF12808121E030E001C0220F4A953A
:10316000EAF72095282320832196E3E00C941DBEE6
:10317000CF93C82F833038F580911C0235DFC130E2
:1031800089F4E091B713F091B813208181E090E0C9
:103190000090840902C0880F991F0A94E2F7282B37
:1031A000208328C0C23079F4E091B713F091B813AE
:1031B000208181E090E00090840902C0880F991F6F
:1031C0000A94E2F714C0C33011F45CDA13C0C430BF
:1031D00089F4E091B812F091B912208181E090E079
:1031E00000901A0202C0880F991F0A94E2F7809596
:1031F00082238083CF910895CF93C82F80911B02A3
:103200001ADFC13079F4C091840980911C0213DF68
:103210008C2F29DAC0911A0280911B020CDF8C2FAF
:1032200022DA15C0C23061F0C43079F4C0911A02BC
:1032300080911B0200DF8C2F16DA24DA81E098DF00
:1032400084E096DF82E094DF05C084E091DF81E0D6
:103250008FDF18DACF910895EF92FF920F931F93AB
:10326000CF93DF93E82E80911B02E5DEC7E0D0E02C
:10327000F12C01E010E022E32A95F1F7E091B81279
:10328000F091B91280911A0297010C2E02C0359567
:1032900027950A94E2F720FF0AC02081A80102C006
:1032A000440F551F8A95E2F7242B20830BC0208101
:1032B000A80102C0440F551F8A95E2F7CA01809504
:1032C0008223808381E054DF82E052DF84E050DF9C
:1032D000219788F640911A0260911B0280E326DF55
:1032E00081E046DFE091B413F091B513808190E066
:1032F00000901A0202C0959587950A94E2F78170B2
:10330000992721E08227C82FC17082E031DF84E055
:103310002FDFD0911A0280911B028DDE8D2FA3D951
:103320008C2FCDB7DEB7E6E00C941ABEEF92FF9279
:103330000F931F93CF93DF93E82E40911A02609171
:103340001B0280E3F3DE80911B0275DE82E010DF5A
:10335000C7E0D0E0F12C01E010E081E009DFE0916E
:10336000B413F091B513208130E000901A0202C02E
:10337000359527950A94E2F720FD09C098010C2E97
:1033800001C0220F0A94EAF72095F22207C09801A3
:103390000C2E01C0220F0A94EAF7F22A82E0E8DE3E
:1033A0002197D8F6C0911A0280911B0244DE8C2F1F
:1033B0005AD981E0DDDE81E0E81202C063D902C0A3
:1033C00084E0D6DE82E0D4DE40911A0260911B02D6
:1033D00080E3ACDE8F2DCDB7DEB7E6E00C941ABEED
:1033E0001F93CF93DF93182FEB0181E005DF82E07D
:1033F00003DF80E831DF812F2FDF8C2F2DDF8D2F32
:103400002BDF83E0F9DEDF91CF911F910895CF93F9
:10341000DF93C82F81E0F0DE82E0EEDE80E81CDF83
:103420008C2F1ADF83E0E8DE82E0E6DE81E814DF3D
:1034300080E07CDFC82F81E079DFD82F83E0DCDEFD
:103440002D2F30E0922F88278C0F911DDF91CF9187
:103450000895A0E0B0E0EFE2FAE10C94FABDB82ED6
:10346000BCEDCB2EBCE0DB2E03E212E0C0E0D0E0EE
:10347000E82EF12CC7018858944F7C01F601819108
:103480006F01813051F121960E5F1F4FC732D10578
:10349000A9F7EB2DF0E0EE0FFF1FED5DFD4F019062
:1034A000F081E02DC191C093B313CF010E946BC096
:1034B000809387098C2FBFDDE091B812F091B9128B
:1034C000208181E090E00090870902C0880F991F59
:1034D0000A94E2F7282B20832AC0DE01A257B34FBB
:1034E0008C91833081F6DE01A858B44F9C91F7018E
:1034F00080819813C8CFF801A081B181AD90A092CE
:10350000B313CD010E946BC0809387098A2D93DD90
:10351000A091B812B091B9122C9130E000908709B7
:1035200002C0359527950A94E2F720FFACCFCDB7BE
:10353000DEB7EAE00C9416BEA7E3B0E0E2EAFAE1F7
:103540000C94F2BD8C016DA34CA7422E86E496E448
:10355000A0E08E8B9F8BA88F8B8B9C8BAD8B888BE9
:10356000998BAA8B23E02CA31D8E512C262F30E0A3
:103570003BA32AA3220F331F38AB2FA72E50344F63
:103580003BAB2AAB8AA19BA1879747E1489F90015B
:10359000499F300D1124215C3E4F39A728A78AA1ED
:1035A0009BA18D97489F9001499F300D1124265F64
:1035B0003F4F3BA72AA71092591322242394312C62
:1035C0009E01295F3F4F3A8F298F2FA538A92E5092
:1035D000344F3EA72DA7AE014F5F5F4F5C8F4B8FDF
:1035E000F09059138F2C912CF80101900020E9F7ED
:1035F0003197E01BF10B8E169F0608F017C7800E5F
:10360000911ED4012C912A3049F486E48E8B8F8B45
:103610001C868B8B8C8B1D8E512CF9C62A3311F096
:103620002D3321F43D8D333009F0DFC62B3309F4FF
:10363000DEC6203709F4DDC6213609F4DCC625369E
:1036400009F4DBC6273609F4DBC6223709F050C07F
:103650001F82188619861A86D8011196FE013796A0
:10366000CE010A962D9130ED320F3A3060F0CE0146
:1036700007960E946BC0AAA1BBA1A45EB44F9C9107
:10368000981730F026C02193E817F90759F7EFCFC4
:103690009F5F9C933DA1373268F447E12AA13BA18B
:1036A000429FB001439F700D1124605E794F47E146
:1036B00050E00AC03DA147E150E03D3218F06AA554
:1036C0007BA502C068A579A5C8010E94B6C31CA647
:1036D00072CFE98DFA8D01900020E9F73197298D9D
:1036E0003A8DE21BF30BFE0EF09259131C928FC61B
:1036F000233709F054C03CEDE32E3CE0F32E49EDB6
:10370000842E41E0942E53E2A52E52E0B52E6EE8B1
:10371000C62E6CE0D62ED7018D917D01813079F5D2
:10372000F50180819181DC012D91CD0128A30E94BA
:103730006BC03C01682F88A12CDC88A17CDCD60101
:103740008C91813049F4E0914F13F09150136081D6
:103750007181615080F413C0E091B812F091B912F8
:10376000808190E0062C02C0959587950A94E2F737
:1037700080FF05C060E070E0C4010E94EAC3B2E0CF
:103780008B0E911CE2E0AE0EB11CFFEFCF1ADF0AE8
:1037900023E0E2162DE0F20609F0BDCF38C6213451
:1037A00009F431C6223409F430C62C3709F43EC678
:1037B0002B3209F432C62E3709F42FC62D3209F404
:1037C0002EC63D8D311107C08E89863411F02F8BA6
:1037D0001EC62E8B1CC63D8D373039F48B8986343E
:1037E00011F02C8B14C62B8B12C63D8D383039F45A
:1037F0008889863411F0298B0AC6288B08C63D8D2E
:10380000313009F58E89833539F5203319F410925A
:10381000321209C0223321F4809132128130B9F37F
:1038200081E08093321289EF9FE00E94C6C36091CD
:103830003212861721F089EF9FE00E94DCC386E4F4
:103840008E8B8F8BE4C53D8D343031F08D8D85505E
:10385000823008F080C40EC03DA1343659F0EAA190
:10386000FBA1E452F34F8081811104C0ADA5BEA538
:103870001D921C928F89863409F41F8ACE014696C8
:103880000E946BC06C0189ABA82EBB24A7FCB0942E
:103890003501660C771CF301ED5DFD4F8081918150
:1038A000FC012191CF012E8F0E946BC07C01D401BD
:1038B0008C918E3761F4F301EE55F54F8081918143
:1038C000029719F426E02D8F02C035E03D8F6E2D52
:1038D0008E8D5FDB8E8DAFDB20915913822E912C64
:1038E000A801480D591D5FA34EA3DA018C91F50183
:1038F000E156F44FF9A3E8A38E3529F480818111B4
:103900000BC081E001C4863759F4E8A1F9A1808198
:10391000811102C082E0F8C3A8A1B9A11C92F5C32D
:103920008837B1F4E8A1F9A1108286E48E8B8F8BE1
:10393000F501EE0FFF1FEE0FFF1FEA53F64F108247
:10394000118212821382F501E157F64F1082E3C310
:10395000A8A1B9A11C92F501E257F34F90819130D3
:1039600009F0EEC0F501E452F34F3081313009F037
:10397000E7C02F5F30E0F80101900020E9F73197B0
:10398000E01BF10B2E173F0758F4F801E20FF31F6D
:10399000908126EC290F223018F09D3309F0C4C025
:1039A000252D30E0ECE0F0E0EC0FFD1FE20FF31FFF
:1039B0008083FE01E20FF31F15862E8D223419F04D
:1039C000253409F0ABC0CE010C960E946BC0F30108
:1039D000EE50F44F918380833D8D343051F4A091AB
:1039E0004F13B09150138D919C91892B11F011823E
:1039F0001082C301865D9D4F0E94CEC3F301E05C3F
:103A0000F34F918380832D8D253008F476C0ADA5CA
:103A1000BEA58D919C91AAA1BBA1A157B64F0097BD
:103A200069F58C91811157C0E0914F13F0915013BB
:103A300080819181892B29F0AEA1BFA18C918E3715
:103A400019F02D8D253041F011821082F301EE55D1
:103A5000F54F3182208262C0D501A157B64F8C91BB
:103A6000811102C08FEF8C938C9190E091838083C1
:103A700082E090E0F301EE55F54F4EC00197D9F585
:103A8000E0914F13F09150133D8D353049F4808112
:103A900091818F3F910580F48081918101960AC0C8
:103AA0002D8D263049F480819181892B29F08081E8
:103AB000918101979183808381E08C9383E090E0F2
:103AC000AAA9BBA98D939C9380819181F501E157AF
:103AD000F64F808323C0813071F4F301EE55F54F2A
:103AE00080819181029728F482E090E09183808325
:103AF00002C0318220821C9211C0009751F4E091E3
:103B00004F13F0915013D301AE50B44F8D919C914F
:103B100003C0F301E453FD4E9183808386E48E8BD2
:103B20008F8B1C86512CF7C28A3209F4F2C2ECE06A
:103B3000F0E0EC0FFD1FE50DF11D80835394EBC207
:103B40003889363409F4B3C0CE0140960E946BC068
:103B5000782F2CED3CE03F8F2E8F83E6C82E83E13B
:103B6000D82E43E252E0E12CF12C95012350374F3F
:103B70003FA32EA361E0AE8DBF8D8D91BF8FAE8F21
:103B8000813009F07DC0F701E257F34F8081811148
:103B900077C0F701E858F44F8081871371C0FA01AC
:103BA00080809180C40101964DAB5EAB6FAB7CAB66
:103BB0000E946BC05C01D4018C913DDAE091B81297
:103BC000F091B9128081BB24A7FCB09490E00A2C3C
:103BD00002C0959587950A94E2F7817090915913E8
:103BE000D801A90FB11D9C914DA95EA96FA97CA90F
:103BF000913351F0933321F4B1E04B1211C004C062
:103C0000943359F441100FC0908191010A2C01C0E6
:103C1000220F0A94EAF7922B1EC0903339F011C09C
:103C2000442021F019C021E0421216C09081910178
:103C30000A2C01C0220F0A94EAF720952923208339
:103C40000BC0923349F4908191010A2C01C0220FDC
:103C50000A94EAF792279083E091B812F091B91292
:103C6000208130E00A2C02C0359527950A94E2F7AE
:103C70002170281729F0AEA1BFA16C93609324098D
:103C8000F6018081843610F48C598083FFEFEF1A9F
:103C9000FF0A2FEFC21AD20A4E5F5F4F37E2E316D8
:103CA000F10409F068CF86E4888B898B2EC29230AC
:103CB00009F048C03CA1333009F444C0609193112D
:103CC0008E2D97D8682F66956B7F80915913F801D8
:103CD000E80FF11D8081813351F0833321F441E0FD
:103CE00044121DC004C0843361F441101BC0910113
:103CF0000CA002C0220F331F0A94E2F72095622322
:103D00001CC0823349F491010CA002C0220F331F62
:103D10000A94E2F7622711C0803379F406C0442088
:103D200021F00BC051E0451208C091010CA002C067
:103D3000220F331F0A94E2F7622B409193118E2DCC
:103D4000ABD8E3C1F501E452F34F3081343009F0D0
:103D50005BC1F501EB54F34F3081353109F04CC0B4
:103D600085E0A98DBA8D1D928A95E9F7CE0143961B
:103D70002CAB0E946BC06C0130E02CA9832F90E02B
:103D8000F801E80FF91FE80DF91D40814B3311F0E0
:103D9000411129C02150230F209359132E8D2093B8
:103DA0001B02E0921A02F301E05CF34F0190F081F4
:103DB000E02DEE0FFF1FED5DFD4F80819181DC0155
:103DC0002D91CD0120931C020E946BC08093840929
:103DD000CE0107960E946BC0BC018C2D880F880F06
:103DE000885FFEDA87C0E7E0F0E0EC0FFD1FE80F28
:103DF000F91F40833F5FC2CF343109F07FC0CE014D
:103E000043960E946BC06C012E8D20931B02E092A2
:103E10001A02F301E05CF34F0190F081E02DEE0F08
:103E2000FF1FED5DFD4F80819181DC012D91CD0162
:103E300020931C020E946BC08093840981E0DCD92E
:103E400082E0DAD980E408DAF501E858F44F80819D
:103E5000813041F4B7E0BC1528F489E1FDD9E8E0F0
:103E6000FE2E03C089E0F8D9F12C83E0C5D982E0A9
:103E7000C3D981E4F1D981E059DAE82E83E0BCD9D5
:103E800080915913F801E80FF11D2081DD248F2D59
:103E900090E0C81AD90A213349F4F10102C0EE0FAB
:103EA000FF1FCA94E2F76F01CE2814C0223349F4F1
:103EB000910102C0220F331FCA94E2F76901CE2498
:103EC00009C0A10102C0440F551FCA94E2F76A015C
:103ED000C094CE2081E090D982E08ED980E4BCD914
:103EE000FF2011F089E101C089E0B6D98C2DB4D949
:103EF00083E082D986E48B8B8C8B07C1343009F048
:103F000083C059A9563259F483E480931C0210925D
:103F1000840980931B0281E080931A021AC02E8DBF
:103F200020931B02E0921A02F301E05CF34F019030
:103F3000F081E02DEE0FFF1FED5DFD4F808191813F
:103F4000DC012D91CD0120931C020E946BC0809357
:103F5000840981E051D982E04FD920915913FE01A3
:103F60003C9680E090E0A801420F511D9A01482F35
:103F7000D901A80FB91F5C915B3341F0552331F093
:103F8000519301968330910591F743E0ECE0F0E026
:103F9000EC0FFD1FE40FF11D1082CE010C960E9464
:103FA0006BC0F82E52E0851311C089E755D981E026
:103FB000BDD9F82E83E020D991E083E0F81201C04A
:103FC00090E0F92E81E018D982E016D988E744D92B
:103FD00080E042D991E0F91202C08FEA0AC0F110E4
:103FE00002C08EEA06C0AFEFFA1621F081E834D99C
:103FF0008F2D32D982E000D981E08093560B109248
:10400000540B1092530B81C0E091B812F091B91289
:104010002081FF24E7FCF09430E00E2C02C035959F
:1040200027950A94E2F7B22FB1709B2E813351F09D
:10403000833321F421E0421219C004C0843399F47F
:10404000411017C0933031F4D501A858B44F8C916A
:104050008F3F89F52081C1010E2C01C0880F0A9481
:10406000EAF7282B33C0803339F011C0442021F007
:104070002EC031E043122BC02081C1010E2C01C0A3
:10408000880F0A94EAF780958223808320C08233C8
:10409000F1F4933099F4D501A858B44F8C918F3F27
:1040A00069F0808190E00E2C02C0959587950A9466
:1040B000E2F780FD03C08C2DCCD909C02081C1015D
:1040C0000E2C01C0880F0A94EAF728272083E0917C
:1040D000B812F091B912808190E00E2C02C0959533
:1040E00087950A94E2F78170891539F081E0F5012E
:1040F000E350F74F808380932409F501ED59FC4E7E
:104100008081843610F48C59808386E48E8B8F8B6B
:1041100002C024E02D8FA8A1B9A18C9118160CF033
:1041200076C120915913F801E20FF11D818190EDC4
:10413000980FF301EE50F44F9A3050F4992787FD11
:104140009095C097918380832F5F209359135FC10F
:10415000118210825CC13D8D323009F055C0852D31
:1041600090E0E1E0F0E0EC0FFD1FE80FF91F208385
:10417000FE01E80FF91F1282539481E08F0D90E049
:10418000F80101900020E9F73197E01BF10B8E1741
:104190009F0758F4F801E80FF91F808196EC980FFB
:1041A000923018F08D3309F032C1F394F3945CA58A
:1041B000F50E86E18F1508F42AC13DA1032F10E00A
:1041C0004AE050E060E070E0CE0101960E945ABFE4
:1041D0009B01AC01F801EE0FFF1FEE0FFF1FEA532A
:1041E000F64FA4E1B0E00E94E2BD60837183828358
:1041F0009383F801E157F64FF08285E0AB8DBC8DDB
:104200001D928A95E9F712C12D8D233009F0FFC068
:10421000F394F092591323E232E039A328A32CED52
:104220003CE03F8F2E8F83E6882E83E1982E98E71F
:10423000A92E9BE0B92EE12CF12C23E0622EA8A13F
:10424000B9A18D919D91B9A3A8A3FC017190CF0153
:104250000E946BC06C01872D0E941B18AE8DBF8D14
:104260008D91BF8FAE8F813009F0B0C0F701E2575A
:10427000F34F80818230F9F480915913F801E80FEF
:10428000F11D8081813309F4CDC0803309F4CCC0A5
:10429000823309F09BC060E08C2D0E94F916682FD4
:1042A00066956B7F6625643008F090C040E08C2DE9
:1042B0000E944C178BC0813079F56C2D872D0E94A0
:1042C000C91780915913F801E80FF11D80818033DF
:1042D00029F4E0914F13F091501316C0813349F443
:1042E000E0914F13F09150132FEF30E03183208392
:1042F0006DC0823309F06AC0E0914F13F091501302
:1043000080819181892B19F0118210825FC04FEF5B
:1043100050E0518340835AC090915913F801E90F3E
:10432000F11D90819133A1F4833021F4D5018C915A
:104330008F3FC9F5E091B812F091B91280819101D7
:1043400002C0220F331FCA94E2F76901822B37C0E3
:10435000903381F4E091B812F091B9128081A101FB
:1043600002C0440F551FCA94E2F76A01C094C822E4
:10437000C08226C0923321F5E091B812F091B912B3
:10438000DD24C7FCD094833089F4D5018C918F3F14
:1043900069F0808190E00C2C02C0959587950A9475
:1043A000E2F780FD03C08E2D54D80AC080819101B0
:1043B00002C0220F331FCA94E2F76901822780836B
:1043C000D4018C91843610F48C598C93BFEFEB1A86
:1043D000FB0AEFEF8E1A9E0AFFEFAF1ABF0A26E222
:1043E000E216F10409F02BCF12C031E00AC01D8E95
:1043F0000EC022E003C033E004C027E02D8F07C0C9
:1044000038E03D8F04C01CA202C021E02CA38091A3
:1044100059138F5F80935913E3C835E001C036E02C
:104420003D8F14CA60E042CF63E040CFE796E2E1FF
:104430000C940EBEAFE1B0E0E0E2F2E20C94FDBD00
:10444000322F273240F4E22FF0E0EE0FFF1FEE553F
:10445000F54F11821082DE0111967D015E96F70103
:104460001192EA17FB07E1F7032F10E0373210F043
:104470002FEF17C0F801E452F34F2081233081F46D
:10448000F801EB54F34F2081243051F4F801EE0F82
:10449000FF1FE453FD4E0190F081E02DEF2B41F31F
:1044A00021E020932102F801E759FE4E208121FFEF
:1044B00005C0883C910509F0B1C0B3C0883C9105A6
:1044C00009F058C0645E724FFB0120E0D12CDF017F
:1044D000A61BB70BCA014D3D510510F08CED90E0C5
:1044E000A817B90700F581918D3011F08A3039F4A1
:1044F000223039F080818A3051F72F5FE8CF2230A7
:1045000081F48F3E49F0982F9B7F9B3B29F0D70188
:10451000AD0DB11D8C93D394BCE1BD1520F022E00C
:10452000D6CF20E0D4CFF701ED0DF11D10828981A7
:10453000882301F18A818436E9F0F7010190002097
:10454000E9F73197D701AE17BF0769F08D918D7FDD
:104550008037C9F7B70187E59BE00E94E8C023E0F8
:1045600040E06CE203C023E040E064E6C7010E9443
:104570009C1A57C0F801E257F34F8081811107C0A0
:10458000F801EA53F44F80818F3F61F414C0823008
:1045900039F4F801EA53F44F80818E3F19F40BC0CF
:1045A000813049F0F801E452F34F8081811103C05A
:1045B0008A818436B1F53732A0F5F801E452F34F21
:1045C0008081833029F081E0F801E156F44F808347
:1045D00080E3EFE1F3E1DF011D928A95E9F727E13E
:1045E000209FB001219F700D1124605E794F47E13B
:1045F00050E0CF013F8F0E94B6C380911F138F5FA1
:104600003F8D823058F0F801EA53F44F20812E5F3D
:1046100040E0632F8FE193E10E949C1A82E0809337
:1046200021026F96E7E00C9419BEA1E0B0E0EBE147
:10463000F3E20C94F8BD482F082F10E0B801625740
:10464000734F7B01DB018C914801880C991C8130F0
:1046500099F54E3118F089E290E002C08CE290E0CA
:104660009093B5138093B413F401ED5DFD4F8081F9
:10467000918101960E946BC080938709F401E05CF0
:10468000F34FC080D180F601EE0FFF1FED5DFD4FAF
:104690008081918101960E946BC0B82EBEE1CB163D
:1046A000D1041CF089E290E002C08CE290E090938B
:1046B000601380935F1339C0F401ED5DFD4F80817D
:1046C0009181019649830E946BC0B82E49814E3179
:1046D00038F089E290E09093601380935F1306C0F6
:1046E0002CE230E03093601320935F13F401E05C20
:1046F000F34F0190F081E02DEE0FFF1FED5DFD4FB8
:10470000C080D180C60101960E946BC0809387094A
:10471000F6018081843419F429E230E002C02CE2F1
:1047200030E03093B5132093B41310929911109286
:104730009A1110929B1110929C1110929D1110923F
:104740009E1121E030E002C0220F331FBA94E2F73D
:10475000B12CC12C78E0D72E40E050E0B0E081E0F1
:1047600090E0F4E0FA95F1F700004F5F5F4F4837B3
:1047700065E0560779F4BA3108F089C0BB0CBB0C70
:10478000BB0C80919911829586958770B82AB0925A
:1047900099117DC0E091B413F091B5136081A0919F
:1047A000870970E00A2E02C0759567950A94E2F7B2
:1047B00060FD1EC0AA24A394AB0EB150B83108F41A
:1047C000DA94AC0102C0440F551FAA95E2F7DA0152
:1047D00064EC79E0408150E04A235B23452B09F0EB
:1047E0004BC06150710961157105A1F781E082C06C
:1047F000E0915F13F0916013608170E06223732396
:10480000672BE9F5AA24A394AB0EB1504C2D50E0D0
:10481000B83180F46FEF6D0DDC0102C0AA0FBB1F31
:104820006A95E2F7BD01DA01A756BE4E7C91762B60
:104830007C93DA94DA01A456BE4E4FEF4D0DBC01C5
:1048400002C0660F771F4A95E2F7AB015C91542BCB
:104850005C9371E0A71202C0BB24B39464EC79E0CE
:10486000408150E042235323452B31F461507109BC
:1048700061157105A9F7BACFBA2D40E050E0D1100B
:1048800003C0C39468E0D62EBA3208F46ACF8BEE28
:104890008B0F853068F480919C11809399118091E1
:1048A0009D1180939A1180919E1180939B110AC053
:1048B000B43030F48091991186958093991104C099
:1048C000B53010F083E001C081E080939C11D701E6
:1048D0008C91813021F4F801EA53F44F09C0F401BE
:1048E000E05CF34F0190F081E02DEA53F44F81E05A
:1048F000808380E02196ECE00C9414BE1F920F920E
:104900000FB60F9211240BB60F922F933F934F9334
:104910005F936F937F938F939F93AF93BF93EF9327
:10492000FF93F8948EE181DE8111E8987894FF91ED
:10493000EF91BF91AF919F918F917F916F915F9117
:104940004F913F912F910F900BBE0F900FBE0F9084
:104950001F9018951F920F920FB60F9211240BB64D
:104960000F922F933F934F935F936F937F938F9308
:104970009F93AF93BF93EF93FF93F8948FE155DE2E
:104980008111E9987894FF91EF91BF91AF919F9138
:104990008F917F916F915F914F913F912F910F90E8
:1049A0000BBE0F900FBE0F901F9018951F920F9285
:1049B0000FB60F9211240BB60F922F933F934F9384
:1049C0005F936F937F938F939F93AF93BF93EF9377
:1049D000FF93F89480E229DE8111EA987894FF91A0
:1049E000EF91BF91AF919F918F917F916F915F9167
:1049F0004F913F912F910F900BBE0F900FBE0F90D4
:104A00001F9018951F920F920FB60F9211240BB69C
:104A10000F922F933F934F935F936F937F938F9357
:104A20009F93AF93BF93EF93FF93F89481E2FDDDE3
:104A30008111EB987894FF91EF91BF91AF919F9185
:104A40008F917F916F915F914F913F912F910F9037
:104A50000BBE0F900FBE0F901F9018951F920F92D4
:104A60000FB60F9211240BB60F922F933F934F93D3
:104A70005F936F937F938F939F93AF93BF93EF93C6
:104A8000FF93F8948BE1D1DD8111EC987894FF913C
:104A9000EF91BF91AF919F918F917F916F915F91B6
:104AA0004F913F912F910F900BBE0F900FBE0F9023
:104AB0001F9018951F920F920FB60F9211240BB6EC
:104AC0000F922F933F934F935F936F937F938F93A7
:104AD0009F93AF93BF93EF93FF93F89489E1A5DD84
:104AE0008111ED987894FF91EF91BF91AF919F91D3
:104AF0008F917F916F915F914F913F912F910F9087
:104B00000BBE0F900FBE0F901F9018951F920F9223
:104B10000FB60F9211240BB60F922F933F934F9322
:104B20005F936F937F938F939F93AF93BF93EF9315
:104B3000FF93F89487E179DD8111EE987894FF91E5
:104B4000EF91BF91AF919F918F917F916F915F9105
:104B50004F913F912F910F900BBE0F900FBE0F9072
:104B60001F9018951F920F920FB60F9211240BB63B
:104B70000F922F933F934F935F936F937F938F93F6
:104B80009F93AF93BF93EF93FF93F89486E14DDD2E
:104B90008111EF987894FF91EF91BF91AF919F9120
:104BA0008F917F916F915F914F913F912F910F90D6
:104BB0000BBE0F900FBE0F901F9018951F920F9273
:104BC0000FB60F9211240BB60F922F923F924F9275
:104BD0005F926F927F928F929F92AF92BF92CF928D
:104BE000DF92EF92FF920F931F932F933F934F9378
:104BF0005F936F937F938F939F93AF93BF93EF9345
:104C0000FF93CF93DF93CDB7DEB72797DEBFCDBF3E
:104C1000809183098F5F80938309883C09F04BC0A2
:104C200010928309809182098F5F8093820990910D
:104C30008109923111F09A3251F48E3141F4809110
:104C400018028230C1F181E08093180234C08C33A5
:104C500091F51092820931E0390F309381098091EA
:104C6000F9089091FA08A091FB08B091FC08019610
:104C7000A11DB11D8093F9089093FA08A093FB0839
:104C8000B093FC0821E0209319023C33A1F4109268
:104C90008109809180098F5F80938009883159F460
:104CA0001092800980917F098F5F80937F098830FF
:104CB00011F420937F098091F00A813099F480915A
:104CC0001D0290911E02A0911F02B0912002019638
:104CD000A11DB11D80931D0290931E02A0931F027F
:104CE000B09320028091ED0B9091EE0BA091EF0B11
:104CF000B091F00B83309105A105B10558F00197F3
:104D0000A109B1098093ED0B9093EE0BA093EF0BEB
:104D1000B093F00B80919111909192118230910596
:104D200028F0019790939211809391118091AB118B
:104D30009091AC11009729F001979093AC1180935A
:104D4000AB11809134128F3F69F080918D09909161
:104D50008E09813127E2920728F0019790938E09FE
:104D600080938D092CED3CE03A83298320E3422E89
:104D700024E1522E30E4832E3CE0932E4CECA42E02
:104D800042E1B42E02EF1BE056ECC52E59E0D52EC1
:104D900062EAE62E6AE0F62E79E6272E71E1372EDA
:104DA000E3E26E2EE2E07E2E1F821E827FEFA9815B
:104DB000BA812D91BA83A983213009F057C0EE81C1
:104DC000FF81E257F34F8081813009F0AFC0F401D9
:104DD00080819181181619060CF0A8C0D5018D911B
:104DE0009C91009709F4A2C0EE81FF81E156F44F37
:104DF000208121119BC081309105A9F5F30120810B
:104E00003181C90101962B833C837D830E946BC055
:104E1000682F2B813C81D9018C910E94C917E091A8
:104E20004F13F091501380819181682FD8014D91DB
:104E30005C919C0133277D812417350714F461E0D0
:104E400004C0421753071CF46FEF680F03C0D4016E
:104E50001D921C92862F90E091838083F4018081C3
:104E60009181D50155C00197F5015EC0D7018D91A3
:104E70009C911197009751F101978D939C93BE815E
:104E8000B63241F44091EE0A5091EF0A452B11F4ED
:104E900010929C12009771F4F101308131FD0AC02B
:104EA00081E090E0A0E0B0E0F60180839183A283EE
:104EB000B3830CC0D1013C9131FF08C0803A910509
:104EC00028F470937302F70111821082F601808139
:104ED0009181A281B38183309105A105B10538F09C
:104EE0000197A109B10980839183A283B383233001
:104EF00091F4EE81FF81EB54F34F80818430B1F463
:104F0000D8018D919C911197181619067CF4019780
:104F10008D939C930BC0211109C0F8018081918170
:104F2000823091051CF0019791838083D2018D918D
:104F30009C911197009751F0EE81FF81E858F44F52
:104F40002081233019F001978D939C932E813F810E
:104F50002F5F3F4F3F832E8332E0430E511C82E090
:104F6000880E911C92E0A90EB11C0E5F1F4FA4E0A9
:104F7000CA0ED11CB2E0EB0EF11CEFEF2E1A3E0A66
:104F8000F2E06F0E711C2E813F812732310509F04E
:104F90000ECFE2E6FAE080819181A281B381833075
:104FA0009105A105B10538F00197A109B1098083E8
:104FB0009183A283B38334963AE0E23AF30759F738
:104FC0008FB1809530918A13832790910D02982399
:104FD000909590930D0220910C022823292720936D
:104FE0000C0289238223282F232390915A13922B7A
:104FF00090935A13382730938A13832320915413A4
:10500000282B209354138CB1809530915113832712
:1050100090910B029823909590930B0220910A0295
:105020002823292720930A0289238223282F232338
:1050300090915313922B909353133827309351131D
:1050400083232091B213282B2093B21383B1809530
:105050003091611383279091090298239095909342
:105060000902209108022823292720930802892376
:105070008223282F23239091BA13922B9093BA1353
:1050800038273093611383232091BB13282B20935F
:10509000BB1380B180953091CD1383279091070287
:1050A00098239095909307022091060228232927A0
:1050B0002093060289238223282F23239091C21252
:1050C000922B9093C21238273093CD1383232091D3
:1050D0006213282B2093621386B180953091B6130A
:1050E0008327909105029823909590930502209133
:1050F0000402282329272093040289238223282FAE
:1051000023239091B913922B9093B913382730939E
:10511000B61383232091C312282B2093C31289B185
:1051200080953091C1128327909103029823909526
:105130009093030220910202282329272093020240
:1051400089238223282F232390915813922B909305
:10515000581338273093C11283232091BC13282B76
:105160002093BC1382B38095309191138327909143
:105170000102982390959093010220910002282328
:1051800029272093000289238223282F232390910B
:105190005213922B909352133827309391138323F9
:1051A0002091C012282B2093C012809186098C3048
:1051B00021F4A0981092860905C0882319F08F5F0A
:1051C0008093860981E08093880927960FB6F8942A
:1051D000DEBF0FBECDBFDF91CF91FF91EF91BF91A9
:1051E000AF919F918F917F916F915F914F913F917F
:1051F0002F911F910F91FF90EF90DF90CF90BF9074
:10520000AF909F908F907F906F905F904F903F9066
:105210002F900F900BBE0F900FBE0F901F90189500
:10522000F894909154138923982790935413789469
:105230000895F89490915A138923982790935A13BC
:1052400078940895F8949091B213892398279093B5
:10525000B21378940895F894909153138923982762
:105260009093531378940895F8949091BB138923E5
:1052700098279093BB1378940895F8949091BA135B
:10528000892398279093BA1378940895F89490916D
:105290006213892398279093621378940895F89461
:1052A0009091C212892398279093C21278940895FE
:1052B000F8949091C312892398279093C3127894FD
:1052C0000895F8949091B913892398279093B9136E
:1052D00078940895F8949091BC138923982790931B
:1052E000BC1378940895F8949091581389239827C3
:1052F0009093581378940895F8949091C01289234C
:1053000098279093C01278940895F894909152132E
:10531000892398279093521378940895009731F039
:1053200023E52A95F1F700000197F8CF08956AE088
:105330000E9456BD20E1829F900D1124892F08956F
:10534000982F92959F708F702AE0929F800D112464
:105350000895A6E0B0E0EFEAF9E20C9402BE83E41F
:1053600080931C021092840944E050E06EE271E0E8
:10537000CE0101960E94B6C3898191E0980F9230C8
:1053800030F080931C028A8180538093840983E4E7
:1053900080931B0281E080931A0244E050E06CE2AB
:1053A00071E0CE0101960E94B6C3898191E0980F09
:1053B000923030F080931B028A81805380931A02CE
:1053C00080911802823009F443C081E00E94FC18E9
:1053D00082E00E94FC1880ED0E942C1980E00E945F
:1053E0002C1983E00E94FC1882E00E94FC1881EDD9
:1053F0000E942C1980E00E949619A2DF80938209F6
:1054000080E00E9496199CDF8093810980E00E94D1
:10541000961996DF8093800981E00E949619809307
:105420007F0983E00E94FC1880917F0981508730BA
:1054300068F082E08093180210928209109281092C
:105440001092800981E080937F0902C010921802B7
:105450002696E2E00C941EBECF93DF93C82F83E024
:105460000E94FC1881E00E94FC1882E00E94FC1857
:1054700088E70E942C1980E00E942C198EEA0E9475
:105480002C1985ED0E942C1980E80E942C1981E8C6
:105490000E942C198C2F90E0880F991F87529E4FE5
:1054A0000E94CEC38F3F09F48FE70E942C198DE82C
:1054B0000E942C1984E10E942C1981EA0E942C1967
:1054C00088EC0E942C1986EA0E942C1980E20E9426
:1054D0002C1980E00E942C1981E20E942C1980E096
:1054E0000E942C198FE70E942C1980E00E942C1931
:1054F00082E20E942C1980E00E942C1987E00E9411
:105500002C1983E00E94FC1882E00E94FC1888E7B6
:105510000E942C1980E40E942C19C0E0D4E080E0A5
:105520000E942C1921972097D1F783E00E94FC1844
:1055300082E00E94FC1888E70E942C1980E00E94FB
:105540002C198FEA0E942C1983E00E94FC18DF912D
:10555000CF910895A1E0B0E0E0EBFAE20C9400BE38
:10556000082F162F81E049830E94FC1882E00E94D8
:10557000FC1888E70E942C1980E00E942C1980E218
:105580000E942C1981E00E942C1981E20E942C19A2
:10559000802F0E942C198FE70E942C1982E20E9412
:1055A0002C19812F0E942C1981E0810F0E942C1947
:1055B00083E00E94FC1882E00E94FC1888E70E94A9
:1055C0002C1980E40E942C194981413039F083E084
:1055D0000E94FC182196E4E00C941CBE00E011E04F
:1055E00080E00E942C190150110901151105C1F725
:1055F000EECFA0E0B0E0EFEFFAE20C94F8BDD82FC8
:10560000C62F7A01D22E8091560B8A3008F03FC007
:1056100081E00E94FC1882E00E94FC1888E70E944A
:105620002C1980E00E942C1980E20E942C1981E044
:105630000E942C1981E20E942C1921E0D21202C092
:1056400080E001C08D2F0E942C198FE70E942C1939
:1056500082E20E942C1981E0D81201C0C2E08C2F96
:105660000E942C1921E0D21202C083E001C081E027
:105670008C0F0E942C1983E00E94FC1882E00E948B
:10568000FC1888E70E942C1980E40E942C19809154
:105690001E1390E0FC01EE0FFF1FE453FD4E20812E
:1056A00031814091560B2A30310511F4413041F0DF
:1056B000FC01E759FE4E8081873051F4423041F4BD
:1056C0008AE08093560B1092540B1092530BDFC05C
:1056D000413031F484EF91E09093540B8093530B5D
:1056E00000E010E0C12C8C2D90E0F701019000202B
:1056F000E9F73197EE19FF098E179F0708F08AC066
:10570000F701E80FF91F8081803279F4D11010C0C1
:1057100080E00E942C1980E00E942C1980E00E94F9
:105720002C1980E00E942C1953C0803208F450C01C
:10573000982F9D0D8FED890F803B10F08FEA890F18
:10574000813A38F080E00E942C1980E00E942C19E8
:1057500059C090E021E0D2126FC0FC01EE0FFF1F94
:10576000E80FF91FE25CFA4E8490FC01EE0FFF1F78
:10577000E80FF91FE15CFA4EA590B49024E0829EF8
:1057800040011124E801EC2FE01BF0E0E815F905D9
:10579000F0F42091530B3091540BC9010A96C817AD
:1057A000D90758F4C217D30740F0EA0DFB1DEB569A
:1057B000FA4E84910E942C1908C0C817D90729F401
:1057C000D093540BC093530B62C02196DCCF8E0153
:1057D0008091530B9091540B9C01265F3F4F021711
:1057E000130718F40817190720F48091560B8A3014
:1057F00078F480E00E942C1980E00E942C1981E04E
:10580000D81206C080E00E942C1980E00E942C195A
:10581000C39469CF8091560B8A3039F481E080932C
:10582000560B1092540B1092530B8FEF8093220261
:1058300083E00E94FC182BC0FC01EE0FFF1FE80F55
:10584000F91FEB54F54EC491FC01EE0FFF1FE80F5A
:10585000F91FEA54F54EA590B490D0E0CC0FDD1FAF
:1058600088248394912CE92DF0E0EC17FD0708F0D3
:10587000AFCFE80DF11D87FCFA95EA0DFB1DEB5645
:10588000F34E84910E942C1981949394ECCFCDB760
:10589000DEB7ECE00C9414BECF92DF92EF92FF9251
:1058A000CF93C82F81E00E94FC1882E00E94FC1870
:1058B00080E80E942C1983E00E94FC1882E00E947C
:1058C000FC1880E80E942C19C13011F483EE01C04D
:1058D00085EE0E942C1983E00E94FC188AEF90E06C
:1058E0001DDD82E00E94FC18C13019F484EA96E0C4
:1058F00002C08CE291E012DD81E80E942C1988EC54
:1059000090E00CDD80E00E949619F82E81E00E9464
:1059100096192F2D30E0322F2227282B442737FDD0
:105920004095542F2C7F44275527A0E1B7E20E94D1
:10593000E2BD9C01552737FD5095452FC13049F4F4
:10594000A4EAB4E40E94E2BD605D7F4D8A4C9240BF
:1059500008C0A4EDB0E30E94E2BD60587D488B45CD
:10596000910920E137E240E050E00E94ABBD6901BF
:105970007A01CA01B90124E630E040E050E00E941B
:10598000ABBDF7FE29C09B0177FF04C02227332758
:10599000261B370B3F932F93C701B60124E630E057
:1059A00040E050E00E94ABBD3195219531093F9315
:1059B0002F9380E793E09F938F938FE193E19F93E1
:1059C0008F930E949AC18DB79EB708960FB6F89430
:1059D0009EBF0FBE8DBF1AC09F938F937F936F930F
:1059E0005F934F933F932F938CE193E09F938F931B
:1059F0008FE193E19F938F930E949AC18DB79EB7D9
:105A00000C960FB6F8949EBF0FBE8DBF83E00E9428
:105A1000FC18CF91FF90EF90DF90CF900895CF9337
:105A2000DF9381E00E94FC1882E00E94FC1886E46B
:105A30000E942C1980E10E942C1983E00E94FC181E
:105A400082E00E94FC1887E40E942C1980E00E94EA
:105A50009619C82F81E00E949619D82F83E00E94E2
:105A6000FC18AD2FB0E0BC2B2AE030E00E94DCBD7A
:105A70002CE030E040E050E00E94ABBD5F934F93DC
:105A80003F932F938CEF92E09F938F938FE193E15D
:105A90009F938F930E949AC18DB79EB708960FB6B9
:105AA000F8949EBF0FBE8DBFDF91CF910895CF9325
:105AB000DF9390E00496F4E0880F991FFA95E1F7E0
:105AC000C82FC26881E00E94FC1882E00E94FC1886
:105AD00080E90E942C1981E00E942C1981E08C0F32
