:100000000C94E7120C94BD270C94E9270C94152846
:100010000C9441280C946D280C9499280C94C528B4
:100020000C94F1280C9408130C9408130C940813E6
:100030000C9408130C9408130C9408130C940813D4
:100040000C9408130C9408130C9408130C940813C4
:100050000C9408130C9408130C941D290C94081389
:100060000C9408130C9408130C9408130C940813A4
:100070000C9408130C9408130C9408130C94081394
:100080000C9408130C9408130C9408130C94081384
:100090000C94E83E0C94B33E0C9408130C94081393
:1000A0000C9408130C9408130C9408130C94081364
:1000B0000C9408130C9408130C9408130C94081354
:1000C0000C9408130C9408130C9408133D15451553
:1000D0004D15551558156E1558156E153C2F613E6A
:1000E000004578742D494F002F3F70743D256426DC
:1000F00063663D313E00207C203C6120687265666D
:100100003D2F003C2F613E002F53434C002F5344A2
:100110004100493243004453002F4431002F443002
:100120000057323600414443004E4300202D20004A
:10013000290025640028003E50002564002F3F70F0
:10014000743D003C62723E3C6120687265663D2FE2
:10015000003C62723E2D2D2D003C62723E2D2D2002
:100160005850352F36202D2D002F3F63663D343EED
:100170005850323C2F613E3C62723E2D2D20585427
:1001800032202D2D002F3F63663D333E5850313CC9
:100190002F613E3C62723E3C6120687265663D2F75
:1001A000002F3F63663D313E436F6E6669673C2FAB
:1001B000613E3C62723E2D2D204D4F4453202D2D2B
:1001C0003C62723E3C6120687265663D2F00293CAE
:1001D00062723E3C6120687265663D2F00342E33AA
:1001E000316236004D656761442D3235363120620B
:1001F00079203C6120687265663D687474703A2F9E
:100200002F61622D6C6F672E72753E61622D6C6F6F
:10021000672E72753C2F613E202866773A200032A7
:10022000202D2D0031202D2D003E4261636B3C2F8F
:10023000613E3C62723E2D2D20506F7274732058C7
:100240005000446F6E65003E002076616C75653D20
:10025000003C696E707574206E616D653D6B6579EB
:10026000004E2F4100383E4C617374206B65793A23
:100270002000203C696E70757420747970653D7340
:1002800075626D6974206E616D653D70636C20767A
:10029000616C75653D636C6561723E003E003E2099
:1002A000736C6176653A203C696E707574206E617E
:1002B0006D653D70727320747970653D6368656328
:1002C0006B626F782076616C75653D3120003E2051
:1002D000636D643A203C696E707574206E616D6563
:1002E0003D7072642076616C75653D003E3D3C2F2B
:1002F00073656C6563743E2076616C75653A203C6D
:10030000696E707574206E616D653D7072762073D4
:10031000697A653D332076616C75653D003E3C3CF5
:100320006F7074696F6E2076616C75653D33003E49
:100330003E3C6F7074696F6E2076616C75653D32FE
:10034000003E4E3C6F7074696F6E2076616C75650F
:100350003D31003E203C73656C656374206E616DB9
:10036000653D7072633E3C6F7074696F6E2076619C
:100370006C75653D30003E696620706F72743A207E
:100380003C696E707574206E616D653D7072702091
:1003900073697A653D332076616C75653D007072D6
:1003A0006E2076616C75653D0031303E00656D7084
:1003B0007479002300393E003E002076616C75653B
:1003C0003D003E204163743A203C696E7075742094
:1003D0006E616D653D63726E61002076616C75655E
:1003E0003D00543A203C696E707574206E616D65F5
:1003F0003D63726E74003E003E205344413A203CFF
:10040000696E707574206E616D653D637364612003
:1004100076616C75653D003C62723E536574207474
:10042000696D653A203C696E707574206E616D650A
:100430003D7374696D653E3C62723E53434C3A2095
:100440003C696E707574206E616D653D6373636C9D
:100450002076616C75653D00373E43757220746986
:100460006D653A2000223E3C62723E737276206CCB
:100470006F6F703A203C696E707574207479706586
:100480003D636865636B626F78206E616D653D7377
:100490006C2076616C75653D31004D656761642D3A
:1004A00049443A203C696E707574206E616D653DFB
:1004B0006D646964206D61786C656E6774683D3544
:1004C0002073697A653D352076616C75653D220043
:1004D000323E003C62723E557074696D653A200090
:1004E00064697361726D003C623E41524D3C2F6203
:1004F0003E003E3C62723E4D6F64653A2000223EF3
:100500003C62723E534D532074696D656F75743A49
:10051000203C696E707574206E616D653D736D73FE
:10052000742073697A653D332076616C75653D0092
:100530003C62723E50686F6E653A203C696E707521
:1005400074206E616D653D67736D5F6E756D206DB6
:1005500061786C656E6774683D31332076616C75C7
:10056000653D22003E3C62723E47534D3A203C6955
:100570006E707574206E616D653D67736D20747962
:1005800070653D636865636B626F782076616C753A
:10059000653D310057646F673A203C696E70757431
:1005A000206E616D653D70722073697A653D332000
:1005B00076616C75653D005363726970743A203CD6
:1005C000696E707574206E616D653D736374206D26
:1005D00061786C656E6774683D31352076616C7545
:1005E000653D22003C62723E00646973636F6E6E0B
:1005F000656374656400636F6E6E65637465640043
:100600003E4D5154543C2F73656C6563743E20001D
:100610003E485454503C6F7074696F6E2076616C24
:1006200075653D310053525620547970653A203C2F
:1006300073656C656374206E616D653D737276746D
:100640003E3C6F7074696F6E2076616C75653D30ED
:100650000025642E25642E25642E25643A25753EDA
:100660003C62723E003E3C62723E5352563A203C1F
:10067000696E707574206E616D653D73697020766A
:10068000616C75653D0047573A203C696E70757422
:10069000206E616D653D67772076616C75653D25DF
:1006A000642E25642E25642E2564005077643A203C
:1006B0003C696E707574206E616D653D7077642065
:1006C0006D61786C656E6774683D332076616C751A
:1006D000653D220049503A203C696E707574206E69
:1006E000616D653D6569702076616C75653D256459
:1006F0002E25642E25642E256400313E006366207D
:1007000076616C75653D002F3E002F3F63663D3876
:100710003E6942204B6579733C2F613E002F3F6359
:10072000663D393E50726F6772616D3C2F613E00CD
:100730002F3F63663D373E43726F6E3C2F613E0034
:100740002F3F63663D323E4D656761642D49443CF1
:100750002F613E002F3F63663D313E436F6E6669F9
:10076000673C2F613E003E4261636B3C2F613E005F
:100770002F3F63663D31002F3F63663D3900446F74
:100780006E65004D656761442069732072657374FE
:100790006172746564003E4261636B3C2F613E3C54
:1007A00062723E002F3F70743D00340033002F3FD3
:1007B00063663D002A002A007D7D00227D003B000B
:1007C00026636D643D6C6973743E44657669636548
:1007D000204C6973743C2F613E002F3F70743D00C4
:1007E0003E61726D3C2F73656C6563743E003E61C3
:1007F0006C776179733C6F7074696F6E2076616C91
:1008000075653D32003E6E6F3C6F7074696F6E208F
:1008100076616C75653D31003C62723E534D5320EC
:100820003C73656C656374206E616D653D67736DC7
:10083000663E3C6F7074696F6E2076616C75653DC5
:1008400030003E003C62723E44697370203C696E29
:10085000707574206E616D653D6469737020736995
:100860007A653D322076616C75653D0026636D6466
:100870003D7363616E3E493243205363616E3C2F8A
:10088000613E002F3F70743D003E003C62723E4965
:100890004E54203C696E707574206E616D653D69C3
:1008A0006E74612073697A653D332076616C75657D
:1008B0003D003E003C62723E46726571203C696EAE
:1008C000707574206E616D653D6873742073697A0C
:1008D000653D332076616C75653D003E003E3C62AF
:1008E000723E436C6F636B203C696E707574206E52
:1008F000616D653D636C6F636B20747970653D63FA
:100900006865636B626F782076616C75653D370052
:100910003C62723E427269676874203C696E707511
:1009200074206E616D653D6873742073697A653DEE
:10093000332076616C75653D003E50434139363851
:10094000353C2F73656C6563743E003E4D435032F9
:10095000333058583C6F7074696F6E2076616C75D7
:10096000653D3231003E535344313330363C6F7075
:1009700074696F6E2076616C75653D3230003E544F
:10098000534C323539313C6F7074696F6E2076612B
:100990006C75653D34003E4248313735303C6F70F0
:1009A00074696F6E2076616C75653D33003E4D4114
:1009B0005834343030393C6F7074696F6E20766112
:1009C0006C75653D32003E424D783238303C6F7078
:1009D00074696F6E2076616C75653D37003E424DDF
:1009E000503138303C6F7074696F6E2076616C7571
:1009F000653D36003E4854553231443C6F70746951
:100A00006F6E2076616C75653D35003E414E593CF8
:100A10006F7074696F6E2076616C75653D31003C56
:100A200062723E446576203C73656C656374206E2B
:100A3000616D653D643E3C6F7074696F6E207661D8
:100A40006C75653D30003E003C62723E53434C2065
:100A50003C696E707574206E616D653D6D69736380
:100A60002073697A653D332076616C75653D003E83
:100A700053434C3C2F73656C6563743E003E534496
:100A8000413C6F7074696F6E2076616C75653D32A4
:100A9000003E4E433C6F7074696F6E2076616C75DA
:100AA000653D31003C62723E4D6F6465203C73656C
:100AB0006C656374206E616D653D6D3E3C6F707456
:100AC000696F6E2076616C75653D30003E003C625A
:100AD000723E4431203C696E707574206E616D65A4
:100AE0003D6D6973632073697A653D332076616C6F
:100AF00075653D003E44313C2F73656C6563743E03
:100B0000003E44303C6F7074696F6E2076616C7586
:100B1000653D32003E4E433C6F7074696F6E2076C7
:100B2000616C75653D31003C62723E4D6F646520BD
:100B30003C73656C656374206E616D653D6D3E3C14
:100B40006F7074696F6E2076616C75653D30003E24
:100B50005732363C2F73656C6563743E003E6942C4
:100B60003C6F7074696F6E2076616C75653D360000
:100B70003E31574255533C6F7074696F6E207661F9
:100B80006C75653D34003E31573C6F7074696F6E13
:100B90002076616C75653D35003E44485432323CE8
:100BA0006F7074696F6E2076616C75653D33003EC1
:100BB00044485431313C6F7074696F6E2076616CBB
:100BC00075653D32003C62723E53656E203C736534
:100BD0006C656374206E616D653D643E3C6F70743E
:100BE000696F6E2076616C75653D310020636865C4
:100BF000636B65643E203C696E707574206E616D38
:100C0000653D6D322073697A653D332076616C7580
:100C1000653D003E486967683C2F73656C65637489
:100C20003E3C62723E536D6F6F7468203C696E701B
:100C3000757420747970653D636865636B626F7865
:100C4000206E616D653D6D6973632076616C7565BD
:100C50003D31003E4C6F773C6F7074696F6E20764B
:100C6000616C75653D32003E4E6F726D3C6F707405
:100C7000696F6E2076616C75653D31003C62723E35
:100C800046726571203C73656C656374206E616D9E
:100C9000653D66723E3C6F7074696F6E2076616C64
:100CA00075653D30003E003C62723E47726F757064
:100CB000203C696E707574206E616D653D67727061
:100CC0002073697A653D322076616C75653D003E22
:100CD0004453323431333C2F73656C6563743E008A
:100CE0003E5357204C494E4B3C2F6F7074696F6ECA
:100CF0003E3C6F7074696F6E2076616C75653D3235
:100D0000003C6F7074696F6E2076616C75653D3361
:100D1000003E50574D003C6F7074696F6E207661D5
:100D20006C75653D31003E5357003C62723E4D6F1D
:100D30006465203C73656C656374206E616D653D10
:100D40006D3E3C6F7074696F6E2076616C75653DA9
:100D500030003E313C2F73656C6563743E003E305D
:100D60003C6F7074696F6E2076616C75653D310003
:100D70003C73656C656374206E616D653D643E3CDB
:100D80006F7074696F6E2076616C75653D30003CE4
:100D9000696E707574206E616D653D642073697A4B
:100DA000653D33206D61786C656E6774683D3320F6
:100DB00076616C75653D003C62723E4465666175A6
:100DC0006C743A20003C62723E526177203C696E3E
:100DD00070757420747970653D636865636B626FCC
:100DE00078206E616D653D642076616C75653D317E
:100DF00000203C696E70757420747970653D63687D
:100E000065636B626F78206E616D653D6D697363BC
:100E10002076616C75653D31003E433C2F73656CF7
:100E20006563743E003E523C6F7074696F6E20764D
:100E3000616C75653D33003E5026523C6F7074699D
:100E40006F6E2076616C75653D32003E503C6F7070
:100E500074696F6E2076616C75653D31003C62721D
:100E60003E4D6F6465203C73656C656374206E61F4
:100E70006D653D6D3E3C6F7074696F6E2076616C80
:100E800075653D3000223E203C696E70757420749B
:100E90007970653D636865636B626F78206E616D24
:100EA000653D6E61662076616C75653D31002F0091
:100EB0003A25750025642E25642E25642E256400B0
:100EC0003E3C62723E4E6574203C696E70757420C3
:100ED00073697A653D3332206E616D653D65746876
:100EE0002076616C75653D2200223E203C696E7063
:100EF000757420747970653D636865636B626F78A3
:100F0000206E616D653D61662076616C75653D3171
:100F1000003C62723E416374203C696E70757420BF
:100F20006E616D653D65636D642076616C75653DD0
:100F300022003E3C62723E487374203C696E7075BC
:100F400074206E616D653D6873742076616C7565A3
:100F50003D003E3C3E3C2F73656C6563743E3C62D5
:100F6000723E56616C203C696E707574206E616DC6
:100F7000653D6D6973632073697A653D34207661E0
:100F80006C75653D003E3C3C6F7074696F6E2076F9
:100F9000616C75653D33003E3E3C6F7074696F6EE9
:100FA0002076616C75653D32003E4E6F726D3C6F10
:100FB0007074696F6E2076616C75653D31004D6FA0
:100FC0006465203C73656C656374206E616D653D7E
:100FD0006D3E3C6F7074696F6E2076616C75653D17
:100FE00030003C2F73656C6563743E003E414443A2
:100FF000003C6F7074696F6E2076616C75653D3270
:10100000003E493243003E4453656E3C6F70746944
:101010006F6E2076616C75653D34003E4F75743C93
:101020006F7074696F6E2076616C75653D33003E3C
:10103000496E3C6F7074696F6E2076616C75653DAA
:1010400031003E4E433C6F7074696F6E2076616C68
:1010500075653D300054797065203C73656C65633F
:1010600074206E616D653D7074793E3C6F7074697B
:101070006F6E2076616C75653D32353500706E207F
:1010800076616C75653D002F3E003C62723E3C61AE
:1010900020687265663D2F25732F3F70743D25646F
:1010A000266578743D25643E5025643C2F613E00E2
:1010B0003C62723E2D2D20506F72747320457874FF
:1010C00020285043413936383529202D2D003C62E7
:1010D000723E3C6120687265663D2F25732F3F701C
:1010E000743D2564266578743D25643E5025642052
:1010F0002D200029202D2D003038003137003C6292
:10110000723E2D2D20506F72747320457874202804
:101110004D4350323330002F00222C22636E742254
:101120003A22002F0068756D3A002F0074656D70CB
:101130003A00203C696E70757420747970653D7357
:1011400075626D69742076616C75653D7365743E7A
:101150003C2F666F726D3E0050574D3A203C696ED1
:10116000707574206E616D653D6570776D20766178
:101170006C75653D25642073697A653D333E006575
:1011800078742076616C75653D25643E007074202E
:1011900076616C75653D25643E002F3E003E4F75BF
:1011A000743C2F73656C6563743E003E496E3C6F02
:1011B0007074696F6E2076616C75653D310054798D
:1011C0007065203C73656C656374206E616D653D70
:1011D0006574793E3C6F7074696F6E2076616C75D2
:1011E000653D30006578742076616C75653D2564D9
:1011F0003E0070742076616C75653D25643E002F5D
:101200003E003C2F613E2000303E003C2F613E20DE
:1012100000313E003C6120687265663D2F25732FCA
:101220003F70743D2564266578743D256426636DA2
:10123000643D25646525643A002F003A303E4F46F0
:10124000463C2F613E3C62723E00420041002663F4
:101250006D643D002F3F70743D003A313E4F4E3C6F
:101260002F613E203C6120687265663D2F00420080
:10127000410026636D643D002F3F70743D00423A8B
:101280002000413A20002F004E412F4E41002F00F8
:101290003E203C696E70757420747970653D73757D
:1012A000626D69742076616C75653D6368616E6717
:1012B000653E3C2F666F726D3E003E50574D2028B4
:1012C000302D323535293A203C696E707574206EA8
:1012D000616D653D70776D2073697A653D33207669
:1012E000616C75653D0070742076616C75653D00BC
:1012F0002F3E003C62723E3C666F726D20737479C3
:101300006C653D646973706C61793A696E6C696E85
:101310006520616374696F6E3D2F00504341004D3D
:101320004350003C62723E003C62723E6C75783AFB
:10133000003C62723E6C75783A003C62723E6C759D
:10134000783A0074656D703A007B2274656D702286
:101350003A002F68756D3A002C202268756D223A8C
:101360000074656D703A007B2274656D70223A00DE
:101370002F003E4261636B3C2F613E3C62723E50E7
:101380000034003300312670743D002F3F63663D0A
:10139000007D7D003B002C002F003A003A00220027
:1013A00022007B00627573790062757379227D007B
:1013B000446F6E650026616C6C3D006D6469643D30
:1013C000003F00485454502F312E3020343031200B
:1013D000556E617574686F72697A65640D0A0D0ADD
:1013E000556E617574686F72697A656400547279BC
:1013F00020687474703A2F2F69702F707764002FF3
:10140000002F002F002F002F002F005025643A20BE
:101410000049503A202564202E202564202E2025C6
:1014200064202E202564002F00485454502F312E64
:101430003020323030204F4B0D0A436F6E74656E92
:10144000742D547970653A20746578742F68746DC2
:101450006C0D0A507261676D613A206E6F2D636189
:101460006368650D0A0D0A002892A5ACAFA5E029B6
:101470000082EBAAAB0082AAAB2020200041542BB3
:10148000434E4D493D322C320A0041542B435343C5
:10149000533D2247534D220A0041542B434D4746AA
:1014A0003D310A004F4646004F4E00494E004F5511
:1014B0005400223E3C62723E003E3C62723E003C62
:1014C00062723E00207C203C6120687265663D2F80
:1014D000003C6120687265663D2F003E0020636815
:1014E00065636B6564003C696E7075742074797017
:1014F000653D68696464656E206E616D653D003CA4
:1015000062723E3C696E70757420747970653D73CB
:1015100075626D69742076616C75653D53617665A1
:101520003E3C2F666F726D3E003C666F726D2061AF
:101530006374696F6E3D2F002073656C656374651D
:101540006400160000000000000000000000000021
:10155000001658000000000000000000000000001D
:1015600000000016B000000000160801076001002E
:101570000000167C0116D401162C0216840216DC1B
:1015800002163403168C0316E403163C0416940466
:101590000FEC040928050B4C0500000000000000BA
:1015A000000000000000000000000000000000003B
:1015B000000000000000000000000000000000002B
:1015C000000000000000000000000000000000001B
:1015D000000000000000000000000000000000000B
:1015E00000000000000000000000000000000000FB
:1015F00000007F000080FF0000C0FF0100C0FF016D
:10160000C0C0C101F0C0FF01FCC0FF01FF80FFC0EE
:101610003F007FF80F0000FE0300807F0000E01F06
:101620000000F8873F00FEC17F807FE0FFC01FE021
:10163000FFC007E0E0C001E0FF0000E0FF0000C0E5
:101640007F0000803F000000000000000000003E1E
:101650000000003E0000003E0000003E0000003E92
:101660000000003E0000003E0000003E0000FEFFC3
:101670001F00FEFF1F00FEFF1F00FEFF1F00003EB9
:101680000000003E0000003E0000003E0000003E62
:101690000000003E0000003E0000003E0000000090
:1016A000000000000000000000000000000000003A
:1016B000000000000000000000000000000000002A
:1016C0000000003E0000003E0000003E0000003E22
:1016D0000000003E0000003E0000003E0000003E12
:1016E0000000003E0000003E0000003E0000003E02
:1016F0000000003E0000003E00000000FE00000070
:10170000FE000000FE000000FE000000FE000000E1
:10171000FE000000FE00F0FF0000FEFF0700FFFFDC
:101720000FC0FFFF3FC0FFFF3FE0FFFF7FE0FFFF75
:101730007FF00F00FFF00300FCF00100F8F0010063
:10174000F8F00100F8F00100F8F00300FCF00F00E1
:10175000FFE0FFFF7FE0FFFF7FC0FFFF3FC0FFFF15
:101760003F00FFFF0F00FEFF0700F0FF000000003A
:10177000000000000000000000001E00F8001E0035
:10178000F8001E00F8001E00F8001F00F8001F00FF
:10179000F8C0FFFFFFE0FFFFFFE0FFFFFFE0FFFFFC
:1017A000FFE0FFFFFFE0FFFFFFE0FFFFFF000000A3
:1017B000F8000000F8000000F8000000F800000049
:1017C000F8000000F800000000000000F8C00F0062
:1017D000F8E00700FCE00700FEE00300FFF00380F4
:1017E000FFF001C0FFF001C0FFF001E0FFF001F0E9
:1017F000FFF001FCFBF003FEF9F087FFF8F0FF7F3C
:10180000F8E0FF7FF8E0FF3FF8C0FF1FF8C0FF07D8
:10181000F880FF03F800FE00F8000000F800000068
:1018200000000000000000003FC00F007EE0070045
:101830007EE003007CE00300FCF00100F8F0810F83
:10184000F8F0810FF8F0810FF8F0810FF8F0810FB8
:10185000F8F0C30FFCF0FF1FFEF0FFFF7FE0FFFF7B
:101860007FE0FFFD7FC0FFFC3F807FFC1F001FF873
:101870000F0000E0030000F0030000F8030000FE8A
:10188000030000FF030080FF0300E0EF0300F0E728
:101890000300F8E10300FEE003007FE003C01FE067
:1018A00003E00FE003E0FFFFFFE0FFFFFFE0FFFFCB
:1018B000FFE0FFFFFFE0FFFFFFE0FFFFFFE0FFFFB4
:1018C000FF0000E0030000E0030000E00300000070
:1018D000000000003FE0FF0F7EE0FF0F7EE0FF0F03
:1018E0007CE0FF07FCE0FF07F8E0FF07F8E0FF07F8
:1018F000F8E0C307F8E0C307F8E0C307F8E0C30F58
:10190000FCE0C30FFCE0C31FFEE0C3FF7FE083FFEA
:101910007FE083FF3FE003FF3FE003FF1FE003FEA4
:101920000F0000F80300C0FF0000F8FF0700FCFFF5
:101930000F00FFFF1F80FFFF3F80FFFF7FC0FFFF03
:101940007FE09F03FFE0C703FCE0C703F8F0E30379
:10195000F8F0E103F8F0E103F8F0E107FCF0E10F43
:10196000FEF0E1FF7FF0E1FF7FF0C1FF3FF0C3FF3A
:101970003FF083FF1F0000FF070000FC0100000094
:1019800000E0030000E0030080E00300E0E003006B
:10199000F0E00300FCE00300FFE003C0FFE003F021
:1019A000FFE003F8FFE003FE7FE083FF1FE0E3FFBB
:1019B0000FE0F3FF03E0FFFF00E0FF3F00E0FF0F59
:1019C00000E0FF0300E0FF0100E07F0000E01F00F7
:1019D00000E00700000000C007003EF01F80FFF895
:1019E0003FC0FFF93FC0FFFD7FE0FFFF7FE0FFFF4B
:1019F000FFF0FF1FFEF0E307FCF0C10FF8F0C10F8E
:101A0000F8F0C10FF8F0811FF8F0831FFCF0FF3FE2
:101A1000FCE0FFFF7FE0FFFF7FE0FFFE7FC0FFFCF9
:101A20003F807FFC1F001FF80F0000E00700FC0153
:101A30000000FF070080FF0FFCC0FF1FFCC0FF1F5E
:101A4000F8E0FF3FF8E0FF3FF8F0873FF8F0033F92
:101A5000F8F0013EF8F0013EFCF0013EFCF0011E02
:101A60007EF0031E7FF00FCE7FE0FFFF3FE0FFFF21
:101A70001FC0FFFF1FC0FFFF0F00FFFF0300FEFF9F
:101A80000000F01F00003E000080FF0000C0FF01CA
:101A900000E0FF0300E0E30300F0C10700F080076F
:101AA00000F0800700F0800700F0C10700E0E303CA
:101AB00000E0FF0300C0FF010080FF0000003E00C7
:101AC000000000000000F8037F00F8037F00F80327
:101AD0007F00F8037F00F8037F00F8037F00F8031E
:101AE0007F00000000000000000000000000000077
:101AF00000000000000000000000000000000000E6
:101B000000000000000000000000000000000000D5
:101B1000000100000302000808000618000B240062
:101B2000083A00014A00044C00045400055C000718
:101B300066000274000578000182000684000690A9
:101B400000059C0006A60006B20007BE0006CC00F9
:101B500006D80006E40006F00006FC0001080102B9
:101B60000A01070E01071C01072A010538010B4273
:101B700001075801066601077201078001068E0100
:101B8000069A0107A60107B40103C20105C80106B0
:101B9000D20106DE0109EA0107FC01080A02061A61
:101BA00002082602073602074402075202076002B3
:101BB000076E020B7C0207920207A00207AE020327
:101BC000BC0206C20203CE0209D40208E60202F6F3
:101BD0000206FA02060603061203061E03062A037D
:101BE000053603064003064C03015803045A030557
:101BF0006203016C03096E03068003068C030698DA
:101C00000306A40304B00305B80304C20306CA0311
:101C100006D60309E20305F40306FE03050A0405DC
:101C20001404011E04052004082A04063A04074689
:101C300004065404066004066C04097804068A0449
:101C40000B960406AC0407B80407C60406D40409BE
:101C5000E00409F20407040508120507220506300E
:101C600005073C05074A0507580509660507780575
:101C70000886050796050BA4050CBA0509D2050AC6
:101C8000E40506F8050704060B12060728060636C3
:101C900006064206064E06055A0607640606720642
:101CA000097E06059006069A0606A60606B20607EF
:101CB000BE0607CC0606DA0606E60606F20606FEAD
:101CC00006060A07051607062007092C07053E0722
:101CD0000748070656070962070A740707880707B7
:101CE000960705A40706AE0709BA0706CC0706D86B
:101CF000071BF000780000007802000E4003C002CD
:101D0000700E4003C00270004010C011207FF81216
:101D10002012200C2000E001101110091006E00133
:101D2000000EC01120111011000E000EE011101154
:101D30001011100AE00C001200110000780F803022
:101D400060401080088008401030600F8000500014
:101D50002000F8002000500100010001000FE00108
:101D600000010001004000380001000100010001F5
:101D700000010018006000180006000180006000EB
:101D8000180FE010101010101010100FE01020109D
:101D9000201FF01000100018601410121012101103
:101DA0001010E0082010101110111011100EE00397
:101DB000000280024002201FF00200020008001111
:101DC000F01110111011100E100FC010A010901073
:101DD0009010900F00001000101C10031000D00095
:101DE000300EE011101110111011100EE001E01270
:101DF00010121012100A1007E018C0400038C0027C
:101E00000005000500088008801040104004800490
:101E10008004800480048004800480104010400806
:101E2000800880050005000200002000101B100043
:101E30009000600F80104020204F90505050505024
:101E4000505FD0102010400F801800070004C0041D
:101E50003004C0070018001FF011101110111011EC
:101E6000E00E0007C008201010101010101010080D
:101E7000201FF01010101010101010082007C01FA5
:101E8000F0111011101110111011101FF00110019C
:101E90001001100110001007C008201010101012BF
:101EA0001012101E201FF0010001000100010001AE
:101EB000001FF010101FF010101000100010101074
:101EC000100FF01FF0010002800440082010101FC6
:101ED000F0100010001000100010001FF000300083
:101EE000C003000C00030000C000301FF01FF00012
:101EF0003000C00100060018001FF007C0082010C5
:101F000010101010101010082007C01FF00210024F
:101F1000100210021001E007C0082010101010106D
:101F2000103010482047C01FF002100210021005A8
:101F30001008E0100008E01110111011101110111C
:101F4000100E200010001000101FF00010001000F4
:101F50001007F00800100010001000080007F00043
:101F60007001800600180006000180007000F00774
:101F7000001800060001C0003001C006001800076C
:101F80000000F01830044002800100028004401874
:101F9000300010006001801E0001800060001018F9
:101FA000101410121011101090105010307FF840C3
:101FB000084008001800600180060018006000401A
:101FC0000840087FF8010000800040002000100059
:101FD00020004000800100400040004000400040E0
:101FE00000400040004000000800100C00124012A9
:101FF00040124012401F801FF81080104010401007
:10200000400F800F80104010401040104008800F9B
:102010008010401040104008401FF80F80124012FE
:1020200040124012400B8000401FF0004800480062
:10203000080F8090409040904088407FC01FF8007B
:10204000800040004000401F801FC880008000804A
:10205000407FC81FF802000500088010401FF81FCD
:10206000C00080004000401F800080004000401FF2
:10207000801FC000800040004000401F800F801083
:10208000401040104010400F80FFC01080104010E2
:102090004010400F800F801040104010400840FF5B
:1020A000C01FC0008000400040118012401240124A
:1020B000400C4000400FF0104010400FC0100010C6
:1020C00000100008001FC000C0070018001800071B
:1020D0000000C000C007001800070000C00700187B
:1020E00000070000C018C005000200050018C0006D
:1020F000C0870078001800070000C0184014401284
:1021000040114010C0010001003EF0400840087F2F
:10211000F8400840083EF001000100030000800084
:1021200080010001000200020001801FF011141163
:10213000101110111411101800070004C00430040D
:10214000C0070018001FF011101110111011100E0F
:10215000001FF011101110111011E00E001FF000FF
:102160001000100010001000107000180017001070
:10217000F01010101010101FF070001FF01110114F
:10218000101110111011101010081004E0030001BC
:10219000001FF00100030004E008101010082010D8
:1021A000101110111011100EE01FF00800060001B0
:1021B0000000C000201FF01FF00802060401040008
:1021C000C400221FF01FF00100030004E0081010FB
:1021D00010100010000FF000100010001000100090
:1021E000101FF01FF0003000C003000C00030000BF
:1021F000C000301FF01FF0010001000100010001CC
:10220000001FF007C0082010101010101010100848
:102210002007C01FF0001000100010001000101F59
:10222000F01FF0021002100210021001E007C008B7
:1022300020101010101010101008200010001000B6
:10224000101FF0001000100010103010C013000C10
:1022500000030000C0003003800440082008201F55
:10226000F008200820044003801830044002800158
:10227000000280044018301FF01000100010001001
:102280000010001FF0700001F002000200020002C6
:102290000002001FF01FF010001000100010001FBF
:1022A000F010001000100010001FF01FF0100010C0
:1022B00000100010001FF010001000100010001F90
:1022C000F070000010001000101FF011001100113C
:1022D0000011000E001FF01100110011001100117B
:1022E000000E00000000001FF01FF011001100118F
:1022F0000011000E0008201110111011101110090A
:102300002007C01FF00100010007C00820101010B6
:102310001010101010082007C0100009E00610026D
:1023200010021002101FF00C001240124012401256
:10233000401F800FE010501048104810480F881FB1
:10234000C012401240124012400D801FC0004000D9
:10235000400040004070001C0013C0104010401F9F
:10236000C070000F8012401240124012400B8010CB
:10237000400840058002001FC00200058008401090
:102380004008801240124012400D801FC00400021D
:1023900000010000801FC01FC004080210011000CF
:1023A000881FC01FC00200020005800840104010B6
:1023B0000010000FC00040004000401FC01FC000C0
:1023C0008001000600010000801FC01FC002000243
:1023D00000020002001FC00F80104010401040108B
:1023E000400F801FC000400040004000401FC0FF61
:1023F000C010801040104010400F800F801040101F
:1024000040104010400880004000401FC0004000C5
:102410004000C0870078001800070000C00F80103F
:102420004010401040FFF81040104010400F80183E
:10243000C005000200050018C01FC01000100010E9
:102440000010001FC0700003C0040004000400045A
:10245000001FC01FC01000100010001FC01000108F
:102460000010001FC01FC01000100010001FC0107F
:1024700000100010001FC07000004000401FC0117D
:1024800000110011000E001FC01100110011000EFC
:102490000000001FC01FC01100110011000E000835
:1024A0008010401240124012400F801FC0020002F4
:1024B000000F8010401040104010400F8011800A23
:1024C000400640024002401FC00F801250124012CE
:1024D0004012500B802F636D64004D51497364703E
:1024E000000D0A436F6E74656E742D547970653AF1
:1024F000206170706C69636174696F6E2F782D77DD
:1025000077772D666F726D2D75726C656E636F6473
:1025100065640D0A0D0A00436F6E74656E742D4C70
:10252000656E6774683A20000D0A557365722D4117
:1025300067656E743A207467722F312E310D0A412F
:1025400063636570743A202A2F2A0D0A436F6E6EFA
:10255000656374696F6E3A20636C6F73650D0A0072
:102560000D0A0020485454502F312E310D0A486F67
:1025700073743A2000504F535420000D0A55736570
:10258000722D4167656E743A206D656761640D0A4E
:102590004163636570743A20746578742F68746D54
:1025A0006C0D0A0D0A0020485454502F312E310D65
:1025B0000A486F73743A2000474554200000010810
:1025C00000060400014500008200004000201124A4
:1025D0001FBECFEFD1E2DEBFCDBF00E00CBF19E0E0
:1025E000A0E0B2E0E4EFF4E901E00BBF02C0079025
:1025F0000D92A631B107D9F724E1A6E1B9E001C0F7
:102600001D92A33AB207E1F70E94B8400C9478CA31
:102610000C94000010920F0B10920E0B8FEF809312
:10262000250208950F931F93CF93DF93EB0140E3AF
:1026300050E0BC0180E493E10E94C9C666ED72E0FF
:1026400080E493E10E946DC610927A1320917A1370
:102650002430C8F40097B9F08E01020F111D4AE032
:1026600050E060E070E00E9426C5F8016083809130
:102670007A138F5F80937A1366ED72E080E090E0CA
:102680000E946DC6E3CF822FDF91CF911F910F91F2
:102690000895613049F4DA01E7E7F2E08D91819322
:1026A00082E0ED37F807D1F70895623049F4DA0196
:1026B000EDE5F2E18D91819382E1E336F807D1F700
:1026C0000895E091DF12F091E012908121E030E076
:1026D000082E01C0220F0A94EAF7922B90830895E6
:1026E000E091D912F091DA12208181E090E000901F
:1026F0001E0202C0880F991F0A94E2F7282B20833C
:10270000089570E0DC0111964C91119750E09B0107
:10271000225031094217530799F41696EC916350F1
:102720007109F0E0E617F7075CF4E80FF91F8781FD
:10273000805A843028F49285915081E0943008F0DA
:1027400080E00895FC01CB0120812033E1F4248155
:10275000211119C025812430B1F4DB010D90002036
:10276000E9F7AD0141505109461B570B268130E076
:102770004217530741F4BF01695F7F4F0E94BBC6F8
:1027800021E0892B09F020E0822F0895FC01368199
:10279000E30FF11D978180E6890F823078F422855E
:1027A000E20FF11D8189803349F481E1830F820FAB
:1027B000FB018083903A21F481E0089580E0089540
:1027C00082E0089542E0242F30E0662341F0FC01CE
:1027D000E20FF31F21812E5F420F6150F4CF820F71
:1027E000931F0895FF920F931F93CF93DF93EC01F4
:1027F00088818033C1F4098180E010E09EEFF92EDA
:10280000202F30E0281B31092330310554F09F2D53
:10281000981B090F612FCE01D5DFFC0181811F5F5D
:10282000EFCF812F01C080E0CDB7DEB7E5E00C949B
:1028300090C3CF93DF93EA01C5DFFC0183819581CB
:10284000963079F49681913061F48350883048F461
:102850003796DE01982F992329F021912D939150DD
:10286000FACF80E0DF91CF910895A4E0B0E0EBE3F0
:10287000F4E10C9476C319821A821B821C8224E034
:10288000298321E02A832AE22B83FC01DE011196B1
:1028900020E030E0462F50E0241735075CF411911A
:1028A0007D91711768F0171768F02F5F3F4F233045
:1028B000310591F7643030F0FC0183818F5F03C0F4
:1028C0008FEF01C080E02496E3E00C9492C3A8E06F
:1028D000B0E0EDE6F4E10C9471C37C01C62E8A01F0
:1028E000D12CDC1491F0AE014F5F5F4F6D2DC7010D
:1028F000A0DF682FCE010196B8DFF80181938F0128
:10290000D394883070F38D2D01C080E02896E8E0E4
:102910000C948DC3A8E0B0E0E0E9F4E10C9471C33D
:102920007C01C62E8A01D12CDC14E9F0AE014F5F88
:102930005F4F6D2DC7017DDFFE01E80FF11D908116
:10294000F80191938F01D394843079F48981843094
:1029500061F48A81813049F48B818A3231F48C812F
:10296000883010F302C080E001C08D2D2896E8E089
:102970000C948DC3DC011696EC911697F0E0AE0F27
:10298000BF1F22EA17962C9317971A962C91E20FE5
:10299000F11DE80FF91F6587408B0895EF920F93A3
:1029A0001F93CF93DF93FC0180E3808386E08283D3
:1029B00093E0940F93839BE29483858381E08683E5
:1029C000EF012796DB01460F8A2F861B4A1719F065
:1029D0008D918993F9CFEF01C80FD11D2F83E88620
:1029E000875FD80120E030E0AF01480F511DE216AB
:1029F00041F09D91EA01C20FD31F98832F5F3F4F93
:102A0000F6CF8E0D9EEF980F9183DF91CF911F919E
:102A10000F91EF900895A6E0B0E0E1E1F5E10C94AC
:102A200069C36C01F62E3A0184E0898381E08A83D0
:102A30008AE28B831C82512C412C822E912CA62E53
:102A4000B12C82E0A80EB11C852D992787FD9095A9
:102A5000881599050CF055C0F301E80FF91F408166
:102A60004C8350E04830510508F049C0FA01EA595A
:102A7000FF4F042D10E00C9442C3C501800F911F3D
:102A80003AE0E32E08ED12E027C0C501800F911F48
:102A9000EE24E39408E119E029C0C501800F911FDD
:102AA000EE24E39402E112E021C063EE72E002C082
:102AB0006AEE72E083E29DE00E94B4C6E3E2FDE0CC
:102AC00001900020E9F73197E352FD40C501800FE6
:102AD000911FEE2E03E21DE024E009C0C501800F26
:102AE000911F22E0E22E8E010B5F1F4F22E044E097
:102AF000BE016F5F7F4F8C0D9D1D50DF480E5394BC
:102B0000A3CFF601EF0DF11D4182842D8F0DF6014B
:102B100081839681E90FF11D92EA97839285965FF2
:102B2000940D90878E5F2696E0E10C9485C3CF9339
:102B3000C82F6EEE72E08FEE93E10E94B4C69091C2
:102B4000AC139F5F923038F06CEA73E18FEE93E143
:102B50000E94B4C618C0809184021F928F932FEEFA
:102B600033E13F932F9345EF52E05F934F933F93B1
:102B70002F930E9466C78DB79EB708960FB6F8943C
:102B80009EBF0FBE8DBFCF3FB1F01F92CF938FEE90
:102B900093E19F938F932AEF32E03F932F939F937C
:102BA0008F930E9466C78DB79EB708960FB6F894AC
:102BB0009EBF0FBE8DBFCF910895F894E091D912BA
:102BC000F091DA12908121E030E001C0220F8A9565
:102BD000EAF7322F309593239083E091DF12F09142
:102BE000E0128081822B80838BED95E00197F1F7D5
:102BF00000C00000E091DF12F091E0128081832399
:102C00008083EAEDF0E03197F1F700C0E091D51351
:102C1000F091D6138081E1E0F5E03197F1F77894F7
:102C200082230895F894E091D912F091DA1240814C
:102C300021E030E0062E01C0220F0A94EAF7922F1D
:102C4000909549234083E091DF12F091E0123081AA
:102C5000322B308329E22A95F1F700C0882339F01E
:102C6000E091DF12F091E01280818923808385EE6C
:102C70008A95F1F70000E091DF12F091E012808177
:102C80008923808378940895F894E091D912F09183
:102C9000DA12908121E030E0082E01C0220F0A9460
:102CA000EAF7322F309593239083E091DF12F09171
:102CB000E0129081922B908395E19A95F1F7E09143
:102CC000DF12F091E01290819323908395E29A9520
:102CD000F1F700C0E091D513F091D613208190ED6B
:102CE0009A95F1F70000789430E002C03595279569
:102CF0008A95E2F7822F817008951F93CF93DF9317
:102D0000D82F162FC9E0C15031F0612F8D2F81705F
:102D100089DFD695F8CFDF91CF911F9108951F934A
:102D2000CF93DF93182FD9E0C0E0D15049F0812F25
:102D3000ABDF20E8829FC0011124C695C82BF5CFD8
:102D40008C2FDF91CF911F910895EF92FF920F93F7
:102D50001F93CF93DF93182FF62EEA01E22E2DDF7B
:102D6000811163C0612FF11003C08CECC6DF09C074
:102D700085E5C3DF00E0612F8991BFDF0F5F083079
:102D8000D1F7612F8EEBB9DF812FC9DFC82F812FDB
:102D9000C6DFD82FF11012C0812F0FDF612F8CEC0E
:102DA000ACDF612F84E4A9DFEE2DF0E0EE0FFF1F12
:102DB000EF5AFB4E2BE930E031832083E091DF12A4
:102DC000F091E012908121E030E0012E01C0220F4D
:102DD0000A94EAF7922B9083E091D912F091DA12DB
:102DE0009081922B9083EC2FE295EF702D2F27701E
:102DF00080E1289F90011124E22BCF7041E752E03F
:102E0000C49FC001C59F900D1124D7FF03C0EF5789
:102E10008051974264E670E00E94F1C2CB0124E643
:102E2000E202800D911D112402C088EC92E3CDB71F
:102E3000DEB7E6E00C948FC398E02CE8362F3827F5
:102E4000869530FD822766959150C1F70895A1E0DF
:102E5000B0E0EDE2F7E10C9471C3F82E6983ADDECA
:102E60006981662301F16F2D85E547DF6F2D8AE3C8
:102E700044DF6AE380E0E0DFE82E53EBC52E51E14A
:102E8000D52E86016F2DF60181916F0136DFF80195
:102E900060818E2DD1DFE82EF9EBCF16F1E1DF0650
:102EA00081F76F2D02C06F2D8CEC27DF6F2D85EF22
:102EB00024DF04E08F2D33DF182F1F7082958F7071
:102EC000482F50E0212F30E0209530952F70332788
:102ED0004217530711F400E003C0015059F70FEFF8
:102EE0008F2D6BDE0F3F09F41FEF812F2196E8E055
:102EF0000C948DC3A0E0B0E0E0E8F7E10C946FC360
:102F0000F82EB42E862F8C6FE82E64E0D62EA82ED5
:102F1000A0948F2D52DE6F2DBB20D1F085E5EDDE24
:102F20006F2D8AE3EADE6AE380E086DFC82EC3EB1A
:102F3000D1E18E016F2D8991E0DEF80160818C2D49
:102F40007BDFC82EF1E1C93BDF0799F76F2D01C088
:102F50008CECD3DE6F2D8AE5D0DE6F2D8E2DCDDE8D
:102F60006F2D8A2DCADE8F2DDADEC82F8F2DD7DE8A
:102F7000CA3A19F0DA9409F0CCCF8F2D1EDECDB706
:102F8000DEB7EAE00C948BC349E254E160E070E004
:102F90008CE39DE00C94A3A6DC012C912F3229F543
:102FA000FC01319680E0BF019191903231F09F3267
:102FB00021F0BF018F5F8630B1F790E0681B790B7D
:102FC000E6E5F2E1DF010D900020E9F7AD014150A7
:102FD0005109465552414817590739F4CF010E940B
:102FE000BBC6892B11F481E008958FEF08958234D8
:102FF000A1F4673019F48CE890E01FC0663019F432
:103000008AE890E01AC0653019F488E890E015C0AD
:103010006430B9F483EB90E010C0853491F46330F0
:1030200019F488E990E009C0643019F48AE990E065
:1030300004C0653031F48CE990E090937113809373
:1030400070130895863419F481E390E01DC085342F
:1030500019F48EE290E018C0823419F485E290E011
:1030600013C0873419F484E390E00EC0843419F45B
:103070008BE290E009C0813419F482E290E004C050
:10308000833431F488E290E09093D9138093D8137D
:103090000895863479F481E390E09093DA12809376
:1030A000D91280E390E09093E0128093DF128FE2D8
:1030B00090E065C0853479F48EE290E09093DA1266
:1030C0008093D9128DE290E09093E0128093DF120A
:1030D0008CE290E054C0823479F485E290E09093E1
:1030E000DA128093D91284E290E09093E0128093F8
:1030F000DF1283E290E043C0873479F484E390E008
:103100009093DA128093D91283E390E09093E012C7
:103110008093DF1282E390E032C0843479F48BE252
:1031200090E09093DA128093D9128AE290E0909323
:10313000E0128093DF1289E290E021C0813479F4BB
:1031400082E290E09093DA128093D91281E290E0CB
:103150009093E0128093DF1280E290E010C08334FD
:1031600091F488E290E09093DA128093D91287E28A
:1031700090E09093E0128093DF1286E290E09093CB
:10318000D6138093D5130895A1E0B0E0EAECF8E1FE
:103190000C9476C3182F862F49837BDF4981113326
:1031A00019F4842F8EDA0EC0E091DF12F091E01254
:1031B000808121E030E001C0220F4A95EAF7209596
:1031C000282320832196E3E00C9492C3CF93C82F49
:1031D000833038F58091200235DFC13089F4E091E9
:1031E000D813F091D913208181E090E00090A409D8
:1031F00002C0880F991F0A94E2F7282B208328C069
:10320000C23079F4E091D813F091D913208181E094
:1032100090E00090A40902C0880F991F0A94E2F779
:1032200014C0C33011F45CDA13C0C43089F4E091E7
:10323000D912F091DA12208181E090E000901E0214
:1032400002C0880F991F0A94E2F780958223808339
:10325000CF910895CF93C82F80911F021ADFC130FC
:1032600079F4C091A4098091200213DF8C2F29DA10
:10327000C0911E0280911F020CDF8C2F22DA15C034
:10328000C23061F0C43079F4C0911E0280911F02F7
:1032900000DF8C2F16DA24DA81E098DF84E096DFF5
:1032A00082E094DF05C084E091DF81E08FDF18DAEF
:1032B000CF910895EF92FF920F931F93CF93DF93D7
:1032C000E82E80911F02E5DEC7E0D0E0F12C01E09E
:1032D00010E022E32A95F1F7E091D912F091DA1289
:1032E00080911E0297010C2E02C0359527950A94F5
:1032F000E2F720FF0AC02081A80102C0440F551F39
:103300008A95E2F7242B20830BC02081A80102C0FC
:10331000440F551F8A95E2F7CA0180958223808366
:1033200081E054DF82E052DF84E050DF219788F6AD
:1033300040911E0260911F0280E326DF81E046DF9C
:10334000E091D513F091D613808190E000901E0299
:1033500002C0959587950A94E2F78170992721E03C
:103360008227C82FC17082E031DF84E02FDFD09147
:103370001E0280911F028DDE8D2FA3D98C2FCDB719
:10338000DEB7E6E00C948FC3EF92FF920F931F938A
:10339000CF93DF93E82E40911E0260911F0280E3DD
:1033A000F3DE80911F0275DE82E010DFC7E0D0E01F
:1033B000F12C01E010E081E009DFE091D513F091FC
:1033C000D613208130E000901E0202C0359527956B
:1033D0000A94E2F720FD09C098010C2E01C0220FCB
:1033E0000A94EAF72095F22207C098010C2E01C03A
:1033F000220F0A94EAF7F22A82E0E8DE2197D8F653
:10340000C0911E0280911F0244DE8C2F5AD981E0A8
:10341000DDDE81E0E81202C063D902C084E0D6DEBE
:1034200082E0D4DE40911E0260911F0280E3ACDE98
:103430008F2DCDB7DEB7E6E00C948FC31F93CF93EB
:10344000DF93182FEB0181E005DF82E003DF80E8E6
:1034500031DF812F2FDF8C2F2DDF8D2F2BDF83E0AE
:10346000F9DEDF91CF911F910895CF93DF93C82F9D
:1034700081E0F0DE82E0EEDE80E81CDF8C2F1ADFD8
:1034800083E0E8DE82E0E6DE81E814DF80E07CDFD6
:10349000C82F81E079DFD82F83E0DCDE2D2F30E0EC
:1034A000922F88278C0F911DDF91CF910895A0E076
:1034B000B0E0EDE5FAE10C946FC3B82EBCEFCB2E73
:1034C000BCE0DB2E07E212E0C0E0D0E0E82EF12CF9
:1034D000C7018856944F7C01F60181916F018130BC
:1034E00051F121960E5F1F4FC732D105A9F7EB2D81
:1034F000F0E0EE0FFF1FE95DFD4F0190F081E02D40
:10350000C191C093D413CF010E9437C68093A709FD
:103510008C2FBFDDE091D912F091DA12208181E089
:1035200090E00090A70902C0880F991F0A94E2F763
:10353000282B20832AC0DE01A255B34F8C91833003
:1035400081F6DE01A856B44F9C91F7018081981353
:10355000C8CFF801A081B181AD90A092D413CD0164
:103560000E9437C68093A7098A2D93DDA091D912B6
:10357000B091DA122C9130E00090A70902C0359585
:1035800027950A94E2F720FFACCFCDB7DEB7EAE08B
:103590000C948BC3A0E0B0E0E0EDFAE10C946FC3B3
:1035A0009B01482FB42E311104C0842F942FA42FD7
:1035B0007AC0062F10E0C32FD0E0E42EF12CC80112
:1035C0006BE270E00E94DDC255ED5603F001579F9B
:1035D000F00D1124E00FF11F86E08E9F80018F9F78
:1035E000100D1124EFEFF0E06F01CC1ADD0AD701C6
:1035F000CA9EC001CB9E900DDA9E900D1124892F9A
:103600009927582F0C9F70010D9FF00C1C9FF00CF8
:103610001124EF2CFF246F01CE18DF08CA9E700121
:10362000CB9EF00CDA9EF00C1124CF2CDD24AC2CB8
:103630007F01E01AF10AEC9E8001ED9E100DFC9EC8
:10364000100D1124012F1127E01BF10BEA9FE0015F
:10365000EB9FD00DFA9FD00D1124ED2FFF27623084
:103660007105A9F03CF46115710571F061307105C7
:10367000C1F014C06330710569F06430710571F4F4
:10368000B82E542FAE2E0DC0A42EBE2E0AC0A82ECA
:103690005E2F07C0A82E542FBC2C03C0A42EB82E1A
:1036A0005C2DC501A52FBC018A2FCDB7DEB7EAE09E
:1036B0000C948BC3ABE3B0E0E0E6FBE10C9467C392
:1036C0002C016BA74AAB222E86E496E4A0E08E8BF9
:1036D0009F8BA88F8B8B9C8BAD8B888B998BAA8BA8
:1036E00023E02DA31F8E1AA2262F30E03AA729A788
:1036F000220F331F3CAB2BAB2E5E334F3FAB2EABB9
:1037000089A59AA5879747E1489F9001499F300D69
:103710001124215C3E4F3DA72CA789A59AA58D9722
:10372000489F9001499F300D1124265F3F4F3FA7CE
:103730002EA710927A139E01295F3F4F3E8F2D8F47
:10374000D0907A13ED2CF12CF20101900020E9F7D2
:103750003197E419F509EE16FF0610F00C94552583
:10376000F201EE0DFF1D20812A3051F486E48E8B8C
:103770008F8B1C868B8B8C8B1F8E1AA20C944725EB
:103780002A3311F02D3329F43F8D333011F00C948E
:1037900035252B3311F40C943725203711F40C9474
:1037A0003925213611F40C943B25253611F40C945F
:1037B0003D25273611F40C944025223709F051C0DD
:1037C0001F82188619861A86D2011196FE01379635
:1037D000CE010A962D9130ED320F3A3060F0CE01D5
:1037E00007960E9437C6A9A5BAA5A45CB44F9C91C0
:1037F000981730F026C02193E817F90759F7EFCF53
:103800009F5F9C933BA5373268F447E129A53AA511
:10381000429FB001439F700D1124605E794F47E1D4
:1038200050E00AC03BA547E150E03D3218F06EA5DC
:103830007FA502C06CA57DA5C2010E9482C91AAAFB
:1038400078CFED8DFE8D01900020E9F731972D8D19
:103850003E8DE21BF30BDE0ED0927A131C920C9479
:103860004725233709F051C00CEF1CE069EDA62E67
:1038700061E0B62E77E2C72E72E0D72EEEEAEE2E8A
:10388000ECE0FE2ED8018D918D01813071F5F601AD
:1038900080819181DC017D90CD010E9437C64C0171
:1038A000682F872DA4DB872DF4DBF7018081813021
:1038B00049F4E0917013F09171136081718161504E
:1038C00080F413C0E091D912F091DA12808190E077
:1038D000082C02C0959587950A94E2F780FF05C0F1
:1038E00060E070E0C5010E94B6C9F2E0AF0EB11C05
:1038F00022E0C20ED11C3FEFE31AF30A4DE003327F
:10390000140709F0BFCF0C944725213411F40C940F
:103910004325223411F40C9445252C3711F40C94D2
:1039200055252E3709F452C0822F877F833209F440
:103930004DC02D3211F40C944E253F8D311109C02C
:103940008E89863419F02F8B0C9447252E8B0C947E
:1039500047253F8D373049F48B89863419F02C8BFD
:103960000C9447252B8B0C9447253F8D383049F418
:103970008889863419F0298B0C944725288B0C9460
:1039800047253F8D313021F58E89833531F5203340
:1039900019F41092531209C0223321F4809153126A
:1039A0008130B9F381E08093531289EF9FE00E9448
:1039B00092C960915312861721F089EF9FE00E940F
:1039C000A8C986E48E8B8F8B0C94472535E03F8FFA
:1039D0008F8D8450833008F00BC78F89863409F4AB
:1039E0001F8ACE0146962BAF0E9437C65C01882EF7
:1039F000482F552747FD509559A348A38A01000F2A
:103A0000111FF801E95DFD4F80819181DC019D90DE
:103A1000CD010E9437C63C012BAD2E3749F4F80189
:103A2000EE53F54F80819181029741F436E007C053
:103A3000233231F4F701EE0FFF1FF2CF35E03F8F55
:103A400048A159A14450534F7A01DA018C918F3F1C
:103A5000E9F4F801EF5AFB4E80819181AC015527C2
:103A60005A8F498F892F99279C8F8B8FCE012E37A4
:103A700011F4499601C04B96909371138093701383
:103A8000892D07DB862D0E94611303C0662D892DC9
:103A9000AEDA892DFEDA30907A136201C30CD11CA4
:103AA000F6013081E8A1F9A1E154F44F3E3529F443
:103AB0008081811109C081E06EC6363739F480817A
:103AC000811102C082E067C6108266C63837B1F441
:103AD000108286E48E8B8F8BE8A1F9A1EE0FFF1F79
:103AE000EE0FFF1FEA51F64F1082118212821382ED
:103AF000E8A1F9A1E155F64F108254C6262D108297
:103B0000E8A1F9A1E255F34F4081413021F4D701FA
:103B10008C91813029F0F70180818F3F09F0BBC281
:103B200081E0830D90E0F20101900020E9F73197E8
:103B3000E419F5098E179F0758F4F201E80FF91FF1
:103B4000808196EC980F923018F08D3309F095C271
:103B5000FAA18F2F90E0ECE0F0E0EC0FFD1FE80FF2
:103B6000F91F3083FE01E80FF91F158632E4931622
:103B700041F045E4941629F0D7018C918F3F09F06C
:103B8000F4C0CE010C962BAF0E9437C6F801EE5E52
:103B9000F34F91838083A0907013B09071132BAD7D
:103BA0003F8D343039F4D5018D919C91892B11F0E2
:103BB00011821082C801865D9D4F2BAF0E949AC969
:103BC000F801E05AF34F918380832BAD3F8D353060
:103BD00008F4B5C0EBA9FCA9EE5EF34F808191819A
:103BE000E9A5FAA5E155F64F0097B9F58081811155
:103BF0008FC0D6013C91333259F40E94E7C36FEF76
:103C000070E00E94F1C2F501918380832BADADC0BD
:103C1000D5018D919C91892B11F03E3719F03F8D84
:103C2000353039F0D50111961C921E9281E090E05A
:103C300010C0E8A1F9A1E155F64F8081811102C0C1
:103C40008FEF8083808190E0F5019183808382E013
:103C500090E0F801EE53F54F86C0019709F06DC072
:103C60003F8D353061F4D5018D919C9111978F3F37
:103C70009105A8F48D919C91119701960DC03F8DEF
:103C8000363069F4D5018D919C911197892B39F0CB
:103C90008D919C911197019711969C938E9381E041
:103CA000808383E090E0EEA9FFA991838083D70110
:103CB0008C918F3F49F5F6018081833229F53F8D44
:103CC000353081F4D5018D919C918F3F910509F09C
:103CD0004CC0E32DF0E0EE0FFF1FEE53F54F82E0F6
:103CE00090E041C03F8D363009F03FC0D5018D9145
:103CF0009C91892BD1F5E32DF0E0EE0FFF1FEE53E1
:103D0000F54F81E090E02FC0F5018081918123C0C3
:103D1000813099F4D6018C91833279F0D801AE5379
:103D2000B54F8D919C911197029718F482E090E025
:103D300002C081E090E08D939C93108216C0F80140
:103D4000009779F4EE5EF34F80819181D501119651
:103D50009C938E938081E8A1F9A1E155F64F808371
:103D600004C0E351FD4E9183808380917A13F20168
:103D7000E80FF11D8081E0917013F091711383328F
:103D800041F4808191818EA3BFEFBFA3E98DE8A7A5
:103D900007C03B8D3EA34FEF4FA38081918188A741
:103DA0006EA17FA188A52BAFF5DBA82FCB018F8358
:103DB0009887A987F89481E090E0062C01C0880FCD
:103DC0000A94EAF7382FF82EF09464E670E02BADF1
:103DD00080E090E047E050E0E7E0CE2ED12CCC0E22
:103DE000DD1EC80ED91EF601A081B0E0042E02C06F
:103DF000B595A7950A94E2F7E091D912F091DA12FD
:103E0000A0FF0BC0A081A32BA083E091D912F09159
:103E1000DA12A081AF21A083F8C0E232F10559F592
:103E2000211104C0109A00001098EFC0213021F435
:103E3000119A00001198E9C0223021F4129A000072
:103E40001298E3C0233021F4139A00001398DDC0C8
:103E5000243021F4149A00001498D7C0253021F49E
:103E6000159A00001598D1C0263009F0CEC0169AD8
:103E700000001698CAC0E532F105C9F4243021F4D7
:103E80002C9A00002C98C1C0253021F42D9A0000F6
:103E90002D98BBC0263021F42E9A00002E98B5C074
:103EA000273009F0B2C02F9A00002F98AEC0EB3235
:103EB000F10589F5211104C0589A00005898A5C051
:103EC000213021F4599A000059989FC0223021F4E2
:103ED0005A9A00005A9899C0233021F45B9A000046
:103EE0005B9893C0243021F45C9A00005C988DC0EC
:103EF000253021F45D9A00005D9887C0263021F4BA
:103F00005E9A00005E9881C0273009F07EC05F9AFB
:103F100000005F987AC0EE32F10589F5211104C0E6
:103F2000709A0000709871C0213021F4719A0000DD
:103F300071986BC0223021F4729A0000729865C0AB
:103F4000233021F4739A000073985FC0243021F469
:103F5000749A0000749859C0253021F4759A0000B5
:103F6000759853C0263021F4769A000076984DC09B
:103F7000273009F04AC0779A0000779846C0E133AD
:103F8000F10581F5211104C0889A000088983DC090
:103F9000213021F4899A0000899837C0223021F419
:103FA0008A9A00008A9831C0233021F48B9A00004D
:103FB0008B982BC0243021F48C9A00008C9825C05B
:103FC000253021F48D9A00008D981FC0263021F4F1
:103FD0008E9A00008E9819C02730B9F48F9A00008D
:103FE0008F9813C0F49789F4233021F4A39A00002A
:103FF000A3980BC0243021F4A49A0000A49805C013
:10400000253019F4A59A0000A5984150510908F0EF
:10401000EACE01968330910509F0DCCE615071093A
:104020006115710509F0D4CE789480917A13F2016C
:10403000E80FF11D8081E0917013F09171138E37BC
:1040400029F4808191819A8F898F04C08081918128
:104050009C8F8B8FF801EF5AFB4E8B8D9C8D982F88
:104060008827298D3A8D820F931F9183808386E460
:104070008E8B8F8B1C861AA295C33A3209F490C39B
:10408000ECE0F0E0EC0FFD1F2AA1E20FF11D308300
:104090002F5F2AA387C39889963409F42FC1CE01D4
:1040A00040960E9437C68DAB4CEF5CE059AB48ABF5
:1040B00024E833E13CA32BA32EEA3CE0BDEE8B2E9B
:1040C000B2E19B2E02E11CE0A12CB12CC12CD12C21
:1040D00041E050E066246A94712CA8A9B9A98D9199
:1040E000B9ABA8AB813009F0E7C0F601E856F44F50
:1040F0008081BDA98B13E0C0F501E95DFD4F808192
:104100009181FC013190CF012BAF38AF49AF5AAF4D
:104110000E9437C67C01832D0E9449186E2D832D85
:104120000E94F717C501865D9D4F0E949AC9F5014F
:10413000E05AF34F918380832BAD38ADD9017C9148
:1041400049AD5AAD713049F4E0917013F09171139B
:104150000190F081E02D6E2F0EC0E091D912F09108
:10416000DA12E081F0E00E2C02C0F595E7950A9492
:10417000E2F76E2F6170E0917A13D201AE0FB11D9C
:10418000FD01E081E13351F0E33321F4B1E02B1282
:104190001FC004C0E433C9F421101DC0713041F4C4
:1041A000009709F058C0E0917013F091711346C068
:1041B000E091D912F091DA127081CA010E2C01C07F
:1041C000880F0A94EAF7782B56C0E03331F506C021
:1041D000222021F051C0B1E02B124EC0713071F499
:1041E000009729F4E0917013F091711324C0F80145
:1041F00011821082D4018D939C933EC0E091D9121C
:10420000F091DA127081CA010E2C01C0880F0A9455
:10421000EAF78095872380832FC0E23369F57130F8
:10422000F1F4009771F4E0917013F09171138081B3
:104230009181892B19F0118210821EC071826082D7
:104240001BC0D801ED91FC9111971E161F061CF49E
:104250001D921C92CFCFF80171826082CBCFE0918A
:10426000D912F091DA127081CA010E2C01C0880FA8
:104270000A94EAF778277083F9018081813039F454
:10428000E0917013F0917113808191810CC0E091E5
:10429000D912F091DA12808190E002C0959587954D
:1042A000EA94E2F78170861739F0F601E35EF64F83
:1042B00081E0808380934409ABA1BCA18C918436BA
:1042C00010F48C598C93BFEFCB1ADB0AEBA1FCA145
:1042D0003196FCA3EBA32F5F3F4FF2E08F0E911CB2
:1042E00082E0A80EB11C0E5F1F4F97E2C916D104E1
:1042F00009F0F3CE86E4888B898B4EC2423009F0F8
:104300004DC02DA1233009F449C06091B311862D11
:104310000E942717682F66956B7F80917A13F201B0
:10432000E80FF11D8081813351F0833321F431E0B6
:1043300023121FC004C0843369F421101DC021E082
:1043400030E00DA002C0220F331F0A94E2F720953F
:1043500062231EC0823351F421E030E00DA002C080
:10436000220F331F0A94E2F7622712C0803381F4D0
:1043700006C0222021F00CC041E0241209C021E037
:1043800030E00DA002C0220F331F0A94E2F7622B27
:104390004091B311862D0E947A17FEC1843009F036
:1043A00073C1E8A1F9A1EB52F34F8081853109F087
:1043B0004BC085E0AD8DBE8D1D928A95E9F7CE018B
:1043C00043960E9437C67C0140E0232D30E0842FC5
:1043D00090E0F201E80FF91FE20FF31F50815B3309
:1043E00011F0511128C03A94340E30927A13909201
:1043F0001F0260921E02F801E05AF34F0190F08113
:10440000E02DEE0FFF1FE95DFD4F80819181FC01E2
:104410002191CF01209320020E9437C68093A409E6
:10442000CE0107960E9437C6BC018E2D880F880FDB
:10443000885F04D899C0E7E0F0E0EC0FFD1FE80FBB
:10444000F91F50834F5FC3CF843109F091C0CE0173
:1044500043960E9437C67C0190921F0260921E0212
:10446000F801E05AF34F0190F081E02DEE0FFF1FAD
:10447000E95DFD4F80819181DC012D91CD0120937B
:1044800020020E9437C68093A40981E00E942A1965
:1044900082E00E942A1980E40E945A19E8A1F9A139
:1044A000E856F44F8081813041F4B7E0BE1528F41E
:1044B00089E10E945A1918E004C089E00E945A1943
:1044C00010E083E00E942A1982E00E942A1981E408
:1044D0000E945A1981E00E94C419082F83E00E94AB
:1044E0002A1980917A13F201E80FF11D2081FF242F
:1044F000812F90E0E81AF90A213351F421E030E0ED
:104500000E2C01C0220F0A94EAF7F02EF22A16C0F0
:10451000223351F421E030E00E2C01C0220F0A9426
:10452000EAF7F02EF2260AC021E030E00E2C01C09E
:10453000220F0A94EAF7F22EF094F02281E00E9412
:104540002A1982E00E942A1980E40E945A19112334
:1045500011F089E101C089E00E945A198F2D0E9453
:104560005A1983E00E942A1986E48B8B8C8B14C124
:10457000843009F089C0E6E28E120BC083E4809398
:1045800020021092A40980931F0281E080931E02F2
:1045900019C090921F0260921E02F801E05AF34F78
:1045A0000190F081E02DEE0FFF1FE95DFD4F80814E
:1045B0009181DC012D91CD01209320020E9437C60C
:1045C0008093A40981E00E942A1982E00E942A199E
:1045D00020917A13FE013C9680E090E0A201420F08
:1045E000511D9A01582FD901A80FB91F4C914B3377
:1045F00041F0442331F0419301968330910591F7C6
:1046000053E0ECE0F0E0EC0FFD1FE50FF11D108230
:10461000CE010C960E9437C6182F8230A1F489E78C
:104620000E945A1981E00E94C419082F83E00E9459
:104630002A1911E0033009F410E081E00E942A19E0
:1046400082E00E942A1988E70E945A1980E00E949D
:104650005A19113011F48FEA0AC0111102C08EEA02
:1046600006C01F3F31F081E80E945A19812F0E9435
:104670005A1982E00E942A1981E08093760B1092E9
:10468000740B1092730B88C0E091D912F091DA127A
:104690008081772467FC709490E0062C02C0959589
:1046A00087950A94E2F7182F1170313351F03333A4
:1046B00021F451E025121BC004C03433A9F42110A9
:1046C00019C0433039F4A8A1B9A1A856B44F8C91B0
:1046D0008F3FA1F5208181E090E0062C01C0880F7A
:1046E0000A94EAF7282B37C0303399F406C0222009
:1046F00021F032C081E028122FC0208181E090E0BB
:10470000062C01C0880F0A94EAF7809582238083E3
:1047100023C0323309F54330A9F4A8A1B9A1A856A2
:10472000B44F8C918F3F71F0808190E0062C02C0D5
:10473000959587950A94E2F780FD04C08A2D0E9422
:10474000571A0AC0208181E090E0062C01C0880F32
:104750000A94EAF728272083E091D912F091DA121F
:10476000808190E0062C02C0959587950A94E2F727
:104770008170811741F081E0E8A1F9A1E35EF64F75
:10478000808380934409E8A1F9A1EC57FC4E808115
:10479000843610F48C59808386E48E8B8F8B02C014
:1047A00024E02F8FE8A1F9A1E154F44F808118167D
:1047B0000CF06DC140917A13F201E40FF11D81817B
:1047C00090ED980F28A139A1220F331FF901EE5E59
:1047D000F34F9A3050F4992787FD9095C0979183B5
:1047E00080834F5F40937A1352C1118210824FC170
:1047F0003F8D323009F056C03AA1832F90E08E01F0
:104800000F5F1F4FF801E80FF91F2083FE01E80F2B
:10481000F91F12823F5F3AA381E08D0D90E0F20113
:1048200001900020E9F73197E419F5098E179F07E9
:1048300058F4F201E80FF91F808196EC980F92303E
:1048400018F08D3309F023C1B2E0FB2EFD0C3AA91C
:10485000F30E46E14F1508F41AC13BA5C32ED12C27
:104860004AE050E060E070E0C8010E9426C59B016C
:10487000AC01F601EE0FFF1FEE0FFF1FEA51F64FDE
:10488000A4E1B0E00E9457C3608371838283938365
:10489000F601E155F64FF08285E0D8011D928A9528
:1048A000E9F703C12F8D233009F0F1C0D394D092E2
:1048B0007A1327E232E039A328A32CEF3CE03CA393
:1048C0002BA344E8A42E43E1B42E58E9C52E5BE0A7
:1048D000D52E00E010E088248394912C73E0372ECD
:1048E000A8A1B9A16D907D90B9A3A8A3C301019619
:1048F0000E9437C67C01F30180810E944918ABA158
:10490000BCA18D91BCA3ABA3813009F0A1C0F8017B
:10491000E255F34F808190917A13F201E90FF11D76
:104920008230D1F48081813309F4BBC0803309F433
:10493000BAC0823309F08CC060E08E2D0E94271728
:10494000682F66956B7F6325643008F081C040E076
:104950008E2D0E947A177CC0813031F580818033A2
:1049600029F4E0917013F091711316C0813349F46A
:10497000E0917013F09171132FEF30E031832083B9
:1049800067C0823309F064C0E0917013F091711335
:1049900080819181892B19F01182108259C04FEFCB
:1049A00050E05183408354C09081913399F4833017
:1049B00021F4D6018C918F3FC1F5E091D912F0918D
:1049C000DA128081940102C0220F331FEA94E2F7C9
:1049D000822B37C0903381F4E091D912F091DA1232
:1049E0008081A40102C0440F551FEA94E2F77A01C6
:1049F000E094E822E08226C0923321F5E091D912BA
:104A0000F091DA12FF24E7FCF094833091F4D601A0
:104A10008C918F3F71F0808190E00E2C02C09595B3
:104A200087950A94E2F780FD04C0802F0E94571AF0
:104A300009C08081940102C0220F331FEA94E2F77B
:104A400082278083D5018C91843610F48C598C9305
:104A50000F5F1F4FBFEFAB1ABB0AEFEFCE1ADE0A94
:104A60000632110509F03CCF12C021E00AC01F8EAA
:104A70000EC032E003C023E004C037E03F8F07C020
:104A800028E02F8F04C01DA202C031E03DA3809119
:104A90007A138F5F80937A130C94A01B36E00C94EA
:104AA000E71C60E054CF63E052CFEB96E2E10C9458
:104AB00083C3AFE1B0E0EFE5F5E20C9472C3322FAF
:104AC000273240F4E22FF0E0EE0FFF1FEE53F54FD8
:104AD00011821082DE0111967D015E96F70111921E
:104AE000EA17FB07E1F7032F10E0373210F02FEF42
:104AF00017C0F801E450F34F2081233081F4F8010E
:104B0000EB52F34F2081243051F4F801EE0FFF1FD8
:104B1000E351FD4E0190F081E02DEF2B41F321E0B8
:104B200020932502F801E757FE4E208121FF05C0A2
:104B3000883C910509F0B1C0B3C0883C910509F0EB
:104B400058C0645C724FFB0120E0D12CDF01A61B32
:104B5000B70BCA014D3D510510F08CED90E0A81740
:104B6000B90700F581918D3011F08A3039F4223087
:104B700039F080818A3051F72F5FE8CF223081F4FD
:104B80008F3E49F0982F9B7F9B3B29F0D701AD0DBD
:104B9000B11D8C93D394BCE1BD1520F022E0D6CF9B
:104BA00020E0D4CFF701ED0DF11D1082898188231B
:104BB00001F18A818436E9F0F70101900020E9F7DC
:104BC0003197D701AE17BF0769F08D918D7F803780
:104BD000C9F7B70187E79BE00E94B4C623E040E035
:104BE0006CE203C023E040E064E6C7010E945A1B68
:104BF00057C0F801E255F34F8081811107C0F801D9
:104C0000EA51F44F80818F3F61F414C0823039F44F
:104C1000F801EA51F44F80818E3F19F40BC08130C6
:104C200049F0F801E450F34F8081811103C08A817B
:104C30008436B1F53732A0F5F801E450F34F8081A6
:104C4000833029F081E0F801E154F44F808380E360
:104C5000E0E4F3E1DF011D928A95E9F727E1209F67
:104C6000B001219F700D1124605E794F47E150E043
:104C7000CF013F8F0E9482C9809140138F5F3F8D8B
:104C8000823058F0F801EA51F44F20812E5F40E065
:104C9000632F80E493E10E945A1B82E080932502F7
:104CA0006F96E7E00C948EC3A1E0B0E0EAE5F6E28F
:104CB0000C946DC3482F082F10E0B8016255734F54
:104CC0007B01DB018C914801880C991C813099F59E
:104CD0004E3118F089E290E002C08CE290E09093AF
:104CE000D6138093D513F401E95DFD4F8081918146
:104CF00001960E9437C68093A709F401E05AF34F4A
:104D0000C080D180F601EE0FFF1FE95DFD4F80816D
:104D1000918101960E9437C6B82EBEE1CB16D10410
:104D20001CF089E290E002C08CE290E09093811345
:104D30008093801339C0F401E95DFD4F808191813A
:104D4000019649830E9437C6B82E49814E3138F00A
:104D500089E290E0909381138093801306C02CE247
:104D600030E03093811320938013F401E05AF34F25
:104D70000190F081E02DEE0FFF1FE95DFD4FC08037
:104D8000D180C60101960E9437C68093A709F6011B
:104D90008081843419F429E230E002C02CE230E052
:104DA0003093D6132093D5131092B9111092BA11E3
:104DB0001092BB111092BC111092BD111092BE1135
:104DC00021E030E002C0220F331FBA94E2F7B12C89
:104DD000C12C78E0D72E40E050E0B0E081E090E0D8
:104DE000F4E0FA95F1F700004F5F5F4F483765E058
:104DF000560779F4BA3108F089C0BB0CBB0CBB0C68
:104E00008091B911829586958770B82AB092B911B0
:104E10007DC0E091D513F091D6136081A091A709D0
:104E200070E00A2E02C0759567950A94E2F760FD5E
:104E30001EC0AA24A394AB0EB150B83108F4DA9482
:104E4000AC0102C0440F551FAA95E2F7DA0164ECE9
:104E500079E0408150E04A235B23452B09F04BC0A9
:104E60006150710961157105A1F781E082C0E0917F
:104E70008013F0918113608170E062237323672BAC
:104E8000E9F5AA24A394AB0EB1504C2D50E0B831F3
:104E900080F46FEF6D0DDC0102C0AA0FBB1F6A9595
:104EA000E2F7BD01DA01A754BE4E7C91762B7C93CC
:104EB000DA94DA01A454BE4E4FEF4D0DBC0102C08E
:104EC000660F771F4A95E2F7AB015C91542B5C9318
:104ED00071E0A71202C0BB24B39464EC79E0408176
:104EE00050E042235323452B31F461507109611581
:104EF0007105A9F7BACFBA2D40E050E0D11003C038
:104F0000C39468E0D62EBA3208F46ACF8BEE8B0FCA
:104F1000853068F48091BC118093B9118091BD11E6
:104F20008093BA118091BE118093BB110AC0B43036
:104F300030F48091B91186958093B91104C0B530D1
:104F400010F083E001C081E08093BC11D7018C9107
:104F5000813021F4F801EA51F44F09C0F401E05A1C
:104F6000F34F0190F081E02DEA51F44F81E080830E
:104F700080E02196ECE00C9489C31F920F920FB64B
:104F80000F9211240BB60F922F933F934F935F9381
:104F90006F937F938F939F93AF93BF93EF93FF9301
:104FA000F8948EE181DE8111E8987894FF91EF9179
:104FB000BF91AF919F918F917F916F915F914F9131
:104FC0003F912F910F900BBE0F900FBE0F901F902F
:104FD00018951F920F920FB60F9211240BB60F92D5
:104FE0002F933F934F935F936F937F938F939F93F1
:104FF000AF93BF93EF93FF93F8948FE155DE811148
:10500000E9987894FF91EF91BF91AF919F918F9123
:105010007F916F915F914F913F912F910F900BBEB8
:105020000F900FBE0F901F9018951F920F920FB602
:105030000F9211240BB60F922F933F934F935F93D0
:105040006F937F938F939F93AF93BF93EF93FF9350
:10505000F89480E229DE8111EA987894FF91EF912B
:10506000BF91AF919F918F917F916F915F914F9180
:105070003F912F910F900BBE0F900FBE0F901F907E
:1050800018951F920F920FB60F9211240BB60F9224
:105090002F933F934F935F936F937F938F939F9340
:1050A000AF93BF93EF93FF93F89481E2FDDD8111FD
:1050B000EB987894FF91EF91BF91AF919F918F9171
:1050C0007F916F915F914F913F912F910F900BBE08
:1050D0000F900FBE0F901F9018951F920F920FB652
:1050E0000F9211240BB60F922F933F934F935F9320
:1050F0006F937F938F939F93AF93BF93EF93FF93A0
:10510000F8948BE1D1DD8111EC987894FF91EF91C7
:10511000BF91AF919F918F917F916F915F914F91CF
:105120003F912F910F900BBE0F900FBE0F901F90CD
:1051300018951F920F920FB60F9211240BB60F9273
:105140002F933F934F935F936F937F938F939F938F
:10515000AF93BF93EF93FF93F89489E1A5DD81119D
:10516000ED987894FF91EF91BF91AF919F918F91BE
:105170007F916F915F914F913F912F910F900BBE57
:105180000F900FBE0F901F9018951F920F920FB6A1
:105190000F9211240BB60F922F933F934F935F936F
:1051A0006F937F938F939F93AF93BF93EF93FF93EF
:1051B000F89487E179DD8111EE987894FF91EF9171
:1051C000BF91AF919F918F917F916F915F914F911F
:1051D0003F912F910F900BBE0F900FBE0F901F901D
:1051E00018951F920F920FB60F9211240BB60F92C3
:1051F0002F933F934F935F936F937F938F939F93DF
:10520000AF93BF93EF93FF93F89486E14DDD811147
:10521000EF987894FF91EF91BF91AF919F918F910B
:105220007F916F915F914F913F912F910F900BBEA6
:105230000F900FBE0F901F9018951F920F920FB6F0
:105240000F9211240BB60F922F923F924F925F92C2
:105250006F927F928F929F92AF92BF92CF92DF9286
:10526000EF92FF920F931F932F933F934F935F9370
:105270006F937F938F939F93AF93BF93EF93FF931E
:10528000CF93DF93CDB7DEB72797DEBFCDBF809139
:10529000A3098F5F8093A309883C09F04BC010924B
:1052A000A3098091A2098F5F8093A2099091A1091F
:1052B000923111F09A3251F48E3141F480911C02F6
:1052C0008230C1F181E080931C0234C08C3391F5AF
:1052D0001092A20931E0390F3093A1098091190988
:1052E00090911A09A0911B09B0911C090196A11D6A
:1052F000B11D8093190990931A09A0931B09B093CB
:105300001C0921E020931D023C33A1F41092A10955
:105310008091A0098F5F8093A009883159F4109281
:10532000A00980919F098F5F80939F09883011F4B5
:1053300020939F098091100B813099F48091210274
:1053400090912202A0912302B09124020196A11D06
:10535000B11D8093210290932202A0932302B09367
:10536000240280910D0C90910E0CA0910F0CB09125
:10537000100C83309105A105B10558F00197A109E2
:10538000B10980930D0C90930E0CA0930F0CB09369
:10539000100C8091B1119091B2118230910528F0DA
:1053A00001979093B2118093B1118091CC1190919B
:1053B000CD11009729F001979093CD118093CC11D6
:1053C000809155128F3F69F08091AD099091AE099F
:1053D000813127E2920728F001979093AE098093DC
:1053E000AD092CEF3CE03A83298321E5422E24E1EC
:1053F000522E30E6832E3CE0932E4DEEA42E42E159
:10540000B42E02E11CE056EEC52E59E0D52E62EC1A
:10541000E62E6AE0F62E79E8272E71E1372EE7E2D4
:105420006E2EE2E07E2E1F821E827FEFA981BA815E
:105430002D91BA83A9832F3F09F4D1C0213009F0FF
:105440005EC0EE81FF81E255F34F8081813009F02B
:10545000B6C0F40180819181181619060CF0AFC016
:10546000D5018D919C91009709F4A9C0EE81FF812F
:10547000E154F44F20812111A2C081309105E1F562
:10548000F30120813181C90101962B833C837D8307
:105490000E9437C6682F2B813C81D9018C910E94D4
:1054A000F717E0917013F091711380819181682F4B
:1054B000D8014D915C919C0133277D8124173507DC
:1054C00014F461E004C0421753071CF46FEF680F37
:1054D00003C0D4011D921C92862F90E0918380839B
:1054E000F40180819181D5018D939C93EE81FF81A0
:1054F000E155F64F608363C00197F5015EC0D701A7
:105500008D919C911197009751F101978D939C93E8
:10551000BE81B63241F440910E0B50910F0B452BDA
:1055200011F41092BD12009771F4F101308131FD38
:105530000AC081E090E0A0E0B0E0F60180839183B2
:10554000A283B3830CC0D1013C9131FF08C0803AE3
:10555000910528F470937702F70111821082F60109
:1055600080819181A281B38183309105A105B1052C
:1055700038F00197A109B10980839183A283B38395
:10558000233091F4EE81FF81EB52F34F8081843020
:10559000B1F4D8018D919C911197181619067CF4DD
:1055A00001978D939C930BC0211109C0F801808154
:1055B0009181823091051CF0019791838083D20103
:1055C0008D919C911197009751F0EE81FF81E856E3
:1055D000F44F2081233019F001978D939C932E81F5
:1055E0003F812F5F3F4F3F832E8332E0430E511C9C
:1055F00082E0880E911C92E0A90EB11C0E5F1F4F35
:10560000A4E0CA0ED11CB2E0EB0EF11CEFEF2E1A93
:105610003E0AF2E06F0E711C2E813F812732310568
:1056200009F004CFE2E8FAE080819181A281B381A0
:1056300083309105A105B10538F00197A109B109A1
:1056400080839183A283B38334963AE0E23CF307EC
:1056500059F78FB180953091AB1383279091110248
:1056600098239095909311022091100228232927C6
:105670002093100289238223282F232390917B13C8
:10568000922B90937B1338273093AB138323209175
:105690007513282B209375138CB18095309172135C
:1056A000832790910F029823909590930F02209159
:1056B0000E022823292720930E0289238223282FD4
:1056C000232390917413922B909374133827309363
:1056D000721383232091D313282B2093D31383B1E8
:1056E000809530918213832790910D029823909595
:1056F00090930D0220910C022823292720930C025D
:1057000089238223282F23239091DB13922B9093BC
:10571000DB1338273093821383232091DC13282B4B
:105720002093DC1380B180953091EE138327909104
:105730000B029823909590930B0220910A02282344
:10574000292720930A0289238223282F232390913B
:10575000E312922B9093E31238273093EE138323B6
:1057600020918313282B2093831386B18095309149
:10577000D71383279091090298239095909309025B
:1057800020910802282329272093080289238223B5
:10579000282F23239091DA13922B9093DA13382732
:1057A0003093D71383232091E412282B2093E41203
:1057B00089B180953091E212832790910702982356
:1057C0009095909307022091060228232927209381
:1057D000060289238223282F232390917913922B69
:1057E0009093791338273093E21283232091DD13AD
:1057F000282B2093DD1382B380953091B213832739
:1058000090910502982390959093050220910402AF
:10581000282329272093040289238223282F232346
:1058200090917313922B9093731338273093B21384
:1058300083232091E112282B2093E1128091A60965
:105840008C3021F4A0981092A60905C0882319F085
:105850008F5F8093A60981E08093A80927960FB6F1
:10586000F894DEBF0FBECDBFDF91CF91FF91EF91D6
:10587000BF91AF919F918F917F916F915F914F9168
:105880003F912F911F910F91FF90EF90DF90CF905C
:10589000BF90AF909F908F907F906F905F904F9050
:1058A0003F902F900F900BBE0F900FBE0F901F9048
:1058B0001895F894909175138923982790937513F0
:1058C00078940895F89490917B1389239827909366
:1058D0007B1378940895F8949091D3138923982793
:1058E0009093D31378940895F89490917413892326
:1058F00098279093741378940895F8949091DC13FA
:10590000892398279093DC1378940895F8949091C4
:10591000DB13892398279093DB1378940895F894E8
:1059200090918313892398279093831378940895F3
:10593000F8949091E312892398279093E312789436
:105940000895F8949091E412892398279093E41293
:1059500078940895F8949091DA1389239827909376
:10596000DA1378940895F8949091DD138923982799
:105970009093DD1378940895F89490917913892386
:1059800098279093791378940895F8949091E11260
:10599000892398279093E11278940895F894909130
:1059A000731389239827909373137894089500971D
:1059B00031F023E52A95F1F700000197F8CF08951B
:1059C0006AE00E94D1C220E1829F900D1124892FAC
:1059D0000895982F92959F708F702AE0929F800D66
:1059E00011240895A6E0B0E0E8EFFCE20C9477C340
:1059F00083E4809320021092A40944E050E06EE218
:105A000071E0CE0101960E9482C9898191E0980FD0
:105A1000923030F0809320028A8180538093A409D1
:105A200083E480931F0281E080931E0244E050E0F3
:105A30006CE271E0CE0101960E9482C9898191E0F9
:105A4000980F923030F080931F028A8180538093A8
:105A50001E0280911C02823009F443C081E00E9442
:105A60002A1982E00E942A1980ED0E945A1980E0CA
:105A70000E945A1983E00E942A1982E00E942A1982
:105A800081ED0E945A1980E00E94C419A2DF809320
:105A9000A20980E00E94C4199CDF8093A10980E0E4
:105AA0000E94C41996DF8093A00981E00E94C41966
:105AB00080939F0983E00E942A1980919F09815059
:105AC000873068F082E080931C021092A209109245
:105AD000A1091092A00981E080939F0902C0109251
